{
  "abi": [
    {
      "inputs": [
        {
          "internalType": "uint256",
          "name": "index",
          "type": "uint256"
        }
      ],
      "name": "get",
      "outputs": [
        {
          "internalType": "bool",
          "name": "",
          "type": "bool"
        }
      ],
      "stateMutability": "view",
      "type": "function"
    },
    {
      "inputs": [
        {
          "internalType": "uint256",
          "name": "index",
          "type": "uint256"
        }
      ],
      "name": "set",
      "outputs": [],
      "stateMutability": "nonpayable",
      "type": "function"
    },
    {
      "inputs": [
        {
          "internalType": "uint256",
          "name": "index",
          "type": "uint256"
        },
        {
          "internalType": "bool",
          "name": "value",
          "type": "bool"
        }
      ],
      "name": "setTo",
      "outputs": [],
      "stateMutability": "nonpayable",
      "type": "function"
    },
    {
      "inputs": [
        {
          "internalType": "uint256",
          "name": "index",
          "type": "uint256"
        }
      ],
      "name": "unset",
      "outputs": [],
      "stateMutability": "nonpayable",
      "type": "function"
    }
  ],
  "bytecode": "608060405234801561001057600080fd5b506101eb806100206000396000f3fe608060405234801561001057600080fd5b506004361061004c5760003560e01c8063088d22551461005157806360fe47b1146100845780639507d39a146100b4578063dcc9d43c146100fa575b600080fd5b61008261005f366004610167565b600881901c60009081526020819052604090208054600160ff84161b1916905550565b005b610082610092366004610167565b600881901c60009081526020819052604090208054600160ff84161b17905550565b6100e66100c2366004610167565b600881901c600090815260208190526040812054600160ff84161b16151592915050565b604051901515815260200160405180910390f35b610082610108366004610180565b61011460008383610118565b5050565b801561014257600882901c60009081526020849052604090208054600160ff85161b179055505050565b600882901c60009081526020849052604090208054600160ff85161b19169055505050565b60006020828403121561017957600080fd5b5035919050565b6000806040838503121561019357600080fd5b82359150602083013580151581146101aa57600080fd5b80915050925092905056fea2646970667358221220ef0692a9edfe250dacf4a2d194de2c67605453a03944cf1e35efc7cc688cb54c64736f6c63430008150033",
  "bytecodeSha1": "604f34a2b05929b70ac61326ba387407814cc62c",
  "compiler": {
    "evm_version": "istanbul",
    "optimizer": {
      "enabled": true,
      "runs": 200
    },
    "version": "0.8.21+commit.d9974bed"
  },
  "contractName": "BitMapMock",
  "language": "Solidity",
  "natspec": {
    "kind": "dev",
    "methods": {},
    "version": 1
  },
  "opcodes": "PUSH1 0x80 PUSH1 0x40 MSTORE CALLVALUE DUP1 ISZERO PUSH2 0x10 JUMPI PUSH1 0x0 DUP1 REVERT JUMPDEST POP PUSH1 0x4 CALLDATASIZE LT PUSH2 0x4C JUMPI PUSH1 0x0 CALLDATALOAD PUSH1 0xE0 SHR DUP1 PUSH4 0x88D2255 EQ PUSH2 0x51 JUMPI DUP1 PUSH4 0x60FE47B1 EQ PUSH2 0x84 JUMPI DUP1 PUSH4 0x9507D39A EQ PUSH2 0xB4 JUMPI DUP1 PUSH4 0xDCC9D43C EQ PUSH2 0xFA JUMPI JUMPDEST PUSH1 0x0 DUP1 REVERT JUMPDEST PUSH2 0x82 PUSH2 0x5F CALLDATASIZE PUSH1 0x4 PUSH2 0x167 JUMP JUMPDEST PUSH1 0x8 DUP2 SWAP1 SHR PUSH1 0x0 SWAP1 DUP2 MSTORE PUSH1 0x20 DUP2 SWAP1 MSTORE PUSH1 0x40 SWAP1 KECCAK256 DUP1 SLOAD PUSH1 0x1 PUSH1 0xFF DUP5 AND SHL NOT AND SWAP1 SSTORE POP JUMP JUMPDEST STOP JUMPDEST PUSH2 0x82 PUSH2 0x92 CALLDATASIZE PUSH1 0x4 PUSH2 0x167 JUMP JUMPDEST PUSH1 0x8 DUP2 SWAP1 SHR PUSH1 0x0 SWAP1 DUP2 MSTORE PUSH1 0x20 DUP2 SWAP1 MSTORE PUSH1 0x40 SWAP1 KECCAK256 DUP1 SLOAD PUSH1 0x1 PUSH1 0xFF DUP5 AND SHL OR SWAP1 SSTORE POP JUMP JUMPDEST PUSH2 0xE6 PUSH2 0xC2 CALLDATASIZE PUSH1 0x4 PUSH2 0x167 JUMP JUMPDEST PUSH1 0x8 DUP2 SWAP1 SHR PUSH1 0x0 SWAP1 DUP2 MSTORE PUSH1 0x20 DUP2 SWAP1 MSTORE PUSH1 0x40 DUP2 KECCAK256 SLOAD PUSH1 0x1 PUSH1 0xFF DUP5 AND SHL AND ISZERO ISZERO SWAP3 SWAP2 POP POP JUMP JUMPDEST PUSH1 0x40 MLOAD SWAP1 ISZERO ISZERO DUP2 MSTORE PUSH1 0x20 ADD PUSH1 0x40 MLOAD DUP1 SWAP2 SUB SWAP1 RETURN JUMPDEST PUSH2 0x82 PUSH2 0x108 CALLDATASIZE PUSH1 0x4 PUSH2 0x180 JUMP JUMPDEST PUSH2 0x114 PUSH1 0x0 DUP4 DUP4 PUSH2 0x118 JUMP JUMPDEST POP POP JUMP JUMPDEST DUP1 ISZERO PUSH2 0x142 JUMPI PUSH1 0x8 DUP3 SWAP1 SHR PUSH1 0x0 SWAP1 DUP2 MSTORE PUSH1 0x20 DUP5 SWAP1 MSTORE PUSH1 0x40 SWAP1 KECCAK256 DUP1 SLOAD PUSH1 0x1 PUSH1 0xFF DUP6 AND SHL OR SWAP1 SSTORE POP POP POP JUMP JUMPDEST PUSH1 0x8 DUP3 SWAP1 SHR PUSH1 0x0 SWAP1 DUP2 MSTORE PUSH1 0x20 DUP5 SWAP1 MSTORE PUSH1 0x40 SWAP1 KECCAK256 DUP1 SLOAD PUSH1 0x1 PUSH1 0xFF DUP6 AND SHL NOT AND SWAP1 SSTORE POP POP POP JUMP JUMPDEST PUSH1 0x0 PUSH1 0x20 DUP3 DUP5 SUB SLT ISZERO PUSH2 0x179 JUMPI PUSH1 0x0 DUP1 REVERT JUMPDEST POP CALLDATALOAD SWAP2 SWAP1 POP JUMP JUMPDEST PUSH1 0x0 DUP1 PUSH1 0x40 DUP4 DUP6 SUB SLT ISZERO PUSH2 0x193 JUMPI PUSH1 0x0 DUP1 REVERT JUMPDEST DUP3 CALLDATALOAD SWAP2 POP PUSH1 0x20 DUP4 ADD CALLDATALOAD DUP1 ISZERO ISZERO DUP2 EQ PUSH2 0x1AA JUMPI PUSH1 0x0 DUP1 REVERT JUMPDEST DUP1 SWAP2 POP POP SWAP3 POP SWAP3 SWAP1 POP JUMP INVALID LOG2 PUSH5 0x6970667358 0x22 SLT KECCAK256 0xEF MOD SWAP3 0xA9 0xED INVALID 0x25 0xD 0xAC DELEGATECALL LOG2 0xD1 SWAP5 0xDE 0x2C PUSH8 0x605453A03944CF1E CALLDATALOAD 0xEF 0xC7 0xCC PUSH9 0x8CB54C64736F6C6343 STOP ADDMOD ISZERO STOP CALLER ",
  "sha1": "95649a6508ad235bbef879d655406ba602e71e21",
  "source": "// SPDX-License-Identifier: MIT\n\npragma solidity ^0.8.0;\n\nimport \"../utils/structs/BitMaps.sol\";\n\ncontract BitMapMock {\n    using BitMaps for BitMaps.BitMap;\n\n    BitMaps.BitMap private _bitmap;\n\n    function get(uint256 index) public view returns (bool) {\n        return _bitmap.get(index);\n    }\n\n    function setTo(uint256 index, bool value) public {\n        _bitmap.setTo(index, value);\n    }\n\n    function set(uint256 index) public {\n        _bitmap.set(index);\n    }\n\n    function unset(uint256 index) public {\n        _bitmap.unset(index);\n    }\n}\n",
  "sourcePath": "contracts/openzeppelin-solidity/contracts/mocks/BitmapMock.sol",
  "type": "contract"
}