{
  "abi": [
    {
      "inputs": [],
      "stateMutability": "nonpayable",
      "type": "constructor"
    },
    {
      "inputs": [],
      "name": "initialize",
      "outputs": [],
      "stateMutability": "nonpayable",
      "type": "function"
    },
    {
      "inputs": [],
      "name": "initializeOnlyInitializing",
      "outputs": [],
      "stateMutability": "nonpayable",
      "type": "function"
    },
    {
      "inputs": [],
      "name": "initializerRan",
      "outputs": [
        {
          "internalType": "bool",
          "name": "",
          "type": "bool"
        }
      ],
      "stateMutability": "view",
      "type": "function"
    },
    {
      "inputs": [],
      "name": "onlyInitializingRan",
      "outputs": [
        {
          "internalType": "bool",
          "name": "",
          "type": "bool"
        }
      ],
      "stateMutability": "view",
      "type": "function"
    }
  ],
  "bytecode": "608060405234801561001057600080fd5b50600054610100900460ff1661002c5760005460ff1615610030565b303b155b6100865760405162461bcd60e51b815260206004820152602e602482015260008051602061043a83398151915260448201526d191e481a5b9a5d1a585b1a5e995960921b60648201526084015b60405180910390fd5b600054610100900460ff161580156100a8576000805461ffff19166101011790555b6100b06100d0565b6100b8610188565b80156100ca576000805461ff00191690555b50610208565b600054610100900460ff166100eb5760005460ff16156100ef565b303b155b6101405760405162461bcd60e51b815260206004820152602e602482015260008051602061043a83398151915260448201526d191e481a5b9a5d1a585b1a5e995960921b606482015260840161007d565b600054610100900460ff16158015610162576000805461ffff19166101011790555b6000805462ff00001916620100001790558015610185576000805461ff00191690555b50565b600054610100900460ff166101f35760405162461bcd60e51b815260206004820152602b60248201527f496e697469616c697a61626c653a20636f6e7472616374206973206e6f74206960448201526a6e697469616c697a696e6760a81b606482015260840161007d565b6000805463ff00000019166301000000179055565b610223806102176000396000f3fe608060405234801561001057600080fd5b506004361061004c5760003560e01c806310065ed2146100515780637cffe97a1461005b5780638129fc1c14610083578063c3b8ef2a1461008b575b600080fd5b61005961009e565b005b60005461006f906301000000900460ff1681565b604051901515815260200160405180910390f35b610059610123565b60005461006f9062010000900460ff1681565b600054610100900460ff1661010e5760405162461bcd60e51b815260206004820152602b60248201527f496e697469616c697a61626c653a20636f6e7472616374206973206e6f74206960448201526a6e697469616c697a696e6760a81b60648201526084015b60405180910390fd5b6000805463ff00000019166301000000179055565b600054610100900460ff1661013e5760005460ff1615610142565b303b155b6101a55760405162461bcd60e51b815260206004820152602e60248201527f496e697469616c697a61626c653a20636f6e747261637420697320616c72656160448201526d191e481a5b9a5d1a585b1a5e995960921b6064820152608401610105565b600054610100900460ff161580156101c7576000805461ffff19166101011790555b6000805462ff000019166201000017905580156101ea576000805461ff00191690555b5056fea264697066735822122002eae992c30b1f4f75a3586d41d0fa7f67a4504ee7aa5a94ae2ef52fb5a0604864736f6c63430008150033496e697469616c697a61626c653a20636f6e747261637420697320616c726561",
  "bytecodeSha1": "da39a3ee5e6b4b0d3255bfef95601890afd80709",
  "compiler": {
    "evm_version": "istanbul",
    "optimizer": {
      "enabled": true,
      "runs": 200
    },
    "version": "0.8.21+commit.d9974bed"
  },
  "contractName": "ConstructorInitializableMock",
  "language": "Solidity",
  "natspec": {
    "kind": "dev",
    "methods": {},
    "version": 1
  },
  "opcodes": "PUSH1 0x80 PUSH1 0x40 MSTORE CALLVALUE DUP1 ISZERO PUSH2 0x10 JUMPI PUSH1 0x0 DUP1 REVERT JUMPDEST POP PUSH1 0x4 CALLDATASIZE LT PUSH2 0x4C JUMPI PUSH1 0x0 CALLDATALOAD PUSH1 0xE0 SHR DUP1 PUSH4 0x10065ED2 EQ PUSH2 0x51 JUMPI DUP1 PUSH4 0x7CFFE97A EQ PUSH2 0x5B JUMPI DUP1 PUSH4 0x8129FC1C EQ PUSH2 0x83 JUMPI DUP1 PUSH4 0xC3B8EF2A EQ PUSH2 0x8B JUMPI JUMPDEST PUSH1 0x0 DUP1 REVERT JUMPDEST PUSH2 0x59 PUSH2 0x9E JUMP JUMPDEST STOP JUMPDEST PUSH1 0x0 SLOAD PUSH2 0x6F SWAP1 PUSH4 0x1000000 SWAP1 DIV PUSH1 0xFF AND DUP2 JUMP JUMPDEST PUSH1 0x40 MLOAD SWAP1 ISZERO ISZERO DUP2 MSTORE PUSH1 0x20 ADD PUSH1 0x40 MLOAD DUP1 SWAP2 SUB SWAP1 RETURN JUMPDEST PUSH2 0x59 PUSH2 0x123 JUMP JUMPDEST PUSH1 0x0 SLOAD PUSH2 0x6F SWAP1 PUSH3 0x10000 SWAP1 DIV PUSH1 0xFF AND DUP2 JUMP JUMPDEST PUSH1 0x0 SLOAD PUSH2 0x100 SWAP1 DIV PUSH1 0xFF AND PUSH2 0x10E JUMPI PUSH1 0x40 MLOAD PUSH3 0x461BCD PUSH1 0xE5 SHL DUP2 MSTORE PUSH1 0x20 PUSH1 0x4 DUP3 ADD MSTORE PUSH1 0x2B PUSH1 0x24 DUP3 ADD MSTORE PUSH32 0x496E697469616C697A61626C653A20636F6E7472616374206973206E6F742069 PUSH1 0x44 DUP3 ADD MSTORE PUSH11 0x6E697469616C697A696E67 PUSH1 0xA8 SHL PUSH1 0x64 DUP3 ADD MSTORE PUSH1 0x84 ADD JUMPDEST PUSH1 0x40 MLOAD DUP1 SWAP2 SUB SWAP1 REVERT JUMPDEST PUSH1 0x0 DUP1 SLOAD PUSH4 0xFF000000 NOT AND PUSH4 0x1000000 OR SWAP1 SSTORE JUMP JUMPDEST PUSH1 0x0 SLOAD PUSH2 0x100 SWAP1 DIV PUSH1 0xFF AND PUSH2 0x13E JUMPI PUSH1 0x0 SLOAD PUSH1 0xFF AND ISZERO PUSH2 0x142 JUMP JUMPDEST ADDRESS EXTCODESIZE ISZERO JUMPDEST PUSH2 0x1A5 JUMPI PUSH1 0x40 MLOAD PUSH3 0x461BCD PUSH1 0xE5 SHL DUP2 MSTORE PUSH1 0x20 PUSH1 0x4 DUP3 ADD MSTORE PUSH1 0x2E PUSH1 0x24 DUP3 ADD MSTORE PUSH32 0x496E697469616C697A61626C653A20636F6E747261637420697320616C726561 PUSH1 0x44 DUP3 ADD MSTORE PUSH14 0x191E481A5B9A5D1A585B1A5E9959 PUSH1 0x92 SHL PUSH1 0x64 DUP3 ADD MSTORE PUSH1 0x84 ADD PUSH2 0x105 JUMP JUMPDEST PUSH1 0x0 SLOAD PUSH2 0x100 SWAP1 DIV PUSH1 0xFF AND ISZERO DUP1 ISZERO PUSH2 0x1C7 JUMPI PUSH1 0x0 DUP1 SLOAD PUSH2 0xFFFF NOT AND PUSH2 0x101 OR SWAP1 SSTORE JUMPDEST PUSH1 0x0 DUP1 SLOAD PUSH3 0xFF0000 NOT AND PUSH3 0x10000 OR SWAP1 SSTORE DUP1 ISZERO PUSH2 0x1EA JUMPI PUSH1 0x0 DUP1 SLOAD PUSH2 0xFF00 NOT AND SWAP1 SSTORE JUMPDEST POP JUMP INVALID LOG2 PUSH5 0x6970667358 0x22 SLT KECCAK256 MUL 0xEA 0xE9 SWAP3 0xC3 SIGNEXTEND 0x1F 0x4F PUSH22 0xA3586D41D0FA7F67A4504EE7AA5A94AE2EF52FB5A060 BASEFEE PUSH5 0x736F6C6343 STOP ADDMOD ISZERO STOP CALLER ",
  "sha1": "00de3e1a260815e61b9fab6efbe8cda911d7043d",
  "source": "// SPDX-License-Identifier: MIT\n\npragma solidity ^0.8.0;\n\nimport \"../proxy/utils/Initializable.sol\";\n\n/**\n * @title InitializableMock\n * @dev This contract is a mock to test initializable functionality\n */\ncontract InitializableMock is Initializable {\n    bool public initializerRan;\n    bool public onlyInitializingRan;\n    uint256 public x;\n\n    function initialize() public initializer {\n        initializerRan = true;\n    }\n\n    function initializeOnlyInitializing() public onlyInitializing {\n        onlyInitializingRan = true;\n    }\n\n    function initializerNested() public initializer {\n        initialize();\n    }\n\n    function onlyInitializingNested() public initializer {\n        initializeOnlyInitializing();\n    }\n\n    function initializeWithX(uint256 _x) public payable initializer {\n        x = _x;\n    }\n\n    function nonInitializable(uint256 _x) public payable {\n        x = _x;\n    }\n\n    function fail() public pure {\n        require(false, \"InitializableMock forced failure\");\n    }\n}\n\ncontract ConstructorInitializableMock is Initializable {\n    bool public initializerRan;\n    bool public onlyInitializingRan;\n\n    constructor() initializer {\n        initialize();\n        initializeOnlyInitializing();\n    }\n\n    function initialize() public initializer {\n        initializerRan = true;\n    }\n\n    function initializeOnlyInitializing() public onlyInitializing {\n        onlyInitializingRan = true;\n    }\n}\n",
  "sourcePath": "contracts/openzeppelin-solidity/contracts/mocks/InitializableMock.sol",
  "type": "contract"
}