{
  "abi": [
    {
      "inputs": [],
      "name": "get",
      "outputs": [
        {
          "internalType": "bool",
          "name": "",
          "type": "bool"
        }
      ],
      "stateMutability": "pure",
      "type": "function"
    },
    {
      "inputs": [
        {
          "internalType": "uint256",
          "name": "_value",
          "type": "uint256"
        },
        {
          "internalType": "string",
          "name": "_text",
          "type": "string"
        },
        {
          "internalType": "uint256[]",
          "name": "_values",
          "type": "uint256[]"
        }
      ],
      "name": "initialize",
      "outputs": [],
      "stateMutability": "nonpayable",
      "type": "function"
    },
    {
      "inputs": [],
      "name": "initializeNonPayable",
      "outputs": [],
      "stateMutability": "nonpayable",
      "type": "function"
    },
    {
      "inputs": [
        {
          "internalType": "uint256",
          "name": "_value",
          "type": "uint256"
        }
      ],
      "name": "initializeNonPayableWithValue",
      "outputs": [],
      "stateMutability": "nonpayable",
      "type": "function"
    },
    {
      "inputs": [],
      "name": "initializePayable",
      "outputs": [],
      "stateMutability": "payable",
      "type": "function"
    },
    {
      "inputs": [
        {
          "internalType": "uint256",
          "name": "_value",
          "type": "uint256"
        }
      ],
      "name": "initializePayableWithValue",
      "outputs": [],
      "stateMutability": "payable",
      "type": "function"
    },
    {
      "inputs": [],
      "name": "reverts",
      "outputs": [],
      "stateMutability": "pure",
      "type": "function"
    },
    {
      "inputs": [],
      "name": "text",
      "outputs": [
        {
          "internalType": "string",
          "name": "",
          "type": "string"
        }
      ],
      "stateMutability": "view",
      "type": "function"
    },
    {
      "inputs": [],
      "name": "value",
      "outputs": [
        {
          "internalType": "uint256",
          "name": "",
          "type": "uint256"
        }
      ],
      "stateMutability": "view",
      "type": "function"
    },
    {
      "inputs": [
        {
          "internalType": "uint256",
          "name": "",
          "type": "uint256"
        }
      ],
      "name": "values",
      "outputs": [
        {
          "internalType": "uint256",
          "name": "",
          "type": "uint256"
        }
      ],
      "stateMutability": "view",
      "type": "function"
    },
    {
      "inputs": [],
      "name": "version",
      "outputs": [
        {
          "internalType": "string",
          "name": "",
          "type": "string"
        }
      ],
      "stateMutability": "pure",
      "type": "function"
    }
  ],
  "bytecode": "608060405234801561001057600080fd5b506106d0806100206000396000f3fe60806040526004361061009c5760003560e01c80635e383d21116100645780635e383d21146101495780636d4ce63c14610169578063763e2831146101855780639fba1f9a146101a5578063d31f8b6b146101af578063e79f5bee146101cf57600080fd5b80631f1bd692146100a1578063227367d5146100cc5780633bccbbc9146100e55780633fa4f245146100fa57806354fd4d501461011e575b600080fd5b3480156100ad57600080fd5b506100b66101dd565b6040516100c39190610363565b60405180910390f35b3480156100d857600080fd5b506100e3600a600055565b005b3480156100f157600080fd5b506100e361026b565b34801561010657600080fd5b5061011060005481565b6040519081526020016100c3565b34801561012a57600080fd5b50604080518082019091526002815261563160f01b60208201526100b6565b34801561015557600080fd5b506101106101643660046103b1565b6102b7565b34801561017557600080fd5b50604051600181526020016100c3565b34801561019157600080fd5b506100e36101a03660046103b1565b600055565b6100e36064600055565b3480156101bb57600080fd5b506100e36101ca366004610491565b6102d8565b6100e36101a03660046103b1565b600180546101ea90610551565b80601f016020809104026020016040519081016040528092919081815260200182805461021690610551565b80156102635780601f1061023857610100808354040283529160200191610263565b820191906000526020600020905b81548152906001019060200180831161024657829003601f168201915b505050505081565b60405162461bcd60e51b815260206004820152601c60248201527f44756d6d79496d706c656d656e746174696f6e20726576657274656400000000604482015260640160405180910390fd5b600281815481106102c757600080fd5b600091825260209091200154905081565b600083905560016102e983826105da565b5080516102fd906002906020840190610303565b50505050565b82805482825590600052602060002090810192821561033e579160200282015b8281111561033e578251825591602001919060010190610323565b5061034a92915061034e565b5090565b5b8082111561034a576000815560010161034f565b600060208083528351808285015260005b8181101561039057858101830151858201604001528201610374565b506000604082860101526040601f19601f8301168501019250505092915050565b6000602082840312156103c357600080fd5b5035919050565b634e487b7160e01b600052604160045260246000fd5b604051601f8201601f1916810167ffffffffffffffff81118282101715610409576104096103ca565b604052919050565b600082601f83011261042257600080fd5b8135602067ffffffffffffffff82111561043e5761043e6103ca565b8160051b61044d8282016103e0565b928352848101820192828101908785111561046757600080fd5b83870192505b848310156104865782358252918301919083019061046d565b979650505050505050565b6000806000606084860312156104a657600080fd5b8335925060208085013567ffffffffffffffff808211156104c657600080fd5b818701915087601f8301126104da57600080fd5b8135818111156104ec576104ec6103ca565b6104fe601f8201601f191685016103e0565b818152898583860101111561051257600080fd5b81858501868301376000918101909401529193506040860135918083111561053957600080fd5b505061054786828701610411565b9150509250925092565b600181811c9082168061056557607f821691505b60208210810361058557634e487b7160e01b600052602260045260246000fd5b50919050565b601f8211156105d557600081815260208120601f850160051c810160208610156105b25750805b601f850160051c820191505b818110156105d1578281556001016105be565b5050505b505050565b815167ffffffffffffffff8111156105f4576105f46103ca565b610608816106028454610551565b8461058b565b602080601f83116001811461063d57600084156106255750858301515b600019600386901b1c1916600185901b1785556105d1565b600085815260208120601f198616915b8281101561066c5788860151825594840194600190910190840161064d565b508582101561068a5787850151600019600388901b60f8161c191681555b5050505050600190811b0190555056fea26469706673582212204f11505e511c84558acd81f2653e26853addfbd5e80fa115e5430391c779b4b864736f6c63430008150033",
  "bytecodeSha1": "e7ee62e8fd862c5c8e4ed9d4e782054c34cecfd5",
  "compiler": {
    "evm_version": "istanbul",
    "optimizer": {
      "enabled": true,
      "runs": 200
    },
    "version": "0.8.21+commit.d9974bed"
  },
  "contractName": "DummyImplementation",
  "language": "Solidity",
  "natspec": {
    "kind": "dev",
    "methods": {},
    "version": 1
  },
  "opcodes": "PUSH1 0x80 PUSH1 0x40 MSTORE PUSH1 0x4 CALLDATASIZE LT PUSH2 0x9C JUMPI PUSH1 0x0 CALLDATALOAD PUSH1 0xE0 SHR DUP1 PUSH4 0x5E383D21 GT PUSH2 0x64 JUMPI DUP1 PUSH4 0x5E383D21 EQ PUSH2 0x149 JUMPI DUP1 PUSH4 0x6D4CE63C EQ PUSH2 0x169 JUMPI DUP1 PUSH4 0x763E2831 EQ PUSH2 0x185 JUMPI DUP1 PUSH4 0x9FBA1F9A EQ PUSH2 0x1A5 JUMPI DUP1 PUSH4 0xD31F8B6B EQ PUSH2 0x1AF JUMPI DUP1 PUSH4 0xE79F5BEE EQ PUSH2 0x1CF JUMPI PUSH1 0x0 DUP1 REVERT JUMPDEST DUP1 PUSH4 0x1F1BD692 EQ PUSH2 0xA1 JUMPI DUP1 PUSH4 0x227367D5 EQ PUSH2 0xCC JUMPI DUP1 PUSH4 0x3BCCBBC9 EQ PUSH2 0xE5 JUMPI DUP1 PUSH4 0x3FA4F245 EQ PUSH2 0xFA JUMPI DUP1 PUSH4 0x54FD4D50 EQ PUSH2 0x11E JUMPI JUMPDEST PUSH1 0x0 DUP1 REVERT JUMPDEST CALLVALUE DUP1 ISZERO PUSH2 0xAD JUMPI PUSH1 0x0 DUP1 REVERT JUMPDEST POP PUSH2 0xB6 PUSH2 0x1DD JUMP JUMPDEST PUSH1 0x40 MLOAD PUSH2 0xC3 SWAP2 SWAP1 PUSH2 0x363 JUMP JUMPDEST PUSH1 0x40 MLOAD DUP1 SWAP2 SUB SWAP1 RETURN JUMPDEST CALLVALUE DUP1 ISZERO PUSH2 0xD8 JUMPI PUSH1 0x0 DUP1 REVERT JUMPDEST POP PUSH2 0xE3 PUSH1 0xA PUSH1 0x0 SSTORE JUMP JUMPDEST STOP JUMPDEST CALLVALUE DUP1 ISZERO PUSH2 0xF1 JUMPI PUSH1 0x0 DUP1 REVERT JUMPDEST POP PUSH2 0xE3 PUSH2 0x26B JUMP JUMPDEST CALLVALUE DUP1 ISZERO PUSH2 0x106 JUMPI PUSH1 0x0 DUP1 REVERT JUMPDEST POP PUSH2 0x110 PUSH1 0x0 SLOAD DUP2 JUMP JUMPDEST PUSH1 0x40 MLOAD SWAP1 DUP2 MSTORE PUSH1 0x20 ADD PUSH2 0xC3 JUMP JUMPDEST CALLVALUE DUP1 ISZERO PUSH2 0x12A JUMPI PUSH1 0x0 DUP1 REVERT JUMPDEST POP PUSH1 0x40 DUP1 MLOAD DUP1 DUP3 ADD SWAP1 SWAP2 MSTORE PUSH1 0x2 DUP2 MSTORE PUSH2 0x5631 PUSH1 0xF0 SHL PUSH1 0x20 DUP3 ADD MSTORE PUSH2 0xB6 JUMP JUMPDEST CALLVALUE DUP1 ISZERO PUSH2 0x155 JUMPI PUSH1 0x0 DUP1 REVERT JUMPDEST POP PUSH2 0x110 PUSH2 0x164 CALLDATASIZE PUSH1 0x4 PUSH2 0x3B1 JUMP JUMPDEST PUSH2 0x2B7 JUMP JUMPDEST CALLVALUE DUP1 ISZERO PUSH2 0x175 JUMPI PUSH1 0x0 DUP1 REVERT JUMPDEST POP PUSH1 0x40 MLOAD PUSH1 0x1 DUP2 MSTORE PUSH1 0x20 ADD PUSH2 0xC3 JUMP JUMPDEST CALLVALUE DUP1 ISZERO PUSH2 0x191 JUMPI PUSH1 0x0 DUP1 REVERT JUMPDEST POP PUSH2 0xE3 PUSH2 0x1A0 CALLDATASIZE PUSH1 0x4 PUSH2 0x3B1 JUMP JUMPDEST PUSH1 0x0 SSTORE JUMP JUMPDEST PUSH2 0xE3 PUSH1 0x64 PUSH1 0x0 SSTORE JUMP JUMPDEST CALLVALUE DUP1 ISZERO PUSH2 0x1BB JUMPI PUSH1 0x0 DUP1 REVERT JUMPDEST POP PUSH2 0xE3 PUSH2 0x1CA CALLDATASIZE PUSH1 0x4 PUSH2 0x491 JUMP JUMPDEST PUSH2 0x2D8 JUMP JUMPDEST PUSH2 0xE3 PUSH2 0x1A0 CALLDATASIZE PUSH1 0x4 PUSH2 0x3B1 JUMP JUMPDEST PUSH1 0x1 DUP1 SLOAD PUSH2 0x1EA SWAP1 PUSH2 0x551 JUMP JUMPDEST DUP1 PUSH1 0x1F ADD PUSH1 0x20 DUP1 SWAP2 DIV MUL PUSH1 0x20 ADD PUSH1 0x40 MLOAD SWAP1 DUP2 ADD PUSH1 0x40 MSTORE DUP1 SWAP3 SWAP2 SWAP1 DUP2 DUP2 MSTORE PUSH1 0x20 ADD DUP3 DUP1 SLOAD PUSH2 0x216 SWAP1 PUSH2 0x551 JUMP JUMPDEST DUP1 ISZERO PUSH2 0x263 JUMPI DUP1 PUSH1 0x1F LT PUSH2 0x238 JUMPI PUSH2 0x100 DUP1 DUP4 SLOAD DIV MUL DUP4 MSTORE SWAP2 PUSH1 0x20 ADD SWAP2 PUSH2 0x263 JUMP JUMPDEST DUP3 ADD SWAP2 SWAP1 PUSH1 0x0 MSTORE PUSH1 0x20 PUSH1 0x0 KECCAK256 SWAP1 JUMPDEST DUP2 SLOAD DUP2 MSTORE SWAP1 PUSH1 0x1 ADD SWAP1 PUSH1 0x20 ADD DUP1 DUP4 GT PUSH2 0x246 JUMPI DUP3 SWAP1 SUB PUSH1 0x1F AND DUP3 ADD SWAP2 JUMPDEST POP POP POP POP POP DUP2 JUMP JUMPDEST PUSH1 0x40 MLOAD PUSH3 0x461BCD PUSH1 0xE5 SHL DUP2 MSTORE PUSH1 0x20 PUSH1 0x4 DUP3 ADD MSTORE PUSH1 0x1C PUSH1 0x24 DUP3 ADD MSTORE PUSH32 0x44756D6D79496D706C656D656E746174696F6E20726576657274656400000000 PUSH1 0x44 DUP3 ADD MSTORE PUSH1 0x64 ADD PUSH1 0x40 MLOAD DUP1 SWAP2 SUB SWAP1 REVERT JUMPDEST PUSH1 0x2 DUP2 DUP2 SLOAD DUP2 LT PUSH2 0x2C7 JUMPI PUSH1 0x0 DUP1 REVERT JUMPDEST PUSH1 0x0 SWAP2 DUP3 MSTORE PUSH1 0x20 SWAP1 SWAP2 KECCAK256 ADD SLOAD SWAP1 POP DUP2 JUMP JUMPDEST PUSH1 0x0 DUP4 SWAP1 SSTORE PUSH1 0x1 PUSH2 0x2E9 DUP4 DUP3 PUSH2 0x5DA JUMP JUMPDEST POP DUP1 MLOAD PUSH2 0x2FD SWAP1 PUSH1 0x2 SWAP1 PUSH1 0x20 DUP5 ADD SWAP1 PUSH2 0x303 JUMP JUMPDEST POP POP POP POP JUMP JUMPDEST DUP3 DUP1 SLOAD DUP3 DUP3 SSTORE SWAP1 PUSH1 0x0 MSTORE PUSH1 0x20 PUSH1 0x0 KECCAK256 SWAP1 DUP2 ADD SWAP3 DUP3 ISZERO PUSH2 0x33E JUMPI SWAP2 PUSH1 0x20 MUL DUP3 ADD JUMPDEST DUP3 DUP2 GT ISZERO PUSH2 0x33E JUMPI DUP3 MLOAD DUP3 SSTORE SWAP2 PUSH1 0x20 ADD SWAP2 SWAP1 PUSH1 0x1 ADD SWAP1 PUSH2 0x323 JUMP JUMPDEST POP PUSH2 0x34A SWAP3 SWAP2 POP PUSH2 0x34E JUMP JUMPDEST POP SWAP1 JUMP JUMPDEST JUMPDEST DUP1 DUP3 GT ISZERO PUSH2 0x34A JUMPI PUSH1 0x0 DUP2 SSTORE PUSH1 0x1 ADD PUSH2 0x34F JUMP JUMPDEST PUSH1 0x0 PUSH1 0x20 DUP1 DUP4 MSTORE DUP4 MLOAD DUP1 DUP3 DUP6 ADD MSTORE PUSH1 0x0 JUMPDEST DUP2 DUP2 LT ISZERO PUSH2 0x390 JUMPI DUP6 DUP2 ADD DUP4 ADD MLOAD DUP6 DUP3 ADD PUSH1 0x40 ADD MSTORE DUP3 ADD PUSH2 0x374 JUMP JUMPDEST POP PUSH1 0x0 PUSH1 0x40 DUP3 DUP7 ADD ADD MSTORE PUSH1 0x40 PUSH1 0x1F NOT PUSH1 0x1F DUP4 ADD AND DUP6 ADD ADD SWAP3 POP POP POP SWAP3 SWAP2 POP POP JUMP JUMPDEST PUSH1 0x0 PUSH1 0x20 DUP3 DUP5 SUB SLT ISZERO PUSH2 0x3C3 JUMPI PUSH1 0x0 DUP1 REVERT JUMPDEST POP CALLDATALOAD SWAP2 SWAP1 POP JUMP JUMPDEST PUSH4 0x4E487B71 PUSH1 0xE0 SHL PUSH1 0x0 MSTORE PUSH1 0x41 PUSH1 0x4 MSTORE PUSH1 0x24 PUSH1 0x0 REVERT JUMPDEST PUSH1 0x40 MLOAD PUSH1 0x1F DUP3 ADD PUSH1 0x1F NOT AND DUP2 ADD PUSH8 0xFFFFFFFFFFFFFFFF DUP2 GT DUP3 DUP3 LT OR ISZERO PUSH2 0x409 JUMPI PUSH2 0x409 PUSH2 0x3CA JUMP JUMPDEST PUSH1 0x40 MSTORE SWAP2 SWAP1 POP JUMP JUMPDEST PUSH1 0x0 DUP3 PUSH1 0x1F DUP4 ADD SLT PUSH2 0x422 JUMPI PUSH1 0x0 DUP1 REVERT JUMPDEST DUP2 CALLDATALOAD PUSH1 0x20 PUSH8 0xFFFFFFFFFFFFFFFF DUP3 GT ISZERO PUSH2 0x43E JUMPI PUSH2 0x43E PUSH2 0x3CA JUMP JUMPDEST DUP2 PUSH1 0x5 SHL PUSH2 0x44D DUP3 DUP3 ADD PUSH2 0x3E0 JUMP JUMPDEST SWAP3 DUP4 MSTORE DUP5 DUP2 ADD DUP3 ADD SWAP3 DUP3 DUP2 ADD SWAP1 DUP8 DUP6 GT ISZERO PUSH2 0x467 JUMPI PUSH1 0x0 DUP1 REVERT JUMPDEST DUP4 DUP8 ADD SWAP3 POP JUMPDEST DUP5 DUP4 LT ISZERO PUSH2 0x486 JUMPI DUP3 CALLDATALOAD DUP3 MSTORE SWAP2 DUP4 ADD SWAP2 SWAP1 DUP4 ADD SWAP1 PUSH2 0x46D JUMP JUMPDEST SWAP8 SWAP7 POP POP POP POP POP POP POP JUMP JUMPDEST PUSH1 0x0 DUP1 PUSH1 0x0 PUSH1 0x60 DUP5 DUP7 SUB SLT ISZERO PUSH2 0x4A6 JUMPI PUSH1 0x0 DUP1 REVERT JUMPDEST DUP4 CALLDATALOAD SWAP3 POP PUSH1 0x20 DUP1 DUP6 ADD CALLDATALOAD PUSH8 0xFFFFFFFFFFFFFFFF DUP1 DUP3 GT ISZERO PUSH2 0x4C6 JUMPI PUSH1 0x0 DUP1 REVERT JUMPDEST DUP2 DUP8 ADD SWAP2 POP DUP8 PUSH1 0x1F DUP4 ADD SLT PUSH2 0x4DA JUMPI PUSH1 0x0 DUP1 REVERT JUMPDEST DUP2 CALLDATALOAD DUP2 DUP2 GT ISZERO PUSH2 0x4EC JUMPI PUSH2 0x4EC PUSH2 0x3CA JUMP JUMPDEST PUSH2 0x4FE PUSH1 0x1F DUP3 ADD PUSH1 0x1F NOT AND DUP6 ADD PUSH2 0x3E0 JUMP JUMPDEST DUP2 DUP2 MSTORE DUP10 DUP6 DUP4 DUP7 ADD ADD GT ISZERO PUSH2 0x512 JUMPI PUSH1 0x0 DUP1 REVERT JUMPDEST DUP2 DUP6 DUP6 ADD DUP7 DUP4 ADD CALLDATACOPY PUSH1 0x0 SWAP2 DUP2 ADD SWAP1 SWAP5 ADD MSTORE SWAP2 SWAP4 POP PUSH1 0x40 DUP7 ADD CALLDATALOAD SWAP2 DUP1 DUP4 GT ISZERO PUSH2 0x539 JUMPI PUSH1 0x0 DUP1 REVERT JUMPDEST POP POP PUSH2 0x547 DUP7 DUP3 DUP8 ADD PUSH2 0x411 JUMP JUMPDEST SWAP2 POP POP SWAP3 POP SWAP3 POP SWAP3 JUMP JUMPDEST PUSH1 0x1 DUP2 DUP2 SHR SWAP1 DUP3 AND DUP1 PUSH2 0x565 JUMPI PUSH1 0x7F DUP3 AND SWAP2 POP JUMPDEST PUSH1 0x20 DUP3 LT DUP2 SUB PUSH2 0x585 JUMPI PUSH4 0x4E487B71 PUSH1 0xE0 SHL PUSH1 0x0 MSTORE PUSH1 0x22 PUSH1 0x4 MSTORE PUSH1 0x24 PUSH1 0x0 REVERT JUMPDEST POP SWAP2 SWAP1 POP JUMP JUMPDEST PUSH1 0x1F DUP3 GT ISZERO PUSH2 0x5D5 JUMPI PUSH1 0x0 DUP2 DUP2 MSTORE PUSH1 0x20 DUP2 KECCAK256 PUSH1 0x1F DUP6 ADD PUSH1 0x5 SHR DUP2 ADD PUSH1 0x20 DUP7 LT ISZERO PUSH2 0x5B2 JUMPI POP DUP1 JUMPDEST PUSH1 0x1F DUP6 ADD PUSH1 0x5 SHR DUP3 ADD SWAP2 POP JUMPDEST DUP2 DUP2 LT ISZERO PUSH2 0x5D1 JUMPI DUP3 DUP2 SSTORE PUSH1 0x1 ADD PUSH2 0x5BE JUMP JUMPDEST POP POP POP JUMPDEST POP POP POP JUMP JUMPDEST DUP2 MLOAD PUSH8 0xFFFFFFFFFFFFFFFF DUP2 GT ISZERO PUSH2 0x5F4 JUMPI PUSH2 0x5F4 PUSH2 0x3CA JUMP JUMPDEST PUSH2 0x608 DUP2 PUSH2 0x602 DUP5 SLOAD PUSH2 0x551 JUMP JUMPDEST DUP5 PUSH2 0x58B JUMP JUMPDEST PUSH1 0x20 DUP1 PUSH1 0x1F DUP4 GT PUSH1 0x1 DUP2 EQ PUSH2 0x63D JUMPI PUSH1 0x0 DUP5 ISZERO PUSH2 0x625 JUMPI POP DUP6 DUP4 ADD MLOAD JUMPDEST PUSH1 0x0 NOT PUSH1 0x3 DUP7 SWAP1 SHL SHR NOT AND PUSH1 0x1 DUP6 SWAP1 SHL OR DUP6 SSTORE PUSH2 0x5D1 JUMP JUMPDEST PUSH1 0x0 DUP6 DUP2 MSTORE PUSH1 0x20 DUP2 KECCAK256 PUSH1 0x1F NOT DUP7 AND SWAP2 JUMPDEST DUP3 DUP2 LT ISZERO PUSH2 0x66C JUMPI DUP9 DUP7 ADD MLOAD DUP3 SSTORE SWAP5 DUP5 ADD SWAP5 PUSH1 0x1 SWAP1 SWAP2 ADD SWAP1 DUP5 ADD PUSH2 0x64D JUMP JUMPDEST POP DUP6 DUP3 LT ISZERO PUSH2 0x68A JUMPI DUP8 DUP6 ADD MLOAD PUSH1 0x0 NOT PUSH1 0x3 DUP9 SWAP1 SHL PUSH1 0xF8 AND SHR NOT AND DUP2 SSTORE JUMPDEST POP POP POP POP POP PUSH1 0x1 SWAP1 DUP2 SHL ADD SWAP1 SSTORE POP JUMP INVALID LOG2 PUSH5 0x6970667358 0x22 SLT KECCAK256 0x4F GT POP 0x5E MLOAD SHR DUP5 SSTORE DUP11 0xCD DUP2 CALLCODE PUSH6 0x3E26853ADDFB 0xD5 0xE8 0xF LOG1 ISZERO 0xE5 NUMBER SUB SWAP2 0xC7 PUSH26 0xB4B864736F6C6343000815003300000000000000000000000000 ",
  "sha1": "200f7676dc6520dc03a6ec39670b0e3854b5d340",
  "source": "// SPDX-License-Identifier: MIT\n\npragma solidity ^0.8.0;\n\nabstract contract Impl {\n    function version() public pure virtual returns (string memory);\n}\n\ncontract DummyImplementation {\n    uint256 public value;\n    string public text;\n    uint256[] public values;\n\n    function initializeNonPayable() public {\n        value = 10;\n    }\n\n    function initializePayable() public payable {\n        value = 100;\n    }\n\n    function initializeNonPayableWithValue(uint256 _value) public {\n        value = _value;\n    }\n\n    function initializePayableWithValue(uint256 _value) public payable {\n        value = _value;\n    }\n\n    function initialize(\n        uint256 _value,\n        string memory _text,\n        uint256[] memory _values\n    ) public {\n        value = _value;\n        text = _text;\n        values = _values;\n    }\n\n    function get() public pure returns (bool) {\n        return true;\n    }\n\n    function version() public pure virtual returns (string memory) {\n        return \"V1\";\n    }\n\n    function reverts() public pure {\n        require(false, \"DummyImplementation reverted\");\n    }\n}\n\ncontract DummyImplementationV2 is DummyImplementation {\n    function migrate(uint256 newVal) public payable {\n        value = newVal;\n    }\n\n    function version() public pure override returns (string memory) {\n        return \"V2\";\n    }\n}\n",
  "sourcePath": "contracts/openzeppelin-solidity/contracts/mocks/DummyImplementation.sol",
  "type": "contract"
}