{
  "abi": [
    {
      "inputs": [
        {
          "internalType": "string",
          "name": "name",
          "type": "string"
        },
        {
          "internalType": "string",
          "name": "version",
          "type": "string"
        }
      ],
      "stateMutability": "nonpayable",
      "type": "constructor"
    },
    {
      "inputs": [],
      "name": "domainSeparator",
      "outputs": [
        {
          "internalType": "bytes32",
          "name": "",
          "type": "bytes32"
        }
      ],
      "stateMutability": "view",
      "type": "function"
    },
    {
      "inputs": [],
      "name": "getChainId",
      "outputs": [
        {
          "internalType": "uint256",
          "name": "",
          "type": "uint256"
        }
      ],
      "stateMutability": "view",
      "type": "function"
    },
    {
      "inputs": [
        {
          "internalType": "bytes",
          "name": "signature",
          "type": "bytes"
        },
        {
          "internalType": "address",
          "name": "signer",
          "type": "address"
        },
        {
          "internalType": "address",
          "name": "mailTo",
          "type": "address"
        },
        {
          "internalType": "string",
          "name": "mailContents",
          "type": "string"
        }
      ],
      "name": "verify",
      "outputs": [],
      "stateMutability": "view",
      "type": "function"
    }
  ],
  "bytecode": "61014060405234801561001157600080fd5b50604051610a19380380610a198339810160408190526100309161017f565b815160209283012081519183019190912060e08290526101008190524660a0818152604080517f8b73c3c69bb8fe3d512ecc4cf759cc79239f7b179b0ffacaa9a75d522b39400f818801819052818301969096526060810194909452608080850193909352308483018190528151808603909301835260c094850190915281519190950120905291909152610120526101e2565b634e487b7160e01b600052604160045260246000fd5b600082601f8301126100eb57600080fd5b81516001600160401b0380821115610105576101056100c4565b604051601f8301601f19908116603f0116810190828211818310171561012d5761012d6100c4565b8160405283815260209250868385880101111561014957600080fd5b600091505b8382101561016b578582018301518183018401529082019061014e565b600093810190920192909252949350505050565b6000806040838503121561019257600080fd5b82516001600160401b03808211156101a957600080fd5b6101b5868387016100da565b935060208501519150808211156101cb57600080fd5b506101d8858286016100da565b9150509250929050565b60805160a05160c05160e05161010051610120516107e86102316000396000610234015260006102830152600061025e015260006101b7015260006101e10152600061020b01526107e86000f3fe608060405234801561001057600080fd5b50600436106100415760003560e01c806308c6e079146100465780633408e4701461005b578063f698da251461006f575b600080fd5b6100596100543660046106cb565b610077565b005b465b60405190815260200160405180910390f35b61005d610123565b60006100ed7f847fc9da8ec3c72cae85ca691245eaeb0a4a1e74f77c3a919c43afda231d39ba8484805190602001206040516020016100d2939291909283526001600160a01b03919091166020830152604082015260600190565b60405160208183030381529060405280519060200120610132565b905060006100fb8287610186565b9050846001600160a01b0316816001600160a01b03161461011b57600080fd5b505050505050565b600061012d6101aa565b905090565b600061018061013f6101aa565b8360405161190160f01b6020820152602281018390526042810182905260009060620160405160208183030381529060405280519060200120905092915050565b92915050565b600080600061019585856102d1565b915091506101a28161033f565b509392505050565b6000306001600160a01b037f00000000000000000000000000000000000000000000000000000000000000001614801561020357507f000000000000000000000000000000000000000000000000000000000000000046145b1561022d57507f000000000000000000000000000000000000000000000000000000000000000090565b50604080517f00000000000000000000000000000000000000000000000000000000000000006020808301919091527f0000000000000000000000000000000000000000000000000000000000000000828401527f000000000000000000000000000000000000000000000000000000000000000060608301524660808301523060a0808401919091528351808403909101815260c0909201909252805191012090565b60008082516041036103075760208301516040840151606085015160001a6102fb878285856104fd565b94509450505050610338565b825160400361033057602083015160408401516103258683836105ea565b935093505050610338565b506000905060025b9250929050565b60008160048111156103535761035361077b565b0361035b5750565b600181600481111561036f5761036f61077b565b036103c15760405162461bcd60e51b815260206004820152601860248201527f45434453413a20696e76616c6964207369676e6174757265000000000000000060448201526064015b60405180910390fd5b60028160048111156103d5576103d561077b565b036104225760405162461bcd60e51b815260206004820152601f60248201527f45434453413a20696e76616c6964207369676e6174757265206c656e6774680060448201526064016103b8565b60038160048111156104365761043661077b565b0361048e5760405162461bcd60e51b815260206004820152602260248201527f45434453413a20696e76616c6964207369676e6174757265202773272076616c604482015261756560f01b60648201526084016103b8565b60048160048111156104a2576104a261077b565b036104fa5760405162461bcd60e51b815260206004820152602260248201527f45434453413a20696e76616c6964207369676e6174757265202776272076616c604482015261756560f01b60648201526084016103b8565b50565b6000807f7fffffffffffffffffffffffffffffff5d576e7357a4501ddfe92f46681b20a083111561053457506000905060036105e1565b8460ff16601b1415801561054c57508460ff16601c14155b1561055d57506000905060046105e1565b6040805160008082526020820180845289905260ff881692820192909252606081018690526080810185905260019060a0016020604051602081039080840390855afa1580156105b1573d6000803e3d6000fd5b5050604051601f1901519150506001600160a01b0381166105da576000600192509250506105e1565b9150600090505b94509492505050565b6000806001600160ff1b0383168161060760ff86901c601b610791565b9050610615878288856104fd565b935093505050935093915050565b634e487b7160e01b600052604160045260246000fd5b600067ffffffffffffffff8084111561065457610654610623565b604051601f8501601f19908116603f0116810190828211818310171561067c5761067c610623565b8160405280935085815286868601111561069557600080fd5b858560208301376000602087830101525050509392505050565b80356001600160a01b03811681146106c657600080fd5b919050565b600080600080608085870312156106e157600080fd5b843567ffffffffffffffff808211156106f957600080fd5b818701915087601f83011261070d57600080fd5b61071c88833560208501610639565b955061072a602088016106af565b9450610738604088016106af565b9350606087013591508082111561074e57600080fd5b508501601f8101871361076057600080fd5b61076f87823560208401610639565b91505092959194509250565b634e487b7160e01b600052602160045260246000fd5b8082018082111561018057634e487b7160e01b600052601160045260246000fdfea2646970667358221220c01da442a200172825b4dda383ea2ebd059411e07a41e8358b4cf78aa3f483cd64736f6c63430008150033",
  "bytecodeSha1": "1635323ffacb9c7b9ed56c235deb3d9dcb132b15",
  "compiler": {
    "evm_version": "istanbul",
    "optimizer": {
      "enabled": true,
      "runs": 200
    },
    "version": "0.8.21+commit.d9974bed"
  },
  "contractName": "EIP712External",
  "language": "Solidity",
  "natspec": {
    "kind": "dev",
    "methods": {},
    "version": 1
  },
  "opcodes": "PUSH1 0x80 PUSH1 0x40 MSTORE CALLVALUE DUP1 ISZERO PUSH2 0x10 JUMPI PUSH1 0x0 DUP1 REVERT JUMPDEST POP PUSH1 0x4 CALLDATASIZE LT PUSH2 0x41 JUMPI PUSH1 0x0 CALLDATALOAD PUSH1 0xE0 SHR DUP1 PUSH4 0x8C6E079 EQ PUSH2 0x46 JUMPI DUP1 PUSH4 0x3408E470 EQ PUSH2 0x5B JUMPI DUP1 PUSH4 0xF698DA25 EQ PUSH2 0x6F JUMPI JUMPDEST PUSH1 0x0 DUP1 REVERT JUMPDEST PUSH2 0x59 PUSH2 0x54 CALLDATASIZE PUSH1 0x4 PUSH2 0x6CB JUMP JUMPDEST PUSH2 0x77 JUMP JUMPDEST STOP JUMPDEST CHAINID JUMPDEST PUSH1 0x40 MLOAD SWAP1 DUP2 MSTORE PUSH1 0x20 ADD PUSH1 0x40 MLOAD DUP1 SWAP2 SUB SWAP1 RETURN JUMPDEST PUSH2 0x5D PUSH2 0x123 JUMP JUMPDEST PUSH1 0x0 PUSH2 0xED PUSH32 0x847FC9DA8EC3C72CAE85CA691245EAEB0A4A1E74F77C3A919C43AFDA231D39BA DUP5 DUP5 DUP1 MLOAD SWAP1 PUSH1 0x20 ADD KECCAK256 PUSH1 0x40 MLOAD PUSH1 0x20 ADD PUSH2 0xD2 SWAP4 SWAP3 SWAP2 SWAP1 SWAP3 DUP4 MSTORE PUSH1 0x1 PUSH1 0x1 PUSH1 0xA0 SHL SUB SWAP2 SWAP1 SWAP2 AND PUSH1 0x20 DUP4 ADD MSTORE PUSH1 0x40 DUP3 ADD MSTORE PUSH1 0x60 ADD SWAP1 JUMP JUMPDEST PUSH1 0x40 MLOAD PUSH1 0x20 DUP2 DUP4 SUB SUB DUP2 MSTORE SWAP1 PUSH1 0x40 MSTORE DUP1 MLOAD SWAP1 PUSH1 0x20 ADD KECCAK256 PUSH2 0x132 JUMP JUMPDEST SWAP1 POP PUSH1 0x0 PUSH2 0xFB DUP3 DUP8 PUSH2 0x186 JUMP JUMPDEST SWAP1 POP DUP5 PUSH1 0x1 PUSH1 0x1 PUSH1 0xA0 SHL SUB AND DUP2 PUSH1 0x1 PUSH1 0x1 PUSH1 0xA0 SHL SUB AND EQ PUSH2 0x11B JUMPI PUSH1 0x0 DUP1 REVERT JUMPDEST POP POP POP POP POP POP JUMP JUMPDEST PUSH1 0x0 PUSH2 0x12D PUSH2 0x1AA JUMP JUMPDEST SWAP1 POP SWAP1 JUMP JUMPDEST PUSH1 0x0 PUSH2 0x180 PUSH2 0x13F PUSH2 0x1AA JUMP JUMPDEST DUP4 PUSH1 0x40 MLOAD PUSH2 0x1901 PUSH1 0xF0 SHL PUSH1 0x20 DUP3 ADD MSTORE PUSH1 0x22 DUP2 ADD DUP4 SWAP1 MSTORE PUSH1 0x42 DUP2 ADD DUP3 SWAP1 MSTORE PUSH1 0x0 SWAP1 PUSH1 0x62 ADD PUSH1 0x40 MLOAD PUSH1 0x20 DUP2 DUP4 SUB SUB DUP2 MSTORE SWAP1 PUSH1 0x40 MSTORE DUP1 MLOAD SWAP1 PUSH1 0x20 ADD KECCAK256 SWAP1 POP SWAP3 SWAP2 POP POP JUMP JUMPDEST SWAP3 SWAP2 POP POP JUMP JUMPDEST PUSH1 0x0 DUP1 PUSH1 0x0 PUSH2 0x195 DUP6 DUP6 PUSH2 0x2D1 JUMP JUMPDEST SWAP2 POP SWAP2 POP PUSH2 0x1A2 DUP2 PUSH2 0x33F JUMP JUMPDEST POP SWAP4 SWAP3 POP POP POP JUMP JUMPDEST PUSH1 0x0 ADDRESS PUSH1 0x1 PUSH1 0x1 PUSH1 0xA0 SHL SUB PUSH32 0x0 AND EQ DUP1 ISZERO PUSH2 0x203 JUMPI POP PUSH32 0x0 CHAINID EQ JUMPDEST ISZERO PUSH2 0x22D JUMPI POP PUSH32 0x0 SWAP1 JUMP JUMPDEST POP PUSH1 0x40 DUP1 MLOAD PUSH32 0x0 PUSH1 0x20 DUP1 DUP4 ADD SWAP2 SWAP1 SWAP2 MSTORE PUSH32 0x0 DUP3 DUP5 ADD MSTORE PUSH32 0x0 PUSH1 0x60 DUP4 ADD MSTORE CHAINID PUSH1 0x80 DUP4 ADD MSTORE ADDRESS PUSH1 0xA0 DUP1 DUP5 ADD SWAP2 SWAP1 SWAP2 MSTORE DUP4 MLOAD DUP1 DUP5 SUB SWAP1 SWAP2 ADD DUP2 MSTORE PUSH1 0xC0 SWAP1 SWAP3 ADD SWAP1 SWAP3 MSTORE DUP1 MLOAD SWAP2 ADD KECCAK256 SWAP1 JUMP JUMPDEST PUSH1 0x0 DUP1 DUP3 MLOAD PUSH1 0x41 SUB PUSH2 0x307 JUMPI PUSH1 0x20 DUP4 ADD MLOAD PUSH1 0x40 DUP5 ADD MLOAD PUSH1 0x60 DUP6 ADD MLOAD PUSH1 0x0 BYTE PUSH2 0x2FB DUP8 DUP3 DUP6 DUP6 PUSH2 0x4FD JUMP JUMPDEST SWAP5 POP SWAP5 POP POP POP POP PUSH2 0x338 JUMP JUMPDEST DUP3 MLOAD PUSH1 0x40 SUB PUSH2 0x330 JUMPI PUSH1 0x20 DUP4 ADD MLOAD PUSH1 0x40 DUP5 ADD MLOAD PUSH2 0x325 DUP7 DUP4 DUP4 PUSH2 0x5EA JUMP JUMPDEST SWAP4 POP SWAP4 POP POP POP PUSH2 0x338 JUMP JUMPDEST POP PUSH1 0x0 SWAP1 POP PUSH1 0x2 JUMPDEST SWAP3 POP SWAP3 SWAP1 POP JUMP JUMPDEST PUSH1 0x0 DUP2 PUSH1 0x4 DUP2 GT ISZERO PUSH2 0x353 JUMPI PUSH2 0x353 PUSH2 0x77B JUMP JUMPDEST SUB PUSH2 0x35B JUMPI POP JUMP JUMPDEST PUSH1 0x1 DUP2 PUSH1 0x4 DUP2 GT ISZERO PUSH2 0x36F JUMPI PUSH2 0x36F PUSH2 0x77B JUMP JUMPDEST SUB PUSH2 0x3C1 JUMPI PUSH1 0x40 MLOAD PUSH3 0x461BCD PUSH1 0xE5 SHL DUP2 MSTORE PUSH1 0x20 PUSH1 0x4 DUP3 ADD MSTORE PUSH1 0x18 PUSH1 0x24 DUP3 ADD MSTORE PUSH32 0x45434453413A20696E76616C6964207369676E61747572650000000000000000 PUSH1 0x44 DUP3 ADD MSTORE PUSH1 0x64 ADD JUMPDEST PUSH1 0x40 MLOAD DUP1 SWAP2 SUB SWAP1 REVERT JUMPDEST PUSH1 0x2 DUP2 PUSH1 0x4 DUP2 GT ISZERO PUSH2 0x3D5 JUMPI PUSH2 0x3D5 PUSH2 0x77B JUMP JUMPDEST SUB PUSH2 0x422 JUMPI PUSH1 0x40 MLOAD PUSH3 0x461BCD PUSH1 0xE5 SHL DUP2 MSTORE PUSH1 0x20 PUSH1 0x4 DUP3 ADD MSTORE PUSH1 0x1F PUSH1 0x24 DUP3 ADD MSTORE PUSH32 0x45434453413A20696E76616C6964207369676E6174757265206C656E67746800 PUSH1 0x44 DUP3 ADD MSTORE PUSH1 0x64 ADD PUSH2 0x3B8 JUMP JUMPDEST PUSH1 0x3 DUP2 PUSH1 0x4 DUP2 GT ISZERO PUSH2 0x436 JUMPI PUSH2 0x436 PUSH2 0x77B JUMP JUMPDEST SUB PUSH2 0x48E JUMPI PUSH1 0x40 MLOAD PUSH3 0x461BCD PUSH1 0xE5 SHL DUP2 MSTORE PUSH1 0x20 PUSH1 0x4 DUP3 ADD MSTORE PUSH1 0x22 PUSH1 0x24 DUP3 ADD MSTORE PUSH32 0x45434453413A20696E76616C6964207369676E6174757265202773272076616C PUSH1 0x44 DUP3 ADD MSTORE PUSH2 0x7565 PUSH1 0xF0 SHL PUSH1 0x64 DUP3 ADD MSTORE PUSH1 0x84 ADD PUSH2 0x3B8 JUMP JUMPDEST PUSH1 0x4 DUP2 PUSH1 0x4 DUP2 GT ISZERO PUSH2 0x4A2 JUMPI PUSH2 0x4A2 PUSH2 0x77B JUMP JUMPDEST SUB PUSH2 0x4FA JUMPI PUSH1 0x40 MLOAD PUSH3 0x461BCD PUSH1 0xE5 SHL DUP2 MSTORE PUSH1 0x20 PUSH1 0x4 DUP3 ADD MSTORE PUSH1 0x22 PUSH1 0x24 DUP3 ADD MSTORE PUSH32 0x45434453413A20696E76616C6964207369676E6174757265202776272076616C PUSH1 0x44 DUP3 ADD MSTORE PUSH2 0x7565 PUSH1 0xF0 SHL PUSH1 0x64 DUP3 ADD MSTORE PUSH1 0x84 ADD PUSH2 0x3B8 JUMP JUMPDEST POP JUMP JUMPDEST PUSH1 0x0 DUP1 PUSH32 0x7FFFFFFFFFFFFFFFFFFFFFFFFFFFFFFF5D576E7357A4501DDFE92F46681B20A0 DUP4 GT ISZERO PUSH2 0x534 JUMPI POP PUSH1 0x0 SWAP1 POP PUSH1 0x3 PUSH2 0x5E1 JUMP JUMPDEST DUP5 PUSH1 0xFF AND PUSH1 0x1B EQ ISZERO DUP1 ISZERO PUSH2 0x54C JUMPI POP DUP5 PUSH1 0xFF AND PUSH1 0x1C EQ ISZERO JUMPDEST ISZERO PUSH2 0x55D JUMPI POP PUSH1 0x0 SWAP1 POP PUSH1 0x4 PUSH2 0x5E1 JUMP JUMPDEST PUSH1 0x40 DUP1 MLOAD PUSH1 0x0 DUP1 DUP3 MSTORE PUSH1 0x20 DUP3 ADD DUP1 DUP5 MSTORE DUP10 SWAP1 MSTORE PUSH1 0xFF DUP9 AND SWAP3 DUP3 ADD SWAP3 SWAP1 SWAP3 MSTORE PUSH1 0x60 DUP2 ADD DUP7 SWAP1 MSTORE PUSH1 0x80 DUP2 ADD DUP6 SWAP1 MSTORE PUSH1 0x1 SWAP1 PUSH1 0xA0 ADD PUSH1 0x20 PUSH1 0x40 MLOAD PUSH1 0x20 DUP2 SUB SWAP1 DUP1 DUP5 SUB SWAP1 DUP6 GAS STATICCALL ISZERO DUP1 ISZERO PUSH2 0x5B1 JUMPI RETURNDATASIZE PUSH1 0x0 DUP1 RETURNDATACOPY RETURNDATASIZE PUSH1 0x0 REVERT JUMPDEST POP POP PUSH1 0x40 MLOAD PUSH1 0x1F NOT ADD MLOAD SWAP2 POP POP PUSH1 0x1 PUSH1 0x1 PUSH1 0xA0 SHL SUB DUP2 AND PUSH2 0x5DA JUMPI PUSH1 0x0 PUSH1 0x1 SWAP3 POP SWAP3 POP POP PUSH2 0x5E1 JUMP JUMPDEST SWAP2 POP PUSH1 0x0 SWAP1 POP JUMPDEST SWAP5 POP SWAP5 SWAP3 POP POP POP JUMP JUMPDEST PUSH1 0x0 DUP1 PUSH1 0x1 PUSH1 0x1 PUSH1 0xFF SHL SUB DUP4 AND DUP2 PUSH2 0x607 PUSH1 0xFF DUP7 SWAP1 SHR PUSH1 0x1B PUSH2 0x791 JUMP JUMPDEST SWAP1 POP PUSH2 0x615 DUP8 DUP3 DUP9 DUP6 PUSH2 0x4FD JUMP JUMPDEST SWAP4 POP SWAP4 POP POP POP SWAP4 POP SWAP4 SWAP2 POP POP JUMP JUMPDEST PUSH4 0x4E487B71 PUSH1 0xE0 SHL PUSH1 0x0 MSTORE PUSH1 0x41 PUSH1 0x4 MSTORE PUSH1 0x24 PUSH1 0x0 REVERT JUMPDEST PUSH1 0x0 PUSH8 0xFFFFFFFFFFFFFFFF DUP1 DUP5 GT ISZERO PUSH2 0x654 JUMPI PUSH2 0x654 PUSH2 0x623 JUMP JUMPDEST PUSH1 0x40 MLOAD PUSH1 0x1F DUP6 ADD PUSH1 0x1F NOT SWAP1 DUP2 AND PUSH1 0x3F ADD AND DUP2 ADD SWAP1 DUP3 DUP3 GT DUP2 DUP4 LT OR ISZERO PUSH2 0x67C JUMPI PUSH2 0x67C PUSH2 0x623 JUMP JUMPDEST DUP2 PUSH1 0x40 MSTORE DUP1 SWAP4 POP DUP6 DUP2 MSTORE DUP7 DUP7 DUP7 ADD GT ISZERO PUSH2 0x695 JUMPI PUSH1 0x0 DUP1 REVERT JUMPDEST DUP6 DUP6 PUSH1 0x20 DUP4 ADD CALLDATACOPY PUSH1 0x0 PUSH1 0x20 DUP8 DUP4 ADD ADD MSTORE POP POP POP SWAP4 SWAP3 POP POP POP JUMP JUMPDEST DUP1 CALLDATALOAD PUSH1 0x1 PUSH1 0x1 PUSH1 0xA0 SHL SUB DUP2 AND DUP2 EQ PUSH2 0x6C6 JUMPI PUSH1 0x0 DUP1 REVERT JUMPDEST SWAP2 SWAP1 POP JUMP JUMPDEST PUSH1 0x0 DUP1 PUSH1 0x0 DUP1 PUSH1 0x80 DUP6 DUP8 SUB SLT ISZERO PUSH2 0x6E1 JUMPI PUSH1 0x0 DUP1 REVERT JUMPDEST DUP5 CALLDATALOAD PUSH8 0xFFFFFFFFFFFFFFFF DUP1 DUP3 GT ISZERO PUSH2 0x6F9 JUMPI PUSH1 0x0 DUP1 REVERT JUMPDEST DUP2 DUP8 ADD SWAP2 POP DUP8 PUSH1 0x1F DUP4 ADD SLT PUSH2 0x70D JUMPI PUSH1 0x0 DUP1 REVERT JUMPDEST PUSH2 0x71C DUP9 DUP4 CALLDATALOAD PUSH1 0x20 DUP6 ADD PUSH2 0x639 JUMP JUMPDEST SWAP6 POP PUSH2 0x72A PUSH1 0x20 DUP9 ADD PUSH2 0x6AF JUMP JUMPDEST SWAP5 POP PUSH2 0x738 PUSH1 0x40 DUP9 ADD PUSH2 0x6AF JUMP JUMPDEST SWAP4 POP PUSH1 0x60 DUP8 ADD CALLDATALOAD SWAP2 POP DUP1 DUP3 GT ISZERO PUSH2 0x74E JUMPI PUSH1 0x0 DUP1 REVERT JUMPDEST POP DUP6 ADD PUSH1 0x1F DUP2 ADD DUP8 SGT PUSH2 0x760 JUMPI PUSH1 0x0 DUP1 REVERT JUMPDEST PUSH2 0x76F DUP8 DUP3 CALLDATALOAD PUSH1 0x20 DUP5 ADD PUSH2 0x639 JUMP JUMPDEST SWAP2 POP POP SWAP3 SWAP6 SWAP2 SWAP5 POP SWAP3 POP JUMP JUMPDEST PUSH4 0x4E487B71 PUSH1 0xE0 SHL PUSH1 0x0 MSTORE PUSH1 0x21 PUSH1 0x4 MSTORE PUSH1 0x24 PUSH1 0x0 REVERT JUMPDEST DUP1 DUP3 ADD DUP1 DUP3 GT ISZERO PUSH2 0x180 JUMPI PUSH4 0x4E487B71 PUSH1 0xE0 SHL PUSH1 0x0 MSTORE PUSH1 0x11 PUSH1 0x4 MSTORE PUSH1 0x24 PUSH1 0x0 REVERT INVALID LOG2 PUSH5 0x6970667358 0x22 SLT KECCAK256 0xC0 SAR LOG4 TIMESTAMP LOG2 STOP OR 0x28 0x25 0xB4 0xDD LOG3 DUP4 0xEA 0x2E 0xBD SDIV SWAP5 GT 0xE0 PUSH27 0x41E8358B4CF78AA3F483CD64736F6C634300081500330000000000 ",
  "sha1": "68b64a2166ce6a0d4114fdb7e78165fd1e609c0a",
  "source": "// SPDX-License-Identifier: MIT\n\npragma solidity ^0.8.0;\n\nimport \"../utils/cryptography/draft-EIP712.sol\";\nimport \"../utils/cryptography/ECDSA.sol\";\n\ncontract EIP712External is EIP712 {\n    constructor(string memory name, string memory version) EIP712(name, version) {}\n\n    function domainSeparator() external view returns (bytes32) {\n        return _domainSeparatorV4();\n    }\n\n    function verify(\n        bytes memory signature,\n        address signer,\n        address mailTo,\n        string memory mailContents\n    ) external view {\n        bytes32 digest = _hashTypedDataV4(\n            keccak256(abi.encode(keccak256(\"Mail(address to,string contents)\"), mailTo, keccak256(bytes(mailContents))))\n        );\n        address recoveredSigner = ECDSA.recover(digest, signature);\n        require(recoveredSigner == signer);\n    }\n\n    function getChainId() external view returns (uint256) {\n        return block.chainid;\n    }\n}\n",
  "sourcePath": "contracts/openzeppelin-solidity/contracts/mocks/EIP712External.sol",
  "type": "contract"
}