{
  "abi": [
    {
      "inputs": [
        {
          "internalType": "string",
          "name": "name",
          "type": "string"
        },
        {
          "internalType": "string",
          "name": "symbol",
          "type": "string"
        },
        {
          "internalType": "address",
          "name": "initialAccount",
          "type": "address"
        },
        {
          "internalType": "uint256",
          "name": "initialBalance",
          "type": "uint256"
        }
      ],
      "stateMutability": "nonpayable",
      "type": "constructor"
    },
    {
      "anonymous": false,
      "inputs": [
        {
          "indexed": true,
          "internalType": "address",
          "name": "owner",
          "type": "address"
        },
        {
          "indexed": true,
          "internalType": "address",
          "name": "spender",
          "type": "address"
        },
        {
          "indexed": false,
          "internalType": "uint256",
          "name": "value",
          "type": "uint256"
        }
      ],
      "name": "Approval",
      "type": "event"
    },
    {
      "anonymous": false,
      "inputs": [
        {
          "indexed": false,
          "internalType": "uint256",
          "name": "id",
          "type": "uint256"
        }
      ],
      "name": "Snapshot",
      "type": "event"
    },
    {
      "anonymous": false,
      "inputs": [
        {
          "indexed": true,
          "internalType": "address",
          "name": "from",
          "type": "address"
        },
        {
          "indexed": true,
          "internalType": "address",
          "name": "to",
          "type": "address"
        },
        {
          "indexed": false,
          "internalType": "uint256",
          "name": "value",
          "type": "uint256"
        }
      ],
      "name": "Transfer",
      "type": "event"
    },
    {
      "inputs": [
        {
          "internalType": "address",
          "name": "owner",
          "type": "address"
        },
        {
          "internalType": "address",
          "name": "spender",
          "type": "address"
        }
      ],
      "name": "allowance",
      "outputs": [
        {
          "internalType": "uint256",
          "name": "",
          "type": "uint256"
        }
      ],
      "stateMutability": "view",
      "type": "function"
    },
    {
      "inputs": [
        {
          "internalType": "address",
          "name": "spender",
          "type": "address"
        },
        {
          "internalType": "uint256",
          "name": "amount",
          "type": "uint256"
        }
      ],
      "name": "approve",
      "outputs": [
        {
          "internalType": "bool",
          "name": "",
          "type": "bool"
        }
      ],
      "stateMutability": "nonpayable",
      "type": "function"
    },
    {
      "inputs": [
        {
          "internalType": "address",
          "name": "account",
          "type": "address"
        }
      ],
      "name": "balanceOf",
      "outputs": [
        {
          "internalType": "uint256",
          "name": "",
          "type": "uint256"
        }
      ],
      "stateMutability": "view",
      "type": "function"
    },
    {
      "inputs": [
        {
          "internalType": "address",
          "name": "account",
          "type": "address"
        },
        {
          "internalType": "uint256",
          "name": "snapshotId",
          "type": "uint256"
        }
      ],
      "name": "balanceOfAt",
      "outputs": [
        {
          "internalType": "uint256",
          "name": "",
          "type": "uint256"
        }
      ],
      "stateMutability": "view",
      "type": "function"
    },
    {
      "inputs": [
        {
          "internalType": "address",
          "name": "account",
          "type": "address"
        },
        {
          "internalType": "uint256",
          "name": "amount",
          "type": "uint256"
        }
      ],
      "name": "burn",
      "outputs": [],
      "stateMutability": "nonpayable",
      "type": "function"
    },
    {
      "inputs": [],
      "name": "decimals",
      "outputs": [
        {
          "internalType": "uint8",
          "name": "",
          "type": "uint8"
        }
      ],
      "stateMutability": "view",
      "type": "function"
    },
    {
      "inputs": [
        {
          "internalType": "address",
          "name": "spender",
          "type": "address"
        },
        {
          "internalType": "uint256",
          "name": "subtractedValue",
          "type": "uint256"
        }
      ],
      "name": "decreaseAllowance",
      "outputs": [
        {
          "internalType": "bool",
          "name": "",
          "type": "bool"
        }
      ],
      "stateMutability": "nonpayable",
      "type": "function"
    },
    {
      "inputs": [
        {
          "internalType": "address",
          "name": "spender",
          "type": "address"
        },
        {
          "internalType": "uint256",
          "name": "addedValue",
          "type": "uint256"
        }
      ],
      "name": "increaseAllowance",
      "outputs": [
        {
          "internalType": "bool",
          "name": "",
          "type": "bool"
        }
      ],
      "stateMutability": "nonpayable",
      "type": "function"
    },
    {
      "inputs": [
        {
          "internalType": "address",
          "name": "account",
          "type": "address"
        },
        {
          "internalType": "uint256",
          "name": "amount",
          "type": "uint256"
        }
      ],
      "name": "mint",
      "outputs": [],
      "stateMutability": "nonpayable",
      "type": "function"
    },
    {
      "inputs": [],
      "name": "name",
      "outputs": [
        {
          "internalType": "string",
          "name": "",
          "type": "string"
        }
      ],
      "stateMutability": "view",
      "type": "function"
    },
    {
      "inputs": [],
      "name": "snapshot",
      "outputs": [],
      "stateMutability": "nonpayable",
      "type": "function"
    },
    {
      "inputs": [],
      "name": "symbol",
      "outputs": [
        {
          "internalType": "string",
          "name": "",
          "type": "string"
        }
      ],
      "stateMutability": "view",
      "type": "function"
    },
    {
      "inputs": [],
      "name": "totalSupply",
      "outputs": [
        {
          "internalType": "uint256",
          "name": "",
          "type": "uint256"
        }
      ],
      "stateMutability": "view",
      "type": "function"
    },
    {
      "inputs": [
        {
          "internalType": "uint256",
          "name": "snapshotId",
          "type": "uint256"
        }
      ],
      "name": "totalSupplyAt",
      "outputs": [
        {
          "internalType": "uint256",
          "name": "",
          "type": "uint256"
        }
      ],
      "stateMutability": "view",
      "type": "function"
    },
    {
      "inputs": [
        {
          "internalType": "address",
          "name": "recipient",
          "type": "address"
        },
        {
          "internalType": "uint256",
          "name": "amount",
          "type": "uint256"
        }
      ],
      "name": "transfer",
      "outputs": [
        {
          "internalType": "bool",
          "name": "",
          "type": "bool"
        }
      ],
      "stateMutability": "nonpayable",
      "type": "function"
    },
    {
      "inputs": [
        {
          "internalType": "address",
          "name": "sender",
          "type": "address"
        },
        {
          "internalType": "address",
          "name": "recipient",
          "type": "address"
        },
        {
          "internalType": "uint256",
          "name": "amount",
          "type": "uint256"
        }
      ],
      "name": "transferFrom",
      "outputs": [
        {
          "internalType": "bool",
          "name": "",
          "type": "bool"
        }
      ],
      "stateMutability": "nonpayable",
      "type": "function"
    }
  ],
  "bytecode": "60806040523480156200001157600080fd5b50604051620015ee380380620015ee833981016040819052620000349162000376565b8383600362000044838262000497565b50600462000053828262000497565b5050506200006882826200007260201b60201c565b50505050620005c1565b6001600160a01b038216620000cd5760405162461bcd60e51b815260206004820152601f60248201527f45524332303a206d696e7420746f20746865207a65726f206164647265737300604482015260640160405180910390fd5b620000db6000838362000168565b8060026000828254620000ef919062000579565b90915550506001600160a01b038216600090815260208190526040812080548392906200011e90849062000579565b90915550506040518181526001600160a01b038316906000907fddf252ad1be2c89b69c2b068fc378daa952ba7f163c4a11628f55a4df523b3ef9060200160405180910390a35050565b6001600160a01b03831662000191576200018282620001bc565b6200018c620001f4565b505050565b6001600160a01b038216620001ab576200018283620001bc565b620001b683620001bc565b6200018c825b6001600160a01b03811660009081526005602090815260408083209183905290912054620001f1919062000206565b62000206565b50565b620002046006620001eb60025490565b565b60006200021262000255565b905080620002208462000266565b10156200018c578254600180820185556000858152602080822090930193909355938401805494850181558252902090910155565b60006200026160085490565b905090565b805460009081036200027a57506000919050565b815482906200028c9060019062000595565b815481106200029f576200029f620005ab565b90600052602060002001549050919050565b634e487b7160e01b600052604160045260246000fd5b600082601f830112620002d957600080fd5b81516001600160401b0380821115620002f657620002f6620002b1565b604051601f8301601f19908116603f01168101908282118183101715620003215762000321620002b1565b816040528381526020925086838588010111156200033e57600080fd5b600091505b8382101562000362578582018301518183018401529082019062000343565b600093810190920192909252949350505050565b600080600080608085870312156200038d57600080fd5b84516001600160401b0380821115620003a557600080fd5b620003b388838901620002c7565b95506020870151915080821115620003ca57600080fd5b50620003d987828801620002c7565b604087015190945090506001600160a01b0381168114620003f957600080fd5b6060959095015193969295505050565b600181811c908216806200041e57607f821691505b6020821081036200043f57634e487b7160e01b600052602260045260246000fd5b50919050565b601f8211156200018c57600081815260208120601f850160051c810160208610156200046e5750805b601f850160051c820191505b818110156200048f578281556001016200047a565b505050505050565b81516001600160401b03811115620004b357620004b3620002b1565b620004cb81620004c4845462000409565b8462000445565b602080601f831160018114620005035760008415620004ea5750858301515b600019600386901b1c1916600185901b1785556200048f565b600085815260208120601f198616915b82811015620005345788860151825594840194600190910190840162000513565b5085821015620005535787850151600019600388901b60f8161c191681555b5050505050600190811b01905550565b634e487b7160e01b600052601160045260246000fd5b808201808211156200058f576200058f62000563565b92915050565b818103818111156200058f576200058f62000563565b634e487b7160e01b600052603260045260246000fd5b61101d80620005d16000396000f3fe608060405234801561001057600080fd5b50600436106101005760003560e01c806370a08231116100975780639dc29fac116100665780639dc29fac14610201578063a457c2d714610214578063a9059cbb14610227578063dd62ed3e1461023a57600080fd5b806370a08231146101b557806395d89b41146101de5780639711715a146101e6578063981b24d0146101ee57600080fd5b8063313ce567116100d3578063313ce5671461016b578063395093511461017a57806340c10f191461018d5780634ee2cd7e146101a257600080fd5b806306fdde0314610105578063095ea7b31461012357806318160ddd1461014657806323b872dd14610158575b600080fd5b61010d610273565b60405161011a9190610e07565b60405180910390f35b610136610131366004610e6c565b610305565b604051901515815260200161011a565b6002545b60405190815260200161011a565b610136610166366004610e96565b61031c565b6040516012815260200161011a565b610136610188366004610e6c565b6103c9565b6101a061019b366004610e6c565b610405565b005b61014a6101b0366004610e6c565b610413565b61014a6101c3366004610ed2565b6001600160a01b031660009081526020819052604090205490565b61010d61046c565b6101a061047b565b61014a6101fc366004610eed565b610486565b6101a061020f366004610e6c565b6104b1565b610136610222366004610e6c565b6104bb565b610136610235366004610e6c565b610554565b61014a610248366004610f06565b6001600160a01b03918216600090815260016020908152604080832093909416825291909152205490565b60606003805461028290610f39565b80601f01602080910402602001604051908101604052809291908181526020018280546102ae90610f39565b80156102fb5780601f106102d0576101008083540402835291602001916102fb565b820191906000526020600020905b8154815290600101906020018083116102de57829003601f168201915b5050505050905090565b6000610312338484610561565b5060015b92915050565b6001600160a01b0383166000908152600160209081526040808320338452909152812054828110156103a65760405162461bcd60e51b815260206004820152602860248201527f45524332303a207472616e7366657220616d6f756e74206578636565647320616044820152676c6c6f77616e636560c01b60648201526084015b60405180910390fd5b6103b38533858403610561565b6103be858585610686565b506001949350505050565b3360008181526001602090815260408083206001600160a01b03871684529091528120549091610312918590610400908690610f89565b610561565b61040f8282610860565b5050565b6001600160a01b03821660009081526005602052604081208190819061043a90859061094b565b9150915081610461576001600160a01b038516600090815260208190526040902054610463565b805b95945050505050565b60606004805461028290610f39565b610483610a41565b50565b600080600061049684600661094b565b91509150816104a7576002546104a9565b805b949350505050565b61040f8282610a9b565b3360009081526001602090815260408083206001600160a01b03861684529091528120548281101561053d5760405162461bcd60e51b815260206004820152602560248201527f45524332303a2064656372656173656420616c6c6f77616e63652062656c6f77604482015264207a65726f60d81b606482015260840161039d565b61054a3385858403610561565b5060019392505050565b6000610312338484610686565b6001600160a01b0383166105c35760405162461bcd60e51b8152602060048201526024808201527f45524332303a20617070726f76652066726f6d20746865207a65726f206164646044820152637265737360e01b606482015260840161039d565b6001600160a01b0382166106245760405162461bcd60e51b815260206004820152602260248201527f45524332303a20617070726f766520746f20746865207a65726f206164647265604482015261737360f01b606482015260840161039d565b6001600160a01b0383811660008181526001602090815260408083209487168084529482529182902085905590518481527f8c5be1e5ebec7d5bd14f71427d1e84f3dd0314c0f7b2291e5b200ac8c7c3b92591015b60405180910390a3505050565b6001600160a01b0383166106ea5760405162461bcd60e51b815260206004820152602560248201527f45524332303a207472616e736665722066726f6d20746865207a65726f206164604482015264647265737360d81b606482015260840161039d565b6001600160a01b03821661074c5760405162461bcd60e51b815260206004820152602360248201527f45524332303a207472616e7366657220746f20746865207a65726f206164647260448201526265737360e81b606482015260840161039d565b610757838383610bf2565b6001600160a01b038316600090815260208190526040902054818110156107cf5760405162461bcd60e51b815260206004820152602660248201527f45524332303a207472616e7366657220616d6f756e7420657863656564732062604482015265616c616e636560d01b606482015260840161039d565b6001600160a01b03808516600090815260208190526040808220858503905591851681529081208054849290610806908490610f89565b92505081905550826001600160a01b0316846001600160a01b03167fddf252ad1be2c89b69c2b068fc378daa952ba7f163c4a11628f55a4df523b3ef8460405161085291815260200190565b60405180910390a350505050565b6001600160a01b0382166108b65760405162461bcd60e51b815260206004820152601f60248201527f45524332303a206d696e7420746f20746865207a65726f206164647265737300604482015260640161039d565b6108c260008383610bf2565b80600260008282546108d49190610f89565b90915550506001600160a01b03821660009081526020819052604081208054839290610901908490610f89565b90915550506040518181526001600160a01b038316906000907fddf252ad1be2c89b69c2b068fc378daa952ba7f163c4a11628f55a4df523b3ef9060200160405180910390a35050565b600080600084116109975760405162461bcd60e51b815260206004820152601660248201527504552433230536e617073686f743a20696420697320360541b604482015260640161039d565b61099f610c3a565b8411156109ee5760405162461bcd60e51b815260206004820152601d60248201527f4552433230536e617073686f743a206e6f6e6578697374656e74206964000000604482015260640161039d565b60006109fa8486610c4a565b84549091508103610a12576000809250925050610a3a565b6001846001018281548110610a2957610a29610f9c565b906000526020600020015492509250505b9250929050565b6000610a51600880546001019055565b6000610a5b610c3a565b90507f8030e83b04d87bef53480e26263266d6ca66863aa8506aca6f2559d18aa1cb6781604051610a8e91815260200190565b60405180910390a1919050565b6001600160a01b038216610afb5760405162461bcd60e51b815260206004820152602160248201527f45524332303a206275726e2066726f6d20746865207a65726f206164647265736044820152607360f81b606482015260840161039d565b610b0782600083610bf2565b6001600160a01b03821660009081526020819052604090205481811015610b7b5760405162461bcd60e51b815260206004820152602260248201527f45524332303a206275726e20616d6f756e7420657863656564732062616c616e604482015261636560f01b606482015260840161039d565b6001600160a01b0383166000908152602081905260408120838303905560028054849290610baa908490610fb2565b90915550506040518281526000906001600160a01b038516907fddf252ad1be2c89b69c2b068fc378daa952ba7f163c4a11628f55a4df523b3ef90602001610679565b505050565b6001600160a01b038316610c1157610c0982610d0f565b610bed610d41565b6001600160a01b038216610c2857610c0983610d0f565b610c3183610d0f565b610bed82610d0f565b6000610c4560085490565b905090565b81546000908103610c5d57506000610316565b82546000905b80821015610cb9576000610c778383610d51565b905084868281548110610c8c57610c8c610f9c565b90600052602060002001541115610ca557809150610cb3565b610cb0816001610f89565b92505b50610c63565b600082118015610cee57508385610cd1600185610fb2565b81548110610ce157610ce1610f9c565b9060005260206000200154145b15610d0757610cfe600183610fb2565b92505050610316565b509050610316565b6001600160a01b038116600090815260056020908152604080832091839052909120546104839190610d73565b610d73565b610d4f6006610d3c60025490565b565b6000610d606002848418610fc5565b610d6c90848416610f89565b9392505050565b6000610d7d610c3a565b905080610d8984610dbd565b1015610bed578254600180820185556000858152602080822090930193909355938401805494850181558252902090910155565b80546000908103610dd057506000919050565b81548290610de090600190610fb2565b81548110610df057610df0610f9c565b90600052602060002001549050919050565b919050565b600060208083528351808285015260005b81811015610e3457858101830151858201604001528201610e18565b506000604082860101526040601f19601f8301168501019250505092915050565b80356001600160a01b0381168114610e0257600080fd5b60008060408385031215610e7f57600080fd5b610e8883610e55565b946020939093013593505050565b600080600060608486031215610eab57600080fd5b610eb484610e55565b9250610ec260208501610e55565b9150604084013590509250925092565b600060208284031215610ee457600080fd5b610d6c82610e55565b600060208284031215610eff57600080fd5b5035919050565b60008060408385031215610f1957600080fd5b610f2283610e55565b9150610f3060208401610e55565b90509250929050565b600181811c90821680610f4d57607f821691505b602082108103610f6d57634e487b7160e01b600052602260045260246000fd5b50919050565b634e487b7160e01b600052601160045260246000fd5b8082018082111561031657610316610f73565b634e487b7160e01b600052603260045260246000fd5b8181038181111561031657610316610f73565b600082610fe257634e487b7160e01b600052601260045260246000fd5b50049056fea26469706673582212209cd07c83830beb734f399cdac097a6746380dcf818963e37698388e93e19f94764736f6c63430008150033",
  "bytecodeSha1": "4aebb4f85e05b6e7a9a4f9c4073703de4bd6cc46",
  "compiler": {
    "evm_version": "istanbul",
    "optimizer": {
      "enabled": true,
      "runs": 200
    },
    "version": "0.8.21+commit.d9974bed"
  },
  "contractName": "ERC20SnapshotMock",
  "language": "Solidity",
  "natspec": {
    "kind": "dev",
    "methods": {
      "allowance(address,address)": {
        "details": "See {IERC20-allowance}."
      },
      "approve(address,uint256)": {
        "details": "See {IERC20-approve}. Requirements: - `spender` cannot be the zero address."
      },
      "balanceOf(address)": {
        "details": "See {IERC20-balanceOf}."
      },
      "balanceOfAt(address,uint256)": {
        "details": "Retrieves the balance of `account` at the time `snapshotId` was created."
      },
      "decimals()": {
        "details": "Returns the number of decimals used to get its user representation. For example, if `decimals` equals `2`, a balance of `505` tokens should be displayed to a user as `5.05` (`505 / 10 ** 2`). Tokens usually opt for a value of 18, imitating the relationship between Ether and Wei. This is the value {ERC20} uses, unless this function is overridden; NOTE: This information is only used for _display_ purposes: it in no way affects any of the arithmetic of the contract, including {IERC20-balanceOf} and {IERC20-transfer}."
      },
      "decreaseAllowance(address,uint256)": {
        "details": "Atomically decreases the allowance granted to `spender` by the caller. This is an alternative to {approve} that can be used as a mitigation for problems described in {IERC20-approve}. Emits an {Approval} event indicating the updated allowance. Requirements: - `spender` cannot be the zero address. - `spender` must have allowance for the caller of at least `subtractedValue`."
      },
      "increaseAllowance(address,uint256)": {
        "details": "Atomically increases the allowance granted to `spender` by the caller. This is an alternative to {approve} that can be used as a mitigation for problems described in {IERC20-approve}. Emits an {Approval} event indicating the updated allowance. Requirements: - `spender` cannot be the zero address."
      },
      "name()": {
        "details": "Returns the name of the token."
      },
      "symbol()": {
        "details": "Returns the symbol of the token, usually a shorter version of the name."
      },
      "totalSupply()": {
        "details": "See {IERC20-totalSupply}."
      },
      "totalSupplyAt(uint256)": {
        "details": "Retrieves the total supply at the time `snapshotId` was created."
      },
      "transfer(address,uint256)": {
        "details": "See {IERC20-transfer}. Requirements: - `recipient` cannot be the zero address. - the caller must have a balance of at least `amount`."
      },
      "transferFrom(address,address,uint256)": {
        "details": "See {IERC20-transferFrom}. Emits an {Approval} event indicating the updated allowance. This is not required by the EIP. See the note at the beginning of {ERC20}. Requirements: - `sender` and `recipient` cannot be the zero address. - `sender` must have a balance of at least `amount`. - the caller must have allowance for ``sender``'s tokens of at least `amount`."
      }
    },
    "version": 1
  },
  "opcodes": "PUSH1 0x80 PUSH1 0x40 MSTORE CALLVALUE DUP1 ISZERO PUSH2 0x10 JUMPI PUSH1 0x0 DUP1 REVERT JUMPDEST POP PUSH1 0x4 CALLDATASIZE LT PUSH2 0x100 JUMPI PUSH1 0x0 CALLDATALOAD PUSH1 0xE0 SHR DUP1 PUSH4 0x70A08231 GT PUSH2 0x97 JUMPI DUP1 PUSH4 0x9DC29FAC GT PUSH2 0x66 JUMPI DUP1 PUSH4 0x9DC29FAC EQ PUSH2 0x201 JUMPI DUP1 PUSH4 0xA457C2D7 EQ PUSH2 0x214 JUMPI DUP1 PUSH4 0xA9059CBB EQ PUSH2 0x227 JUMPI DUP1 PUSH4 0xDD62ED3E EQ PUSH2 0x23A JUMPI PUSH1 0x0 DUP1 REVERT JUMPDEST DUP1 PUSH4 0x70A08231 EQ PUSH2 0x1B5 JUMPI DUP1 PUSH4 0x95D89B41 EQ PUSH2 0x1DE JUMPI DUP1 PUSH4 0x9711715A EQ PUSH2 0x1E6 JUMPI DUP1 PUSH4 0x981B24D0 EQ PUSH2 0x1EE JUMPI PUSH1 0x0 DUP1 REVERT JUMPDEST DUP1 PUSH4 0x313CE567 GT PUSH2 0xD3 JUMPI DUP1 PUSH4 0x313CE567 EQ PUSH2 0x16B JUMPI DUP1 PUSH4 0x39509351 EQ PUSH2 0x17A JUMPI DUP1 PUSH4 0x40C10F19 EQ PUSH2 0x18D JUMPI DUP1 PUSH4 0x4EE2CD7E EQ PUSH2 0x1A2 JUMPI PUSH1 0x0 DUP1 REVERT JUMPDEST DUP1 PUSH4 0x6FDDE03 EQ PUSH2 0x105 JUMPI DUP1 PUSH4 0x95EA7B3 EQ PUSH2 0x123 JUMPI DUP1 PUSH4 0x18160DDD EQ PUSH2 0x146 JUMPI DUP1 PUSH4 0x23B872DD EQ PUSH2 0x158 JUMPI JUMPDEST PUSH1 0x0 DUP1 REVERT JUMPDEST PUSH2 0x10D PUSH2 0x273 JUMP JUMPDEST PUSH1 0x40 MLOAD PUSH2 0x11A SWAP2 SWAP1 PUSH2 0xE07 JUMP JUMPDEST PUSH1 0x40 MLOAD DUP1 SWAP2 SUB SWAP1 RETURN JUMPDEST PUSH2 0x136 PUSH2 0x131 CALLDATASIZE PUSH1 0x4 PUSH2 0xE6C JUMP JUMPDEST PUSH2 0x305 JUMP JUMPDEST PUSH1 0x40 MLOAD SWAP1 ISZERO ISZERO DUP2 MSTORE PUSH1 0x20 ADD PUSH2 0x11A JUMP JUMPDEST PUSH1 0x2 SLOAD JUMPDEST PUSH1 0x40 MLOAD SWAP1 DUP2 MSTORE PUSH1 0x20 ADD PUSH2 0x11A JUMP JUMPDEST PUSH2 0x136 PUSH2 0x166 CALLDATASIZE PUSH1 0x4 PUSH2 0xE96 JUMP JUMPDEST PUSH2 0x31C JUMP JUMPDEST PUSH1 0x40 MLOAD PUSH1 0x12 DUP2 MSTORE PUSH1 0x20 ADD PUSH2 0x11A JUMP JUMPDEST PUSH2 0x136 PUSH2 0x188 CALLDATASIZE PUSH1 0x4 PUSH2 0xE6C JUMP JUMPDEST PUSH2 0x3C9 JUMP JUMPDEST PUSH2 0x1A0 PUSH2 0x19B CALLDATASIZE PUSH1 0x4 PUSH2 0xE6C JUMP JUMPDEST PUSH2 0x405 JUMP JUMPDEST STOP JUMPDEST PUSH2 0x14A PUSH2 0x1B0 CALLDATASIZE PUSH1 0x4 PUSH2 0xE6C JUMP JUMPDEST PUSH2 0x413 JUMP JUMPDEST PUSH2 0x14A PUSH2 0x1C3 CALLDATASIZE PUSH1 0x4 PUSH2 0xED2 JUMP JUMPDEST PUSH1 0x1 PUSH1 0x1 PUSH1 0xA0 SHL SUB AND PUSH1 0x0 SWAP1 DUP2 MSTORE PUSH1 0x20 DUP2 SWAP1 MSTORE PUSH1 0x40 SWAP1 KECCAK256 SLOAD SWAP1 JUMP JUMPDEST PUSH2 0x10D PUSH2 0x46C JUMP JUMPDEST PUSH2 0x1A0 PUSH2 0x47B JUMP JUMPDEST PUSH2 0x14A PUSH2 0x1FC CALLDATASIZE PUSH1 0x4 PUSH2 0xEED JUMP JUMPDEST PUSH2 0x486 JUMP JUMPDEST PUSH2 0x1A0 PUSH2 0x20F CALLDATASIZE PUSH1 0x4 PUSH2 0xE6C JUMP JUMPDEST PUSH2 0x4B1 JUMP JUMPDEST PUSH2 0x136 PUSH2 0x222 CALLDATASIZE PUSH1 0x4 PUSH2 0xE6C JUMP JUMPDEST PUSH2 0x4BB JUMP JUMPDEST PUSH2 0x136 PUSH2 0x235 CALLDATASIZE PUSH1 0x4 PUSH2 0xE6C JUMP JUMPDEST PUSH2 0x554 JUMP JUMPDEST PUSH2 0x14A PUSH2 0x248 CALLDATASIZE PUSH1 0x4 PUSH2 0xF06 JUMP JUMPDEST PUSH1 0x1 PUSH1 0x1 PUSH1 0xA0 SHL SUB SWAP2 DUP3 AND PUSH1 0x0 SWAP1 DUP2 MSTORE PUSH1 0x1 PUSH1 0x20 SWAP1 DUP2 MSTORE PUSH1 0x40 DUP1 DUP4 KECCAK256 SWAP4 SWAP1 SWAP5 AND DUP3 MSTORE SWAP2 SWAP1 SWAP2 MSTORE KECCAK256 SLOAD SWAP1 JUMP JUMPDEST PUSH1 0x60 PUSH1 0x3 DUP1 SLOAD PUSH2 0x282 SWAP1 PUSH2 0xF39 JUMP JUMPDEST DUP1 PUSH1 0x1F ADD PUSH1 0x20 DUP1 SWAP2 DIV MUL PUSH1 0x20 ADD PUSH1 0x40 MLOAD SWAP1 DUP2 ADD PUSH1 0x40 MSTORE DUP1 SWAP3 SWAP2 SWAP1 DUP2 DUP2 MSTORE PUSH1 0x20 ADD DUP3 DUP1 SLOAD PUSH2 0x2AE SWAP1 PUSH2 0xF39 JUMP JUMPDEST DUP1 ISZERO PUSH2 0x2FB JUMPI DUP1 PUSH1 0x1F LT PUSH2 0x2D0 JUMPI PUSH2 0x100 DUP1 DUP4 SLOAD DIV MUL DUP4 MSTORE SWAP2 PUSH1 0x20 ADD SWAP2 PUSH2 0x2FB JUMP JUMPDEST DUP3 ADD SWAP2 SWAP1 PUSH1 0x0 MSTORE PUSH1 0x20 PUSH1 0x0 KECCAK256 SWAP1 JUMPDEST DUP2 SLOAD DUP2 MSTORE SWAP1 PUSH1 0x1 ADD SWAP1 PUSH1 0x20 ADD DUP1 DUP4 GT PUSH2 0x2DE JUMPI DUP3 SWAP1 SUB PUSH1 0x1F AND DUP3 ADD SWAP2 JUMPDEST POP POP POP POP POP SWAP1 POP SWAP1 JUMP JUMPDEST PUSH1 0x0 PUSH2 0x312 CALLER DUP5 DUP5 PUSH2 0x561 JUMP JUMPDEST POP PUSH1 0x1 JUMPDEST SWAP3 SWAP2 POP POP JUMP JUMPDEST PUSH1 0x1 PUSH1 0x1 PUSH1 0xA0 SHL SUB DUP4 AND PUSH1 0x0 SWAP1 DUP2 MSTORE PUSH1 0x1 PUSH1 0x20 SWAP1 DUP2 MSTORE PUSH1 0x40 DUP1 DUP4 KECCAK256 CALLER DUP5 MSTORE SWAP1 SWAP2 MSTORE DUP2 KECCAK256 SLOAD DUP3 DUP2 LT ISZERO PUSH2 0x3A6 JUMPI PUSH1 0x40 MLOAD PUSH3 0x461BCD PUSH1 0xE5 SHL DUP2 MSTORE PUSH1 0x20 PUSH1 0x4 DUP3 ADD MSTORE PUSH1 0x28 PUSH1 0x24 DUP3 ADD MSTORE PUSH32 0x45524332303A207472616E7366657220616D6F756E7420657863656564732061 PUSH1 0x44 DUP3 ADD MSTORE PUSH8 0x6C6C6F77616E6365 PUSH1 0xC0 SHL PUSH1 0x64 DUP3 ADD MSTORE PUSH1 0x84 ADD JUMPDEST PUSH1 0x40 MLOAD DUP1 SWAP2 SUB SWAP1 REVERT JUMPDEST PUSH2 0x3B3 DUP6 CALLER DUP6 DUP5 SUB PUSH2 0x561 JUMP JUMPDEST PUSH2 0x3BE DUP6 DUP6 DUP6 PUSH2 0x686 JUMP JUMPDEST POP PUSH1 0x1 SWAP5 SWAP4 POP POP POP POP JUMP JUMPDEST CALLER PUSH1 0x0 DUP2 DUP2 MSTORE PUSH1 0x1 PUSH1 0x20 SWAP1 DUP2 MSTORE PUSH1 0x40 DUP1 DUP4 KECCAK256 PUSH1 0x1 PUSH1 0x1 PUSH1 0xA0 SHL SUB DUP8 AND DUP5 MSTORE SWAP1 SWAP2 MSTORE DUP2 KECCAK256 SLOAD SWAP1 SWAP2 PUSH2 0x312 SWAP2 DUP6 SWAP1 PUSH2 0x400 SWAP1 DUP7 SWAP1 PUSH2 0xF89 JUMP JUMPDEST PUSH2 0x561 JUMP JUMPDEST PUSH2 0x40F DUP3 DUP3 PUSH2 0x860 JUMP JUMPDEST POP POP JUMP JUMPDEST PUSH1 0x1 PUSH1 0x1 PUSH1 0xA0 SHL SUB DUP3 AND PUSH1 0x0 SWAP1 DUP2 MSTORE PUSH1 0x5 PUSH1 0x20 MSTORE PUSH1 0x40 DUP2 KECCAK256 DUP2 SWAP1 DUP2 SWAP1 PUSH2 0x43A SWAP1 DUP6 SWAP1 PUSH2 0x94B JUMP JUMPDEST SWAP2 POP SWAP2 POP DUP2 PUSH2 0x461 JUMPI PUSH1 0x1 PUSH1 0x1 PUSH1 0xA0 SHL SUB DUP6 AND PUSH1 0x0 SWAP1 DUP2 MSTORE PUSH1 0x20 DUP2 SWAP1 MSTORE PUSH1 0x40 SWAP1 KECCAK256 SLOAD PUSH2 0x463 JUMP JUMPDEST DUP1 JUMPDEST SWAP6 SWAP5 POP POP POP POP POP JUMP JUMPDEST PUSH1 0x60 PUSH1 0x4 DUP1 SLOAD PUSH2 0x282 SWAP1 PUSH2 0xF39 JUMP JUMPDEST PUSH2 0x483 PUSH2 0xA41 JUMP JUMPDEST POP JUMP JUMPDEST PUSH1 0x0 DUP1 PUSH1 0x0 PUSH2 0x496 DUP5 PUSH1 0x6 PUSH2 0x94B JUMP JUMPDEST SWAP2 POP SWAP2 POP DUP2 PUSH2 0x4A7 JUMPI PUSH1 0x2 SLOAD PUSH2 0x4A9 JUMP JUMPDEST DUP1 JUMPDEST SWAP5 SWAP4 POP POP POP POP JUMP JUMPDEST PUSH2 0x40F DUP3 DUP3 PUSH2 0xA9B JUMP JUMPDEST CALLER PUSH1 0x0 SWAP1 DUP2 MSTORE PUSH1 0x1 PUSH1 0x20 SWAP1 DUP2 MSTORE PUSH1 0x40 DUP1 DUP4 KECCAK256 PUSH1 0x1 PUSH1 0x1 PUSH1 0xA0 SHL SUB DUP7 AND DUP5 MSTORE SWAP1 SWAP2 MSTORE DUP2 KECCAK256 SLOAD DUP3 DUP2 LT ISZERO PUSH2 0x53D JUMPI PUSH1 0x40 MLOAD PUSH3 0x461BCD PUSH1 0xE5 SHL DUP2 MSTORE PUSH1 0x20 PUSH1 0x4 DUP3 ADD MSTORE PUSH1 0x25 PUSH1 0x24 DUP3 ADD MSTORE PUSH32 0x45524332303A2064656372656173656420616C6C6F77616E63652062656C6F77 PUSH1 0x44 DUP3 ADD MSTORE PUSH5 0x207A65726F PUSH1 0xD8 SHL PUSH1 0x64 DUP3 ADD MSTORE PUSH1 0x84 ADD PUSH2 0x39D JUMP JUMPDEST PUSH2 0x54A CALLER DUP6 DUP6 DUP5 SUB PUSH2 0x561 JUMP JUMPDEST POP PUSH1 0x1 SWAP4 SWAP3 POP POP POP JUMP JUMPDEST PUSH1 0x0 PUSH2 0x312 CALLER DUP5 DUP5 PUSH2 0x686 JUMP JUMPDEST PUSH1 0x1 PUSH1 0x1 PUSH1 0xA0 SHL SUB DUP4 AND PUSH2 0x5C3 JUMPI PUSH1 0x40 MLOAD PUSH3 0x461BCD PUSH1 0xE5 SHL DUP2 MSTORE PUSH1 0x20 PUSH1 0x4 DUP3 ADD MSTORE PUSH1 0x24 DUP1 DUP3 ADD MSTORE PUSH32 0x45524332303A20617070726F76652066726F6D20746865207A65726F20616464 PUSH1 0x44 DUP3 ADD MSTORE PUSH4 0x72657373 PUSH1 0xE0 SHL PUSH1 0x64 DUP3 ADD MSTORE PUSH1 0x84 ADD PUSH2 0x39D JUMP JUMPDEST PUSH1 0x1 PUSH1 0x1 PUSH1 0xA0 SHL SUB DUP3 AND PUSH2 0x624 JUMPI PUSH1 0x40 MLOAD PUSH3 0x461BCD PUSH1 0xE5 SHL DUP2 MSTORE PUSH1 0x20 PUSH1 0x4 DUP3 ADD MSTORE PUSH1 0x22 PUSH1 0x24 DUP3 ADD MSTORE PUSH32 0x45524332303A20617070726F766520746F20746865207A65726F206164647265 PUSH1 0x44 DUP3 ADD MSTORE PUSH2 0x7373 PUSH1 0xF0 SHL PUSH1 0x64 DUP3 ADD MSTORE PUSH1 0x84 ADD PUSH2 0x39D JUMP JUMPDEST PUSH1 0x1 PUSH1 0x1 PUSH1 0xA0 SHL SUB DUP4 DUP2 AND PUSH1 0x0 DUP2 DUP2 MSTORE PUSH1 0x1 PUSH1 0x20 SWAP1 DUP2 MSTORE PUSH1 0x40 DUP1 DUP4 KECCAK256 SWAP5 DUP8 AND DUP1 DUP5 MSTORE SWAP5 DUP3 MSTORE SWAP2 DUP3 SWAP1 KECCAK256 DUP6 SWAP1 SSTORE SWAP1 MLOAD DUP5 DUP2 MSTORE PUSH32 0x8C5BE1E5EBEC7D5BD14F71427D1E84F3DD0314C0F7B2291E5B200AC8C7C3B925 SWAP2 ADD JUMPDEST PUSH1 0x40 MLOAD DUP1 SWAP2 SUB SWAP1 LOG3 POP POP POP JUMP JUMPDEST PUSH1 0x1 PUSH1 0x1 PUSH1 0xA0 SHL SUB DUP4 AND PUSH2 0x6EA JUMPI PUSH1 0x40 MLOAD PUSH3 0x461BCD PUSH1 0xE5 SHL DUP2 MSTORE PUSH1 0x20 PUSH1 0x4 DUP3 ADD MSTORE PUSH1 0x25 PUSH1 0x24 DUP3 ADD MSTORE PUSH32 0x45524332303A207472616E736665722066726F6D20746865207A65726F206164 PUSH1 0x44 DUP3 ADD MSTORE PUSH5 0x6472657373 PUSH1 0xD8 SHL PUSH1 0x64 DUP3 ADD MSTORE PUSH1 0x84 ADD PUSH2 0x39D JUMP JUMPDEST PUSH1 0x1 PUSH1 0x1 PUSH1 0xA0 SHL SUB DUP3 AND PUSH2 0x74C JUMPI PUSH1 0x40 MLOAD PUSH3 0x461BCD PUSH1 0xE5 SHL DUP2 MSTORE PUSH1 0x20 PUSH1 0x4 DUP3 ADD MSTORE PUSH1 0x23 PUSH1 0x24 DUP3 ADD MSTORE PUSH32 0x45524332303A207472616E7366657220746F20746865207A65726F2061646472 PUSH1 0x44 DUP3 ADD MSTORE PUSH3 0x657373 PUSH1 0xE8 SHL PUSH1 0x64 DUP3 ADD MSTORE PUSH1 0x84 ADD PUSH2 0x39D JUMP JUMPDEST PUSH2 0x757 DUP4 DUP4 DUP4 PUSH2 0xBF2 JUMP JUMPDEST PUSH1 0x1 PUSH1 0x1 PUSH1 0xA0 SHL SUB DUP4 AND PUSH1 0x0 SWAP1 DUP2 MSTORE PUSH1 0x20 DUP2 SWAP1 MSTORE PUSH1 0x40 SWAP1 KECCAK256 SLOAD DUP2 DUP2 LT ISZERO PUSH2 0x7CF JUMPI PUSH1 0x40 MLOAD PUSH3 0x461BCD PUSH1 0xE5 SHL DUP2 MSTORE PUSH1 0x20 PUSH1 0x4 DUP3 ADD MSTORE PUSH1 0x26 PUSH1 0x24 DUP3 ADD MSTORE PUSH32 0x45524332303A207472616E7366657220616D6F756E7420657863656564732062 PUSH1 0x44 DUP3 ADD MSTORE PUSH6 0x616C616E6365 PUSH1 0xD0 SHL PUSH1 0x64 DUP3 ADD MSTORE PUSH1 0x84 ADD PUSH2 0x39D JUMP JUMPDEST PUSH1 0x1 PUSH1 0x1 PUSH1 0xA0 SHL SUB DUP1 DUP6 AND PUSH1 0x0 SWAP1 DUP2 MSTORE PUSH1 0x20 DUP2 SWAP1 MSTORE PUSH1 0x40 DUP1 DUP3 KECCAK256 DUP6 DUP6 SUB SWAP1 SSTORE SWAP2 DUP6 AND DUP2 MSTORE SWAP1 DUP2 KECCAK256 DUP1 SLOAD DUP5 SWAP3 SWAP1 PUSH2 0x806 SWAP1 DUP5 SWAP1 PUSH2 0xF89 JUMP JUMPDEST SWAP3 POP POP DUP2 SWAP1 SSTORE POP DUP3 PUSH1 0x1 PUSH1 0x1 PUSH1 0xA0 SHL SUB AND DUP5 PUSH1 0x1 PUSH1 0x1 PUSH1 0xA0 SHL SUB AND PUSH32 0xDDF252AD1BE2C89B69C2B068FC378DAA952BA7F163C4A11628F55A4DF523B3EF DUP5 PUSH1 0x40 MLOAD PUSH2 0x852 SWAP2 DUP2 MSTORE PUSH1 0x20 ADD SWAP1 JUMP JUMPDEST PUSH1 0x40 MLOAD DUP1 SWAP2 SUB SWAP1 LOG3 POP POP POP POP JUMP JUMPDEST PUSH1 0x1 PUSH1 0x1 PUSH1 0xA0 SHL SUB DUP3 AND PUSH2 0x8B6 JUMPI PUSH1 0x40 MLOAD PUSH3 0x461BCD PUSH1 0xE5 SHL DUP2 MSTORE PUSH1 0x20 PUSH1 0x4 DUP3 ADD MSTORE PUSH1 0x1F PUSH1 0x24 DUP3 ADD MSTORE PUSH32 0x45524332303A206D696E7420746F20746865207A65726F206164647265737300 PUSH1 0x44 DUP3 ADD MSTORE PUSH1 0x64 ADD PUSH2 0x39D JUMP JUMPDEST PUSH2 0x8C2 PUSH1 0x0 DUP4 DUP4 PUSH2 0xBF2 JUMP JUMPDEST DUP1 PUSH1 0x2 PUSH1 0x0 DUP3 DUP3 SLOAD PUSH2 0x8D4 SWAP2 SWAP1 PUSH2 0xF89 JUMP JUMPDEST SWAP1 SWAP2 SSTORE POP POP PUSH1 0x1 PUSH1 0x1 PUSH1 0xA0 SHL SUB DUP3 AND PUSH1 0x0 SWAP1 DUP2 MSTORE PUSH1 0x20 DUP2 SWAP1 MSTORE PUSH1 0x40 DUP2 KECCAK256 DUP1 SLOAD DUP4 SWAP3 SWAP1 PUSH2 0x901 SWAP1 DUP5 SWAP1 PUSH2 0xF89 JUMP JUMPDEST SWAP1 SWAP2 SSTORE POP POP PUSH1 0x40 MLOAD DUP2 DUP2 MSTORE PUSH1 0x1 PUSH1 0x1 PUSH1 0xA0 SHL SUB DUP4 AND SWAP1 PUSH1 0x0 SWAP1 PUSH32 0xDDF252AD1BE2C89B69C2B068FC378DAA952BA7F163C4A11628F55A4DF523B3EF SWAP1 PUSH1 0x20 ADD PUSH1 0x40 MLOAD DUP1 SWAP2 SUB SWAP1 LOG3 POP POP JUMP JUMPDEST PUSH1 0x0 DUP1 PUSH1 0x0 DUP5 GT PUSH2 0x997 JUMPI PUSH1 0x40 MLOAD PUSH3 0x461BCD PUSH1 0xE5 SHL DUP2 MSTORE PUSH1 0x20 PUSH1 0x4 DUP3 ADD MSTORE PUSH1 0x16 PUSH1 0x24 DUP3 ADD MSTORE PUSH22 0x4552433230536E617073686F743A206964206973203 PUSH1 0x54 SHL PUSH1 0x44 DUP3 ADD MSTORE PUSH1 0x64 ADD PUSH2 0x39D JUMP JUMPDEST PUSH2 0x99F PUSH2 0xC3A JUMP JUMPDEST DUP5 GT ISZERO PUSH2 0x9EE JUMPI PUSH1 0x40 MLOAD PUSH3 0x461BCD PUSH1 0xE5 SHL DUP2 MSTORE PUSH1 0x20 PUSH1 0x4 DUP3 ADD MSTORE PUSH1 0x1D PUSH1 0x24 DUP3 ADD MSTORE PUSH32 0x4552433230536E617073686F743A206E6F6E6578697374656E74206964000000 PUSH1 0x44 DUP3 ADD MSTORE PUSH1 0x64 ADD PUSH2 0x39D JUMP JUMPDEST PUSH1 0x0 PUSH2 0x9FA DUP5 DUP7 PUSH2 0xC4A JUMP JUMPDEST DUP5 SLOAD SWAP1 SWAP2 POP DUP2 SUB PUSH2 0xA12 JUMPI PUSH1 0x0 DUP1 SWAP3 POP SWAP3 POP POP PUSH2 0xA3A JUMP JUMPDEST PUSH1 0x1 DUP5 PUSH1 0x1 ADD DUP3 DUP2 SLOAD DUP2 LT PUSH2 0xA29 JUMPI PUSH2 0xA29 PUSH2 0xF9C JUMP JUMPDEST SWAP1 PUSH1 0x0 MSTORE PUSH1 0x20 PUSH1 0x0 KECCAK256 ADD SLOAD SWAP3 POP SWAP3 POP POP JUMPDEST SWAP3 POP SWAP3 SWAP1 POP JUMP JUMPDEST PUSH1 0x0 PUSH2 0xA51 PUSH1 0x8 DUP1 SLOAD PUSH1 0x1 ADD SWAP1 SSTORE JUMP JUMPDEST PUSH1 0x0 PUSH2 0xA5B PUSH2 0xC3A JUMP JUMPDEST SWAP1 POP PUSH32 0x8030E83B04D87BEF53480E26263266D6CA66863AA8506ACA6F2559D18AA1CB67 DUP2 PUSH1 0x40 MLOAD PUSH2 0xA8E SWAP2 DUP2 MSTORE PUSH1 0x20 ADD SWAP1 JUMP JUMPDEST PUSH1 0x40 MLOAD DUP1 SWAP2 SUB SWAP1 LOG1 SWAP2 SWAP1 POP JUMP JUMPDEST PUSH1 0x1 PUSH1 0x1 PUSH1 0xA0 SHL SUB DUP3 AND PUSH2 0xAFB JUMPI PUSH1 0x40 MLOAD PUSH3 0x461BCD PUSH1 0xE5 SHL DUP2 MSTORE PUSH1 0x20 PUSH1 0x4 DUP3 ADD MSTORE PUSH1 0x21 PUSH1 0x24 DUP3 ADD MSTORE PUSH32 0x45524332303A206275726E2066726F6D20746865207A65726F20616464726573 PUSH1 0x44 DUP3 ADD MSTORE PUSH1 0x73 PUSH1 0xF8 SHL PUSH1 0x64 DUP3 ADD MSTORE PUSH1 0x84 ADD PUSH2 0x39D JUMP JUMPDEST PUSH2 0xB07 DUP3 PUSH1 0x0 DUP4 PUSH2 0xBF2 JUMP JUMPDEST PUSH1 0x1 PUSH1 0x1 PUSH1 0xA0 SHL SUB DUP3 AND PUSH1 0x0 SWAP1 DUP2 MSTORE PUSH1 0x20 DUP2 SWAP1 MSTORE PUSH1 0x40 SWAP1 KECCAK256 SLOAD DUP2 DUP2 LT ISZERO PUSH2 0xB7B JUMPI PUSH1 0x40 MLOAD PUSH3 0x461BCD PUSH1 0xE5 SHL DUP2 MSTORE PUSH1 0x20 PUSH1 0x4 DUP3 ADD MSTORE PUSH1 0x22 PUSH1 0x24 DUP3 ADD MSTORE PUSH32 0x45524332303A206275726E20616D6F756E7420657863656564732062616C616E PUSH1 0x44 DUP3 ADD MSTORE PUSH2 0x6365 PUSH1 0xF0 SHL PUSH1 0x64 DUP3 ADD MSTORE PUSH1 0x84 ADD PUSH2 0x39D JUMP JUMPDEST PUSH1 0x1 PUSH1 0x1 PUSH1 0xA0 SHL SUB DUP4 AND PUSH1 0x0 SWAP1 DUP2 MSTORE PUSH1 0x20 DUP2 SWAP1 MSTORE PUSH1 0x40 DUP2 KECCAK256 DUP4 DUP4 SUB SWAP1 SSTORE PUSH1 0x2 DUP1 SLOAD DUP5 SWAP3 SWAP1 PUSH2 0xBAA SWAP1 DUP5 SWAP1 PUSH2 0xFB2 JUMP JUMPDEST SWAP1 SWAP2 SSTORE POP POP PUSH1 0x40 MLOAD DUP3 DUP2 MSTORE PUSH1 0x0 SWAP1 PUSH1 0x1 PUSH1 0x1 PUSH1 0xA0 SHL SUB DUP6 AND SWAP1 PUSH32 0xDDF252AD1BE2C89B69C2B068FC378DAA952BA7F163C4A11628F55A4DF523B3EF SWAP1 PUSH1 0x20 ADD PUSH2 0x679 JUMP JUMPDEST POP POP POP JUMP JUMPDEST PUSH1 0x1 PUSH1 0x1 PUSH1 0xA0 SHL SUB DUP4 AND PUSH2 0xC11 JUMPI PUSH2 0xC09 DUP3 PUSH2 0xD0F JUMP JUMPDEST PUSH2 0xBED PUSH2 0xD41 JUMP JUMPDEST PUSH1 0x1 PUSH1 0x1 PUSH1 0xA0 SHL SUB DUP3 AND PUSH2 0xC28 JUMPI PUSH2 0xC09 DUP4 PUSH2 0xD0F JUMP JUMPDEST PUSH2 0xC31 DUP4 PUSH2 0xD0F JUMP JUMPDEST PUSH2 0xBED DUP3 PUSH2 0xD0F JUMP JUMPDEST PUSH1 0x0 PUSH2 0xC45 PUSH1 0x8 SLOAD SWAP1 JUMP JUMPDEST SWAP1 POP SWAP1 JUMP JUMPDEST DUP2 SLOAD PUSH1 0x0 SWAP1 DUP2 SUB PUSH2 0xC5D JUMPI POP PUSH1 0x0 PUSH2 0x316 JUMP JUMPDEST DUP3 SLOAD PUSH1 0x0 SWAP1 JUMPDEST DUP1 DUP3 LT ISZERO PUSH2 0xCB9 JUMPI PUSH1 0x0 PUSH2 0xC77 DUP4 DUP4 PUSH2 0xD51 JUMP JUMPDEST SWAP1 POP DUP5 DUP7 DUP3 DUP2 SLOAD DUP2 LT PUSH2 0xC8C JUMPI PUSH2 0xC8C PUSH2 0xF9C JUMP JUMPDEST SWAP1 PUSH1 0x0 MSTORE PUSH1 0x20 PUSH1 0x0 KECCAK256 ADD SLOAD GT ISZERO PUSH2 0xCA5 JUMPI DUP1 SWAP2 POP PUSH2 0xCB3 JUMP JUMPDEST PUSH2 0xCB0 DUP2 PUSH1 0x1 PUSH2 0xF89 JUMP JUMPDEST SWAP3 POP JUMPDEST POP PUSH2 0xC63 JUMP JUMPDEST PUSH1 0x0 DUP3 GT DUP1 ISZERO PUSH2 0xCEE JUMPI POP DUP4 DUP6 PUSH2 0xCD1 PUSH1 0x1 DUP6 PUSH2 0xFB2 JUMP JUMPDEST DUP2 SLOAD DUP2 LT PUSH2 0xCE1 JUMPI PUSH2 0xCE1 PUSH2 0xF9C JUMP JUMPDEST SWAP1 PUSH1 0x0 MSTORE PUSH1 0x20 PUSH1 0x0 KECCAK256 ADD SLOAD EQ JUMPDEST ISZERO PUSH2 0xD07 JUMPI PUSH2 0xCFE PUSH1 0x1 DUP4 PUSH2 0xFB2 JUMP JUMPDEST SWAP3 POP POP POP PUSH2 0x316 JUMP JUMPDEST POP SWAP1 POP PUSH2 0x316 JUMP JUMPDEST PUSH1 0x1 PUSH1 0x1 PUSH1 0xA0 SHL SUB DUP2 AND PUSH1 0x0 SWAP1 DUP2 MSTORE PUSH1 0x5 PUSH1 0x20 SWAP1 DUP2 MSTORE PUSH1 0x40 DUP1 DUP4 KECCAK256 SWAP2 DUP4 SWAP1 MSTORE SWAP1 SWAP2 KECCAK256 SLOAD PUSH2 0x483 SWAP2 SWAP1 PUSH2 0xD73 JUMP JUMPDEST PUSH2 0xD73 JUMP JUMPDEST PUSH2 0xD4F PUSH1 0x6 PUSH2 0xD3C PUSH1 0x2 SLOAD SWAP1 JUMP JUMPDEST JUMP JUMPDEST PUSH1 0x0 PUSH2 0xD60 PUSH1 0x2 DUP5 DUP5 XOR PUSH2 0xFC5 JUMP JUMPDEST PUSH2 0xD6C SWAP1 DUP5 DUP5 AND PUSH2 0xF89 JUMP JUMPDEST SWAP4 SWAP3 POP POP POP JUMP JUMPDEST PUSH1 0x0 PUSH2 0xD7D PUSH2 0xC3A JUMP JUMPDEST SWAP1 POP DUP1 PUSH2 0xD89 DUP5 PUSH2 0xDBD JUMP JUMPDEST LT ISZERO PUSH2 0xBED JUMPI DUP3 SLOAD PUSH1 0x1 DUP1 DUP3 ADD DUP6 SSTORE PUSH1 0x0 DUP6 DUP2 MSTORE PUSH1 0x20 DUP1 DUP3 KECCAK256 SWAP1 SWAP4 ADD SWAP4 SWAP1 SWAP4 SSTORE SWAP4 DUP5 ADD DUP1 SLOAD SWAP5 DUP6 ADD DUP2 SSTORE DUP3 MSTORE SWAP1 KECCAK256 SWAP1 SWAP2 ADD SSTORE JUMP JUMPDEST DUP1 SLOAD PUSH1 0x0 SWAP1 DUP2 SUB PUSH2 0xDD0 JUMPI POP PUSH1 0x0 SWAP2 SWAP1 POP JUMP JUMPDEST DUP2 SLOAD DUP3 SWAP1 PUSH2 0xDE0 SWAP1 PUSH1 0x1 SWAP1 PUSH2 0xFB2 JUMP JUMPDEST DUP2 SLOAD DUP2 LT PUSH2 0xDF0 JUMPI PUSH2 0xDF0 PUSH2 0xF9C JUMP JUMPDEST SWAP1 PUSH1 0x0 MSTORE PUSH1 0x20 PUSH1 0x0 KECCAK256 ADD SLOAD SWAP1 POP SWAP2 SWAP1 POP JUMP JUMPDEST SWAP2 SWAP1 POP JUMP JUMPDEST PUSH1 0x0 PUSH1 0x20 DUP1 DUP4 MSTORE DUP4 MLOAD DUP1 DUP3 DUP6 ADD MSTORE PUSH1 0x0 JUMPDEST DUP2 DUP2 LT ISZERO PUSH2 0xE34 JUMPI DUP6 DUP2 ADD DUP4 ADD MLOAD DUP6 DUP3 ADD PUSH1 0x40 ADD MSTORE DUP3 ADD PUSH2 0xE18 JUMP JUMPDEST POP PUSH1 0x0 PUSH1 0x40 DUP3 DUP7 ADD ADD MSTORE PUSH1 0x40 PUSH1 0x1F NOT PUSH1 0x1F DUP4 ADD AND DUP6 ADD ADD SWAP3 POP POP POP SWAP3 SWAP2 POP POP JUMP JUMPDEST DUP1 CALLDATALOAD PUSH1 0x1 PUSH1 0x1 PUSH1 0xA0 SHL SUB DUP2 AND DUP2 EQ PUSH2 0xE02 JUMPI PUSH1 0x0 DUP1 REVERT JUMPDEST PUSH1 0x0 DUP1 PUSH1 0x40 DUP4 DUP6 SUB SLT ISZERO PUSH2 0xE7F JUMPI PUSH1 0x0 DUP1 REVERT JUMPDEST PUSH2 0xE88 DUP4 PUSH2 0xE55 JUMP JUMPDEST SWAP5 PUSH1 0x20 SWAP4 SWAP1 SWAP4 ADD CALLDATALOAD SWAP4 POP POP POP JUMP JUMPDEST PUSH1 0x0 DUP1 PUSH1 0x0 PUSH1 0x60 DUP5 DUP7 SUB SLT ISZERO PUSH2 0xEAB JUMPI PUSH1 0x0 DUP1 REVERT JUMPDEST PUSH2 0xEB4 DUP5 PUSH2 0xE55 JUMP JUMPDEST SWAP3 POP PUSH2 0xEC2 PUSH1 0x20 DUP6 ADD PUSH2 0xE55 JUMP JUMPDEST SWAP2 POP PUSH1 0x40 DUP5 ADD CALLDATALOAD SWAP1 POP SWAP3 POP SWAP3 POP SWAP3 JUMP JUMPDEST PUSH1 0x0 PUSH1 0x20 DUP3 DUP5 SUB SLT ISZERO PUSH2 0xEE4 JUMPI PUSH1 0x0 DUP1 REVERT JUMPDEST PUSH2 0xD6C DUP3 PUSH2 0xE55 JUMP JUMPDEST PUSH1 0x0 PUSH1 0x20 DUP3 DUP5 SUB SLT ISZERO PUSH2 0xEFF JUMPI PUSH1 0x0 DUP1 REVERT JUMPDEST POP CALLDATALOAD SWAP2 SWAP1 POP JUMP JUMPDEST PUSH1 0x0 DUP1 PUSH1 0x40 DUP4 DUP6 SUB SLT ISZERO PUSH2 0xF19 JUMPI PUSH1 0x0 DUP1 REVERT JUMPDEST PUSH2 0xF22 DUP4 PUSH2 0xE55 JUMP JUMPDEST SWAP2 POP PUSH2 0xF30 PUSH1 0x20 DUP5 ADD PUSH2 0xE55 JUMP JUMPDEST SWAP1 POP SWAP3 POP SWAP3 SWAP1 POP JUMP JUMPDEST PUSH1 0x1 DUP2 DUP2 SHR SWAP1 DUP3 AND DUP1 PUSH2 0xF4D JUMPI PUSH1 0x7F DUP3 AND SWAP2 POP JUMPDEST PUSH1 0x20 DUP3 LT DUP2 SUB PUSH2 0xF6D JUMPI PUSH4 0x4E487B71 PUSH1 0xE0 SHL PUSH1 0x0 MSTORE PUSH1 0x22 PUSH1 0x4 MSTORE PUSH1 0x24 PUSH1 0x0 REVERT JUMPDEST POP SWAP2 SWAP1 POP JUMP JUMPDEST PUSH4 0x4E487B71 PUSH1 0xE0 SHL PUSH1 0x0 MSTORE PUSH1 0x11 PUSH1 0x4 MSTORE PUSH1 0x24 PUSH1 0x0 REVERT JUMPDEST DUP1 DUP3 ADD DUP1 DUP3 GT ISZERO PUSH2 0x316 JUMPI PUSH2 0x316 PUSH2 0xF73 JUMP JUMPDEST PUSH4 0x4E487B71 PUSH1 0xE0 SHL PUSH1 0x0 MSTORE PUSH1 0x32 PUSH1 0x4 MSTORE PUSH1 0x24 PUSH1 0x0 REVERT JUMPDEST DUP2 DUP2 SUB DUP2 DUP2 GT ISZERO PUSH2 0x316 JUMPI PUSH2 0x316 PUSH2 0xF73 JUMP JUMPDEST PUSH1 0x0 DUP3 PUSH2 0xFE2 JUMPI PUSH4 0x4E487B71 PUSH1 0xE0 SHL PUSH1 0x0 MSTORE PUSH1 0x12 PUSH1 0x4 MSTORE PUSH1 0x24 PUSH1 0x0 REVERT JUMPDEST POP DIV SWAP1 JUMP INVALID LOG2 PUSH5 0x6970667358 0x22 SLT KECCAK256 SWAP13 0xD0 PUSH29 0x83830BEB734F399CDAC097A6746380DCF818963E37698388E93E19F947 PUSH5 0x736F6C6343 STOP ADDMOD ISZERO STOP CALLER ",
  "sha1": "e874c5dd1a51f08132811f192eebc7e341c91037",
  "source": "// SPDX-License-Identifier: MIT\n\npragma solidity ^0.8.0;\n\nimport \"../token/ERC20/extensions/ERC20Snapshot.sol\";\n\ncontract ERC20SnapshotMock is ERC20Snapshot {\n    constructor(\n        string memory name,\n        string memory symbol,\n        address initialAccount,\n        uint256 initialBalance\n    ) ERC20(name, symbol) {\n        _mint(initialAccount, initialBalance);\n    }\n\n    function snapshot() public {\n        _snapshot();\n    }\n\n    function mint(address account, uint256 amount) public {\n        _mint(account, amount);\n    }\n\n    function burn(address account, uint256 amount) public {\n        _burn(account, amount);\n    }\n}\n",
  "sourcePath": "contracts/openzeppelin-solidity/contracts/mocks/ERC20SnapshotMock.sol",
  "type": "contract"
}