{
  "abi": [
    {
      "inputs": [
        {
          "internalType": "string",
          "name": "name",
          "type": "string"
        },
        {
          "internalType": "string",
          "name": "symbol",
          "type": "string"
        }
      ],
      "stateMutability": "nonpayable",
      "type": "constructor"
    },
    {
      "anonymous": false,
      "inputs": [
        {
          "indexed": true,
          "internalType": "address",
          "name": "owner",
          "type": "address"
        },
        {
          "indexed": true,
          "internalType": "address",
          "name": "spender",
          "type": "address"
        },
        {
          "indexed": false,
          "internalType": "uint256",
          "name": "value",
          "type": "uint256"
        }
      ],
      "name": "Approval",
      "type": "event"
    },
    {
      "anonymous": false,
      "inputs": [
        {
          "indexed": true,
          "internalType": "address",
          "name": "delegator",
          "type": "address"
        },
        {
          "indexed": true,
          "internalType": "address",
          "name": "fromDelegate",
          "type": "address"
        },
        {
          "indexed": true,
          "internalType": "address",
          "name": "toDelegate",
          "type": "address"
        }
      ],
      "name": "DelegateChanged",
      "type": "event"
    },
    {
      "anonymous": false,
      "inputs": [
        {
          "indexed": true,
          "internalType": "address",
          "name": "delegate",
          "type": "address"
        },
        {
          "indexed": false,
          "internalType": "uint256",
          "name": "previousBalance",
          "type": "uint256"
        },
        {
          "indexed": false,
          "internalType": "uint256",
          "name": "newBalance",
          "type": "uint256"
        }
      ],
      "name": "DelegateVotesChanged",
      "type": "event"
    },
    {
      "anonymous": false,
      "inputs": [
        {
          "indexed": true,
          "internalType": "address",
          "name": "from",
          "type": "address"
        },
        {
          "indexed": true,
          "internalType": "address",
          "name": "to",
          "type": "address"
        },
        {
          "indexed": false,
          "internalType": "uint256",
          "name": "value",
          "type": "uint256"
        }
      ],
      "name": "Transfer",
      "type": "event"
    },
    {
      "inputs": [],
      "name": "DOMAIN_SEPARATOR",
      "outputs": [
        {
          "internalType": "bytes32",
          "name": "",
          "type": "bytes32"
        }
      ],
      "stateMutability": "view",
      "type": "function"
    },
    {
      "inputs": [
        {
          "internalType": "address",
          "name": "owner",
          "type": "address"
        },
        {
          "internalType": "address",
          "name": "spender",
          "type": "address"
        }
      ],
      "name": "allowance",
      "outputs": [
        {
          "internalType": "uint256",
          "name": "",
          "type": "uint256"
        }
      ],
      "stateMutability": "view",
      "type": "function"
    },
    {
      "inputs": [
        {
          "internalType": "address",
          "name": "spender",
          "type": "address"
        },
        {
          "internalType": "uint256",
          "name": "amount",
          "type": "uint256"
        }
      ],
      "name": "approve",
      "outputs": [
        {
          "internalType": "bool",
          "name": "",
          "type": "bool"
        }
      ],
      "stateMutability": "nonpayable",
      "type": "function"
    },
    {
      "inputs": [
        {
          "internalType": "address",
          "name": "account",
          "type": "address"
        }
      ],
      "name": "balanceOf",
      "outputs": [
        {
          "internalType": "uint256",
          "name": "",
          "type": "uint256"
        }
      ],
      "stateMutability": "view",
      "type": "function"
    },
    {
      "inputs": [
        {
          "internalType": "address",
          "name": "account",
          "type": "address"
        },
        {
          "internalType": "uint256",
          "name": "amount",
          "type": "uint256"
        }
      ],
      "name": "burn",
      "outputs": [],
      "stateMutability": "nonpayable",
      "type": "function"
    },
    {
      "inputs": [
        {
          "internalType": "address",
          "name": "account",
          "type": "address"
        },
        {
          "internalType": "uint32",
          "name": "pos",
          "type": "uint32"
        }
      ],
      "name": "checkpoints",
      "outputs": [
        {
          "components": [
            {
              "internalType": "uint32",
              "name": "fromBlock",
              "type": "uint32"
            },
            {
              "internalType": "uint224",
              "name": "votes",
              "type": "uint224"
            }
          ],
          "internalType": "struct ERC20Votes.Checkpoint",
          "name": "",
          "type": "tuple"
        }
      ],
      "stateMutability": "view",
      "type": "function"
    },
    {
      "inputs": [],
      "name": "decimals",
      "outputs": [
        {
          "internalType": "uint8",
          "name": "",
          "type": "uint8"
        }
      ],
      "stateMutability": "view",
      "type": "function"
    },
    {
      "inputs": [
        {
          "internalType": "address",
          "name": "spender",
          "type": "address"
        },
        {
          "internalType": "uint256",
          "name": "subtractedValue",
          "type": "uint256"
        }
      ],
      "name": "decreaseAllowance",
      "outputs": [
        {
          "internalType": "bool",
          "name": "",
          "type": "bool"
        }
      ],
      "stateMutability": "nonpayable",
      "type": "function"
    },
    {
      "inputs": [
        {
          "internalType": "address",
          "name": "delegatee",
          "type": "address"
        }
      ],
      "name": "delegate",
      "outputs": [],
      "stateMutability": "nonpayable",
      "type": "function"
    },
    {
      "inputs": [
        {
          "internalType": "address",
          "name": "delegatee",
          "type": "address"
        },
        {
          "internalType": "uint256",
          "name": "nonce",
          "type": "uint256"
        },
        {
          "internalType": "uint256",
          "name": "expiry",
          "type": "uint256"
        },
        {
          "internalType": "uint8",
          "name": "v",
          "type": "uint8"
        },
        {
          "internalType": "bytes32",
          "name": "r",
          "type": "bytes32"
        },
        {
          "internalType": "bytes32",
          "name": "s",
          "type": "bytes32"
        }
      ],
      "name": "delegateBySig",
      "outputs": [],
      "stateMutability": "nonpayable",
      "type": "function"
    },
    {
      "inputs": [
        {
          "internalType": "address",
          "name": "account",
          "type": "address"
        }
      ],
      "name": "delegates",
      "outputs": [
        {
          "internalType": "address",
          "name": "",
          "type": "address"
        }
      ],
      "stateMutability": "view",
      "type": "function"
    },
    {
      "inputs": [],
      "name": "getChainId",
      "outputs": [
        {
          "internalType": "uint256",
          "name": "",
          "type": "uint256"
        }
      ],
      "stateMutability": "view",
      "type": "function"
    },
    {
      "inputs": [
        {
          "internalType": "uint256",
          "name": "blockNumber",
          "type": "uint256"
        }
      ],
      "name": "getPastTotalSupply",
      "outputs": [
        {
          "internalType": "uint256",
          "name": "",
          "type": "uint256"
        }
      ],
      "stateMutability": "view",
      "type": "function"
    },
    {
      "inputs": [
        {
          "internalType": "address",
          "name": "account",
          "type": "address"
        },
        {
          "internalType": "uint256",
          "name": "blockNumber",
          "type": "uint256"
        }
      ],
      "name": "getPastVotes",
      "outputs": [
        {
          "internalType": "uint256",
          "name": "",
          "type": "uint256"
        }
      ],
      "stateMutability": "view",
      "type": "function"
    },
    {
      "inputs": [
        {
          "internalType": "address",
          "name": "account",
          "type": "address"
        }
      ],
      "name": "getVotes",
      "outputs": [
        {
          "internalType": "uint256",
          "name": "",
          "type": "uint256"
        }
      ],
      "stateMutability": "view",
      "type": "function"
    },
    {
      "inputs": [
        {
          "internalType": "address",
          "name": "spender",
          "type": "address"
        },
        {
          "internalType": "uint256",
          "name": "addedValue",
          "type": "uint256"
        }
      ],
      "name": "increaseAllowance",
      "outputs": [
        {
          "internalType": "bool",
          "name": "",
          "type": "bool"
        }
      ],
      "stateMutability": "nonpayable",
      "type": "function"
    },
    {
      "inputs": [
        {
          "internalType": "address",
          "name": "account",
          "type": "address"
        },
        {
          "internalType": "uint256",
          "name": "amount",
          "type": "uint256"
        }
      ],
      "name": "mint",
      "outputs": [],
      "stateMutability": "nonpayable",
      "type": "function"
    },
    {
      "inputs": [],
      "name": "name",
      "outputs": [
        {
          "internalType": "string",
          "name": "",
          "type": "string"
        }
      ],
      "stateMutability": "view",
      "type": "function"
    },
    {
      "inputs": [
        {
          "internalType": "address",
          "name": "owner",
          "type": "address"
        }
      ],
      "name": "nonces",
      "outputs": [
        {
          "internalType": "uint256",
          "name": "",
          "type": "uint256"
        }
      ],
      "stateMutability": "view",
      "type": "function"
    },
    {
      "inputs": [
        {
          "internalType": "address",
          "name": "account",
          "type": "address"
        }
      ],
      "name": "numCheckpoints",
      "outputs": [
        {
          "internalType": "uint32",
          "name": "",
          "type": "uint32"
        }
      ],
      "stateMutability": "view",
      "type": "function"
    },
    {
      "inputs": [
        {
          "internalType": "address",
          "name": "owner",
          "type": "address"
        },
        {
          "internalType": "address",
          "name": "spender",
          "type": "address"
        },
        {
          "internalType": "uint256",
          "name": "value",
          "type": "uint256"
        },
        {
          "internalType": "uint256",
          "name": "deadline",
          "type": "uint256"
        },
        {
          "internalType": "uint8",
          "name": "v",
          "type": "uint8"
        },
        {
          "internalType": "bytes32",
          "name": "r",
          "type": "bytes32"
        },
        {
          "internalType": "bytes32",
          "name": "s",
          "type": "bytes32"
        }
      ],
      "name": "permit",
      "outputs": [],
      "stateMutability": "nonpayable",
      "type": "function"
    },
    {
      "inputs": [],
      "name": "symbol",
      "outputs": [
        {
          "internalType": "string",
          "name": "",
          "type": "string"
        }
      ],
      "stateMutability": "view",
      "type": "function"
    },
    {
      "inputs": [],
      "name": "totalSupply",
      "outputs": [
        {
          "internalType": "uint256",
          "name": "",
          "type": "uint256"
        }
      ],
      "stateMutability": "view",
      "type": "function"
    },
    {
      "inputs": [
        {
          "internalType": "address",
          "name": "recipient",
          "type": "address"
        },
        {
          "internalType": "uint256",
          "name": "amount",
          "type": "uint256"
        }
      ],
      "name": "transfer",
      "outputs": [
        {
          "internalType": "bool",
          "name": "",
          "type": "bool"
        }
      ],
      "stateMutability": "nonpayable",
      "type": "function"
    },
    {
      "inputs": [
        {
          "internalType": "address",
          "name": "sender",
          "type": "address"
        },
        {
          "internalType": "address",
          "name": "recipient",
          "type": "address"
        },
        {
          "internalType": "uint256",
          "name": "amount",
          "type": "uint256"
        }
      ],
      "name": "transferFrom",
      "outputs": [
        {
          "internalType": "bool",
          "name": "",
          "type": "bool"
        }
      ],
      "stateMutability": "nonpayable",
      "type": "function"
    }
  ],
  "bytecode": "6101606040527f6e71edae12b1b97f4d1f60370fef10105fa2faae0126114a169c64845d6126c9610140523480156200003757600080fd5b50604051620021ec380380620021ec8339810160408190526200005a91620001f8565b6040805180820190915260018152603160f81b60208201528290819081846003620000868382620002f1565b506004620000958282620002f1565b5050825160208085019190912083518483012060e08290526101008190524660a0818152604080517f8b73c3c69bb8fe3d512ecc4cf759cc79239f7b179b0ffacaa9a75d522b39400f81880181905281830187905260608201869052608082019490945230818401528151808203909301835260c0019052805194019390932091935091906080523060c0526101205250620003bd95505050505050565b634e487b7160e01b600052604160045260246000fd5b600082601f8301126200015b57600080fd5b81516001600160401b038082111562000178576200017862000133565b604051601f8301601f19908116603f01168101908282118183101715620001a357620001a362000133565b81604052838152602092508683858801011115620001c057600080fd5b600091505b83821015620001e45785820183015181830184015290820190620001c5565b600093810190920192909252949350505050565b600080604083850312156200020c57600080fd5b82516001600160401b03808211156200022457600080fd5b620002328683870162000149565b935060208501519150808211156200024957600080fd5b50620002588582860162000149565b9150509250929050565b600181811c908216806200027757607f821691505b6020821081036200029857634e487b7160e01b600052602260045260246000fd5b50919050565b601f821115620002ec57600081815260208120601f850160051c81016020861015620002c75750805b601f850160051c820191505b81811015620002e857828155600101620002d3565b5050505b505050565b81516001600160401b038111156200030d576200030d62000133565b62000325816200031e845462000262565b846200029e565b602080601f8311600181146200035d5760008415620003445750858301515b600019600386901b1c1916600185901b178555620002e8565b600085815260208120601f198616915b828110156200038e578886015182559484019460019091019084016200036d565b5085821015620003ad5787850151600019600388901b60f8161c191681555b5050505050600190811b01905550565b60805160a05160c05160e051610100516101205161014051611dd462000418600039600061099601526000610eb201526000610f0101526000610edc01526000610e3501526000610e5f01526000610e890152611dd46000f3fe608060405234801561001057600080fd5b50600436106101735760003560e01c80636fcfff45116100de5780639dc29fac11610097578063c3cda52011610071578063c3cda52014610358578063d505accf1461036b578063dd62ed3e1461037e578063f1127ed8146103b757600080fd5b80639dc29fac1461031f578063a457c2d714610332578063a9059cbb1461034557600080fd5b80636fcfff451461028d57806370a08231146102b55780637ecebe00146102de5780638e539e8c146102f157806395d89b41146103045780639ab24eb01461030c57600080fd5b80633644e515116101305780633644e515146101f357806339509351146101fb5780633a46b1a81461020e57806340c10f1914610221578063587cde1e146102365780635c19a95c1461027a57600080fd5b806306fdde0314610178578063095ea7b31461019657806318160ddd146101b957806323b872dd146101cb578063313ce567146101de5780633408e470146101ed575b600080fd5b6101806103f4565b60405161018d9190611a96565b60405180910390f35b6101a96101a4366004611b00565b610486565b604051901515815260200161018d565b6002545b60405190815260200161018d565b6101a96101d9366004611b2a565b61049d565b6040516012815260200161018d565b466101bd565b6101bd61054a565b6101a9610209366004611b00565b610559565b6101bd61021c366004611b00565b610595565b61023461022f366004611b00565b61060f565b005b610262610244366004611b66565b6001600160a01b039081166000908152600660205260409020541690565b6040516001600160a01b03909116815260200161018d565b610234610288366004611b66565b61061d565b6102a061029b366004611b66565b61062a565b60405163ffffffff909116815260200161018d565b6101bd6102c3366004611b66565b6001600160a01b031660009081526020819052604090205490565b6101bd6102ec366004611b66565b61064c565b6101bd6102ff366004611b81565b61066a565b6101806106c6565b6101bd61031a366004611b66565b6106d5565b61023461032d366004611b00565b61075c565b6101a9610340366004611b00565b610766565b6101a9610353366004611b00565b6107ff565b610234610366366004611bab565b61080c565b610234610379366004611c03565b610942565b6101bd61038c366004611c6d565b6001600160a01b03918216600090815260016020908152604080832093909416825291909152205490565b6103ca6103c5366004611ca0565b610aa6565b60408051825163ffffffff1681526020928301516001600160e01b0316928101929092520161018d565b60606003805461040390611ce0565b80601f016020809104026020016040519081016040528092919081815260200182805461042f90611ce0565b801561047c5780601f106104515761010080835404028352916020019161047c565b820191906000526020600020905b81548152906001019060200180831161045f57829003601f168201915b5050505050905090565b6000610493338484610b2a565b5060015b92915050565b6001600160a01b0383166000908152600160209081526040808320338452909152812054828110156105275760405162461bcd60e51b815260206004820152602860248201527f45524332303a207472616e7366657220616d6f756e74206578636565647320616044820152676c6c6f77616e636560c01b60648201526084015b60405180910390fd5b6105348533858403610b2a565b61053f858585610c4e565b506001949350505050565b6000610554610e28565b905090565b3360008181526001602090815260408083206001600160a01b03871684529091528120549091610493918590610590908690611d2a565b610b2a565b60004382106105e65760405162461bcd60e51b815260206004820152601f60248201527f4552433230566f7465733a20626c6f636b206e6f7420796574206d696e656400604482015260640161051e565b6001600160a01b03831660009081526007602052604090206106089083610f4f565b9392505050565b610619828261100c565b5050565b6106273382611096565b50565b6001600160a01b0381166000908152600760205260408120546104979061110f565b6001600160a01b038116600090815260056020526040812054610497565b60004382106106bb5760405162461bcd60e51b815260206004820152601f60248201527f4552433230566f7465733a20626c6f636b206e6f7420796574206d696e656400604482015260640161051e565b610497600883610f4f565b60606004805461040390611ce0565b6001600160a01b0381166000908152600760205260408120548015610749576001600160a01b0383166000908152600760205260409020610717600183611d3d565b8154811061072757610727611d50565b60009182526020909120015464010000000090046001600160e01b031661074c565b60005b6001600160e01b03169392505050565b6106198282611178565b3360009081526001602090815260408083206001600160a01b0386168452909152812054828110156107e85760405162461bcd60e51b815260206004820152602560248201527f45524332303a2064656372656173656420616c6c6f77616e63652062656c6f77604482015264207a65726f60d81b606482015260840161051e565b6107f53385858403610b2a565b5060019392505050565b6000610493338484610c4e565b8342111561085c5760405162461bcd60e51b815260206004820152601d60248201527f4552433230566f7465733a207369676e61747572652065787069726564000000604482015260640161051e565b604080517fe48329057bfd03d55e49b547132e39cffd9c1820ad7b9d4c5307691425d15adf60208201526001600160a01b0388169181019190915260608101869052608081018590526000906108d6906108ce9060a00160405160208183030381529060405280519060200120611190565b8585856111de565b90506108e181611206565b861461092f5760405162461bcd60e51b815260206004820152601960248201527f4552433230566f7465733a20696e76616c6964206e6f6e636500000000000000604482015260640161051e565b6109398188611096565b50505050505050565b834211156109925760405162461bcd60e51b815260206004820152601d60248201527f45524332305065726d69743a206578706972656420646561646c696e65000000604482015260640161051e565b60007f00000000000000000000000000000000000000000000000000000000000000008888886109c18c611206565b6040805160208101969096526001600160a01b0394851690860152929091166060840152608083015260a082015260c0810186905260e0016040516020818303038152906040528051906020012090506000610a1c82611190565b90506000610a2c828787876111de565b9050896001600160a01b0316816001600160a01b031614610a8f5760405162461bcd60e51b815260206004820152601e60248201527f45524332305065726d69743a20696e76616c6964207369676e61747572650000604482015260640161051e565b610a9a8a8a8a610b2a565b50505050505050505050565b60408051808201909152600080825260208201526001600160a01b0383166000908152600760205260409020805463ffffffff8416908110610aea57610aea611d50565b60009182526020918290206040805180820190915291015463ffffffff8116825264010000000090046001600160e01b0316918101919091529392505050565b6001600160a01b038316610b8c5760405162461bcd60e51b8152602060048201526024808201527f45524332303a20617070726f76652066726f6d20746865207a65726f206164646044820152637265737360e01b606482015260840161051e565b6001600160a01b038216610bed5760405162461bcd60e51b815260206004820152602260248201527f45524332303a20617070726f766520746f20746865207a65726f206164647265604482015261737360f01b606482015260840161051e565b6001600160a01b0383811660008181526001602090815260408083209487168084529482529182902085905590518481527f8c5be1e5ebec7d5bd14f71427d1e84f3dd0314c0f7b2291e5b200ac8c7c3b925910160405180910390a3505050565b6001600160a01b038316610cb25760405162461bcd60e51b815260206004820152602560248201527f45524332303a207472616e736665722066726f6d20746865207a65726f206164604482015264647265737360d81b606482015260840161051e565b6001600160a01b038216610d145760405162461bcd60e51b815260206004820152602360248201527f45524332303a207472616e7366657220746f20746865207a65726f206164647260448201526265737360e81b606482015260840161051e565b6001600160a01b03831660009081526020819052604090205481811015610d8c5760405162461bcd60e51b815260206004820152602660248201527f45524332303a207472616e7366657220616d6f756e7420657863656564732062604482015265616c616e636560d01b606482015260840161051e565b6001600160a01b03808516600090815260208190526040808220858503905591851681529081208054849290610dc3908490611d2a565b92505081905550826001600160a01b0316846001600160a01b03167fddf252ad1be2c89b69c2b068fc378daa952ba7f163c4a11628f55a4df523b3ef84604051610e0f91815260200190565b60405180910390a3610e22848484611233565b50505050565b6000306001600160a01b037f000000000000000000000000000000000000000000000000000000000000000016148015610e8157507f000000000000000000000000000000000000000000000000000000000000000046145b15610eab57507f000000000000000000000000000000000000000000000000000000000000000090565b50604080517f00000000000000000000000000000000000000000000000000000000000000006020808301919091527f0000000000000000000000000000000000000000000000000000000000000000828401527f000000000000000000000000000000000000000000000000000000000000000060608301524660808301523060a0808401919091528351808403909101815260c0909201909252805191012090565b8154600090815b81811015610fb3576000610f6a8284611265565b905084868281548110610f7f57610f7f611d50565b60009182526020909120015463ffffffff161115610f9f57809250610fad565b610faa816001611d2a565b91505b50610f56565b8115610ff75784610fc5600184611d3d565b81548110610fd557610fd5611d50565b60009182526020909120015464010000000090046001600160e01b0316610ffa565b60005b6001600160e01b031695945050505050565b6110168282611280565b6002546001600160e01b0310156110885760405162461bcd60e51b815260206004820152603060248201527f4552433230566f7465733a20746f74616c20737570706c79207269736b73206f60448201526f766572666c6f77696e6720766f74657360801b606482015260840161051e565b610e22600861136783611373565b6001600160a01b038281166000818152600660208181526040808420805485845282862054949093528787166001600160a01b03198416811790915590519190951694919391928592917f3134e8a2e6d97e929a7e54011ea5485d7d196dd5f0ba4d4ef95803e8e3fc257f9190a4610e228284836114ec565b600063ffffffff8211156111745760405162461bcd60e51b815260206004820152602660248201527f53616665436173743a2076616c756520646f65736e27742066697420696e203360448201526532206269747360d01b606482015260840161051e565b5090565b6111828282611629565b610e22600861177e83611373565b600061049761119d610e28565b8360405161190160f01b6020820152602281018390526042810182905260009060620160405160208183030381529060405280519060200120905092915050565b60008060006111ef8787878761178a565b915091506111fc81611877565b5095945050505050565b6001600160a01b03811660009081526005602052604090208054600181018255905b50919050565b505050565b6001600160a01b0383811660009081526006602052604080822054858416835291205461122e929182169116836114ec565b60006112746002848418611d66565b61060890848416611d2a565b6001600160a01b0382166112d65760405162461bcd60e51b815260206004820152601f60248201527f45524332303a206d696e7420746f20746865207a65726f206164647265737300604482015260640161051e565b80600260008282546112e89190611d2a565b90915550506001600160a01b03821660009081526020819052604081208054839290611315908490611d2a565b90915550506040518181526001600160a01b038316906000907fddf252ad1be2c89b69c2b068fc378daa952ba7f163c4a11628f55a4df523b3ef9060200160405180910390a361061960008383611233565b60006106088284611d2a565b8254600090819080156113be578561138c600183611d3d565b8154811061139c5761139c611d50565b60009182526020909120015464010000000090046001600160e01b03166113c1565b60005b6001600160e01b031692506113da83858763ffffffff16565b9150600081118015611418575043866113f4600184611d3d565b8154811061140457611404611d50565b60009182526020909120015463ffffffff16145b156114785761142682611a2d565b86611432600184611d3d565b8154811061144257611442611d50565b9060005260206000200160000160046101000a8154816001600160e01b0302191690836001600160e01b031602179055506114e3565b85604051806040016040528061148d4361110f565b63ffffffff1681526020016114a185611a2d565b6001600160e01b0390811690915282546001810184556000938452602093849020835194909301519091166401000000000263ffffffff909316929092179101555b50935093915050565b816001600160a01b0316836001600160a01b03161415801561150e5750600081115b1561122e576001600160a01b0383161561159c576001600160a01b038316600090815260076020526040812081906115499061177e85611373565b91509150846001600160a01b03167fdec2bacdd2f05b59de34da9b523dff8be42e5e38e818c82fdb0bae774387a7248383604051611591929190918252602082015260400190565b60405180910390a250505b6001600160a01b0382161561122e576001600160a01b038216600090815260076020526040812081906115d29061136785611373565b91509150836001600160a01b03167fdec2bacdd2f05b59de34da9b523dff8be42e5e38e818c82fdb0bae774387a724838360405161161a929190918252602082015260400190565b60405180910390a25050505050565b6001600160a01b0382166116895760405162461bcd60e51b815260206004820152602160248201527f45524332303a206275726e2066726f6d20746865207a65726f206164647265736044820152607360f81b606482015260840161051e565b6001600160a01b038216600090815260208190526040902054818110156116fd5760405162461bcd60e51b815260206004820152602260248201527f45524332303a206275726e20616d6f756e7420657863656564732062616c616e604482015261636560f01b606482015260840161051e565b6001600160a01b038316600090815260208190526040812083830390556002805484929061172c908490611d3d565b90915550506040518281526000906001600160a01b038516907fddf252ad1be2c89b69c2b068fc378daa952ba7f163c4a11628f55a4df523b3ef9060200160405180910390a361122e83600084611233565b60006106088284611d3d565b6000807f7fffffffffffffffffffffffffffffff5d576e7357a4501ddfe92f46681b20a08311156117c1575060009050600361186e565b8460ff16601b141580156117d957508460ff16601c14155b156117ea575060009050600461186e565b6040805160008082526020820180845289905260ff881692820192909252606081018690526080810185905260019060a0016020604051602081039080840390855afa15801561183e573d6000803e3d6000fd5b5050604051601f1901519150506001600160a01b0381166118675760006001925092505061186e565b9150600090505b94509492505050565b600081600481111561188b5761188b611d88565b036118935750565b60018160048111156118a7576118a7611d88565b036118f45760405162461bcd60e51b815260206004820152601860248201527f45434453413a20696e76616c6964207369676e61747572650000000000000000604482015260640161051e565b600281600481111561190857611908611d88565b036119555760405162461bcd60e51b815260206004820152601f60248201527f45434453413a20696e76616c6964207369676e6174757265206c656e67746800604482015260640161051e565b600381600481111561196957611969611d88565b036119c15760405162461bcd60e51b815260206004820152602260248201527f45434453413a20696e76616c6964207369676e6174757265202773272076616c604482015261756560f01b606482015260840161051e565b60048160048111156119d5576119d5611d88565b036106275760405162461bcd60e51b815260206004820152602260248201527f45434453413a20696e76616c6964207369676e6174757265202776272076616c604482015261756560f01b606482015260840161051e565b60006001600160e01b038211156111745760405162461bcd60e51b815260206004820152602760248201527f53616665436173743a2076616c756520646f65736e27742066697420696e20326044820152663234206269747360c81b606482015260840161051e565b600060208083528351808285015260005b81811015611ac357858101830151858201604001528201611aa7565b506000604082860101526040601f19601f8301168501019250505092915050565b80356001600160a01b0381168114611afb57600080fd5b919050565b60008060408385031215611b1357600080fd5b611b1c83611ae4565b946020939093013593505050565b600080600060608486031215611b3f57600080fd5b611b4884611ae4565b9250611b5660208501611ae4565b9150604084013590509250925092565b600060208284031215611b7857600080fd5b61060882611ae4565b600060208284031215611b9357600080fd5b5035919050565b803560ff81168114611afb57600080fd5b60008060008060008060c08789031215611bc457600080fd5b611bcd87611ae4565b95506020870135945060408701359350611be960608801611b9a565b92506080870135915060a087013590509295509295509295565b600080600080600080600060e0888a031215611c1e57600080fd5b611c2788611ae4565b9650611c3560208901611ae4565b95506040880135945060608801359350611c5160808901611b9a565b925060a0880135915060c0880135905092959891949750929550565b60008060408385031215611c8057600080fd5b611c8983611ae4565b9150611c9760208401611ae4565b90509250929050565b60008060408385031215611cb357600080fd5b611cbc83611ae4565b9150602083013563ffffffff81168114611cd557600080fd5b809150509250929050565b600181811c90821680611cf457607f821691505b60208210810361122857634e487b7160e01b600052602260045260246000fd5b634e487b7160e01b600052601160045260246000fd5b8082018082111561049757610497611d14565b8181038181111561049757610497611d14565b634e487b7160e01b600052603260045260246000fd5b600082611d8357634e487b7160e01b600052601260045260246000fd5b500490565b634e487b7160e01b600052602160045260246000fdfea2646970667358221220b33b22af1bc04922a63f3cf8f7927ab988af60637136914f81932863f231791b64736f6c63430008150033",
  "bytecodeSha1": "a4474b05d671ac63a2dfcc5917a70d8151b8236d",
  "compiler": {
    "evm_version": "istanbul",
    "optimizer": {
      "enabled": true,
      "runs": 200
    },
    "version": "0.8.21+commit.d9974bed"
  },
  "contractName": "ERC20VotesMock",
  "language": "Solidity",
  "natspec": {
    "kind": "dev",
    "methods": {
      "DOMAIN_SEPARATOR()": {
        "details": "See {IERC20Permit-DOMAIN_SEPARATOR}."
      },
      "allowance(address,address)": {
        "details": "See {IERC20-allowance}."
      },
      "approve(address,uint256)": {
        "details": "See {IERC20-approve}. Requirements: - `spender` cannot be the zero address."
      },
      "balanceOf(address)": {
        "details": "See {IERC20-balanceOf}."
      },
      "checkpoints(address,uint32)": {
        "details": "Get the `pos`-th checkpoint for `account`."
      },
      "decimals()": {
        "details": "Returns the number of decimals used to get its user representation. For example, if `decimals` equals `2`, a balance of `505` tokens should be displayed to a user as `5.05` (`505 / 10 ** 2`). Tokens usually opt for a value of 18, imitating the relationship between Ether and Wei. This is the value {ERC20} uses, unless this function is overridden; NOTE: This information is only used for _display_ purposes: it in no way affects any of the arithmetic of the contract, including {IERC20-balanceOf} and {IERC20-transfer}."
      },
      "decreaseAllowance(address,uint256)": {
        "details": "Atomically decreases the allowance granted to `spender` by the caller. This is an alternative to {approve} that can be used as a mitigation for problems described in {IERC20-approve}. Emits an {Approval} event indicating the updated allowance. Requirements: - `spender` cannot be the zero address. - `spender` must have allowance for the caller of at least `subtractedValue`."
      },
      "delegate(address)": {
        "details": "Delegate votes from the sender to `delegatee`."
      },
      "delegateBySig(address,uint256,uint256,uint8,bytes32,bytes32)": {
        "details": "Delegates votes from signer to `delegatee`"
      },
      "delegates(address)": {
        "details": "Get the address `account` is currently delegating to."
      },
      "getPastTotalSupply(uint256)": {
        "details": "Retrieve the `totalSupply` at the end of `blockNumber`. Note, this value is the sum of all balances. It is but NOT the sum of all the delegated votes! Requirements: - `blockNumber` must have been already mined"
      },
      "getPastVotes(address,uint256)": {
        "details": "Retrieve the number of votes for `account` at the end of `blockNumber`. Requirements: - `blockNumber` must have been already mined"
      },
      "getVotes(address)": {
        "details": "Gets the current votes balance for `account`"
      },
      "increaseAllowance(address,uint256)": {
        "details": "Atomically increases the allowance granted to `spender` by the caller. This is an alternative to {approve} that can be used as a mitigation for problems described in {IERC20-approve}. Emits an {Approval} event indicating the updated allowance. Requirements: - `spender` cannot be the zero address."
      },
      "name()": {
        "details": "Returns the name of the token."
      },
      "nonces(address)": {
        "details": "See {IERC20Permit-nonces}."
      },
      "numCheckpoints(address)": {
        "details": "Get number of checkpoints for `account`."
      },
      "permit(address,address,uint256,uint256,uint8,bytes32,bytes32)": {
        "details": "See {IERC20Permit-permit}."
      },
      "symbol()": {
        "details": "Returns the symbol of the token, usually a shorter version of the name."
      },
      "totalSupply()": {
        "details": "See {IERC20-totalSupply}."
      },
      "transfer(address,uint256)": {
        "details": "See {IERC20-transfer}. Requirements: - `recipient` cannot be the zero address. - the caller must have a balance of at least `amount`."
      },
      "transferFrom(address,address,uint256)": {
        "details": "See {IERC20-transferFrom}. Emits an {Approval} event indicating the updated allowance. This is not required by the EIP. See the note at the beginning of {ERC20}. Requirements: - `sender` and `recipient` cannot be the zero address. - `sender` must have a balance of at least `amount`. - the caller must have allowance for ``sender``'s tokens of at least `amount`."
      }
    },
    "version": 1
  },
  "opcodes": "PUSH1 0x80 PUSH1 0x40 MSTORE CALLVALUE DUP1 ISZERO PUSH2 0x10 JUMPI PUSH1 0x0 DUP1 REVERT JUMPDEST POP PUSH1 0x4 CALLDATASIZE LT PUSH2 0x173 JUMPI PUSH1 0x0 CALLDATALOAD PUSH1 0xE0 SHR DUP1 PUSH4 0x6FCFFF45 GT PUSH2 0xDE JUMPI DUP1 PUSH4 0x9DC29FAC GT PUSH2 0x97 JUMPI DUP1 PUSH4 0xC3CDA520 GT PUSH2 0x71 JUMPI DUP1 PUSH4 0xC3CDA520 EQ PUSH2 0x358 JUMPI DUP1 PUSH4 0xD505ACCF EQ PUSH2 0x36B JUMPI DUP1 PUSH4 0xDD62ED3E EQ PUSH2 0x37E JUMPI DUP1 PUSH4 0xF1127ED8 EQ PUSH2 0x3B7 JUMPI PUSH1 0x0 DUP1 REVERT JUMPDEST DUP1 PUSH4 0x9DC29FAC EQ PUSH2 0x31F JUMPI DUP1 PUSH4 0xA457C2D7 EQ PUSH2 0x332 JUMPI DUP1 PUSH4 0xA9059CBB EQ PUSH2 0x345 JUMPI PUSH1 0x0 DUP1 REVERT JUMPDEST DUP1 PUSH4 0x6FCFFF45 EQ PUSH2 0x28D JUMPI DUP1 PUSH4 0x70A08231 EQ PUSH2 0x2B5 JUMPI DUP1 PUSH4 0x7ECEBE00 EQ PUSH2 0x2DE JUMPI DUP1 PUSH4 0x8E539E8C EQ PUSH2 0x2F1 JUMPI DUP1 PUSH4 0x95D89B41 EQ PUSH2 0x304 JUMPI DUP1 PUSH4 0x9AB24EB0 EQ PUSH2 0x30C JUMPI PUSH1 0x0 DUP1 REVERT JUMPDEST DUP1 PUSH4 0x3644E515 GT PUSH2 0x130 JUMPI DUP1 PUSH4 0x3644E515 EQ PUSH2 0x1F3 JUMPI DUP1 PUSH4 0x39509351 EQ PUSH2 0x1FB JUMPI DUP1 PUSH4 0x3A46B1A8 EQ PUSH2 0x20E JUMPI DUP1 PUSH4 0x40C10F19 EQ PUSH2 0x221 JUMPI DUP1 PUSH4 0x587CDE1E EQ PUSH2 0x236 JUMPI DUP1 PUSH4 0x5C19A95C EQ PUSH2 0x27A JUMPI PUSH1 0x0 DUP1 REVERT JUMPDEST DUP1 PUSH4 0x6FDDE03 EQ PUSH2 0x178 JUMPI DUP1 PUSH4 0x95EA7B3 EQ PUSH2 0x196 JUMPI DUP1 PUSH4 0x18160DDD EQ PUSH2 0x1B9 JUMPI DUP1 PUSH4 0x23B872DD EQ PUSH2 0x1CB JUMPI DUP1 PUSH4 0x313CE567 EQ PUSH2 0x1DE JUMPI DUP1 PUSH4 0x3408E470 EQ PUSH2 0x1ED JUMPI JUMPDEST PUSH1 0x0 DUP1 REVERT JUMPDEST PUSH2 0x180 PUSH2 0x3F4 JUMP JUMPDEST PUSH1 0x40 MLOAD PUSH2 0x18D SWAP2 SWAP1 PUSH2 0x1A96 JUMP JUMPDEST PUSH1 0x40 MLOAD DUP1 SWAP2 SUB SWAP1 RETURN JUMPDEST PUSH2 0x1A9 PUSH2 0x1A4 CALLDATASIZE PUSH1 0x4 PUSH2 0x1B00 JUMP JUMPDEST PUSH2 0x486 JUMP JUMPDEST PUSH1 0x40 MLOAD SWAP1 ISZERO ISZERO DUP2 MSTORE PUSH1 0x20 ADD PUSH2 0x18D JUMP JUMPDEST PUSH1 0x2 SLOAD JUMPDEST PUSH1 0x40 MLOAD SWAP1 DUP2 MSTORE PUSH1 0x20 ADD PUSH2 0x18D JUMP JUMPDEST PUSH2 0x1A9 PUSH2 0x1D9 CALLDATASIZE PUSH1 0x4 PUSH2 0x1B2A JUMP JUMPDEST PUSH2 0x49D JUMP JUMPDEST PUSH1 0x40 MLOAD PUSH1 0x12 DUP2 MSTORE PUSH1 0x20 ADD PUSH2 0x18D JUMP JUMPDEST CHAINID PUSH2 0x1BD JUMP JUMPDEST PUSH2 0x1BD PUSH2 0x54A JUMP JUMPDEST PUSH2 0x1A9 PUSH2 0x209 CALLDATASIZE PUSH1 0x4 PUSH2 0x1B00 JUMP JUMPDEST PUSH2 0x559 JUMP JUMPDEST PUSH2 0x1BD PUSH2 0x21C CALLDATASIZE PUSH1 0x4 PUSH2 0x1B00 JUMP JUMPDEST PUSH2 0x595 JUMP JUMPDEST PUSH2 0x234 PUSH2 0x22F CALLDATASIZE PUSH1 0x4 PUSH2 0x1B00 JUMP JUMPDEST PUSH2 0x60F JUMP JUMPDEST STOP JUMPDEST PUSH2 0x262 PUSH2 0x244 CALLDATASIZE PUSH1 0x4 PUSH2 0x1B66 JUMP JUMPDEST PUSH1 0x1 PUSH1 0x1 PUSH1 0xA0 SHL SUB SWAP1 DUP2 AND PUSH1 0x0 SWAP1 DUP2 MSTORE PUSH1 0x6 PUSH1 0x20 MSTORE PUSH1 0x40 SWAP1 KECCAK256 SLOAD AND SWAP1 JUMP JUMPDEST PUSH1 0x40 MLOAD PUSH1 0x1 PUSH1 0x1 PUSH1 0xA0 SHL SUB SWAP1 SWAP2 AND DUP2 MSTORE PUSH1 0x20 ADD PUSH2 0x18D JUMP JUMPDEST PUSH2 0x234 PUSH2 0x288 CALLDATASIZE PUSH1 0x4 PUSH2 0x1B66 JUMP JUMPDEST PUSH2 0x61D JUMP JUMPDEST PUSH2 0x2A0 PUSH2 0x29B CALLDATASIZE PUSH1 0x4 PUSH2 0x1B66 JUMP JUMPDEST PUSH2 0x62A JUMP JUMPDEST PUSH1 0x40 MLOAD PUSH4 0xFFFFFFFF SWAP1 SWAP2 AND DUP2 MSTORE PUSH1 0x20 ADD PUSH2 0x18D JUMP JUMPDEST PUSH2 0x1BD PUSH2 0x2C3 CALLDATASIZE PUSH1 0x4 PUSH2 0x1B66 JUMP JUMPDEST PUSH1 0x1 PUSH1 0x1 PUSH1 0xA0 SHL SUB AND PUSH1 0x0 SWAP1 DUP2 MSTORE PUSH1 0x20 DUP2 SWAP1 MSTORE PUSH1 0x40 SWAP1 KECCAK256 SLOAD SWAP1 JUMP JUMPDEST PUSH2 0x1BD PUSH2 0x2EC CALLDATASIZE PUSH1 0x4 PUSH2 0x1B66 JUMP JUMPDEST PUSH2 0x64C JUMP JUMPDEST PUSH2 0x1BD PUSH2 0x2FF CALLDATASIZE PUSH1 0x4 PUSH2 0x1B81 JUMP JUMPDEST PUSH2 0x66A JUMP JUMPDEST PUSH2 0x180 PUSH2 0x6C6 JUMP JUMPDEST PUSH2 0x1BD PUSH2 0x31A CALLDATASIZE PUSH1 0x4 PUSH2 0x1B66 JUMP JUMPDEST PUSH2 0x6D5 JUMP JUMPDEST PUSH2 0x234 PUSH2 0x32D CALLDATASIZE PUSH1 0x4 PUSH2 0x1B00 JUMP JUMPDEST PUSH2 0x75C JUMP JUMPDEST PUSH2 0x1A9 PUSH2 0x340 CALLDATASIZE PUSH1 0x4 PUSH2 0x1B00 JUMP JUMPDEST PUSH2 0x766 JUMP JUMPDEST PUSH2 0x1A9 PUSH2 0x353 CALLDATASIZE PUSH1 0x4 PUSH2 0x1B00 JUMP JUMPDEST PUSH2 0x7FF JUMP JUMPDEST PUSH2 0x234 PUSH2 0x366 CALLDATASIZE PUSH1 0x4 PUSH2 0x1BAB JUMP JUMPDEST PUSH2 0x80C JUMP JUMPDEST PUSH2 0x234 PUSH2 0x379 CALLDATASIZE PUSH1 0x4 PUSH2 0x1C03 JUMP JUMPDEST PUSH2 0x942 JUMP JUMPDEST PUSH2 0x1BD PUSH2 0x38C CALLDATASIZE PUSH1 0x4 PUSH2 0x1C6D JUMP JUMPDEST PUSH1 0x1 PUSH1 0x1 PUSH1 0xA0 SHL SUB SWAP2 DUP3 AND PUSH1 0x0 SWAP1 DUP2 MSTORE PUSH1 0x1 PUSH1 0x20 SWAP1 DUP2 MSTORE PUSH1 0x40 DUP1 DUP4 KECCAK256 SWAP4 SWAP1 SWAP5 AND DUP3 MSTORE SWAP2 SWAP1 SWAP2 MSTORE KECCAK256 SLOAD SWAP1 JUMP JUMPDEST PUSH2 0x3CA PUSH2 0x3C5 CALLDATASIZE PUSH1 0x4 PUSH2 0x1CA0 JUMP JUMPDEST PUSH2 0xAA6 JUMP JUMPDEST PUSH1 0x40 DUP1 MLOAD DUP3 MLOAD PUSH4 0xFFFFFFFF AND DUP2 MSTORE PUSH1 0x20 SWAP3 DUP4 ADD MLOAD PUSH1 0x1 PUSH1 0x1 PUSH1 0xE0 SHL SUB AND SWAP3 DUP2 ADD SWAP3 SWAP1 SWAP3 MSTORE ADD PUSH2 0x18D JUMP JUMPDEST PUSH1 0x60 PUSH1 0x3 DUP1 SLOAD PUSH2 0x403 SWAP1 PUSH2 0x1CE0 JUMP JUMPDEST DUP1 PUSH1 0x1F ADD PUSH1 0x20 DUP1 SWAP2 DIV MUL PUSH1 0x20 ADD PUSH1 0x40 MLOAD SWAP1 DUP2 ADD PUSH1 0x40 MSTORE DUP1 SWAP3 SWAP2 SWAP1 DUP2 DUP2 MSTORE PUSH1 0x20 ADD DUP3 DUP1 SLOAD PUSH2 0x42F SWAP1 PUSH2 0x1CE0 JUMP JUMPDEST DUP1 ISZERO PUSH2 0x47C JUMPI DUP1 PUSH1 0x1F LT PUSH2 0x451 JUMPI PUSH2 0x100 DUP1 DUP4 SLOAD DIV MUL DUP4 MSTORE SWAP2 PUSH1 0x20 ADD SWAP2 PUSH2 0x47C JUMP JUMPDEST DUP3 ADD SWAP2 SWAP1 PUSH1 0x0 MSTORE PUSH1 0x20 PUSH1 0x0 KECCAK256 SWAP1 JUMPDEST DUP2 SLOAD DUP2 MSTORE SWAP1 PUSH1 0x1 ADD SWAP1 PUSH1 0x20 ADD DUP1 DUP4 GT PUSH2 0x45F JUMPI DUP3 SWAP1 SUB PUSH1 0x1F AND DUP3 ADD SWAP2 JUMPDEST POP POP POP POP POP SWAP1 POP SWAP1 JUMP JUMPDEST PUSH1 0x0 PUSH2 0x493 CALLER DUP5 DUP5 PUSH2 0xB2A JUMP JUMPDEST POP PUSH1 0x1 JUMPDEST SWAP3 SWAP2 POP POP JUMP JUMPDEST PUSH1 0x1 PUSH1 0x1 PUSH1 0xA0 SHL SUB DUP4 AND PUSH1 0x0 SWAP1 DUP2 MSTORE PUSH1 0x1 PUSH1 0x20 SWAP1 DUP2 MSTORE PUSH1 0x40 DUP1 DUP4 KECCAK256 CALLER DUP5 MSTORE SWAP1 SWAP2 MSTORE DUP2 KECCAK256 SLOAD DUP3 DUP2 LT ISZERO PUSH2 0x527 JUMPI PUSH1 0x40 MLOAD PUSH3 0x461BCD PUSH1 0xE5 SHL DUP2 MSTORE PUSH1 0x20 PUSH1 0x4 DUP3 ADD MSTORE PUSH1 0x28 PUSH1 0x24 DUP3 ADD MSTORE PUSH32 0x45524332303A207472616E7366657220616D6F756E7420657863656564732061 PUSH1 0x44 DUP3 ADD MSTORE PUSH8 0x6C6C6F77616E6365 PUSH1 0xC0 SHL PUSH1 0x64 DUP3 ADD MSTORE PUSH1 0x84 ADD JUMPDEST PUSH1 0x40 MLOAD DUP1 SWAP2 SUB SWAP1 REVERT JUMPDEST PUSH2 0x534 DUP6 CALLER DUP6 DUP5 SUB PUSH2 0xB2A JUMP JUMPDEST PUSH2 0x53F DUP6 DUP6 DUP6 PUSH2 0xC4E JUMP JUMPDEST POP PUSH1 0x1 SWAP5 SWAP4 POP POP POP POP JUMP JUMPDEST PUSH1 0x0 PUSH2 0x554 PUSH2 0xE28 JUMP JUMPDEST SWAP1 POP SWAP1 JUMP JUMPDEST CALLER PUSH1 0x0 DUP2 DUP2 MSTORE PUSH1 0x1 PUSH1 0x20 SWAP1 DUP2 MSTORE PUSH1 0x40 DUP1 DUP4 KECCAK256 PUSH1 0x1 PUSH1 0x1 PUSH1 0xA0 SHL SUB DUP8 AND DUP5 MSTORE SWAP1 SWAP2 MSTORE DUP2 KECCAK256 SLOAD SWAP1 SWAP2 PUSH2 0x493 SWAP2 DUP6 SWAP1 PUSH2 0x590 SWAP1 DUP7 SWAP1 PUSH2 0x1D2A JUMP JUMPDEST PUSH2 0xB2A JUMP JUMPDEST PUSH1 0x0 NUMBER DUP3 LT PUSH2 0x5E6 JUMPI PUSH1 0x40 MLOAD PUSH3 0x461BCD PUSH1 0xE5 SHL DUP2 MSTORE PUSH1 0x20 PUSH1 0x4 DUP3 ADD MSTORE PUSH1 0x1F PUSH1 0x24 DUP3 ADD MSTORE PUSH32 0x4552433230566F7465733A20626C6F636B206E6F7420796574206D696E656400 PUSH1 0x44 DUP3 ADD MSTORE PUSH1 0x64 ADD PUSH2 0x51E JUMP JUMPDEST PUSH1 0x1 PUSH1 0x1 PUSH1 0xA0 SHL SUB DUP4 AND PUSH1 0x0 SWAP1 DUP2 MSTORE PUSH1 0x7 PUSH1 0x20 MSTORE PUSH1 0x40 SWAP1 KECCAK256 PUSH2 0x608 SWAP1 DUP4 PUSH2 0xF4F JUMP JUMPDEST SWAP4 SWAP3 POP POP POP JUMP JUMPDEST PUSH2 0x619 DUP3 DUP3 PUSH2 0x100C JUMP JUMPDEST POP POP JUMP JUMPDEST PUSH2 0x627 CALLER DUP3 PUSH2 0x1096 JUMP JUMPDEST POP JUMP JUMPDEST PUSH1 0x1 PUSH1 0x1 PUSH1 0xA0 SHL SUB DUP2 AND PUSH1 0x0 SWAP1 DUP2 MSTORE PUSH1 0x7 PUSH1 0x20 MSTORE PUSH1 0x40 DUP2 KECCAK256 SLOAD PUSH2 0x497 SWAP1 PUSH2 0x110F JUMP JUMPDEST PUSH1 0x1 PUSH1 0x1 PUSH1 0xA0 SHL SUB DUP2 AND PUSH1 0x0 SWAP1 DUP2 MSTORE PUSH1 0x5 PUSH1 0x20 MSTORE PUSH1 0x40 DUP2 KECCAK256 SLOAD PUSH2 0x497 JUMP JUMPDEST PUSH1 0x0 NUMBER DUP3 LT PUSH2 0x6BB JUMPI PUSH1 0x40 MLOAD PUSH3 0x461BCD PUSH1 0xE5 SHL DUP2 MSTORE PUSH1 0x20 PUSH1 0x4 DUP3 ADD MSTORE PUSH1 0x1F PUSH1 0x24 DUP3 ADD MSTORE PUSH32 0x4552433230566F7465733A20626C6F636B206E6F7420796574206D696E656400 PUSH1 0x44 DUP3 ADD MSTORE PUSH1 0x64 ADD PUSH2 0x51E JUMP JUMPDEST PUSH2 0x497 PUSH1 0x8 DUP4 PUSH2 0xF4F JUMP JUMPDEST PUSH1 0x60 PUSH1 0x4 DUP1 SLOAD PUSH2 0x403 SWAP1 PUSH2 0x1CE0 JUMP JUMPDEST PUSH1 0x1 PUSH1 0x1 PUSH1 0xA0 SHL SUB DUP2 AND PUSH1 0x0 SWAP1 DUP2 MSTORE PUSH1 0x7 PUSH1 0x20 MSTORE PUSH1 0x40 DUP2 KECCAK256 SLOAD DUP1 ISZERO PUSH2 0x749 JUMPI PUSH1 0x1 PUSH1 0x1 PUSH1 0xA0 SHL SUB DUP4 AND PUSH1 0x0 SWAP1 DUP2 MSTORE PUSH1 0x7 PUSH1 0x20 MSTORE PUSH1 0x40 SWAP1 KECCAK256 PUSH2 0x717 PUSH1 0x1 DUP4 PUSH2 0x1D3D JUMP JUMPDEST DUP2 SLOAD DUP2 LT PUSH2 0x727 JUMPI PUSH2 0x727 PUSH2 0x1D50 JUMP JUMPDEST PUSH1 0x0 SWAP2 DUP3 MSTORE PUSH1 0x20 SWAP1 SWAP2 KECCAK256 ADD SLOAD PUSH5 0x100000000 SWAP1 DIV PUSH1 0x1 PUSH1 0x1 PUSH1 0xE0 SHL SUB AND PUSH2 0x74C JUMP JUMPDEST PUSH1 0x0 JUMPDEST PUSH1 0x1 PUSH1 0x1 PUSH1 0xE0 SHL SUB AND SWAP4 SWAP3 POP POP POP JUMP JUMPDEST PUSH2 0x619 DUP3 DUP3 PUSH2 0x1178 JUMP JUMPDEST CALLER PUSH1 0x0 SWAP1 DUP2 MSTORE PUSH1 0x1 PUSH1 0x20 SWAP1 DUP2 MSTORE PUSH1 0x40 DUP1 DUP4 KECCAK256 PUSH1 0x1 PUSH1 0x1 PUSH1 0xA0 SHL SUB DUP7 AND DUP5 MSTORE SWAP1 SWAP2 MSTORE DUP2 KECCAK256 SLOAD DUP3 DUP2 LT ISZERO PUSH2 0x7E8 JUMPI PUSH1 0x40 MLOAD PUSH3 0x461BCD PUSH1 0xE5 SHL DUP2 MSTORE PUSH1 0x20 PUSH1 0x4 DUP3 ADD MSTORE PUSH1 0x25 PUSH1 0x24 DUP3 ADD MSTORE PUSH32 0x45524332303A2064656372656173656420616C6C6F77616E63652062656C6F77 PUSH1 0x44 DUP3 ADD MSTORE PUSH5 0x207A65726F PUSH1 0xD8 SHL PUSH1 0x64 DUP3 ADD MSTORE PUSH1 0x84 ADD PUSH2 0x51E JUMP JUMPDEST PUSH2 0x7F5 CALLER DUP6 DUP6 DUP5 SUB PUSH2 0xB2A JUMP JUMPDEST POP PUSH1 0x1 SWAP4 SWAP3 POP POP POP JUMP JUMPDEST PUSH1 0x0 PUSH2 0x493 CALLER DUP5 DUP5 PUSH2 0xC4E JUMP JUMPDEST DUP4 TIMESTAMP GT ISZERO PUSH2 0x85C JUMPI PUSH1 0x40 MLOAD PUSH3 0x461BCD PUSH1 0xE5 SHL DUP2 MSTORE PUSH1 0x20 PUSH1 0x4 DUP3 ADD MSTORE PUSH1 0x1D PUSH1 0x24 DUP3 ADD MSTORE PUSH32 0x4552433230566F7465733A207369676E61747572652065787069726564000000 PUSH1 0x44 DUP3 ADD MSTORE PUSH1 0x64 ADD PUSH2 0x51E JUMP JUMPDEST PUSH1 0x40 DUP1 MLOAD PUSH32 0xE48329057BFD03D55E49B547132E39CFFD9C1820AD7B9D4C5307691425D15ADF PUSH1 0x20 DUP3 ADD MSTORE PUSH1 0x1 PUSH1 0x1 PUSH1 0xA0 SHL SUB DUP9 AND SWAP2 DUP2 ADD SWAP2 SWAP1 SWAP2 MSTORE PUSH1 0x60 DUP2 ADD DUP7 SWAP1 MSTORE PUSH1 0x80 DUP2 ADD DUP6 SWAP1 MSTORE PUSH1 0x0 SWAP1 PUSH2 0x8D6 SWAP1 PUSH2 0x8CE SWAP1 PUSH1 0xA0 ADD PUSH1 0x40 MLOAD PUSH1 0x20 DUP2 DUP4 SUB SUB DUP2 MSTORE SWAP1 PUSH1 0x40 MSTORE DUP1 MLOAD SWAP1 PUSH1 0x20 ADD KECCAK256 PUSH2 0x1190 JUMP JUMPDEST DUP6 DUP6 DUP6 PUSH2 0x11DE JUMP JUMPDEST SWAP1 POP PUSH2 0x8E1 DUP2 PUSH2 0x1206 JUMP JUMPDEST DUP7 EQ PUSH2 0x92F JUMPI PUSH1 0x40 MLOAD PUSH3 0x461BCD PUSH1 0xE5 SHL DUP2 MSTORE PUSH1 0x20 PUSH1 0x4 DUP3 ADD MSTORE PUSH1 0x19 PUSH1 0x24 DUP3 ADD MSTORE PUSH32 0x4552433230566F7465733A20696E76616C6964206E6F6E636500000000000000 PUSH1 0x44 DUP3 ADD MSTORE PUSH1 0x64 ADD PUSH2 0x51E JUMP JUMPDEST PUSH2 0x939 DUP2 DUP9 PUSH2 0x1096 JUMP JUMPDEST POP POP POP POP POP POP POP JUMP JUMPDEST DUP4 TIMESTAMP GT ISZERO PUSH2 0x992 JUMPI PUSH1 0x40 MLOAD PUSH3 0x461BCD PUSH1 0xE5 SHL DUP2 MSTORE PUSH1 0x20 PUSH1 0x4 DUP3 ADD MSTORE PUSH1 0x1D PUSH1 0x24 DUP3 ADD MSTORE PUSH32 0x45524332305065726D69743A206578706972656420646561646C696E65000000 PUSH1 0x44 DUP3 ADD MSTORE PUSH1 0x64 ADD PUSH2 0x51E JUMP JUMPDEST PUSH1 0x0 PUSH32 0x0 DUP9 DUP9 DUP9 PUSH2 0x9C1 DUP13 PUSH2 0x1206 JUMP JUMPDEST PUSH1 0x40 DUP1 MLOAD PUSH1 0x20 DUP2 ADD SWAP7 SWAP1 SWAP7 MSTORE PUSH1 0x1 PUSH1 0x1 PUSH1 0xA0 SHL SUB SWAP5 DUP6 AND SWAP1 DUP7 ADD MSTORE SWAP3 SWAP1 SWAP2 AND PUSH1 0x60 DUP5 ADD MSTORE PUSH1 0x80 DUP4 ADD MSTORE PUSH1 0xA0 DUP3 ADD MSTORE PUSH1 0xC0 DUP2 ADD DUP7 SWAP1 MSTORE PUSH1 0xE0 ADD PUSH1 0x40 MLOAD PUSH1 0x20 DUP2 DUP4 SUB SUB DUP2 MSTORE SWAP1 PUSH1 0x40 MSTORE DUP1 MLOAD SWAP1 PUSH1 0x20 ADD KECCAK256 SWAP1 POP PUSH1 0x0 PUSH2 0xA1C DUP3 PUSH2 0x1190 JUMP JUMPDEST SWAP1 POP PUSH1 0x0 PUSH2 0xA2C DUP3 DUP8 DUP8 DUP8 PUSH2 0x11DE JUMP JUMPDEST SWAP1 POP DUP10 PUSH1 0x1 PUSH1 0x1 PUSH1 0xA0 SHL SUB AND DUP2 PUSH1 0x1 PUSH1 0x1 PUSH1 0xA0 SHL SUB AND EQ PUSH2 0xA8F JUMPI PUSH1 0x40 MLOAD PUSH3 0x461BCD PUSH1 0xE5 SHL DUP2 MSTORE PUSH1 0x20 PUSH1 0x4 DUP3 ADD MSTORE PUSH1 0x1E PUSH1 0x24 DUP3 ADD MSTORE PUSH32 0x45524332305065726D69743A20696E76616C6964207369676E61747572650000 PUSH1 0x44 DUP3 ADD MSTORE PUSH1 0x64 ADD PUSH2 0x51E JUMP JUMPDEST PUSH2 0xA9A DUP11 DUP11 DUP11 PUSH2 0xB2A JUMP JUMPDEST POP POP POP POP POP POP POP POP POP POP JUMP JUMPDEST PUSH1 0x40 DUP1 MLOAD DUP1 DUP3 ADD SWAP1 SWAP2 MSTORE PUSH1 0x0 DUP1 DUP3 MSTORE PUSH1 0x20 DUP3 ADD MSTORE PUSH1 0x1 PUSH1 0x1 PUSH1 0xA0 SHL SUB DUP4 AND PUSH1 0x0 SWAP1 DUP2 MSTORE PUSH1 0x7 PUSH1 0x20 MSTORE PUSH1 0x40 SWAP1 KECCAK256 DUP1 SLOAD PUSH4 0xFFFFFFFF DUP5 AND SWAP1 DUP2 LT PUSH2 0xAEA JUMPI PUSH2 0xAEA PUSH2 0x1D50 JUMP JUMPDEST PUSH1 0x0 SWAP2 DUP3 MSTORE PUSH1 0x20 SWAP2 DUP3 SWAP1 KECCAK256 PUSH1 0x40 DUP1 MLOAD DUP1 DUP3 ADD SWAP1 SWAP2 MSTORE SWAP2 ADD SLOAD PUSH4 0xFFFFFFFF DUP2 AND DUP3 MSTORE PUSH5 0x100000000 SWAP1 DIV PUSH1 0x1 PUSH1 0x1 PUSH1 0xE0 SHL SUB AND SWAP2 DUP2 ADD SWAP2 SWAP1 SWAP2 MSTORE SWAP4 SWAP3 POP POP POP JUMP JUMPDEST PUSH1 0x1 PUSH1 0x1 PUSH1 0xA0 SHL SUB DUP4 AND PUSH2 0xB8C JUMPI PUSH1 0x40 MLOAD PUSH3 0x461BCD PUSH1 0xE5 SHL DUP2 MSTORE PUSH1 0x20 PUSH1 0x4 DUP3 ADD MSTORE PUSH1 0x24 DUP1 DUP3 ADD MSTORE PUSH32 0x45524332303A20617070726F76652066726F6D20746865207A65726F20616464 PUSH1 0x44 DUP3 ADD MSTORE PUSH4 0x72657373 PUSH1 0xE0 SHL PUSH1 0x64 DUP3 ADD MSTORE PUSH1 0x84 ADD PUSH2 0x51E JUMP JUMPDEST PUSH1 0x1 PUSH1 0x1 PUSH1 0xA0 SHL SUB DUP3 AND PUSH2 0xBED JUMPI PUSH1 0x40 MLOAD PUSH3 0x461BCD PUSH1 0xE5 SHL DUP2 MSTORE PUSH1 0x20 PUSH1 0x4 DUP3 ADD MSTORE PUSH1 0x22 PUSH1 0x24 DUP3 ADD MSTORE PUSH32 0x45524332303A20617070726F766520746F20746865207A65726F206164647265 PUSH1 0x44 DUP3 ADD MSTORE PUSH2 0x7373 PUSH1 0xF0 SHL PUSH1 0x64 DUP3 ADD MSTORE PUSH1 0x84 ADD PUSH2 0x51E JUMP JUMPDEST PUSH1 0x1 PUSH1 0x1 PUSH1 0xA0 SHL SUB DUP4 DUP2 AND PUSH1 0x0 DUP2 DUP2 MSTORE PUSH1 0x1 PUSH1 0x20 SWAP1 DUP2 MSTORE PUSH1 0x40 DUP1 DUP4 KECCAK256 SWAP5 DUP8 AND DUP1 DUP5 MSTORE SWAP5 DUP3 MSTORE SWAP2 DUP3 SWAP1 KECCAK256 DUP6 SWAP1 SSTORE SWAP1 MLOAD DUP5 DUP2 MSTORE PUSH32 0x8C5BE1E5EBEC7D5BD14F71427D1E84F3DD0314C0F7B2291E5B200AC8C7C3B925 SWAP2 ADD PUSH1 0x40 MLOAD DUP1 SWAP2 SUB SWAP1 LOG3 POP POP POP JUMP JUMPDEST PUSH1 0x1 PUSH1 0x1 PUSH1 0xA0 SHL SUB DUP4 AND PUSH2 0xCB2 JUMPI PUSH1 0x40 MLOAD PUSH3 0x461BCD PUSH1 0xE5 SHL DUP2 MSTORE PUSH1 0x20 PUSH1 0x4 DUP3 ADD MSTORE PUSH1 0x25 PUSH1 0x24 DUP3 ADD MSTORE PUSH32 0x45524332303A207472616E736665722066726F6D20746865207A65726F206164 PUSH1 0x44 DUP3 ADD MSTORE PUSH5 0x6472657373 PUSH1 0xD8 SHL PUSH1 0x64 DUP3 ADD MSTORE PUSH1 0x84 ADD PUSH2 0x51E JUMP JUMPDEST PUSH1 0x1 PUSH1 0x1 PUSH1 0xA0 SHL SUB DUP3 AND PUSH2 0xD14 JUMPI PUSH1 0x40 MLOAD PUSH3 0x461BCD PUSH1 0xE5 SHL DUP2 MSTORE PUSH1 0x20 PUSH1 0x4 DUP3 ADD MSTORE PUSH1 0x23 PUSH1 0x24 DUP3 ADD MSTORE PUSH32 0x45524332303A207472616E7366657220746F20746865207A65726F2061646472 PUSH1 0x44 DUP3 ADD MSTORE PUSH3 0x657373 PUSH1 0xE8 SHL PUSH1 0x64 DUP3 ADD MSTORE PUSH1 0x84 ADD PUSH2 0x51E JUMP JUMPDEST PUSH1 0x1 PUSH1 0x1 PUSH1 0xA0 SHL SUB DUP4 AND PUSH1 0x0 SWAP1 DUP2 MSTORE PUSH1 0x20 DUP2 SWAP1 MSTORE PUSH1 0x40 SWAP1 KECCAK256 SLOAD DUP2 DUP2 LT ISZERO PUSH2 0xD8C JUMPI PUSH1 0x40 MLOAD PUSH3 0x461BCD PUSH1 0xE5 SHL DUP2 MSTORE PUSH1 0x20 PUSH1 0x4 DUP3 ADD MSTORE PUSH1 0x26 PUSH1 0x24 DUP3 ADD MSTORE PUSH32 0x45524332303A207472616E7366657220616D6F756E7420657863656564732062 PUSH1 0x44 DUP3 ADD MSTORE PUSH6 0x616C616E6365 PUSH1 0xD0 SHL PUSH1 0x64 DUP3 ADD MSTORE PUSH1 0x84 ADD PUSH2 0x51E JUMP JUMPDEST PUSH1 0x1 PUSH1 0x1 PUSH1 0xA0 SHL SUB DUP1 DUP6 AND PUSH1 0x0 SWAP1 DUP2 MSTORE PUSH1 0x20 DUP2 SWAP1 MSTORE PUSH1 0x40 DUP1 DUP3 KECCAK256 DUP6 DUP6 SUB SWAP1 SSTORE SWAP2 DUP6 AND DUP2 MSTORE SWAP1 DUP2 KECCAK256 DUP1 SLOAD DUP5 SWAP3 SWAP1 PUSH2 0xDC3 SWAP1 DUP5 SWAP1 PUSH2 0x1D2A JUMP JUMPDEST SWAP3 POP POP DUP2 SWAP1 SSTORE POP DUP3 PUSH1 0x1 PUSH1 0x1 PUSH1 0xA0 SHL SUB AND DUP5 PUSH1 0x1 PUSH1 0x1 PUSH1 0xA0 SHL SUB AND PUSH32 0xDDF252AD1BE2C89B69C2B068FC378DAA952BA7F163C4A11628F55A4DF523B3EF DUP5 PUSH1 0x40 MLOAD PUSH2 0xE0F SWAP2 DUP2 MSTORE PUSH1 0x20 ADD SWAP1 JUMP JUMPDEST PUSH1 0x40 MLOAD DUP1 SWAP2 SUB SWAP1 LOG3 PUSH2 0xE22 DUP5 DUP5 DUP5 PUSH2 0x1233 JUMP JUMPDEST POP POP POP POP JUMP JUMPDEST PUSH1 0x0 ADDRESS PUSH1 0x1 PUSH1 0x1 PUSH1 0xA0 SHL SUB PUSH32 0x0 AND EQ DUP1 ISZERO PUSH2 0xE81 JUMPI POP PUSH32 0x0 CHAINID EQ JUMPDEST ISZERO PUSH2 0xEAB JUMPI POP PUSH32 0x0 SWAP1 JUMP JUMPDEST POP PUSH1 0x40 DUP1 MLOAD PUSH32 0x0 PUSH1 0x20 DUP1 DUP4 ADD SWAP2 SWAP1 SWAP2 MSTORE PUSH32 0x0 DUP3 DUP5 ADD MSTORE PUSH32 0x0 PUSH1 0x60 DUP4 ADD MSTORE CHAINID PUSH1 0x80 DUP4 ADD MSTORE ADDRESS PUSH1 0xA0 DUP1 DUP5 ADD SWAP2 SWAP1 SWAP2 MSTORE DUP4 MLOAD DUP1 DUP5 SUB SWAP1 SWAP2 ADD DUP2 MSTORE PUSH1 0xC0 SWAP1 SWAP3 ADD SWAP1 SWAP3 MSTORE DUP1 MLOAD SWAP2 ADD KECCAK256 SWAP1 JUMP JUMPDEST DUP2 SLOAD PUSH1 0x0 SWAP1 DUP2 JUMPDEST DUP2 DUP2 LT ISZERO PUSH2 0xFB3 JUMPI PUSH1 0x0 PUSH2 0xF6A DUP3 DUP5 PUSH2 0x1265 JUMP JUMPDEST SWAP1 POP DUP5 DUP7 DUP3 DUP2 SLOAD DUP2 LT PUSH2 0xF7F JUMPI PUSH2 0xF7F PUSH2 0x1D50 JUMP JUMPDEST PUSH1 0x0 SWAP2 DUP3 MSTORE PUSH1 0x20 SWAP1 SWAP2 KECCAK256 ADD SLOAD PUSH4 0xFFFFFFFF AND GT ISZERO PUSH2 0xF9F JUMPI DUP1 SWAP3 POP PUSH2 0xFAD JUMP JUMPDEST PUSH2 0xFAA DUP2 PUSH1 0x1 PUSH2 0x1D2A JUMP JUMPDEST SWAP2 POP JUMPDEST POP PUSH2 0xF56 JUMP JUMPDEST DUP2 ISZERO PUSH2 0xFF7 JUMPI DUP5 PUSH2 0xFC5 PUSH1 0x1 DUP5 PUSH2 0x1D3D JUMP JUMPDEST DUP2 SLOAD DUP2 LT PUSH2 0xFD5 JUMPI PUSH2 0xFD5 PUSH2 0x1D50 JUMP JUMPDEST PUSH1 0x0 SWAP2 DUP3 MSTORE PUSH1 0x20 SWAP1 SWAP2 KECCAK256 ADD SLOAD PUSH5 0x100000000 SWAP1 DIV PUSH1 0x1 PUSH1 0x1 PUSH1 0xE0 SHL SUB AND PUSH2 0xFFA JUMP JUMPDEST PUSH1 0x0 JUMPDEST PUSH1 0x1 PUSH1 0x1 PUSH1 0xE0 SHL SUB AND SWAP6 SWAP5 POP POP POP POP POP JUMP JUMPDEST PUSH2 0x1016 DUP3 DUP3 PUSH2 0x1280 JUMP JUMPDEST PUSH1 0x2 SLOAD PUSH1 0x1 PUSH1 0x1 PUSH1 0xE0 SHL SUB LT ISZERO PUSH2 0x1088 JUMPI PUSH1 0x40 MLOAD PUSH3 0x461BCD PUSH1 0xE5 SHL DUP2 MSTORE PUSH1 0x20 PUSH1 0x4 DUP3 ADD MSTORE PUSH1 0x30 PUSH1 0x24 DUP3 ADD MSTORE PUSH32 0x4552433230566F7465733A20746F74616C20737570706C79207269736B73206F PUSH1 0x44 DUP3 ADD MSTORE PUSH16 0x766572666C6F77696E6720766F746573 PUSH1 0x80 SHL PUSH1 0x64 DUP3 ADD MSTORE PUSH1 0x84 ADD PUSH2 0x51E JUMP JUMPDEST PUSH2 0xE22 PUSH1 0x8 PUSH2 0x1367 DUP4 PUSH2 0x1373 JUMP JUMPDEST PUSH1 0x1 PUSH1 0x1 PUSH1 0xA0 SHL SUB DUP3 DUP2 AND PUSH1 0x0 DUP2 DUP2 MSTORE PUSH1 0x6 PUSH1 0x20 DUP2 DUP2 MSTORE PUSH1 0x40 DUP1 DUP5 KECCAK256 DUP1 SLOAD DUP6 DUP5 MSTORE DUP3 DUP7 KECCAK256 SLOAD SWAP5 SWAP1 SWAP4 MSTORE DUP8 DUP8 AND PUSH1 0x1 PUSH1 0x1 PUSH1 0xA0 SHL SUB NOT DUP5 AND DUP2 OR SWAP1 SWAP2 SSTORE SWAP1 MLOAD SWAP2 SWAP1 SWAP6 AND SWAP5 SWAP2 SWAP4 SWAP2 SWAP3 DUP6 SWAP3 SWAP2 PUSH32 0x3134E8A2E6D97E929A7E54011EA5485D7D196DD5F0BA4D4EF95803E8E3FC257F SWAP2 SWAP1 LOG4 PUSH2 0xE22 DUP3 DUP5 DUP4 PUSH2 0x14EC JUMP JUMPDEST PUSH1 0x0 PUSH4 0xFFFFFFFF DUP3 GT ISZERO PUSH2 0x1174 JUMPI PUSH1 0x40 MLOAD PUSH3 0x461BCD PUSH1 0xE5 SHL DUP2 MSTORE PUSH1 0x20 PUSH1 0x4 DUP3 ADD MSTORE PUSH1 0x26 PUSH1 0x24 DUP3 ADD MSTORE PUSH32 0x53616665436173743A2076616C756520646F65736E27742066697420696E2033 PUSH1 0x44 DUP3 ADD MSTORE PUSH6 0x322062697473 PUSH1 0xD0 SHL PUSH1 0x64 DUP3 ADD MSTORE PUSH1 0x84 ADD PUSH2 0x51E JUMP JUMPDEST POP SWAP1 JUMP JUMPDEST PUSH2 0x1182 DUP3 DUP3 PUSH2 0x1629 JUMP JUMPDEST PUSH2 0xE22 PUSH1 0x8 PUSH2 0x177E DUP4 PUSH2 0x1373 JUMP JUMPDEST PUSH1 0x0 PUSH2 0x497 PUSH2 0x119D PUSH2 0xE28 JUMP JUMPDEST DUP4 PUSH1 0x40 MLOAD PUSH2 0x1901 PUSH1 0xF0 SHL PUSH1 0x20 DUP3 ADD MSTORE PUSH1 0x22 DUP2 ADD DUP4 SWAP1 MSTORE PUSH1 0x42 DUP2 ADD DUP3 SWAP1 MSTORE PUSH1 0x0 SWAP1 PUSH1 0x62 ADD PUSH1 0x40 MLOAD PUSH1 0x20 DUP2 DUP4 SUB SUB DUP2 MSTORE SWAP1 PUSH1 0x40 MSTORE DUP1 MLOAD SWAP1 PUSH1 0x20 ADD KECCAK256 SWAP1 POP SWAP3 SWAP2 POP POP JUMP JUMPDEST PUSH1 0x0 DUP1 PUSH1 0x0 PUSH2 0x11EF DUP8 DUP8 DUP8 DUP8 PUSH2 0x178A JUMP JUMPDEST SWAP2 POP SWAP2 POP PUSH2 0x11FC DUP2 PUSH2 0x1877 JUMP JUMPDEST POP SWAP6 SWAP5 POP POP POP POP POP JUMP JUMPDEST PUSH1 0x1 PUSH1 0x1 PUSH1 0xA0 SHL SUB DUP2 AND PUSH1 0x0 SWAP1 DUP2 MSTORE PUSH1 0x5 PUSH1 0x20 MSTORE PUSH1 0x40 SWAP1 KECCAK256 DUP1 SLOAD PUSH1 0x1 DUP2 ADD DUP3 SSTORE SWAP1 JUMPDEST POP SWAP2 SWAP1 POP JUMP JUMPDEST POP POP POP JUMP JUMPDEST PUSH1 0x1 PUSH1 0x1 PUSH1 0xA0 SHL SUB DUP4 DUP2 AND PUSH1 0x0 SWAP1 DUP2 MSTORE PUSH1 0x6 PUSH1 0x20 MSTORE PUSH1 0x40 DUP1 DUP3 KECCAK256 SLOAD DUP6 DUP5 AND DUP4 MSTORE SWAP2 KECCAK256 SLOAD PUSH2 0x122E SWAP3 SWAP2 DUP3 AND SWAP2 AND DUP4 PUSH2 0x14EC JUMP JUMPDEST PUSH1 0x0 PUSH2 0x1274 PUSH1 0x2 DUP5 DUP5 XOR PUSH2 0x1D66 JUMP JUMPDEST PUSH2 0x608 SWAP1 DUP5 DUP5 AND PUSH2 0x1D2A JUMP JUMPDEST PUSH1 0x1 PUSH1 0x1 PUSH1 0xA0 SHL SUB DUP3 AND PUSH2 0x12D6 JUMPI PUSH1 0x40 MLOAD PUSH3 0x461BCD PUSH1 0xE5 SHL DUP2 MSTORE PUSH1 0x20 PUSH1 0x4 DUP3 ADD MSTORE PUSH1 0x1F PUSH1 0x24 DUP3 ADD MSTORE PUSH32 0x45524332303A206D696E7420746F20746865207A65726F206164647265737300 PUSH1 0x44 DUP3 ADD MSTORE PUSH1 0x64 ADD PUSH2 0x51E JUMP JUMPDEST DUP1 PUSH1 0x2 PUSH1 0x0 DUP3 DUP3 SLOAD PUSH2 0x12E8 SWAP2 SWAP1 PUSH2 0x1D2A JUMP JUMPDEST SWAP1 SWAP2 SSTORE POP POP PUSH1 0x1 PUSH1 0x1 PUSH1 0xA0 SHL SUB DUP3 AND PUSH1 0x0 SWAP1 DUP2 MSTORE PUSH1 0x20 DUP2 SWAP1 MSTORE PUSH1 0x40 DUP2 KECCAK256 DUP1 SLOAD DUP4 SWAP3 SWAP1 PUSH2 0x1315 SWAP1 DUP5 SWAP1 PUSH2 0x1D2A JUMP JUMPDEST SWAP1 SWAP2 SSTORE POP POP PUSH1 0x40 MLOAD DUP2 DUP2 MSTORE PUSH1 0x1 PUSH1 0x1 PUSH1 0xA0 SHL SUB DUP4 AND SWAP1 PUSH1 0x0 SWAP1 PUSH32 0xDDF252AD1BE2C89B69C2B068FC378DAA952BA7F163C4A11628F55A4DF523B3EF SWAP1 PUSH1 0x20 ADD PUSH1 0x40 MLOAD DUP1 SWAP2 SUB SWAP1 LOG3 PUSH2 0x619 PUSH1 0x0 DUP4 DUP4 PUSH2 0x1233 JUMP JUMPDEST PUSH1 0x0 PUSH2 0x608 DUP3 DUP5 PUSH2 0x1D2A JUMP JUMPDEST DUP3 SLOAD PUSH1 0x0 SWAP1 DUP2 SWAP1 DUP1 ISZERO PUSH2 0x13BE JUMPI DUP6 PUSH2 0x138C PUSH1 0x1 DUP4 PUSH2 0x1D3D JUMP JUMPDEST DUP2 SLOAD DUP2 LT PUSH2 0x139C JUMPI PUSH2 0x139C PUSH2 0x1D50 JUMP JUMPDEST PUSH1 0x0 SWAP2 DUP3 MSTORE PUSH1 0x20 SWAP1 SWAP2 KECCAK256 ADD SLOAD PUSH5 0x100000000 SWAP1 DIV PUSH1 0x1 PUSH1 0x1 PUSH1 0xE0 SHL SUB AND PUSH2 0x13C1 JUMP JUMPDEST PUSH1 0x0 JUMPDEST PUSH1 0x1 PUSH1 0x1 PUSH1 0xE0 SHL SUB AND SWAP3 POP PUSH2 0x13DA DUP4 DUP6 DUP8 PUSH4 0xFFFFFFFF AND JUMP JUMPDEST SWAP2 POP PUSH1 0x0 DUP2 GT DUP1 ISZERO PUSH2 0x1418 JUMPI POP NUMBER DUP7 PUSH2 0x13F4 PUSH1 0x1 DUP5 PUSH2 0x1D3D JUMP JUMPDEST DUP2 SLOAD DUP2 LT PUSH2 0x1404 JUMPI PUSH2 0x1404 PUSH2 0x1D50 JUMP JUMPDEST PUSH1 0x0 SWAP2 DUP3 MSTORE PUSH1 0x20 SWAP1 SWAP2 KECCAK256 ADD SLOAD PUSH4 0xFFFFFFFF AND EQ JUMPDEST ISZERO PUSH2 0x1478 JUMPI PUSH2 0x1426 DUP3 PUSH2 0x1A2D JUMP JUMPDEST DUP7 PUSH2 0x1432 PUSH1 0x1 DUP5 PUSH2 0x1D3D JUMP JUMPDEST DUP2 SLOAD DUP2 LT PUSH2 0x1442 JUMPI PUSH2 0x1442 PUSH2 0x1D50 JUMP JUMPDEST SWAP1 PUSH1 0x0 MSTORE PUSH1 0x20 PUSH1 0x0 KECCAK256 ADD PUSH1 0x0 ADD PUSH1 0x4 PUSH2 0x100 EXP DUP2 SLOAD DUP2 PUSH1 0x1 PUSH1 0x1 PUSH1 0xE0 SHL SUB MUL NOT AND SWAP1 DUP4 PUSH1 0x1 PUSH1 0x1 PUSH1 0xE0 SHL SUB AND MUL OR SWAP1 SSTORE POP PUSH2 0x14E3 JUMP JUMPDEST DUP6 PUSH1 0x40 MLOAD DUP1 PUSH1 0x40 ADD PUSH1 0x40 MSTORE DUP1 PUSH2 0x148D NUMBER PUSH2 0x110F JUMP JUMPDEST PUSH4 0xFFFFFFFF AND DUP2 MSTORE PUSH1 0x20 ADD PUSH2 0x14A1 DUP6 PUSH2 0x1A2D JUMP JUMPDEST PUSH1 0x1 PUSH1 0x1 PUSH1 0xE0 SHL SUB SWAP1 DUP2 AND SWAP1 SWAP2 MSTORE DUP3 SLOAD PUSH1 0x1 DUP2 ADD DUP5 SSTORE PUSH1 0x0 SWAP4 DUP5 MSTORE PUSH1 0x20 SWAP4 DUP5 SWAP1 KECCAK256 DUP4 MLOAD SWAP5 SWAP1 SWAP4 ADD MLOAD SWAP1 SWAP2 AND PUSH5 0x100000000 MUL PUSH4 0xFFFFFFFF SWAP1 SWAP4 AND SWAP3 SWAP1 SWAP3 OR SWAP2 ADD SSTORE JUMPDEST POP SWAP4 POP SWAP4 SWAP2 POP POP JUMP JUMPDEST DUP2 PUSH1 0x1 PUSH1 0x1 PUSH1 0xA0 SHL SUB AND DUP4 PUSH1 0x1 PUSH1 0x1 PUSH1 0xA0 SHL SUB AND EQ ISZERO DUP1 ISZERO PUSH2 0x150E JUMPI POP PUSH1 0x0 DUP2 GT JUMPDEST ISZERO PUSH2 0x122E JUMPI PUSH1 0x1 PUSH1 0x1 PUSH1 0xA0 SHL SUB DUP4 AND ISZERO PUSH2 0x159C JUMPI PUSH1 0x1 PUSH1 0x1 PUSH1 0xA0 SHL SUB DUP4 AND PUSH1 0x0 SWAP1 DUP2 MSTORE PUSH1 0x7 PUSH1 0x20 MSTORE PUSH1 0x40 DUP2 KECCAK256 DUP2 SWAP1 PUSH2 0x1549 SWAP1 PUSH2 0x177E DUP6 PUSH2 0x1373 JUMP JUMPDEST SWAP2 POP SWAP2 POP DUP5 PUSH1 0x1 PUSH1 0x1 PUSH1 0xA0 SHL SUB AND PUSH32 0xDEC2BACDD2F05B59DE34DA9B523DFF8BE42E5E38E818C82FDB0BAE774387A724 DUP4 DUP4 PUSH1 0x40 MLOAD PUSH2 0x1591 SWAP3 SWAP2 SWAP1 SWAP2 DUP3 MSTORE PUSH1 0x20 DUP3 ADD MSTORE PUSH1 0x40 ADD SWAP1 JUMP JUMPDEST PUSH1 0x40 MLOAD DUP1 SWAP2 SUB SWAP1 LOG2 POP POP JUMPDEST PUSH1 0x1 PUSH1 0x1 PUSH1 0xA0 SHL SUB DUP3 AND ISZERO PUSH2 0x122E JUMPI PUSH1 0x1 PUSH1 0x1 PUSH1 0xA0 SHL SUB DUP3 AND PUSH1 0x0 SWAP1 DUP2 MSTORE PUSH1 0x7 PUSH1 0x20 MSTORE PUSH1 0x40 DUP2 KECCAK256 DUP2 SWAP1 PUSH2 0x15D2 SWAP1 PUSH2 0x1367 DUP6 PUSH2 0x1373 JUMP JUMPDEST SWAP2 POP SWAP2 POP DUP4 PUSH1 0x1 PUSH1 0x1 PUSH1 0xA0 SHL SUB AND PUSH32 0xDEC2BACDD2F05B59DE34DA9B523DFF8BE42E5E38E818C82FDB0BAE774387A724 DUP4 DUP4 PUSH1 0x40 MLOAD PUSH2 0x161A SWAP3 SWAP2 SWAP1 SWAP2 DUP3 MSTORE PUSH1 0x20 DUP3 ADD MSTORE PUSH1 0x40 ADD SWAP1 JUMP JUMPDEST PUSH1 0x40 MLOAD DUP1 SWAP2 SUB SWAP1 LOG2 POP POP POP POP POP JUMP JUMPDEST PUSH1 0x1 PUSH1 0x1 PUSH1 0xA0 SHL SUB DUP3 AND PUSH2 0x1689 JUMPI PUSH1 0x40 MLOAD PUSH3 0x461BCD PUSH1 0xE5 SHL DUP2 MSTORE PUSH1 0x20 PUSH1 0x4 DUP3 ADD MSTORE PUSH1 0x21 PUSH1 0x24 DUP3 ADD MSTORE PUSH32 0x45524332303A206275726E2066726F6D20746865207A65726F20616464726573 PUSH1 0x44 DUP3 ADD MSTORE PUSH1 0x73 PUSH1 0xF8 SHL PUSH1 0x64 DUP3 ADD MSTORE PUSH1 0x84 ADD PUSH2 0x51E JUMP JUMPDEST PUSH1 0x1 PUSH1 0x1 PUSH1 0xA0 SHL SUB DUP3 AND PUSH1 0x0 SWAP1 DUP2 MSTORE PUSH1 0x20 DUP2 SWAP1 MSTORE PUSH1 0x40 SWAP1 KECCAK256 SLOAD DUP2 DUP2 LT ISZERO PUSH2 0x16FD JUMPI PUSH1 0x40 MLOAD PUSH3 0x461BCD PUSH1 0xE5 SHL DUP2 MSTORE PUSH1 0x20 PUSH1 0x4 DUP3 ADD MSTORE PUSH1 0x22 PUSH1 0x24 DUP3 ADD MSTORE PUSH32 0x45524332303A206275726E20616D6F756E7420657863656564732062616C616E PUSH1 0x44 DUP3 ADD MSTORE PUSH2 0x6365 PUSH1 0xF0 SHL PUSH1 0x64 DUP3 ADD MSTORE PUSH1 0x84 ADD PUSH2 0x51E JUMP JUMPDEST PUSH1 0x1 PUSH1 0x1 PUSH1 0xA0 SHL SUB DUP4 AND PUSH1 0x0 SWAP1 DUP2 MSTORE PUSH1 0x20 DUP2 SWAP1 MSTORE PUSH1 0x40 DUP2 KECCAK256 DUP4 DUP4 SUB SWAP1 SSTORE PUSH1 0x2 DUP1 SLOAD DUP5 SWAP3 SWAP1 PUSH2 0x172C SWAP1 DUP5 SWAP1 PUSH2 0x1D3D JUMP JUMPDEST SWAP1 SWAP2 SSTORE POP POP PUSH1 0x40 MLOAD DUP3 DUP2 MSTORE PUSH1 0x0 SWAP1 PUSH1 0x1 PUSH1 0x1 PUSH1 0xA0 SHL SUB DUP6 AND SWAP1 PUSH32 0xDDF252AD1BE2C89B69C2B068FC378DAA952BA7F163C4A11628F55A4DF523B3EF SWAP1 PUSH1 0x20 ADD PUSH1 0x40 MLOAD DUP1 SWAP2 SUB SWAP1 LOG3 PUSH2 0x122E DUP4 PUSH1 0x0 DUP5 PUSH2 0x1233 JUMP JUMPDEST PUSH1 0x0 PUSH2 0x608 DUP3 DUP5 PUSH2 0x1D3D JUMP JUMPDEST PUSH1 0x0 DUP1 PUSH32 0x7FFFFFFFFFFFFFFFFFFFFFFFFFFFFFFF5D576E7357A4501DDFE92F46681B20A0 DUP4 GT ISZERO PUSH2 0x17C1 JUMPI POP PUSH1 0x0 SWAP1 POP PUSH1 0x3 PUSH2 0x186E JUMP JUMPDEST DUP5 PUSH1 0xFF AND PUSH1 0x1B EQ ISZERO DUP1 ISZERO PUSH2 0x17D9 JUMPI POP DUP5 PUSH1 0xFF AND PUSH1 0x1C EQ ISZERO JUMPDEST ISZERO PUSH2 0x17EA JUMPI POP PUSH1 0x0 SWAP1 POP PUSH1 0x4 PUSH2 0x186E JUMP JUMPDEST PUSH1 0x40 DUP1 MLOAD PUSH1 0x0 DUP1 DUP3 MSTORE PUSH1 0x20 DUP3 ADD DUP1 DUP5 MSTORE DUP10 SWAP1 MSTORE PUSH1 0xFF DUP9 AND SWAP3 DUP3 ADD SWAP3 SWAP1 SWAP3 MSTORE PUSH1 0x60 DUP2 ADD DUP7 SWAP1 MSTORE PUSH1 0x80 DUP2 ADD DUP6 SWAP1 MSTORE PUSH1 0x1 SWAP1 PUSH1 0xA0 ADD PUSH1 0x20 PUSH1 0x40 MLOAD PUSH1 0x20 DUP2 SUB SWAP1 DUP1 DUP5 SUB SWAP1 DUP6 GAS STATICCALL ISZERO DUP1 ISZERO PUSH2 0x183E JUMPI RETURNDATASIZE PUSH1 0x0 DUP1 RETURNDATACOPY RETURNDATASIZE PUSH1 0x0 REVERT JUMPDEST POP POP PUSH1 0x40 MLOAD PUSH1 0x1F NOT ADD MLOAD SWAP2 POP POP PUSH1 0x1 PUSH1 0x1 PUSH1 0xA0 SHL SUB DUP2 AND PUSH2 0x1867 JUMPI PUSH1 0x0 PUSH1 0x1 SWAP3 POP SWAP3 POP POP PUSH2 0x186E JUMP JUMPDEST SWAP2 POP PUSH1 0x0 SWAP1 POP JUMPDEST SWAP5 POP SWAP5 SWAP3 POP POP POP JUMP JUMPDEST PUSH1 0x0 DUP2 PUSH1 0x4 DUP2 GT ISZERO PUSH2 0x188B JUMPI PUSH2 0x188B PUSH2 0x1D88 JUMP JUMPDEST SUB PUSH2 0x1893 JUMPI POP JUMP JUMPDEST PUSH1 0x1 DUP2 PUSH1 0x4 DUP2 GT ISZERO PUSH2 0x18A7 JUMPI PUSH2 0x18A7 PUSH2 0x1D88 JUMP JUMPDEST SUB PUSH2 0x18F4 JUMPI PUSH1 0x40 MLOAD PUSH3 0x461BCD PUSH1 0xE5 SHL DUP2 MSTORE PUSH1 0x20 PUSH1 0x4 DUP3 ADD MSTORE PUSH1 0x18 PUSH1 0x24 DUP3 ADD MSTORE PUSH32 0x45434453413A20696E76616C6964207369676E61747572650000000000000000 PUSH1 0x44 DUP3 ADD MSTORE PUSH1 0x64 ADD PUSH2 0x51E JUMP JUMPDEST PUSH1 0x2 DUP2 PUSH1 0x4 DUP2 GT ISZERO PUSH2 0x1908 JUMPI PUSH2 0x1908 PUSH2 0x1D88 JUMP JUMPDEST SUB PUSH2 0x1955 JUMPI PUSH1 0x40 MLOAD PUSH3 0x461BCD PUSH1 0xE5 SHL DUP2 MSTORE PUSH1 0x20 PUSH1 0x4 DUP3 ADD MSTORE PUSH1 0x1F PUSH1 0x24 DUP3 ADD MSTORE PUSH32 0x45434453413A20696E76616C6964207369676E6174757265206C656E67746800 PUSH1 0x44 DUP3 ADD MSTORE PUSH1 0x64 ADD PUSH2 0x51E JUMP JUMPDEST PUSH1 0x3 DUP2 PUSH1 0x4 DUP2 GT ISZERO PUSH2 0x1969 JUMPI PUSH2 0x1969 PUSH2 0x1D88 JUMP JUMPDEST SUB PUSH2 0x19C1 JUMPI PUSH1 0x40 MLOAD PUSH3 0x461BCD PUSH1 0xE5 SHL DUP2 MSTORE PUSH1 0x20 PUSH1 0x4 DUP3 ADD MSTORE PUSH1 0x22 PUSH1 0x24 DUP3 ADD MSTORE PUSH32 0x45434453413A20696E76616C6964207369676E6174757265202773272076616C PUSH1 0x44 DUP3 ADD MSTORE PUSH2 0x7565 PUSH1 0xF0 SHL PUSH1 0x64 DUP3 ADD MSTORE PUSH1 0x84 ADD PUSH2 0x51E JUMP JUMPDEST PUSH1 0x4 DUP2 PUSH1 0x4 DUP2 GT ISZERO PUSH2 0x19D5 JUMPI PUSH2 0x19D5 PUSH2 0x1D88 JUMP JUMPDEST SUB PUSH2 0x627 JUMPI PUSH1 0x40 MLOAD PUSH3 0x461BCD PUSH1 0xE5 SHL DUP2 MSTORE PUSH1 0x20 PUSH1 0x4 DUP3 ADD MSTORE PUSH1 0x22 PUSH1 0x24 DUP3 ADD MSTORE PUSH32 0x45434453413A20696E76616C6964207369676E6174757265202776272076616C PUSH1 0x44 DUP3 ADD MSTORE PUSH2 0x7565 PUSH1 0xF0 SHL PUSH1 0x64 DUP3 ADD MSTORE PUSH1 0x84 ADD PUSH2 0x51E JUMP JUMPDEST PUSH1 0x0 PUSH1 0x1 PUSH1 0x1 PUSH1 0xE0 SHL SUB DUP3 GT ISZERO PUSH2 0x1174 JUMPI PUSH1 0x40 MLOAD PUSH3 0x461BCD PUSH1 0xE5 SHL DUP2 MSTORE PUSH1 0x20 PUSH1 0x4 DUP3 ADD MSTORE PUSH1 0x27 PUSH1 0x24 DUP3 ADD MSTORE PUSH32 0x53616665436173743A2076616C756520646F65736E27742066697420696E2032 PUSH1 0x44 DUP3 ADD MSTORE PUSH7 0x32342062697473 PUSH1 0xC8 SHL PUSH1 0x64 DUP3 ADD MSTORE PUSH1 0x84 ADD PUSH2 0x51E JUMP JUMPDEST PUSH1 0x0 PUSH1 0x20 DUP1 DUP4 MSTORE DUP4 MLOAD DUP1 DUP3 DUP6 ADD MSTORE PUSH1 0x0 JUMPDEST DUP2 DUP2 LT ISZERO PUSH2 0x1AC3 JUMPI DUP6 DUP2 ADD DUP4 ADD MLOAD DUP6 DUP3 ADD PUSH1 0x40 ADD MSTORE DUP3 ADD PUSH2 0x1AA7 JUMP JUMPDEST POP PUSH1 0x0 PUSH1 0x40 DUP3 DUP7 ADD ADD MSTORE PUSH1 0x40 PUSH1 0x1F NOT PUSH1 0x1F DUP4 ADD AND DUP6 ADD ADD SWAP3 POP POP POP SWAP3 SWAP2 POP POP JUMP JUMPDEST DUP1 CALLDATALOAD PUSH1 0x1 PUSH1 0x1 PUSH1 0xA0 SHL SUB DUP2 AND DUP2 EQ PUSH2 0x1AFB JUMPI PUSH1 0x0 DUP1 REVERT JUMPDEST SWAP2 SWAP1 POP JUMP JUMPDEST PUSH1 0x0 DUP1 PUSH1 0x40 DUP4 DUP6 SUB SLT ISZERO PUSH2 0x1B13 JUMPI PUSH1 0x0 DUP1 REVERT JUMPDEST PUSH2 0x1B1C DUP4 PUSH2 0x1AE4 JUMP JUMPDEST SWAP5 PUSH1 0x20 SWAP4 SWAP1 SWAP4 ADD CALLDATALOAD SWAP4 POP POP POP JUMP JUMPDEST PUSH1 0x0 DUP1 PUSH1 0x0 PUSH1 0x60 DUP5 DUP7 SUB SLT ISZERO PUSH2 0x1B3F JUMPI PUSH1 0x0 DUP1 REVERT JUMPDEST PUSH2 0x1B48 DUP5 PUSH2 0x1AE4 JUMP JUMPDEST SWAP3 POP PUSH2 0x1B56 PUSH1 0x20 DUP6 ADD PUSH2 0x1AE4 JUMP JUMPDEST SWAP2 POP PUSH1 0x40 DUP5 ADD CALLDATALOAD SWAP1 POP SWAP3 POP SWAP3 POP SWAP3 JUMP JUMPDEST PUSH1 0x0 PUSH1 0x20 DUP3 DUP5 SUB SLT ISZERO PUSH2 0x1B78 JUMPI PUSH1 0x0 DUP1 REVERT JUMPDEST PUSH2 0x608 DUP3 PUSH2 0x1AE4 JUMP JUMPDEST PUSH1 0x0 PUSH1 0x20 DUP3 DUP5 SUB SLT ISZERO PUSH2 0x1B93 JUMPI PUSH1 0x0 DUP1 REVERT JUMPDEST POP CALLDATALOAD SWAP2 SWAP1 POP JUMP JUMPDEST DUP1 CALLDATALOAD PUSH1 0xFF DUP2 AND DUP2 EQ PUSH2 0x1AFB JUMPI PUSH1 0x0 DUP1 REVERT JUMPDEST PUSH1 0x0 DUP1 PUSH1 0x0 DUP1 PUSH1 0x0 DUP1 PUSH1 0xC0 DUP8 DUP10 SUB SLT ISZERO PUSH2 0x1BC4 JUMPI PUSH1 0x0 DUP1 REVERT JUMPDEST PUSH2 0x1BCD DUP8 PUSH2 0x1AE4 JUMP JUMPDEST SWAP6 POP PUSH1 0x20 DUP8 ADD CALLDATALOAD SWAP5 POP PUSH1 0x40 DUP8 ADD CALLDATALOAD SWAP4 POP PUSH2 0x1BE9 PUSH1 0x60 DUP9 ADD PUSH2 0x1B9A JUMP JUMPDEST SWAP3 POP PUSH1 0x80 DUP8 ADD CALLDATALOAD SWAP2 POP PUSH1 0xA0 DUP8 ADD CALLDATALOAD SWAP1 POP SWAP3 SWAP6 POP SWAP3 SWAP6 POP SWAP3 SWAP6 JUMP JUMPDEST PUSH1 0x0 DUP1 PUSH1 0x0 DUP1 PUSH1 0x0 DUP1 PUSH1 0x0 PUSH1 0xE0 DUP9 DUP11 SUB SLT ISZERO PUSH2 0x1C1E JUMPI PUSH1 0x0 DUP1 REVERT JUMPDEST PUSH2 0x1C27 DUP9 PUSH2 0x1AE4 JUMP JUMPDEST SWAP7 POP PUSH2 0x1C35 PUSH1 0x20 DUP10 ADD PUSH2 0x1AE4 JUMP JUMPDEST SWAP6 POP PUSH1 0x40 DUP9 ADD CALLDATALOAD SWAP5 POP PUSH1 0x60 DUP9 ADD CALLDATALOAD SWAP4 POP PUSH2 0x1C51 PUSH1 0x80 DUP10 ADD PUSH2 0x1B9A JUMP JUMPDEST SWAP3 POP PUSH1 0xA0 DUP9 ADD CALLDATALOAD SWAP2 POP PUSH1 0xC0 DUP9 ADD CALLDATALOAD SWAP1 POP SWAP3 SWAP6 SWAP9 SWAP2 SWAP5 SWAP8 POP SWAP3 SWAP6 POP JUMP JUMPDEST PUSH1 0x0 DUP1 PUSH1 0x40 DUP4 DUP6 SUB SLT ISZERO PUSH2 0x1C80 JUMPI PUSH1 0x0 DUP1 REVERT JUMPDEST PUSH2 0x1C89 DUP4 PUSH2 0x1AE4 JUMP JUMPDEST SWAP2 POP PUSH2 0x1C97 PUSH1 0x20 DUP5 ADD PUSH2 0x1AE4 JUMP JUMPDEST SWAP1 POP SWAP3 POP SWAP3 SWAP1 POP JUMP JUMPDEST PUSH1 0x0 DUP1 PUSH1 0x40 DUP4 DUP6 SUB SLT ISZERO PUSH2 0x1CB3 JUMPI PUSH1 0x0 DUP1 REVERT JUMPDEST PUSH2 0x1CBC DUP4 PUSH2 0x1AE4 JUMP JUMPDEST SWAP2 POP PUSH1 0x20 DUP4 ADD CALLDATALOAD PUSH4 0xFFFFFFFF DUP2 AND DUP2 EQ PUSH2 0x1CD5 JUMPI PUSH1 0x0 DUP1 REVERT JUMPDEST DUP1 SWAP2 POP POP SWAP3 POP SWAP3 SWAP1 POP JUMP JUMPDEST PUSH1 0x1 DUP2 DUP2 SHR SWAP1 DUP3 AND DUP1 PUSH2 0x1CF4 JUMPI PUSH1 0x7F DUP3 AND SWAP2 POP JUMPDEST PUSH1 0x20 DUP3 LT DUP2 SUB PUSH2 0x1228 JUMPI PUSH4 0x4E487B71 PUSH1 0xE0 SHL PUSH1 0x0 MSTORE PUSH1 0x22 PUSH1 0x4 MSTORE PUSH1 0x24 PUSH1 0x0 REVERT JUMPDEST PUSH4 0x4E487B71 PUSH1 0xE0 SHL PUSH1 0x0 MSTORE PUSH1 0x11 PUSH1 0x4 MSTORE PUSH1 0x24 PUSH1 0x0 REVERT JUMPDEST DUP1 DUP3 ADD DUP1 DUP3 GT ISZERO PUSH2 0x497 JUMPI PUSH2 0x497 PUSH2 0x1D14 JUMP JUMPDEST DUP2 DUP2 SUB DUP2 DUP2 GT ISZERO PUSH2 0x497 JUMPI PUSH2 0x497 PUSH2 0x1D14 JUMP JUMPDEST PUSH4 0x4E487B71 PUSH1 0xE0 SHL PUSH1 0x0 MSTORE PUSH1 0x32 PUSH1 0x4 MSTORE PUSH1 0x24 PUSH1 0x0 REVERT JUMPDEST PUSH1 0x0 DUP3 PUSH2 0x1D83 JUMPI PUSH4 0x4E487B71 PUSH1 0xE0 SHL PUSH1 0x0 MSTORE PUSH1 0x12 PUSH1 0x4 MSTORE PUSH1 0x24 PUSH1 0x0 REVERT JUMPDEST POP DIV SWAP1 JUMP JUMPDEST PUSH4 0x4E487B71 PUSH1 0xE0 SHL PUSH1 0x0 MSTORE PUSH1 0x21 PUSH1 0x4 MSTORE PUSH1 0x24 PUSH1 0x0 REVERT INVALID LOG2 PUSH5 0x6970667358 0x22 SLT KECCAK256 0xB3 EXTCODESIZE 0x22 0xAF SHL 0xC0 0x49 0x22 0xA6 EXTCODEHASH EXTCODECOPY 0xF8 0xF7 SWAP3 PUSH27 0xB988AF60637136914F81932863F231791B64736F6C634300081500 CALLER ",
  "sha1": "8fb842b2f07f2a17087295e11cf808a73555cc36",
  "source": "// SPDX-License-Identifier: MIT\n\npragma solidity ^0.8.0;\n\nimport \"../token/ERC20/extensions/ERC20Votes.sol\";\n\ncontract ERC20VotesMock is ERC20Votes {\n    constructor(string memory name, string memory symbol) ERC20(name, symbol) ERC20Permit(name) {}\n\n    function mint(address account, uint256 amount) public {\n        _mint(account, amount);\n    }\n\n    function burn(address account, uint256 amount) public {\n        _burn(account, amount);\n    }\n\n    function getChainId() external view returns (uint256) {\n        return block.chainid;\n    }\n}\n",
  "sourcePath": "contracts/openzeppelin-solidity/contracts/mocks/ERC20VotesMock.sol",
  "type": "contract"
}