{
  "abi": [
    {
      "inputs": [
        {
          "internalType": "address",
          "name": "owner",
          "type": "address"
        },
        {
          "internalType": "address",
          "name": "",
          "type": "address"
        }
      ],
      "name": "allowance",
      "outputs": [
        {
          "internalType": "uint256",
          "name": "",
          "type": "uint256"
        }
      ],
      "stateMutability": "view",
      "type": "function"
    },
    {
      "inputs": [
        {
          "internalType": "address",
          "name": "",
          "type": "address"
        },
        {
          "internalType": "uint256",
          "name": "",
          "type": "uint256"
        }
      ],
      "name": "approve",
      "outputs": [],
      "stateMutability": "nonpayable",
      "type": "function"
    },
    {
      "inputs": [
        {
          "internalType": "uint256",
          "name": "allowance_",
          "type": "uint256"
        }
      ],
      "name": "setAllowance",
      "outputs": [],
      "stateMutability": "nonpayable",
      "type": "function"
    },
    {
      "inputs": [
        {
          "internalType": "address",
          "name": "",
          "type": "address"
        },
        {
          "internalType": "uint256",
          "name": "",
          "type": "uint256"
        }
      ],
      "name": "transfer",
      "outputs": [],
      "stateMutability": "nonpayable",
      "type": "function"
    },
    {
      "inputs": [
        {
          "internalType": "address",
          "name": "",
          "type": "address"
        },
        {
          "internalType": "address",
          "name": "",
          "type": "address"
        },
        {
          "internalType": "uint256",
          "name": "",
          "type": "uint256"
        }
      ],
      "name": "transferFrom",
      "outputs": [],
      "stateMutability": "nonpayable",
      "type": "function"
    }
  ],
  "bytecode": "608060405234801561001057600080fd5b506101ed806100206000396000f3fe608060405234801561001057600080fd5b50600436106100575760003560e01c8063095ea7b31461005c57806323b872dd146100755780633ba93f261461008d578063a9059cbb1461005c578063dd62ed3e146100ad575b600080fd5b61007361006a366004610105565b50506000600155565b005b61007361008336600461012f565b5050600060015550565b61007361009b36600461016b565b33600090815260208190526040902055565b6100d76100bb366004610184565b506001600160a01b031660009081526020819052604090205490565b60405190815260200160405180910390f35b80356001600160a01b038116811461010057600080fd5b919050565b6000806040838503121561011857600080fd5b610121836100e9565b946020939093013593505050565b60008060006060848603121561014457600080fd5b61014d846100e9565b925061015b602085016100e9565b9150604084013590509250925092565b60006020828403121561017d57600080fd5b5035919050565b6000806040838503121561019757600080fd5b6101a0836100e9565b91506101ae602084016100e9565b9050925092905056fea26469706673582212204545a4074dcfd781f3655312440b7b8d46b417331f5a953cb6b2500d2fcb310364736f6c63430008150033",
  "bytecodeSha1": "50a9f47eb72a0e0b1d02f7dbb26432d94c874c6f",
  "compiler": {
    "evm_version": "istanbul",
    "optimizer": {
      "enabled": true,
      "runs": 200
    },
    "version": "0.8.21+commit.d9974bed"
  },
  "contractName": "ERC20NoReturnMock",
  "language": "Solidity",
  "natspec": {
    "kind": "dev",
    "methods": {},
    "version": 1
  },
  "opcodes": "PUSH1 0x80 PUSH1 0x40 MSTORE CALLVALUE DUP1 ISZERO PUSH2 0x10 JUMPI PUSH1 0x0 DUP1 REVERT JUMPDEST POP PUSH1 0x4 CALLDATASIZE LT PUSH2 0x57 JUMPI PUSH1 0x0 CALLDATALOAD PUSH1 0xE0 SHR DUP1 PUSH4 0x95EA7B3 EQ PUSH2 0x5C JUMPI DUP1 PUSH4 0x23B872DD EQ PUSH2 0x75 JUMPI DUP1 PUSH4 0x3BA93F26 EQ PUSH2 0x8D JUMPI DUP1 PUSH4 0xA9059CBB EQ PUSH2 0x5C JUMPI DUP1 PUSH4 0xDD62ED3E EQ PUSH2 0xAD JUMPI JUMPDEST PUSH1 0x0 DUP1 REVERT JUMPDEST PUSH2 0x73 PUSH2 0x6A CALLDATASIZE PUSH1 0x4 PUSH2 0x105 JUMP JUMPDEST POP POP PUSH1 0x0 PUSH1 0x1 SSTORE JUMP JUMPDEST STOP JUMPDEST PUSH2 0x73 PUSH2 0x83 CALLDATASIZE PUSH1 0x4 PUSH2 0x12F JUMP JUMPDEST POP POP PUSH1 0x0 PUSH1 0x1 SSTORE POP JUMP JUMPDEST PUSH2 0x73 PUSH2 0x9B CALLDATASIZE PUSH1 0x4 PUSH2 0x16B JUMP JUMPDEST CALLER PUSH1 0x0 SWAP1 DUP2 MSTORE PUSH1 0x20 DUP2 SWAP1 MSTORE PUSH1 0x40 SWAP1 KECCAK256 SSTORE JUMP JUMPDEST PUSH2 0xD7 PUSH2 0xBB CALLDATASIZE PUSH1 0x4 PUSH2 0x184 JUMP JUMPDEST POP PUSH1 0x1 PUSH1 0x1 PUSH1 0xA0 SHL SUB AND PUSH1 0x0 SWAP1 DUP2 MSTORE PUSH1 0x20 DUP2 SWAP1 MSTORE PUSH1 0x40 SWAP1 KECCAK256 SLOAD SWAP1 JUMP JUMPDEST PUSH1 0x40 MLOAD SWAP1 DUP2 MSTORE PUSH1 0x20 ADD PUSH1 0x40 MLOAD DUP1 SWAP2 SUB SWAP1 RETURN JUMPDEST DUP1 CALLDATALOAD PUSH1 0x1 PUSH1 0x1 PUSH1 0xA0 SHL SUB DUP2 AND DUP2 EQ PUSH2 0x100 JUMPI PUSH1 0x0 DUP1 REVERT JUMPDEST SWAP2 SWAP1 POP JUMP JUMPDEST PUSH1 0x0 DUP1 PUSH1 0x40 DUP4 DUP6 SUB SLT ISZERO PUSH2 0x118 JUMPI PUSH1 0x0 DUP1 REVERT JUMPDEST PUSH2 0x121 DUP4 PUSH2 0xE9 JUMP JUMPDEST SWAP5 PUSH1 0x20 SWAP4 SWAP1 SWAP4 ADD CALLDATALOAD SWAP4 POP POP POP JUMP JUMPDEST PUSH1 0x0 DUP1 PUSH1 0x0 PUSH1 0x60 DUP5 DUP7 SUB SLT ISZERO PUSH2 0x144 JUMPI PUSH1 0x0 DUP1 REVERT JUMPDEST PUSH2 0x14D DUP5 PUSH2 0xE9 JUMP JUMPDEST SWAP3 POP PUSH2 0x15B PUSH1 0x20 DUP6 ADD PUSH2 0xE9 JUMP JUMPDEST SWAP2 POP PUSH1 0x40 DUP5 ADD CALLDATALOAD SWAP1 POP SWAP3 POP SWAP3 POP SWAP3 JUMP JUMPDEST PUSH1 0x0 PUSH1 0x20 DUP3 DUP5 SUB SLT ISZERO PUSH2 0x17D JUMPI PUSH1 0x0 DUP1 REVERT JUMPDEST POP CALLDATALOAD SWAP2 SWAP1 POP JUMP JUMPDEST PUSH1 0x0 DUP1 PUSH1 0x40 DUP4 DUP6 SUB SLT ISZERO PUSH2 0x197 JUMPI PUSH1 0x0 DUP1 REVERT JUMPDEST PUSH2 0x1A0 DUP4 PUSH2 0xE9 JUMP JUMPDEST SWAP2 POP PUSH2 0x1AE PUSH1 0x20 DUP5 ADD PUSH2 0xE9 JUMP JUMPDEST SWAP1 POP SWAP3 POP SWAP3 SWAP1 POP JUMP INVALID LOG2 PUSH5 0x6970667358 0x22 SLT KECCAK256 GASLIMIT GASLIMIT LOG4 SMOD 0x4D 0xCF 0xD7 DUP2 RETURN PUSH6 0x5312440B7B8D CHAINID 0xB4 OR CALLER 0x1F GAS SWAP6 EXTCODECOPY 0xB6 0xB2 POP 0xD 0x2F 0xCB BALANCE SUB PUSH5 0x736F6C6343 STOP ADDMOD ISZERO STOP CALLER ",
  "sha1": "dc9c33b8eed240f365402b168184d82d2c212533",
  "source": "// SPDX-License-Identifier: MIT\n\npragma solidity ^0.8.0;\n\nimport \"../utils/Context.sol\";\nimport \"../token/ERC20/IERC20.sol\";\nimport \"../token/ERC20/utils/SafeERC20.sol\";\n\ncontract ERC20ReturnFalseMock is Context {\n    uint256 private _allowance;\n\n    // IERC20's functions are not pure, but these mock implementations are: to prevent Solidity from issuing warnings,\n    // we write to a dummy state variable.\n    uint256 private _dummy;\n\n    function transfer(address, uint256) public returns (bool) {\n        _dummy = 0;\n        return false;\n    }\n\n    function transferFrom(\n        address,\n        address,\n        uint256\n    ) public returns (bool) {\n        _dummy = 0;\n        return false;\n    }\n\n    function approve(address, uint256) public returns (bool) {\n        _dummy = 0;\n        return false;\n    }\n\n    function allowance(address, address) public view returns (uint256) {\n        require(_dummy == 0); // Dummy read from a state variable so that the function is view\n        return 0;\n    }\n}\n\ncontract ERC20ReturnTrueMock is Context {\n    mapping(address => uint256) private _allowances;\n\n    // IERC20's functions are not pure, but these mock implementations are: to prevent Solidity from issuing warnings,\n    // we write to a dummy state variable.\n    uint256 private _dummy;\n\n    function transfer(address, uint256) public returns (bool) {\n        _dummy = 0;\n        return true;\n    }\n\n    function transferFrom(\n        address,\n        address,\n        uint256\n    ) public returns (bool) {\n        _dummy = 0;\n        return true;\n    }\n\n    function approve(address, uint256) public returns (bool) {\n        _dummy = 0;\n        return true;\n    }\n\n    function setAllowance(uint256 allowance_) public {\n        _allowances[_msgSender()] = allowance_;\n    }\n\n    function allowance(address owner, address) public view returns (uint256) {\n        return _allowances[owner];\n    }\n}\n\ncontract ERC20NoReturnMock is Context {\n    mapping(address => uint256) private _allowances;\n\n    // IERC20's functions are not pure, but these mock implementations are: to prevent Solidity from issuing warnings,\n    // we write to a dummy state variable.\n    uint256 private _dummy;\n\n    function transfer(address, uint256) public {\n        _dummy = 0;\n    }\n\n    function transferFrom(\n        address,\n        address,\n        uint256\n    ) public {\n        _dummy = 0;\n    }\n\n    function approve(address, uint256) public {\n        _dummy = 0;\n    }\n\n    function setAllowance(uint256 allowance_) public {\n        _allowances[_msgSender()] = allowance_;\n    }\n\n    function allowance(address owner, address) public view returns (uint256) {\n        return _allowances[owner];\n    }\n}\n\ncontract SafeERC20Wrapper is Context {\n    using SafeERC20 for IERC20;\n\n    IERC20 private _token;\n\n    constructor(IERC20 token) {\n        _token = token;\n    }\n\n    function transfer() public {\n        _token.safeTransfer(address(0), 0);\n    }\n\n    function transferFrom() public {\n        _token.safeTransferFrom(address(0), address(0), 0);\n    }\n\n    function approve(uint256 amount) public {\n        _token.safeApprove(address(0), amount);\n    }\n\n    function increaseAllowance(uint256 amount) public {\n        _token.safeIncreaseAllowance(address(0), amount);\n    }\n\n    function decreaseAllowance(uint256 amount) public {\n        _token.safeDecreaseAllowance(address(0), amount);\n    }\n\n    function setAllowance(uint256 allowance_) public {\n        ERC20ReturnTrueMock(address(_token)).setAllowance(allowance_);\n    }\n\n    function allowance() public view returns (uint256) {\n        return _token.allowance(address(0), address(0));\n    }\n}\n",
  "sourcePath": "contracts/openzeppelin-solidity/contracts/mocks/SafeERC20Helper.sol",
  "type": "contract"
}