{
  "abi": [
    {
      "inputs": [
        {
          "internalType": "address",
          "name": "_treasury",
          "type": "address"
        },
        {
          "internalType": "address",
          "name": "roeRouter",
          "type": "address"
        },
        {
          "internalType": "address",
          "name": "_uniswapPool",
          "type": "address"
        },
        {
          "internalType": "uint256",
          "name": "poolId",
          "type": "uint256"
        },
        {
          "internalType": "string",
          "name": "name",
          "type": "string"
        },
        {
          "internalType": "string",
          "name": "symbol",
          "type": "string"
        },
        {
          "internalType": "address",
          "name": "weth",
          "type": "address"
        },
        {
          "internalType": "bool",
          "name": "_baseTokenIsToken0",
          "type": "bool"
        }
      ],
      "stateMutability": "nonpayable",
      "type": "constructor"
    },
    {
      "anonymous": false,
      "inputs": [
        {
          "indexed": true,
          "internalType": "address",
          "name": "owner",
          "type": "address"
        },
        {
          "indexed": true,
          "internalType": "address",
          "name": "spender",
          "type": "address"
        },
        {
          "indexed": false,
          "internalType": "uint256",
          "name": "value",
          "type": "uint256"
        }
      ],
      "name": "Approval",
      "type": "event"
    },
    {
      "anonymous": false,
      "inputs": [
        {
          "indexed": true,
          "internalType": "address",
          "name": "sender",
          "type": "address"
        },
        {
          "indexed": true,
          "internalType": "address",
          "name": "token",
          "type": "address"
        },
        {
          "indexed": false,
          "internalType": "uint256",
          "name": "amount",
          "type": "uint256"
        },
        {
          "indexed": false,
          "internalType": "uint256",
          "name": "liquidity",
          "type": "uint256"
        }
      ],
      "name": "Deposit",
      "type": "event"
    },
    {
      "anonymous": false,
      "inputs": [
        {
          "indexed": true,
          "internalType": "address",
          "name": "ticker",
          "type": "address"
        },
        {
          "indexed": false,
          "internalType": "uint256",
          "name": "index",
          "type": "uint256"
        }
      ],
      "name": "ModifyTick",
      "type": "event"
    },
    {
      "anonymous": false,
      "inputs": [
        {
          "indexed": true,
          "internalType": "address",
          "name": "previousOwner",
          "type": "address"
        },
        {
          "indexed": true,
          "internalType": "address",
          "name": "newOwner",
          "type": "address"
        }
      ],
      "name": "OwnershipTransferred",
      "type": "event"
    },
    {
      "anonymous": false,
      "inputs": [
        {
          "indexed": true,
          "internalType": "address",
          "name": "ticker",
          "type": "address"
        }
      ],
      "name": "PushTick",
      "type": "event"
    },
    {
      "anonymous": false,
      "inputs": [
        {
          "indexed": false,
          "internalType": "uint256",
          "name": "tickIndex",
          "type": "uint256"
        }
      ],
      "name": "Rebalance",
      "type": "event"
    },
    {
      "anonymous": false,
      "inputs": [
        {
          "indexed": false,
          "internalType": "bool",
          "name": "isEnabled",
          "type": "bool"
        }
      ],
      "name": "SetEnabled",
      "type": "event"
    },
    {
      "anonymous": false,
      "inputs": [
        {
          "indexed": false,
          "internalType": "uint256",
          "name": "baseFeeX4",
          "type": "uint256"
        }
      ],
      "name": "SetFee",
      "type": "event"
    },
    {
      "anonymous": false,
      "inputs": [
        {
          "indexed": false,
          "internalType": "address",
          "name": "treasury",
          "type": "address"
        }
      ],
      "name": "SetTreasury",
      "type": "event"
    },
    {
      "anonymous": false,
      "inputs": [
        {
          "indexed": false,
          "internalType": "uint256",
          "name": "tvlCap",
          "type": "uint256"
        }
      ],
      "name": "SetTvlCap",
      "type": "event"
    },
    {
      "anonymous": false,
      "inputs": [
        {
          "indexed": true,
          "internalType": "address",
          "name": "ticker",
          "type": "address"
        }
      ],
      "name": "ShiftTick",
      "type": "event"
    },
    {
      "anonymous": false,
      "inputs": [
        {
          "indexed": true,
          "internalType": "address",
          "name": "from",
          "type": "address"
        },
        {
          "indexed": true,
          "internalType": "address",
          "name": "to",
          "type": "address"
        },
        {
          "indexed": false,
          "internalType": "uint256",
          "name": "value",
          "type": "uint256"
        }
      ],
      "name": "Transfer",
      "type": "event"
    },
    {
      "anonymous": false,
      "inputs": [
        {
          "indexed": true,
          "internalType": "address",
          "name": "sender",
          "type": "address"
        },
        {
          "indexed": true,
          "internalType": "address",
          "name": "token",
          "type": "address"
        },
        {
          "indexed": false,
          "internalType": "uint256",
          "name": "amount",
          "type": "uint256"
        },
        {
          "indexed": false,
          "internalType": "uint256",
          "name": "liquidity",
          "type": "uint256"
        }
      ],
      "name": "Withdraw",
      "type": "event"
    },
    {
      "inputs": [],
      "name": "WETH",
      "outputs": [
        {
          "internalType": "contract IWETH",
          "name": "",
          "type": "address"
        }
      ],
      "stateMutability": "view",
      "type": "function"
    },
    {
      "inputs": [
        {
          "internalType": "address",
          "name": "owner",
          "type": "address"
        },
        {
          "internalType": "address",
          "name": "spender",
          "type": "address"
        }
      ],
      "name": "allowance",
      "outputs": [
        {
          "internalType": "uint256",
          "name": "",
          "type": "uint256"
        }
      ],
      "stateMutability": "view",
      "type": "function"
    },
    {
      "inputs": [
        {
          "internalType": "address",
          "name": "spender",
          "type": "address"
        },
        {
          "internalType": "uint256",
          "name": "amount",
          "type": "uint256"
        }
      ],
      "name": "approve",
      "outputs": [
        {
          "internalType": "bool",
          "name": "",
          "type": "bool"
        }
      ],
      "stateMutability": "nonpayable",
      "type": "function"
    },
    {
      "inputs": [
        {
          "internalType": "address",
          "name": "account",
          "type": "address"
        }
      ],
      "name": "balanceOf",
      "outputs": [
        {
          "internalType": "uint256",
          "name": "",
          "type": "uint256"
        }
      ],
      "stateMutability": "view",
      "type": "function"
    },
    {
      "inputs": [],
      "name": "baseFeeX4",
      "outputs": [
        {
          "internalType": "uint256",
          "name": "",
          "type": "uint256"
        }
      ],
      "stateMutability": "view",
      "type": "function"
    },
    {
      "inputs": [],
      "name": "baseTokenIsToken0",
      "outputs": [
        {
          "internalType": "bool",
          "name": "",
          "type": "bool"
        }
      ],
      "stateMutability": "view",
      "type": "function"
    },
    {
      "inputs": [],
      "name": "decimals",
      "outputs": [
        {
          "internalType": "uint8",
          "name": "",
          "type": "uint8"
        }
      ],
      "stateMutability": "view",
      "type": "function"
    },
    {
      "inputs": [
        {
          "internalType": "address",
          "name": "spender",
          "type": "address"
        },
        {
          "internalType": "uint256",
          "name": "subtractedValue",
          "type": "uint256"
        }
      ],
      "name": "decreaseAllowance",
      "outputs": [
        {
          "internalType": "bool",
          "name": "",
          "type": "bool"
        }
      ],
      "stateMutability": "nonpayable",
      "type": "function"
    },
    {
      "inputs": [
        {
          "internalType": "address",
          "name": "token",
          "type": "address"
        },
        {
          "internalType": "uint256",
          "name": "amount",
          "type": "uint256"
        }
      ],
      "name": "deposit",
      "outputs": [
        {
          "internalType": "uint256",
          "name": "liquidity",
          "type": "uint256"
        }
      ],
      "stateMutability": "payable",
      "type": "function"
    },
    {
      "inputs": [],
      "name": "getActiveTickIndex",
      "outputs": [
        {
          "internalType": "uint256",
          "name": "activeTickIndex",
          "type": "uint256"
        }
      ],
      "stateMutability": "view",
      "type": "function"
    },
    {
      "inputs": [
        {
          "internalType": "bool",
          "name": "increaseToken0",
          "type": "bool"
        }
      ],
      "name": "getAdjustedBaseFee",
      "outputs": [
        {
          "internalType": "uint256",
          "name": "adjustedBaseFeeX4",
          "type": "uint256"
        }
      ],
      "stateMutability": "view",
      "type": "function"
    },
    {
      "inputs": [],
      "name": "getReserves",
      "outputs": [
        {
          "internalType": "uint256",
          "name": "amount0",
          "type": "uint256"
        },
        {
          "internalType": "uint256",
          "name": "amount1",
          "type": "uint256"
        }
      ],
      "stateMutability": "view",
      "type": "function"
    },
    {
      "inputs": [],
      "name": "getTVL",
      "outputs": [
        {
          "internalType": "uint256",
          "name": "valueX8",
          "type": "uint256"
        }
      ],
      "stateMutability": "view",
      "type": "function"
    },
    {
      "inputs": [
        {
          "internalType": "uint256",
          "name": "index",
          "type": "uint256"
        }
      ],
      "name": "getTickBalance",
      "outputs": [
        {
          "internalType": "uint256",
          "name": "liquidity",
          "type": "uint256"
        }
      ],
      "stateMutability": "view",
      "type": "function"
    },
    {
      "inputs": [],
      "name": "getTickLength",
      "outputs": [
        {
          "internalType": "uint256",
          "name": "len",
          "type": "uint256"
        }
      ],
      "stateMutability": "view",
      "type": "function"
    },
    {
      "inputs": [
        {
          "internalType": "address",
          "name": "spender",
          "type": "address"
        },
        {
          "internalType": "uint256",
          "name": "addedValue",
          "type": "uint256"
        }
      ],
      "name": "increaseAllowance",
      "outputs": [
        {
          "internalType": "bool",
          "name": "",
          "type": "bool"
        }
      ],
      "stateMutability": "nonpayable",
      "type": "function"
    },
    {
      "inputs": [],
      "name": "isEnabled",
      "outputs": [
        {
          "internalType": "bool",
          "name": "",
          "type": "bool"
        }
      ],
      "stateMutability": "view",
      "type": "function"
    },
    {
      "inputs": [],
      "name": "latestAnswer",
      "outputs": [
        {
          "internalType": "uint256",
          "name": "priceX8",
          "type": "uint256"
        }
      ],
      "stateMutability": "view",
      "type": "function"
    },
    {
      "inputs": [],
      "name": "lendingPool",
      "outputs": [
        {
          "internalType": "contract ILendingPool",
          "name": "",
          "type": "address"
        }
      ],
      "stateMutability": "view",
      "type": "function"
    },
    {
      "inputs": [
        {
          "internalType": "address",
          "name": "tr",
          "type": "address"
        },
        {
          "internalType": "uint256",
          "name": "index",
          "type": "uint256"
        }
      ],
      "name": "modifyTick",
      "outputs": [],
      "stateMutability": "nonpayable",
      "type": "function"
    },
    {
      "inputs": [],
      "name": "name",
      "outputs": [
        {
          "internalType": "string",
          "name": "",
          "type": "string"
        }
      ],
      "stateMutability": "view",
      "type": "function"
    },
    {
      "inputs": [],
      "name": "nearbyRanges",
      "outputs": [
        {
          "internalType": "uint256",
          "name": "",
          "type": "uint256"
        }
      ],
      "stateMutability": "view",
      "type": "function"
    },
    {
      "inputs": [],
      "name": "oracle",
      "outputs": [
        {
          "internalType": "contract IPriceOracle",
          "name": "",
          "type": "address"
        }
      ],
      "stateMutability": "view",
      "type": "function"
    },
    {
      "inputs": [],
      "name": "owner",
      "outputs": [
        {
          "internalType": "address",
          "name": "",
          "type": "address"
        }
      ],
      "stateMutability": "view",
      "type": "function"
    },
    {
      "inputs": [],
      "name": "poolMatchesOracle",
      "outputs": [
        {
          "internalType": "bool",
          "name": "matches",
          "type": "bool"
        }
      ],
      "stateMutability": "view",
      "type": "function"
    },
    {
      "inputs": [
        {
          "internalType": "address",
          "name": "tr",
          "type": "address"
        }
      ],
      "name": "pushTick",
      "outputs": [],
      "stateMutability": "nonpayable",
      "type": "function"
    },
    {
      "inputs": [],
      "name": "rebalance",
      "outputs": [],
      "stateMutability": "nonpayable",
      "type": "function"
    },
    {
      "inputs": [],
      "name": "renounceOwnership",
      "outputs": [],
      "stateMutability": "nonpayable",
      "type": "function"
    },
    {
      "inputs": [
        {
          "internalType": "uint256",
          "name": "newBaseFeeX4",
          "type": "uint256"
        }
      ],
      "name": "setBaseFee",
      "outputs": [],
      "stateMutability": "nonpayable",
      "type": "function"
    },
    {
      "inputs": [
        {
          "internalType": "bool",
          "name": "_isEnabled",
          "type": "bool"
        }
      ],
      "name": "setEnabled",
      "outputs": [],
      "stateMutability": "nonpayable",
      "type": "function"
    },
    {
      "inputs": [
        {
          "internalType": "address",
          "name": "newTreasury",
          "type": "address"
        }
      ],
      "name": "setTreasury",
      "outputs": [],
      "stateMutability": "nonpayable",
      "type": "function"
    },
    {
      "inputs": [
        {
          "internalType": "uint256",
          "name": "newTvlCap",
          "type": "uint256"
        }
      ],
      "name": "setTvlCap",
      "outputs": [],
      "stateMutability": "nonpayable",
      "type": "function"
    },
    {
      "inputs": [
        {
          "internalType": "address",
          "name": "tr",
          "type": "address"
        }
      ],
      "name": "shiftTick",
      "outputs": [],
      "stateMutability": "nonpayable",
      "type": "function"
    },
    {
      "inputs": [],
      "name": "symbol",
      "outputs": [
        {
          "internalType": "string",
          "name": "",
          "type": "string"
        }
      ],
      "stateMutability": "view",
      "type": "function"
    },
    {
      "inputs": [],
      "name": "tickIndex",
      "outputs": [
        {
          "internalType": "uint256",
          "name": "",
          "type": "uint256"
        }
      ],
      "stateMutability": "view",
      "type": "function"
    },
    {
      "inputs": [
        {
          "internalType": "uint256",
          "name": "",
          "type": "uint256"
        }
      ],
      "name": "ticks",
      "outputs": [
        {
          "internalType": "contract TokenisableRange",
          "name": "",
          "type": "address"
        }
      ],
      "stateMutability": "view",
      "type": "function"
    },
    {
      "inputs": [],
      "name": "token0",
      "outputs": [
        {
          "internalType": "contract ERC20",
          "name": "",
          "type": "address"
        }
      ],
      "stateMutability": "view",
      "type": "function"
    },
    {
      "inputs": [],
      "name": "token1",
      "outputs": [
        {
          "internalType": "contract ERC20",
          "name": "",
          "type": "address"
        }
      ],
      "stateMutability": "view",
      "type": "function"
    },
    {
      "inputs": [],
      "name": "totalSupply",
      "outputs": [
        {
          "internalType": "uint256",
          "name": "",
          "type": "uint256"
        }
      ],
      "stateMutability": "view",
      "type": "function"
    },
    {
      "inputs": [
        {
          "internalType": "address",
          "name": "recipient",
          "type": "address"
        },
        {
          "internalType": "uint256",
          "name": "amount",
          "type": "uint256"
        }
      ],
      "name": "transfer",
      "outputs": [
        {
          "internalType": "bool",
          "name": "",
          "type": "bool"
        }
      ],
      "stateMutability": "nonpayable",
      "type": "function"
    },
    {
      "inputs": [
        {
          "internalType": "address",
          "name": "sender",
          "type": "address"
        },
        {
          "internalType": "address",
          "name": "recipient",
          "type": "address"
        },
        {
          "internalType": "uint256",
          "name": "amount",
          "type": "uint256"
        }
      ],
      "name": "transferFrom",
      "outputs": [
        {
          "internalType": "bool",
          "name": "",
          "type": "bool"
        }
      ],
      "stateMutability": "nonpayable",
      "type": "function"
    },
    {
      "inputs": [
        {
          "internalType": "address",
          "name": "newOwner",
          "type": "address"
        }
      ],
      "name": "transferOwnership",
      "outputs": [],
      "stateMutability": "nonpayable",
      "type": "function"
    },
    {
      "inputs": [],
      "name": "treasury",
      "outputs": [
        {
          "internalType": "address",
          "name": "",
          "type": "address"
        }
      ],
      "stateMutability": "view",
      "type": "function"
    },
    {
      "inputs": [],
      "name": "tvlCap",
      "outputs": [
        {
          "internalType": "uint256",
          "name": "",
          "type": "uint256"
        }
      ],
      "stateMutability": "view",
      "type": "function"
    },
    {
      "inputs": [],
      "name": "uniswapPool",
      "outputs": [
        {
          "internalType": "contract IUniswapV3Pool",
          "name": "",
          "type": "address"
        }
      ],
      "stateMutability": "view",
      "type": "function"
    },
    {
      "inputs": [
        {
          "internalType": "uint256",
          "name": "liquidity",
          "type": "uint256"
        },
        {
          "internalType": "address",
          "name": "token",
          "type": "address"
        }
      ],
      "name": "withdraw",
      "outputs": [
        {
          "internalType": "uint256",
          "name": "amount",
          "type": "uint256"
        }
      ],
      "stateMutability": "nonpayable",
      "type": "function"
    },
    {
      "stateMutability": "payable",
      "type": "receive"
    }
  ],
  "bytecode": "6080604052600b805460ff60a01b1916600160a01b1790556014600c5564e8d4a51000600d553480156200003257600080fd5b5060405162004f3238038062004f328339810160408190526200005591620004e9565b838360036200006583826200064a565b5060046200007482826200064a565b505050620000916200008b620003a060201b60201c565b620003a4565b60016006556001600160a01b038816620000f25760405162461bcd60e51b815260206004820152601560248201527f4745563a20496e76616c6964205472656173757279000000000000000000000060448201526064015b60405180910390fd5b6001600160a01b0386166200013e5760405162461bcd60e51b815260206004820152601160248201527011d1558e88125b9d985b1a5908141bdbdb607a1b6044820152606401620000e9565b6001600160a01b0382166200018a5760405162461bcd60e51b815260206004820152601160248201527008e8aac744092dcecc2d8d2c840ae8aa89607b1b6044820152606401620000e9565b6000806000896001600160a01b031663ac4afa38896040518263ffffffff1660e01b8152600401620001be91815260200190565b60a060405180830381865afa158015620001dc573d6000803e3d6000fd5b505050506040513d601f19601f8201168201806040525081019062000202919062000716565b5050600a80546001600160a01b038085166001600160a01b031992831617909255600b8054838516921691909117905560408051630261bf8b60e01b81529051949750929550909350851691630261bf8b916004808201926020929091908290030181865afa1580156200027a573d6000803e3d6000fd5b505050506040513d601f19601f82011682018060405250810190620002a0919062000786565b601060006101000a8154816001600160a01b0302191690836001600160a01b03160217905550826001600160a01b031663fca513a86040518163ffffffff1660e01b8152600401602060405180830381865afa15801562000305573d6000803e3d6000fd5b505050506040513d601f19601f820116820180604052508101906200032b919062000786565b601180546001600160a01b039283166001600160a01b031991821617909155600e80549d83169d82169d909d17909c55600f80549a82169a909c1699909917909a55505060128054911515600160a01b026001600160a81b031990921692909616919091171790935550620007ab9350505050565b3390565b600580546001600160a01b038381166001600160a01b0319831681179093556040519116919082907f8be0079c531659141344cd1fd0a4f28419497f9722a3daafe3b4186f6b6457e090600090a35050565b80516001600160a01b03811681146200040e57600080fd5b919050565b634e487b7160e01b600052604160045260246000fd5b600082601f8301126200043b57600080fd5b81516001600160401b038082111562000458576200045862000413565b604051601f8301601f19908116603f0116810190828211818310171562000483576200048362000413565b81604052838152602092508683858801011115620004a057600080fd5b600091505b83821015620004c45785820183015181830184015290820190620004a5565b600093810190920192909252949350505050565b805180151581146200040e57600080fd5b600080600080600080600080610100898b0312156200050757600080fd5b6200051289620003f6565b97506200052260208a01620003f6565b96506200053260408a01620003f6565b60608a015160808b015191975095506001600160401b03808211156200055757600080fd5b620005658c838d0162000429565b955060a08b01519150808211156200057c57600080fd5b506200058b8b828c0162000429565b9350506200059c60c08a01620003f6565b9150620005ac60e08a01620004d8565b90509295985092959890939650565b600181811c90821680620005d057607f821691505b602082108103620005f157634e487b7160e01b600052602260045260246000fd5b50919050565b601f8211156200064557600081815260208120601f850160051c81016020861015620006205750805b601f850160051c820191505b8181101562000641578281556001016200062c565b5050505b505050565b81516001600160401b0381111562000666576200066662000413565b6200067e81620006778454620005bb565b84620005f7565b602080601f831160018114620006b657600084156200069d5750858301515b600019600386901b1c1916600185901b17855562000641565b600085815260208120601f198616915b82811015620006e757888601518255948401946001909101908401620006c6565b5085821015620007065787850151600019600388901b60f8161c191681555b5050505050600190811b01905550565b600080600080600060a086880312156200072f57600080fd5b6200073a86620003f6565b94506200074a60208701620003f6565b93506200075a60408701620003f6565b92506200076a60608701620003f6565b91506200077a60808701620004d8565b90509295509295909350565b6000602082840312156200079957600080fd5b620007a482620003f6565b9392505050565b61477780620007bb6000396000f3fe6080604052600436106102805760003560e01c80637dc0d1d01161014f578063a9059cbb116100c1578063d5edb9d61161007a578063d5edb9d614610780578063dd0290e214610795578063dd62ed3e146107b5578063f0f44260146107fb578063f2fde38b1461081b578063ff71f0df1461083b57600080fd5b8063a9059cbb146106d5578063ad5c4648146106f5578063bdd3d82514610715578063cf94b20614610735578063d09a323c1461074b578063d21220a71461076057600080fd5b8063a003908c11610113578063a003908c14610620578063a2260dd614610640578063a2716e5e14610655578063a457c2d714610675578063a59a997314610695578063a8d2e314146106b557600080fd5b80637dc0d1d0146105a35780638da5cb5b146105c35780638fccd12e146105e157806395d89b41146105f657806397b3fcaa1461060b57600080fd5b806339509351116101f35780636193aaeb116101ac5780636193aaeb146104e257806361d027b3146105025780636aa633b61461052257806370a0823114610543578063715018a6146105795780637d7c2a1c1461058e57600080fd5b806339509351146104445780633f23fa1a14610464578063468606981461047a57806347e7ef241461049a57806350d25bcd146104ad578063534cb30d146104c257600080fd5b806318160ddd1161024557806318160ddd1461039d57806318fc392b146103b25780631e5d5c07146103c857806323b872dd146103e8578063313ce56714610408578063328d8f721461042457600080fd5b8062f714ce146102b657806306fdde03146102e95780630902f1ac1461030b578063095ea7b3146103355780630dfe16811461036557600080fd5b366102b1576012546001600160a01b031633146102af576012546102ad906001600160a01b03163461085c565b505b005b600080fd5b3480156102c257600080fd5b506102d66102d1366004613fce565b610d7a565b6040519081526020015b60405180910390f35b3480156102f557600080fd5b506102fe61115f565b6040516102e09190614022565b34801561031757600080fd5b506103206111f1565b604080519283526020830191909152016102e0565b34801561034157600080fd5b50610355610350366004614055565b6113b2565b60405190151581526020016102e0565b34801561037157600080fd5b50600a54610385906001600160a01b031681565b6040516001600160a01b0390911681526020016102e0565b3480156103a957600080fd5b506002546102d6565b3480156103be57600080fd5b506102d6600c5481565b3480156103d457600080fd5b506102af6103e3366004614055565b6113c9565b3480156103f457600080fd5b50610355610403366004614081565b61157b565b34801561041457600080fd5b50604051601281526020016102e0565b34801561043057600080fd5b506102af61043f3660046140d0565b611625565b34801561045057600080fd5b5061035561045f366004614055565b6116a7565b34801561047057600080fd5b506102d6600d5481565b34801561048657600080fd5b506102af6104953660046140ed565b6116e3565b6102d66104a8366004614055565b61085c565b3480156104b957600080fd5b506102d661178a565b3480156104ce57600080fd5b506103856104dd3660046140ed565b6117d8565b3480156104ee57600080fd5b506102af6104fd366004614106565b611802565b34801561050e57600080fd5b50600e54610385906001600160a01b031681565b34801561052e57600080fd5b50600b5461035590600160a01b900460ff1681565b34801561054f57600080fd5b506102d661055e366004614106565b6001600160a01b031660009081526020819052604090205490565b34801561058557600080fd5b506102af611cbb565b34801561059a57600080fd5b506102af611cf1565b3480156105af57600080fd5b50601154610385906001600160a01b031681565b3480156105cf57600080fd5b506005546001600160a01b0316610385565b3480156105ed57600080fd5b506102d6600281565b34801561060257600080fd5b506102fe611d37565b34801561061757600080fd5b506102d6611d46565b34801561062c57600080fd5b506102d661063b3660046140ed565b611e2e565b34801561064c57600080fd5b506008546102d6565b34801561066157600080fd5b506102af610670366004614106565b611f38565b34801561068157600080fd5b50610355610690366004614055565b612500565b3480156106a157600080fd5b50601054610385906001600160a01b031681565b3480156106c157600080fd5b506102d66106d03660046140d0565b612599565b3480156106e157600080fd5b506103556106f0366004614055565b612885565b34801561070157600080fd5b50601254610385906001600160a01b031681565b34801561072157600080fd5b50600f54610385906001600160a01b031681565b34801561074157600080fd5b506102d660095481565b34801561075757600080fd5b506102d6612892565b34801561076c57600080fd5b50600b54610385906001600160a01b031681565b34801561078c57600080fd5b50610355612a44565b3480156107a157600080fd5b506102af6107b03660046140ed565b612d7c565b3480156107c157600080fd5b506102d66107d0366004614123565b6001600160a01b03918216600090815260016020908152604080832093909416825291909152205490565b34801561080757600080fd5b506102af610816366004614106565b612ddb565b34801561082757600080fd5b506102af610836366004614106565b612e53565b34801561084757600080fd5b5060125461035590600160a01b900460ff1681565b60006002600654036108b55760405162461bcd60e51b815260206004820152601f60248201527f5265656e7472616e637947756172643a207265656e7472616e742063616c6c0060448201526064015b60405180910390fd5b6002600655600b54600160a01b900460ff166109085760405162461bcd60e51b815260206004820152601260248201527111d1558e88141bdbdb08111a5cd8589b195960721b60448201526064016108ac565b610910612a44565b61092c5760405162461bcd60e51b81526004016108ac90614151565b600a546001600160a01b03848116911614806109555750600b546001600160a01b038481169116145b6109965760405162461bcd60e51b815260206004820152601260248201527123a2ab1d1024b73b30b634b2102a37b5b2b760711b60448201526064016108ac565b60008211806109a55750600034115b6109e55760405162461bcd60e51b81526020600482015260116024820152704745563a204465706f736974205a65726f60781b60448201526064016108ac565b3415610aad576012546001600160a01b03848116911614610a3c5760405162461bcd60e51b815260206004820152601160248201527008e8aac744092dcecc2d8d2c840aecae8d607b1b60448201526064016108ac565b601260009054906101000a90046001600160a01b03166001600160a01b031663d0e30db0346040518263ffffffff1660e01b81526004016000604051808303818588803b158015610a8c57600080fd5b505af1158015610aa0573d6000803e3d6000fd5b5050505050349150610ac2565b610ac26001600160a01b038416333085612eee565b600a5460009061271090610ae3906001600160a01b03878116911614612599565b610aed9085614192565b610af791906141bf565b600e54909150610b14906001600160a01b03868116911683612f5f565b6000846001600160a01b031663313ce5676040518163ffffffff1660e01b8152600401602060405180830381865afa158015610b54573d6000803e3d6000fd5b505050506040513d601f19601f82011682018060405250810190610b7891906141e9565b610b8390600a6142e8565b610b8d83866142f7565b60115460405163b3596f0760e01b81526001600160a01b0389811660048301529091169063b3596f0790602401602060405180830381865afa158015610bd7573d6000803e3d6000fd5b505050506040513d601f19601f82011682018060405250810190610bfb919061430a565b610c059190614192565b610c0f91906141bf565b9050610c19611d46565b610c239082614323565b600d5411610c6a5760405162461bcd60e51b815260206004820152601460248201527311d1558e8813585e0810d85c0814995858da195960621b60448201526064016108ac565b6000610c74611d46565b90506000610c8160025490565b9050801580610c8e575081155b15610ca957610ca2836402540be400614192565b9450610cc1565b81610cb48483614192565b610cbe91906141bf565b94505b610cc9611cf1565b60008511610d195760405162461bcd60e51b815260206004820152601760248201527f4745563a204e6f204c697175696469747920416464656400000000000000000060448201526064016108ac565b610d233386612f94565b60408051878152602081018790526001600160a01b0389169133917fdcbc1c05240f31ff3ad067ef1ee35ce4997762752e3a095284754544f4c709d791015b60405180910390a35050600160065550909392505050565b6000600260065403610dce5760405162461bcd60e51b815260206004820152601f60248201527f5265656e7472616e637947756172643a207265656e7472616e742063616c6c0060448201526064016108ac565b6002600655610ddb612a44565b610df75760405162461bcd60e51b81526004016108ac90614151565b82600003610e12573360009081526020819052604090205492505b33600090815260208190526040902054831115610e715760405162461bcd60e51b815260206004820152601960248201527f4745563a20496e73756666696369656e742042616c616e63650000000000000060448201526064016108ac565b60008311610eb65760405162461bcd60e51b81526020600482015260126024820152714745563a205769746864726177205a65726f60701b60448201526064016108ac565b6000610ec0611d46565b90506000610ecd60025490565b610ed78684614192565b610ee191906141bf565b60115460405163b3596f0760e01b81526001600160a01b03878116600483015292935091169063b3596f0790602401602060405180830381865afa158015610f2d573d6000803e3d6000fd5b505050506040513d601f19601f82011682018060405250810190610f51919061430a565b846001600160a01b031663313ce5676040518163ffffffff1660e01b8152600401602060405180830381865afa158015610f8f573d6000803e3d6000fd5b505050506040513d601f19601f82011682018060405250810190610fb391906141e9565b610fbe90600a6142e8565b610fc89083614192565b610fd291906141bf565b600b5490935060009061271090610ff6906001600160a01b03888116911614612599565b6110009086614192565b61100a91906141bf565b90506110163387613073565b61101e6131c1565b600e54611038906001600160a01b03878116911683612f5f565b600061104482866142f7565b6012549091506001600160a01b03908116908716036110ee57601254604051632e1a7d4d60e01b8152600481018390526001600160a01b0390911690632e1a7d4d90602401600060405180830381600087803b1580156110a357600080fd5b505af11580156110b7573d6000803e3d6000fd5b505060405133925083156108fc02915083906000818181858888f193505050501580156110e8573d6000803e3d6000fd5b50611102565b6111026001600160a01b0387163383612f5f565b600b54600160a01b900460ff161561111c5761111c6131e9565b60408051868152602081018990526001600160a01b0388169133917ff341246adaac6f497bc2a656f546ab9e182111d630394f0c57c710a59a2cb5679101610d62565b60606003805461116e90614336565b80601f016020809104026020016040519081016040528092919081815260200182805461119a90614336565b80156111e75780601f106111bc576101008083540402835291602001916111e7565b820191906000526020600020905b8154815290600101906020018083116111ca57829003601f168201915b5050505050905090565b60008060005b6008548110156113ad5760006008828154811061121657611216614370565b60009182526020822001546010546040516335ea6a7560e01b81526001600160a01b039283166004820181905294509116906335ea6a759060240161018060405180830381865afa15801561126f573d6000803e3d6000fd5b505050506040513d601f19601f82011682018060405250810190611293919061444e565b60e001516040516370a0823160e01b81523060048201529091506000906001600160a01b038316906370a0823190602401602060405180830381865afa1580156112e1573d6000803e3d6000fd5b505050506040513d601f19601f82011682018060405250810190611305919061430a565b9050600080846001600160a01b0316633b4e06e6846040518263ffffffff1660e01b815260040161133891815260200190565b6040805180830381865afa158015611354573d6000803e3d6000fd5b505050506040513d601f19601f82011682018060405250810190611378919061453b565b90925090506113878289614323565b97506113938188614323565b9650505050505080806113a59061455f565b9150506111f7565b509091565b60006113bf3384846134b4565b5060015b92915050565b6005546001600160a01b031633146113f35760405162461bcd60e51b81526004016108ac90614578565b6000826001600160a01b031663443ec74d6040518163ffffffff1660e01b81526004016040805180830381865afa158015611432573d6000803e3d6000fd5b505050506040513d601f19601f8201168201806040525081019061145691906145ad565b5090506000836001600160a01b0316635ee04d786040518163ffffffff1660e01b81526004016040805180830381865afa158015611498573d6000803e3d6000fd5b505050506040513d601f19601f820116820180604052508101906114bc91906145ad565b50600a549091506001600160a01b0383811691161480156114ea5750600b546001600160a01b038281169116145b6115065760405162461bcd60e51b81526004016108ac906145e2565b836008848154811061151a5761151a614370565b60009182526020918290200180546001600160a01b0319166001600160a01b03938416179055604051858152918616917fc702ec00c014203b7e89baac1d444204c2626e064afc77ba77a612e15ab3bce0910160405180910390a250505050565b6001600160a01b0383166000908152600160209081526040808320338452909152812054828110156116005760405162461bcd60e51b815260206004820152602860248201527f45524332303a207472616e7366657220616d6f756e74206578636565647320616044820152676c6c6f77616e636560c01b60648201526084016108ac565b61160d85338584036134b4565b6116188585856135d8565b60019150505b9392505050565b6005546001600160a01b0316331461164f5760405162461bcd60e51b81526004016108ac90614578565b600b8054821515600160a01b0260ff60a01b199091161790556040517fc95792a0e34c24eac32c3d3aad40fa02ac9ea2cb3a39b334f7b7f08579b5cd7d9061169c90831515815260200190565b60405180910390a150565b3360008181526001602090815260408083206001600160a01b038716845290915281205490916113bf9185906116de908690614323565b6134b4565b6005546001600160a01b0316331461170d5760405162461bcd60e51b81526004016108ac90614578565b61271081106117565760405162461bcd60e51b81526020600482015260156024820152744745563a20496e76616c696420426173652046656560581b60448201526064016108ac565b600c8190556040518181527e172ddfc5ae88d08b3de01a5a187667c37a5a53989e8c175055cb6c993792a79060200161169c565b60008061179660025490565b9050806000036117a857600091505090565b60006117b2611d46565b9050816117c782670de0b6b3a7640000614192565b6117d191906141bf565b9250505090565b600881815481106117e857600080fd5b6000918252602090912001546001600160a01b0316905081565b6005546001600160a01b0316331461182c5760405162461bcd60e51b81526004016108ac90614578565b60008190506000816001600160a01b031663443ec74d6040518163ffffffff1660e01b81526004016040805180830381865afa158015611870573d6000803e3d6000fd5b505050506040513d601f19601f8201168201806040525081019061189491906145ad565b5090506000826001600160a01b0316635ee04d786040518163ffffffff1660e01b81526004016040805180830381865afa1580156118d6573d6000803e3d6000fd5b505050506040513d601f19601f820116820180604052508101906118fa91906145ad565b50600a549091506001600160a01b0383811691161480156119285750600b546001600160a01b038281169116145b6119445760405162461bcd60e51b81526004016108ac906145e2565b60085460000361199e57600880546001810182556000919091527ff3f7a9fe364faab93b216da50a3214154f22a0a2b415b23a84c8169e8b636ee30180546001600160a01b0319166001600160a01b038516179055611c81565b601254600160a01b900460ff1615611af557600880546119c0906001906142f7565b815481106119d0576119d0614370565b6000918252602091829020015460408051630e4fba4560e31b815290516001600160a01b039092169263727dd228926004808401938290030181865afa158015611a1e573d6000803e3d6000fd5b505050506040513d601f19601f82011682018060405250810190611a42919061461d565b60020b836001600160a01b0316639b1344ac6040518163ffffffff1660e01b8152600401602060405180830381865afa158015611a83573d6000803e3d6000fd5b505050506040513d601f19601f82011682018060405250810190611aa7919061461d565b60020b13611af05760405162461bcd60e51b815260206004820152601660248201527504745563a2050757368205469636b204f7665726c61760541b60448201526064016108ac565b611c35565b60088054611b05906001906142f7565b81548110611b1557611b15614370565b60009182526020918290200154604080516326c4d12b60e21b815290516001600160a01b0390921692639b1344ac926004808401938290030181865afa158015611b63573d6000803e3d6000fd5b505050506040513d601f19601f82011682018060405250810190611b87919061461d565b60020b836001600160a01b031663727dd2286040518163ffffffff1660e01b8152600401602060405180830381865afa158015611bc8573d6000803e3d6000fd5b505050506040513d601f19601f82011682018060405250810190611bec919061461d565b60020b12611c355760405162461bcd60e51b815260206004820152601660248201527504745563a2050757368205469636b204f7665726c61760541b60448201526064016108ac565b600880546001810182556000919091527ff3f7a9fe364faab93b216da50a3214154f22a0a2b415b23a84c8169e8b636ee30180546001600160a01b0319166001600160a01b0386161790555b6040516001600160a01b038516907ff3fe65aefc0c6a58d6e37d115ed356186c3088909bc0642d064dbb0d8f0361ee90600090a250505050565b6005546001600160a01b03163314611ce55760405162461bcd60e51b81526004016108ac90614578565b611cef60006137a6565b565b611cf9612a44565b611d155760405162461bcd60e51b81526004016108ac90614151565b611d1d6131c1565b600b54600160a01b900460ff1615611cef57611cef6131e9565b60606004805461116e90614336565b6000805b600854811015611e2a57600060088281548110611d6957611d69614370565b60009182526020822001546001600160a01b03169150611d8883611e2e565b9050670de0b6b3a7640000826001600160a01b03166350d25bcd6040518163ffffffff1660e01b8152600401602060405180830381865afa158015611dd1573d6000803e3d6000fd5b505050506040513d601f19601f82011682018060405250810190611df5919061430a565b611dff9083614192565b611e0991906141bf565b611e139085614323565b935050508080611e229061455f565b915050611d4a565b5090565b60008060088381548110611e4457611e44614370565b60009182526020822001546010546040516335ea6a7560e01b81526001600160a01b039283166004820181905294509116906335ea6a759060240161018060405180830381865afa158015611e9d573d6000803e3d6000fd5b505050506040513d601f19601f82011682018060405250810190611ec1919061444e565b60e001516040516370a0823160e01b81523060048201529091506001600160a01b038216906370a0823190602401602060405180830381865afa158015611f0c573d6000803e3d6000fd5b505050506040513d601f19601f82011682018060405250810190611f30919061430a565b949350505050565b6005546001600160a01b03163314611f625760405162461bcd60e51b81526004016108ac90614578565b60008190506000816001600160a01b031663443ec74d6040518163ffffffff1660e01b81526004016040805180830381865afa158015611fa6573d6000803e3d6000fd5b505050506040513d601f19601f82011682018060405250810190611fca91906145ad565b5090506000826001600160a01b0316635ee04d786040518163ffffffff1660e01b81526004016040805180830381865afa15801561200c573d6000803e3d6000fd5b505050506040513d601f19601f8201168201806040525081019061203091906145ad565b50600a549091506001600160a01b03838116911614801561205e5750600b546001600160a01b038281169116145b61207a5760405162461bcd60e51b81526004016108ac906145e2565b6008546000036120d457600880546001810182556000919091527ff3f7a9fe364faab93b216da50a3214154f22a0a2b415b23a84c8169e8b636ee30180546001600160a01b0319166001600160a01b0385161790556124c6565b601254600160a01b900460ff1661221f5760086000815481106120f9576120f9614370565b6000918252602091829020015460408051630e4fba4560e31b815290516001600160a01b039092169263727dd228926004808401938290030181865afa158015612147573d6000803e3d6000fd5b505050506040513d601f19601f8201168201806040525081019061216b919061461d565b60020b836001600160a01b0316639b1344ac6040518163ffffffff1660e01b8152600401602060405180830381865afa1580156121ac573d6000803e3d6000fd5b505050506040513d601f19601f820116820180604052508101906121d0919061461d565b60020b1361221a5760405162461bcd60e51b815260206004820152601760248201527604745563a205368696674205469636b204f7665726c617604c1b60448201526064016108ac565b612354565b600860008154811061223357612233614370565b60009182526020918290200154604080516326c4d12b60e21b815290516001600160a01b0390921692639b1344ac926004808401938290030181865afa158015612281573d6000803e3d6000fd5b505050506040513d601f19601f820116820180604052508101906122a5919061461d565b60020b836001600160a01b031663727dd2286040518163ffffffff1660e01b8152600401602060405180830381865afa1580156122e6573d6000803e3d6000fd5b505050506040513d601f19601f8201168201806040525081019061230a919061461d565b60020b126123545760405162461bcd60e51b815260206004820152601760248201527604745563a205368696674205469636b204f7665726c617604c1b60448201526064016108ac565b600880548190612366906001906142f7565b8154811061237657612376614370565b60009182526020808320909101548354600181018555938352912090910180546001600160a01b0319166001600160a01b03909216919091179055600854600210156124825760005b6008546123ce906002906142f7565b811015612480576008805482906123e7906003906142f7565b6123f191906142f7565b8154811061240157612401614370565b600091825260209091200154600880546001600160a01b0390921691839061242b906002906142f7565b61243591906142f7565b8154811061244557612445614370565b600091825260209091200180546001600160a01b0319166001600160a01b0392909216919091179055806124788161455f565b9150506123bf565b505b82600860008154811061249757612497614370565b9060005260206000200160006101000a8154816001600160a01b0302191690836001600160a01b031602179055505b6040516001600160a01b038516907f379724eb42b8009eb7cb6f3d25740ce23af62531dbcaa953861505b29dc1481690600090a250505050565b3360009081526001602090815260408083206001600160a01b0386168452909152812054828110156125825760405162461bcd60e51b815260206004820152602560248201527f45524332303a2064656372656173656420616c6c6f77616e63652062656c6f77604482015264207a65726f60d81b60648201526084016108ac565b61258f33858584036134b4565b5060019392505050565b60008060006125a66111f1565b915091506000600a60009054906101000a90046001600160a01b03166001600160a01b031663313ce5676040518163ffffffff1660e01b8152600401602060405180830381865afa1580156125ff573d6000803e3d6000fd5b505050506040513d601f19601f8201168201806040525081019061262391906141e9565b61262e90600a6142e8565b601154600a5460405163b3596f0760e01b81526001600160a01b03918216600482015291169063b3596f0790602401602060405180830381865afa15801561267a573d6000803e3d6000fd5b505050506040513d601f19601f8201168201806040525081019061269e919061430a565b6126a89085614192565b6126b291906141bf565b90506000600b60009054906101000a90046001600160a01b03166001600160a01b031663313ce5676040518163ffffffff1660e01b8152600401602060405180830381865afa158015612709573d6000803e3d6000fd5b505050506040513d601f19601f8201168201806040525081019061272d91906141e9565b61273890600a6142e8565b601154600b5460405163b3596f0760e01b81526001600160a01b03918216600482015291169063b3596f0790602401602060405180830381865afa158015612784573d6000803e3d6000fd5b505050506040513d601f19601f820116820180604052508101906127a8919061430a565b6127b29085614192565b6127bc91906141bf565b905085156127ee576127cf816001614323565b82600c546127dd9190614192565b6127e791906141bf565b9450612814565b6127f9826001614323565b81600c546128079190614192565b61281191906141bf565b94505b6002600c5461282391906141bf565b85101561283c576002600c5461283991906141bf565b94505b6002600c54600361284d9190614192565b61285791906141bf565b85111561287c576002600c54600361286f9190614192565b61287991906141bf565b94505b50505050919050565b60006113bf3384846135d8565b600854600090600511612a41575060005b6008546128b2906003906142f7565b811015612a415760008060086128c9846001614323565b815481106128d9576128d9614370565b60009182526020909120015460405163d1f7e92b60e01b8152670de0b6b3a764000060048201526001600160a01b039091169063d1f7e92b906024016040805180830381865afa158015612931573d6000803e3d6000fd5b505050506040513d601f19601f82011682018060405250810190612955919061453b565b9092509050600080600861296a866002614323565b8154811061297a5761297a614370565b60009182526020909120015460405163d1f7e92b60e01b8152670de0b6b3a764000060048201526001600160a01b039091169063d1f7e92b906024016040805180830381865afa1580156129d2573d6000803e3d6000fd5b505050506040513d601f19601f820116820180604052508101906129f6919061453b565b91509150836000148015612a0a5750600082115b80612a1e575082158015612a1e5750600081115b15612a2a575050505090565b505050508080612a399061455f565b9150506128a3565b90565b600080600f60009054906101000a90046001600160a01b03166001600160a01b0316633850c7bd6040518163ffffffff1660e01b815260040160e060405180830381865afa158015612a9a573d6000803e3d6000fd5b505050506040513d601f19601f82011682018060405250810190612abe919061464a565b50505050505090506000600a60009054906101000a90046001600160a01b03166001600160a01b031663313ce5676040518163ffffffff1660e01b8152600401602060405180830381865afa158015612b1b573d6000803e3d6000fd5b505050506040513d601f19601f82011682018060405250810190612b3f91906141e9565b60ff1690506000600b60009054906101000a90046001600160a01b03166001600160a01b031663313ce5676040518163ffffffff1660e01b8152600401602060405180830381865afa158015612b99573d6000803e3d6000fd5b505050506040513d601f19601f82011682018060405250810190612bbd91906141e9565b60ff1690506000612bcf83600a6146d6565b9050600160a81b6002612be4611000876146e2565b6001600160a01b0316612bf791906142e8565b612c019083614192565b612c0f906305f5e100614192565b612c1991906141bf565b9050612c2682600a6146d6565b612c3090826141bf565b601154600b5460405163b3596f0760e01b81526001600160a01b03918216600482015292935060009291169063b3596f0790602401602060405180830381865afa158015612c82573d6000803e3d6000fd5b505050506040513d601f19601f82011682018060405250810190612ca6919061430a565b601154600a5460405163b3596f0760e01b81526001600160a01b03918216600482015291169063b3596f0790602401602060405180830381865afa158015612cf2573d6000803e3d6000fd5b505050506040513d601f19601f82011682018060405250810190612d16919061430a565b612d24906305f5e100614192565b612d2e91906141bf565b90506064612d3d836065614192565b612d4791906141bf565b81108015612d6a57506064612d5d836063614192565b612d6791906141bf565b81115b15612d7457600195505b505050505090565b6005546001600160a01b03163314612da65760405162461bcd60e51b81526004016108ac90614578565b600d8190556040518181527f9b83075767c93f683dc38f28b4e8fd725867522b5bbead77b8c397ab04fe21f19060200161169c565b6005546001600160a01b03163314612e055760405162461bcd60e51b81526004016108ac90614578565b600e80546001600160a01b0319166001600160a01b0383169081179091556040519081527fcb7ef3e545f5cdb893f5c568ba710fe08f336375a2d9fd66e161033f8fc09ef39060200161169c565b6005546001600160a01b03163314612e7d5760405162461bcd60e51b81526004016108ac90614578565b6001600160a01b038116612ee25760405162461bcd60e51b815260206004820152602660248201527f4f776e61626c653a206e6577206f776e657220697320746865207a65726f206160448201526564647265737360d01b60648201526084016108ac565b612eeb816137a6565b50565b6040516001600160a01b0380851660248301528316604482015260648101829052612f599085906323b872dd60e01b906084015b60408051601f198184030181529190526020810180516001600160e01b03166001600160e01b0319909316929092179091526137f8565b50505050565b6040516001600160a01b038316602482015260448101829052612f8f90849063a9059cbb60e01b90606401612f22565b505050565b6001600160a01b038216612fea5760405162461bcd60e51b815260206004820152601f60248201527f45524332303a206d696e7420746f20746865207a65726f20616464726573730060448201526064016108ac565b8060026000828254612ffc9190614323565b90915550506001600160a01b03821660009081526020819052604081208054839290613029908490614323565b90915550506040518181526001600160a01b038316906000907fddf252ad1be2c89b69c2b068fc378daa952ba7f163c4a11628f55a4df523b3ef9060200160405180910390a35050565b6001600160a01b0382166130d35760405162461bcd60e51b815260206004820152602160248201527f45524332303a206275726e2066726f6d20746865207a65726f206164647265736044820152607360f81b60648201526084016108ac565b6001600160a01b038216600090815260208190526040902054818110156131475760405162461bcd60e51b815260206004820152602260248201527f45524332303a206275726e20616d6f756e7420657863656564732062616c616e604482015261636560f01b60648201526084016108ac565b6001600160a01b03831660009081526020819052604081208383039055600280548492906131769084906142f7565b90915550506040518281526000906001600160a01b038516907fddf252ad1be2c89b69c2b068fc378daa952ba7f163c4a11628f55a4df523b3ef9060200160405180910390a3505050565b60005b600854811015612eeb576131d7816138ca565b806131e18161455f565b9150506131c4565b60006131f3612892565b600a546040516370a0823160e01b81523060048201529192506000916001600160a01b03909116906370a0823190602401602060405180830381865afa158015613241573d6000803e3d6000fd5b505050506040513d601f19601f82011682018060405250810190613265919061430a565b600b546040516370a0823160e01b81523060048201529192506000916001600160a01b03909116906370a0823190602401602060405180830381865afa1580156132b3573d6000803e3d6000fd5b505050506040513d601f19601f820116820180604052508101906132d7919061430a565b9050600080600885815481106132ef576132ef614370565b60009182526020909120015460405163d1f7e92b60e01b8152670de0b6b3a764000060048201526001600160a01b039091169063d1f7e92b906024016040805180830381865afa158015613347573d6000803e3d6000fd5b505050506040513d601f19601f8201168201806040525081019061336b919061453b565b909250905084600061337e826002614323565b9050821561339757613391876002614323565b91508690505b85156133fd576133da600883815481106133b3576133b3614370565b6000918252602090912001546001600160a01b03166133d36002896141bf565b6000613b52565b506133fb60086133eb846001614323565b815481106133b3576133b3614370565b505b84156134615761343e6008828154811061341957613419614370565b60009182526020822001546001600160a01b0316906134396002896141bf565b613b52565b5061345f600861344f836001614323565b8154811061341957613419614370565b505b60095487146134705760098790555b7f811d4760f1a92875eb76dbd3dc2359544b2f6a000ba5b78784c0b105b3469bd06009546040516134a391815260200190565b60405180910390a150505050505050565b6001600160a01b0383166135165760405162461bcd60e51b8152602060048201526024808201527f45524332303a20617070726f76652066726f6d20746865207a65726f206164646044820152637265737360e01b60648201526084016108ac565b6001600160a01b0382166135775760405162461bcd60e51b815260206004820152602260248201527f45524332303a20617070726f766520746f20746865207a65726f206164647265604482015261737360f01b60648201526084016108ac565b6001600160a01b0383811660008181526001602090815260408083209487168084529482529182902085905590518481527f8c5be1e5ebec7d5bd14f71427d1e84f3dd0314c0f7b2291e5b200ac8c7c3b925910160405180910390a3505050565b6001600160a01b03831661363c5760405162461bcd60e51b815260206004820152602560248201527f45524332303a207472616e736665722066726f6d20746865207a65726f206164604482015264647265737360d81b60648201526084016108ac565b6001600160a01b03821661369e5760405162461bcd60e51b815260206004820152602360248201527f45524332303a207472616e7366657220746f20746865207a65726f206164647260448201526265737360e81b60648201526084016108ac565b6001600160a01b038316600090815260208190526040902054818110156137165760405162461bcd60e51b815260206004820152602660248201527f45524332303a207472616e7366657220616d6f756e7420657863656564732062604482015265616c616e636560d01b60648201526084016108ac565b6001600160a01b0380851660009081526020819052604080822085850390559185168152908120805484929061374d908490614323565b92505081905550826001600160a01b0316846001600160a01b03167fddf252ad1be2c89b69c2b068fc378daa952ba7f163c4a11628f55a4df523b3ef8460405161379991815260200190565b60405180910390a3612f59565b600580546001600160a01b038381166001600160a01b0319831681179093556040519116919082907f8be0079c531659141344cd1fd0a4f28419497f9722a3daafe3b4186f6b6457e090600090a35050565b600061384d826040518060400160405280602081526020017f5361666545524332303a206c6f772d6c6576656c2063616c6c206661696c6564815250856001600160a01b0316613cff9092919063ffffffff16565b805190915015612f8f578080602001905181019061386b9190614708565b612f8f5760405162461bcd60e51b815260206004820152602a60248201527f5361666545524332303a204552433230206f7065726174696f6e20646964206e6044820152691bdd081cdd58d8d9595960b21b60648201526084016108ac565b6000600882815481106138df576138df614370565b60009182526020822001546010546040516335ea6a7560e01b81526001600160a01b039283166004820181905294509116906335ea6a759060240161018060405180830381865afa158015613938573d6000803e3d6000fd5b505050506040513d601f19601f8201168201806040525081019061395c919061444e565b60e001516040516370a0823160e01b81523060048201529091506000906001600160a01b038316906370a0823190602401602060405180830381865afa1580156139aa573d6000803e3d6000fd5b505050506040513d601f19601f820116820180604052508101906139ce919061430a565b6040516370a0823160e01b81526001600160a01b0384811660048301529192506000918516906370a0823190602401602060405180830381865afa158015613a1a573d6000803e3d6000fd5b505050506040513d601f19601f82011682018060405250810190613a3e919061430a565b905080821115613a4c578091505b8115613b4b57601054604051631a4ca37b60e21b81526001600160a01b03868116600483015260248201859052306044830152909116906369328dec906064016020604051808303816000875af1158015613aab573d6000803e3d6000fd5b505050506040513d601f19601f82011682018060405250810190613acf919061430a565b5060405163a41fe49f60e01b81526004810183905260006024820181905260448201526001600160a01b0385169063a41fe49f9060640160408051808303816000875af1158015613b24573d6000803e3d6000fd5b505050506040513d601f19601f82011682018060405250810190613b48919061453b565b50505b5050505050565b600a54600090613b6c906001600160a01b03168585613d0e565b600b54613b83906001600160a01b03168584613d0e565b604051631c57762b60e31b815260048101849052602481018390526001600160a01b0385169063e2bbb158906044016020604051808303816000875af1158015613bd1573d6000803e3d6000fd5b505050506040513d601f19601f82011682018060405250810190613bf5919061430a565b6040516370a0823160e01b81523060048201529091506000906001600160a01b038616906370a0823190602401602060405180830381865afa158015613c3f573d6000803e3d6000fd5b505050506040513d601f19601f82011682018060405250810190613c63919061430a565b90508015613cf757601054613c839086906001600160a01b031683613d0e565b60105460405163e8eda9df60e01b81526001600160a01b03878116600483015260248201849052306044830152600060648301529091169063e8eda9df90608401600060405180830381600087803b158015613cde57600080fd5b505af1158015613cf2573d6000803e3d6000fd5b505050505b509392505050565b6060611f308484600085613d9d565b604051636eb1769f60e11b81523060048201526001600160a01b03838116602483015282919085169063dd62ed3e90604401602060405180830381865afa158015613d5d573d6000803e3d6000fd5b505050506040513d601f19601f82011682018060405250810190613d81919061430a565b1015612f8f57612f8f6001600160a01b03841683600019613ece565b606082471015613dfe5760405162461bcd60e51b815260206004820152602660248201527f416464726573733a20696e73756666696369656e742062616c616e636520666f6044820152651c8818d85b1b60d21b60648201526084016108ac565b6001600160a01b0385163b613e555760405162461bcd60e51b815260206004820152601d60248201527f416464726573733a2063616c6c20746f206e6f6e2d636f6e747261637400000060448201526064016108ac565b600080866001600160a01b03168587604051613e719190614725565b60006040518083038185875af1925050503d8060008114613eae576040519150601f19603f3d011682016040523d82523d6000602084013e613eb3565b606091505b5091509150613ec3828286613f80565b979650505050505050565b604051636eb1769f60e11b81523060048201526001600160a01b038381166024830152600091839186169063dd62ed3e90604401602060405180830381865afa158015613f1f573d6000803e3d6000fd5b505050506040513d601f19601f82011682018060405250810190613f43919061430a565b613f4d9190614323565b6040516001600160a01b038516602482015260448101829052909150612f5990859063095ea7b360e01b90606401612f22565b60608315613f8f57508161161e565b825115613f9f5782518084602001fd5b8160405162461bcd60e51b81526004016108ac9190614022565b6001600160a01b0381168114612eeb57600080fd5b60008060408385031215613fe157600080fd5b823591506020830135613ff381613fb9565b809150509250929050565b60005b83811015614019578181015183820152602001614001565b50506000910152565b6020815260008251806020840152614041816040850160208701613ffe565b601f01601f19169190910160400192915050565b6000806040838503121561406857600080fd5b823561407381613fb9565b946020939093013593505050565b60008060006060848603121561409657600080fd5b83356140a181613fb9565b925060208401356140b181613fb9565b929592945050506040919091013590565b8015158114612eeb57600080fd5b6000602082840312156140e257600080fd5b813561161e816140c2565b6000602082840312156140ff57600080fd5b5035919050565b60006020828403121561411857600080fd5b813561161e81613fb9565b6000806040838503121561413657600080fd5b823561414181613fb9565b91506020830135613ff381613fb9565b60208082526011908201527023a2ab1d1027b930b1b6329022b93937b960791b604082015260600190565b634e487b7160e01b600052601160045260246000fd5b80820281158282048414176113c3576113c361417c565b634e487b7160e01b600052601260045260246000fd5b6000826141ce576141ce6141a9565b500490565b805160ff811681146141e457600080fd5b919050565b6000602082840312156141fb57600080fd5b61161e826141d3565b600181815b8085111561423f5781600019048211156142255761422561417c565b8085161561423257918102915b93841c9390800290614209565b509250929050565b600082614256575060016113c3565b81614263575060006113c3565b816001811461427957600281146142835761429f565b60019150506113c3565b60ff8411156142945761429461417c565b50506001821b6113c3565b5060208310610133831016604e8410600b84101617156142c2575081810a6113c3565b6142cc8383614204565b80600019048211156142e0576142e061417c565b029392505050565b600061161e60ff841683614247565b818103818111156113c3576113c361417c565b60006020828403121561431c57600080fd5b5051919050565b808201808211156113c3576113c361417c565b600181811c9082168061434a57607f821691505b60208210810361436a57634e487b7160e01b600052602260045260246000fd5b50919050565b634e487b7160e01b600052603260045260246000fd5b604051610180810167ffffffffffffffff811182821017156143b857634e487b7160e01b600052604160045260246000fd5b60405290565b6000602082840312156143d057600080fd5b6040516020810181811067ffffffffffffffff8211171561440157634e487b7160e01b600052604160045260246000fd5b6040529151825250919050565b80516fffffffffffffffffffffffffffffffff811681146141e457600080fd5b805164ffffffffff811681146141e457600080fd5b80516141e481613fb9565b6000610180828403121561446157600080fd5b614469614386565b61447384846143be565b81526144816020840161440e565b60208201526144926040840161440e565b60408201526144a36060840161440e565b60608201526144b46080840161440e565b60808201526144c560a0840161440e565b60a08201526144d660c0840161442e565b60c08201526144e760e08401614443565b60e08201526101006144fa818501614443565b9082015261012061450c848201614443565b9082015261014061451e848201614443565b908201526101606145308482016141d3565b908201529392505050565b6000806040838503121561454e57600080fd5b505080516020909101519092909150565b6000600182016145715761457161417c565b5060010190565b6020808252818101527f4f776e61626c653a2063616c6c6572206973206e6f7420746865206f776e6572604082015260600190565b600080604083850312156145c057600080fd5b82516145cb81613fb9565b91506145d9602084016141d3565b90509250929050565b6020808252600f908201526e23a2ab1d1024b73b30b634b2102a2960891b604082015260600190565b8051600281900b81146141e457600080fd5b60006020828403121561462f57600080fd5b61161e8261460b565b805161ffff811681146141e457600080fd5b600080600080600080600060e0888a03121561466557600080fd5b875161467081613fb9565b965061467e6020890161460b565b955061468c60408901614638565b945061469a60608901614638565b93506146a860808901614638565b92506146b660a089016141d3565b915060c08801516146c6816140c2565b8091505092959891949750929550565b600061161e8383614247565b60006001600160a01b03838116806146fc576146fc6141a9565b92169190910492915050565b60006020828403121561471a57600080fd5b815161161e816140c2565b60008251614737818460208701613ffe565b919091019291505056fea26469706673582212200577710005d36e082fb4019c694b9b92100a993c03fbcb81dcd8c29bbc4d6b6364736f6c63430008130033",
  "bytecodeSha1": "4b7243fbb1563fc106f4a4ec40d5c1c8e46f6adb",
  "compiler": {
    "evm_version": "istanbul",
    "optimizer": {
      "enabled": true,
      "runs": 200
    },
    "version": "0.8.19+commit.7dd6d404"
  },
  "contractName": "GeVault",
  "language": "Solidity",
  "natspec": {
    "kind": "dev",
    "methods": {
      "allowance(address,address)": {
        "details": "See {IERC20-allowance}."
      },
      "approve(address,uint256)": {
        "details": "See {IERC20-approve}. Requirements: - `spender` cannot be the zero address."
      },
      "balanceOf(address)": {
        "details": "See {IERC20-balanceOf}."
      },
      "baseFeeX4()": {
        "notice": "Pool base fee "
      },
      "decimals()": {
        "details": "Returns the number of decimals used to get its user representation. For example, if `decimals` equals `2`, a balance of `505` tokens should be displayed to a user as `5.05` (`505 / 10 ** 2`). Tokens usually opt for a value of 18, imitating the relationship between Ether and Wei. This is the value {ERC20} uses, unless this function is overridden; NOTE: This information is only used for _display_ purposes: it in no way affects any of the arithmetic of the contract, including {IERC20-balanceOf} and {IERC20-transfer}."
      },
      "decreaseAllowance(address,uint256)": {
        "details": "Atomically decreases the allowance granted to `spender` by the caller. This is an alternative to {approve} that can be used as a mitigation for problems described in {IERC20-approve}. Emits an {Approval} event indicating the updated allowance. Requirements: - `spender` cannot be the zero address. - `spender` must have allowance for the caller of at least `subtractedValue`."
      },
      "deposit(address,uint256)": {
        "notice": "deposit tokens in the pool, convert to WETH if necessary",
        "params": {
          "amount": "Amount of token deposited",
          "token": "Token address"
        }
      },
      "getActiveTickIndex()": {
        "notice": "Return first valid tick"
      },
      "getAdjustedBaseFee(bool)": {
        "details": "Simple linear model: from baseFeeX4 / 2 to baseFeeX4 * 2Call before withdrawing from ticks or reserves will both be 0",
        "notice": "Get deposit fee",
        "params": {
          "increaseToken0": "Whether (token0 added || token1 removed) or not"
        }
      },
      "getReserves()": {
        "notice": "Get vault underlying assets"
      },
      "getTVL()": {
        "notice": "Calculate the vault total ticks value",
        "returns": {
          "valueX8": "Total value of the vault with 8 decimals"
        }
      },
      "getTickBalance(uint256)": {
        "notice": "Get balance of tick deposited in GE",
        "params": {
          "index": "Tick index"
        },
        "returns": {
          "liquidity": "Amount of Ticker"
        }
      },
      "getTickLength()": {
        "notice": "Ticks length getter",
        "returns": {
          "len": "Ticks length"
        }
      },
      "increaseAllowance(address,uint256)": {
        "details": "Atomically increases the allowance granted to `spender` by the caller. This is an alternative to {approve} that can be used as a mitigation for problems described in {IERC20-approve}. Emits an {Approval} event indicating the updated allowance. Requirements: - `spender` cannot be the zero address."
      },
      "latestAnswer()": {
        "notice": "Get value of 1e18 GEV tokens",
        "returns": {
          "priceX8": "price of 1e18 tokens with 8 decimals"
        }
      },
      "modifyTick(address,uint256)": {
        "notice": "Modify ticker",
        "params": {
          "index": "Tick to modify",
          "tr": "New tick address"
        }
      },
      "name()": {
        "details": "Returns the name of the token."
      },
      "owner()": {
        "details": "Returns the address of the current owner."
      },
      "poolMatchesOracle()": {
        "notice": "Checks that the pool price isn't manipulated"
      },
      "pushTick(address)": {
        "notice": "Add a new ticker to the list",
        "params": {
          "tr": "Tick address"
        }
      },
      "rebalance()": {
        "details": "Provide the list of tickers from ",
        "notice": "Rebalance tickers"
      },
      "renounceOwnership()": {
        "details": "Leaves the contract without owner. It will not be possible to call `onlyOwner` functions anymore. Can only be called by the current owner. NOTE: Renouncing ownership will leave the contract without an owner, thereby removing any functionality that is only available to the owner."
      },
      "setBaseFee(uint256)": {
        "notice": "Set the base fee",
        "params": {
          "newBaseFeeX4": "New base fee in E4"
        }
      },
      "setEnabled(bool)": {
        "notice": "Set pool status",
        "params": {
          "_isEnabled": "Pool status"
        }
      },
      "setTreasury(address)": {
        "notice": "Set treasury address",
        "params": {
          "newTreasury": "New address"
        }
      },
      "setTvlCap(uint256)": {
        "notice": "Set the TVL cap",
        "params": {
          "newTvlCap": "New TVL cap"
        }
      },
      "shiftTick(address)": {
        "notice": "Add a new ticker to the list",
        "params": {
          "tr": "Tick address"
        }
      },
      "symbol()": {
        "details": "Returns the symbol of the token, usually a shorter version of the name."
      },
      "tickIndex()": {
        "notice": "Tracks the beginning of active ticks: the next 4 ticks are the active"
      },
      "ticks(uint256)": {
        "notice": "Ticks properly ordered in ascending price order"
      },
      "token0()": {
        "notice": "Pair tokens"
      },
      "totalSupply()": {
        "details": "See {IERC20-totalSupply}."
      },
      "transfer(address,uint256)": {
        "details": "See {IERC20-transfer}. Requirements: - `recipient` cannot be the zero address. - the caller must have a balance of at least `amount`."
      },
      "transferFrom(address,address,uint256)": {
        "details": "See {IERC20-transferFrom}. Emits an {Approval} event indicating the updated allowance. This is not required by the EIP. See the note at the beginning of {ERC20}. Requirements: - `sender` and `recipient` cannot be the zero address. - `sender` must have a balance of at least `amount`. - the caller must have allowance for ``sender``'s tokens of at least `amount`."
      },
      "transferOwnership(address)": {
        "details": "Transfers ownership of the contract to a new account (`newOwner`). Can only be called by the current owner."
      },
      "treasury()": {
        "notice": "CONSTANTS  immutable keyword removed for coverage testing bug in brownie"
      },
      "tvlCap()": {
        "notice": "Max vault TVL with 8 decimals"
      },
      "withdraw(uint256,address)": {
        "details": "For simplicity+efficieny, withdrawal is like a rebalancing, but a subset of the tokens are sent back to the user before redeploying",
        "notice": "Withdraw assets from the ticker",
        "params": {
          "liquidity": "Amount of GEV tokens to redeem; if 0, redeem all",
          "token": "Address of the token redeemed for"
        },
        "returns": {
          "amount": "Total token returned"
        }
      }
    },
    "notice": "GeVault is a reblancing vault that holds TokenisableRanges tickers Functionalities: - Hold a list of tickers for a single pair, evenly spaced - Hold balances of those tickers, deposited in the ROE LP - Deposit one underlying asset split evenly into 2 or more consecutive ticks above/below the current price - Withdraw one underlying asset, taken out evenly from 2 or more consecutive ticks - Calculate the current balance of assets Design:",
    "version": 1
  },
  "opcodes": "PUSH1 0x80 PUSH1 0x40 MSTORE PUSH1 0x4 CALLDATASIZE LT PUSH2 0x280 JUMPI PUSH1 0x0 CALLDATALOAD PUSH1 0xE0 SHR DUP1 PUSH4 0x7DC0D1D0 GT PUSH2 0x14F JUMPI DUP1 PUSH4 0xA9059CBB GT PUSH2 0xC1 JUMPI DUP1 PUSH4 0xD5EDB9D6 GT PUSH2 0x7A JUMPI DUP1 PUSH4 0xD5EDB9D6 EQ PUSH2 0x780 JUMPI DUP1 PUSH4 0xDD0290E2 EQ PUSH2 0x795 JUMPI DUP1 PUSH4 0xDD62ED3E EQ PUSH2 0x7B5 JUMPI DUP1 PUSH4 0xF0F44260 EQ PUSH2 0x7FB JUMPI DUP1 PUSH4 0xF2FDE38B EQ PUSH2 0x81B JUMPI DUP1 PUSH4 0xFF71F0DF EQ PUSH2 0x83B JUMPI PUSH1 0x0 DUP1 REVERT JUMPDEST DUP1 PUSH4 0xA9059CBB EQ PUSH2 0x6D5 JUMPI DUP1 PUSH4 0xAD5C4648 EQ PUSH2 0x6F5 JUMPI DUP1 PUSH4 0xBDD3D825 EQ PUSH2 0x715 JUMPI DUP1 PUSH4 0xCF94B206 EQ PUSH2 0x735 JUMPI DUP1 PUSH4 0xD09A323C EQ PUSH2 0x74B JUMPI DUP1 PUSH4 0xD21220A7 EQ PUSH2 0x760 JUMPI PUSH1 0x0 DUP1 REVERT JUMPDEST DUP1 PUSH4 0xA003908C GT PUSH2 0x113 JUMPI DUP1 PUSH4 0xA003908C EQ PUSH2 0x620 JUMPI DUP1 PUSH4 0xA2260DD6 EQ PUSH2 0x640 JUMPI DUP1 PUSH4 0xA2716E5E EQ PUSH2 0x655 JUMPI DUP1 PUSH4 0xA457C2D7 EQ PUSH2 0x675 JUMPI DUP1 PUSH4 0xA59A9973 EQ PUSH2 0x695 JUMPI DUP1 PUSH4 0xA8D2E314 EQ PUSH2 0x6B5 JUMPI PUSH1 0x0 DUP1 REVERT JUMPDEST DUP1 PUSH4 0x7DC0D1D0 EQ PUSH2 0x5A3 JUMPI DUP1 PUSH4 0x8DA5CB5B EQ PUSH2 0x5C3 JUMPI DUP1 PUSH4 0x8FCCD12E EQ PUSH2 0x5E1 JUMPI DUP1 PUSH4 0x95D89B41 EQ PUSH2 0x5F6 JUMPI DUP1 PUSH4 0x97B3FCAA EQ PUSH2 0x60B JUMPI PUSH1 0x0 DUP1 REVERT JUMPDEST DUP1 PUSH4 0x39509351 GT PUSH2 0x1F3 JUMPI DUP1 PUSH4 0x6193AAEB GT PUSH2 0x1AC JUMPI DUP1 PUSH4 0x6193AAEB EQ PUSH2 0x4E2 JUMPI DUP1 PUSH4 0x61D027B3 EQ PUSH2 0x502 JUMPI DUP1 PUSH4 0x6AA633B6 EQ PUSH2 0x522 JUMPI DUP1 PUSH4 0x70A08231 EQ PUSH2 0x543 JUMPI DUP1 PUSH4 0x715018A6 EQ PUSH2 0x579 JUMPI DUP1 PUSH4 0x7D7C2A1C EQ PUSH2 0x58E JUMPI PUSH1 0x0 DUP1 REVERT JUMPDEST DUP1 PUSH4 0x39509351 EQ PUSH2 0x444 JUMPI DUP1 PUSH4 0x3F23FA1A EQ PUSH2 0x464 JUMPI DUP1 PUSH4 0x46860698 EQ PUSH2 0x47A JUMPI DUP1 PUSH4 0x47E7EF24 EQ PUSH2 0x49A JUMPI DUP1 PUSH4 0x50D25BCD EQ PUSH2 0x4AD JUMPI DUP1 PUSH4 0x534CB30D EQ PUSH2 0x4C2 JUMPI PUSH1 0x0 DUP1 REVERT JUMPDEST DUP1 PUSH4 0x18160DDD GT PUSH2 0x245 JUMPI DUP1 PUSH4 0x18160DDD EQ PUSH2 0x39D JUMPI DUP1 PUSH4 0x18FC392B EQ PUSH2 0x3B2 JUMPI DUP1 PUSH4 0x1E5D5C07 EQ PUSH2 0x3C8 JUMPI DUP1 PUSH4 0x23B872DD EQ PUSH2 0x3E8 JUMPI DUP1 PUSH4 0x313CE567 EQ PUSH2 0x408 JUMPI DUP1 PUSH4 0x328D8F72 EQ PUSH2 0x424 JUMPI PUSH1 0x0 DUP1 REVERT JUMPDEST DUP1 PUSH3 0xF714CE EQ PUSH2 0x2B6 JUMPI DUP1 PUSH4 0x6FDDE03 EQ PUSH2 0x2E9 JUMPI DUP1 PUSH4 0x902F1AC EQ PUSH2 0x30B JUMPI DUP1 PUSH4 0x95EA7B3 EQ PUSH2 0x335 JUMPI DUP1 PUSH4 0xDFE1681 EQ PUSH2 0x365 JUMPI PUSH1 0x0 DUP1 REVERT JUMPDEST CALLDATASIZE PUSH2 0x2B1 JUMPI PUSH1 0x12 SLOAD PUSH1 0x1 PUSH1 0x1 PUSH1 0xA0 SHL SUB AND CALLER EQ PUSH2 0x2AF JUMPI PUSH1 0x12 SLOAD PUSH2 0x2AD SWAP1 PUSH1 0x1 PUSH1 0x1 PUSH1 0xA0 SHL SUB AND CALLVALUE PUSH2 0x85C JUMP JUMPDEST POP JUMPDEST STOP JUMPDEST PUSH1 0x0 DUP1 REVERT JUMPDEST CALLVALUE DUP1 ISZERO PUSH2 0x2C2 JUMPI PUSH1 0x0 DUP1 REVERT JUMPDEST POP PUSH2 0x2D6 PUSH2 0x2D1 CALLDATASIZE PUSH1 0x4 PUSH2 0x3FCE JUMP JUMPDEST PUSH2 0xD7A JUMP JUMPDEST PUSH1 0x40 MLOAD SWAP1 DUP2 MSTORE PUSH1 0x20 ADD JUMPDEST PUSH1 0x40 MLOAD DUP1 SWAP2 SUB SWAP1 RETURN JUMPDEST CALLVALUE DUP1 ISZERO PUSH2 0x2F5 JUMPI PUSH1 0x0 DUP1 REVERT JUMPDEST POP PUSH2 0x2FE PUSH2 0x115F JUMP JUMPDEST PUSH1 0x40 MLOAD PUSH2 0x2E0 SWAP2 SWAP1 PUSH2 0x4022 JUMP JUMPDEST CALLVALUE DUP1 ISZERO PUSH2 0x317 JUMPI PUSH1 0x0 DUP1 REVERT JUMPDEST POP PUSH2 0x320 PUSH2 0x11F1 JUMP JUMPDEST PUSH1 0x40 DUP1 MLOAD SWAP3 DUP4 MSTORE PUSH1 0x20 DUP4 ADD SWAP2 SWAP1 SWAP2 MSTORE ADD PUSH2 0x2E0 JUMP JUMPDEST CALLVALUE DUP1 ISZERO PUSH2 0x341 JUMPI PUSH1 0x0 DUP1 REVERT JUMPDEST POP PUSH2 0x355 PUSH2 0x350 CALLDATASIZE PUSH1 0x4 PUSH2 0x4055 JUMP JUMPDEST PUSH2 0x13B2 JUMP JUMPDEST PUSH1 0x40 MLOAD SWAP1 ISZERO ISZERO DUP2 MSTORE PUSH1 0x20 ADD PUSH2 0x2E0 JUMP JUMPDEST CALLVALUE DUP1 ISZERO PUSH2 0x371 JUMPI PUSH1 0x0 DUP1 REVERT JUMPDEST POP PUSH1 0xA SLOAD PUSH2 0x385 SWAP1 PUSH1 0x1 PUSH1 0x1 PUSH1 0xA0 SHL SUB AND DUP2 JUMP JUMPDEST PUSH1 0x40 MLOAD PUSH1 0x1 PUSH1 0x1 PUSH1 0xA0 SHL SUB SWAP1 SWAP2 AND DUP2 MSTORE PUSH1 0x20 ADD PUSH2 0x2E0 JUMP JUMPDEST CALLVALUE DUP1 ISZERO PUSH2 0x3A9 JUMPI PUSH1 0x0 DUP1 REVERT JUMPDEST POP PUSH1 0x2 SLOAD PUSH2 0x2D6 JUMP JUMPDEST CALLVALUE DUP1 ISZERO PUSH2 0x3BE JUMPI PUSH1 0x0 DUP1 REVERT JUMPDEST POP PUSH2 0x2D6 PUSH1 0xC SLOAD DUP2 JUMP JUMPDEST CALLVALUE DUP1 ISZERO PUSH2 0x3D4 JUMPI PUSH1 0x0 DUP1 REVERT JUMPDEST POP PUSH2 0x2AF PUSH2 0x3E3 CALLDATASIZE PUSH1 0x4 PUSH2 0x4055 JUMP JUMPDEST PUSH2 0x13C9 JUMP JUMPDEST CALLVALUE DUP1 ISZERO PUSH2 0x3F4 JUMPI PUSH1 0x0 DUP1 REVERT JUMPDEST POP PUSH2 0x355 PUSH2 0x403 CALLDATASIZE PUSH1 0x4 PUSH2 0x4081 JUMP JUMPDEST PUSH2 0x157B JUMP JUMPDEST CALLVALUE DUP1 ISZERO PUSH2 0x414 JUMPI PUSH1 0x0 DUP1 REVERT JUMPDEST POP PUSH1 0x40 MLOAD PUSH1 0x12 DUP2 MSTORE PUSH1 0x20 ADD PUSH2 0x2E0 JUMP JUMPDEST CALLVALUE DUP1 ISZERO PUSH2 0x430 JUMPI PUSH1 0x0 DUP1 REVERT JUMPDEST POP PUSH2 0x2AF PUSH2 0x43F CALLDATASIZE PUSH1 0x4 PUSH2 0x40D0 JUMP JUMPDEST PUSH2 0x1625 JUMP JUMPDEST CALLVALUE DUP1 ISZERO PUSH2 0x450 JUMPI PUSH1 0x0 DUP1 REVERT JUMPDEST POP PUSH2 0x355 PUSH2 0x45F CALLDATASIZE PUSH1 0x4 PUSH2 0x4055 JUMP JUMPDEST PUSH2 0x16A7 JUMP JUMPDEST CALLVALUE DUP1 ISZERO PUSH2 0x470 JUMPI PUSH1 0x0 DUP1 REVERT JUMPDEST POP PUSH2 0x2D6 PUSH1 0xD SLOAD DUP2 JUMP JUMPDEST CALLVALUE DUP1 ISZERO PUSH2 0x486 JUMPI PUSH1 0x0 DUP1 REVERT JUMPDEST POP PUSH2 0x2AF PUSH2 0x495 CALLDATASIZE PUSH1 0x4 PUSH2 0x40ED JUMP JUMPDEST PUSH2 0x16E3 JUMP JUMPDEST PUSH2 0x2D6 PUSH2 0x4A8 CALLDATASIZE PUSH1 0x4 PUSH2 0x4055 JUMP JUMPDEST PUSH2 0x85C JUMP JUMPDEST CALLVALUE DUP1 ISZERO PUSH2 0x4B9 JUMPI PUSH1 0x0 DUP1 REVERT JUMPDEST POP PUSH2 0x2D6 PUSH2 0x178A JUMP JUMPDEST CALLVALUE DUP1 ISZERO PUSH2 0x4CE JUMPI PUSH1 0x0 DUP1 REVERT JUMPDEST POP PUSH2 0x385 PUSH2 0x4DD CALLDATASIZE PUSH1 0x4 PUSH2 0x40ED JUMP JUMPDEST PUSH2 0x17D8 JUMP JUMPDEST CALLVALUE DUP1 ISZERO PUSH2 0x4EE JUMPI PUSH1 0x0 DUP1 REVERT JUMPDEST POP PUSH2 0x2AF PUSH2 0x4FD CALLDATASIZE PUSH1 0x4 PUSH2 0x4106 JUMP JUMPDEST PUSH2 0x1802 JUMP JUMPDEST CALLVALUE DUP1 ISZERO PUSH2 0x50E JUMPI PUSH1 0x0 DUP1 REVERT JUMPDEST POP PUSH1 0xE SLOAD PUSH2 0x385 SWAP1 PUSH1 0x1 PUSH1 0x1 PUSH1 0xA0 SHL SUB AND DUP2 JUMP JUMPDEST CALLVALUE DUP1 ISZERO PUSH2 0x52E JUMPI PUSH1 0x0 DUP1 REVERT JUMPDEST POP PUSH1 0xB SLOAD PUSH2 0x355 SWAP1 PUSH1 0x1 PUSH1 0xA0 SHL SWAP1 DIV PUSH1 0xFF AND DUP2 JUMP JUMPDEST CALLVALUE DUP1 ISZERO PUSH2 0x54F JUMPI PUSH1 0x0 DUP1 REVERT JUMPDEST POP PUSH2 0x2D6 PUSH2 0x55E CALLDATASIZE PUSH1 0x4 PUSH2 0x4106 JUMP JUMPDEST PUSH1 0x1 PUSH1 0x1 PUSH1 0xA0 SHL SUB AND PUSH1 0x0 SWAP1 DUP2 MSTORE PUSH1 0x20 DUP2 SWAP1 MSTORE PUSH1 0x40 SWAP1 KECCAK256 SLOAD SWAP1 JUMP JUMPDEST CALLVALUE DUP1 ISZERO PUSH2 0x585 JUMPI PUSH1 0x0 DUP1 REVERT JUMPDEST POP PUSH2 0x2AF PUSH2 0x1CBB JUMP JUMPDEST CALLVALUE DUP1 ISZERO PUSH2 0x59A JUMPI PUSH1 0x0 DUP1 REVERT JUMPDEST POP PUSH2 0x2AF PUSH2 0x1CF1 JUMP JUMPDEST CALLVALUE DUP1 ISZERO PUSH2 0x5AF JUMPI PUSH1 0x0 DUP1 REVERT JUMPDEST POP PUSH1 0x11 SLOAD PUSH2 0x385 SWAP1 PUSH1 0x1 PUSH1 0x1 PUSH1 0xA0 SHL SUB AND DUP2 JUMP JUMPDEST CALLVALUE DUP1 ISZERO PUSH2 0x5CF JUMPI PUSH1 0x0 DUP1 REVERT JUMPDEST POP PUSH1 0x5 SLOAD PUSH1 0x1 PUSH1 0x1 PUSH1 0xA0 SHL SUB AND PUSH2 0x385 JUMP JUMPDEST CALLVALUE DUP1 ISZERO PUSH2 0x5ED JUMPI PUSH1 0x0 DUP1 REVERT JUMPDEST POP PUSH2 0x2D6 PUSH1 0x2 DUP2 JUMP JUMPDEST CALLVALUE DUP1 ISZERO PUSH2 0x602 JUMPI PUSH1 0x0 DUP1 REVERT JUMPDEST POP PUSH2 0x2FE PUSH2 0x1D37 JUMP JUMPDEST CALLVALUE DUP1 ISZERO PUSH2 0x617 JUMPI PUSH1 0x0 DUP1 REVERT JUMPDEST POP PUSH2 0x2D6 PUSH2 0x1D46 JUMP JUMPDEST CALLVALUE DUP1 ISZERO PUSH2 0x62C JUMPI PUSH1 0x0 DUP1 REVERT JUMPDEST POP PUSH2 0x2D6 PUSH2 0x63B CALLDATASIZE PUSH1 0x4 PUSH2 0x40ED JUMP JUMPDEST PUSH2 0x1E2E JUMP JUMPDEST CALLVALUE DUP1 ISZERO PUSH2 0x64C JUMPI PUSH1 0x0 DUP1 REVERT JUMPDEST POP PUSH1 0x8 SLOAD PUSH2 0x2D6 JUMP JUMPDEST CALLVALUE DUP1 ISZERO PUSH2 0x661 JUMPI PUSH1 0x0 DUP1 REVERT JUMPDEST POP PUSH2 0x2AF PUSH2 0x670 CALLDATASIZE PUSH1 0x4 PUSH2 0x4106 JUMP JUMPDEST PUSH2 0x1F38 JUMP JUMPDEST CALLVALUE DUP1 ISZERO PUSH2 0x681 JUMPI PUSH1 0x0 DUP1 REVERT JUMPDEST POP PUSH2 0x355 PUSH2 0x690 CALLDATASIZE PUSH1 0x4 PUSH2 0x4055 JUMP JUMPDEST PUSH2 0x2500 JUMP JUMPDEST CALLVALUE DUP1 ISZERO PUSH2 0x6A1 JUMPI PUSH1 0x0 DUP1 REVERT JUMPDEST POP PUSH1 0x10 SLOAD PUSH2 0x385 SWAP1 PUSH1 0x1 PUSH1 0x1 PUSH1 0xA0 SHL SUB AND DUP2 JUMP JUMPDEST CALLVALUE DUP1 ISZERO PUSH2 0x6C1 JUMPI PUSH1 0x0 DUP1 REVERT JUMPDEST POP PUSH2 0x2D6 PUSH2 0x6D0 CALLDATASIZE PUSH1 0x4 PUSH2 0x40D0 JUMP JUMPDEST PUSH2 0x2599 JUMP JUMPDEST CALLVALUE DUP1 ISZERO PUSH2 0x6E1 JUMPI PUSH1 0x0 DUP1 REVERT JUMPDEST POP PUSH2 0x355 PUSH2 0x6F0 CALLDATASIZE PUSH1 0x4 PUSH2 0x4055 JUMP JUMPDEST PUSH2 0x2885 JUMP JUMPDEST CALLVALUE DUP1 ISZERO PUSH2 0x701 JUMPI PUSH1 0x0 DUP1 REVERT JUMPDEST POP PUSH1 0x12 SLOAD PUSH2 0x385 SWAP1 PUSH1 0x1 PUSH1 0x1 PUSH1 0xA0 SHL SUB AND DUP2 JUMP JUMPDEST CALLVALUE DUP1 ISZERO PUSH2 0x721 JUMPI PUSH1 0x0 DUP1 REVERT JUMPDEST POP PUSH1 0xF SLOAD PUSH2 0x385 SWAP1 PUSH1 0x1 PUSH1 0x1 PUSH1 0xA0 SHL SUB AND DUP2 JUMP JUMPDEST CALLVALUE DUP1 ISZERO PUSH2 0x741 JUMPI PUSH1 0x0 DUP1 REVERT JUMPDEST POP PUSH2 0x2D6 PUSH1 0x9 SLOAD DUP2 JUMP JUMPDEST CALLVALUE DUP1 ISZERO PUSH2 0x757 JUMPI PUSH1 0x0 DUP1 REVERT JUMPDEST POP PUSH2 0x2D6 PUSH2 0x2892 JUMP JUMPDEST CALLVALUE DUP1 ISZERO PUSH2 0x76C JUMPI PUSH1 0x0 DUP1 REVERT JUMPDEST POP PUSH1 0xB SLOAD PUSH2 0x385 SWAP1 PUSH1 0x1 PUSH1 0x1 PUSH1 0xA0 SHL SUB AND DUP2 JUMP JUMPDEST CALLVALUE DUP1 ISZERO PUSH2 0x78C JUMPI PUSH1 0x0 DUP1 REVERT JUMPDEST POP PUSH2 0x355 PUSH2 0x2A44 JUMP JUMPDEST CALLVALUE DUP1 ISZERO PUSH2 0x7A1 JUMPI PUSH1 0x0 DUP1 REVERT JUMPDEST POP PUSH2 0x2AF PUSH2 0x7B0 CALLDATASIZE PUSH1 0x4 PUSH2 0x40ED JUMP JUMPDEST PUSH2 0x2D7C JUMP JUMPDEST CALLVALUE DUP1 ISZERO PUSH2 0x7C1 JUMPI PUSH1 0x0 DUP1 REVERT JUMPDEST POP PUSH2 0x2D6 PUSH2 0x7D0 CALLDATASIZE PUSH1 0x4 PUSH2 0x4123 JUMP JUMPDEST PUSH1 0x1 PUSH1 0x1 PUSH1 0xA0 SHL SUB SWAP2 DUP3 AND PUSH1 0x0 SWAP1 DUP2 MSTORE PUSH1 0x1 PUSH1 0x20 SWAP1 DUP2 MSTORE PUSH1 0x40 DUP1 DUP4 KECCAK256 SWAP4 SWAP1 SWAP5 AND DUP3 MSTORE SWAP2 SWAP1 SWAP2 MSTORE KECCAK256 SLOAD SWAP1 JUMP JUMPDEST CALLVALUE DUP1 ISZERO PUSH2 0x807 JUMPI PUSH1 0x0 DUP1 REVERT JUMPDEST POP PUSH2 0x2AF PUSH2 0x816 CALLDATASIZE PUSH1 0x4 PUSH2 0x4106 JUMP JUMPDEST PUSH2 0x2DDB JUMP JUMPDEST CALLVALUE DUP1 ISZERO PUSH2 0x827 JUMPI PUSH1 0x0 DUP1 REVERT JUMPDEST POP PUSH2 0x2AF PUSH2 0x836 CALLDATASIZE PUSH1 0x4 PUSH2 0x4106 JUMP JUMPDEST PUSH2 0x2E53 JUMP JUMPDEST CALLVALUE DUP1 ISZERO PUSH2 0x847 JUMPI PUSH1 0x0 DUP1 REVERT JUMPDEST POP PUSH1 0x12 SLOAD PUSH2 0x355 SWAP1 PUSH1 0x1 PUSH1 0xA0 SHL SWAP1 DIV PUSH1 0xFF AND DUP2 JUMP JUMPDEST PUSH1 0x0 PUSH1 0x2 PUSH1 0x6 SLOAD SUB PUSH2 0x8B5 JUMPI PUSH1 0x40 MLOAD PUSH3 0x461BCD PUSH1 0xE5 SHL DUP2 MSTORE PUSH1 0x20 PUSH1 0x4 DUP3 ADD MSTORE PUSH1 0x1F PUSH1 0x24 DUP3 ADD MSTORE PUSH32 0x5265656E7472616E637947756172643A207265656E7472616E742063616C6C00 PUSH1 0x44 DUP3 ADD MSTORE PUSH1 0x64 ADD JUMPDEST PUSH1 0x40 MLOAD DUP1 SWAP2 SUB SWAP1 REVERT JUMPDEST PUSH1 0x2 PUSH1 0x6 SSTORE PUSH1 0xB SLOAD PUSH1 0x1 PUSH1 0xA0 SHL SWAP1 DIV PUSH1 0xFF AND PUSH2 0x908 JUMPI PUSH1 0x40 MLOAD PUSH3 0x461BCD PUSH1 0xE5 SHL DUP2 MSTORE PUSH1 0x20 PUSH1 0x4 DUP3 ADD MSTORE PUSH1 0x12 PUSH1 0x24 DUP3 ADD MSTORE PUSH18 0x11D1558E88141BDBDB08111A5CD8589B1959 PUSH1 0x72 SHL PUSH1 0x44 DUP3 ADD MSTORE PUSH1 0x64 ADD PUSH2 0x8AC JUMP JUMPDEST PUSH2 0x910 PUSH2 0x2A44 JUMP JUMPDEST PUSH2 0x92C JUMPI PUSH1 0x40 MLOAD PUSH3 0x461BCD PUSH1 0xE5 SHL DUP2 MSTORE PUSH1 0x4 ADD PUSH2 0x8AC SWAP1 PUSH2 0x4151 JUMP JUMPDEST PUSH1 0xA SLOAD PUSH1 0x1 PUSH1 0x1 PUSH1 0xA0 SHL SUB DUP5 DUP2 AND SWAP2 AND EQ DUP1 PUSH2 0x955 JUMPI POP PUSH1 0xB SLOAD PUSH1 0x1 PUSH1 0x1 PUSH1 0xA0 SHL SUB DUP5 DUP2 AND SWAP2 AND EQ JUMPDEST PUSH2 0x996 JUMPI PUSH1 0x40 MLOAD PUSH3 0x461BCD PUSH1 0xE5 SHL DUP2 MSTORE PUSH1 0x20 PUSH1 0x4 DUP3 ADD MSTORE PUSH1 0x12 PUSH1 0x24 DUP3 ADD MSTORE PUSH18 0x23A2AB1D1024B73B30B634B2102A37B5B2B7 PUSH1 0x71 SHL PUSH1 0x44 DUP3 ADD MSTORE PUSH1 0x64 ADD PUSH2 0x8AC JUMP JUMPDEST PUSH1 0x0 DUP3 GT DUP1 PUSH2 0x9A5 JUMPI POP PUSH1 0x0 CALLVALUE GT JUMPDEST PUSH2 0x9E5 JUMPI PUSH1 0x40 MLOAD PUSH3 0x461BCD PUSH1 0xE5 SHL DUP2 MSTORE PUSH1 0x20 PUSH1 0x4 DUP3 ADD MSTORE PUSH1 0x11 PUSH1 0x24 DUP3 ADD MSTORE PUSH17 0x4745563A204465706F736974205A65726F PUSH1 0x78 SHL PUSH1 0x44 DUP3 ADD MSTORE PUSH1 0x64 ADD PUSH2 0x8AC JUMP JUMPDEST CALLVALUE ISZERO PUSH2 0xAAD JUMPI PUSH1 0x12 SLOAD PUSH1 0x1 PUSH1 0x1 PUSH1 0xA0 SHL SUB DUP5 DUP2 AND SWAP2 AND EQ PUSH2 0xA3C JUMPI PUSH1 0x40 MLOAD PUSH3 0x461BCD PUSH1 0xE5 SHL DUP2 MSTORE PUSH1 0x20 PUSH1 0x4 DUP3 ADD MSTORE PUSH1 0x11 PUSH1 0x24 DUP3 ADD MSTORE PUSH17 0x8E8AAC744092DCECC2D8D2C840AECAE8D PUSH1 0x7B SHL PUSH1 0x44 DUP3 ADD MSTORE PUSH1 0x64 ADD PUSH2 0x8AC JUMP JUMPDEST PUSH1 0x12 PUSH1 0x0 SWAP1 SLOAD SWAP1 PUSH2 0x100 EXP SWAP1 DIV PUSH1 0x1 PUSH1 0x1 PUSH1 0xA0 SHL SUB AND PUSH1 0x1 PUSH1 0x1 PUSH1 0xA0 SHL SUB AND PUSH4 0xD0E30DB0 CALLVALUE PUSH1 0x40 MLOAD DUP3 PUSH4 0xFFFFFFFF AND PUSH1 0xE0 SHL DUP2 MSTORE PUSH1 0x4 ADD PUSH1 0x0 PUSH1 0x40 MLOAD DUP1 DUP4 SUB DUP2 DUP6 DUP9 DUP1 EXTCODESIZE ISZERO DUP1 ISZERO PUSH2 0xA8C JUMPI PUSH1 0x0 DUP1 REVERT JUMPDEST POP GAS CALL ISZERO DUP1 ISZERO PUSH2 0xAA0 JUMPI RETURNDATASIZE PUSH1 0x0 DUP1 RETURNDATACOPY RETURNDATASIZE PUSH1 0x0 REVERT JUMPDEST POP POP POP POP POP CALLVALUE SWAP2 POP PUSH2 0xAC2 JUMP JUMPDEST PUSH2 0xAC2 PUSH1 0x1 PUSH1 0x1 PUSH1 0xA0 SHL SUB DUP5 AND CALLER ADDRESS DUP6 PUSH2 0x2EEE JUMP JUMPDEST PUSH1 0xA SLOAD PUSH1 0x0 SWAP1 PUSH2 0x2710 SWAP1 PUSH2 0xAE3 SWAP1 PUSH1 0x1 PUSH1 0x1 PUSH1 0xA0 SHL SUB DUP8 DUP2 AND SWAP2 AND EQ PUSH2 0x2599 JUMP JUMPDEST PUSH2 0xAED SWAP1 DUP6 PUSH2 0x4192 JUMP JUMPDEST PUSH2 0xAF7 SWAP2 SWAP1 PUSH2 0x41BF JUMP JUMPDEST PUSH1 0xE SLOAD SWAP1 SWAP2 POP PUSH2 0xB14 SWAP1 PUSH1 0x1 PUSH1 0x1 PUSH1 0xA0 SHL SUB DUP7 DUP2 AND SWAP2 AND DUP4 PUSH2 0x2F5F JUMP JUMPDEST PUSH1 0x0 DUP5 PUSH1 0x1 PUSH1 0x1 PUSH1 0xA0 SHL SUB AND PUSH4 0x313CE567 PUSH1 0x40 MLOAD DUP2 PUSH4 0xFFFFFFFF AND PUSH1 0xE0 SHL DUP2 MSTORE PUSH1 0x4 ADD PUSH1 0x20 PUSH1 0x40 MLOAD DUP1 DUP4 SUB DUP2 DUP7 GAS STATICCALL ISZERO DUP1 ISZERO PUSH2 0xB54 JUMPI RETURNDATASIZE PUSH1 0x0 DUP1 RETURNDATACOPY RETURNDATASIZE PUSH1 0x0 REVERT JUMPDEST POP POP POP POP PUSH1 0x40 MLOAD RETURNDATASIZE PUSH1 0x1F NOT PUSH1 0x1F DUP3 ADD AND DUP3 ADD DUP1 PUSH1 0x40 MSTORE POP DUP2 ADD SWAP1 PUSH2 0xB78 SWAP2 SWAP1 PUSH2 0x41E9 JUMP JUMPDEST PUSH2 0xB83 SWAP1 PUSH1 0xA PUSH2 0x42E8 JUMP JUMPDEST PUSH2 0xB8D DUP4 DUP7 PUSH2 0x42F7 JUMP JUMPDEST PUSH1 0x11 SLOAD PUSH1 0x40 MLOAD PUSH4 0xB3596F07 PUSH1 0xE0 SHL DUP2 MSTORE PUSH1 0x1 PUSH1 0x1 PUSH1 0xA0 SHL SUB DUP10 DUP2 AND PUSH1 0x4 DUP4 ADD MSTORE SWAP1 SWAP2 AND SWAP1 PUSH4 0xB3596F07 SWAP1 PUSH1 0x24 ADD PUSH1 0x20 PUSH1 0x40 MLOAD DUP1 DUP4 SUB DUP2 DUP7 GAS STATICCALL ISZERO DUP1 ISZERO PUSH2 0xBD7 JUMPI RETURNDATASIZE PUSH1 0x0 DUP1 RETURNDATACOPY RETURNDATASIZE PUSH1 0x0 REVERT JUMPDEST POP POP POP POP PUSH1 0x40 MLOAD RETURNDATASIZE PUSH1 0x1F NOT PUSH1 0x1F DUP3 ADD AND DUP3 ADD DUP1 PUSH1 0x40 MSTORE POP DUP2 ADD SWAP1 PUSH2 0xBFB SWAP2 SWAP1 PUSH2 0x430A JUMP JUMPDEST PUSH2 0xC05 SWAP2 SWAP1 PUSH2 0x4192 JUMP JUMPDEST PUSH2 0xC0F SWAP2 SWAP1 PUSH2 0x41BF JUMP JUMPDEST SWAP1 POP PUSH2 0xC19 PUSH2 0x1D46 JUMP JUMPDEST PUSH2 0xC23 SWAP1 DUP3 PUSH2 0x4323 JUMP JUMPDEST PUSH1 0xD SLOAD GT PUSH2 0xC6A JUMPI PUSH1 0x40 MLOAD PUSH3 0x461BCD PUSH1 0xE5 SHL DUP2 MSTORE PUSH1 0x20 PUSH1 0x4 DUP3 ADD MSTORE PUSH1 0x14 PUSH1 0x24 DUP3 ADD MSTORE PUSH20 0x11D1558E8813585E0810D85C0814995858DA1959 PUSH1 0x62 SHL PUSH1 0x44 DUP3 ADD MSTORE PUSH1 0x64 ADD PUSH2 0x8AC JUMP JUMPDEST PUSH1 0x0 PUSH2 0xC74 PUSH2 0x1D46 JUMP JUMPDEST SWAP1 POP PUSH1 0x0 PUSH2 0xC81 PUSH1 0x2 SLOAD SWAP1 JUMP JUMPDEST SWAP1 POP DUP1 ISZERO DUP1 PUSH2 0xC8E JUMPI POP DUP2 ISZERO JUMPDEST ISZERO PUSH2 0xCA9 JUMPI PUSH2 0xCA2 DUP4 PUSH5 0x2540BE400 PUSH2 0x4192 JUMP JUMPDEST SWAP5 POP PUSH2 0xCC1 JUMP JUMPDEST DUP2 PUSH2 0xCB4 DUP5 DUP4 PUSH2 0x4192 JUMP JUMPDEST PUSH2 0xCBE SWAP2 SWAP1 PUSH2 0x41BF JUMP JUMPDEST SWAP5 POP JUMPDEST PUSH2 0xCC9 PUSH2 0x1CF1 JUMP JUMPDEST PUSH1 0x0 DUP6 GT PUSH2 0xD19 JUMPI PUSH1 0x40 MLOAD PUSH3 0x461BCD PUSH1 0xE5 SHL DUP2 MSTORE PUSH1 0x20 PUSH1 0x4 DUP3 ADD MSTORE PUSH1 0x17 PUSH1 0x24 DUP3 ADD MSTORE PUSH32 0x4745563A204E6F204C6971756964697479204164646564000000000000000000 PUSH1 0x44 DUP3 ADD MSTORE PUSH1 0x64 ADD PUSH2 0x8AC JUMP JUMPDEST PUSH2 0xD23 CALLER DUP7 PUSH2 0x2F94 JUMP JUMPDEST PUSH1 0x40 DUP1 MLOAD DUP8 DUP2 MSTORE PUSH1 0x20 DUP2 ADD DUP8 SWAP1 MSTORE PUSH1 0x1 PUSH1 0x1 PUSH1 0xA0 SHL SUB DUP10 AND SWAP2 CALLER SWAP2 PUSH32 0xDCBC1C05240F31FF3AD067EF1EE35CE4997762752E3A095284754544F4C709D7 SWAP2 ADD JUMPDEST PUSH1 0x40 MLOAD DUP1 SWAP2 SUB SWAP1 LOG3 POP POP PUSH1 0x1 PUSH1 0x6 SSTORE POP SWAP1 SWAP4 SWAP3 POP POP POP JUMP JUMPDEST PUSH1 0x0 PUSH1 0x2 PUSH1 0x6 SLOAD SUB PUSH2 0xDCE JUMPI PUSH1 0x40 MLOAD PUSH3 0x461BCD PUSH1 0xE5 SHL DUP2 MSTORE PUSH1 0x20 PUSH1 0x4 DUP3 ADD MSTORE PUSH1 0x1F PUSH1 0x24 DUP3 ADD MSTORE PUSH32 0x5265656E7472616E637947756172643A207265656E7472616E742063616C6C00 PUSH1 0x44 DUP3 ADD MSTORE PUSH1 0x64 ADD PUSH2 0x8AC JUMP JUMPDEST PUSH1 0x2 PUSH1 0x6 SSTORE PUSH2 0xDDB PUSH2 0x2A44 JUMP JUMPDEST PUSH2 0xDF7 JUMPI PUSH1 0x40 MLOAD PUSH3 0x461BCD PUSH1 0xE5 SHL DUP2 MSTORE PUSH1 0x4 ADD PUSH2 0x8AC SWAP1 PUSH2 0x4151 JUMP JUMPDEST DUP3 PUSH1 0x0 SUB PUSH2 0xE12 JUMPI CALLER PUSH1 0x0 SWAP1 DUP2 MSTORE PUSH1 0x20 DUP2 SWAP1 MSTORE PUSH1 0x40 SWAP1 KECCAK256 SLOAD SWAP3 POP JUMPDEST CALLER PUSH1 0x0 SWAP1 DUP2 MSTORE PUSH1 0x20 DUP2 SWAP1 MSTORE PUSH1 0x40 SWAP1 KECCAK256 SLOAD DUP4 GT ISZERO PUSH2 0xE71 JUMPI PUSH1 0x40 MLOAD PUSH3 0x461BCD PUSH1 0xE5 SHL DUP2 MSTORE PUSH1 0x20 PUSH1 0x4 DUP3 ADD MSTORE PUSH1 0x19 PUSH1 0x24 DUP3 ADD MSTORE PUSH32 0x4745563A20496E73756666696369656E742042616C616E636500000000000000 PUSH1 0x44 DUP3 ADD MSTORE PUSH1 0x64 ADD PUSH2 0x8AC JUMP JUMPDEST PUSH1 0x0 DUP4 GT PUSH2 0xEB6 JUMPI PUSH1 0x40 MLOAD PUSH3 0x461BCD PUSH1 0xE5 SHL DUP2 MSTORE PUSH1 0x20 PUSH1 0x4 DUP3 ADD MSTORE PUSH1 0x12 PUSH1 0x24 DUP3 ADD MSTORE PUSH18 0x4745563A205769746864726177205A65726F PUSH1 0x70 SHL PUSH1 0x44 DUP3 ADD MSTORE PUSH1 0x64 ADD PUSH2 0x8AC JUMP JUMPDEST PUSH1 0x0 PUSH2 0xEC0 PUSH2 0x1D46 JUMP JUMPDEST SWAP1 POP PUSH1 0x0 PUSH2 0xECD PUSH1 0x2 SLOAD SWAP1 JUMP JUMPDEST PUSH2 0xED7 DUP7 DUP5 PUSH2 0x4192 JUMP JUMPDEST PUSH2 0xEE1 SWAP2 SWAP1 PUSH2 0x41BF JUMP JUMPDEST PUSH1 0x11 SLOAD PUSH1 0x40 MLOAD PUSH4 0xB3596F07 PUSH1 0xE0 SHL DUP2 MSTORE PUSH1 0x1 PUSH1 0x1 PUSH1 0xA0 SHL SUB DUP8 DUP2 AND PUSH1 0x4 DUP4 ADD MSTORE SWAP3 SWAP4 POP SWAP2 AND SWAP1 PUSH4 0xB3596F07 SWAP1 PUSH1 0x24 ADD PUSH1 0x20 PUSH1 0x40 MLOAD DUP1 DUP4 SUB DUP2 DUP7 GAS STATICCALL ISZERO DUP1 ISZERO PUSH2 0xF2D JUMPI RETURNDATASIZE PUSH1 0x0 DUP1 RETURNDATACOPY RETURNDATASIZE PUSH1 0x0 REVERT JUMPDEST POP POP POP POP PUSH1 0x40 MLOAD RETURNDATASIZE PUSH1 0x1F NOT PUSH1 0x1F DUP3 ADD AND DUP3 ADD DUP1 PUSH1 0x40 MSTORE POP DUP2 ADD SWAP1 PUSH2 0xF51 SWAP2 SWAP1 PUSH2 0x430A JUMP JUMPDEST DUP5 PUSH1 0x1 PUSH1 0x1 PUSH1 0xA0 SHL SUB AND PUSH4 0x313CE567 PUSH1 0x40 MLOAD DUP2 PUSH4 0xFFFFFFFF AND PUSH1 0xE0 SHL DUP2 MSTORE PUSH1 0x4 ADD PUSH1 0x20 PUSH1 0x40 MLOAD DUP1 DUP4 SUB DUP2 DUP7 GAS STATICCALL ISZERO DUP1 ISZERO PUSH2 0xF8F JUMPI RETURNDATASIZE PUSH1 0x0 DUP1 RETURNDATACOPY RETURNDATASIZE PUSH1 0x0 REVERT JUMPDEST POP POP POP POP PUSH1 0x40 MLOAD RETURNDATASIZE PUSH1 0x1F NOT PUSH1 0x1F DUP3 ADD AND DUP3 ADD DUP1 PUSH1 0x40 MSTORE POP DUP2 ADD SWAP1 PUSH2 0xFB3 SWAP2 SWAP1 PUSH2 0x41E9 JUMP JUMPDEST PUSH2 0xFBE SWAP1 PUSH1 0xA PUSH2 0x42E8 JUMP JUMPDEST PUSH2 0xFC8 SWAP1 DUP4 PUSH2 0x4192 JUMP JUMPDEST PUSH2 0xFD2 SWAP2 SWAP1 PUSH2 0x41BF JUMP JUMPDEST PUSH1 0xB SLOAD SWAP1 SWAP4 POP PUSH1 0x0 SWAP1 PUSH2 0x2710 SWAP1 PUSH2 0xFF6 SWAP1 PUSH1 0x1 PUSH1 0x1 PUSH1 0xA0 SHL SUB DUP9 DUP2 AND SWAP2 AND EQ PUSH2 0x2599 JUMP JUMPDEST PUSH2 0x1000 SWAP1 DUP7 PUSH2 0x4192 JUMP JUMPDEST PUSH2 0x100A SWAP2 SWAP1 PUSH2 0x41BF JUMP JUMPDEST SWAP1 POP PUSH2 0x1016 CALLER DUP8 PUSH2 0x3073 JUMP JUMPDEST PUSH2 0x101E PUSH2 0x31C1 JUMP JUMPDEST PUSH1 0xE SLOAD PUSH2 0x1038 SWAP1 PUSH1 0x1 PUSH1 0x1 PUSH1 0xA0 SHL SUB DUP8 DUP2 AND SWAP2 AND DUP4 PUSH2 0x2F5F JUMP JUMPDEST PUSH1 0x0 PUSH2 0x1044 DUP3 DUP7 PUSH2 0x42F7 JUMP JUMPDEST PUSH1 0x12 SLOAD SWAP1 SWAP2 POP PUSH1 0x1 PUSH1 0x1 PUSH1 0xA0 SHL SUB SWAP1 DUP2 AND SWAP1 DUP8 AND SUB PUSH2 0x10EE JUMPI PUSH1 0x12 SLOAD PUSH1 0x40 MLOAD PUSH4 0x2E1A7D4D PUSH1 0xE0 SHL DUP2 MSTORE PUSH1 0x4 DUP2 ADD DUP4 SWAP1 MSTORE PUSH1 0x1 PUSH1 0x1 PUSH1 0xA0 SHL SUB SWAP1 SWAP2 AND SWAP1 PUSH4 0x2E1A7D4D SWAP1 PUSH1 0x24 ADD PUSH1 0x0 PUSH1 0x40 MLOAD DUP1 DUP4 SUB DUP2 PUSH1 0x0 DUP8 DUP1 EXTCODESIZE ISZERO DUP1 ISZERO PUSH2 0x10A3 JUMPI PUSH1 0x0 DUP1 REVERT JUMPDEST POP GAS CALL ISZERO DUP1 ISZERO PUSH2 0x10B7 JUMPI RETURNDATASIZE PUSH1 0x0 DUP1 RETURNDATACOPY RETURNDATASIZE PUSH1 0x0 REVERT JUMPDEST POP POP PUSH1 0x40 MLOAD CALLER SWAP3 POP DUP4 ISZERO PUSH2 0x8FC MUL SWAP2 POP DUP4 SWAP1 PUSH1 0x0 DUP2 DUP2 DUP2 DUP6 DUP9 DUP9 CALL SWAP4 POP POP POP POP ISZERO DUP1 ISZERO PUSH2 0x10E8 JUMPI RETURNDATASIZE PUSH1 0x0 DUP1 RETURNDATACOPY RETURNDATASIZE PUSH1 0x0 REVERT JUMPDEST POP PUSH2 0x1102 JUMP JUMPDEST PUSH2 0x1102 PUSH1 0x1 PUSH1 0x1 PUSH1 0xA0 SHL SUB DUP8 AND CALLER DUP4 PUSH2 0x2F5F JUMP JUMPDEST PUSH1 0xB SLOAD PUSH1 0x1 PUSH1 0xA0 SHL SWAP1 DIV PUSH1 0xFF AND ISZERO PUSH2 0x111C JUMPI PUSH2 0x111C PUSH2 0x31E9 JUMP JUMPDEST PUSH1 0x40 DUP1 MLOAD DUP7 DUP2 MSTORE PUSH1 0x20 DUP2 ADD DUP10 SWAP1 MSTORE PUSH1 0x1 PUSH1 0x1 PUSH1 0xA0 SHL SUB DUP9 AND SWAP2 CALLER SWAP2 PUSH32 0xF341246ADAAC6F497BC2A656F546AB9E182111D630394F0C57C710A59A2CB567 SWAP2 ADD PUSH2 0xD62 JUMP JUMPDEST PUSH1 0x60 PUSH1 0x3 DUP1 SLOAD PUSH2 0x116E SWAP1 PUSH2 0x4336 JUMP JUMPDEST DUP1 PUSH1 0x1F ADD PUSH1 0x20 DUP1 SWAP2 DIV MUL PUSH1 0x20 ADD PUSH1 0x40 MLOAD SWAP1 DUP2 ADD PUSH1 0x40 MSTORE DUP1 SWAP3 SWAP2 SWAP1 DUP2 DUP2 MSTORE PUSH1 0x20 ADD DUP3 DUP1 SLOAD PUSH2 0x119A SWAP1 PUSH2 0x4336 JUMP JUMPDEST DUP1 ISZERO PUSH2 0x11E7 JUMPI DUP1 PUSH1 0x1F LT PUSH2 0x11BC JUMPI PUSH2 0x100 DUP1 DUP4 SLOAD DIV MUL DUP4 MSTORE SWAP2 PUSH1 0x20 ADD SWAP2 PUSH2 0x11E7 JUMP JUMPDEST DUP3 ADD SWAP2 SWAP1 PUSH1 0x0 MSTORE PUSH1 0x20 PUSH1 0x0 KECCAK256 SWAP1 JUMPDEST DUP2 SLOAD DUP2 MSTORE SWAP1 PUSH1 0x1 ADD SWAP1 PUSH1 0x20 ADD DUP1 DUP4 GT PUSH2 0x11CA JUMPI DUP3 SWAP1 SUB PUSH1 0x1F AND DUP3 ADD SWAP2 JUMPDEST POP POP POP POP POP SWAP1 POP SWAP1 JUMP JUMPDEST PUSH1 0x0 DUP1 PUSH1 0x0 JUMPDEST PUSH1 0x8 SLOAD DUP2 LT ISZERO PUSH2 0x13AD JUMPI PUSH1 0x0 PUSH1 0x8 DUP3 DUP2 SLOAD DUP2 LT PUSH2 0x1216 JUMPI PUSH2 0x1216 PUSH2 0x4370 JUMP JUMPDEST PUSH1 0x0 SWAP2 DUP3 MSTORE PUSH1 0x20 DUP3 KECCAK256 ADD SLOAD PUSH1 0x10 SLOAD PUSH1 0x40 MLOAD PUSH4 0x35EA6A75 PUSH1 0xE0 SHL DUP2 MSTORE PUSH1 0x1 PUSH1 0x1 PUSH1 0xA0 SHL SUB SWAP3 DUP4 AND PUSH1 0x4 DUP3 ADD DUP2 SWAP1 MSTORE SWAP5 POP SWAP2 AND SWAP1 PUSH4 0x35EA6A75 SWAP1 PUSH1 0x24 ADD PUSH2 0x180 PUSH1 0x40 MLOAD DUP1 DUP4 SUB DUP2 DUP7 GAS STATICCALL ISZERO DUP1 ISZERO PUSH2 0x126F JUMPI RETURNDATASIZE PUSH1 0x0 DUP1 RETURNDATACOPY RETURNDATASIZE PUSH1 0x0 REVERT JUMPDEST POP POP POP POP PUSH1 0x40 MLOAD RETURNDATASIZE PUSH1 0x1F NOT PUSH1 0x1F DUP3 ADD AND DUP3 ADD DUP1 PUSH1 0x40 MSTORE POP DUP2 ADD SWAP1 PUSH2 0x1293 SWAP2 SWAP1 PUSH2 0x444E JUMP JUMPDEST PUSH1 0xE0 ADD MLOAD PUSH1 0x40 MLOAD PUSH4 0x70A08231 PUSH1 0xE0 SHL DUP2 MSTORE ADDRESS PUSH1 0x4 DUP3 ADD MSTORE SWAP1 SWAP2 POP PUSH1 0x0 SWAP1 PUSH1 0x1 PUSH1 0x1 PUSH1 0xA0 SHL SUB DUP4 AND SWAP1 PUSH4 0x70A08231 SWAP1 PUSH1 0x24 ADD PUSH1 0x20 PUSH1 0x40 MLOAD DUP1 DUP4 SUB DUP2 DUP7 GAS STATICCALL ISZERO DUP1 ISZERO PUSH2 0x12E1 JUMPI RETURNDATASIZE PUSH1 0x0 DUP1 RETURNDATACOPY RETURNDATASIZE PUSH1 0x0 REVERT JUMPDEST POP POP POP POP PUSH1 0x40 MLOAD RETURNDATASIZE PUSH1 0x1F NOT PUSH1 0x1F DUP3 ADD AND DUP3 ADD DUP1 PUSH1 0x40 MSTORE POP DUP2 ADD SWAP1 PUSH2 0x1305 SWAP2 SWAP1 PUSH2 0x430A JUMP JUMPDEST SWAP1 POP PUSH1 0x0 DUP1 DUP5 PUSH1 0x1 PUSH1 0x1 PUSH1 0xA0 SHL SUB AND PUSH4 0x3B4E06E6 DUP5 PUSH1 0x40 MLOAD DUP3 PUSH4 0xFFFFFFFF AND PUSH1 0xE0 SHL DUP2 MSTORE PUSH1 0x4 ADD PUSH2 0x1338 SWAP2 DUP2 MSTORE PUSH1 0x20 ADD SWAP1 JUMP JUMPDEST PUSH1 0x40 DUP1 MLOAD DUP1 DUP4 SUB DUP2 DUP7 GAS STATICCALL ISZERO DUP1 ISZERO PUSH2 0x1354 JUMPI RETURNDATASIZE PUSH1 0x0 DUP1 RETURNDATACOPY RETURNDATASIZE PUSH1 0x0 REVERT JUMPDEST POP POP POP POP PUSH1 0x40 MLOAD RETURNDATASIZE PUSH1 0x1F NOT PUSH1 0x1F DUP3 ADD AND DUP3 ADD DUP1 PUSH1 0x40 MSTORE POP DUP2 ADD SWAP1 PUSH2 0x1378 SWAP2 SWAP1 PUSH2 0x453B JUMP JUMPDEST SWAP1 SWAP3 POP SWAP1 POP PUSH2 0x1387 DUP3 DUP10 PUSH2 0x4323 JUMP JUMPDEST SWAP8 POP PUSH2 0x1393 DUP2 DUP9 PUSH2 0x4323 JUMP JUMPDEST SWAP7 POP POP POP POP POP POP DUP1 DUP1 PUSH2 0x13A5 SWAP1 PUSH2 0x455F JUMP JUMPDEST SWAP2 POP POP PUSH2 0x11F7 JUMP JUMPDEST POP SWAP1 SWAP2 JUMP JUMPDEST PUSH1 0x0 PUSH2 0x13BF CALLER DUP5 DUP5 PUSH2 0x34B4 JUMP JUMPDEST POP PUSH1 0x1 JUMPDEST SWAP3 SWAP2 POP POP JUMP JUMPDEST PUSH1 0x5 SLOAD PUSH1 0x1 PUSH1 0x1 PUSH1 0xA0 SHL SUB AND CALLER EQ PUSH2 0x13F3 JUMPI PUSH1 0x40 MLOAD PUSH3 0x461BCD PUSH1 0xE5 SHL DUP2 MSTORE PUSH1 0x4 ADD PUSH2 0x8AC SWAP1 PUSH2 0x4578 JUMP JUMPDEST PUSH1 0x0 DUP3 PUSH1 0x1 PUSH1 0x1 PUSH1 0xA0 SHL SUB AND PUSH4 0x443EC74D PUSH1 0x40 MLOAD DUP2 PUSH4 0xFFFFFFFF AND PUSH1 0xE0 SHL DUP2 MSTORE PUSH1 0x4 ADD PUSH1 0x40 DUP1 MLOAD DUP1 DUP4 SUB DUP2 DUP7 GAS STATICCALL ISZERO DUP1 ISZERO PUSH2 0x1432 JUMPI RETURNDATASIZE PUSH1 0x0 DUP1 RETURNDATACOPY RETURNDATASIZE PUSH1 0x0 REVERT JUMPDEST POP POP POP POP PUSH1 0x40 MLOAD RETURNDATASIZE PUSH1 0x1F NOT PUSH1 0x1F DUP3 ADD AND DUP3 ADD DUP1 PUSH1 0x40 MSTORE POP DUP2 ADD SWAP1 PUSH2 0x1456 SWAP2 SWAP1 PUSH2 0x45AD JUMP JUMPDEST POP SWAP1 POP PUSH1 0x0 DUP4 PUSH1 0x1 PUSH1 0x1 PUSH1 0xA0 SHL SUB AND PUSH4 0x5EE04D78 PUSH1 0x40 MLOAD DUP2 PUSH4 0xFFFFFFFF AND PUSH1 0xE0 SHL DUP2 MSTORE PUSH1 0x4 ADD PUSH1 0x40 DUP1 MLOAD DUP1 DUP4 SUB DUP2 DUP7 GAS STATICCALL ISZERO DUP1 ISZERO PUSH2 0x1498 JUMPI RETURNDATASIZE PUSH1 0x0 DUP1 RETURNDATACOPY RETURNDATASIZE PUSH1 0x0 REVERT JUMPDEST POP POP POP POP PUSH1 0x40 MLOAD RETURNDATASIZE PUSH1 0x1F NOT PUSH1 0x1F DUP3 ADD AND DUP3 ADD DUP1 PUSH1 0x40 MSTORE POP DUP2 ADD SWAP1 PUSH2 0x14BC SWAP2 SWAP1 PUSH2 0x45AD JUMP JUMPDEST POP PUSH1 0xA SLOAD SWAP1 SWAP2 POP PUSH1 0x1 PUSH1 0x1 PUSH1 0xA0 SHL SUB DUP4 DUP2 AND SWAP2 AND EQ DUP1 ISZERO PUSH2 0x14EA JUMPI POP PUSH1 0xB SLOAD PUSH1 0x1 PUSH1 0x1 PUSH1 0xA0 SHL SUB DUP3 DUP2 AND SWAP2 AND EQ JUMPDEST PUSH2 0x1506 JUMPI PUSH1 0x40 MLOAD PUSH3 0x461BCD PUSH1 0xE5 SHL DUP2 MSTORE PUSH1 0x4 ADD PUSH2 0x8AC SWAP1 PUSH2 0x45E2 JUMP JUMPDEST DUP4 PUSH1 0x8 DUP5 DUP2 SLOAD DUP2 LT PUSH2 0x151A JUMPI PUSH2 0x151A PUSH2 0x4370 JUMP JUMPDEST PUSH1 0x0 SWAP2 DUP3 MSTORE PUSH1 0x20 SWAP2 DUP3 SWAP1 KECCAK256 ADD DUP1 SLOAD PUSH1 0x1 PUSH1 0x1 PUSH1 0xA0 SHL SUB NOT AND PUSH1 0x1 PUSH1 0x1 PUSH1 0xA0 SHL SUB SWAP4 DUP5 AND OR SWAP1 SSTORE PUSH1 0x40 MLOAD DUP6 DUP2 MSTORE SWAP2 DUP7 AND SWAP2 PUSH32 0xC702EC00C014203B7E89BAAC1D444204C2626E064AFC77BA77A612E15AB3BCE0 SWAP2 ADD PUSH1 0x40 MLOAD DUP1 SWAP2 SUB SWAP1 LOG2 POP POP POP POP JUMP JUMPDEST PUSH1 0x1 PUSH1 0x1 PUSH1 0xA0 SHL SUB DUP4 AND PUSH1 0x0 SWAP1 DUP2 MSTORE PUSH1 0x1 PUSH1 0x20 SWAP1 DUP2 MSTORE PUSH1 0x40 DUP1 DUP4 KECCAK256 CALLER DUP5 MSTORE SWAP1 SWAP2 MSTORE DUP2 KECCAK256 SLOAD DUP3 DUP2 LT ISZERO PUSH2 0x1600 JUMPI PUSH1 0x40 MLOAD PUSH3 0x461BCD PUSH1 0xE5 SHL DUP2 MSTORE PUSH1 0x20 PUSH1 0x4 DUP3 ADD MSTORE PUSH1 0x28 PUSH1 0x24 DUP3 ADD MSTORE PUSH32 0x45524332303A207472616E7366657220616D6F756E7420657863656564732061 PUSH1 0x44 DUP3 ADD MSTORE PUSH8 0x6C6C6F77616E6365 PUSH1 0xC0 SHL PUSH1 0x64 DUP3 ADD MSTORE PUSH1 0x84 ADD PUSH2 0x8AC JUMP JUMPDEST PUSH2 0x160D DUP6 CALLER DUP6 DUP5 SUB PUSH2 0x34B4 JUMP JUMPDEST PUSH2 0x1618 DUP6 DUP6 DUP6 PUSH2 0x35D8 JUMP JUMPDEST PUSH1 0x1 SWAP2 POP POP JUMPDEST SWAP4 SWAP3 POP POP POP JUMP JUMPDEST PUSH1 0x5 SLOAD PUSH1 0x1 PUSH1 0x1 PUSH1 0xA0 SHL SUB AND CALLER EQ PUSH2 0x164F JUMPI PUSH1 0x40 MLOAD PUSH3 0x461BCD PUSH1 0xE5 SHL DUP2 MSTORE PUSH1 0x4 ADD PUSH2 0x8AC SWAP1 PUSH2 0x4578 JUMP JUMPDEST PUSH1 0xB DUP1 SLOAD DUP3 ISZERO ISZERO PUSH1 0x1 PUSH1 0xA0 SHL MUL PUSH1 0xFF PUSH1 0xA0 SHL NOT SWAP1 SWAP2 AND OR SWAP1 SSTORE PUSH1 0x40 MLOAD PUSH32 0xC95792A0E34C24EAC32C3D3AAD40FA02AC9EA2CB3A39B334F7B7F08579B5CD7D SWAP1 PUSH2 0x169C SWAP1 DUP4 ISZERO ISZERO DUP2 MSTORE PUSH1 0x20 ADD SWAP1 JUMP JUMPDEST PUSH1 0x40 MLOAD DUP1 SWAP2 SUB SWAP1 LOG1 POP JUMP JUMPDEST CALLER PUSH1 0x0 DUP2 DUP2 MSTORE PUSH1 0x1 PUSH1 0x20 SWAP1 DUP2 MSTORE PUSH1 0x40 DUP1 DUP4 KECCAK256 PUSH1 0x1 PUSH1 0x1 PUSH1 0xA0 SHL SUB DUP8 AND DUP5 MSTORE SWAP1 SWAP2 MSTORE DUP2 KECCAK256 SLOAD SWAP1 SWAP2 PUSH2 0x13BF SWAP2 DUP6 SWAP1 PUSH2 0x16DE SWAP1 DUP7 SWAP1 PUSH2 0x4323 JUMP JUMPDEST PUSH2 0x34B4 JUMP JUMPDEST PUSH1 0x5 SLOAD PUSH1 0x1 PUSH1 0x1 PUSH1 0xA0 SHL SUB AND CALLER EQ PUSH2 0x170D JUMPI PUSH1 0x40 MLOAD PUSH3 0x461BCD PUSH1 0xE5 SHL DUP2 MSTORE PUSH1 0x4 ADD PUSH2 0x8AC SWAP1 PUSH2 0x4578 JUMP JUMPDEST PUSH2 0x2710 DUP2 LT PUSH2 0x1756 JUMPI PUSH1 0x40 MLOAD PUSH3 0x461BCD PUSH1 0xE5 SHL DUP2 MSTORE PUSH1 0x20 PUSH1 0x4 DUP3 ADD MSTORE PUSH1 0x15 PUSH1 0x24 DUP3 ADD MSTORE PUSH21 0x4745563A20496E76616C6964204261736520466565 PUSH1 0x58 SHL PUSH1 0x44 DUP3 ADD MSTORE PUSH1 0x64 ADD PUSH2 0x8AC JUMP JUMPDEST PUSH1 0xC DUP2 SWAP1 SSTORE PUSH1 0x40 MLOAD DUP2 DUP2 MSTORE PUSH31 0x172DDFC5AE88D08B3DE01A5A187667C37A5A53989E8C175055CB6C993792A7 SWAP1 PUSH1 0x20 ADD PUSH2 0x169C JUMP JUMPDEST PUSH1 0x0 DUP1 PUSH2 0x1796 PUSH1 0x2 SLOAD SWAP1 JUMP JUMPDEST SWAP1 POP DUP1 PUSH1 0x0 SUB PUSH2 0x17A8 JUMPI PUSH1 0x0 SWAP2 POP POP SWAP1 JUMP JUMPDEST PUSH1 0x0 PUSH2 0x17B2 PUSH2 0x1D46 JUMP JUMPDEST SWAP1 POP DUP2 PUSH2 0x17C7 DUP3 PUSH8 0xDE0B6B3A7640000 PUSH2 0x4192 JUMP JUMPDEST PUSH2 0x17D1 SWAP2 SWAP1 PUSH2 0x41BF JUMP JUMPDEST SWAP3 POP POP POP SWAP1 JUMP JUMPDEST PUSH1 0x8 DUP2 DUP2 SLOAD DUP2 LT PUSH2 0x17E8 JUMPI PUSH1 0x0 DUP1 REVERT JUMPDEST PUSH1 0x0 SWAP2 DUP3 MSTORE PUSH1 0x20 SWAP1 SWAP2 KECCAK256 ADD SLOAD PUSH1 0x1 PUSH1 0x1 PUSH1 0xA0 SHL SUB AND SWAP1 POP DUP2 JUMP JUMPDEST PUSH1 0x5 SLOAD PUSH1 0x1 PUSH1 0x1 PUSH1 0xA0 SHL SUB AND CALLER EQ PUSH2 0x182C JUMPI PUSH1 0x40 MLOAD PUSH3 0x461BCD PUSH1 0xE5 SHL DUP2 MSTORE PUSH1 0x4 ADD PUSH2 0x8AC SWAP1 PUSH2 0x4578 JUMP JUMPDEST PUSH1 0x0 DUP2 SWAP1 POP PUSH1 0x0 DUP2 PUSH1 0x1 PUSH1 0x1 PUSH1 0xA0 SHL SUB AND PUSH4 0x443EC74D PUSH1 0x40 MLOAD DUP2 PUSH4 0xFFFFFFFF AND PUSH1 0xE0 SHL DUP2 MSTORE PUSH1 0x4 ADD PUSH1 0x40 DUP1 MLOAD DUP1 DUP4 SUB DUP2 DUP7 GAS STATICCALL ISZERO DUP1 ISZERO PUSH2 0x1870 JUMPI RETURNDATASIZE PUSH1 0x0 DUP1 RETURNDATACOPY RETURNDATASIZE PUSH1 0x0 REVERT JUMPDEST POP POP POP POP PUSH1 0x40 MLOAD RETURNDATASIZE PUSH1 0x1F NOT PUSH1 0x1F DUP3 ADD AND DUP3 ADD DUP1 PUSH1 0x40 MSTORE POP DUP2 ADD SWAP1 PUSH2 0x1894 SWAP2 SWAP1 PUSH2 0x45AD JUMP JUMPDEST POP SWAP1 POP PUSH1 0x0 DUP3 PUSH1 0x1 PUSH1 0x1 PUSH1 0xA0 SHL SUB AND PUSH4 0x5EE04D78 PUSH1 0x40 MLOAD DUP2 PUSH4 0xFFFFFFFF AND PUSH1 0xE0 SHL DUP2 MSTORE PUSH1 0x4 ADD PUSH1 0x40 DUP1 MLOAD DUP1 DUP4 SUB DUP2 DUP7 GAS STATICCALL ISZERO DUP1 ISZERO PUSH2 0x18D6 JUMPI RETURNDATASIZE PUSH1 0x0 DUP1 RETURNDATACOPY RETURNDATASIZE PUSH1 0x0 REVERT JUMPDEST POP POP POP POP PUSH1 0x40 MLOAD RETURNDATASIZE PUSH1 0x1F NOT PUSH1 0x1F DUP3 ADD AND DUP3 ADD DUP1 PUSH1 0x40 MSTORE POP DUP2 ADD SWAP1 PUSH2 0x18FA SWAP2 SWAP1 PUSH2 0x45AD JUMP JUMPDEST POP PUSH1 0xA SLOAD SWAP1 SWAP2 POP PUSH1 0x1 PUSH1 0x1 PUSH1 0xA0 SHL SUB DUP4 DUP2 AND SWAP2 AND EQ DUP1 ISZERO PUSH2 0x1928 JUMPI POP PUSH1 0xB SLOAD PUSH1 0x1 PUSH1 0x1 PUSH1 0xA0 SHL SUB DUP3 DUP2 AND SWAP2 AND EQ JUMPDEST PUSH2 0x1944 JUMPI PUSH1 0x40 MLOAD PUSH3 0x461BCD PUSH1 0xE5 SHL DUP2 MSTORE PUSH1 0x4 ADD PUSH2 0x8AC SWAP1 PUSH2 0x45E2 JUMP JUMPDEST PUSH1 0x8 SLOAD PUSH1 0x0 SUB PUSH2 0x199E JUMPI PUSH1 0x8 DUP1 SLOAD PUSH1 0x1 DUP2 ADD DUP3 SSTORE PUSH1 0x0 SWAP2 SWAP1 SWAP2 MSTORE PUSH32 0xF3F7A9FE364FAAB93B216DA50A3214154F22A0A2B415B23A84C8169E8B636EE3 ADD DUP1 SLOAD PUSH1 0x1 PUSH1 0x1 PUSH1 0xA0 SHL SUB NOT AND PUSH1 0x1 PUSH1 0x1 PUSH1 0xA0 SHL SUB DUP6 AND OR SWAP1 SSTORE PUSH2 0x1C81 JUMP JUMPDEST PUSH1 0x12 SLOAD PUSH1 0x1 PUSH1 0xA0 SHL SWAP1 DIV PUSH1 0xFF AND ISZERO PUSH2 0x1AF5 JUMPI PUSH1 0x8 DUP1 SLOAD PUSH2 0x19C0 SWAP1 PUSH1 0x1 SWAP1 PUSH2 0x42F7 JUMP JUMPDEST DUP2 SLOAD DUP2 LT PUSH2 0x19D0 JUMPI PUSH2 0x19D0 PUSH2 0x4370 JUMP JUMPDEST PUSH1 0x0 SWAP2 DUP3 MSTORE PUSH1 0x20 SWAP2 DUP3 SWAP1 KECCAK256 ADD SLOAD PUSH1 0x40 DUP1 MLOAD PUSH4 0xE4FBA45 PUSH1 0xE3 SHL DUP2 MSTORE SWAP1 MLOAD PUSH1 0x1 PUSH1 0x1 PUSH1 0xA0 SHL SUB SWAP1 SWAP3 AND SWAP3 PUSH4 0x727DD228 SWAP3 PUSH1 0x4 DUP1 DUP5 ADD SWAP4 DUP3 SWAP1 SUB ADD DUP2 DUP7 GAS STATICCALL ISZERO DUP1 ISZERO PUSH2 0x1A1E JUMPI RETURNDATASIZE PUSH1 0x0 DUP1 RETURNDATACOPY RETURNDATASIZE PUSH1 0x0 REVERT JUMPDEST POP POP POP POP PUSH1 0x40 MLOAD RETURNDATASIZE PUSH1 0x1F NOT PUSH1 0x1F DUP3 ADD AND DUP3 ADD DUP1 PUSH1 0x40 MSTORE POP DUP2 ADD SWAP1 PUSH2 0x1A42 SWAP2 SWAP1 PUSH2 0x461D JUMP JUMPDEST PUSH1 0x2 SIGNEXTEND DUP4 PUSH1 0x1 PUSH1 0x1 PUSH1 0xA0 SHL SUB AND PUSH4 0x9B1344AC PUSH1 0x40 MLOAD DUP2 PUSH4 0xFFFFFFFF AND PUSH1 0xE0 SHL DUP2 MSTORE PUSH1 0x4 ADD PUSH1 0x20 PUSH1 0x40 MLOAD DUP1 DUP4 SUB DUP2 DUP7 GAS STATICCALL ISZERO DUP1 ISZERO PUSH2 0x1A83 JUMPI RETURNDATASIZE PUSH1 0x0 DUP1 RETURNDATACOPY RETURNDATASIZE PUSH1 0x0 REVERT JUMPDEST POP POP POP POP PUSH1 0x40 MLOAD RETURNDATASIZE PUSH1 0x1F NOT PUSH1 0x1F DUP3 ADD AND DUP3 ADD DUP1 PUSH1 0x40 MSTORE POP DUP2 ADD SWAP1 PUSH2 0x1AA7 SWAP2 SWAP1 PUSH2 0x461D JUMP JUMPDEST PUSH1 0x2 SIGNEXTEND SGT PUSH2 0x1AF0 JUMPI PUSH1 0x40 MLOAD PUSH3 0x461BCD PUSH1 0xE5 SHL DUP2 MSTORE PUSH1 0x20 PUSH1 0x4 DUP3 ADD MSTORE PUSH1 0x16 PUSH1 0x24 DUP3 ADD MSTORE PUSH22 0x4745563A2050757368205469636B204F7665726C617 PUSH1 0x54 SHL PUSH1 0x44 DUP3 ADD MSTORE PUSH1 0x64 ADD PUSH2 0x8AC JUMP JUMPDEST PUSH2 0x1C35 JUMP JUMPDEST PUSH1 0x8 DUP1 SLOAD PUSH2 0x1B05 SWAP1 PUSH1 0x1 SWAP1 PUSH2 0x42F7 JUMP JUMPDEST DUP2 SLOAD DUP2 LT PUSH2 0x1B15 JUMPI PUSH2 0x1B15 PUSH2 0x4370 JUMP JUMPDEST PUSH1 0x0 SWAP2 DUP3 MSTORE PUSH1 0x20 SWAP2 DUP3 SWAP1 KECCAK256 ADD SLOAD PUSH1 0x40 DUP1 MLOAD PUSH4 0x26C4D12B PUSH1 0xE2 SHL DUP2 MSTORE SWAP1 MLOAD PUSH1 0x1 PUSH1 0x1 PUSH1 0xA0 SHL SUB SWAP1 SWAP3 AND SWAP3 PUSH4 0x9B1344AC SWAP3 PUSH1 0x4 DUP1 DUP5 ADD SWAP4 DUP3 SWAP1 SUB ADD DUP2 DUP7 GAS STATICCALL ISZERO DUP1 ISZERO PUSH2 0x1B63 JUMPI RETURNDATASIZE PUSH1 0x0 DUP1 RETURNDATACOPY RETURNDATASIZE PUSH1 0x0 REVERT JUMPDEST POP POP POP POP PUSH1 0x40 MLOAD RETURNDATASIZE PUSH1 0x1F NOT PUSH1 0x1F DUP3 ADD AND DUP3 ADD DUP1 PUSH1 0x40 MSTORE POP DUP2 ADD SWAP1 PUSH2 0x1B87 SWAP2 SWAP1 PUSH2 0x461D JUMP JUMPDEST PUSH1 0x2 SIGNEXTEND DUP4 PUSH1 0x1 PUSH1 0x1 PUSH1 0xA0 SHL SUB AND PUSH4 0x727DD228 PUSH1 0x40 MLOAD DUP2 PUSH4 0xFFFFFFFF AND PUSH1 0xE0 SHL DUP2 MSTORE PUSH1 0x4 ADD PUSH1 0x20 PUSH1 0x40 MLOAD DUP1 DUP4 SUB DUP2 DUP7 GAS STATICCALL ISZERO DUP1 ISZERO PUSH2 0x1BC8 JUMPI RETURNDATASIZE PUSH1 0x0 DUP1 RETURNDATACOPY RETURNDATASIZE PUSH1 0x0 REVERT JUMPDEST POP POP POP POP PUSH1 0x40 MLOAD RETURNDATASIZE PUSH1 0x1F NOT PUSH1 0x1F DUP3 ADD AND DUP3 ADD DUP1 PUSH1 0x40 MSTORE POP DUP2 ADD SWAP1 PUSH2 0x1BEC SWAP2 SWAP1 PUSH2 0x461D JUMP JUMPDEST PUSH1 0x2 SIGNEXTEND SLT PUSH2 0x1C35 JUMPI PUSH1 0x40 MLOAD PUSH3 0x461BCD PUSH1 0xE5 SHL DUP2 MSTORE PUSH1 0x20 PUSH1 0x4 DUP3 ADD MSTORE PUSH1 0x16 PUSH1 0x24 DUP3 ADD MSTORE PUSH22 0x4745563A2050757368205469636B204F7665726C617 PUSH1 0x54 SHL PUSH1 0x44 DUP3 ADD MSTORE PUSH1 0x64 ADD PUSH2 0x8AC JUMP JUMPDEST PUSH1 0x8 DUP1 SLOAD PUSH1 0x1 DUP2 ADD DUP3 SSTORE PUSH1 0x0 SWAP2 SWAP1 SWAP2 MSTORE PUSH32 0xF3F7A9FE364FAAB93B216DA50A3214154F22A0A2B415B23A84C8169E8B636EE3 ADD DUP1 SLOAD PUSH1 0x1 PUSH1 0x1 PUSH1 0xA0 SHL SUB NOT AND PUSH1 0x1 PUSH1 0x1 PUSH1 0xA0 SHL SUB DUP7 AND OR SWAP1 SSTORE JUMPDEST PUSH1 0x40 MLOAD PUSH1 0x1 PUSH1 0x1 PUSH1 0xA0 SHL SUB DUP6 AND SWAP1 PUSH32 0xF3FE65AEFC0C6A58D6E37D115ED356186C3088909BC0642D064DBB0D8F0361EE SWAP1 PUSH1 0x0 SWAP1 LOG2 POP POP POP POP JUMP JUMPDEST PUSH1 0x5 SLOAD PUSH1 0x1 PUSH1 0x1 PUSH1 0xA0 SHL SUB AND CALLER EQ PUSH2 0x1CE5 JUMPI PUSH1 0x40 MLOAD PUSH3 0x461BCD PUSH1 0xE5 SHL DUP2 MSTORE PUSH1 0x4 ADD PUSH2 0x8AC SWAP1 PUSH2 0x4578 JUMP JUMPDEST PUSH2 0x1CEF PUSH1 0x0 PUSH2 0x37A6 JUMP JUMPDEST JUMP JUMPDEST PUSH2 0x1CF9 PUSH2 0x2A44 JUMP JUMPDEST PUSH2 0x1D15 JUMPI PUSH1 0x40 MLOAD PUSH3 0x461BCD PUSH1 0xE5 SHL DUP2 MSTORE PUSH1 0x4 ADD PUSH2 0x8AC SWAP1 PUSH2 0x4151 JUMP JUMPDEST PUSH2 0x1D1D PUSH2 0x31C1 JUMP JUMPDEST PUSH1 0xB SLOAD PUSH1 0x1 PUSH1 0xA0 SHL SWAP1 DIV PUSH1 0xFF AND ISZERO PUSH2 0x1CEF JUMPI PUSH2 0x1CEF PUSH2 0x31E9 JUMP JUMPDEST PUSH1 0x60 PUSH1 0x4 DUP1 SLOAD PUSH2 0x116E SWAP1 PUSH2 0x4336 JUMP JUMPDEST PUSH1 0x0 DUP1 JUMPDEST PUSH1 0x8 SLOAD DUP2 LT ISZERO PUSH2 0x1E2A JUMPI PUSH1 0x0 PUSH1 0x8 DUP3 DUP2 SLOAD DUP2 LT PUSH2 0x1D69 JUMPI PUSH2 0x1D69 PUSH2 0x4370 JUMP JUMPDEST PUSH1 0x0 SWAP2 DUP3 MSTORE PUSH1 0x20 DUP3 KECCAK256 ADD SLOAD PUSH1 0x1 PUSH1 0x1 PUSH1 0xA0 SHL SUB AND SWAP2 POP PUSH2 0x1D88 DUP4 PUSH2 0x1E2E JUMP JUMPDEST SWAP1 POP PUSH8 0xDE0B6B3A7640000 DUP3 PUSH1 0x1 PUSH1 0x1 PUSH1 0xA0 SHL SUB AND PUSH4 0x50D25BCD PUSH1 0x40 MLOAD DUP2 PUSH4 0xFFFFFFFF AND PUSH1 0xE0 SHL DUP2 MSTORE PUSH1 0x4 ADD PUSH1 0x20 PUSH1 0x40 MLOAD DUP1 DUP4 SUB DUP2 DUP7 GAS STATICCALL ISZERO DUP1 ISZERO PUSH2 0x1DD1 JUMPI RETURNDATASIZE PUSH1 0x0 DUP1 RETURNDATACOPY RETURNDATASIZE PUSH1 0x0 REVERT JUMPDEST POP POP POP POP PUSH1 0x40 MLOAD RETURNDATASIZE PUSH1 0x1F NOT PUSH1 0x1F DUP3 ADD AND DUP3 ADD DUP1 PUSH1 0x40 MSTORE POP DUP2 ADD SWAP1 PUSH2 0x1DF5 SWAP2 SWAP1 PUSH2 0x430A JUMP JUMPDEST PUSH2 0x1DFF SWAP1 DUP4 PUSH2 0x4192 JUMP JUMPDEST PUSH2 0x1E09 SWAP2 SWAP1 PUSH2 0x41BF JUMP JUMPDEST PUSH2 0x1E13 SWAP1 DUP6 PUSH2 0x4323 JUMP JUMPDEST SWAP4 POP POP POP DUP1 DUP1 PUSH2 0x1E22 SWAP1 PUSH2 0x455F JUMP JUMPDEST SWAP2 POP POP PUSH2 0x1D4A JUMP JUMPDEST POP SWAP1 JUMP JUMPDEST PUSH1 0x0 DUP1 PUSH1 0x8 DUP4 DUP2 SLOAD DUP2 LT PUSH2 0x1E44 JUMPI PUSH2 0x1E44 PUSH2 0x4370 JUMP JUMPDEST PUSH1 0x0 SWAP2 DUP3 MSTORE PUSH1 0x20 DUP3 KECCAK256 ADD SLOAD PUSH1 0x10 SLOAD PUSH1 0x40 MLOAD PUSH4 0x35EA6A75 PUSH1 0xE0 SHL DUP2 MSTORE PUSH1 0x1 PUSH1 0x1 PUSH1 0xA0 SHL SUB SWAP3 DUP4 AND PUSH1 0x4 DUP3 ADD DUP2 SWAP1 MSTORE SWAP5 POP SWAP2 AND SWAP1 PUSH4 0x35EA6A75 SWAP1 PUSH1 0x24 ADD PUSH2 0x180 PUSH1 0x40 MLOAD DUP1 DUP4 SUB DUP2 DUP7 GAS STATICCALL ISZERO DUP1 ISZERO PUSH2 0x1E9D JUMPI RETURNDATASIZE PUSH1 0x0 DUP1 RETURNDATACOPY RETURNDATASIZE PUSH1 0x0 REVERT JUMPDEST POP POP POP POP PUSH1 0x40 MLOAD RETURNDATASIZE PUSH1 0x1F NOT PUSH1 0x1F DUP3 ADD AND DUP3 ADD DUP1 PUSH1 0x40 MSTORE POP DUP2 ADD SWAP1 PUSH2 0x1EC1 SWAP2 SWAP1 PUSH2 0x444E JUMP JUMPDEST PUSH1 0xE0 ADD MLOAD PUSH1 0x40 MLOAD PUSH4 0x70A08231 PUSH1 0xE0 SHL DUP2 MSTORE ADDRESS PUSH1 0x4 DUP3 ADD MSTORE SWAP1 SWAP2 POP PUSH1 0x1 PUSH1 0x1 PUSH1 0xA0 SHL SUB DUP3 AND SWAP1 PUSH4 0x70A08231 SWAP1 PUSH1 0x24 ADD PUSH1 0x20 PUSH1 0x40 MLOAD DUP1 DUP4 SUB DUP2 DUP7 GAS STATICCALL ISZERO DUP1 ISZERO PUSH2 0x1F0C JUMPI RETURNDATASIZE PUSH1 0x0 DUP1 RETURNDATACOPY RETURNDATASIZE PUSH1 0x0 REVERT JUMPDEST POP POP POP POP PUSH1 0x40 MLOAD RETURNDATASIZE PUSH1 0x1F NOT PUSH1 0x1F DUP3 ADD AND DUP3 ADD DUP1 PUSH1 0x40 MSTORE POP DUP2 ADD SWAP1 PUSH2 0x1F30 SWAP2 SWAP1 PUSH2 0x430A JUMP JUMPDEST SWAP5 SWAP4 POP POP POP POP JUMP JUMPDEST PUSH1 0x5 SLOAD PUSH1 0x1 PUSH1 0x1 PUSH1 0xA0 SHL SUB AND CALLER EQ PUSH2 0x1F62 JUMPI PUSH1 0x40 MLOAD PUSH3 0x461BCD PUSH1 0xE5 SHL DUP2 MSTORE PUSH1 0x4 ADD PUSH2 0x8AC SWAP1 PUSH2 0x4578 JUMP JUMPDEST PUSH1 0x0 DUP2 SWAP1 POP PUSH1 0x0 DUP2 PUSH1 0x1 PUSH1 0x1 PUSH1 0xA0 SHL SUB AND PUSH4 0x443EC74D PUSH1 0x40 MLOAD DUP2 PUSH4 0xFFFFFFFF AND PUSH1 0xE0 SHL DUP2 MSTORE PUSH1 0x4 ADD PUSH1 0x40 DUP1 MLOAD DUP1 DUP4 SUB DUP2 DUP7 GAS STATICCALL ISZERO DUP1 ISZERO PUSH2 0x1FA6 JUMPI RETURNDATASIZE PUSH1 0x0 DUP1 RETURNDATACOPY RETURNDATASIZE PUSH1 0x0 REVERT JUMPDEST POP POP POP POP PUSH1 0x40 MLOAD RETURNDATASIZE PUSH1 0x1F NOT PUSH1 0x1F DUP3 ADD AND DUP3 ADD DUP1 PUSH1 0x40 MSTORE POP DUP2 ADD SWAP1 PUSH2 0x1FCA SWAP2 SWAP1 PUSH2 0x45AD JUMP JUMPDEST POP SWAP1 POP PUSH1 0x0 DUP3 PUSH1 0x1 PUSH1 0x1 PUSH1 0xA0 SHL SUB AND PUSH4 0x5EE04D78 PUSH1 0x40 MLOAD DUP2 PUSH4 0xFFFFFFFF AND PUSH1 0xE0 SHL DUP2 MSTORE PUSH1 0x4 ADD PUSH1 0x40 DUP1 MLOAD DUP1 DUP4 SUB DUP2 DUP7 GAS STATICCALL ISZERO DUP1 ISZERO PUSH2 0x200C JUMPI RETURNDATASIZE PUSH1 0x0 DUP1 RETURNDATACOPY RETURNDATASIZE PUSH1 0x0 REVERT JUMPDEST POP POP POP POP PUSH1 0x40 MLOAD RETURNDATASIZE PUSH1 0x1F NOT PUSH1 0x1F DUP3 ADD AND DUP3 ADD DUP1 PUSH1 0x40 MSTORE POP DUP2 ADD SWAP1 PUSH2 0x2030 SWAP2 SWAP1 PUSH2 0x45AD JUMP JUMPDEST POP PUSH1 0xA SLOAD SWAP1 SWAP2 POP PUSH1 0x1 PUSH1 0x1 PUSH1 0xA0 SHL SUB DUP4 DUP2 AND SWAP2 AND EQ DUP1 ISZERO PUSH2 0x205E JUMPI POP PUSH1 0xB SLOAD PUSH1 0x1 PUSH1 0x1 PUSH1 0xA0 SHL SUB DUP3 DUP2 AND SWAP2 AND EQ JUMPDEST PUSH2 0x207A JUMPI PUSH1 0x40 MLOAD PUSH3 0x461BCD PUSH1 0xE5 SHL DUP2 MSTORE PUSH1 0x4 ADD PUSH2 0x8AC SWAP1 PUSH2 0x45E2 JUMP JUMPDEST PUSH1 0x8 SLOAD PUSH1 0x0 SUB PUSH2 0x20D4 JUMPI PUSH1 0x8 DUP1 SLOAD PUSH1 0x1 DUP2 ADD DUP3 SSTORE PUSH1 0x0 SWAP2 SWAP1 SWAP2 MSTORE PUSH32 0xF3F7A9FE364FAAB93B216DA50A3214154F22A0A2B415B23A84C8169E8B636EE3 ADD DUP1 SLOAD PUSH1 0x1 PUSH1 0x1 PUSH1 0xA0 SHL SUB NOT AND PUSH1 0x1 PUSH1 0x1 PUSH1 0xA0 SHL SUB DUP6 AND OR SWAP1 SSTORE PUSH2 0x24C6 JUMP JUMPDEST PUSH1 0x12 SLOAD PUSH1 0x1 PUSH1 0xA0 SHL SWAP1 DIV PUSH1 0xFF AND PUSH2 0x221F JUMPI PUSH1 0x8 PUSH1 0x0 DUP2 SLOAD DUP2 LT PUSH2 0x20F9 JUMPI PUSH2 0x20F9 PUSH2 0x4370 JUMP JUMPDEST PUSH1 0x0 SWAP2 DUP3 MSTORE PUSH1 0x20 SWAP2 DUP3 SWAP1 KECCAK256 ADD SLOAD PUSH1 0x40 DUP1 MLOAD PUSH4 0xE4FBA45 PUSH1 0xE3 SHL DUP2 MSTORE SWAP1 MLOAD PUSH1 0x1 PUSH1 0x1 PUSH1 0xA0 SHL SUB SWAP1 SWAP3 AND SWAP3 PUSH4 0x727DD228 SWAP3 PUSH1 0x4 DUP1 DUP5 ADD SWAP4 DUP3 SWAP1 SUB ADD DUP2 DUP7 GAS STATICCALL ISZERO DUP1 ISZERO PUSH2 0x2147 JUMPI RETURNDATASIZE PUSH1 0x0 DUP1 RETURNDATACOPY RETURNDATASIZE PUSH1 0x0 REVERT JUMPDEST POP POP POP POP PUSH1 0x40 MLOAD RETURNDATASIZE PUSH1 0x1F NOT PUSH1 0x1F DUP3 ADD AND DUP3 ADD DUP1 PUSH1 0x40 MSTORE POP DUP2 ADD SWAP1 PUSH2 0x216B SWAP2 SWAP1 PUSH2 0x461D JUMP JUMPDEST PUSH1 0x2 SIGNEXTEND DUP4 PUSH1 0x1 PUSH1 0x1 PUSH1 0xA0 SHL SUB AND PUSH4 0x9B1344AC PUSH1 0x40 MLOAD DUP2 PUSH4 0xFFFFFFFF AND PUSH1 0xE0 SHL DUP2 MSTORE PUSH1 0x4 ADD PUSH1 0x20 PUSH1 0x40 MLOAD DUP1 DUP4 SUB DUP2 DUP7 GAS STATICCALL ISZERO DUP1 ISZERO PUSH2 0x21AC JUMPI RETURNDATASIZE PUSH1 0x0 DUP1 RETURNDATACOPY RETURNDATASIZE PUSH1 0x0 REVERT JUMPDEST POP POP POP POP PUSH1 0x40 MLOAD RETURNDATASIZE PUSH1 0x1F NOT PUSH1 0x1F DUP3 ADD AND DUP3 ADD DUP1 PUSH1 0x40 MSTORE POP DUP2 ADD SWAP1 PUSH2 0x21D0 SWAP2 SWAP1 PUSH2 0x461D JUMP JUMPDEST PUSH1 0x2 SIGNEXTEND SGT PUSH2 0x221A JUMPI PUSH1 0x40 MLOAD PUSH3 0x461BCD PUSH1 0xE5 SHL DUP2 MSTORE PUSH1 0x20 PUSH1 0x4 DUP3 ADD MSTORE PUSH1 0x17 PUSH1 0x24 DUP3 ADD MSTORE PUSH23 0x4745563A205368696674205469636B204F7665726C617 PUSH1 0x4C SHL PUSH1 0x44 DUP3 ADD MSTORE PUSH1 0x64 ADD PUSH2 0x8AC JUMP JUMPDEST PUSH2 0x2354 JUMP JUMPDEST PUSH1 0x8 PUSH1 0x0 DUP2 SLOAD DUP2 LT PUSH2 0x2233 JUMPI PUSH2 0x2233 PUSH2 0x4370 JUMP JUMPDEST PUSH1 0x0 SWAP2 DUP3 MSTORE PUSH1 0x20 SWAP2 DUP3 SWAP1 KECCAK256 ADD SLOAD PUSH1 0x40 DUP1 MLOAD PUSH4 0x26C4D12B PUSH1 0xE2 SHL DUP2 MSTORE SWAP1 MLOAD PUSH1 0x1 PUSH1 0x1 PUSH1 0xA0 SHL SUB SWAP1 SWAP3 AND SWAP3 PUSH4 0x9B1344AC SWAP3 PUSH1 0x4 DUP1 DUP5 ADD SWAP4 DUP3 SWAP1 SUB ADD DUP2 DUP7 GAS STATICCALL ISZERO DUP1 ISZERO PUSH2 0x2281 JUMPI RETURNDATASIZE PUSH1 0x0 DUP1 RETURNDATACOPY RETURNDATASIZE PUSH1 0x0 REVERT JUMPDEST POP POP POP POP PUSH1 0x40 MLOAD RETURNDATASIZE PUSH1 0x1F NOT PUSH1 0x1F DUP3 ADD AND DUP3 ADD DUP1 PUSH1 0x40 MSTORE POP DUP2 ADD SWAP1 PUSH2 0x22A5 SWAP2 SWAP1 PUSH2 0x461D JUMP JUMPDEST PUSH1 0x2 SIGNEXTEND DUP4 PUSH1 0x1 PUSH1 0x1 PUSH1 0xA0 SHL SUB AND PUSH4 0x727DD228 PUSH1 0x40 MLOAD DUP2 PUSH4 0xFFFFFFFF AND PUSH1 0xE0 SHL DUP2 MSTORE PUSH1 0x4 ADD PUSH1 0x20 PUSH1 0x40 MLOAD DUP1 DUP4 SUB DUP2 DUP7 GAS STATICCALL ISZERO DUP1 ISZERO PUSH2 0x22E6 JUMPI RETURNDATASIZE PUSH1 0x0 DUP1 RETURNDATACOPY RETURNDATASIZE PUSH1 0x0 REVERT JUMPDEST POP POP POP POP PUSH1 0x40 MLOAD RETURNDATASIZE PUSH1 0x1F NOT PUSH1 0x1F DUP3 ADD AND DUP3 ADD DUP1 PUSH1 0x40 MSTORE POP DUP2 ADD SWAP1 PUSH2 0x230A SWAP2 SWAP1 PUSH2 0x461D JUMP JUMPDEST PUSH1 0x2 SIGNEXTEND SLT PUSH2 0x2354 JUMPI PUSH1 0x40 MLOAD PUSH3 0x461BCD PUSH1 0xE5 SHL DUP2 MSTORE PUSH1 0x20 PUSH1 0x4 DUP3 ADD MSTORE PUSH1 0x17 PUSH1 0x24 DUP3 ADD MSTORE PUSH23 0x4745563A205368696674205469636B204F7665726C617 PUSH1 0x4C SHL PUSH1 0x44 DUP3 ADD MSTORE PUSH1 0x64 ADD PUSH2 0x8AC JUMP JUMPDEST PUSH1 0x8 DUP1 SLOAD DUP2 SWAP1 PUSH2 0x2366 SWAP1 PUSH1 0x1 SWAP1 PUSH2 0x42F7 JUMP JUMPDEST DUP2 SLOAD DUP2 LT PUSH2 0x2376 JUMPI PUSH2 0x2376 PUSH2 0x4370 JUMP JUMPDEST PUSH1 0x0 SWAP2 DUP3 MSTORE PUSH1 0x20 DUP1 DUP4 KECCAK256 SWAP1 SWAP2 ADD SLOAD DUP4 SLOAD PUSH1 0x1 DUP2 ADD DUP6 SSTORE SWAP4 DUP4 MSTORE SWAP2 KECCAK256 SWAP1 SWAP2 ADD DUP1 SLOAD PUSH1 0x1 PUSH1 0x1 PUSH1 0xA0 SHL SUB NOT AND PUSH1 0x1 PUSH1 0x1 PUSH1 0xA0 SHL SUB SWAP1 SWAP3 AND SWAP2 SWAP1 SWAP2 OR SWAP1 SSTORE PUSH1 0x8 SLOAD PUSH1 0x2 LT ISZERO PUSH2 0x2482 JUMPI PUSH1 0x0 JUMPDEST PUSH1 0x8 SLOAD PUSH2 0x23CE SWAP1 PUSH1 0x2 SWAP1 PUSH2 0x42F7 JUMP JUMPDEST DUP2 LT ISZERO PUSH2 0x2480 JUMPI PUSH1 0x8 DUP1 SLOAD DUP3 SWAP1 PUSH2 0x23E7 SWAP1 PUSH1 0x3 SWAP1 PUSH2 0x42F7 JUMP JUMPDEST PUSH2 0x23F1 SWAP2 SWAP1 PUSH2 0x42F7 JUMP JUMPDEST DUP2 SLOAD DUP2 LT PUSH2 0x2401 JUMPI PUSH2 0x2401 PUSH2 0x4370 JUMP JUMPDEST PUSH1 0x0 SWAP2 DUP3 MSTORE PUSH1 0x20 SWAP1 SWAP2 KECCAK256 ADD SLOAD PUSH1 0x8 DUP1 SLOAD PUSH1 0x1 PUSH1 0x1 PUSH1 0xA0 SHL SUB SWAP1 SWAP3 AND SWAP2 DUP4 SWAP1 PUSH2 0x242B SWAP1 PUSH1 0x2 SWAP1 PUSH2 0x42F7 JUMP JUMPDEST PUSH2 0x2435 SWAP2 SWAP1 PUSH2 0x42F7 JUMP JUMPDEST DUP2 SLOAD DUP2 LT PUSH2 0x2445 JUMPI PUSH2 0x2445 PUSH2 0x4370 JUMP JUMPDEST PUSH1 0x0 SWAP2 DUP3 MSTORE PUSH1 0x20 SWAP1 SWAP2 KECCAK256 ADD DUP1 SLOAD PUSH1 0x1 PUSH1 0x1 PUSH1 0xA0 SHL SUB NOT AND PUSH1 0x1 PUSH1 0x1 PUSH1 0xA0 SHL SUB SWAP3 SWAP1 SWAP3 AND SWAP2 SWAP1 SWAP2 OR SWAP1 SSTORE DUP1 PUSH2 0x2478 DUP2 PUSH2 0x455F JUMP JUMPDEST SWAP2 POP POP PUSH2 0x23BF JUMP JUMPDEST POP JUMPDEST DUP3 PUSH1 0x8 PUSH1 0x0 DUP2 SLOAD DUP2 LT PUSH2 0x2497 JUMPI PUSH2 0x2497 PUSH2 0x4370 JUMP JUMPDEST SWAP1 PUSH1 0x0 MSTORE PUSH1 0x20 PUSH1 0x0 KECCAK256 ADD PUSH1 0x0 PUSH2 0x100 EXP DUP2 SLOAD DUP2 PUSH1 0x1 PUSH1 0x1 PUSH1 0xA0 SHL SUB MUL NOT AND SWAP1 DUP4 PUSH1 0x1 PUSH1 0x1 PUSH1 0xA0 SHL SUB AND MUL OR SWAP1 SSTORE POP JUMPDEST PUSH1 0x40 MLOAD PUSH1 0x1 PUSH1 0x1 PUSH1 0xA0 SHL SUB DUP6 AND SWAP1 PUSH32 0x379724EB42B8009EB7CB6F3D25740CE23AF62531DBCAA953861505B29DC14816 SWAP1 PUSH1 0x0 SWAP1 LOG2 POP POP POP POP JUMP JUMPDEST CALLER PUSH1 0x0 SWAP1 DUP2 MSTORE PUSH1 0x1 PUSH1 0x20 SWAP1 DUP2 MSTORE PUSH1 0x40 DUP1 DUP4 KECCAK256 PUSH1 0x1 PUSH1 0x1 PUSH1 0xA0 SHL SUB DUP7 AND DUP5 MSTORE SWAP1 SWAP2 MSTORE DUP2 KECCAK256 SLOAD DUP3 DUP2 LT ISZERO PUSH2 0x2582 JUMPI PUSH1 0x40 MLOAD PUSH3 0x461BCD PUSH1 0xE5 SHL DUP2 MSTORE PUSH1 0x20 PUSH1 0x4 DUP3 ADD MSTORE PUSH1 0x25 PUSH1 0x24 DUP3 ADD MSTORE PUSH32 0x45524332303A2064656372656173656420616C6C6F77616E63652062656C6F77 PUSH1 0x44 DUP3 ADD MSTORE PUSH5 0x207A65726F PUSH1 0xD8 SHL PUSH1 0x64 DUP3 ADD MSTORE PUSH1 0x84 ADD PUSH2 0x8AC JUMP JUMPDEST PUSH2 0x258F CALLER DUP6 DUP6 DUP5 SUB PUSH2 0x34B4 JUMP JUMPDEST POP PUSH1 0x1 SWAP4 SWAP3 POP POP POP JUMP JUMPDEST PUSH1 0x0 DUP1 PUSH1 0x0 PUSH2 0x25A6 PUSH2 0x11F1 JUMP JUMPDEST SWAP2 POP SWAP2 POP PUSH1 0x0 PUSH1 0xA PUSH1 0x0 SWAP1 SLOAD SWAP1 PUSH2 0x100 EXP SWAP1 DIV PUSH1 0x1 PUSH1 0x1 PUSH1 0xA0 SHL SUB AND PUSH1 0x1 PUSH1 0x1 PUSH1 0xA0 SHL SUB AND PUSH4 0x313CE567 PUSH1 0x40 MLOAD DUP2 PUSH4 0xFFFFFFFF AND PUSH1 0xE0 SHL DUP2 MSTORE PUSH1 0x4 ADD PUSH1 0x20 PUSH1 0x40 MLOAD DUP1 DUP4 SUB DUP2 DUP7 GAS STATICCALL ISZERO DUP1 ISZERO PUSH2 0x25FF JUMPI RETURNDATASIZE PUSH1 0x0 DUP1 RETURNDATACOPY RETURNDATASIZE PUSH1 0x0 REVERT JUMPDEST POP POP POP POP PUSH1 0x40 MLOAD RETURNDATASIZE PUSH1 0x1F NOT PUSH1 0x1F DUP3 ADD AND DUP3 ADD DUP1 PUSH1 0x40 MSTORE POP DUP2 ADD SWAP1 PUSH2 0x2623 SWAP2 SWAP1 PUSH2 0x41E9 JUMP JUMPDEST PUSH2 0x262E SWAP1 PUSH1 0xA PUSH2 0x42E8 JUMP JUMPDEST PUSH1 0x11 SLOAD PUSH1 0xA SLOAD PUSH1 0x40 MLOAD PUSH4 0xB3596F07 PUSH1 0xE0 SHL DUP2 MSTORE PUSH1 0x1 PUSH1 0x1 PUSH1 0xA0 SHL SUB SWAP2 DUP3 AND PUSH1 0x4 DUP3 ADD MSTORE SWAP2 AND SWAP1 PUSH4 0xB3596F07 SWAP1 PUSH1 0x24 ADD PUSH1 0x20 PUSH1 0x40 MLOAD DUP1 DUP4 SUB DUP2 DUP7 GAS STATICCALL ISZERO DUP1 ISZERO PUSH2 0x267A JUMPI RETURNDATASIZE PUSH1 0x0 DUP1 RETURNDATACOPY RETURNDATASIZE PUSH1 0x0 REVERT JUMPDEST POP POP POP POP PUSH1 0x40 MLOAD RETURNDATASIZE PUSH1 0x1F NOT PUSH1 0x1F DUP3 ADD AND DUP3 ADD DUP1 PUSH1 0x40 MSTORE POP DUP2 ADD SWAP1 PUSH2 0x269E SWAP2 SWAP1 PUSH2 0x430A JUMP JUMPDEST PUSH2 0x26A8 SWAP1 DUP6 PUSH2 0x4192 JUMP JUMPDEST PUSH2 0x26B2 SWAP2 SWAP1 PUSH2 0x41BF JUMP JUMPDEST SWAP1 POP PUSH1 0x0 PUSH1 0xB PUSH1 0x0 SWAP1 SLOAD SWAP1 PUSH2 0x100 EXP SWAP1 DIV PUSH1 0x1 PUSH1 0x1 PUSH1 0xA0 SHL SUB AND PUSH1 0x1 PUSH1 0x1 PUSH1 0xA0 SHL SUB AND PUSH4 0x313CE567 PUSH1 0x40 MLOAD DUP2 PUSH4 0xFFFFFFFF AND PUSH1 0xE0 SHL DUP2 MSTORE PUSH1 0x4 ADD PUSH1 0x20 PUSH1 0x40 MLOAD DUP1 DUP4 SUB DUP2 DUP7 GAS STATICCALL ISZERO DUP1 ISZERO PUSH2 0x2709 JUMPI RETURNDATASIZE PUSH1 0x0 DUP1 RETURNDATACOPY RETURNDATASIZE PUSH1 0x0 REVERT JUMPDEST POP POP POP POP PUSH1 0x40 MLOAD RETURNDATASIZE PUSH1 0x1F NOT PUSH1 0x1F DUP3 ADD AND DUP3 ADD DUP1 PUSH1 0x40 MSTORE POP DUP2 ADD SWAP1 PUSH2 0x272D SWAP2 SWAP1 PUSH2 0x41E9 JUMP JUMPDEST PUSH2 0x2738 SWAP1 PUSH1 0xA PUSH2 0x42E8 JUMP JUMPDEST PUSH1 0x11 SLOAD PUSH1 0xB SLOAD PUSH1 0x40 MLOAD PUSH4 0xB3596F07 PUSH1 0xE0 SHL DUP2 MSTORE PUSH1 0x1 PUSH1 0x1 PUSH1 0xA0 SHL SUB SWAP2 DUP3 AND PUSH1 0x4 DUP3 ADD MSTORE SWAP2 AND SWAP1 PUSH4 0xB3596F07 SWAP1 PUSH1 0x24 ADD PUSH1 0x20 PUSH1 0x40 MLOAD DUP1 DUP4 SUB DUP2 DUP7 GAS STATICCALL ISZERO DUP1 ISZERO PUSH2 0x2784 JUMPI RETURNDATASIZE PUSH1 0x0 DUP1 RETURNDATACOPY RETURNDATASIZE PUSH1 0x0 REVERT JUMPDEST POP POP POP POP PUSH1 0x40 MLOAD RETURNDATASIZE PUSH1 0x1F NOT PUSH1 0x1F DUP3 ADD AND DUP3 ADD DUP1 PUSH1 0x40 MSTORE POP DUP2 ADD SWAP1 PUSH2 0x27A8 SWAP2 SWAP1 PUSH2 0x430A JUMP JUMPDEST PUSH2 0x27B2 SWAP1 DUP6 PUSH2 0x4192 JUMP JUMPDEST PUSH2 0x27BC SWAP2 SWAP1 PUSH2 0x41BF JUMP JUMPDEST SWAP1 POP DUP6 ISZERO PUSH2 0x27EE JUMPI PUSH2 0x27CF DUP2 PUSH1 0x1 PUSH2 0x4323 JUMP JUMPDEST DUP3 PUSH1 0xC SLOAD PUSH2 0x27DD SWAP2 SWAP1 PUSH2 0x4192 JUMP JUMPDEST PUSH2 0x27E7 SWAP2 SWAP1 PUSH2 0x41BF JUMP JUMPDEST SWAP5 POP PUSH2 0x2814 JUMP JUMPDEST PUSH2 0x27F9 DUP3 PUSH1 0x1 PUSH2 0x4323 JUMP JUMPDEST DUP2 PUSH1 0xC SLOAD PUSH2 0x2807 SWAP2 SWAP1 PUSH2 0x4192 JUMP JUMPDEST PUSH2 0x2811 SWAP2 SWAP1 PUSH2 0x41BF JUMP JUMPDEST SWAP5 POP JUMPDEST PUSH1 0x2 PUSH1 0xC SLOAD PUSH2 0x2823 SWAP2 SWAP1 PUSH2 0x41BF JUMP JUMPDEST DUP6 LT ISZERO PUSH2 0x283C JUMPI PUSH1 0x2 PUSH1 0xC SLOAD PUSH2 0x2839 SWAP2 SWAP1 PUSH2 0x41BF JUMP JUMPDEST SWAP5 POP JUMPDEST PUSH1 0x2 PUSH1 0xC SLOAD PUSH1 0x3 PUSH2 0x284D SWAP2 SWAP1 PUSH2 0x4192 JUMP JUMPDEST PUSH2 0x2857 SWAP2 SWAP1 PUSH2 0x41BF JUMP JUMPDEST DUP6 GT ISZERO PUSH2 0x287C JUMPI PUSH1 0x2 PUSH1 0xC SLOAD PUSH1 0x3 PUSH2 0x286F SWAP2 SWAP1 PUSH2 0x4192 JUMP JUMPDEST PUSH2 0x2879 SWAP2 SWAP1 PUSH2 0x41BF JUMP JUMPDEST SWAP5 POP JUMPDEST POP POP POP POP SWAP2 SWAP1 POP JUMP JUMPDEST PUSH1 0x0 PUSH2 0x13BF CALLER DUP5 DUP5 PUSH2 0x35D8 JUMP JUMPDEST PUSH1 0x8 SLOAD PUSH1 0x0 SWAP1 PUSH1 0x5 GT PUSH2 0x2A41 JUMPI POP PUSH1 0x0 JUMPDEST PUSH1 0x8 SLOAD PUSH2 0x28B2 SWAP1 PUSH1 0x3 SWAP1 PUSH2 0x42F7 JUMP JUMPDEST DUP2 LT ISZERO PUSH2 0x2A41 JUMPI PUSH1 0x0 DUP1 PUSH1 0x8 PUSH2 0x28C9 DUP5 PUSH1 0x1 PUSH2 0x4323 JUMP JUMPDEST DUP2 SLOAD DUP2 LT PUSH2 0x28D9 JUMPI PUSH2 0x28D9 PUSH2 0x4370 JUMP JUMPDEST PUSH1 0x0 SWAP2 DUP3 MSTORE PUSH1 0x20 SWAP1 SWAP2 KECCAK256 ADD SLOAD PUSH1 0x40 MLOAD PUSH4 0xD1F7E92B PUSH1 0xE0 SHL DUP2 MSTORE PUSH8 0xDE0B6B3A7640000 PUSH1 0x4 DUP3 ADD MSTORE PUSH1 0x1 PUSH1 0x1 PUSH1 0xA0 SHL SUB SWAP1 SWAP2 AND SWAP1 PUSH4 0xD1F7E92B SWAP1 PUSH1 0x24 ADD PUSH1 0x40 DUP1 MLOAD DUP1 DUP4 SUB DUP2 DUP7 GAS STATICCALL ISZERO DUP1 ISZERO PUSH2 0x2931 JUMPI RETURNDATASIZE PUSH1 0x0 DUP1 RETURNDATACOPY RETURNDATASIZE PUSH1 0x0 REVERT JUMPDEST POP POP POP POP PUSH1 0x40 MLOAD RETURNDATASIZE PUSH1 0x1F NOT PUSH1 0x1F DUP3 ADD AND DUP3 ADD DUP1 PUSH1 0x40 MSTORE POP DUP2 ADD SWAP1 PUSH2 0x2955 SWAP2 SWAP1 PUSH2 0x453B JUMP JUMPDEST SWAP1 SWAP3 POP SWAP1 POP PUSH1 0x0 DUP1 PUSH1 0x8 PUSH2 0x296A DUP7 PUSH1 0x2 PUSH2 0x4323 JUMP JUMPDEST DUP2 SLOAD DUP2 LT PUSH2 0x297A JUMPI PUSH2 0x297A PUSH2 0x4370 JUMP JUMPDEST PUSH1 0x0 SWAP2 DUP3 MSTORE PUSH1 0x20 SWAP1 SWAP2 KECCAK256 ADD SLOAD PUSH1 0x40 MLOAD PUSH4 0xD1F7E92B PUSH1 0xE0 SHL DUP2 MSTORE PUSH8 0xDE0B6B3A7640000 PUSH1 0x4 DUP3 ADD MSTORE PUSH1 0x1 PUSH1 0x1 PUSH1 0xA0 SHL SUB SWAP1 SWAP2 AND SWAP1 PUSH4 0xD1F7E92B SWAP1 PUSH1 0x24 ADD PUSH1 0x40 DUP1 MLOAD DUP1 DUP4 SUB DUP2 DUP7 GAS STATICCALL ISZERO DUP1 ISZERO PUSH2 0x29D2 JUMPI RETURNDATASIZE PUSH1 0x0 DUP1 RETURNDATACOPY RETURNDATASIZE PUSH1 0x0 REVERT JUMPDEST POP POP POP POP PUSH1 0x40 MLOAD RETURNDATASIZE PUSH1 0x1F NOT PUSH1 0x1F DUP3 ADD AND DUP3 ADD DUP1 PUSH1 0x40 MSTORE POP DUP2 ADD SWAP1 PUSH2 0x29F6 SWAP2 SWAP1 PUSH2 0x453B JUMP JUMPDEST SWAP2 POP SWAP2 POP DUP4 PUSH1 0x0 EQ DUP1 ISZERO PUSH2 0x2A0A JUMPI POP PUSH1 0x0 DUP3 GT JUMPDEST DUP1 PUSH2 0x2A1E JUMPI POP DUP3 ISZERO DUP1 ISZERO PUSH2 0x2A1E JUMPI POP PUSH1 0x0 DUP2 GT JUMPDEST ISZERO PUSH2 0x2A2A JUMPI POP POP POP POP SWAP1 JUMP JUMPDEST POP POP POP POP DUP1 DUP1 PUSH2 0x2A39 SWAP1 PUSH2 0x455F JUMP JUMPDEST SWAP2 POP POP PUSH2 0x28A3 JUMP JUMPDEST SWAP1 JUMP JUMPDEST PUSH1 0x0 DUP1 PUSH1 0xF PUSH1 0x0 SWAP1 SLOAD SWAP1 PUSH2 0x100 EXP SWAP1 DIV PUSH1 0x1 PUSH1 0x1 PUSH1 0xA0 SHL SUB AND PUSH1 0x1 PUSH1 0x1 PUSH1 0xA0 SHL SUB AND PUSH4 0x3850C7BD PUSH1 0x40 MLOAD DUP2 PUSH4 0xFFFFFFFF AND PUSH1 0xE0 SHL DUP2 MSTORE PUSH1 0x4 ADD PUSH1 0xE0 PUSH1 0x40 MLOAD DUP1 DUP4 SUB DUP2 DUP7 GAS STATICCALL ISZERO DUP1 ISZERO PUSH2 0x2A9A JUMPI RETURNDATASIZE PUSH1 0x0 DUP1 RETURNDATACOPY RETURNDATASIZE PUSH1 0x0 REVERT JUMPDEST POP POP POP POP PUSH1 0x40 MLOAD RETURNDATASIZE PUSH1 0x1F NOT PUSH1 0x1F DUP3 ADD AND DUP3 ADD DUP1 PUSH1 0x40 MSTORE POP DUP2 ADD SWAP1 PUSH2 0x2ABE SWAP2 SWAP1 PUSH2 0x464A JUMP JUMPDEST POP POP POP POP POP POP SWAP1 POP PUSH1 0x0 PUSH1 0xA PUSH1 0x0 SWAP1 SLOAD SWAP1 PUSH2 0x100 EXP SWAP1 DIV PUSH1 0x1 PUSH1 0x1 PUSH1 0xA0 SHL SUB AND PUSH1 0x1 PUSH1 0x1 PUSH1 0xA0 SHL SUB AND PUSH4 0x313CE567 PUSH1 0x40 MLOAD DUP2 PUSH4 0xFFFFFFFF AND PUSH1 0xE0 SHL DUP2 MSTORE PUSH1 0x4 ADD PUSH1 0x20 PUSH1 0x40 MLOAD DUP1 DUP4 SUB DUP2 DUP7 GAS STATICCALL ISZERO DUP1 ISZERO PUSH2 0x2B1B JUMPI RETURNDATASIZE PUSH1 0x0 DUP1 RETURNDATACOPY RETURNDATASIZE PUSH1 0x0 REVERT JUMPDEST POP POP POP POP PUSH1 0x40 MLOAD RETURNDATASIZE PUSH1 0x1F NOT PUSH1 0x1F DUP3 ADD AND DUP3 ADD DUP1 PUSH1 0x40 MSTORE POP DUP2 ADD SWAP1 PUSH2 0x2B3F SWAP2 SWAP1 PUSH2 0x41E9 JUMP JUMPDEST PUSH1 0xFF AND SWAP1 POP PUSH1 0x0 PUSH1 0xB PUSH1 0x0 SWAP1 SLOAD SWAP1 PUSH2 0x100 EXP SWAP1 DIV PUSH1 0x1 PUSH1 0x1 PUSH1 0xA0 SHL SUB AND PUSH1 0x1 PUSH1 0x1 PUSH1 0xA0 SHL SUB AND PUSH4 0x313CE567 PUSH1 0x40 MLOAD DUP2 PUSH4 0xFFFFFFFF AND PUSH1 0xE0 SHL DUP2 MSTORE PUSH1 0x4 ADD PUSH1 0x20 PUSH1 0x40 MLOAD DUP1 DUP4 SUB DUP2 DUP7 GAS STATICCALL ISZERO DUP1 ISZERO PUSH2 0x2B99 JUMPI RETURNDATASIZE PUSH1 0x0 DUP1 RETURNDATACOPY RETURNDATASIZE PUSH1 0x0 REVERT JUMPDEST POP POP POP POP PUSH1 0x40 MLOAD RETURNDATASIZE PUSH1 0x1F NOT PUSH1 0x1F DUP3 ADD AND DUP3 ADD DUP1 PUSH1 0x40 MSTORE POP DUP2 ADD SWAP1 PUSH2 0x2BBD SWAP2 SWAP1 PUSH2 0x41E9 JUMP JUMPDEST PUSH1 0xFF AND SWAP1 POP PUSH1 0x0 PUSH2 0x2BCF DUP4 PUSH1 0xA PUSH2 0x46D6 JUMP JUMPDEST SWAP1 POP PUSH1 0x1 PUSH1 0xA8 SHL PUSH1 0x2 PUSH2 0x2BE4 PUSH2 0x1000 DUP8 PUSH2 0x46E2 JUMP JUMPDEST PUSH1 0x1 PUSH1 0x1 PUSH1 0xA0 SHL SUB AND PUSH2 0x2BF7 SWAP2 SWAP1 PUSH2 0x42E8 JUMP JUMPDEST PUSH2 0x2C01 SWAP1 DUP4 PUSH2 0x4192 JUMP JUMPDEST PUSH2 0x2C0F SWAP1 PUSH4 0x5F5E100 PUSH2 0x4192 JUMP JUMPDEST PUSH2 0x2C19 SWAP2 SWAP1 PUSH2 0x41BF JUMP JUMPDEST SWAP1 POP PUSH2 0x2C26 DUP3 PUSH1 0xA PUSH2 0x46D6 JUMP JUMPDEST PUSH2 0x2C30 SWAP1 DUP3 PUSH2 0x41BF JUMP JUMPDEST PUSH1 0x11 SLOAD PUSH1 0xB SLOAD PUSH1 0x40 MLOAD PUSH4 0xB3596F07 PUSH1 0xE0 SHL DUP2 MSTORE PUSH1 0x1 PUSH1 0x1 PUSH1 0xA0 SHL SUB SWAP2 DUP3 AND PUSH1 0x4 DUP3 ADD MSTORE SWAP3 SWAP4 POP PUSH1 0x0 SWAP3 SWAP2 AND SWAP1 PUSH4 0xB3596F07 SWAP1 PUSH1 0x24 ADD PUSH1 0x20 PUSH1 0x40 MLOAD DUP1 DUP4 SUB DUP2 DUP7 GAS STATICCALL ISZERO DUP1 ISZERO PUSH2 0x2C82 JUMPI RETURNDATASIZE PUSH1 0x0 DUP1 RETURNDATACOPY RETURNDATASIZE PUSH1 0x0 REVERT JUMPDEST POP POP POP POP PUSH1 0x40 MLOAD RETURNDATASIZE PUSH1 0x1F NOT PUSH1 0x1F DUP3 ADD AND DUP3 ADD DUP1 PUSH1 0x40 MSTORE POP DUP2 ADD SWAP1 PUSH2 0x2CA6 SWAP2 SWAP1 PUSH2 0x430A JUMP JUMPDEST PUSH1 0x11 SLOAD PUSH1 0xA SLOAD PUSH1 0x40 MLOAD PUSH4 0xB3596F07 PUSH1 0xE0 SHL DUP2 MSTORE PUSH1 0x1 PUSH1 0x1 PUSH1 0xA0 SHL SUB SWAP2 DUP3 AND PUSH1 0x4 DUP3 ADD MSTORE SWAP2 AND SWAP1 PUSH4 0xB3596F07 SWAP1 PUSH1 0x24 ADD PUSH1 0x20 PUSH1 0x40 MLOAD DUP1 DUP4 SUB DUP2 DUP7 GAS STATICCALL ISZERO DUP1 ISZERO PUSH2 0x2CF2 JUMPI RETURNDATASIZE PUSH1 0x0 DUP1 RETURNDATACOPY RETURNDATASIZE PUSH1 0x0 REVERT JUMPDEST POP POP POP POP PUSH1 0x40 MLOAD RETURNDATASIZE PUSH1 0x1F NOT PUSH1 0x1F DUP3 ADD AND DUP3 ADD DUP1 PUSH1 0x40 MSTORE POP DUP2 ADD SWAP1 PUSH2 0x2D16 SWAP2 SWAP1 PUSH2 0x430A JUMP JUMPDEST PUSH2 0x2D24 SWAP1 PUSH4 0x5F5E100 PUSH2 0x4192 JUMP JUMPDEST PUSH2 0x2D2E SWAP2 SWAP1 PUSH2 0x41BF JUMP JUMPDEST SWAP1 POP PUSH1 0x64 PUSH2 0x2D3D DUP4 PUSH1 0x65 PUSH2 0x4192 JUMP JUMPDEST PUSH2 0x2D47 SWAP2 SWAP1 PUSH2 0x41BF JUMP JUMPDEST DUP2 LT DUP1 ISZERO PUSH2 0x2D6A JUMPI POP PUSH1 0x64 PUSH2 0x2D5D DUP4 PUSH1 0x63 PUSH2 0x4192 JUMP JUMPDEST PUSH2 0x2D67 SWAP2 SWAP1 PUSH2 0x41BF JUMP JUMPDEST DUP2 GT JUMPDEST ISZERO PUSH2 0x2D74 JUMPI PUSH1 0x1 SWAP6 POP JUMPDEST POP POP POP POP POP SWAP1 JUMP JUMPDEST PUSH1 0x5 SLOAD PUSH1 0x1 PUSH1 0x1 PUSH1 0xA0 SHL SUB AND CALLER EQ PUSH2 0x2DA6 JUMPI PUSH1 0x40 MLOAD PUSH3 0x461BCD PUSH1 0xE5 SHL DUP2 MSTORE PUSH1 0x4 ADD PUSH2 0x8AC SWAP1 PUSH2 0x4578 JUMP JUMPDEST PUSH1 0xD DUP2 SWAP1 SSTORE PUSH1 0x40 MLOAD DUP2 DUP2 MSTORE PUSH32 0x9B83075767C93F683DC38F28B4E8FD725867522B5BBEAD77B8C397AB04FE21F1 SWAP1 PUSH1 0x20 ADD PUSH2 0x169C JUMP JUMPDEST PUSH1 0x5 SLOAD PUSH1 0x1 PUSH1 0x1 PUSH1 0xA0 SHL SUB AND CALLER EQ PUSH2 0x2E05 JUMPI PUSH1 0x40 MLOAD PUSH3 0x461BCD PUSH1 0xE5 SHL DUP2 MSTORE PUSH1 0x4 ADD PUSH2 0x8AC SWAP1 PUSH2 0x4578 JUMP JUMPDEST PUSH1 0xE DUP1 SLOAD PUSH1 0x1 PUSH1 0x1 PUSH1 0xA0 SHL SUB NOT AND PUSH1 0x1 PUSH1 0x1 PUSH1 0xA0 SHL SUB DUP4 AND SWAP1 DUP2 OR SWAP1 SWAP2 SSTORE PUSH1 0x40 MLOAD SWAP1 DUP2 MSTORE PUSH32 0xCB7EF3E545F5CDB893F5C568BA710FE08F336375A2D9FD66E161033F8FC09EF3 SWAP1 PUSH1 0x20 ADD PUSH2 0x169C JUMP JUMPDEST PUSH1 0x5 SLOAD PUSH1 0x1 PUSH1 0x1 PUSH1 0xA0 SHL SUB AND CALLER EQ PUSH2 0x2E7D JUMPI PUSH1 0x40 MLOAD PUSH3 0x461BCD PUSH1 0xE5 SHL DUP2 MSTORE PUSH1 0x4 ADD PUSH2 0x8AC SWAP1 PUSH2 0x4578 JUMP JUMPDEST PUSH1 0x1 PUSH1 0x1 PUSH1 0xA0 SHL SUB DUP2 AND PUSH2 0x2EE2 JUMPI PUSH1 0x40 MLOAD PUSH3 0x461BCD PUSH1 0xE5 SHL DUP2 MSTORE PUSH1 0x20 PUSH1 0x4 DUP3 ADD MSTORE PUSH1 0x26 PUSH1 0x24 DUP3 ADD MSTORE PUSH32 0x4F776E61626C653A206E6577206F776E657220697320746865207A65726F2061 PUSH1 0x44 DUP3 ADD MSTORE PUSH6 0x646472657373 PUSH1 0xD0 SHL PUSH1 0x64 DUP3 ADD MSTORE PUSH1 0x84 ADD PUSH2 0x8AC JUMP JUMPDEST PUSH2 0x2EEB DUP2 PUSH2 0x37A6 JUMP JUMPDEST POP JUMP JUMPDEST PUSH1 0x40 MLOAD PUSH1 0x1 PUSH1 0x1 PUSH1 0xA0 SHL SUB DUP1 DUP6 AND PUSH1 0x24 DUP4 ADD MSTORE DUP4 AND PUSH1 0x44 DUP3 ADD MSTORE PUSH1 0x64 DUP2 ADD DUP3 SWAP1 MSTORE PUSH2 0x2F59 SWAP1 DUP6 SWAP1 PUSH4 0x23B872DD PUSH1 0xE0 SHL SWAP1 PUSH1 0x84 ADD JUMPDEST PUSH1 0x40 DUP1 MLOAD PUSH1 0x1F NOT DUP2 DUP5 SUB ADD DUP2 MSTORE SWAP2 SWAP1 MSTORE PUSH1 0x20 DUP2 ADD DUP1 MLOAD PUSH1 0x1 PUSH1 0x1 PUSH1 0xE0 SHL SUB AND PUSH1 0x1 PUSH1 0x1 PUSH1 0xE0 SHL SUB NOT SWAP1 SWAP4 AND SWAP3 SWAP1 SWAP3 OR SWAP1 SWAP2 MSTORE PUSH2 0x37F8 JUMP JUMPDEST POP POP POP POP JUMP JUMPDEST PUSH1 0x40 MLOAD PUSH1 0x1 PUSH1 0x1 PUSH1 0xA0 SHL SUB DUP4 AND PUSH1 0x24 DUP3 ADD MSTORE PUSH1 0x44 DUP2 ADD DUP3 SWAP1 MSTORE PUSH2 0x2F8F SWAP1 DUP5 SWAP1 PUSH4 0xA9059CBB PUSH1 0xE0 SHL SWAP1 PUSH1 0x64 ADD PUSH2 0x2F22 JUMP JUMPDEST POP POP POP JUMP JUMPDEST PUSH1 0x1 PUSH1 0x1 PUSH1 0xA0 SHL SUB DUP3 AND PUSH2 0x2FEA JUMPI PUSH1 0x40 MLOAD PUSH3 0x461BCD PUSH1 0xE5 SHL DUP2 MSTORE PUSH1 0x20 PUSH1 0x4 DUP3 ADD MSTORE PUSH1 0x1F PUSH1 0x24 DUP3 ADD MSTORE PUSH32 0x45524332303A206D696E7420746F20746865207A65726F206164647265737300 PUSH1 0x44 DUP3 ADD MSTORE PUSH1 0x64 ADD PUSH2 0x8AC JUMP JUMPDEST DUP1 PUSH1 0x2 PUSH1 0x0 DUP3 DUP3 SLOAD PUSH2 0x2FFC SWAP2 SWAP1 PUSH2 0x4323 JUMP JUMPDEST SWAP1 SWAP2 SSTORE POP POP PUSH1 0x1 PUSH1 0x1 PUSH1 0xA0 SHL SUB DUP3 AND PUSH1 0x0 SWAP1 DUP2 MSTORE PUSH1 0x20 DUP2 SWAP1 MSTORE PUSH1 0x40 DUP2 KECCAK256 DUP1 SLOAD DUP4 SWAP3 SWAP1 PUSH2 0x3029 SWAP1 DUP5 SWAP1 PUSH2 0x4323 JUMP JUMPDEST SWAP1 SWAP2 SSTORE POP POP PUSH1 0x40 MLOAD DUP2 DUP2 MSTORE PUSH1 0x1 PUSH1 0x1 PUSH1 0xA0 SHL SUB DUP4 AND SWAP1 PUSH1 0x0 SWAP1 PUSH32 0xDDF252AD1BE2C89B69C2B068FC378DAA952BA7F163C4A11628F55A4DF523B3EF SWAP1 PUSH1 0x20 ADD PUSH1 0x40 MLOAD DUP1 SWAP2 SUB SWAP1 LOG3 POP POP JUMP JUMPDEST PUSH1 0x1 PUSH1 0x1 PUSH1 0xA0 SHL SUB DUP3 AND PUSH2 0x30D3 JUMPI PUSH1 0x40 MLOAD PUSH3 0x461BCD PUSH1 0xE5 SHL DUP2 MSTORE PUSH1 0x20 PUSH1 0x4 DUP3 ADD MSTORE PUSH1 0x21 PUSH1 0x24 DUP3 ADD MSTORE PUSH32 0x45524332303A206275726E2066726F6D20746865207A65726F20616464726573 PUSH1 0x44 DUP3 ADD MSTORE PUSH1 0x73 PUSH1 0xF8 SHL PUSH1 0x64 DUP3 ADD MSTORE PUSH1 0x84 ADD PUSH2 0x8AC JUMP JUMPDEST PUSH1 0x1 PUSH1 0x1 PUSH1 0xA0 SHL SUB DUP3 AND PUSH1 0x0 SWAP1 DUP2 MSTORE PUSH1 0x20 DUP2 SWAP1 MSTORE PUSH1 0x40 SWAP1 KECCAK256 SLOAD DUP2 DUP2 LT ISZERO PUSH2 0x3147 JUMPI PUSH1 0x40 MLOAD PUSH3 0x461BCD PUSH1 0xE5 SHL DUP2 MSTORE PUSH1 0x20 PUSH1 0x4 DUP3 ADD MSTORE PUSH1 0x22 PUSH1 0x24 DUP3 ADD MSTORE PUSH32 0x45524332303A206275726E20616D6F756E7420657863656564732062616C616E PUSH1 0x44 DUP3 ADD MSTORE PUSH2 0x6365 PUSH1 0xF0 SHL PUSH1 0x64 DUP3 ADD MSTORE PUSH1 0x84 ADD PUSH2 0x8AC JUMP JUMPDEST PUSH1 0x1 PUSH1 0x1 PUSH1 0xA0 SHL SUB DUP4 AND PUSH1 0x0 SWAP1 DUP2 MSTORE PUSH1 0x20 DUP2 SWAP1 MSTORE PUSH1 0x40 DUP2 KECCAK256 DUP4 DUP4 SUB SWAP1 SSTORE PUSH1 0x2 DUP1 SLOAD DUP5 SWAP3 SWAP1 PUSH2 0x3176 SWAP1 DUP5 SWAP1 PUSH2 0x42F7 JUMP JUMPDEST SWAP1 SWAP2 SSTORE POP POP PUSH1 0x40 MLOAD DUP3 DUP2 MSTORE PUSH1 0x0 SWAP1 PUSH1 0x1 PUSH1 0x1 PUSH1 0xA0 SHL SUB DUP6 AND SWAP1 PUSH32 0xDDF252AD1BE2C89B69C2B068FC378DAA952BA7F163C4A11628F55A4DF523B3EF SWAP1 PUSH1 0x20 ADD PUSH1 0x40 MLOAD DUP1 SWAP2 SUB SWAP1 LOG3 POP POP POP JUMP JUMPDEST PUSH1 0x0 JUMPDEST PUSH1 0x8 SLOAD DUP2 LT ISZERO PUSH2 0x2EEB JUMPI PUSH2 0x31D7 DUP2 PUSH2 0x38CA JUMP JUMPDEST DUP1 PUSH2 0x31E1 DUP2 PUSH2 0x455F JUMP JUMPDEST SWAP2 POP POP PUSH2 0x31C4 JUMP JUMPDEST PUSH1 0x0 PUSH2 0x31F3 PUSH2 0x2892 JUMP JUMPDEST PUSH1 0xA SLOAD PUSH1 0x40 MLOAD PUSH4 0x70A08231 PUSH1 0xE0 SHL DUP2 MSTORE ADDRESS PUSH1 0x4 DUP3 ADD MSTORE SWAP2 SWAP3 POP PUSH1 0x0 SWAP2 PUSH1 0x1 PUSH1 0x1 PUSH1 0xA0 SHL SUB SWAP1 SWAP2 AND SWAP1 PUSH4 0x70A08231 SWAP1 PUSH1 0x24 ADD PUSH1 0x20 PUSH1 0x40 MLOAD DUP1 DUP4 SUB DUP2 DUP7 GAS STATICCALL ISZERO DUP1 ISZERO PUSH2 0x3241 JUMPI RETURNDATASIZE PUSH1 0x0 DUP1 RETURNDATACOPY RETURNDATASIZE PUSH1 0x0 REVERT JUMPDEST POP POP POP POP PUSH1 0x40 MLOAD RETURNDATASIZE PUSH1 0x1F NOT PUSH1 0x1F DUP3 ADD AND DUP3 ADD DUP1 PUSH1 0x40 MSTORE POP DUP2 ADD SWAP1 PUSH2 0x3265 SWAP2 SWAP1 PUSH2 0x430A JUMP JUMPDEST PUSH1 0xB SLOAD PUSH1 0x40 MLOAD PUSH4 0x70A08231 PUSH1 0xE0 SHL DUP2 MSTORE ADDRESS PUSH1 0x4 DUP3 ADD MSTORE SWAP2 SWAP3 POP PUSH1 0x0 SWAP2 PUSH1 0x1 PUSH1 0x1 PUSH1 0xA0 SHL SUB SWAP1 SWAP2 AND SWAP1 PUSH4 0x70A08231 SWAP1 PUSH1 0x24 ADD PUSH1 0x20 PUSH1 0x40 MLOAD DUP1 DUP4 SUB DUP2 DUP7 GAS STATICCALL ISZERO DUP1 ISZERO PUSH2 0x32B3 JUMPI RETURNDATASIZE PUSH1 0x0 DUP1 RETURNDATACOPY RETURNDATASIZE PUSH1 0x0 REVERT JUMPDEST POP POP POP POP PUSH1 0x40 MLOAD RETURNDATASIZE PUSH1 0x1F NOT PUSH1 0x1F DUP3 ADD AND DUP3 ADD DUP1 PUSH1 0x40 MSTORE POP DUP2 ADD SWAP1 PUSH2 0x32D7 SWAP2 SWAP1 PUSH2 0x430A JUMP JUMPDEST SWAP1 POP PUSH1 0x0 DUP1 PUSH1 0x8 DUP6 DUP2 SLOAD DUP2 LT PUSH2 0x32EF JUMPI PUSH2 0x32EF PUSH2 0x4370 JUMP JUMPDEST PUSH1 0x0 SWAP2 DUP3 MSTORE PUSH1 0x20 SWAP1 SWAP2 KECCAK256 ADD SLOAD PUSH1 0x40 MLOAD PUSH4 0xD1F7E92B PUSH1 0xE0 SHL DUP2 MSTORE PUSH8 0xDE0B6B3A7640000 PUSH1 0x4 DUP3 ADD MSTORE PUSH1 0x1 PUSH1 0x1 PUSH1 0xA0 SHL SUB SWAP1 SWAP2 AND SWAP1 PUSH4 0xD1F7E92B SWAP1 PUSH1 0x24 ADD PUSH1 0x40 DUP1 MLOAD DUP1 DUP4 SUB DUP2 DUP7 GAS STATICCALL ISZERO DUP1 ISZERO PUSH2 0x3347 JUMPI RETURNDATASIZE PUSH1 0x0 DUP1 RETURNDATACOPY RETURNDATASIZE PUSH1 0x0 REVERT JUMPDEST POP POP POP POP PUSH1 0x40 MLOAD RETURNDATASIZE PUSH1 0x1F NOT PUSH1 0x1F DUP3 ADD AND DUP3 ADD DUP1 PUSH1 0x40 MSTORE POP DUP2 ADD SWAP1 PUSH2 0x336B SWAP2 SWAP1 PUSH2 0x453B JUMP JUMPDEST SWAP1 SWAP3 POP SWAP1 POP DUP5 PUSH1 0x0 PUSH2 0x337E DUP3 PUSH1 0x2 PUSH2 0x4323 JUMP JUMPDEST SWAP1 POP DUP3 ISZERO PUSH2 0x3397 JUMPI PUSH2 0x3391 DUP8 PUSH1 0x2 PUSH2 0x4323 JUMP JUMPDEST SWAP2 POP DUP7 SWAP1 POP JUMPDEST DUP6 ISZERO PUSH2 0x33FD JUMPI PUSH2 0x33DA PUSH1 0x8 DUP4 DUP2 SLOAD DUP2 LT PUSH2 0x33B3 JUMPI PUSH2 0x33B3 PUSH2 0x4370 JUMP JUMPDEST PUSH1 0x0 SWAP2 DUP3 MSTORE PUSH1 0x20 SWAP1 SWAP2 KECCAK256 ADD SLOAD PUSH1 0x1 PUSH1 0x1 PUSH1 0xA0 SHL SUB AND PUSH2 0x33D3 PUSH1 0x2 DUP10 PUSH2 0x41BF JUMP JUMPDEST PUSH1 0x0 PUSH2 0x3B52 JUMP JUMPDEST POP PUSH2 0x33FB PUSH1 0x8 PUSH2 0x33EB DUP5 PUSH1 0x1 PUSH2 0x4323 JUMP JUMPDEST DUP2 SLOAD DUP2 LT PUSH2 0x33B3 JUMPI PUSH2 0x33B3 PUSH2 0x4370 JUMP JUMPDEST POP JUMPDEST DUP5 ISZERO PUSH2 0x3461 JUMPI PUSH2 0x343E PUSH1 0x8 DUP3 DUP2 SLOAD DUP2 LT PUSH2 0x3419 JUMPI PUSH2 0x3419 PUSH2 0x4370 JUMP JUMPDEST PUSH1 0x0 SWAP2 DUP3 MSTORE PUSH1 0x20 DUP3 KECCAK256 ADD SLOAD PUSH1 0x1 PUSH1 0x1 PUSH1 0xA0 SHL SUB AND SWAP1 PUSH2 0x3439 PUSH1 0x2 DUP10 PUSH2 0x41BF JUMP JUMPDEST PUSH2 0x3B52 JUMP JUMPDEST POP PUSH2 0x345F PUSH1 0x8 PUSH2 0x344F DUP4 PUSH1 0x1 PUSH2 0x4323 JUMP JUMPDEST DUP2 SLOAD DUP2 LT PUSH2 0x3419 JUMPI PUSH2 0x3419 PUSH2 0x4370 JUMP JUMPDEST POP JUMPDEST PUSH1 0x9 SLOAD DUP8 EQ PUSH2 0x3470 JUMPI PUSH1 0x9 DUP8 SWAP1 SSTORE JUMPDEST PUSH32 0x811D4760F1A92875EB76DBD3DC2359544B2F6A000BA5B78784C0B105B3469BD0 PUSH1 0x9 SLOAD PUSH1 0x40 MLOAD PUSH2 0x34A3 SWAP2 DUP2 MSTORE PUSH1 0x20 ADD SWAP1 JUMP JUMPDEST PUSH1 0x40 MLOAD DUP1 SWAP2 SUB SWAP1 LOG1 POP POP POP POP POP POP POP JUMP JUMPDEST PUSH1 0x1 PUSH1 0x1 PUSH1 0xA0 SHL SUB DUP4 AND PUSH2 0x3516 JUMPI PUSH1 0x40 MLOAD PUSH3 0x461BCD PUSH1 0xE5 SHL DUP2 MSTORE PUSH1 0x20 PUSH1 0x4 DUP3 ADD MSTORE PUSH1 0x24 DUP1 DUP3 ADD MSTORE PUSH32 0x45524332303A20617070726F76652066726F6D20746865207A65726F20616464 PUSH1 0x44 DUP3 ADD MSTORE PUSH4 0x72657373 PUSH1 0xE0 SHL PUSH1 0x64 DUP3 ADD MSTORE PUSH1 0x84 ADD PUSH2 0x8AC JUMP JUMPDEST PUSH1 0x1 PUSH1 0x1 PUSH1 0xA0 SHL SUB DUP3 AND PUSH2 0x3577 JUMPI PUSH1 0x40 MLOAD PUSH3 0x461BCD PUSH1 0xE5 SHL DUP2 MSTORE PUSH1 0x20 PUSH1 0x4 DUP3 ADD MSTORE PUSH1 0x22 PUSH1 0x24 DUP3 ADD MSTORE PUSH32 0x45524332303A20617070726F766520746F20746865207A65726F206164647265 PUSH1 0x44 DUP3 ADD MSTORE PUSH2 0x7373 PUSH1 0xF0 SHL PUSH1 0x64 DUP3 ADD MSTORE PUSH1 0x84 ADD PUSH2 0x8AC JUMP JUMPDEST PUSH1 0x1 PUSH1 0x1 PUSH1 0xA0 SHL SUB DUP4 DUP2 AND PUSH1 0x0 DUP2 DUP2 MSTORE PUSH1 0x1 PUSH1 0x20 SWAP1 DUP2 MSTORE PUSH1 0x40 DUP1 DUP4 KECCAK256 SWAP5 DUP8 AND DUP1 DUP5 MSTORE SWAP5 DUP3 MSTORE SWAP2 DUP3 SWAP1 KECCAK256 DUP6 SWAP1 SSTORE SWAP1 MLOAD DUP5 DUP2 MSTORE PUSH32 0x8C5BE1E5EBEC7D5BD14F71427D1E84F3DD0314C0F7B2291E5B200AC8C7C3B925 SWAP2 ADD PUSH1 0x40 MLOAD DUP1 SWAP2 SUB SWAP1 LOG3 POP POP POP JUMP JUMPDEST PUSH1 0x1 PUSH1 0x1 PUSH1 0xA0 SHL SUB DUP4 AND PUSH2 0x363C JUMPI PUSH1 0x40 MLOAD PUSH3 0x461BCD PUSH1 0xE5 SHL DUP2 MSTORE PUSH1 0x20 PUSH1 0x4 DUP3 ADD MSTORE PUSH1 0x25 PUSH1 0x24 DUP3 ADD MSTORE PUSH32 0x45524332303A207472616E736665722066726F6D20746865207A65726F206164 PUSH1 0x44 DUP3 ADD MSTORE PUSH5 0x6472657373 PUSH1 0xD8 SHL PUSH1 0x64 DUP3 ADD MSTORE PUSH1 0x84 ADD PUSH2 0x8AC JUMP JUMPDEST PUSH1 0x1 PUSH1 0x1 PUSH1 0xA0 SHL SUB DUP3 AND PUSH2 0x369E JUMPI PUSH1 0x40 MLOAD PUSH3 0x461BCD PUSH1 0xE5 SHL DUP2 MSTORE PUSH1 0x20 PUSH1 0x4 DUP3 ADD MSTORE PUSH1 0x23 PUSH1 0x24 DUP3 ADD MSTORE PUSH32 0x45524332303A207472616E7366657220746F20746865207A65726F2061646472 PUSH1 0x44 DUP3 ADD MSTORE PUSH3 0x657373 PUSH1 0xE8 SHL PUSH1 0x64 DUP3 ADD MSTORE PUSH1 0x84 ADD PUSH2 0x8AC JUMP JUMPDEST PUSH1 0x1 PUSH1 0x1 PUSH1 0xA0 SHL SUB DUP4 AND PUSH1 0x0 SWAP1 DUP2 MSTORE PUSH1 0x20 DUP2 SWAP1 MSTORE PUSH1 0x40 SWAP1 KECCAK256 SLOAD DUP2 DUP2 LT ISZERO PUSH2 0x3716 JUMPI PUSH1 0x40 MLOAD PUSH3 0x461BCD PUSH1 0xE5 SHL DUP2 MSTORE PUSH1 0x20 PUSH1 0x4 DUP3 ADD MSTORE PUSH1 0x26 PUSH1 0x24 DUP3 ADD MSTORE PUSH32 0x45524332303A207472616E7366657220616D6F756E7420657863656564732062 PUSH1 0x44 DUP3 ADD MSTORE PUSH6 0x616C616E6365 PUSH1 0xD0 SHL PUSH1 0x64 DUP3 ADD MSTORE PUSH1 0x84 ADD PUSH2 0x8AC JUMP JUMPDEST PUSH1 0x1 PUSH1 0x1 PUSH1 0xA0 SHL SUB DUP1 DUP6 AND PUSH1 0x0 SWAP1 DUP2 MSTORE PUSH1 0x20 DUP2 SWAP1 MSTORE PUSH1 0x40 DUP1 DUP3 KECCAK256 DUP6 DUP6 SUB SWAP1 SSTORE SWAP2 DUP6 AND DUP2 MSTORE SWAP1 DUP2 KECCAK256 DUP1 SLOAD DUP5 SWAP3 SWAP1 PUSH2 0x374D SWAP1 DUP5 SWAP1 PUSH2 0x4323 JUMP JUMPDEST SWAP3 POP POP DUP2 SWAP1 SSTORE POP DUP3 PUSH1 0x1 PUSH1 0x1 PUSH1 0xA0 SHL SUB AND DUP5 PUSH1 0x1 PUSH1 0x1 PUSH1 0xA0 SHL SUB AND PUSH32 0xDDF252AD1BE2C89B69C2B068FC378DAA952BA7F163C4A11628F55A4DF523B3EF DUP5 PUSH1 0x40 MLOAD PUSH2 0x3799 SWAP2 DUP2 MSTORE PUSH1 0x20 ADD SWAP1 JUMP JUMPDEST PUSH1 0x40 MLOAD DUP1 SWAP2 SUB SWAP1 LOG3 PUSH2 0x2F59 JUMP JUMPDEST PUSH1 0x5 DUP1 SLOAD PUSH1 0x1 PUSH1 0x1 PUSH1 0xA0 SHL SUB DUP4 DUP2 AND PUSH1 0x1 PUSH1 0x1 PUSH1 0xA0 SHL SUB NOT DUP4 AND DUP2 OR SWAP1 SWAP4 SSTORE PUSH1 0x40 MLOAD SWAP2 AND SWAP2 SWAP1 DUP3 SWAP1 PUSH32 0x8BE0079C531659141344CD1FD0A4F28419497F9722A3DAAFE3B4186F6B6457E0 SWAP1 PUSH1 0x0 SWAP1 LOG3 POP POP JUMP JUMPDEST PUSH1 0x0 PUSH2 0x384D DUP3 PUSH1 0x40 MLOAD DUP1 PUSH1 0x40 ADD PUSH1 0x40 MSTORE DUP1 PUSH1 0x20 DUP2 MSTORE PUSH1 0x20 ADD PUSH32 0x5361666545524332303A206C6F772D6C6576656C2063616C6C206661696C6564 DUP2 MSTORE POP DUP6 PUSH1 0x1 PUSH1 0x1 PUSH1 0xA0 SHL SUB AND PUSH2 0x3CFF SWAP1 SWAP3 SWAP2 SWAP1 PUSH4 0xFFFFFFFF AND JUMP JUMPDEST DUP1 MLOAD SWAP1 SWAP2 POP ISZERO PUSH2 0x2F8F JUMPI DUP1 DUP1 PUSH1 0x20 ADD SWAP1 MLOAD DUP2 ADD SWAP1 PUSH2 0x386B SWAP2 SWAP1 PUSH2 0x4708 JUMP JUMPDEST PUSH2 0x2F8F JUMPI PUSH1 0x40 MLOAD PUSH3 0x461BCD PUSH1 0xE5 SHL DUP2 MSTORE PUSH1 0x20 PUSH1 0x4 DUP3 ADD MSTORE PUSH1 0x2A PUSH1 0x24 DUP3 ADD MSTORE PUSH32 0x5361666545524332303A204552433230206F7065726174696F6E20646964206E PUSH1 0x44 DUP3 ADD MSTORE PUSH10 0x1BDD081CDD58D8D95959 PUSH1 0xB2 SHL PUSH1 0x64 DUP3 ADD MSTORE PUSH1 0x84 ADD PUSH2 0x8AC JUMP JUMPDEST PUSH1 0x0 PUSH1 0x8 DUP3 DUP2 SLOAD DUP2 LT PUSH2 0x38DF JUMPI PUSH2 0x38DF PUSH2 0x4370 JUMP JUMPDEST PUSH1 0x0 SWAP2 DUP3 MSTORE PUSH1 0x20 DUP3 KECCAK256 ADD SLOAD PUSH1 0x10 SLOAD PUSH1 0x40 MLOAD PUSH4 0x35EA6A75 PUSH1 0xE0 SHL DUP2 MSTORE PUSH1 0x1 PUSH1 0x1 PUSH1 0xA0 SHL SUB SWAP3 DUP4 AND PUSH1 0x4 DUP3 ADD DUP2 SWAP1 MSTORE SWAP5 POP SWAP2 AND SWAP1 PUSH4 0x35EA6A75 SWAP1 PUSH1 0x24 ADD PUSH2 0x180 PUSH1 0x40 MLOAD DUP1 DUP4 SUB DUP2 DUP7 GAS STATICCALL ISZERO DUP1 ISZERO PUSH2 0x3938 JUMPI RETURNDATASIZE PUSH1 0x0 DUP1 RETURNDATACOPY RETURNDATASIZE PUSH1 0x0 REVERT JUMPDEST POP POP POP POP PUSH1 0x40 MLOAD RETURNDATASIZE PUSH1 0x1F NOT PUSH1 0x1F DUP3 ADD AND DUP3 ADD DUP1 PUSH1 0x40 MSTORE POP DUP2 ADD SWAP1 PUSH2 0x395C SWAP2 SWAP1 PUSH2 0x444E JUMP JUMPDEST PUSH1 0xE0 ADD MLOAD PUSH1 0x40 MLOAD PUSH4 0x70A08231 PUSH1 0xE0 SHL DUP2 MSTORE ADDRESS PUSH1 0x4 DUP3 ADD MSTORE SWAP1 SWAP2 POP PUSH1 0x0 SWAP1 PUSH1 0x1 PUSH1 0x1 PUSH1 0xA0 SHL SUB DUP4 AND SWAP1 PUSH4 0x70A08231 SWAP1 PUSH1 0x24 ADD PUSH1 0x20 PUSH1 0x40 MLOAD DUP1 DUP4 SUB DUP2 DUP7 GAS STATICCALL ISZERO DUP1 ISZERO PUSH2 0x39AA JUMPI RETURNDATASIZE PUSH1 0x0 DUP1 RETURNDATACOPY RETURNDATASIZE PUSH1 0x0 REVERT JUMPDEST POP POP POP POP PUSH1 0x40 MLOAD RETURNDATASIZE PUSH1 0x1F NOT PUSH1 0x1F DUP3 ADD AND DUP3 ADD DUP1 PUSH1 0x40 MSTORE POP DUP2 ADD SWAP1 PUSH2 0x39CE SWAP2 SWAP1 PUSH2 0x430A JUMP JUMPDEST PUSH1 0x40 MLOAD PUSH4 0x70A08231 PUSH1 0xE0 SHL DUP2 MSTORE PUSH1 0x1 PUSH1 0x1 PUSH1 0xA0 SHL SUB DUP5 DUP2 AND PUSH1 0x4 DUP4 ADD MSTORE SWAP2 SWAP3 POP PUSH1 0x0 SWAP2 DUP6 AND SWAP1 PUSH4 0x70A08231 SWAP1 PUSH1 0x24 ADD PUSH1 0x20 PUSH1 0x40 MLOAD DUP1 DUP4 SUB DUP2 DUP7 GAS STATICCALL ISZERO DUP1 ISZERO PUSH2 0x3A1A JUMPI RETURNDATASIZE PUSH1 0x0 DUP1 RETURNDATACOPY RETURNDATASIZE PUSH1 0x0 REVERT JUMPDEST POP POP POP POP PUSH1 0x40 MLOAD RETURNDATASIZE PUSH1 0x1F NOT PUSH1 0x1F DUP3 ADD AND DUP3 ADD DUP1 PUSH1 0x40 MSTORE POP DUP2 ADD SWAP1 PUSH2 0x3A3E SWAP2 SWAP1 PUSH2 0x430A JUMP JUMPDEST SWAP1 POP DUP1 DUP3 GT ISZERO PUSH2 0x3A4C JUMPI DUP1 SWAP2 POP JUMPDEST DUP2 ISZERO PUSH2 0x3B4B JUMPI PUSH1 0x10 SLOAD PUSH1 0x40 MLOAD PUSH4 0x1A4CA37B PUSH1 0xE2 SHL DUP2 MSTORE PUSH1 0x1 PUSH1 0x1 PUSH1 0xA0 SHL SUB DUP7 DUP2 AND PUSH1 0x4 DUP4 ADD MSTORE PUSH1 0x24 DUP3 ADD DUP6 SWAP1 MSTORE ADDRESS PUSH1 0x44 DUP4 ADD MSTORE SWAP1 SWAP2 AND SWAP1 PUSH4 0x69328DEC SWAP1 PUSH1 0x64 ADD PUSH1 0x20 PUSH1 0x40 MLOAD DUP1 DUP4 SUB DUP2 PUSH1 0x0 DUP8 GAS CALL ISZERO DUP1 ISZERO PUSH2 0x3AAB JUMPI RETURNDATASIZE PUSH1 0x0 DUP1 RETURNDATACOPY RETURNDATASIZE PUSH1 0x0 REVERT JUMPDEST POP POP POP POP PUSH1 0x40 MLOAD RETURNDATASIZE PUSH1 0x1F NOT PUSH1 0x1F DUP3 ADD AND DUP3 ADD DUP1 PUSH1 0x40 MSTORE POP DUP2 ADD SWAP1 PUSH2 0x3ACF SWAP2 SWAP1 PUSH2 0x430A JUMP JUMPDEST POP PUSH1 0x40 MLOAD PUSH4 0xA41FE49F PUSH1 0xE0 SHL DUP2 MSTORE PUSH1 0x4 DUP2 ADD DUP4 SWAP1 MSTORE PUSH1 0x0 PUSH1 0x24 DUP3 ADD DUP2 SWAP1 MSTORE PUSH1 0x44 DUP3 ADD MSTORE PUSH1 0x1 PUSH1 0x1 PUSH1 0xA0 SHL SUB DUP6 AND SWAP1 PUSH4 0xA41FE49F SWAP1 PUSH1 0x64 ADD PUSH1 0x40 DUP1 MLOAD DUP1 DUP4 SUB DUP2 PUSH1 0x0 DUP8 GAS CALL ISZERO DUP1 ISZERO PUSH2 0x3B24 JUMPI RETURNDATASIZE PUSH1 0x0 DUP1 RETURNDATACOPY RETURNDATASIZE PUSH1 0x0 REVERT JUMPDEST POP POP POP POP PUSH1 0x40 MLOAD RETURNDATASIZE PUSH1 0x1F NOT PUSH1 0x1F DUP3 ADD AND DUP3 ADD DUP1 PUSH1 0x40 MSTORE POP DUP2 ADD SWAP1 PUSH2 0x3B48 SWAP2 SWAP1 PUSH2 0x453B JUMP JUMPDEST POP POP JUMPDEST POP POP POP POP POP JUMP JUMPDEST PUSH1 0xA SLOAD PUSH1 0x0 SWAP1 PUSH2 0x3B6C SWAP1 PUSH1 0x1 PUSH1 0x1 PUSH1 0xA0 SHL SUB AND DUP6 DUP6 PUSH2 0x3D0E JUMP JUMPDEST PUSH1 0xB SLOAD PUSH2 0x3B83 SWAP1 PUSH1 0x1 PUSH1 0x1 PUSH1 0xA0 SHL SUB AND DUP6 DUP5 PUSH2 0x3D0E JUMP JUMPDEST PUSH1 0x40 MLOAD PUSH4 0x1C57762B PUSH1 0xE3 SHL DUP2 MSTORE PUSH1 0x4 DUP2 ADD DUP5 SWAP1 MSTORE PUSH1 0x24 DUP2 ADD DUP4 SWAP1 MSTORE PUSH1 0x1 PUSH1 0x1 PUSH1 0xA0 SHL SUB DUP6 AND SWAP1 PUSH4 0xE2BBB158 SWAP1 PUSH1 0x44 ADD PUSH1 0x20 PUSH1 0x40 MLOAD DUP1 DUP4 SUB DUP2 PUSH1 0x0 DUP8 GAS CALL ISZERO DUP1 ISZERO PUSH2 0x3BD1 JUMPI RETURNDATASIZE PUSH1 0x0 DUP1 RETURNDATACOPY RETURNDATASIZE PUSH1 0x0 REVERT JUMPDEST POP POP POP POP PUSH1 0x40 MLOAD RETURNDATASIZE PUSH1 0x1F NOT PUSH1 0x1F DUP3 ADD AND DUP3 ADD DUP1 PUSH1 0x40 MSTORE POP DUP2 ADD SWAP1 PUSH2 0x3BF5 SWAP2 SWAP1 PUSH2 0x430A JUMP JUMPDEST PUSH1 0x40 MLOAD PUSH4 0x70A08231 PUSH1 0xE0 SHL DUP2 MSTORE ADDRESS PUSH1 0x4 DUP3 ADD MSTORE SWAP1 SWAP2 POP PUSH1 0x0 SWAP1 PUSH1 0x1 PUSH1 0x1 PUSH1 0xA0 SHL SUB DUP7 AND SWAP1 PUSH4 0x70A08231 SWAP1 PUSH1 0x24 ADD PUSH1 0x20 PUSH1 0x40 MLOAD DUP1 DUP4 SUB DUP2 DUP7 GAS STATICCALL ISZERO DUP1 ISZERO PUSH2 0x3C3F JUMPI RETURNDATASIZE PUSH1 0x0 DUP1 RETURNDATACOPY RETURNDATASIZE PUSH1 0x0 REVERT JUMPDEST POP POP POP POP PUSH1 0x40 MLOAD RETURNDATASIZE PUSH1 0x1F NOT PUSH1 0x1F DUP3 ADD AND DUP3 ADD DUP1 PUSH1 0x40 MSTORE POP DUP2 ADD SWAP1 PUSH2 0x3C63 SWAP2 SWAP1 PUSH2 0x430A JUMP JUMPDEST SWAP1 POP DUP1 ISZERO PUSH2 0x3CF7 JUMPI PUSH1 0x10 SLOAD PUSH2 0x3C83 SWAP1 DUP7 SWAP1 PUSH1 0x1 PUSH1 0x1 PUSH1 0xA0 SHL SUB AND DUP4 PUSH2 0x3D0E JUMP JUMPDEST PUSH1 0x10 SLOAD PUSH1 0x40 MLOAD PUSH4 0xE8EDA9DF PUSH1 0xE0 SHL DUP2 MSTORE PUSH1 0x1 PUSH1 0x1 PUSH1 0xA0 SHL SUB DUP8 DUP2 AND PUSH1 0x4 DUP4 ADD MSTORE PUSH1 0x24 DUP3 ADD DUP5 SWAP1 MSTORE ADDRESS PUSH1 0x44 DUP4 ADD MSTORE PUSH1 0x0 PUSH1 0x64 DUP4 ADD MSTORE SWAP1 SWAP2 AND SWAP1 PUSH4 0xE8EDA9DF SWAP1 PUSH1 0x84 ADD PUSH1 0x0 PUSH1 0x40 MLOAD DUP1 DUP4 SUB DUP2 PUSH1 0x0 DUP8 DUP1 EXTCODESIZE ISZERO DUP1 ISZERO PUSH2 0x3CDE JUMPI PUSH1 0x0 DUP1 REVERT JUMPDEST POP GAS CALL ISZERO DUP1 ISZERO PUSH2 0x3CF2 JUMPI RETURNDATASIZE PUSH1 0x0 DUP1 RETURNDATACOPY RETURNDATASIZE PUSH1 0x0 REVERT JUMPDEST POP POP POP POP JUMPDEST POP SWAP4 SWAP3 POP POP POP JUMP JUMPDEST PUSH1 0x60 PUSH2 0x1F30 DUP5 DUP5 PUSH1 0x0 DUP6 PUSH2 0x3D9D JUMP JUMPDEST PUSH1 0x40 MLOAD PUSH4 0x6EB1769F PUSH1 0xE1 SHL DUP2 MSTORE ADDRESS PUSH1 0x4 DUP3 ADD MSTORE PUSH1 0x1 PUSH1 0x1 PUSH1 0xA0 SHL SUB DUP4 DUP2 AND PUSH1 0x24 DUP4 ADD MSTORE DUP3 SWAP2 SWAP1 DUP6 AND SWAP1 PUSH4 0xDD62ED3E SWAP1 PUSH1 0x44 ADD PUSH1 0x20 PUSH1 0x40 MLOAD DUP1 DUP4 SUB DUP2 DUP7 GAS STATICCALL ISZERO DUP1 ISZERO PUSH2 0x3D5D JUMPI RETURNDATASIZE PUSH1 0x0 DUP1 RETURNDATACOPY RETURNDATASIZE PUSH1 0x0 REVERT JUMPDEST POP POP POP POP PUSH1 0x40 MLOAD RETURNDATASIZE PUSH1 0x1F NOT PUSH1 0x1F DUP3 ADD AND DUP3 ADD DUP1 PUSH1 0x40 MSTORE POP DUP2 ADD SWAP1 PUSH2 0x3D81 SWAP2 SWAP1 PUSH2 0x430A JUMP JUMPDEST LT ISZERO PUSH2 0x2F8F JUMPI PUSH2 0x2F8F PUSH1 0x1 PUSH1 0x1 PUSH1 0xA0 SHL SUB DUP5 AND DUP4 PUSH1 0x0 NOT PUSH2 0x3ECE JUMP JUMPDEST PUSH1 0x60 DUP3 SELFBALANCE LT ISZERO PUSH2 0x3DFE JUMPI PUSH1 0x40 MLOAD PUSH3 0x461BCD PUSH1 0xE5 SHL DUP2 MSTORE PUSH1 0x20 PUSH1 0x4 DUP3 ADD MSTORE PUSH1 0x26 PUSH1 0x24 DUP3 ADD MSTORE PUSH32 0x416464726573733A20696E73756666696369656E742062616C616E636520666F PUSH1 0x44 DUP3 ADD MSTORE PUSH6 0x1C8818D85B1B PUSH1 0xD2 SHL PUSH1 0x64 DUP3 ADD MSTORE PUSH1 0x84 ADD PUSH2 0x8AC JUMP JUMPDEST PUSH1 0x1 PUSH1 0x1 PUSH1 0xA0 SHL SUB DUP6 AND EXTCODESIZE PUSH2 0x3E55 JUMPI PUSH1 0x40 MLOAD PUSH3 0x461BCD PUSH1 0xE5 SHL DUP2 MSTORE PUSH1 0x20 PUSH1 0x4 DUP3 ADD MSTORE PUSH1 0x1D PUSH1 0x24 DUP3 ADD MSTORE PUSH32 0x416464726573733A2063616C6C20746F206E6F6E2D636F6E7472616374000000 PUSH1 0x44 DUP3 ADD MSTORE PUSH1 0x64 ADD PUSH2 0x8AC JUMP JUMPDEST PUSH1 0x0 DUP1 DUP7 PUSH1 0x1 PUSH1 0x1 PUSH1 0xA0 SHL SUB AND DUP6 DUP8 PUSH1 0x40 MLOAD PUSH2 0x3E71 SWAP2 SWAP1 PUSH2 0x4725 JUMP JUMPDEST PUSH1 0x0 PUSH1 0x40 MLOAD DUP1 DUP4 SUB DUP2 DUP6 DUP8 GAS CALL SWAP3 POP POP POP RETURNDATASIZE DUP1 PUSH1 0x0 DUP2 EQ PUSH2 0x3EAE JUMPI PUSH1 0x40 MLOAD SWAP2 POP PUSH1 0x1F NOT PUSH1 0x3F RETURNDATASIZE ADD AND DUP3 ADD PUSH1 0x40 MSTORE RETURNDATASIZE DUP3 MSTORE RETURNDATASIZE PUSH1 0x0 PUSH1 0x20 DUP5 ADD RETURNDATACOPY PUSH2 0x3EB3 JUMP JUMPDEST PUSH1 0x60 SWAP2 POP JUMPDEST POP SWAP2 POP SWAP2 POP PUSH2 0x3EC3 DUP3 DUP3 DUP7 PUSH2 0x3F80 JUMP JUMPDEST SWAP8 SWAP7 POP POP POP POP POP POP POP JUMP JUMPDEST PUSH1 0x40 MLOAD PUSH4 0x6EB1769F PUSH1 0xE1 SHL DUP2 MSTORE ADDRESS PUSH1 0x4 DUP3 ADD MSTORE PUSH1 0x1 PUSH1 0x1 PUSH1 0xA0 SHL SUB DUP4 DUP2 AND PUSH1 0x24 DUP4 ADD MSTORE PUSH1 0x0 SWAP2 DUP4 SWAP2 DUP7 AND SWAP1 PUSH4 0xDD62ED3E SWAP1 PUSH1 0x44 ADD PUSH1 0x20 PUSH1 0x40 MLOAD DUP1 DUP4 SUB DUP2 DUP7 GAS STATICCALL ISZERO DUP1 ISZERO PUSH2 0x3F1F JUMPI RETURNDATASIZE PUSH1 0x0 DUP1 RETURNDATACOPY RETURNDATASIZE PUSH1 0x0 REVERT JUMPDEST POP POP POP POP PUSH1 0x40 MLOAD RETURNDATASIZE PUSH1 0x1F NOT PUSH1 0x1F DUP3 ADD AND DUP3 ADD DUP1 PUSH1 0x40 MSTORE POP DUP2 ADD SWAP1 PUSH2 0x3F43 SWAP2 SWAP1 PUSH2 0x430A JUMP JUMPDEST PUSH2 0x3F4D SWAP2 SWAP1 PUSH2 0x4323 JUMP JUMPDEST PUSH1 0x40 MLOAD PUSH1 0x1 PUSH1 0x1 PUSH1 0xA0 SHL SUB DUP6 AND PUSH1 0x24 DUP3 ADD MSTORE PUSH1 0x44 DUP2 ADD DUP3 SWAP1 MSTORE SWAP1 SWAP2 POP PUSH2 0x2F59 SWAP1 DUP6 SWAP1 PUSH4 0x95EA7B3 PUSH1 0xE0 SHL SWAP1 PUSH1 0x64 ADD PUSH2 0x2F22 JUMP JUMPDEST PUSH1 0x60 DUP4 ISZERO PUSH2 0x3F8F JUMPI POP DUP2 PUSH2 0x161E JUMP JUMPDEST DUP3 MLOAD ISZERO PUSH2 0x3F9F JUMPI DUP3 MLOAD DUP1 DUP5 PUSH1 0x20 ADD REVERT JUMPDEST DUP2 PUSH1 0x40 MLOAD PUSH3 0x461BCD PUSH1 0xE5 SHL DUP2 MSTORE PUSH1 0x4 ADD PUSH2 0x8AC SWAP2 SWAP1 PUSH2 0x4022 JUMP JUMPDEST PUSH1 0x1 PUSH1 0x1 PUSH1 0xA0 SHL SUB DUP2 AND DUP2 EQ PUSH2 0x2EEB JUMPI PUSH1 0x0 DUP1 REVERT JUMPDEST PUSH1 0x0 DUP1 PUSH1 0x40 DUP4 DUP6 SUB SLT ISZERO PUSH2 0x3FE1 JUMPI PUSH1 0x0 DUP1 REVERT JUMPDEST DUP3 CALLDATALOAD SWAP2 POP PUSH1 0x20 DUP4 ADD CALLDATALOAD PUSH2 0x3FF3 DUP2 PUSH2 0x3FB9 JUMP JUMPDEST DUP1 SWAP2 POP POP SWAP3 POP SWAP3 SWAP1 POP JUMP JUMPDEST PUSH1 0x0 JUMPDEST DUP4 DUP2 LT ISZERO PUSH2 0x4019 JUMPI DUP2 DUP2 ADD MLOAD DUP4 DUP3 ADD MSTORE PUSH1 0x20 ADD PUSH2 0x4001 JUMP JUMPDEST POP POP PUSH1 0x0 SWAP2 ADD MSTORE JUMP JUMPDEST PUSH1 0x20 DUP2 MSTORE PUSH1 0x0 DUP3 MLOAD DUP1 PUSH1 0x20 DUP5 ADD MSTORE PUSH2 0x4041 DUP2 PUSH1 0x40 DUP6 ADD PUSH1 0x20 DUP8 ADD PUSH2 0x3FFE JUMP JUMPDEST PUSH1 0x1F ADD PUSH1 0x1F NOT AND SWAP2 SWAP1 SWAP2 ADD PUSH1 0x40 ADD SWAP3 SWAP2 POP POP JUMP JUMPDEST PUSH1 0x0 DUP1 PUSH1 0x40 DUP4 DUP6 SUB SLT ISZERO PUSH2 0x4068 JUMPI PUSH1 0x0 DUP1 REVERT JUMPDEST DUP3 CALLDATALOAD PUSH2 0x4073 DUP2 PUSH2 0x3FB9 JUMP JUMPDEST SWAP5 PUSH1 0x20 SWAP4 SWAP1 SWAP4 ADD CALLDATALOAD SWAP4 POP POP POP JUMP JUMPDEST PUSH1 0x0 DUP1 PUSH1 0x0 PUSH1 0x60 DUP5 DUP7 SUB SLT ISZERO PUSH2 0x4096 JUMPI PUSH1 0x0 DUP1 REVERT JUMPDEST DUP4 CALLDATALOAD PUSH2 0x40A1 DUP2 PUSH2 0x3FB9 JUMP JUMPDEST SWAP3 POP PUSH1 0x20 DUP5 ADD CALLDATALOAD PUSH2 0x40B1 DUP2 PUSH2 0x3FB9 JUMP JUMPDEST SWAP3 SWAP6 SWAP3 SWAP5 POP POP POP PUSH1 0x40 SWAP2 SWAP1 SWAP2 ADD CALLDATALOAD SWAP1 JUMP JUMPDEST DUP1 ISZERO ISZERO DUP2 EQ PUSH2 0x2EEB JUMPI PUSH1 0x0 DUP1 REVERT JUMPDEST PUSH1 0x0 PUSH1 0x20 DUP3 DUP5 SUB SLT ISZERO PUSH2 0x40E2 JUMPI PUSH1 0x0 DUP1 REVERT JUMPDEST DUP2 CALLDATALOAD PUSH2 0x161E DUP2 PUSH2 0x40C2 JUMP JUMPDEST PUSH1 0x0 PUSH1 0x20 DUP3 DUP5 SUB SLT ISZERO PUSH2 0x40FF JUMPI PUSH1 0x0 DUP1 REVERT JUMPDEST POP CALLDATALOAD SWAP2 SWAP1 POP JUMP JUMPDEST PUSH1 0x0 PUSH1 0x20 DUP3 DUP5 SUB SLT ISZERO PUSH2 0x4118 JUMPI PUSH1 0x0 DUP1 REVERT JUMPDEST DUP2 CALLDATALOAD PUSH2 0x161E DUP2 PUSH2 0x3FB9 JUMP JUMPDEST PUSH1 0x0 DUP1 PUSH1 0x40 DUP4 DUP6 SUB SLT ISZERO PUSH2 0x4136 JUMPI PUSH1 0x0 DUP1 REVERT JUMPDEST DUP3 CALLDATALOAD PUSH2 0x4141 DUP2 PUSH2 0x3FB9 JUMP JUMPDEST SWAP2 POP PUSH1 0x20 DUP4 ADD CALLDATALOAD PUSH2 0x3FF3 DUP2 PUSH2 0x3FB9 JUMP JUMPDEST PUSH1 0x20 DUP1 DUP3 MSTORE PUSH1 0x11 SWAP1 DUP3 ADD MSTORE PUSH17 0x23A2AB1D1027B930B1B6329022B93937B9 PUSH1 0x79 SHL PUSH1 0x40 DUP3 ADD MSTORE PUSH1 0x60 ADD SWAP1 JUMP JUMPDEST PUSH4 0x4E487B71 PUSH1 0xE0 SHL PUSH1 0x0 MSTORE PUSH1 0x11 PUSH1 0x4 MSTORE PUSH1 0x24 PUSH1 0x0 REVERT JUMPDEST DUP1 DUP3 MUL DUP2 ISZERO DUP3 DUP3 DIV DUP5 EQ OR PUSH2 0x13C3 JUMPI PUSH2 0x13C3 PUSH2 0x417C JUMP JUMPDEST PUSH4 0x4E487B71 PUSH1 0xE0 SHL PUSH1 0x0 MSTORE PUSH1 0x12 PUSH1 0x4 MSTORE PUSH1 0x24 PUSH1 0x0 REVERT JUMPDEST PUSH1 0x0 DUP3 PUSH2 0x41CE JUMPI PUSH2 0x41CE PUSH2 0x41A9 JUMP JUMPDEST POP DIV SWAP1 JUMP JUMPDEST DUP1 MLOAD PUSH1 0xFF DUP2 AND DUP2 EQ PUSH2 0x41E4 JUMPI PUSH1 0x0 DUP1 REVERT JUMPDEST SWAP2 SWAP1 POP JUMP JUMPDEST PUSH1 0x0 PUSH1 0x20 DUP3 DUP5 SUB SLT ISZERO PUSH2 0x41FB JUMPI PUSH1 0x0 DUP1 REVERT JUMPDEST PUSH2 0x161E DUP3 PUSH2 0x41D3 JUMP JUMPDEST PUSH1 0x1 DUP2 DUP2 JUMPDEST DUP1 DUP6 GT ISZERO PUSH2 0x423F JUMPI DUP2 PUSH1 0x0 NOT DIV DUP3 GT ISZERO PUSH2 0x4225 JUMPI PUSH2 0x4225 PUSH2 0x417C JUMP JUMPDEST DUP1 DUP6 AND ISZERO PUSH2 0x4232 JUMPI SWAP2 DUP2 MUL SWAP2 JUMPDEST SWAP4 DUP5 SHR SWAP4 SWAP1 DUP1 MUL SWAP1 PUSH2 0x4209 JUMP JUMPDEST POP SWAP3 POP SWAP3 SWAP1 POP JUMP JUMPDEST PUSH1 0x0 DUP3 PUSH2 0x4256 JUMPI POP PUSH1 0x1 PUSH2 0x13C3 JUMP JUMPDEST DUP2 PUSH2 0x4263 JUMPI POP PUSH1 0x0 PUSH2 0x13C3 JUMP JUMPDEST DUP2 PUSH1 0x1 DUP2 EQ PUSH2 0x4279 JUMPI PUSH1 0x2 DUP2 EQ PUSH2 0x4283 JUMPI PUSH2 0x429F JUMP JUMPDEST PUSH1 0x1 SWAP2 POP POP PUSH2 0x13C3 JUMP JUMPDEST PUSH1 0xFF DUP5 GT ISZERO PUSH2 0x4294 JUMPI PUSH2 0x4294 PUSH2 0x417C JUMP JUMPDEST POP POP PUSH1 0x1 DUP3 SHL PUSH2 0x13C3 JUMP JUMPDEST POP PUSH1 0x20 DUP4 LT PUSH2 0x133 DUP4 LT AND PUSH1 0x4E DUP5 LT PUSH1 0xB DUP5 LT AND OR ISZERO PUSH2 0x42C2 JUMPI POP DUP2 DUP2 EXP PUSH2 0x13C3 JUMP JUMPDEST PUSH2 0x42CC DUP4 DUP4 PUSH2 0x4204 JUMP JUMPDEST DUP1 PUSH1 0x0 NOT DIV DUP3 GT ISZERO PUSH2 0x42E0 JUMPI PUSH2 0x42E0 PUSH2 0x417C JUMP JUMPDEST MUL SWAP4 SWAP3 POP POP POP JUMP JUMPDEST PUSH1 0x0 PUSH2 0x161E PUSH1 0xFF DUP5 AND DUP4 PUSH2 0x4247 JUMP JUMPDEST DUP2 DUP2 SUB DUP2 DUP2 GT ISZERO PUSH2 0x13C3 JUMPI PUSH2 0x13C3 PUSH2 0x417C JUMP JUMPDEST PUSH1 0x0 PUSH1 0x20 DUP3 DUP5 SUB SLT ISZERO PUSH2 0x431C JUMPI PUSH1 0x0 DUP1 REVERT JUMPDEST POP MLOAD SWAP2 SWAP1 POP JUMP JUMPDEST DUP1 DUP3 ADD DUP1 DUP3 GT ISZERO PUSH2 0x13C3 JUMPI PUSH2 0x13C3 PUSH2 0x417C JUMP JUMPDEST PUSH1 0x1 DUP2 DUP2 SHR SWAP1 DUP3 AND DUP1 PUSH2 0x434A JUMPI PUSH1 0x7F DUP3 AND SWAP2 POP JUMPDEST PUSH1 0x20 DUP3 LT DUP2 SUB PUSH2 0x436A JUMPI PUSH4 0x4E487B71 PUSH1 0xE0 SHL PUSH1 0x0 MSTORE PUSH1 0x22 PUSH1 0x4 MSTORE PUSH1 0x24 PUSH1 0x0 REVERT JUMPDEST POP SWAP2 SWAP1 POP JUMP JUMPDEST PUSH4 0x4E487B71 PUSH1 0xE0 SHL PUSH1 0x0 MSTORE PUSH1 0x32 PUSH1 0x4 MSTORE PUSH1 0x24 PUSH1 0x0 REVERT JUMPDEST PUSH1 0x40 MLOAD PUSH2 0x180 DUP2 ADD PUSH8 0xFFFFFFFFFFFFFFFF DUP2 GT DUP3 DUP3 LT OR ISZERO PUSH2 0x43B8 JUMPI PUSH4 0x4E487B71 PUSH1 0xE0 SHL PUSH1 0x0 MSTORE PUSH1 0x41 PUSH1 0x4 MSTORE PUSH1 0x24 PUSH1 0x0 REVERT JUMPDEST PUSH1 0x40 MSTORE SWAP1 JUMP JUMPDEST PUSH1 0x0 PUSH1 0x20 DUP3 DUP5 SUB SLT ISZERO PUSH2 0x43D0 JUMPI PUSH1 0x0 DUP1 REVERT JUMPDEST PUSH1 0x40 MLOAD PUSH1 0x20 DUP2 ADD DUP2 DUP2 LT PUSH8 0xFFFFFFFFFFFFFFFF DUP3 GT OR ISZERO PUSH2 0x4401 JUMPI PUSH4 0x4E487B71 PUSH1 0xE0 SHL PUSH1 0x0 MSTORE PUSH1 0x41 PUSH1 0x4 MSTORE PUSH1 0x24 PUSH1 0x0 REVERT JUMPDEST PUSH1 0x40 MSTORE SWAP2 MLOAD DUP3 MSTORE POP SWAP2 SWAP1 POP JUMP JUMPDEST DUP1 MLOAD PUSH16 0xFFFFFFFFFFFFFFFFFFFFFFFFFFFFFFFF DUP2 AND DUP2 EQ PUSH2 0x41E4 JUMPI PUSH1 0x0 DUP1 REVERT JUMPDEST DUP1 MLOAD PUSH5 0xFFFFFFFFFF DUP2 AND DUP2 EQ PUSH2 0x41E4 JUMPI PUSH1 0x0 DUP1 REVERT JUMPDEST DUP1 MLOAD PUSH2 0x41E4 DUP2 PUSH2 0x3FB9 JUMP JUMPDEST PUSH1 0x0 PUSH2 0x180 DUP3 DUP5 SUB SLT ISZERO PUSH2 0x4461 JUMPI PUSH1 0x0 DUP1 REVERT JUMPDEST PUSH2 0x4469 PUSH2 0x4386 JUMP JUMPDEST PUSH2 0x4473 DUP5 DUP5 PUSH2 0x43BE JUMP JUMPDEST DUP2 MSTORE PUSH2 0x4481 PUSH1 0x20 DUP5 ADD PUSH2 0x440E JUMP JUMPDEST PUSH1 0x20 DUP3 ADD MSTORE PUSH2 0x4492 PUSH1 0x40 DUP5 ADD PUSH2 0x440E JUMP JUMPDEST PUSH1 0x40 DUP3 ADD MSTORE PUSH2 0x44A3 PUSH1 0x60 DUP5 ADD PUSH2 0x440E JUMP JUMPDEST PUSH1 0x60 DUP3 ADD MSTORE PUSH2 0x44B4 PUSH1 0x80 DUP5 ADD PUSH2 0x440E JUMP JUMPDEST PUSH1 0x80 DUP3 ADD MSTORE PUSH2 0x44C5 PUSH1 0xA0 DUP5 ADD PUSH2 0x440E JUMP JUMPDEST PUSH1 0xA0 DUP3 ADD MSTORE PUSH2 0x44D6 PUSH1 0xC0 DUP5 ADD PUSH2 0x442E JUMP JUMPDEST PUSH1 0xC0 DUP3 ADD MSTORE PUSH2 0x44E7 PUSH1 0xE0 DUP5 ADD PUSH2 0x4443 JUMP JUMPDEST PUSH1 0xE0 DUP3 ADD MSTORE PUSH2 0x100 PUSH2 0x44FA DUP2 DUP6 ADD PUSH2 0x4443 JUMP JUMPDEST SWAP1 DUP3 ADD MSTORE PUSH2 0x120 PUSH2 0x450C DUP5 DUP3 ADD PUSH2 0x4443 JUMP JUMPDEST SWAP1 DUP3 ADD MSTORE PUSH2 0x140 PUSH2 0x451E DUP5 DUP3 ADD PUSH2 0x4443 JUMP JUMPDEST SWAP1 DUP3 ADD MSTORE PUSH2 0x160 PUSH2 0x4530 DUP5 DUP3 ADD PUSH2 0x41D3 JUMP JUMPDEST SWAP1 DUP3 ADD MSTORE SWAP4 SWAP3 POP POP POP JUMP JUMPDEST PUSH1 0x0 DUP1 PUSH1 0x40 DUP4 DUP6 SUB SLT ISZERO PUSH2 0x454E JUMPI PUSH1 0x0 DUP1 REVERT JUMPDEST POP POP DUP1 MLOAD PUSH1 0x20 SWAP1 SWAP2 ADD MLOAD SWAP1 SWAP3 SWAP1 SWAP2 POP JUMP JUMPDEST PUSH1 0x0 PUSH1 0x1 DUP3 ADD PUSH2 0x4571 JUMPI PUSH2 0x4571 PUSH2 0x417C JUMP JUMPDEST POP PUSH1 0x1 ADD SWAP1 JUMP JUMPDEST PUSH1 0x20 DUP1 DUP3 MSTORE DUP2 DUP2 ADD MSTORE PUSH32 0x4F776E61626C653A2063616C6C6572206973206E6F7420746865206F776E6572 PUSH1 0x40 DUP3 ADD MSTORE PUSH1 0x60 ADD SWAP1 JUMP JUMPDEST PUSH1 0x0 DUP1 PUSH1 0x40 DUP4 DUP6 SUB SLT ISZERO PUSH2 0x45C0 JUMPI PUSH1 0x0 DUP1 REVERT JUMPDEST DUP3 MLOAD PUSH2 0x45CB DUP2 PUSH2 0x3FB9 JUMP JUMPDEST SWAP2 POP PUSH2 0x45D9 PUSH1 0x20 DUP5 ADD PUSH2 0x41D3 JUMP JUMPDEST SWAP1 POP SWAP3 POP SWAP3 SWAP1 POP JUMP JUMPDEST PUSH1 0x20 DUP1 DUP3 MSTORE PUSH1 0xF SWAP1 DUP3 ADD MSTORE PUSH15 0x23A2AB1D1024B73B30B634B2102A29 PUSH1 0x89 SHL PUSH1 0x40 DUP3 ADD MSTORE PUSH1 0x60 ADD SWAP1 JUMP JUMPDEST DUP1 MLOAD PUSH1 0x2 DUP2 SWAP1 SIGNEXTEND DUP2 EQ PUSH2 0x41E4 JUMPI PUSH1 0x0 DUP1 REVERT JUMPDEST PUSH1 0x0 PUSH1 0x20 DUP3 DUP5 SUB SLT ISZERO PUSH2 0x462F JUMPI PUSH1 0x0 DUP1 REVERT JUMPDEST PUSH2 0x161E DUP3 PUSH2 0x460B JUMP JUMPDEST DUP1 MLOAD PUSH2 0xFFFF DUP2 AND DUP2 EQ PUSH2 0x41E4 JUMPI PUSH1 0x0 DUP1 REVERT JUMPDEST PUSH1 0x0 DUP1 PUSH1 0x0 DUP1 PUSH1 0x0 DUP1 PUSH1 0x0 PUSH1 0xE0 DUP9 DUP11 SUB SLT ISZERO PUSH2 0x4665 JUMPI PUSH1 0x0 DUP1 REVERT JUMPDEST DUP8 MLOAD PUSH2 0x4670 DUP2 PUSH2 0x3FB9 JUMP JUMPDEST SWAP7 POP PUSH2 0x467E PUSH1 0x20 DUP10 ADD PUSH2 0x460B JUMP JUMPDEST SWAP6 POP PUSH2 0x468C PUSH1 0x40 DUP10 ADD PUSH2 0x4638 JUMP JUMPDEST SWAP5 POP PUSH2 0x469A PUSH1 0x60 DUP10 ADD PUSH2 0x4638 JUMP JUMPDEST SWAP4 POP PUSH2 0x46A8 PUSH1 0x80 DUP10 ADD PUSH2 0x4638 JUMP JUMPDEST SWAP3 POP PUSH2 0x46B6 PUSH1 0xA0 DUP10 ADD PUSH2 0x41D3 JUMP JUMPDEST SWAP2 POP PUSH1 0xC0 DUP9 ADD MLOAD PUSH2 0x46C6 DUP2 PUSH2 0x40C2 JUMP JUMPDEST DUP1 SWAP2 POP POP SWAP3 SWAP6 SWAP9 SWAP2 SWAP5 SWAP8 POP SWAP3 SWAP6 POP JUMP JUMPDEST PUSH1 0x0 PUSH2 0x161E DUP4 DUP4 PUSH2 0x4247 JUMP JUMPDEST PUSH1 0x0 PUSH1 0x1 PUSH1 0x1 PUSH1 0xA0 SHL SUB DUP4 DUP2 AND DUP1 PUSH2 0x46FC JUMPI PUSH2 0x46FC PUSH2 0x41A9 JUMP JUMPDEST SWAP3 AND SWAP2 SWAP1 SWAP2 DIV SWAP3 SWAP2 POP POP JUMP JUMPDEST PUSH1 0x0 PUSH1 0x20 DUP3 DUP5 SUB SLT ISZERO PUSH2 0x471A JUMPI PUSH1 0x0 DUP1 REVERT JUMPDEST DUP2 MLOAD PUSH2 0x161E DUP2 PUSH2 0x40C2 JUMP JUMPDEST PUSH1 0x0 DUP3 MLOAD PUSH2 0x4737 DUP2 DUP5 PUSH1 0x20 DUP8 ADD PUSH2 0x3FFE JUMP JUMPDEST SWAP2 SWAP1 SWAP2 ADD SWAP3 SWAP2 POP POP JUMP INVALID LOG2 PUSH5 0x6970667358 0x22 SLT KECCAK256 SDIV PUSH24 0x710005D36E082FB4019C694B9B92100A993C03FBCB81DCD8 0xC2 SWAP12 0xBC 0x4D PUSH12 0x6364736F6C63430008130033 ",
  "sha1": "36c9c4e33c7a87a0efc56379de808051bf193107",
  "source": "// SPDX-License-Identifier: UNLICENSED\npragma solidity 0.8.19;\n\nimport \"./openzeppelin-solidity/contracts/access/Ownable.sol\";\nimport \"./openzeppelin-solidity/contracts/token/ERC20/ERC20.sol\";\nimport \"./openzeppelin-solidity/contracts/token/ERC20/utils/SafeERC20.sol\";\nimport \"./openzeppelin-solidity/contracts/security/ReentrancyGuard.sol\";\nimport \"../interfaces/IAaveLendingPoolV2.sol\";\nimport \"../interfaces/IUniswapV3Pool.sol\";\nimport \"../interfaces/IWETH.sol\";\nimport \"./RangeManager.sol\";\nimport \"./RoeRouter.sol\";\n\n\n/**\nGeVault is a reblancing vault that holds TokenisableRanges tickers\nFunctionalities:\n- Hold a list of tickers for a single pair, evenly spaced\n- Hold balances of those tickers, deposited in the ROE LP\n- Deposit one underlying asset split evenly into 2 or more consecutive ticks above/below the current price\n- Withdraw one underlying asset, taken out evenly from 2 or more consecutive ticks\n- Calculate the current balance of assets\n\nDesign:\n \n */\ncontract GeVault is ERC20, Ownable, ReentrancyGuard {\n  using SafeERC20 for ERC20;\n  \n  event Deposit(address indexed sender, address indexed token, uint amount, uint liquidity);\n  event Withdraw(address indexed sender, address indexed token, uint amount, uint liquidity);\n  event PushTick(address indexed ticker);\n  event ShiftTick(address indexed ticker);\n  event ModifyTick(address indexed ticker, uint index);\n  event Rebalance(uint tickIndex);\n  event SetEnabled(bool isEnabled);\n  event SetTreasury(address treasury);\n  event SetFee(uint baseFeeX4);\n  event SetTvlCap(uint tvlCap);\n\n  RangeManager rangeManager; \n  /// @notice Ticks properly ordered in ascending price order\n  TokenisableRange[] public ticks;\n  \n  /// @notice Tracks the beginning of active ticks: the next 4 ticks are the active\n  uint public tickIndex; \n  /// @notice Pair tokens\n  ERC20 public token0;\n  ERC20 public token1;\n  bool public isEnabled = true;\n  /// @notice Pool base fee \n  uint public baseFeeX4 = 20;\n  /// @notice Max vault TVL with 8 decimals\n  uint public tvlCap = 1e12;\n  \n  /// CONSTANTS \n  /// immutable keyword removed for coverage testing bug in brownie\n  address public treasury;\n  IUniswapV3Pool public uniswapPool;\n  ILendingPool public lendingPool;\n  IPriceOracle public oracle;\n  uint public constant nearbyRanges = 2;\n  IWETH public WETH;\n  bool public baseTokenIsToken0;\n  \n\n  constructor(\n    address _treasury, \n    address roeRouter, \n    address _uniswapPool, \n    uint poolId, \n    string memory name, \n    string memory symbol,\n    address weth,\n    bool _baseTokenIsToken0\n  ) \n    ERC20(name, symbol)\n  {\n    require(_treasury != address(0x0), \"GEV: Invalid Treasury\");\n    require(_uniswapPool != address(0x0), \"GEV: Invalid Pool\");\n    require(weth != address(0x0), \"GEV: Invalid WETH\");\n\n    (address lpap, address _token0, address _token1,, ) = RoeRouter(roeRouter).pools(poolId);\n    token0 = ERC20(_token0);\n    token1 = ERC20(_token1);\n    \n    lendingPool = ILendingPool(ILendingPoolAddressesProvider(lpap).getLendingPool());\n    oracle = IPriceOracle(ILendingPoolAddressesProvider(lpap).getPriceOracle());\n    treasury = _treasury;\n    uniswapPool = IUniswapV3Pool(_uniswapPool);\n    WETH = IWETH(weth);\n    baseTokenIsToken0 = _baseTokenIsToken0;\n  }\n  \n  \n  //////// ADMIN\n  \n  \n  /// @notice Set pool status\n  /// @param _isEnabled Pool status\n  function setEnabled(bool _isEnabled) public onlyOwner { \n    isEnabled = _isEnabled; \n    emit SetEnabled(_isEnabled);\n  }\n  \n  /// @notice Set treasury address\n  /// @param newTreasury New address\n  function setTreasury(address newTreasury) public onlyOwner { \n    treasury = newTreasury; \n    emit SetTreasury(newTreasury);\n  }\n\n\n  /// @notice Add a new ticker to the list\n  /// @param tr Tick address\n  function pushTick(address tr) public onlyOwner {\n    TokenisableRange t = TokenisableRange(tr);\n    (ERC20 t0,) = t.TOKEN0();\n    (ERC20 t1,) = t.TOKEN1();\n    require(t0 == token0 && t1 == token1, \"GEV: Invalid TR\");\n    if (ticks.length == 0) ticks.push(t);\n    else {\n      // Check that tick is properly ordered\n      if (baseTokenIsToken0) \n        require( t.lowerTick() > ticks[ticks.length-1].upperTick(), \"GEV: Push Tick Overlap\");\n      else \n        require( t.upperTick() < ticks[ticks.length-1].lowerTick(), \"GEV: Push Tick Overlap\");\n      \n      ticks.push(TokenisableRange(tr));\n    }\n    emit PushTick(tr);\n  }  \n\n\n  /// @notice Add a new ticker to the list\n  /// @param tr Tick address\n  function shiftTick(address tr) public onlyOwner {\n    TokenisableRange t = TokenisableRange(tr);\n    (ERC20 t0,) = t.TOKEN0();\n    (ERC20 t1,) = t.TOKEN1();\n    require(t0 == token0 && t1 == token1, \"GEV: Invalid TR\");\n    if (ticks.length == 0) ticks.push(t);\n    else {\n      // Check that tick is properly ordered\n      if (!baseTokenIsToken0) \n        require( t.lowerTick() > ticks[0].upperTick(), \"GEV: Shift Tick Overlap\");\n      else \n        require( t.upperTick() < ticks[0].lowerTick(), \"GEV: Shift Tick Overlap\");\n      \n      // extend array by pushing last elt\n      ticks.push(ticks[ticks.length-1]);\n      // shift each element\n      if (ticks.length > 2){\n        for (uint k = 0; k < ticks.length - 2; k++) \n          ticks[ticks.length - 2 - k] = ticks[ticks.length - 3 - k];\n        }\n      // add new tick in first place\n      ticks[0] = t;\n    }\n    emit ShiftTick(tr);\n  }\n\n\n  /// @notice Modify ticker\n  /// @param tr New tick address\n  /// @param index Tick to modify\n  function modifyTick(address tr, uint index) public onlyOwner {\n    (ERC20 t0,) = TokenisableRange(tr).TOKEN0();\n    (ERC20 t1,) = TokenisableRange(tr).TOKEN1();\n    require(t0 == token0 && t1 == token1, \"GEV: Invalid TR\");\n    ticks[index] = TokenisableRange(tr);\n    emit ModifyTick(tr, index);\n  }\n  \n  /// @notice Ticks length getter\n  /// @return len Ticks length\n  function getTickLength() public view returns(uint len){\n    len = ticks.length;\n  }\n  \n  /// @notice Set the base fee\n  /// @param newBaseFeeX4 New base fee in E4\n  function setBaseFee(uint newBaseFeeX4) public onlyOwner {\n  require(newBaseFeeX4 < 1e4, \"GEV: Invalid Base Fee\");\n    baseFeeX4 = newBaseFeeX4;\n    emit SetFee(newBaseFeeX4);\n  }\n  \n  /// @notice Set the TVL cap\n  /// @param newTvlCap New TVL cap\n  function setTvlCap(uint newTvlCap) public onlyOwner {\n    tvlCap = newTvlCap;\n    emit SetTvlCap(newTvlCap);\n  }\n  \n  \n  //////// PUBLIC FUNCTIONS\n  \n    \n  /// @notice Rebalance tickers\n  /// @dev Provide the list of tickers from \n  function rebalance() public {\n    require(poolMatchesOracle(), \"GEV: Oracle Error\");\n    removeFromAllTicks();\n    if (isEnabled) deployAssets();\n  }\n  \n\n  /// @notice Withdraw assets from the ticker\n  /// @param liquidity Amount of GEV tokens to redeem; if 0, redeem all\n  /// @param token Address of the token redeemed for\n  /// @return amount Total token returned\n  /// @dev For simplicity+efficieny, withdrawal is like a rebalancing, but a subset of the tokens are sent back to the user before redeploying\n  function withdraw(uint liquidity, address token) public nonReentrant returns (uint amount) {\n    require(poolMatchesOracle(), \"GEV: Oracle Error\");\n    if (liquidity == 0) liquidity = balanceOf(msg.sender);\n    require(liquidity <= balanceOf(msg.sender), \"GEV: Insufficient Balance\");\n    require(liquidity > 0, \"GEV: Withdraw Zero\");\n    \n    uint vaultValueX8 = getTVL();\n    uint valueX8 = vaultValueX8 * liquidity / totalSupply();\n    amount = valueX8 * 10**ERC20(token).decimals() / oracle.getAssetPrice(token);\n    uint fee = amount * getAdjustedBaseFee(token == address(token1)) / 1e4;\n    \n    _burn(msg.sender, liquidity);\n    removeFromAllTicks();\n    ERC20(token).safeTransfer(treasury, fee);\n    uint bal = amount - fee;\n\n    if (token == address(WETH)){\n      WETH.withdraw(bal);\n      payable(msg.sender).transfer(bal);\n    }\n    else {\n      ERC20(token).safeTransfer(msg.sender, bal);\n    }\n    \n    // if pool enabled, deploy assets in ticks, otherwise just let assets sit here until totally withdrawn\n    if (isEnabled) deployAssets();\n    emit Withdraw(msg.sender, token, amount, liquidity);\n  }\n\n\n  /// @notice deposit tokens in the pool, convert to WETH if necessary\n  /// @param token Token address\n  /// @param amount Amount of token deposited\n  function deposit(address token, uint amount) public payable nonReentrant returns (uint liquidity) \n  {\n    require(isEnabled, \"GEV: Pool Disabled\");\n    require(poolMatchesOracle(), \"GEV: Oracle Error\");\n    require(token == address(token0) || token == address(token1), \"GEV: Invalid Token\");\n    require(amount > 0 || msg.value > 0, \"GEV: Deposit Zero\");\n    \n    // Wrap if necessary and deposit here\n    if (msg.value > 0){\n      require(token == address(WETH), \"GEV: Invalid Weth\");\n      // wraps ETH by sending to the wrapper that sends back WETH\n      WETH.deposit{value: msg.value}();\n      amount = msg.value;\n    }\n    else { \n      ERC20(token).safeTransferFrom(msg.sender, address(this), amount);\n    }\n    \n    // Send deposit fee to treasury\n    uint fee = amount * getAdjustedBaseFee(token == address(token0)) / 1e4;\n    ERC20(token).safeTransfer(treasury, fee);\n    uint valueX8 = oracle.getAssetPrice(token) * (amount - fee) / 10**ERC20(token).decimals();\n    require(tvlCap > valueX8 + getTVL(), \"GEV: Max Cap Reached\");\n\n    uint vaultValueX8 = getTVL();\n    uint tSupply = totalSupply();\n    // initial liquidity at 1e18 token ~ $1\n    if (tSupply == 0 || vaultValueX8 == 0)\n      liquidity = valueX8 * 1e10;\n    else {\n      liquidity = tSupply * valueX8 / vaultValueX8;\n    }\n    \n    rebalance();\n    require(liquidity > 0, \"GEV: No Liquidity Added\");\n    _mint(msg.sender, liquidity);    \n    emit Deposit(msg.sender, token, amount, liquidity);\n  }\n  \n  \n  /// @notice Get value of 1e18 GEV tokens\n  /// @return priceX8 price of 1e18 tokens with 8 decimals\n  function latestAnswer() external view returns (uint256 priceX8) {\n    uint supply = totalSupply();\n    if (supply == 0) return 0;\n    uint vaultValue = getTVL();\n    priceX8 = vaultValue * 1e18 / supply;\n  }\n  \n  \n  /// @notice Get vault underlying assets\n  function getReserves() public view returns (uint amount0, uint amount1){\n    for (uint k = 0; k < ticks.length; k++){\n      TokenisableRange t = ticks[k];\n      address aTick = lendingPool.getReserveData(address(t)).aTokenAddress;\n      uint bal = ERC20(aTick).balanceOf(address(this));\n      (uint amt0, uint amt1) = t.getTokenAmounts(bal);\n      amount0 += amt0;\n      amount1 += amt1;\n    }\n  }\n\n\n  //////// INTERNAL FUNCTIONS\n  \n  /// @notice Remove assets from all the underlying ticks\n  function removeFromAllTicks() internal {\n    for (uint k = 0; k < ticks.length; k++){\n      removeFromTick(k);\n    }    \n  }\n  \n  \n  /// @notice Remove from tick\n  function removeFromTick(uint index) internal {\n    TokenisableRange tr = ticks[index];\n    address aTokenAddress = lendingPool.getReserveData(address(tr)).aTokenAddress;\n    uint aBal = ERC20(aTokenAddress).balanceOf(address(this));\n    uint sBal = tr.balanceOf(aTokenAddress);\n\n    // if there are less tokens available than the balance (because of outstanding debt), withdraw what's available\n    if (aBal > sBal) aBal = sBal;\n    if (aBal > 0){\n      lendingPool.withdraw(address(tr), aBal, address(this));\n      tr.withdraw(aBal, 0, 0);\n    }\n  }\n  \n  \n  /// @notice \n  function deployAssets() internal { \n    uint newTickIndex = getActiveTickIndex();\n    uint availToken0 = token0.balanceOf(address(this));\n    uint availToken1 = token1.balanceOf(address(this));\n    \n    // Check which is the main token\n    (uint amount0ft, uint amount1ft) = ticks[newTickIndex].getTokenAmountsExcludingFees(1e18);\n    uint tick0Index = newTickIndex;\n    uint tick1Index = newTickIndex + 2;\n    if (amount1ft > 0){\n      tick0Index = newTickIndex + 2;\n      tick1Index = newTickIndex;\n    }\n    \n    // Deposit into the ticks + into the LP\n    if (availToken0 > 0){\n      depositAndStash(ticks[tick0Index], availToken0 / 2, 0);\n      depositAndStash(ticks[tick0Index+1], availToken0 / 2, 0);\n    }\n    if (availToken1 > 0){\n      depositAndStash(ticks[tick1Index], 0, availToken1 / 2);\n      depositAndStash(ticks[tick1Index+1], 0, availToken1 / 2);\n    }\n    \n    if (newTickIndex != tickIndex) tickIndex = newTickIndex;\n    emit Rebalance(tickIndex);\n  }\n  \n  \n  /// @notice Checks that the pool price isn't manipulated\n  function poolMatchesOracle() public view returns (bool matches){\n    (uint160 sqrtPriceX96,,,,,,) = uniswapPool.slot0();\n    \n    uint decimals0 = token0.decimals();\n    uint decimals1 = token1.decimals();\n    uint priceX8 = 10**decimals0;\n    // Overflow if dont scale down the sqrtPrice before div 2*192\n    priceX8 = priceX8 * uint(sqrtPriceX96 / 2 ** 12) ** 2 * 1e8 / 2**168;\n    priceX8 = priceX8 / 10**decimals1;\n    uint oraclePrice = 1e8 * oracle.getAssetPrice(address(token0)) / oracle.getAssetPrice(address(token1));\n    if (oraclePrice < priceX8 * 101 / 100 && oraclePrice > priceX8 * 99 / 100) matches = true;\n  }\n\n\n  /// @notice Helper that checks current allowance and approves if necessary\n  /// @param token Target token\n  /// @param spender Spender\n  /// @param amount Amount below which we need to approve the token spending\n  function checkSetApprove(address token, address spender, uint amount) private {\n    if ( ERC20(token).allowance(address(this), spender) < amount ) ERC20(token).safeIncreaseAllowance(spender, type(uint256).max);\n  }\n  \n  \n  /// @notice Calculate the vault total ticks value\n  /// @return valueX8 Total value of the vault with 8 decimals\n  function getTVL() public view returns (uint valueX8){\n    for(uint k=0; k<ticks.length; k++){\n      TokenisableRange t = ticks[k];\n      uint bal = getTickBalance(k);\n      valueX8 += bal * t.latestAnswer() / 1e18;\n    }\n  }\n  \n  \n  /// @notice Deposit assets in a ticker, and the ticker in lending pool\n  /// @param t Tik address\n  /// @return liquidity The amount of ticker liquidity added\n  function depositAndStash(TokenisableRange t, uint amount0, uint amount1) internal returns (uint liquidity){\n    checkSetApprove(address(token0), address(t), amount0);\n    checkSetApprove(address(token1), address(t), amount1);\n    liquidity = t.deposit(amount0, amount1);\n    \n    uint bal = t.balanceOf(address(this));\n    if (bal > 0){\n      checkSetApprove(address(t), address(lendingPool), bal);\n      lendingPool.deposit(address(t), bal, address(this), 0);\n    }\n  }\n  \n  \n  /// @notice Get balance of tick deposited in GE\n  /// @param index Tick index\n  /// @return liquidity Amount of Ticker\n  function getTickBalance(uint index) public view returns (uint liquidity) {\n    TokenisableRange t = ticks[index];\n    address aTokenAddress = lendingPool.getReserveData(address(t)).aTokenAddress;\n    liquidity = ERC20(aTokenAddress).balanceOf(address(this));\n  }\n  \n  \n  /// @notice Return first valid tick\n  function getActiveTickIndex() public view returns (uint activeTickIndex) {\n    if (ticks.length >= 5){\n      // looking for index at which the underlying asset differs from the next tick\n      for (activeTickIndex = 0; activeTickIndex < ticks.length - 3; activeTickIndex++){\n        (uint amt0, uint amt1) = ticks[activeTickIndex+1].getTokenAmountsExcludingFees(1e18);\n        (uint amt0n, uint amt1n) = ticks[activeTickIndex+2].getTokenAmountsExcludingFees(1e18);\n        if ( (amt0 == 0 && amt0n > 0) || (amt1 == 0 && amt1n > 0) )\n          break;\n      }\n    }\n  }\n\n\n  /// @notice Get deposit fee\n  /// @param increaseToken0 Whether (token0 added || token1 removed) or not\n  /// @dev Simple linear model: from baseFeeX4 / 2 to baseFeeX4 * 2\n  /// @dev Call before withdrawing from ticks or reserves will both be 0\n  function getAdjustedBaseFee(bool increaseToken0) public view returns (uint adjustedBaseFeeX4) {\n    (uint res0, uint res1) = getReserves();\n    uint value0 = res0 * oracle.getAssetPrice(address(token0)) / 10**token0.decimals();\n    uint value1 = res1 * oracle.getAssetPrice(address(token1)) / 10**token1.decimals();\n\n    if (increaseToken0)\n      adjustedBaseFeeX4 = baseFeeX4 * value0 / (value1 + 1);\n    else\n      adjustedBaseFeeX4 = baseFeeX4 * value1 / (value0 + 1);\n\n    // Adjust from -50% to +50%\n    if (adjustedBaseFeeX4 < baseFeeX4 / 2) adjustedBaseFeeX4 = baseFeeX4 / 2;\n    if (adjustedBaseFeeX4 > baseFeeX4 * 3 / 2) adjustedBaseFeeX4 = baseFeeX4 * 3 / 2;\n  }\n\n\n  /// @notice fallback: deposit unless it's WETH being unwrapped\n  receive() external payable {\n    if(msg.sender != address(WETH)) deposit(address(WETH), msg.value);\n  }\n  \n}  ",
  "sourcePath": "contracts/GeVault.sol",
  "type": "contract"
}