{
  "abi": [
    {
      "inputs": [
        {
          "internalType": "string",
          "name": "name_",
          "type": "string"
        },
        {
          "internalType": "contract IVotes",
          "name": "token_",
          "type": "address"
        }
      ],
      "stateMutability": "nonpayable",
      "type": "constructor"
    },
    {
      "anonymous": false,
      "inputs": [
        {
          "indexed": false,
          "internalType": "uint256",
          "name": "proposalId",
          "type": "uint256"
        }
      ],
      "name": "ProposalCanceled",
      "type": "event"
    },
    {
      "anonymous": false,
      "inputs": [
        {
          "indexed": false,
          "internalType": "uint256",
          "name": "proposalId",
          "type": "uint256"
        },
        {
          "indexed": false,
          "internalType": "address",
          "name": "proposer",
          "type": "address"
        },
        {
          "indexed": false,
          "internalType": "address[]",
          "name": "targets",
          "type": "address[]"
        },
        {
          "indexed": false,
          "internalType": "uint256[]",
          "name": "values",
          "type": "uint256[]"
        },
        {
          "indexed": false,
          "internalType": "string[]",
          "name": "signatures",
          "type": "string[]"
        },
        {
          "indexed": false,
          "internalType": "bytes[]",
          "name": "calldatas",
          "type": "bytes[]"
        },
        {
          "indexed": false,
          "internalType": "uint256",
          "name": "startBlock",
          "type": "uint256"
        },
        {
          "indexed": false,
          "internalType": "uint256",
          "name": "endBlock",
          "type": "uint256"
        },
        {
          "indexed": false,
          "internalType": "string",
          "name": "description",
          "type": "string"
        }
      ],
      "name": "ProposalCreated",
      "type": "event"
    },
    {
      "anonymous": false,
      "inputs": [
        {
          "indexed": false,
          "internalType": "uint256",
          "name": "proposalId",
          "type": "uint256"
        }
      ],
      "name": "ProposalExecuted",
      "type": "event"
    },
    {
      "anonymous": false,
      "inputs": [
        {
          "indexed": true,
          "internalType": "address",
          "name": "voter",
          "type": "address"
        },
        {
          "indexed": false,
          "internalType": "uint256",
          "name": "proposalId",
          "type": "uint256"
        },
        {
          "indexed": false,
          "internalType": "uint8",
          "name": "support",
          "type": "uint8"
        },
        {
          "indexed": false,
          "internalType": "uint256",
          "name": "weight",
          "type": "uint256"
        },
        {
          "indexed": false,
          "internalType": "string",
          "name": "reason",
          "type": "string"
        }
      ],
      "name": "VoteCast",
      "type": "event"
    },
    {
      "inputs": [],
      "name": "BALLOT_TYPEHASH",
      "outputs": [
        {
          "internalType": "bytes32",
          "name": "",
          "type": "bytes32"
        }
      ],
      "stateMutability": "view",
      "type": "function"
    },
    {
      "inputs": [],
      "name": "COUNTING_MODE",
      "outputs": [
        {
          "internalType": "string",
          "name": "",
          "type": "string"
        }
      ],
      "stateMutability": "pure",
      "type": "function"
    },
    {
      "inputs": [
        {
          "internalType": "address[]",
          "name": "targets",
          "type": "address[]"
        },
        {
          "internalType": "uint256[]",
          "name": "values",
          "type": "uint256[]"
        },
        {
          "internalType": "bytes[]",
          "name": "calldatas",
          "type": "bytes[]"
        },
        {
          "internalType": "bytes32",
          "name": "salt",
          "type": "bytes32"
        }
      ],
      "name": "cancel",
      "outputs": [
        {
          "internalType": "uint256",
          "name": "proposalId",
          "type": "uint256"
        }
      ],
      "stateMutability": "nonpayable",
      "type": "function"
    },
    {
      "inputs": [
        {
          "internalType": "uint256",
          "name": "proposalId",
          "type": "uint256"
        },
        {
          "internalType": "uint8",
          "name": "support",
          "type": "uint8"
        }
      ],
      "name": "castVote",
      "outputs": [
        {
          "internalType": "uint256",
          "name": "",
          "type": "uint256"
        }
      ],
      "stateMutability": "nonpayable",
      "type": "function"
    },
    {
      "inputs": [
        {
          "internalType": "uint256",
          "name": "proposalId",
          "type": "uint256"
        },
        {
          "internalType": "uint8",
          "name": "support",
          "type": "uint8"
        },
        {
          "internalType": "uint8",
          "name": "v",
          "type": "uint8"
        },
        {
          "internalType": "bytes32",
          "name": "r",
          "type": "bytes32"
        },
        {
          "internalType": "bytes32",
          "name": "s",
          "type": "bytes32"
        }
      ],
      "name": "castVoteBySig",
      "outputs": [
        {
          "internalType": "uint256",
          "name": "",
          "type": "uint256"
        }
      ],
      "stateMutability": "nonpayable",
      "type": "function"
    },
    {
      "inputs": [
        {
          "internalType": "uint256",
          "name": "proposalId",
          "type": "uint256"
        },
        {
          "internalType": "uint8",
          "name": "support",
          "type": "uint8"
        },
        {
          "internalType": "string",
          "name": "reason",
          "type": "string"
        }
      ],
      "name": "castVoteWithReason",
      "outputs": [
        {
          "internalType": "uint256",
          "name": "",
          "type": "uint256"
        }
      ],
      "stateMutability": "nonpayable",
      "type": "function"
    },
    {
      "inputs": [
        {
          "internalType": "address[]",
          "name": "targets",
          "type": "address[]"
        },
        {
          "internalType": "uint256[]",
          "name": "values",
          "type": "uint256[]"
        },
        {
          "internalType": "bytes[]",
          "name": "calldatas",
          "type": "bytes[]"
        },
        {
          "internalType": "bytes32",
          "name": "descriptionHash",
          "type": "bytes32"
        }
      ],
      "name": "execute",
      "outputs": [
        {
          "internalType": "uint256",
          "name": "",
          "type": "uint256"
        }
      ],
      "stateMutability": "payable",
      "type": "function"
    },
    {
      "inputs": [
        {
          "internalType": "address",
          "name": "account",
          "type": "address"
        },
        {
          "internalType": "uint256",
          "name": "blockNumber",
          "type": "uint256"
        }
      ],
      "name": "getVotes",
      "outputs": [
        {
          "internalType": "uint256",
          "name": "",
          "type": "uint256"
        }
      ],
      "stateMutability": "view",
      "type": "function"
    },
    {
      "inputs": [
        {
          "internalType": "uint256",
          "name": "proposalId",
          "type": "uint256"
        },
        {
          "internalType": "address",
          "name": "account",
          "type": "address"
        }
      ],
      "name": "hasVoted",
      "outputs": [
        {
          "internalType": "bool",
          "name": "",
          "type": "bool"
        }
      ],
      "stateMutability": "view",
      "type": "function"
    },
    {
      "inputs": [
        {
          "internalType": "address[]",
          "name": "targets",
          "type": "address[]"
        },
        {
          "internalType": "uint256[]",
          "name": "values",
          "type": "uint256[]"
        },
        {
          "internalType": "bytes[]",
          "name": "calldatas",
          "type": "bytes[]"
        },
        {
          "internalType": "bytes32",
          "name": "descriptionHash",
          "type": "bytes32"
        }
      ],
      "name": "hashProposal",
      "outputs": [
        {
          "internalType": "uint256",
          "name": "",
          "type": "uint256"
        }
      ],
      "stateMutability": "pure",
      "type": "function"
    },
    {
      "inputs": [],
      "name": "name",
      "outputs": [
        {
          "internalType": "string",
          "name": "",
          "type": "string"
        }
      ],
      "stateMutability": "view",
      "type": "function"
    },
    {
      "inputs": [
        {
          "internalType": "uint256",
          "name": "proposalId",
          "type": "uint256"
        }
      ],
      "name": "proposalDeadline",
      "outputs": [
        {
          "internalType": "uint256",
          "name": "",
          "type": "uint256"
        }
      ],
      "stateMutability": "view",
      "type": "function"
    },
    {
      "inputs": [
        {
          "internalType": "uint256",
          "name": "proposalId",
          "type": "uint256"
        }
      ],
      "name": "proposalSnapshot",
      "outputs": [
        {
          "internalType": "uint256",
          "name": "",
          "type": "uint256"
        }
      ],
      "stateMutability": "view",
      "type": "function"
    },
    {
      "inputs": [],
      "name": "proposalThreshold",
      "outputs": [
        {
          "internalType": "uint256",
          "name": "",
          "type": "uint256"
        }
      ],
      "stateMutability": "view",
      "type": "function"
    },
    {
      "inputs": [
        {
          "internalType": "uint256",
          "name": "proposalId",
          "type": "uint256"
        }
      ],
      "name": "proposalVotes",
      "outputs": [
        {
          "internalType": "uint256",
          "name": "againstVotes",
          "type": "uint256"
        },
        {
          "internalType": "uint256",
          "name": "forVotes",
          "type": "uint256"
        },
        {
          "internalType": "uint256",
          "name": "abstainVotes",
          "type": "uint256"
        }
      ],
      "stateMutability": "view",
      "type": "function"
    },
    {
      "inputs": [
        {
          "internalType": "address[]",
          "name": "targets",
          "type": "address[]"
        },
        {
          "internalType": "uint256[]",
          "name": "values",
          "type": "uint256[]"
        },
        {
          "internalType": "bytes[]",
          "name": "calldatas",
          "type": "bytes[]"
        },
        {
          "internalType": "string",
          "name": "description",
          "type": "string"
        }
      ],
      "name": "propose",
      "outputs": [
        {
          "internalType": "uint256",
          "name": "",
          "type": "uint256"
        }
      ],
      "stateMutability": "nonpayable",
      "type": "function"
    },
    {
      "inputs": [
        {
          "internalType": "uint256",
          "name": "",
          "type": "uint256"
        }
      ],
      "name": "quorum",
      "outputs": [
        {
          "internalType": "uint256",
          "name": "",
          "type": "uint256"
        }
      ],
      "stateMutability": "pure",
      "type": "function"
    },
    {
      "inputs": [
        {
          "internalType": "address",
          "name": "target",
          "type": "address"
        },
        {
          "internalType": "uint256",
          "name": "value",
          "type": "uint256"
        },
        {
          "internalType": "bytes",
          "name": "data",
          "type": "bytes"
        }
      ],
      "name": "relay",
      "outputs": [],
      "stateMutability": "nonpayable",
      "type": "function"
    },
    {
      "inputs": [
        {
          "internalType": "uint256",
          "name": "proposalId",
          "type": "uint256"
        }
      ],
      "name": "state",
      "outputs": [
        {
          "internalType": "enum IGovernor.ProposalState",
          "name": "",
          "type": "uint8"
        }
      ],
      "stateMutability": "view",
      "type": "function"
    },
    {
      "inputs": [
        {
          "internalType": "bytes4",
          "name": "interfaceId",
          "type": "bytes4"
        }
      ],
      "name": "supportsInterface",
      "outputs": [
        {
          "internalType": "bool",
          "name": "",
          "type": "bool"
        }
      ],
      "stateMutability": "view",
      "type": "function"
    },
    {
      "inputs": [],
      "name": "token",
      "outputs": [
        {
          "internalType": "contract IVotes",
          "name": "",
          "type": "address"
        }
      ],
      "stateMutability": "view",
      "type": "function"
    },
    {
      "inputs": [],
      "name": "version",
      "outputs": [
        {
          "internalType": "string",
          "name": "",
          "type": "string"
        }
      ],
      "stateMutability": "view",
      "type": "function"
    },
    {
      "inputs": [],
      "name": "votingDelay",
      "outputs": [
        {
          "internalType": "uint256",
          "name": "",
          "type": "uint256"
        }
      ],
      "stateMutability": "pure",
      "type": "function"
    },
    {
      "inputs": [],
      "name": "votingPeriod",
      "outputs": [
        {
          "internalType": "uint256",
          "name": "",
          "type": "uint256"
        }
      ],
      "stateMutability": "pure",
      "type": "function"
    },
    {
      "stateMutability": "payable",
      "type": "receive"
    }
  ],
  "bytecode": "6101606040523480156200001257600080fd5b50604051620026f2380380620026f283398101604081905262000035916200013f565b808280620000576040805180820190915260018152603160f81b602082015290565b815160209283012081519183019190912060e08290526101008190524660a0818152604080517f8b73c3c69bb8fe3d512ecc4cf759cc79239f7b179b0ffacaa9a75d522b39400f818801819052818301969096526060810194909452608080850193909352308483018190528151808603909301835260c094850190915281519190950120905291909152610120526000620000f48282620002b6565b50506001600160a01b03166101405250620003829050565b634e487b7160e01b600052604160045260246000fd5b80516001600160a01b03811681146200013a57600080fd5b919050565b600080604083850312156200015357600080fd5b82516001600160401b03808211156200016b57600080fd5b818501915085601f8301126200018057600080fd5b8151818111156200019557620001956200010c565b604051601f8201601f19908116603f01168101908382118183101715620001c057620001c06200010c565b81604052828152602093508884848701011115620001dd57600080fd5b600091505b82821015620002015784820184015181830185015290830190620001e2565b60008484830101528096505050506200021c81860162000122565b925050509250929050565b600181811c908216806200023c57607f821691505b6020821081036200025d57634e487b7160e01b600052602260045260246000fd5b50919050565b601f821115620002b157600081815260208120601f850160051c810160208610156200028c5750805b601f850160051c820191505b81811015620002ad5782815560010162000298565b5050505b505050565b81516001600160401b03811115620002d257620002d26200010c565b620002ea81620002e3845462000227565b8462000263565b602080601f831160018114620003225760008415620003095750858301515b600019600386901b1c1916600185901b178555620002ad565b600085815260208120601f198616915b82811015620003535788860151825594840194600190910190840162000332565b5085821015620003725787850151600019600388901b60f8161c191681555b5050505050600190811b01905550565b60805160a05160c05160e05161010051610120516101405161230e620003e4600039600081816104f501526111de0152600061130e0152600061135d0152600061133801526000611291015260006112bb015260006112e5015261230e6000f3fe60806040526004361061014f5760003560e01c806356781388116100b6578063c59057e41161006f578063c59057e414610408578063dd4e2ba514610428578063deaaa7cc1461046e578063eb9019d4146104a2578063f8ce560a146104c2578063fc0c546a146104e357600080fd5b806356781388146103545780637b3c71d3146103745780637d5e81e214610394578063b58131b0146103b4578063c01f9e37146103c8578063c28bc2fa146103e857600080fd5b80633bccf4fd116101085780633bccf4fd146102195780633e4f49e6146102395780634385963214610266578063452115d6146102b0578063544ffc9c146102d057806354fd4d501461032a57600080fd5b806301ffc9a71461015d57806302a251a31461019257806306fdde03146101b05780632656227d146101d25780632d63f693146101e55780633932abb11461020557600080fd5b3661015857005b005b600080fd5b34801561016957600080fd5b5061017d6101783660046118f1565b61052f565b60405190151581526020015b60405180910390f35b34801561019e57600080fd5b5060105b604051908152602001610189565b3480156101bc57600080fd5b506101c5610566565b604051610189919061196b565b6101a26101e0366004611bbb565b6105f8565b3480156101f157600080fd5b506101a2610200366004611c4a565b61070a565b34801561021157600080fd5b5060046101a2565b34801561022557600080fd5b506101a2610234366004611c74565b610741565b34801561024557600080fd5b50610259610254366004611c4a565b6107d5565b6040516101899190611cd8565b34801561027257600080fd5b5061017d610281366004611d00565b60008281526002602090815260408083206001600160a01b038516845260030190915290205460ff1692915050565b3480156102bc57600080fd5b506101a26102cb366004611bbb565b6108e4565b3480156102dc57600080fd5b5061030f6102eb366004611c4a565b60008181526002602081905260409091208054600182015491909201549193909250565b60408051938452602084019290925290820152606001610189565b34801561033657600080fd5b506040805180820190915260018152603160f81b60208201526101c5565b34801561036057600080fd5b506101a261036f366004611d2c565b6108fb565b34801561038057600080fd5b506101a261038f366004611d97565b610924565b3480156103a057600080fd5b506101a26103af366004611df0565b610976565b3480156103c057600080fd5b5060006101a2565b3480156103d457600080fd5b506101a26103e3366004611c4a565b610c43565b3480156103f457600080fd5b50610156610403366004611eb0565b610c72565b34801561041457600080fd5b506101a2610423366004611bbb565b610d0a565b34801561043457600080fd5b506040805180820190915260208082527f737570706f72743d627261766f2671756f72756d3d666f722c6162737461696e908201526101c5565b34801561047a57600080fd5b506101a27f150214d74d59b7d1e90c73fc22ef3d991dd0a76b046543d4d80ab92d2a50328f81565b3480156104ae57600080fd5b506101a26104bd366004611ef1565b610d44565b3480156104ce57600080fd5b506101a26104dd366004611c4a565b50600090565b3480156104ef57600080fd5b506105177f000000000000000000000000000000000000000000000000000000000000000081565b6040516001600160a01b039091168152602001610189565b60006001600160e01b0319821663bf26d89760e01b148061056057506301ffc9a760e01b6001600160e01b03198316145b92915050565b60606000805461057590611f1b565b80601f01602080910402602001604051908101604052809291908181526020018280546105a190611f1b565b80156105ee5780601f106105c3576101008083540402835291602001916105ee565b820191906000526020600020905b8154815290600101906020018083116105d157829003601f168201915b5050505050905090565b60008061060786868686610d0a565b90506000610614826107d5565b9050600481600781111561062a5761062a611cc2565b14806106475750600581600781111561064557610645611cc2565b145b6106a25760405162461bcd60e51b815260206004820152602160248201527f476f7665726e6f723a2070726f706f73616c206e6f74207375636365737366756044820152601b60fa1b60648201526084015b60405180910390fd5b600082815260016020818152604092839020600201805460ff191690921790915590518381527f712ae1383f79ac853f8d882153778e0260ef8f03b504e2866e0593e04d2b291f910160405180910390a16107008288888888610d57565b5095945050505050565b60008181526001602090815260408083208151928301909152546001600160401b0316908190525b6001600160401b031692915050565b604080517f150214d74d59b7d1e90c73fc22ef3d991dd0a76b046543d4d80ab92d2a50328f602082015290810186905260ff8516606082015260009081906107ad906107a59060800160405160208183030381529060405280519060200120610e56565b868686610ea4565b90506107ca87828860405180602001604052806000815250610ec2565b979650505050505050565b6000818152600160205260408120600281015460ff16156107f95750600792915050565b6002810154610100900460ff16156108145750600292915050565b600061081f8461070a565b9050806000036108715760405162461bcd60e51b815260206004820152601d60248201527f476f7665726e6f723a20756e6b6e6f776e2070726f706f73616c2069640000006044820152606401610699565b438110610882575060009392505050565b600061088d85610c43565b90504381106108a157506001949350505050565b6108aa85610fcd565b80156108c9575060008581526002602052604090208054600190910154115b156108d957506004949350505050565b506003949350505050565b60006108f285858585611005565b95945050505050565b60008033905061091c84828560405180602001604052806000815250610ec2565b949350505050565b60008033905061096c86828787878080601f016020809104026020016040519081016040528093929190818152602001838380828437600092019190915250610ec292505050565b9695505050505050565b600080610988336104bd600143611f6b565b1015610a085760405162461bcd60e51b815260206004820152604360248201527f476f7665726e6f72436f6d7061746962696c697479427261766f3a2070726f7060448201527f6f73657220766f7465732062656c6f772070726f706f73616c207468726573686064820152621bdb1960ea1b608482015260a401610699565b6000610a1d8686868680519060200120610d0a565b90508451865114610a405760405162461bcd60e51b815260040161069990611f7e565b8351865114610a615760405162461bcd60e51b815260040161069990611f7e565b6000865111610ab25760405162461bcd60e51b815260206004820152601860248201527f476f7665726e6f723a20656d7074792070726f706f73616c00000000000000006044820152606401610699565b600081815260016020908152604091829020825191820190925281546001600160401b03169081905215610b325760405162461bcd60e51b815260206004820152602160248201527f476f7665726e6f723a2070726f706f73616c20616c72656164792065786973746044820152607360f81b6064820152608401610699565b6000610b3e6004611123565b610b4743611123565b610b519190611fbf565b90506000610b5f6010611123565b610b699083611fbf565b835467ffffffffffffffff19166001600160401b038416178455905060018301805467ffffffffffffffff19166001600160401b0383161790557f7d84a6263ae0d98d3329bd7b46bb4e8d6f98cd35a7adb45c274c8b7fd5ebd5e084338b8b8d516001600160401b03811115610be157610be161197e565b604051908082528060200260200182016040528015610c1457816020015b6060815260200190600190039081610bff5790505b508c88888e604051610c2e999897969594939291906120af565b60405180910390a15091979650505050505050565b60008181526001602081815260408084208151928301909152909101546001600160401b031690819052610732565b333014610cc15760405162461bcd60e51b815260206004820152601860248201527f476f7665726e6f723a206f6e6c79476f7665726e616e636500000000000000006044820152606401610699565b610d038483838080601f01602080910402602001604051908101604052809392919081815260200183838082843760009201919091525088925061118f915050565b5050505050565b600084848484604051602001610d23949392919061219e565b60408051601f19818403018152919052805160209091012095945050505050565b6000610d5083836111b5565b9392505050565b600060405180606001604052806027815260200161228960279139905060005b8551811015610e4d57600080878381518110610d9557610d956121e9565b60200260200101516001600160a01b0316878481518110610db857610db86121e9565b6020026020010151878581518110610dd257610dd26121e9565b6020026020010151604051610de791906121ff565b60006040518083038185875af1925050503d8060008114610e24576040519150601f19603f3d011682016040523d82523d6000602084013e610e29565b606091505b5091509150610e3982828661124b565b50505080610e469061221b565b9050610d77565b50505050505050565b6000610560610e63611284565b8360405161190160f01b6020820152602281018390526042810182905260009060620160405160208183030381529060405280519060200120905092915050565b6000806000610eb5878787876113ab565b9150915061070081611498565b6000848152600160208190526040822090610edc876107d5565b6007811115610eed57610eed611cc2565b14610f465760405162461bcd60e51b815260206004820152602360248201527f476f7665726e6f723a20766f7465206e6f742063757272656e746c792061637460448201526269766560e81b6064820152608401610699565b604080516020810190915281546001600160401b031690819052600090610f6e908790610d44565b9050610f7c87878784611651565b856001600160a01b03167fb8e138887d0aa13bab447e82de9d5c1777041ecd21ca36ba824ff1e6c07ddda488878488604051610fbb9493929190612234565b60405180910390a29695505050505050565b60008181526002602081905260408220908101546001820154610ff0919061225c565b610ffc6104dd8561070a565b11159392505050565b60008061101486868686610d0a565b90506000611021826107d5565b9050600281600781111561103757611037611cc2565b141580156110575750600681600781111561105457611054611cc2565b14155b80156110755750600781600781111561107257611072611cc2565b14155b6110c15760405162461bcd60e51b815260206004820152601d60248201527f476f7665726e6f723a2070726f706f73616c206e6f74206163746976650000006044820152606401610699565b60008281526001602052604090819020600201805461ff001916610100179055517f789cf55be980739dad1d0699b93b58e806b51c9d96619bfa8fe0a28abaa7b30c906111119084815260200190565b60405180910390a15095945050505050565b60006001600160401b0382111561118b5760405162461bcd60e51b815260206004820152602660248201527f53616665436173743a2076616c756520646f65736e27742066697420696e203660448201526534206269747360d01b6064820152608401610699565b5090565b606061091c8484846040518060600160405280602981526020016122b0602991396117cb565b604051630748d63560e31b81526001600160a01b038381166004830152602482018390526000917f000000000000000000000000000000000000000000000000000000000000000090911690633a46b1a890604401602060405180830381865afa158015611227573d6000803e3d6000fd5b505050506040513d601f19601f82011682018060405250810190610d50919061226f565b6060831561125a575081610d50565b82511561126a5782518084602001fd5b8160405162461bcd60e51b8152600401610699919061196b565b6000306001600160a01b037f0000000000000000000000000000000000000000000000000000000000000000161480156112dd57507f000000000000000000000000000000000000000000000000000000000000000046145b1561130757507f000000000000000000000000000000000000000000000000000000000000000090565b50604080517f00000000000000000000000000000000000000000000000000000000000000006020808301919091527f0000000000000000000000000000000000000000000000000000000000000000828401527f000000000000000000000000000000000000000000000000000000000000000060608301524660808301523060a0808401919091528351808403909101815260c0909201909252805191012090565b6000807f7fffffffffffffffffffffffffffffff5d576e7357a4501ddfe92f46681b20a08311156113e2575060009050600361148f565b8460ff16601b141580156113fa57508460ff16601c14155b1561140b575060009050600461148f565b6040805160008082526020820180845289905260ff881692820192909252606081018690526080810185905260019060a0016020604051602081039080840390855afa15801561145f573d6000803e3d6000fd5b5050604051601f1901519150506001600160a01b0381166114885760006001925092505061148f565b9150600090505b94509492505050565b60008160048111156114ac576114ac611cc2565b036114b45750565b60018160048111156114c8576114c8611cc2565b036115155760405162461bcd60e51b815260206004820152601860248201527f45434453413a20696e76616c6964207369676e617475726500000000000000006044820152606401610699565b600281600481111561152957611529611cc2565b036115765760405162461bcd60e51b815260206004820152601f60248201527f45434453413a20696e76616c6964207369676e6174757265206c656e677468006044820152606401610699565b600381600481111561158a5761158a611cc2565b036115e25760405162461bcd60e51b815260206004820152602260248201527f45434453413a20696e76616c6964207369676e6174757265202773272076616c604482015261756560f01b6064820152608401610699565b60048160048111156115f6576115f6611cc2565b0361164e5760405162461bcd60e51b815260206004820152602260248201527f45434453413a20696e76616c6964207369676e6174757265202776272076616c604482015261756560f01b6064820152608401610699565b50565b60008481526002602090815260408083206001600160a01b0387168452600381019092529091205460ff16156116d95760405162461bcd60e51b815260206004820152602760248201527f476f7665726e6f72566f74696e6753696d706c653a20766f746520616c726561604482015266191e4818d85cdd60ca1b6064820152608401610699565b6001600160a01b03841660009081526003820160205260409020805460ff1916600117905560ff8316611725578181600001600082825461171a919061225c565b90915550610d039050565b60001960ff841601611745578181600101600082825461171a919061225c565b60011960ff841601611765578181600201600082825461171a919061225c565b60405162461bcd60e51b815260206004820152603560248201527f476f7665726e6f72566f74696e6753696d706c653a20696e76616c69642076616044820152746c756520666f7220656e756d20566f74655479706560581b6064820152608401610699565b60608247101561182c5760405162461bcd60e51b815260206004820152602660248201527f416464726573733a20696e73756666696369656e742062616c616e636520666f6044820152651c8818d85b1b60d21b6064820152608401610699565b6001600160a01b0385163b6118835760405162461bcd60e51b815260206004820152601d60248201527f416464726573733a2063616c6c20746f206e6f6e2d636f6e74726163740000006044820152606401610699565b600080866001600160a01b0316858760405161189f91906121ff565b60006040518083038185875af1925050503d80600081146118dc576040519150601f19603f3d011682016040523d82523d6000602084013e6118e1565b606091505b50915091506107ca82828661124b565b60006020828403121561190357600080fd5b81356001600160e01b031981168114610d5057600080fd5b60005b8381101561193657818101518382015260200161191e565b50506000910152565b6000815180845261195781602086016020860161191b565b601f01601f19169290920160200192915050565b602081526000610d50602083018461193f565b634e487b7160e01b600052604160045260246000fd5b604051601f8201601f191681016001600160401b03811182821017156119bc576119bc61197e565b604052919050565b60006001600160401b038211156119dd576119dd61197e565b5060051b60200190565b80356001600160a01b03811681146119fe57600080fd5b919050565b600082601f830112611a1457600080fd5b81356020611a29611a24836119c4565b611994565b82815260059290921b84018101918181019086841115611a4857600080fd5b8286015b84811015611a6a57611a5d816119e7565b8352918301918301611a4c565b509695505050505050565b600082601f830112611a8657600080fd5b81356020611a96611a24836119c4565b82815260059290921b84018101918181019086841115611ab557600080fd5b8286015b84811015611a6a5780358352918301918301611ab9565b60006001600160401b03831115611ae957611ae961197e565b611afc601f8401601f1916602001611994565b9050828152838383011115611b1057600080fd5b828260208301376000602084830101529392505050565b600082601f830112611b3857600080fd5b81356020611b48611a24836119c4565b82815260059290921b84018101918181019086841115611b6757600080fd5b8286015b84811015611a6a5780356001600160401b03811115611b8a5760008081fd5b8701603f81018913611b9c5760008081fd5b611bad898683013560408401611ad0565b845250918301918301611b6b565b60008060008060808587031215611bd157600080fd5b84356001600160401b0380821115611be857600080fd5b611bf488838901611a03565b95506020870135915080821115611c0a57600080fd5b611c1688838901611a75565b94506040870135915080821115611c2c57600080fd5b50611c3987828801611b27565b949793965093946060013593505050565b600060208284031215611c5c57600080fd5b5035919050565b803560ff811681146119fe57600080fd5b600080600080600060a08688031215611c8c57600080fd5b85359450611c9c60208701611c63565b9350611caa60408701611c63565b94979396509394606081013594506080013592915050565b634e487b7160e01b600052602160045260246000fd5b6020810160088310611cfa57634e487b7160e01b600052602160045260246000fd5b91905290565b60008060408385031215611d1357600080fd5b82359150611d23602084016119e7565b90509250929050565b60008060408385031215611d3f57600080fd5b82359150611d2360208401611c63565b60008083601f840112611d6157600080fd5b5081356001600160401b03811115611d7857600080fd5b602083019150836020828501011115611d9057600080fd5b9250929050565b60008060008060608587031215611dad57600080fd5b84359350611dbd60208601611c63565b925060408501356001600160401b03811115611dd857600080fd5b611de487828801611d4f565b95989497509550505050565b60008060008060808587031215611e0657600080fd5b84356001600160401b0380821115611e1d57600080fd5b611e2988838901611a03565b95506020870135915080821115611e3f57600080fd5b611e4b88838901611a75565b94506040870135915080821115611e6157600080fd5b611e6d88838901611b27565b93506060870135915080821115611e8357600080fd5b508501601f81018713611e9557600080fd5b611ea487823560208401611ad0565b91505092959194509250565b60008060008060608587031215611ec657600080fd5b611ecf856119e7565b93506020850135925060408501356001600160401b03811115611dd857600080fd5b60008060408385031215611f0457600080fd5b611f0d836119e7565b946020939093013593505050565b600181811c90821680611f2f57607f821691505b602082108103611f4f57634e487b7160e01b600052602260045260246000fd5b50919050565b634e487b7160e01b600052601160045260246000fd5b8181038181111561056057610560611f55565b60208082526021908201527f476f7665726e6f723a20696e76616c69642070726f706f73616c206c656e67746040820152600d60fb1b606082015260800190565b6001600160401b03818116838216019080821115611fdf57611fdf611f55565b5092915050565b600081518084526020808501945080840160005b8381101561201f5781516001600160a01b031687529582019590820190600101611ffa565b509495945050505050565b600081518084526020808501945080840160005b8381101561201f5781518752958201959082019060010161203e565b600081518084526020808501808196508360051b8101915082860160005b858110156120a257828403895261209084835161193f565b98850198935090840190600101612078565b5091979650505050505050565b60006101208b8352602060018060a01b038c16818501528160408501526120d88285018c611fe6565b915083820360608501526120ec828b61202a565b915083820360808501528189518084528284019150828160051b850101838c0160005b8381101561213d57601f1987840301855261212b83835161193f565b9486019492509085019060010161210f565b505086810360a0880152612151818c61205a565b94505050505061216c60c08401876001600160401b03169052565b6001600160401b03851660e084015282810361010084015261218e818561193f565b9c9b505050505050505050505050565b6080815260006121b16080830187611fe6565b82810360208401526121c3818761202a565b905082810360408401526121d7818661205a565b91505082606083015295945050505050565b634e487b7160e01b600052603260045260246000fd5b6000825161221181846020870161191b565b9190910192915050565b60006001820161222d5761222d611f55565b5060010190565b84815260ff8416602082015282604082015260806060820152600061096c608083018461193f565b8082018082111561056057610560611f55565b60006020828403121561228157600080fd5b505191905056fe476f7665726e6f723a2063616c6c20726576657274656420776974686f7574206d657373616765416464726573733a206c6f772d6c6576656c2063616c6c20776974682076616c7565206661696c6564a2646970667358221220e24e2f4051fe6ff40b154b724f9252d43ed908ab05a73ae1f7ef06be582ab28364736f6c63430008150033",
  "bytecodeSha1": "93f95ecb4ad93f676d782591f63e4866cc7d9069",
  "compiler": {
    "evm_version": "istanbul",
    "optimizer": {
      "enabled": true,
      "runs": 200
    },
    "version": "0.8.21+commit.d9974bed"
  },
  "contractName": "GovernorVoteMocks",
  "language": "Solidity",
  "natspec": {
    "kind": "dev",
    "methods": {
      "COUNTING_MODE()": {
        "details": "See {IGovernor-COUNTING_MODE}."
      },
      "castVote(uint256,uint8)": {
        "details": "See {IGovernor-castVote}."
      },
      "castVoteBySig(uint256,uint8,uint8,bytes32,bytes32)": {
        "details": "See {IGovernor-castVoteBySig}."
      },
      "castVoteWithReason(uint256,uint8,string)": {
        "details": "See {IGovernor-castVoteWithReason}."
      },
      "execute(address[],uint256[],bytes[],bytes32)": {
        "details": "See {IGovernor-execute}."
      },
      "hasVoted(uint256,address)": {
        "details": "See {IGovernor-hasVoted}."
      },
      "hashProposal(address[],uint256[],bytes[],bytes32)": {
        "details": "See {IGovernor-hashProposal}. The proposal id is produced by hashing the RLC encoded `targets` array, the `values` array, the `calldatas` array and the descriptionHash (bytes32 which itself is the keccak256 hash of the description string). This proposal id can be produced from the proposal data which is part of the {ProposalCreated} event. It can even be computed in advance, before the proposal is submitted. Note that the chainId and the governor address are not part of the proposal id computation. Consequently, the same proposal (with same operation and same description) will have the same id if submitted on multiple governors accross multiple networks. This also means that in order to execute the same operation twice (on the same governor) the proposer will have to change the description in order to avoid proposal id conflicts."
      },
      "name()": {
        "details": "See {IGovernor-name}."
      },
      "proposalDeadline(uint256)": {
        "details": "See {IGovernor-proposalDeadline}."
      },
      "proposalSnapshot(uint256)": {
        "details": "See {IGovernor-proposalSnapshot}."
      },
      "proposalThreshold()": {
        "details": "Part of the Governor Bravo's interface: _\"The number of votes required in order for a voter to become a proposer\"_."
      },
      "proposalVotes(uint256)": {
        "details": "Accessor to the internal vote counts."
      },
      "propose(address[],uint256[],bytes[],string)": {
        "details": "See {IGovernor-propose}."
      },
      "relay(address,uint256,bytes)": {
        "details": "Relays a transaction or function call to an arbitrary target. In cases where the governance executor is some contract other than the governor itself, like when using a timelock, this function can be invoked in a governance proposal to recover tokens or Ether that was sent to the governor contract by mistake. Note that if the executor is simply the governor itself, use of `relay` is redundant."
      },
      "state(uint256)": {
        "details": "See {IGovernor-state}."
      },
      "supportsInterface(bytes4)": {
        "details": "See {IERC165-supportsInterface}."
      },
      "version()": {
        "details": "See {IGovernor-version}."
      },
      "votingDelay()": {
        "details": "Delay, in number of block, between the proposal is created and the vote starts. This can be increassed to leave time for users to buy voting power, of delegate it, before the voting of a proposal starts.",
        "notice": "module:user-config"
      },
      "votingPeriod()": {
        "details": "Delay, in number of blocks, between the vote start and vote ends. NOTE: The {votingDelay} can delay the start of the vote. This must be considered when setting the voting duration compared to the voting delay.",
        "notice": "module:user-config"
      }
    },
    "version": 1
  },
  "opcodes": "PUSH1 0x80 PUSH1 0x40 MSTORE PUSH1 0x4 CALLDATASIZE LT PUSH2 0x14F JUMPI PUSH1 0x0 CALLDATALOAD PUSH1 0xE0 SHR DUP1 PUSH4 0x56781388 GT PUSH2 0xB6 JUMPI DUP1 PUSH4 0xC59057E4 GT PUSH2 0x6F JUMPI DUP1 PUSH4 0xC59057E4 EQ PUSH2 0x408 JUMPI DUP1 PUSH4 0xDD4E2BA5 EQ PUSH2 0x428 JUMPI DUP1 PUSH4 0xDEAAA7CC EQ PUSH2 0x46E JUMPI DUP1 PUSH4 0xEB9019D4 EQ PUSH2 0x4A2 JUMPI DUP1 PUSH4 0xF8CE560A EQ PUSH2 0x4C2 JUMPI DUP1 PUSH4 0xFC0C546A EQ PUSH2 0x4E3 JUMPI PUSH1 0x0 DUP1 REVERT JUMPDEST DUP1 PUSH4 0x56781388 EQ PUSH2 0x354 JUMPI DUP1 PUSH4 0x7B3C71D3 EQ PUSH2 0x374 JUMPI DUP1 PUSH4 0x7D5E81E2 EQ PUSH2 0x394 JUMPI DUP1 PUSH4 0xB58131B0 EQ PUSH2 0x3B4 JUMPI DUP1 PUSH4 0xC01F9E37 EQ PUSH2 0x3C8 JUMPI DUP1 PUSH4 0xC28BC2FA EQ PUSH2 0x3E8 JUMPI PUSH1 0x0 DUP1 REVERT JUMPDEST DUP1 PUSH4 0x3BCCF4FD GT PUSH2 0x108 JUMPI DUP1 PUSH4 0x3BCCF4FD EQ PUSH2 0x219 JUMPI DUP1 PUSH4 0x3E4F49E6 EQ PUSH2 0x239 JUMPI DUP1 PUSH4 0x43859632 EQ PUSH2 0x266 JUMPI DUP1 PUSH4 0x452115D6 EQ PUSH2 0x2B0 JUMPI DUP1 PUSH4 0x544FFC9C EQ PUSH2 0x2D0 JUMPI DUP1 PUSH4 0x54FD4D50 EQ PUSH2 0x32A JUMPI PUSH1 0x0 DUP1 REVERT JUMPDEST DUP1 PUSH4 0x1FFC9A7 EQ PUSH2 0x15D JUMPI DUP1 PUSH4 0x2A251A3 EQ PUSH2 0x192 JUMPI DUP1 PUSH4 0x6FDDE03 EQ PUSH2 0x1B0 JUMPI DUP1 PUSH4 0x2656227D EQ PUSH2 0x1D2 JUMPI DUP1 PUSH4 0x2D63F693 EQ PUSH2 0x1E5 JUMPI DUP1 PUSH4 0x3932ABB1 EQ PUSH2 0x205 JUMPI PUSH1 0x0 DUP1 REVERT JUMPDEST CALLDATASIZE PUSH2 0x158 JUMPI STOP JUMPDEST STOP JUMPDEST PUSH1 0x0 DUP1 REVERT JUMPDEST CALLVALUE DUP1 ISZERO PUSH2 0x169 JUMPI PUSH1 0x0 DUP1 REVERT JUMPDEST POP PUSH2 0x17D PUSH2 0x178 CALLDATASIZE PUSH1 0x4 PUSH2 0x18F1 JUMP JUMPDEST PUSH2 0x52F JUMP JUMPDEST PUSH1 0x40 MLOAD SWAP1 ISZERO ISZERO DUP2 MSTORE PUSH1 0x20 ADD JUMPDEST PUSH1 0x40 MLOAD DUP1 SWAP2 SUB SWAP1 RETURN JUMPDEST CALLVALUE DUP1 ISZERO PUSH2 0x19E JUMPI PUSH1 0x0 DUP1 REVERT JUMPDEST POP PUSH1 0x10 JUMPDEST PUSH1 0x40 MLOAD SWAP1 DUP2 MSTORE PUSH1 0x20 ADD PUSH2 0x189 JUMP JUMPDEST CALLVALUE DUP1 ISZERO PUSH2 0x1BC JUMPI PUSH1 0x0 DUP1 REVERT JUMPDEST POP PUSH2 0x1C5 PUSH2 0x566 JUMP JUMPDEST PUSH1 0x40 MLOAD PUSH2 0x189 SWAP2 SWAP1 PUSH2 0x196B JUMP JUMPDEST PUSH2 0x1A2 PUSH2 0x1E0 CALLDATASIZE PUSH1 0x4 PUSH2 0x1BBB JUMP JUMPDEST PUSH2 0x5F8 JUMP JUMPDEST CALLVALUE DUP1 ISZERO PUSH2 0x1F1 JUMPI PUSH1 0x0 DUP1 REVERT JUMPDEST POP PUSH2 0x1A2 PUSH2 0x200 CALLDATASIZE PUSH1 0x4 PUSH2 0x1C4A JUMP JUMPDEST PUSH2 0x70A JUMP JUMPDEST CALLVALUE DUP1 ISZERO PUSH2 0x211 JUMPI PUSH1 0x0 DUP1 REVERT JUMPDEST POP PUSH1 0x4 PUSH2 0x1A2 JUMP JUMPDEST CALLVALUE DUP1 ISZERO PUSH2 0x225 JUMPI PUSH1 0x0 DUP1 REVERT JUMPDEST POP PUSH2 0x1A2 PUSH2 0x234 CALLDATASIZE PUSH1 0x4 PUSH2 0x1C74 JUMP JUMPDEST PUSH2 0x741 JUMP JUMPDEST CALLVALUE DUP1 ISZERO PUSH2 0x245 JUMPI PUSH1 0x0 DUP1 REVERT JUMPDEST POP PUSH2 0x259 PUSH2 0x254 CALLDATASIZE PUSH1 0x4 PUSH2 0x1C4A JUMP JUMPDEST PUSH2 0x7D5 JUMP JUMPDEST PUSH1 0x40 MLOAD PUSH2 0x189 SWAP2 SWAP1 PUSH2 0x1CD8 JUMP JUMPDEST CALLVALUE DUP1 ISZERO PUSH2 0x272 JUMPI PUSH1 0x0 DUP1 REVERT JUMPDEST POP PUSH2 0x17D PUSH2 0x281 CALLDATASIZE PUSH1 0x4 PUSH2 0x1D00 JUMP JUMPDEST PUSH1 0x0 DUP3 DUP2 MSTORE PUSH1 0x2 PUSH1 0x20 SWAP1 DUP2 MSTORE PUSH1 0x40 DUP1 DUP4 KECCAK256 PUSH1 0x1 PUSH1 0x1 PUSH1 0xA0 SHL SUB DUP6 AND DUP5 MSTORE PUSH1 0x3 ADD SWAP1 SWAP2 MSTORE SWAP1 KECCAK256 SLOAD PUSH1 0xFF AND SWAP3 SWAP2 POP POP JUMP JUMPDEST CALLVALUE DUP1 ISZERO PUSH2 0x2BC JUMPI PUSH1 0x0 DUP1 REVERT JUMPDEST POP PUSH2 0x1A2 PUSH2 0x2CB CALLDATASIZE PUSH1 0x4 PUSH2 0x1BBB JUMP JUMPDEST PUSH2 0x8E4 JUMP JUMPDEST CALLVALUE DUP1 ISZERO PUSH2 0x2DC JUMPI PUSH1 0x0 DUP1 REVERT JUMPDEST POP PUSH2 0x30F PUSH2 0x2EB CALLDATASIZE PUSH1 0x4 PUSH2 0x1C4A JUMP JUMPDEST PUSH1 0x0 DUP2 DUP2 MSTORE PUSH1 0x2 PUSH1 0x20 DUP2 SWAP1 MSTORE PUSH1 0x40 SWAP1 SWAP2 KECCAK256 DUP1 SLOAD PUSH1 0x1 DUP3 ADD SLOAD SWAP2 SWAP1 SWAP3 ADD SLOAD SWAP2 SWAP4 SWAP1 SWAP3 POP JUMP JUMPDEST PUSH1 0x40 DUP1 MLOAD SWAP4 DUP5 MSTORE PUSH1 0x20 DUP5 ADD SWAP3 SWAP1 SWAP3 MSTORE SWAP1 DUP3 ADD MSTORE PUSH1 0x60 ADD PUSH2 0x189 JUMP JUMPDEST CALLVALUE DUP1 ISZERO PUSH2 0x336 JUMPI PUSH1 0x0 DUP1 REVERT JUMPDEST POP PUSH1 0x40 DUP1 MLOAD DUP1 DUP3 ADD SWAP1 SWAP2 MSTORE PUSH1 0x1 DUP2 MSTORE PUSH1 0x31 PUSH1 0xF8 SHL PUSH1 0x20 DUP3 ADD MSTORE PUSH2 0x1C5 JUMP JUMPDEST CALLVALUE DUP1 ISZERO PUSH2 0x360 JUMPI PUSH1 0x0 DUP1 REVERT JUMPDEST POP PUSH2 0x1A2 PUSH2 0x36F CALLDATASIZE PUSH1 0x4 PUSH2 0x1D2C JUMP JUMPDEST PUSH2 0x8FB JUMP JUMPDEST CALLVALUE DUP1 ISZERO PUSH2 0x380 JUMPI PUSH1 0x0 DUP1 REVERT JUMPDEST POP PUSH2 0x1A2 PUSH2 0x38F CALLDATASIZE PUSH1 0x4 PUSH2 0x1D97 JUMP JUMPDEST PUSH2 0x924 JUMP JUMPDEST CALLVALUE DUP1 ISZERO PUSH2 0x3A0 JUMPI PUSH1 0x0 DUP1 REVERT JUMPDEST POP PUSH2 0x1A2 PUSH2 0x3AF CALLDATASIZE PUSH1 0x4 PUSH2 0x1DF0 JUMP JUMPDEST PUSH2 0x976 JUMP JUMPDEST CALLVALUE DUP1 ISZERO PUSH2 0x3C0 JUMPI PUSH1 0x0 DUP1 REVERT JUMPDEST POP PUSH1 0x0 PUSH2 0x1A2 JUMP JUMPDEST CALLVALUE DUP1 ISZERO PUSH2 0x3D4 JUMPI PUSH1 0x0 DUP1 REVERT JUMPDEST POP PUSH2 0x1A2 PUSH2 0x3E3 CALLDATASIZE PUSH1 0x4 PUSH2 0x1C4A JUMP JUMPDEST PUSH2 0xC43 JUMP JUMPDEST CALLVALUE DUP1 ISZERO PUSH2 0x3F4 JUMPI PUSH1 0x0 DUP1 REVERT JUMPDEST POP PUSH2 0x156 PUSH2 0x403 CALLDATASIZE PUSH1 0x4 PUSH2 0x1EB0 JUMP JUMPDEST PUSH2 0xC72 JUMP JUMPDEST CALLVALUE DUP1 ISZERO PUSH2 0x414 JUMPI PUSH1 0x0 DUP1 REVERT JUMPDEST POP PUSH2 0x1A2 PUSH2 0x423 CALLDATASIZE PUSH1 0x4 PUSH2 0x1BBB JUMP JUMPDEST PUSH2 0xD0A JUMP JUMPDEST CALLVALUE DUP1 ISZERO PUSH2 0x434 JUMPI PUSH1 0x0 DUP1 REVERT JUMPDEST POP PUSH1 0x40 DUP1 MLOAD DUP1 DUP3 ADD SWAP1 SWAP2 MSTORE PUSH1 0x20 DUP1 DUP3 MSTORE PUSH32 0x737570706F72743D627261766F2671756F72756D3D666F722C6162737461696E SWAP1 DUP3 ADD MSTORE PUSH2 0x1C5 JUMP JUMPDEST CALLVALUE DUP1 ISZERO PUSH2 0x47A JUMPI PUSH1 0x0 DUP1 REVERT JUMPDEST POP PUSH2 0x1A2 PUSH32 0x150214D74D59B7D1E90C73FC22EF3D991DD0A76B046543D4D80AB92D2A50328F DUP2 JUMP JUMPDEST CALLVALUE DUP1 ISZERO PUSH2 0x4AE JUMPI PUSH1 0x0 DUP1 REVERT JUMPDEST POP PUSH2 0x1A2 PUSH2 0x4BD CALLDATASIZE PUSH1 0x4 PUSH2 0x1EF1 JUMP JUMPDEST PUSH2 0xD44 JUMP JUMPDEST CALLVALUE DUP1 ISZERO PUSH2 0x4CE JUMPI PUSH1 0x0 DUP1 REVERT JUMPDEST POP PUSH2 0x1A2 PUSH2 0x4DD CALLDATASIZE PUSH1 0x4 PUSH2 0x1C4A JUMP JUMPDEST POP PUSH1 0x0 SWAP1 JUMP JUMPDEST CALLVALUE DUP1 ISZERO PUSH2 0x4EF JUMPI PUSH1 0x0 DUP1 REVERT JUMPDEST POP PUSH2 0x517 PUSH32 0x0 DUP2 JUMP JUMPDEST PUSH1 0x40 MLOAD PUSH1 0x1 PUSH1 0x1 PUSH1 0xA0 SHL SUB SWAP1 SWAP2 AND DUP2 MSTORE PUSH1 0x20 ADD PUSH2 0x189 JUMP JUMPDEST PUSH1 0x0 PUSH1 0x1 PUSH1 0x1 PUSH1 0xE0 SHL SUB NOT DUP3 AND PUSH4 0xBF26D897 PUSH1 0xE0 SHL EQ DUP1 PUSH2 0x560 JUMPI POP PUSH4 0x1FFC9A7 PUSH1 0xE0 SHL PUSH1 0x1 PUSH1 0x1 PUSH1 0xE0 SHL SUB NOT DUP4 AND EQ JUMPDEST SWAP3 SWAP2 POP POP JUMP JUMPDEST PUSH1 0x60 PUSH1 0x0 DUP1 SLOAD PUSH2 0x575 SWAP1 PUSH2 0x1F1B JUMP JUMPDEST DUP1 PUSH1 0x1F ADD PUSH1 0x20 DUP1 SWAP2 DIV MUL PUSH1 0x20 ADD PUSH1 0x40 MLOAD SWAP1 DUP2 ADD PUSH1 0x40 MSTORE DUP1 SWAP3 SWAP2 SWAP1 DUP2 DUP2 MSTORE PUSH1 0x20 ADD DUP3 DUP1 SLOAD PUSH2 0x5A1 SWAP1 PUSH2 0x1F1B JUMP JUMPDEST DUP1 ISZERO PUSH2 0x5EE JUMPI DUP1 PUSH1 0x1F LT PUSH2 0x5C3 JUMPI PUSH2 0x100 DUP1 DUP4 SLOAD DIV MUL DUP4 MSTORE SWAP2 PUSH1 0x20 ADD SWAP2 PUSH2 0x5EE JUMP JUMPDEST DUP3 ADD SWAP2 SWAP1 PUSH1 0x0 MSTORE PUSH1 0x20 PUSH1 0x0 KECCAK256 SWAP1 JUMPDEST DUP2 SLOAD DUP2 MSTORE SWAP1 PUSH1 0x1 ADD SWAP1 PUSH1 0x20 ADD DUP1 DUP4 GT PUSH2 0x5D1 JUMPI DUP3 SWAP1 SUB PUSH1 0x1F AND DUP3 ADD SWAP2 JUMPDEST POP POP POP POP POP SWAP1 POP SWAP1 JUMP JUMPDEST PUSH1 0x0 DUP1 PUSH2 0x607 DUP7 DUP7 DUP7 DUP7 PUSH2 0xD0A JUMP JUMPDEST SWAP1 POP PUSH1 0x0 PUSH2 0x614 DUP3 PUSH2 0x7D5 JUMP JUMPDEST SWAP1 POP PUSH1 0x4 DUP2 PUSH1 0x7 DUP2 GT ISZERO PUSH2 0x62A JUMPI PUSH2 0x62A PUSH2 0x1CC2 JUMP JUMPDEST EQ DUP1 PUSH2 0x647 JUMPI POP PUSH1 0x5 DUP2 PUSH1 0x7 DUP2 GT ISZERO PUSH2 0x645 JUMPI PUSH2 0x645 PUSH2 0x1CC2 JUMP JUMPDEST EQ JUMPDEST PUSH2 0x6A2 JUMPI PUSH1 0x40 MLOAD PUSH3 0x461BCD PUSH1 0xE5 SHL DUP2 MSTORE PUSH1 0x20 PUSH1 0x4 DUP3 ADD MSTORE PUSH1 0x21 PUSH1 0x24 DUP3 ADD MSTORE PUSH32 0x476F7665726E6F723A2070726F706F73616C206E6F7420737563636573736675 PUSH1 0x44 DUP3 ADD MSTORE PUSH1 0x1B PUSH1 0xFA SHL PUSH1 0x64 DUP3 ADD MSTORE PUSH1 0x84 ADD JUMPDEST PUSH1 0x40 MLOAD DUP1 SWAP2 SUB SWAP1 REVERT JUMPDEST PUSH1 0x0 DUP3 DUP2 MSTORE PUSH1 0x1 PUSH1 0x20 DUP2 DUP2 MSTORE PUSH1 0x40 SWAP3 DUP4 SWAP1 KECCAK256 PUSH1 0x2 ADD DUP1 SLOAD PUSH1 0xFF NOT AND SWAP1 SWAP3 OR SWAP1 SWAP2 SSTORE SWAP1 MLOAD DUP4 DUP2 MSTORE PUSH32 0x712AE1383F79AC853F8D882153778E0260EF8F03B504E2866E0593E04D2B291F SWAP2 ADD PUSH1 0x40 MLOAD DUP1 SWAP2 SUB SWAP1 LOG1 PUSH2 0x700 DUP3 DUP9 DUP9 DUP9 DUP9 PUSH2 0xD57 JUMP JUMPDEST POP SWAP6 SWAP5 POP POP POP POP POP JUMP JUMPDEST PUSH1 0x0 DUP2 DUP2 MSTORE PUSH1 0x1 PUSH1 0x20 SWAP1 DUP2 MSTORE PUSH1 0x40 DUP1 DUP4 KECCAK256 DUP2 MLOAD SWAP3 DUP4 ADD SWAP1 SWAP2 MSTORE SLOAD PUSH1 0x1 PUSH1 0x1 PUSH1 0x40 SHL SUB AND SWAP1 DUP2 SWAP1 MSTORE JUMPDEST PUSH1 0x1 PUSH1 0x1 PUSH1 0x40 SHL SUB AND SWAP3 SWAP2 POP POP JUMP JUMPDEST PUSH1 0x40 DUP1 MLOAD PUSH32 0x150214D74D59B7D1E90C73FC22EF3D991DD0A76B046543D4D80AB92D2A50328F PUSH1 0x20 DUP3 ADD MSTORE SWAP1 DUP2 ADD DUP7 SWAP1 MSTORE PUSH1 0xFF DUP6 AND PUSH1 0x60 DUP3 ADD MSTORE PUSH1 0x0 SWAP1 DUP2 SWAP1 PUSH2 0x7AD SWAP1 PUSH2 0x7A5 SWAP1 PUSH1 0x80 ADD PUSH1 0x40 MLOAD PUSH1 0x20 DUP2 DUP4 SUB SUB DUP2 MSTORE SWAP1 PUSH1 0x40 MSTORE DUP1 MLOAD SWAP1 PUSH1 0x20 ADD KECCAK256 PUSH2 0xE56 JUMP JUMPDEST DUP7 DUP7 DUP7 PUSH2 0xEA4 JUMP JUMPDEST SWAP1 POP PUSH2 0x7CA DUP8 DUP3 DUP9 PUSH1 0x40 MLOAD DUP1 PUSH1 0x20 ADD PUSH1 0x40 MSTORE DUP1 PUSH1 0x0 DUP2 MSTORE POP PUSH2 0xEC2 JUMP JUMPDEST SWAP8 SWAP7 POP POP POP POP POP POP POP JUMP JUMPDEST PUSH1 0x0 DUP2 DUP2 MSTORE PUSH1 0x1 PUSH1 0x20 MSTORE PUSH1 0x40 DUP2 KECCAK256 PUSH1 0x2 DUP2 ADD SLOAD PUSH1 0xFF AND ISZERO PUSH2 0x7F9 JUMPI POP PUSH1 0x7 SWAP3 SWAP2 POP POP JUMP JUMPDEST PUSH1 0x2 DUP2 ADD SLOAD PUSH2 0x100 SWAP1 DIV PUSH1 0xFF AND ISZERO PUSH2 0x814 JUMPI POP PUSH1 0x2 SWAP3 SWAP2 POP POP JUMP JUMPDEST PUSH1 0x0 PUSH2 0x81F DUP5 PUSH2 0x70A JUMP JUMPDEST SWAP1 POP DUP1 PUSH1 0x0 SUB PUSH2 0x871 JUMPI PUSH1 0x40 MLOAD PUSH3 0x461BCD PUSH1 0xE5 SHL DUP2 MSTORE PUSH1 0x20 PUSH1 0x4 DUP3 ADD MSTORE PUSH1 0x1D PUSH1 0x24 DUP3 ADD MSTORE PUSH32 0x476F7665726E6F723A20756E6B6E6F776E2070726F706F73616C206964000000 PUSH1 0x44 DUP3 ADD MSTORE PUSH1 0x64 ADD PUSH2 0x699 JUMP JUMPDEST NUMBER DUP2 LT PUSH2 0x882 JUMPI POP PUSH1 0x0 SWAP4 SWAP3 POP POP POP JUMP JUMPDEST PUSH1 0x0 PUSH2 0x88D DUP6 PUSH2 0xC43 JUMP JUMPDEST SWAP1 POP NUMBER DUP2 LT PUSH2 0x8A1 JUMPI POP PUSH1 0x1 SWAP5 SWAP4 POP POP POP POP JUMP JUMPDEST PUSH2 0x8AA DUP6 PUSH2 0xFCD JUMP JUMPDEST DUP1 ISZERO PUSH2 0x8C9 JUMPI POP PUSH1 0x0 DUP6 DUP2 MSTORE PUSH1 0x2 PUSH1 0x20 MSTORE PUSH1 0x40 SWAP1 KECCAK256 DUP1 SLOAD PUSH1 0x1 SWAP1 SWAP2 ADD SLOAD GT JUMPDEST ISZERO PUSH2 0x8D9 JUMPI POP PUSH1 0x4 SWAP5 SWAP4 POP POP POP POP JUMP JUMPDEST POP PUSH1 0x3 SWAP5 SWAP4 POP POP POP POP JUMP JUMPDEST PUSH1 0x0 PUSH2 0x8F2 DUP6 DUP6 DUP6 DUP6 PUSH2 0x1005 JUMP JUMPDEST SWAP6 SWAP5 POP POP POP POP POP JUMP JUMPDEST PUSH1 0x0 DUP1 CALLER SWAP1 POP PUSH2 0x91C DUP5 DUP3 DUP6 PUSH1 0x40 MLOAD DUP1 PUSH1 0x20 ADD PUSH1 0x40 MSTORE DUP1 PUSH1 0x0 DUP2 MSTORE POP PUSH2 0xEC2 JUMP JUMPDEST SWAP5 SWAP4 POP POP POP POP JUMP JUMPDEST PUSH1 0x0 DUP1 CALLER SWAP1 POP PUSH2 0x96C DUP7 DUP3 DUP8 DUP8 DUP8 DUP1 DUP1 PUSH1 0x1F ADD PUSH1 0x20 DUP1 SWAP2 DIV MUL PUSH1 0x20 ADD PUSH1 0x40 MLOAD SWAP1 DUP2 ADD PUSH1 0x40 MSTORE DUP1 SWAP4 SWAP3 SWAP2 SWAP1 DUP2 DUP2 MSTORE PUSH1 0x20 ADD DUP4 DUP4 DUP1 DUP3 DUP5 CALLDATACOPY PUSH1 0x0 SWAP3 ADD SWAP2 SWAP1 SWAP2 MSTORE POP PUSH2 0xEC2 SWAP3 POP POP POP JUMP JUMPDEST SWAP7 SWAP6 POP POP POP POP POP POP JUMP JUMPDEST PUSH1 0x0 DUP1 PUSH2 0x988 CALLER PUSH2 0x4BD PUSH1 0x1 NUMBER PUSH2 0x1F6B JUMP JUMPDEST LT ISZERO PUSH2 0xA08 JUMPI PUSH1 0x40 MLOAD PUSH3 0x461BCD PUSH1 0xE5 SHL DUP2 MSTORE PUSH1 0x20 PUSH1 0x4 DUP3 ADD MSTORE PUSH1 0x43 PUSH1 0x24 DUP3 ADD MSTORE PUSH32 0x476F7665726E6F72436F6D7061746962696C697479427261766F3A2070726F70 PUSH1 0x44 DUP3 ADD MSTORE PUSH32 0x6F73657220766F7465732062656C6F772070726F706F73616C20746872657368 PUSH1 0x64 DUP3 ADD MSTORE PUSH3 0x1BDB19 PUSH1 0xEA SHL PUSH1 0x84 DUP3 ADD MSTORE PUSH1 0xA4 ADD PUSH2 0x699 JUMP JUMPDEST PUSH1 0x0 PUSH2 0xA1D DUP7 DUP7 DUP7 DUP7 DUP1 MLOAD SWAP1 PUSH1 0x20 ADD KECCAK256 PUSH2 0xD0A JUMP JUMPDEST SWAP1 POP DUP5 MLOAD DUP7 MLOAD EQ PUSH2 0xA40 JUMPI PUSH1 0x40 MLOAD PUSH3 0x461BCD PUSH1 0xE5 SHL DUP2 MSTORE PUSH1 0x4 ADD PUSH2 0x699 SWAP1 PUSH2 0x1F7E JUMP JUMPDEST DUP4 MLOAD DUP7 MLOAD EQ PUSH2 0xA61 JUMPI PUSH1 0x40 MLOAD PUSH3 0x461BCD PUSH1 0xE5 SHL DUP2 MSTORE PUSH1 0x4 ADD PUSH2 0x699 SWAP1 PUSH2 0x1F7E JUMP JUMPDEST PUSH1 0x0 DUP7 MLOAD GT PUSH2 0xAB2 JUMPI PUSH1 0x40 MLOAD PUSH3 0x461BCD PUSH1 0xE5 SHL DUP2 MSTORE PUSH1 0x20 PUSH1 0x4 DUP3 ADD MSTORE PUSH1 0x18 PUSH1 0x24 DUP3 ADD MSTORE PUSH32 0x476F7665726E6F723A20656D7074792070726F706F73616C0000000000000000 PUSH1 0x44 DUP3 ADD MSTORE PUSH1 0x64 ADD PUSH2 0x699 JUMP JUMPDEST PUSH1 0x0 DUP2 DUP2 MSTORE PUSH1 0x1 PUSH1 0x20 SWAP1 DUP2 MSTORE PUSH1 0x40 SWAP2 DUP3 SWAP1 KECCAK256 DUP3 MLOAD SWAP2 DUP3 ADD SWAP1 SWAP3 MSTORE DUP2 SLOAD PUSH1 0x1 PUSH1 0x1 PUSH1 0x40 SHL SUB AND SWAP1 DUP2 SWAP1 MSTORE ISZERO PUSH2 0xB32 JUMPI PUSH1 0x40 MLOAD PUSH3 0x461BCD PUSH1 0xE5 SHL DUP2 MSTORE PUSH1 0x20 PUSH1 0x4 DUP3 ADD MSTORE PUSH1 0x21 PUSH1 0x24 DUP3 ADD MSTORE PUSH32 0x476F7665726E6F723A2070726F706F73616C20616C7265616479206578697374 PUSH1 0x44 DUP3 ADD MSTORE PUSH1 0x73 PUSH1 0xF8 SHL PUSH1 0x64 DUP3 ADD MSTORE PUSH1 0x84 ADD PUSH2 0x699 JUMP JUMPDEST PUSH1 0x0 PUSH2 0xB3E PUSH1 0x4 PUSH2 0x1123 JUMP JUMPDEST PUSH2 0xB47 NUMBER PUSH2 0x1123 JUMP JUMPDEST PUSH2 0xB51 SWAP2 SWAP1 PUSH2 0x1FBF JUMP JUMPDEST SWAP1 POP PUSH1 0x0 PUSH2 0xB5F PUSH1 0x10 PUSH2 0x1123 JUMP JUMPDEST PUSH2 0xB69 SWAP1 DUP4 PUSH2 0x1FBF JUMP JUMPDEST DUP4 SLOAD PUSH8 0xFFFFFFFFFFFFFFFF NOT AND PUSH1 0x1 PUSH1 0x1 PUSH1 0x40 SHL SUB DUP5 AND OR DUP5 SSTORE SWAP1 POP PUSH1 0x1 DUP4 ADD DUP1 SLOAD PUSH8 0xFFFFFFFFFFFFFFFF NOT AND PUSH1 0x1 PUSH1 0x1 PUSH1 0x40 SHL SUB DUP4 AND OR SWAP1 SSTORE PUSH32 0x7D84A6263AE0D98D3329BD7B46BB4E8D6F98CD35A7ADB45C274C8B7FD5EBD5E0 DUP5 CALLER DUP12 DUP12 DUP14 MLOAD PUSH1 0x1 PUSH1 0x1 PUSH1 0x40 SHL SUB DUP2 GT ISZERO PUSH2 0xBE1 JUMPI PUSH2 0xBE1 PUSH2 0x197E JUMP JUMPDEST PUSH1 0x40 MLOAD SWAP1 DUP1 DUP3 MSTORE DUP1 PUSH1 0x20 MUL PUSH1 0x20 ADD DUP3 ADD PUSH1 0x40 MSTORE DUP1 ISZERO PUSH2 0xC14 JUMPI DUP2 PUSH1 0x20 ADD JUMPDEST PUSH1 0x60 DUP2 MSTORE PUSH1 0x20 ADD SWAP1 PUSH1 0x1 SWAP1 SUB SWAP1 DUP2 PUSH2 0xBFF JUMPI SWAP1 POP JUMPDEST POP DUP13 DUP9 DUP9 DUP15 PUSH1 0x40 MLOAD PUSH2 0xC2E SWAP10 SWAP9 SWAP8 SWAP7 SWAP6 SWAP5 SWAP4 SWAP3 SWAP2 SWAP1 PUSH2 0x20AF JUMP JUMPDEST PUSH1 0x40 MLOAD DUP1 SWAP2 SUB SWAP1 LOG1 POP SWAP2 SWAP8 SWAP7 POP POP POP POP POP POP POP JUMP JUMPDEST PUSH1 0x0 DUP2 DUP2 MSTORE PUSH1 0x1 PUSH1 0x20 DUP2 DUP2 MSTORE PUSH1 0x40 DUP1 DUP5 KECCAK256 DUP2 MLOAD SWAP3 DUP4 ADD SWAP1 SWAP2 MSTORE SWAP1 SWAP2 ADD SLOAD PUSH1 0x1 PUSH1 0x1 PUSH1 0x40 SHL SUB AND SWAP1 DUP2 SWAP1 MSTORE PUSH2 0x732 JUMP JUMPDEST CALLER ADDRESS EQ PUSH2 0xCC1 JUMPI PUSH1 0x40 MLOAD PUSH3 0x461BCD PUSH1 0xE5 SHL DUP2 MSTORE PUSH1 0x20 PUSH1 0x4 DUP3 ADD MSTORE PUSH1 0x18 PUSH1 0x24 DUP3 ADD MSTORE PUSH32 0x476F7665726E6F723A206F6E6C79476F7665726E616E63650000000000000000 PUSH1 0x44 DUP3 ADD MSTORE PUSH1 0x64 ADD PUSH2 0x699 JUMP JUMPDEST PUSH2 0xD03 DUP5 DUP4 DUP4 DUP1 DUP1 PUSH1 0x1F ADD PUSH1 0x20 DUP1 SWAP2 DIV MUL PUSH1 0x20 ADD PUSH1 0x40 MLOAD SWAP1 DUP2 ADD PUSH1 0x40 MSTORE DUP1 SWAP4 SWAP3 SWAP2 SWAP1 DUP2 DUP2 MSTORE PUSH1 0x20 ADD DUP4 DUP4 DUP1 DUP3 DUP5 CALLDATACOPY PUSH1 0x0 SWAP3 ADD SWAP2 SWAP1 SWAP2 MSTORE POP DUP9 SWAP3 POP PUSH2 0x118F SWAP2 POP POP JUMP JUMPDEST POP POP POP POP POP JUMP JUMPDEST PUSH1 0x0 DUP5 DUP5 DUP5 DUP5 PUSH1 0x40 MLOAD PUSH1 0x20 ADD PUSH2 0xD23 SWAP5 SWAP4 SWAP3 SWAP2 SWAP1 PUSH2 0x219E JUMP JUMPDEST PUSH1 0x40 DUP1 MLOAD PUSH1 0x1F NOT DUP2 DUP5 SUB ADD DUP2 MSTORE SWAP2 SWAP1 MSTORE DUP1 MLOAD PUSH1 0x20 SWAP1 SWAP2 ADD KECCAK256 SWAP6 SWAP5 POP POP POP POP POP JUMP JUMPDEST PUSH1 0x0 PUSH2 0xD50 DUP4 DUP4 PUSH2 0x11B5 JUMP JUMPDEST SWAP4 SWAP3 POP POP POP JUMP JUMPDEST PUSH1 0x0 PUSH1 0x40 MLOAD DUP1 PUSH1 0x60 ADD PUSH1 0x40 MSTORE DUP1 PUSH1 0x27 DUP2 MSTORE PUSH1 0x20 ADD PUSH2 0x2289 PUSH1 0x27 SWAP2 CODECOPY SWAP1 POP PUSH1 0x0 JUMPDEST DUP6 MLOAD DUP2 LT ISZERO PUSH2 0xE4D JUMPI PUSH1 0x0 DUP1 DUP8 DUP4 DUP2 MLOAD DUP2 LT PUSH2 0xD95 JUMPI PUSH2 0xD95 PUSH2 0x21E9 JUMP JUMPDEST PUSH1 0x20 MUL PUSH1 0x20 ADD ADD MLOAD PUSH1 0x1 PUSH1 0x1 PUSH1 0xA0 SHL SUB AND DUP8 DUP5 DUP2 MLOAD DUP2 LT PUSH2 0xDB8 JUMPI PUSH2 0xDB8 PUSH2 0x21E9 JUMP JUMPDEST PUSH1 0x20 MUL PUSH1 0x20 ADD ADD MLOAD DUP8 DUP6 DUP2 MLOAD DUP2 LT PUSH2 0xDD2 JUMPI PUSH2 0xDD2 PUSH2 0x21E9 JUMP JUMPDEST PUSH1 0x20 MUL PUSH1 0x20 ADD ADD MLOAD PUSH1 0x40 MLOAD PUSH2 0xDE7 SWAP2 SWAP1 PUSH2 0x21FF JUMP JUMPDEST PUSH1 0x0 PUSH1 0x40 MLOAD DUP1 DUP4 SUB DUP2 DUP6 DUP8 GAS CALL SWAP3 POP POP POP RETURNDATASIZE DUP1 PUSH1 0x0 DUP2 EQ PUSH2 0xE24 JUMPI PUSH1 0x40 MLOAD SWAP2 POP PUSH1 0x1F NOT PUSH1 0x3F RETURNDATASIZE ADD AND DUP3 ADD PUSH1 0x40 MSTORE RETURNDATASIZE DUP3 MSTORE RETURNDATASIZE PUSH1 0x0 PUSH1 0x20 DUP5 ADD RETURNDATACOPY PUSH2 0xE29 JUMP JUMPDEST PUSH1 0x60 SWAP2 POP JUMPDEST POP SWAP2 POP SWAP2 POP PUSH2 0xE39 DUP3 DUP3 DUP7 PUSH2 0x124B JUMP JUMPDEST POP POP POP DUP1 PUSH2 0xE46 SWAP1 PUSH2 0x221B JUMP JUMPDEST SWAP1 POP PUSH2 0xD77 JUMP JUMPDEST POP POP POP POP POP POP POP JUMP JUMPDEST PUSH1 0x0 PUSH2 0x560 PUSH2 0xE63 PUSH2 0x1284 JUMP JUMPDEST DUP4 PUSH1 0x40 MLOAD PUSH2 0x1901 PUSH1 0xF0 SHL PUSH1 0x20 DUP3 ADD MSTORE PUSH1 0x22 DUP2 ADD DUP4 SWAP1 MSTORE PUSH1 0x42 DUP2 ADD DUP3 SWAP1 MSTORE PUSH1 0x0 SWAP1 PUSH1 0x62 ADD PUSH1 0x40 MLOAD PUSH1 0x20 DUP2 DUP4 SUB SUB DUP2 MSTORE SWAP1 PUSH1 0x40 MSTORE DUP1 MLOAD SWAP1 PUSH1 0x20 ADD KECCAK256 SWAP1 POP SWAP3 SWAP2 POP POP JUMP JUMPDEST PUSH1 0x0 DUP1 PUSH1 0x0 PUSH2 0xEB5 DUP8 DUP8 DUP8 DUP8 PUSH2 0x13AB JUMP JUMPDEST SWAP2 POP SWAP2 POP PUSH2 0x700 DUP2 PUSH2 0x1498 JUMP JUMPDEST PUSH1 0x0 DUP5 DUP2 MSTORE PUSH1 0x1 PUSH1 0x20 DUP2 SWAP1 MSTORE PUSH1 0x40 DUP3 KECCAK256 SWAP1 PUSH2 0xEDC DUP8 PUSH2 0x7D5 JUMP JUMPDEST PUSH1 0x7 DUP2 GT ISZERO PUSH2 0xEED JUMPI PUSH2 0xEED PUSH2 0x1CC2 JUMP JUMPDEST EQ PUSH2 0xF46 JUMPI PUSH1 0x40 MLOAD PUSH3 0x461BCD PUSH1 0xE5 SHL DUP2 MSTORE PUSH1 0x20 PUSH1 0x4 DUP3 ADD MSTORE PUSH1 0x23 PUSH1 0x24 DUP3 ADD MSTORE PUSH32 0x476F7665726E6F723A20766F7465206E6F742063757272656E746C7920616374 PUSH1 0x44 DUP3 ADD MSTORE PUSH3 0x697665 PUSH1 0xE8 SHL PUSH1 0x64 DUP3 ADD MSTORE PUSH1 0x84 ADD PUSH2 0x699 JUMP JUMPDEST PUSH1 0x40 DUP1 MLOAD PUSH1 0x20 DUP2 ADD SWAP1 SWAP2 MSTORE DUP2 SLOAD PUSH1 0x1 PUSH1 0x1 PUSH1 0x40 SHL SUB AND SWAP1 DUP2 SWAP1 MSTORE PUSH1 0x0 SWAP1 PUSH2 0xF6E SWAP1 DUP8 SWAP1 PUSH2 0xD44 JUMP JUMPDEST SWAP1 POP PUSH2 0xF7C DUP8 DUP8 DUP8 DUP5 PUSH2 0x1651 JUMP JUMPDEST DUP6 PUSH1 0x1 PUSH1 0x1 PUSH1 0xA0 SHL SUB AND PUSH32 0xB8E138887D0AA13BAB447E82DE9D5C1777041ECD21CA36BA824FF1E6C07DDDA4 DUP9 DUP8 DUP5 DUP9 PUSH1 0x40 MLOAD PUSH2 0xFBB SWAP5 SWAP4 SWAP3 SWAP2 SWAP1 PUSH2 0x2234 JUMP JUMPDEST PUSH1 0x40 MLOAD DUP1 SWAP2 SUB SWAP1 LOG2 SWAP7 SWAP6 POP POP POP POP POP POP JUMP JUMPDEST PUSH1 0x0 DUP2 DUP2 MSTORE PUSH1 0x2 PUSH1 0x20 DUP2 SWAP1 MSTORE PUSH1 0x40 DUP3 KECCAK256 SWAP1 DUP2 ADD SLOAD PUSH1 0x1 DUP3 ADD SLOAD PUSH2 0xFF0 SWAP2 SWAP1 PUSH2 0x225C JUMP JUMPDEST PUSH2 0xFFC PUSH2 0x4DD DUP6 PUSH2 0x70A JUMP JUMPDEST GT ISZERO SWAP4 SWAP3 POP POP POP JUMP JUMPDEST PUSH1 0x0 DUP1 PUSH2 0x1014 DUP7 DUP7 DUP7 DUP7 PUSH2 0xD0A JUMP JUMPDEST SWAP1 POP PUSH1 0x0 PUSH2 0x1021 DUP3 PUSH2 0x7D5 JUMP JUMPDEST SWAP1 POP PUSH1 0x2 DUP2 PUSH1 0x7 DUP2 GT ISZERO PUSH2 0x1037 JUMPI PUSH2 0x1037 PUSH2 0x1CC2 JUMP JUMPDEST EQ ISZERO DUP1 ISZERO PUSH2 0x1057 JUMPI POP PUSH1 0x6 DUP2 PUSH1 0x7 DUP2 GT ISZERO PUSH2 0x1054 JUMPI PUSH2 0x1054 PUSH2 0x1CC2 JUMP JUMPDEST EQ ISZERO JUMPDEST DUP1 ISZERO PUSH2 0x1075 JUMPI POP PUSH1 0x7 DUP2 PUSH1 0x7 DUP2 GT ISZERO PUSH2 0x1072 JUMPI PUSH2 0x1072 PUSH2 0x1CC2 JUMP JUMPDEST EQ ISZERO JUMPDEST PUSH2 0x10C1 JUMPI PUSH1 0x40 MLOAD PUSH3 0x461BCD PUSH1 0xE5 SHL DUP2 MSTORE PUSH1 0x20 PUSH1 0x4 DUP3 ADD MSTORE PUSH1 0x1D PUSH1 0x24 DUP3 ADD MSTORE PUSH32 0x476F7665726E6F723A2070726F706F73616C206E6F7420616374697665000000 PUSH1 0x44 DUP3 ADD MSTORE PUSH1 0x64 ADD PUSH2 0x699 JUMP JUMPDEST PUSH1 0x0 DUP3 DUP2 MSTORE PUSH1 0x1 PUSH1 0x20 MSTORE PUSH1 0x40 SWAP1 DUP2 SWAP1 KECCAK256 PUSH1 0x2 ADD DUP1 SLOAD PUSH2 0xFF00 NOT AND PUSH2 0x100 OR SWAP1 SSTORE MLOAD PUSH32 0x789CF55BE980739DAD1D0699B93B58E806B51C9D96619BFA8FE0A28ABAA7B30C SWAP1 PUSH2 0x1111 SWAP1 DUP5 DUP2 MSTORE PUSH1 0x20 ADD SWAP1 JUMP JUMPDEST PUSH1 0x40 MLOAD DUP1 SWAP2 SUB SWAP1 LOG1 POP SWAP6 SWAP5 POP POP POP POP POP JUMP JUMPDEST PUSH1 0x0 PUSH1 0x1 PUSH1 0x1 PUSH1 0x40 SHL SUB DUP3 GT ISZERO PUSH2 0x118B JUMPI PUSH1 0x40 MLOAD PUSH3 0x461BCD PUSH1 0xE5 SHL DUP2 MSTORE PUSH1 0x20 PUSH1 0x4 DUP3 ADD MSTORE PUSH1 0x26 PUSH1 0x24 DUP3 ADD MSTORE PUSH32 0x53616665436173743A2076616C756520646F65736E27742066697420696E2036 PUSH1 0x44 DUP3 ADD MSTORE PUSH6 0x342062697473 PUSH1 0xD0 SHL PUSH1 0x64 DUP3 ADD MSTORE PUSH1 0x84 ADD PUSH2 0x699 JUMP JUMPDEST POP SWAP1 JUMP JUMPDEST PUSH1 0x60 PUSH2 0x91C DUP5 DUP5 DUP5 PUSH1 0x40 MLOAD DUP1 PUSH1 0x60 ADD PUSH1 0x40 MSTORE DUP1 PUSH1 0x29 DUP2 MSTORE PUSH1 0x20 ADD PUSH2 0x22B0 PUSH1 0x29 SWAP2 CODECOPY PUSH2 0x17CB JUMP JUMPDEST PUSH1 0x40 MLOAD PUSH4 0x748D635 PUSH1 0xE3 SHL DUP2 MSTORE PUSH1 0x1 PUSH1 0x1 PUSH1 0xA0 SHL SUB DUP4 DUP2 AND PUSH1 0x4 DUP4 ADD MSTORE PUSH1 0x24 DUP3 ADD DUP4 SWAP1 MSTORE PUSH1 0x0 SWAP2 PUSH32 0x0 SWAP1 SWAP2 AND SWAP1 PUSH4 0x3A46B1A8 SWAP1 PUSH1 0x44 ADD PUSH1 0x20 PUSH1 0x40 MLOAD DUP1 DUP4 SUB DUP2 DUP7 GAS STATICCALL ISZERO DUP1 ISZERO PUSH2 0x1227 JUMPI RETURNDATASIZE PUSH1 0x0 DUP1 RETURNDATACOPY RETURNDATASIZE PUSH1 0x0 REVERT JUMPDEST POP POP POP POP PUSH1 0x40 MLOAD RETURNDATASIZE PUSH1 0x1F NOT PUSH1 0x1F DUP3 ADD AND DUP3 ADD DUP1 PUSH1 0x40 MSTORE POP DUP2 ADD SWAP1 PUSH2 0xD50 SWAP2 SWAP1 PUSH2 0x226F JUMP JUMPDEST PUSH1 0x60 DUP4 ISZERO PUSH2 0x125A JUMPI POP DUP2 PUSH2 0xD50 JUMP JUMPDEST DUP3 MLOAD ISZERO PUSH2 0x126A JUMPI DUP3 MLOAD DUP1 DUP5 PUSH1 0x20 ADD REVERT JUMPDEST DUP2 PUSH1 0x40 MLOAD PUSH3 0x461BCD PUSH1 0xE5 SHL DUP2 MSTORE PUSH1 0x4 ADD PUSH2 0x699 SWAP2 SWAP1 PUSH2 0x196B JUMP JUMPDEST PUSH1 0x0 ADDRESS PUSH1 0x1 PUSH1 0x1 PUSH1 0xA0 SHL SUB PUSH32 0x0 AND EQ DUP1 ISZERO PUSH2 0x12DD JUMPI POP PUSH32 0x0 CHAINID EQ JUMPDEST ISZERO PUSH2 0x1307 JUMPI POP PUSH32 0x0 SWAP1 JUMP JUMPDEST POP PUSH1 0x40 DUP1 MLOAD PUSH32 0x0 PUSH1 0x20 DUP1 DUP4 ADD SWAP2 SWAP1 SWAP2 MSTORE PUSH32 0x0 DUP3 DUP5 ADD MSTORE PUSH32 0x0 PUSH1 0x60 DUP4 ADD MSTORE CHAINID PUSH1 0x80 DUP4 ADD MSTORE ADDRESS PUSH1 0xA0 DUP1 DUP5 ADD SWAP2 SWAP1 SWAP2 MSTORE DUP4 MLOAD DUP1 DUP5 SUB SWAP1 SWAP2 ADD DUP2 MSTORE PUSH1 0xC0 SWAP1 SWAP3 ADD SWAP1 SWAP3 MSTORE DUP1 MLOAD SWAP2 ADD KECCAK256 SWAP1 JUMP JUMPDEST PUSH1 0x0 DUP1 PUSH32 0x7FFFFFFFFFFFFFFFFFFFFFFFFFFFFFFF5D576E7357A4501DDFE92F46681B20A0 DUP4 GT ISZERO PUSH2 0x13E2 JUMPI POP PUSH1 0x0 SWAP1 POP PUSH1 0x3 PUSH2 0x148F JUMP JUMPDEST DUP5 PUSH1 0xFF AND PUSH1 0x1B EQ ISZERO DUP1 ISZERO PUSH2 0x13FA JUMPI POP DUP5 PUSH1 0xFF AND PUSH1 0x1C EQ ISZERO JUMPDEST ISZERO PUSH2 0x140B JUMPI POP PUSH1 0x0 SWAP1 POP PUSH1 0x4 PUSH2 0x148F JUMP JUMPDEST PUSH1 0x40 DUP1 MLOAD PUSH1 0x0 DUP1 DUP3 MSTORE PUSH1 0x20 DUP3 ADD DUP1 DUP5 MSTORE DUP10 SWAP1 MSTORE PUSH1 0xFF DUP9 AND SWAP3 DUP3 ADD SWAP3 SWAP1 SWAP3 MSTORE PUSH1 0x60 DUP2 ADD DUP7 SWAP1 MSTORE PUSH1 0x80 DUP2 ADD DUP6 SWAP1 MSTORE PUSH1 0x1 SWAP1 PUSH1 0xA0 ADD PUSH1 0x20 PUSH1 0x40 MLOAD PUSH1 0x20 DUP2 SUB SWAP1 DUP1 DUP5 SUB SWAP1 DUP6 GAS STATICCALL ISZERO DUP1 ISZERO PUSH2 0x145F JUMPI RETURNDATASIZE PUSH1 0x0 DUP1 RETURNDATACOPY RETURNDATASIZE PUSH1 0x0 REVERT JUMPDEST POP POP PUSH1 0x40 MLOAD PUSH1 0x1F NOT ADD MLOAD SWAP2 POP POP PUSH1 0x1 PUSH1 0x1 PUSH1 0xA0 SHL SUB DUP2 AND PUSH2 0x1488 JUMPI PUSH1 0x0 PUSH1 0x1 SWAP3 POP SWAP3 POP POP PUSH2 0x148F JUMP JUMPDEST SWAP2 POP PUSH1 0x0 SWAP1 POP JUMPDEST SWAP5 POP SWAP5 SWAP3 POP POP POP JUMP JUMPDEST PUSH1 0x0 DUP2 PUSH1 0x4 DUP2 GT ISZERO PUSH2 0x14AC JUMPI PUSH2 0x14AC PUSH2 0x1CC2 JUMP JUMPDEST SUB PUSH2 0x14B4 JUMPI POP JUMP JUMPDEST PUSH1 0x1 DUP2 PUSH1 0x4 DUP2 GT ISZERO PUSH2 0x14C8 JUMPI PUSH2 0x14C8 PUSH2 0x1CC2 JUMP JUMPDEST SUB PUSH2 0x1515 JUMPI PUSH1 0x40 MLOAD PUSH3 0x461BCD PUSH1 0xE5 SHL DUP2 MSTORE PUSH1 0x20 PUSH1 0x4 DUP3 ADD MSTORE PUSH1 0x18 PUSH1 0x24 DUP3 ADD MSTORE PUSH32 0x45434453413A20696E76616C6964207369676E61747572650000000000000000 PUSH1 0x44 DUP3 ADD MSTORE PUSH1 0x64 ADD PUSH2 0x699 JUMP JUMPDEST PUSH1 0x2 DUP2 PUSH1 0x4 DUP2 GT ISZERO PUSH2 0x1529 JUMPI PUSH2 0x1529 PUSH2 0x1CC2 JUMP JUMPDEST SUB PUSH2 0x1576 JUMPI PUSH1 0x40 MLOAD PUSH3 0x461BCD PUSH1 0xE5 SHL DUP2 MSTORE PUSH1 0x20 PUSH1 0x4 DUP3 ADD MSTORE PUSH1 0x1F PUSH1 0x24 DUP3 ADD MSTORE PUSH32 0x45434453413A20696E76616C6964207369676E6174757265206C656E67746800 PUSH1 0x44 DUP3 ADD MSTORE PUSH1 0x64 ADD PUSH2 0x699 JUMP JUMPDEST PUSH1 0x3 DUP2 PUSH1 0x4 DUP2 GT ISZERO PUSH2 0x158A JUMPI PUSH2 0x158A PUSH2 0x1CC2 JUMP JUMPDEST SUB PUSH2 0x15E2 JUMPI PUSH1 0x40 MLOAD PUSH3 0x461BCD PUSH1 0xE5 SHL DUP2 MSTORE PUSH1 0x20 PUSH1 0x4 DUP3 ADD MSTORE PUSH1 0x22 PUSH1 0x24 DUP3 ADD MSTORE PUSH32 0x45434453413A20696E76616C6964207369676E6174757265202773272076616C PUSH1 0x44 DUP3 ADD MSTORE PUSH2 0x7565 PUSH1 0xF0 SHL PUSH1 0x64 DUP3 ADD MSTORE PUSH1 0x84 ADD PUSH2 0x699 JUMP JUMPDEST PUSH1 0x4 DUP2 PUSH1 0x4 DUP2 GT ISZERO PUSH2 0x15F6 JUMPI PUSH2 0x15F6 PUSH2 0x1CC2 JUMP JUMPDEST SUB PUSH2 0x164E JUMPI PUSH1 0x40 MLOAD PUSH3 0x461BCD PUSH1 0xE5 SHL DUP2 MSTORE PUSH1 0x20 PUSH1 0x4 DUP3 ADD MSTORE PUSH1 0x22 PUSH1 0x24 DUP3 ADD MSTORE PUSH32 0x45434453413A20696E76616C6964207369676E6174757265202776272076616C PUSH1 0x44 DUP3 ADD MSTORE PUSH2 0x7565 PUSH1 0xF0 SHL PUSH1 0x64 DUP3 ADD MSTORE PUSH1 0x84 ADD PUSH2 0x699 JUMP JUMPDEST POP JUMP JUMPDEST PUSH1 0x0 DUP5 DUP2 MSTORE PUSH1 0x2 PUSH1 0x20 SWAP1 DUP2 MSTORE PUSH1 0x40 DUP1 DUP4 KECCAK256 PUSH1 0x1 PUSH1 0x1 PUSH1 0xA0 SHL SUB DUP8 AND DUP5 MSTORE PUSH1 0x3 DUP2 ADD SWAP1 SWAP3 MSTORE SWAP1 SWAP2 KECCAK256 SLOAD PUSH1 0xFF AND ISZERO PUSH2 0x16D9 JUMPI PUSH1 0x40 MLOAD PUSH3 0x461BCD PUSH1 0xE5 SHL DUP2 MSTORE PUSH1 0x20 PUSH1 0x4 DUP3 ADD MSTORE PUSH1 0x27 PUSH1 0x24 DUP3 ADD MSTORE PUSH32 0x476F7665726E6F72566F74696E6753696D706C653A20766F746520616C726561 PUSH1 0x44 DUP3 ADD MSTORE PUSH7 0x191E4818D85CDD PUSH1 0xCA SHL PUSH1 0x64 DUP3 ADD MSTORE PUSH1 0x84 ADD PUSH2 0x699 JUMP JUMPDEST PUSH1 0x1 PUSH1 0x1 PUSH1 0xA0 SHL SUB DUP5 AND PUSH1 0x0 SWAP1 DUP2 MSTORE PUSH1 0x3 DUP3 ADD PUSH1 0x20 MSTORE PUSH1 0x40 SWAP1 KECCAK256 DUP1 SLOAD PUSH1 0xFF NOT AND PUSH1 0x1 OR SWAP1 SSTORE PUSH1 0xFF DUP4 AND PUSH2 0x1725 JUMPI DUP2 DUP2 PUSH1 0x0 ADD PUSH1 0x0 DUP3 DUP3 SLOAD PUSH2 0x171A SWAP2 SWAP1 PUSH2 0x225C JUMP JUMPDEST SWAP1 SWAP2 SSTORE POP PUSH2 0xD03 SWAP1 POP JUMP JUMPDEST PUSH1 0x0 NOT PUSH1 0xFF DUP5 AND ADD PUSH2 0x1745 JUMPI DUP2 DUP2 PUSH1 0x1 ADD PUSH1 0x0 DUP3 DUP3 SLOAD PUSH2 0x171A SWAP2 SWAP1 PUSH2 0x225C JUMP JUMPDEST PUSH1 0x1 NOT PUSH1 0xFF DUP5 AND ADD PUSH2 0x1765 JUMPI DUP2 DUP2 PUSH1 0x2 ADD PUSH1 0x0 DUP3 DUP3 SLOAD PUSH2 0x171A SWAP2 SWAP1 PUSH2 0x225C JUMP JUMPDEST PUSH1 0x40 MLOAD PUSH3 0x461BCD PUSH1 0xE5 SHL DUP2 MSTORE PUSH1 0x20 PUSH1 0x4 DUP3 ADD MSTORE PUSH1 0x35 PUSH1 0x24 DUP3 ADD MSTORE PUSH32 0x476F7665726E6F72566F74696E6753696D706C653A20696E76616C6964207661 PUSH1 0x44 DUP3 ADD MSTORE PUSH21 0x6C756520666F7220656E756D20566F746554797065 PUSH1 0x58 SHL PUSH1 0x64 DUP3 ADD MSTORE PUSH1 0x84 ADD PUSH2 0x699 JUMP JUMPDEST PUSH1 0x60 DUP3 SELFBALANCE LT ISZERO PUSH2 0x182C JUMPI PUSH1 0x40 MLOAD PUSH3 0x461BCD PUSH1 0xE5 SHL DUP2 MSTORE PUSH1 0x20 PUSH1 0x4 DUP3 ADD MSTORE PUSH1 0x26 PUSH1 0x24 DUP3 ADD MSTORE PUSH32 0x416464726573733A20696E73756666696369656E742062616C616E636520666F PUSH1 0x44 DUP3 ADD MSTORE PUSH6 0x1C8818D85B1B PUSH1 0xD2 SHL PUSH1 0x64 DUP3 ADD MSTORE PUSH1 0x84 ADD PUSH2 0x699 JUMP JUMPDEST PUSH1 0x1 PUSH1 0x1 PUSH1 0xA0 SHL SUB DUP6 AND EXTCODESIZE PUSH2 0x1883 JUMPI PUSH1 0x40 MLOAD PUSH3 0x461BCD PUSH1 0xE5 SHL DUP2 MSTORE PUSH1 0x20 PUSH1 0x4 DUP3 ADD MSTORE PUSH1 0x1D PUSH1 0x24 DUP3 ADD MSTORE PUSH32 0x416464726573733A2063616C6C20746F206E6F6E2D636F6E7472616374000000 PUSH1 0x44 DUP3 ADD MSTORE PUSH1 0x64 ADD PUSH2 0x699 JUMP JUMPDEST PUSH1 0x0 DUP1 DUP7 PUSH1 0x1 PUSH1 0x1 PUSH1 0xA0 SHL SUB AND DUP6 DUP8 PUSH1 0x40 MLOAD PUSH2 0x189F SWAP2 SWAP1 PUSH2 0x21FF JUMP JUMPDEST PUSH1 0x0 PUSH1 0x40 MLOAD DUP1 DUP4 SUB DUP2 DUP6 DUP8 GAS CALL SWAP3 POP POP POP RETURNDATASIZE DUP1 PUSH1 0x0 DUP2 EQ PUSH2 0x18DC JUMPI PUSH1 0x40 MLOAD SWAP2 POP PUSH1 0x1F NOT PUSH1 0x3F RETURNDATASIZE ADD AND DUP3 ADD PUSH1 0x40 MSTORE RETURNDATASIZE DUP3 MSTORE RETURNDATASIZE PUSH1 0x0 PUSH1 0x20 DUP5 ADD RETURNDATACOPY PUSH2 0x18E1 JUMP JUMPDEST PUSH1 0x60 SWAP2 POP JUMPDEST POP SWAP2 POP SWAP2 POP PUSH2 0x7CA DUP3 DUP3 DUP7 PUSH2 0x124B JUMP JUMPDEST PUSH1 0x0 PUSH1 0x20 DUP3 DUP5 SUB SLT ISZERO PUSH2 0x1903 JUMPI PUSH1 0x0 DUP1 REVERT JUMPDEST DUP2 CALLDATALOAD PUSH1 0x1 PUSH1 0x1 PUSH1 0xE0 SHL SUB NOT DUP2 AND DUP2 EQ PUSH2 0xD50 JUMPI PUSH1 0x0 DUP1 REVERT JUMPDEST PUSH1 0x0 JUMPDEST DUP4 DUP2 LT ISZERO PUSH2 0x1936 JUMPI DUP2 DUP2 ADD MLOAD DUP4 DUP3 ADD MSTORE PUSH1 0x20 ADD PUSH2 0x191E JUMP JUMPDEST POP POP PUSH1 0x0 SWAP2 ADD MSTORE JUMP JUMPDEST PUSH1 0x0 DUP2 MLOAD DUP1 DUP5 MSTORE PUSH2 0x1957 DUP2 PUSH1 0x20 DUP7 ADD PUSH1 0x20 DUP7 ADD PUSH2 0x191B JUMP JUMPDEST PUSH1 0x1F ADD PUSH1 0x1F NOT AND SWAP3 SWAP1 SWAP3 ADD PUSH1 0x20 ADD SWAP3 SWAP2 POP POP JUMP JUMPDEST PUSH1 0x20 DUP2 MSTORE PUSH1 0x0 PUSH2 0xD50 PUSH1 0x20 DUP4 ADD DUP5 PUSH2 0x193F JUMP JUMPDEST PUSH4 0x4E487B71 PUSH1 0xE0 SHL PUSH1 0x0 MSTORE PUSH1 0x41 PUSH1 0x4 MSTORE PUSH1 0x24 PUSH1 0x0 REVERT JUMPDEST PUSH1 0x40 MLOAD PUSH1 0x1F DUP3 ADD PUSH1 0x1F NOT AND DUP2 ADD PUSH1 0x1 PUSH1 0x1 PUSH1 0x40 SHL SUB DUP2 GT DUP3 DUP3 LT OR ISZERO PUSH2 0x19BC JUMPI PUSH2 0x19BC PUSH2 0x197E JUMP JUMPDEST PUSH1 0x40 MSTORE SWAP2 SWAP1 POP JUMP JUMPDEST PUSH1 0x0 PUSH1 0x1 PUSH1 0x1 PUSH1 0x40 SHL SUB DUP3 GT ISZERO PUSH2 0x19DD JUMPI PUSH2 0x19DD PUSH2 0x197E JUMP JUMPDEST POP PUSH1 0x5 SHL PUSH1 0x20 ADD SWAP1 JUMP JUMPDEST DUP1 CALLDATALOAD PUSH1 0x1 PUSH1 0x1 PUSH1 0xA0 SHL SUB DUP2 AND DUP2 EQ PUSH2 0x19FE JUMPI PUSH1 0x0 DUP1 REVERT JUMPDEST SWAP2 SWAP1 POP JUMP JUMPDEST PUSH1 0x0 DUP3 PUSH1 0x1F DUP4 ADD SLT PUSH2 0x1A14 JUMPI PUSH1 0x0 DUP1 REVERT JUMPDEST DUP2 CALLDATALOAD PUSH1 0x20 PUSH2 0x1A29 PUSH2 0x1A24 DUP4 PUSH2 0x19C4 JUMP JUMPDEST PUSH2 0x1994 JUMP JUMPDEST DUP3 DUP2 MSTORE PUSH1 0x5 SWAP3 SWAP1 SWAP3 SHL DUP5 ADD DUP2 ADD SWAP2 DUP2 DUP2 ADD SWAP1 DUP7 DUP5 GT ISZERO PUSH2 0x1A48 JUMPI PUSH1 0x0 DUP1 REVERT JUMPDEST DUP3 DUP7 ADD JUMPDEST DUP5 DUP2 LT ISZERO PUSH2 0x1A6A JUMPI PUSH2 0x1A5D DUP2 PUSH2 0x19E7 JUMP JUMPDEST DUP4 MSTORE SWAP2 DUP4 ADD SWAP2 DUP4 ADD PUSH2 0x1A4C JUMP JUMPDEST POP SWAP7 SWAP6 POP POP POP POP POP POP JUMP JUMPDEST PUSH1 0x0 DUP3 PUSH1 0x1F DUP4 ADD SLT PUSH2 0x1A86 JUMPI PUSH1 0x0 DUP1 REVERT JUMPDEST DUP2 CALLDATALOAD PUSH1 0x20 PUSH2 0x1A96 PUSH2 0x1A24 DUP4 PUSH2 0x19C4 JUMP JUMPDEST DUP3 DUP2 MSTORE PUSH1 0x5 SWAP3 SWAP1 SWAP3 SHL DUP5 ADD DUP2 ADD SWAP2 DUP2 DUP2 ADD SWAP1 DUP7 DUP5 GT ISZERO PUSH2 0x1AB5 JUMPI PUSH1 0x0 DUP1 REVERT JUMPDEST DUP3 DUP7 ADD JUMPDEST DUP5 DUP2 LT ISZERO PUSH2 0x1A6A JUMPI DUP1 CALLDATALOAD DUP4 MSTORE SWAP2 DUP4 ADD SWAP2 DUP4 ADD PUSH2 0x1AB9 JUMP JUMPDEST PUSH1 0x0 PUSH1 0x1 PUSH1 0x1 PUSH1 0x40 SHL SUB DUP4 GT ISZERO PUSH2 0x1AE9 JUMPI PUSH2 0x1AE9 PUSH2 0x197E JUMP JUMPDEST PUSH2 0x1AFC PUSH1 0x1F DUP5 ADD PUSH1 0x1F NOT AND PUSH1 0x20 ADD PUSH2 0x1994 JUMP JUMPDEST SWAP1 POP DUP3 DUP2 MSTORE DUP4 DUP4 DUP4 ADD GT ISZERO PUSH2 0x1B10 JUMPI PUSH1 0x0 DUP1 REVERT JUMPDEST DUP3 DUP3 PUSH1 0x20 DUP4 ADD CALLDATACOPY PUSH1 0x0 PUSH1 0x20 DUP5 DUP4 ADD ADD MSTORE SWAP4 SWAP3 POP POP POP JUMP JUMPDEST PUSH1 0x0 DUP3 PUSH1 0x1F DUP4 ADD SLT PUSH2 0x1B38 JUMPI PUSH1 0x0 DUP1 REVERT JUMPDEST DUP2 CALLDATALOAD PUSH1 0x20 PUSH2 0x1B48 PUSH2 0x1A24 DUP4 PUSH2 0x19C4 JUMP JUMPDEST DUP3 DUP2 MSTORE PUSH1 0x5 SWAP3 SWAP1 SWAP3 SHL DUP5 ADD DUP2 ADD SWAP2 DUP2 DUP2 ADD SWAP1 DUP7 DUP5 GT ISZERO PUSH2 0x1B67 JUMPI PUSH1 0x0 DUP1 REVERT JUMPDEST DUP3 DUP7 ADD JUMPDEST DUP5 DUP2 LT ISZERO PUSH2 0x1A6A JUMPI DUP1 CALLDATALOAD PUSH1 0x1 PUSH1 0x1 PUSH1 0x40 SHL SUB DUP2 GT ISZERO PUSH2 0x1B8A JUMPI PUSH1 0x0 DUP1 DUP2 REVERT JUMPDEST DUP8 ADD PUSH1 0x3F DUP2 ADD DUP10 SGT PUSH2 0x1B9C JUMPI PUSH1 0x0 DUP1 DUP2 REVERT JUMPDEST PUSH2 0x1BAD DUP10 DUP7 DUP4 ADD CALLDATALOAD PUSH1 0x40 DUP5 ADD PUSH2 0x1AD0 JUMP JUMPDEST DUP5 MSTORE POP SWAP2 DUP4 ADD SWAP2 DUP4 ADD PUSH2 0x1B6B JUMP JUMPDEST PUSH1 0x0 DUP1 PUSH1 0x0 DUP1 PUSH1 0x80 DUP6 DUP8 SUB SLT ISZERO PUSH2 0x1BD1 JUMPI PUSH1 0x0 DUP1 REVERT JUMPDEST DUP5 CALLDATALOAD PUSH1 0x1 PUSH1 0x1 PUSH1 0x40 SHL SUB DUP1 DUP3 GT ISZERO PUSH2 0x1BE8 JUMPI PUSH1 0x0 DUP1 REVERT JUMPDEST PUSH2 0x1BF4 DUP9 DUP4 DUP10 ADD PUSH2 0x1A03 JUMP JUMPDEST SWAP6 POP PUSH1 0x20 DUP8 ADD CALLDATALOAD SWAP2 POP DUP1 DUP3 GT ISZERO PUSH2 0x1C0A JUMPI PUSH1 0x0 DUP1 REVERT JUMPDEST PUSH2 0x1C16 DUP9 DUP4 DUP10 ADD PUSH2 0x1A75 JUMP JUMPDEST SWAP5 POP PUSH1 0x40 DUP8 ADD CALLDATALOAD SWAP2 POP DUP1 DUP3 GT ISZERO PUSH2 0x1C2C JUMPI PUSH1 0x0 DUP1 REVERT JUMPDEST POP PUSH2 0x1C39 DUP8 DUP3 DUP9 ADD PUSH2 0x1B27 JUMP JUMPDEST SWAP5 SWAP8 SWAP4 SWAP7 POP SWAP4 SWAP5 PUSH1 0x60 ADD CALLDATALOAD SWAP4 POP POP POP JUMP JUMPDEST PUSH1 0x0 PUSH1 0x20 DUP3 DUP5 SUB SLT ISZERO PUSH2 0x1C5C JUMPI PUSH1 0x0 DUP1 REVERT JUMPDEST POP CALLDATALOAD SWAP2 SWAP1 POP JUMP JUMPDEST DUP1 CALLDATALOAD PUSH1 0xFF DUP2 AND DUP2 EQ PUSH2 0x19FE JUMPI PUSH1 0x0 DUP1 REVERT JUMPDEST PUSH1 0x0 DUP1 PUSH1 0x0 DUP1 PUSH1 0x0 PUSH1 0xA0 DUP7 DUP9 SUB SLT ISZERO PUSH2 0x1C8C JUMPI PUSH1 0x0 DUP1 REVERT JUMPDEST DUP6 CALLDATALOAD SWAP5 POP PUSH2 0x1C9C PUSH1 0x20 DUP8 ADD PUSH2 0x1C63 JUMP JUMPDEST SWAP4 POP PUSH2 0x1CAA PUSH1 0x40 DUP8 ADD PUSH2 0x1C63 JUMP JUMPDEST SWAP5 SWAP8 SWAP4 SWAP7 POP SWAP4 SWAP5 PUSH1 0x60 DUP2 ADD CALLDATALOAD SWAP5 POP PUSH1 0x80 ADD CALLDATALOAD SWAP3 SWAP2 POP POP JUMP JUMPDEST PUSH4 0x4E487B71 PUSH1 0xE0 SHL PUSH1 0x0 MSTORE PUSH1 0x21 PUSH1 0x4 MSTORE PUSH1 0x24 PUSH1 0x0 REVERT JUMPDEST PUSH1 0x20 DUP2 ADD PUSH1 0x8 DUP4 LT PUSH2 0x1CFA JUMPI PUSH4 0x4E487B71 PUSH1 0xE0 SHL PUSH1 0x0 MSTORE PUSH1 0x21 PUSH1 0x4 MSTORE PUSH1 0x24 PUSH1 0x0 REVERT JUMPDEST SWAP2 SWAP1 MSTORE SWAP1 JUMP JUMPDEST PUSH1 0x0 DUP1 PUSH1 0x40 DUP4 DUP6 SUB SLT ISZERO PUSH2 0x1D13 JUMPI PUSH1 0x0 DUP1 REVERT JUMPDEST DUP3 CALLDATALOAD SWAP2 POP PUSH2 0x1D23 PUSH1 0x20 DUP5 ADD PUSH2 0x19E7 JUMP JUMPDEST SWAP1 POP SWAP3 POP SWAP3 SWAP1 POP JUMP JUMPDEST PUSH1 0x0 DUP1 PUSH1 0x40 DUP4 DUP6 SUB SLT ISZERO PUSH2 0x1D3F JUMPI PUSH1 0x0 DUP1 REVERT JUMPDEST DUP3 CALLDATALOAD SWAP2 POP PUSH2 0x1D23 PUSH1 0x20 DUP5 ADD PUSH2 0x1C63 JUMP JUMPDEST PUSH1 0x0 DUP1 DUP4 PUSH1 0x1F DUP5 ADD SLT PUSH2 0x1D61 JUMPI PUSH1 0x0 DUP1 REVERT JUMPDEST POP DUP2 CALLDATALOAD PUSH1 0x1 PUSH1 0x1 PUSH1 0x40 SHL SUB DUP2 GT ISZERO PUSH2 0x1D78 JUMPI PUSH1 0x0 DUP1 REVERT JUMPDEST PUSH1 0x20 DUP4 ADD SWAP2 POP DUP4 PUSH1 0x20 DUP3 DUP6 ADD ADD GT ISZERO PUSH2 0x1D90 JUMPI PUSH1 0x0 DUP1 REVERT JUMPDEST SWAP3 POP SWAP3 SWAP1 POP JUMP JUMPDEST PUSH1 0x0 DUP1 PUSH1 0x0 DUP1 PUSH1 0x60 DUP6 DUP8 SUB SLT ISZERO PUSH2 0x1DAD JUMPI PUSH1 0x0 DUP1 REVERT JUMPDEST DUP5 CALLDATALOAD SWAP4 POP PUSH2 0x1DBD PUSH1 0x20 DUP7 ADD PUSH2 0x1C63 JUMP JUMPDEST SWAP3 POP PUSH1 0x40 DUP6 ADD CALLDATALOAD PUSH1 0x1 PUSH1 0x1 PUSH1 0x40 SHL SUB DUP2 GT ISZERO PUSH2 0x1DD8 JUMPI PUSH1 0x0 DUP1 REVERT JUMPDEST PUSH2 0x1DE4 DUP8 DUP3 DUP9 ADD PUSH2 0x1D4F JUMP JUMPDEST SWAP6 SWAP9 SWAP5 SWAP8 POP SWAP6 POP POP POP POP JUMP JUMPDEST PUSH1 0x0 DUP1 PUSH1 0x0 DUP1 PUSH1 0x80 DUP6 DUP8 SUB SLT ISZERO PUSH2 0x1E06 JUMPI PUSH1 0x0 DUP1 REVERT JUMPDEST DUP5 CALLDATALOAD PUSH1 0x1 PUSH1 0x1 PUSH1 0x40 SHL SUB DUP1 DUP3 GT ISZERO PUSH2 0x1E1D JUMPI PUSH1 0x0 DUP1 REVERT JUMPDEST PUSH2 0x1E29 DUP9 DUP4 DUP10 ADD PUSH2 0x1A03 JUMP JUMPDEST SWAP6 POP PUSH1 0x20 DUP8 ADD CALLDATALOAD SWAP2 POP DUP1 DUP3 GT ISZERO PUSH2 0x1E3F JUMPI PUSH1 0x0 DUP1 REVERT JUMPDEST PUSH2 0x1E4B DUP9 DUP4 DUP10 ADD PUSH2 0x1A75 JUMP JUMPDEST SWAP5 POP PUSH1 0x40 DUP8 ADD CALLDATALOAD SWAP2 POP DUP1 DUP3 GT ISZERO PUSH2 0x1E61 JUMPI PUSH1 0x0 DUP1 REVERT JUMPDEST PUSH2 0x1E6D DUP9 DUP4 DUP10 ADD PUSH2 0x1B27 JUMP JUMPDEST SWAP4 POP PUSH1 0x60 DUP8 ADD CALLDATALOAD SWAP2 POP DUP1 DUP3 GT ISZERO PUSH2 0x1E83 JUMPI PUSH1 0x0 DUP1 REVERT JUMPDEST POP DUP6 ADD PUSH1 0x1F DUP2 ADD DUP8 SGT PUSH2 0x1E95 JUMPI PUSH1 0x0 DUP1 REVERT JUMPDEST PUSH2 0x1EA4 DUP8 DUP3 CALLDATALOAD PUSH1 0x20 DUP5 ADD PUSH2 0x1AD0 JUMP JUMPDEST SWAP2 POP POP SWAP3 SWAP6 SWAP2 SWAP5 POP SWAP3 POP JUMP JUMPDEST PUSH1 0x0 DUP1 PUSH1 0x0 DUP1 PUSH1 0x60 DUP6 DUP8 SUB SLT ISZERO PUSH2 0x1EC6 JUMPI PUSH1 0x0 DUP1 REVERT JUMPDEST PUSH2 0x1ECF DUP6 PUSH2 0x19E7 JUMP JUMPDEST SWAP4 POP PUSH1 0x20 DUP6 ADD CALLDATALOAD SWAP3 POP PUSH1 0x40 DUP6 ADD CALLDATALOAD PUSH1 0x1 PUSH1 0x1 PUSH1 0x40 SHL SUB DUP2 GT ISZERO PUSH2 0x1DD8 JUMPI PUSH1 0x0 DUP1 REVERT JUMPDEST PUSH1 0x0 DUP1 PUSH1 0x40 DUP4 DUP6 SUB SLT ISZERO PUSH2 0x1F04 JUMPI PUSH1 0x0 DUP1 REVERT JUMPDEST PUSH2 0x1F0D DUP4 PUSH2 0x19E7 JUMP JUMPDEST SWAP5 PUSH1 0x20 SWAP4 SWAP1 SWAP4 ADD CALLDATALOAD SWAP4 POP POP POP JUMP JUMPDEST PUSH1 0x1 DUP2 DUP2 SHR SWAP1 DUP3 AND DUP1 PUSH2 0x1F2F JUMPI PUSH1 0x7F DUP3 AND SWAP2 POP JUMPDEST PUSH1 0x20 DUP3 LT DUP2 SUB PUSH2 0x1F4F JUMPI PUSH4 0x4E487B71 PUSH1 0xE0 SHL PUSH1 0x0 MSTORE PUSH1 0x22 PUSH1 0x4 MSTORE PUSH1 0x24 PUSH1 0x0 REVERT JUMPDEST POP SWAP2 SWAP1 POP JUMP JUMPDEST PUSH4 0x4E487B71 PUSH1 0xE0 SHL PUSH1 0x0 MSTORE PUSH1 0x11 PUSH1 0x4 MSTORE PUSH1 0x24 PUSH1 0x0 REVERT JUMPDEST DUP2 DUP2 SUB DUP2 DUP2 GT ISZERO PUSH2 0x560 JUMPI PUSH2 0x560 PUSH2 0x1F55 JUMP JUMPDEST PUSH1 0x20 DUP1 DUP3 MSTORE PUSH1 0x21 SWAP1 DUP3 ADD MSTORE PUSH32 0x476F7665726E6F723A20696E76616C69642070726F706F73616C206C656E6774 PUSH1 0x40 DUP3 ADD MSTORE PUSH1 0xD PUSH1 0xFB SHL PUSH1 0x60 DUP3 ADD MSTORE PUSH1 0x80 ADD SWAP1 JUMP JUMPDEST PUSH1 0x1 PUSH1 0x1 PUSH1 0x40 SHL SUB DUP2 DUP2 AND DUP4 DUP3 AND ADD SWAP1 DUP1 DUP3 GT ISZERO PUSH2 0x1FDF JUMPI PUSH2 0x1FDF PUSH2 0x1F55 JUMP JUMPDEST POP SWAP3 SWAP2 POP POP JUMP JUMPDEST PUSH1 0x0 DUP2 MLOAD DUP1 DUP5 MSTORE PUSH1 0x20 DUP1 DUP6 ADD SWAP5 POP DUP1 DUP5 ADD PUSH1 0x0 JUMPDEST DUP4 DUP2 LT ISZERO PUSH2 0x201F JUMPI DUP2 MLOAD PUSH1 0x1 PUSH1 0x1 PUSH1 0xA0 SHL SUB AND DUP8 MSTORE SWAP6 DUP3 ADD SWAP6 SWAP1 DUP3 ADD SWAP1 PUSH1 0x1 ADD PUSH2 0x1FFA JUMP JUMPDEST POP SWAP5 SWAP6 SWAP5 POP POP POP POP POP JUMP JUMPDEST PUSH1 0x0 DUP2 MLOAD DUP1 DUP5 MSTORE PUSH1 0x20 DUP1 DUP6 ADD SWAP5 POP DUP1 DUP5 ADD PUSH1 0x0 JUMPDEST DUP4 DUP2 LT ISZERO PUSH2 0x201F JUMPI DUP2 MLOAD DUP8 MSTORE SWAP6 DUP3 ADD SWAP6 SWAP1 DUP3 ADD SWAP1 PUSH1 0x1 ADD PUSH2 0x203E JUMP JUMPDEST PUSH1 0x0 DUP2 MLOAD DUP1 DUP5 MSTORE PUSH1 0x20 DUP1 DUP6 ADD DUP1 DUP2 SWAP7 POP DUP4 PUSH1 0x5 SHL DUP2 ADD SWAP2 POP DUP3 DUP7 ADD PUSH1 0x0 JUMPDEST DUP6 DUP2 LT ISZERO PUSH2 0x20A2 JUMPI DUP3 DUP5 SUB DUP10 MSTORE PUSH2 0x2090 DUP5 DUP4 MLOAD PUSH2 0x193F JUMP JUMPDEST SWAP9 DUP6 ADD SWAP9 SWAP4 POP SWAP1 DUP5 ADD SWAP1 PUSH1 0x1 ADD PUSH2 0x2078 JUMP JUMPDEST POP SWAP2 SWAP8 SWAP7 POP POP POP POP POP POP POP JUMP JUMPDEST PUSH1 0x0 PUSH2 0x120 DUP12 DUP4 MSTORE PUSH1 0x20 PUSH1 0x1 DUP1 PUSH1 0xA0 SHL SUB DUP13 AND DUP2 DUP6 ADD MSTORE DUP2 PUSH1 0x40 DUP6 ADD MSTORE PUSH2 0x20D8 DUP3 DUP6 ADD DUP13 PUSH2 0x1FE6 JUMP JUMPDEST SWAP2 POP DUP4 DUP3 SUB PUSH1 0x60 DUP6 ADD MSTORE PUSH2 0x20EC DUP3 DUP12 PUSH2 0x202A JUMP JUMPDEST SWAP2 POP DUP4 DUP3 SUB PUSH1 0x80 DUP6 ADD MSTORE DUP2 DUP10 MLOAD DUP1 DUP5 MSTORE DUP3 DUP5 ADD SWAP2 POP DUP3 DUP2 PUSH1 0x5 SHL DUP6 ADD ADD DUP4 DUP13 ADD PUSH1 0x0 JUMPDEST DUP4 DUP2 LT ISZERO PUSH2 0x213D JUMPI PUSH1 0x1F NOT DUP8 DUP5 SUB ADD DUP6 MSTORE PUSH2 0x212B DUP4 DUP4 MLOAD PUSH2 0x193F JUMP JUMPDEST SWAP5 DUP7 ADD SWAP5 SWAP3 POP SWAP1 DUP6 ADD SWAP1 PUSH1 0x1 ADD PUSH2 0x210F JUMP JUMPDEST POP POP DUP7 DUP2 SUB PUSH1 0xA0 DUP9 ADD MSTORE PUSH2 0x2151 DUP2 DUP13 PUSH2 0x205A JUMP JUMPDEST SWAP5 POP POP POP POP POP PUSH2 0x216C PUSH1 0xC0 DUP5 ADD DUP8 PUSH1 0x1 PUSH1 0x1 PUSH1 0x40 SHL SUB AND SWAP1 MSTORE JUMP JUMPDEST PUSH1 0x1 PUSH1 0x1 PUSH1 0x40 SHL SUB DUP6 AND PUSH1 0xE0 DUP5 ADD MSTORE DUP3 DUP2 SUB PUSH2 0x100 DUP5 ADD MSTORE PUSH2 0x218E DUP2 DUP6 PUSH2 0x193F JUMP JUMPDEST SWAP13 SWAP12 POP POP POP POP POP POP POP POP POP POP POP POP JUMP JUMPDEST PUSH1 0x80 DUP2 MSTORE PUSH1 0x0 PUSH2 0x21B1 PUSH1 0x80 DUP4 ADD DUP8 PUSH2 0x1FE6 JUMP JUMPDEST DUP3 DUP2 SUB PUSH1 0x20 DUP5 ADD MSTORE PUSH2 0x21C3 DUP2 DUP8 PUSH2 0x202A JUMP JUMPDEST SWAP1 POP DUP3 DUP2 SUB PUSH1 0x40 DUP5 ADD MSTORE PUSH2 0x21D7 DUP2 DUP7 PUSH2 0x205A JUMP JUMPDEST SWAP2 POP POP DUP3 PUSH1 0x60 DUP4 ADD MSTORE SWAP6 SWAP5 POP POP POP POP POP JUMP JUMPDEST PUSH4 0x4E487B71 PUSH1 0xE0 SHL PUSH1 0x0 MSTORE PUSH1 0x32 PUSH1 0x4 MSTORE PUSH1 0x24 PUSH1 0x0 REVERT JUMPDEST PUSH1 0x0 DUP3 MLOAD PUSH2 0x2211 DUP2 DUP5 PUSH1 0x20 DUP8 ADD PUSH2 0x191B JUMP JUMPDEST SWAP2 SWAP1 SWAP2 ADD SWAP3 SWAP2 POP POP JUMP JUMPDEST PUSH1 0x0 PUSH1 0x1 DUP3 ADD PUSH2 0x222D JUMPI PUSH2 0x222D PUSH2 0x1F55 JUMP JUMPDEST POP PUSH1 0x1 ADD SWAP1 JUMP JUMPDEST DUP5 DUP2 MSTORE PUSH1 0xFF DUP5 AND PUSH1 0x20 DUP3 ADD MSTORE DUP3 PUSH1 0x40 DUP3 ADD MSTORE PUSH1 0x80 PUSH1 0x60 DUP3 ADD MSTORE PUSH1 0x0 PUSH2 0x96C PUSH1 0x80 DUP4 ADD DUP5 PUSH2 0x193F JUMP JUMPDEST DUP1 DUP3 ADD DUP1 DUP3 GT ISZERO PUSH2 0x560 JUMPI PUSH2 0x560 PUSH2 0x1F55 JUMP JUMPDEST PUSH1 0x0 PUSH1 0x20 DUP3 DUP5 SUB SLT ISZERO PUSH2 0x2281 JUMPI PUSH1 0x0 DUP1 REVERT JUMPDEST POP MLOAD SWAP2 SWAP1 POP JUMP INVALID SELFBALANCE PUSH16 0x7665726E6F723A2063616C6C20726576 PUSH6 0x727465642077 PUSH10 0x74686F7574206D657373 PUSH2 0x6765 COINBASE PUSH5 0x6472657373 GASPRICE KECCAK256 PUSH13 0x6F772D6C6576656C2063616C6C KECCAK256 PUSH24 0x6974682076616C7565206661696C6564A264697066735822 SLT KECCAK256 0xE2 0x4E 0x2F BLOCKHASH MLOAD INVALID PUSH16 0xF40B154B724F9252D43ED908AB05A73A 0xE1 0xF7 0xEF MOD 0xBE PC 0x2A 0xB2 DUP4 PUSH5 0x736F6C6343 STOP ADDMOD ISZERO STOP CALLER ",
  "sha1": "b1c0620f05464f130ccc63edffe6587998b9d213",
  "source": "// SPDX-License-Identifier: MIT\n\npragma solidity ^0.8.0;\n\nimport \"../governance/extensions/GovernorCountingSimple.sol\";\nimport \"../governance/extensions/GovernorVotes.sol\";\n\ncontract GovernorVoteMocks is GovernorVotes, GovernorCountingSimple {\n    constructor(string memory name_, IVotes token_) Governor(name_) GovernorVotes(token_) {}\n\n    function quorum(uint256) public pure override returns (uint256) {\n        return 0;\n    }\n\n    function votingDelay() public pure override returns (uint256) {\n        return 4;\n    }\n\n    function votingPeriod() public pure override returns (uint256) {\n        return 16;\n    }\n\n    function cancel(\n        address[] memory targets,\n        uint256[] memory values,\n        bytes[] memory calldatas,\n        bytes32 salt\n    ) public returns (uint256 proposalId) {\n        return _cancel(targets, values, calldatas, salt);\n    }\n\n    function getVotes(address account, uint256 blockNumber)\n        public\n        view\n        virtual\n        override(IGovernor, GovernorVotes)\n        returns (uint256)\n    {\n        return super.getVotes(account, blockNumber);\n    }\n}\n",
  "sourcePath": "contracts/openzeppelin-solidity/contracts/mocks/GovernorVoteMock.sol",
  "type": "contract"
}