{
  "abi": [
    {
      "inputs": [
        {
          "internalType": "int256",
          "name": "_hardcodedPrice",
          "type": "int256"
        }
      ],
      "stateMutability": "nonpayable",
      "type": "constructor"
    },
    {
      "anonymous": false,
      "inputs": [
        {
          "indexed": false,
          "internalType": "int256",
          "name": "price",
          "type": "int256"
        }
      ],
      "name": "SetHardcodedPrice",
      "type": "event"
    },
    {
      "inputs": [],
      "name": "latestAnswer",
      "outputs": [
        {
          "internalType": "int256",
          "name": "",
          "type": "int256"
        }
      ],
      "stateMutability": "view",
      "type": "function"
    },
    {
      "inputs": [],
      "name": "latestRoundData",
      "outputs": [
        {
          "internalType": "uint80",
          "name": "roundId",
          "type": "uint80"
        },
        {
          "internalType": "int256",
          "name": "answer",
          "type": "int256"
        },
        {
          "internalType": "uint256",
          "name": "startedAt",
          "type": "uint256"
        },
        {
          "internalType": "uint256",
          "name": "updatedAt",
          "type": "uint256"
        },
        {
          "internalType": "uint80",
          "name": "answeredInRound",
          "type": "uint80"
        }
      ],
      "stateMutability": "view",
      "type": "function"
    },
    {
      "inputs": [
        {
          "internalType": "int256",
          "name": "_hardcodedPrice",
          "type": "int256"
        }
      ],
      "name": "setHardcodedPrice",
      "outputs": [],
      "stateMutability": "nonpayable",
      "type": "function"
    }
  ],
  "bytecode": "608060405234801561001057600080fd5b5060405161021738038061021783398101604081905261002f91610049565b600180546001600160a01b03191633179055600055610062565b60006020828403121561005b57600080fd5b5051919050565b6101a6806100716000396000f3fe608060405234801561001057600080fd5b50600436106100415760003560e01c806350d25bcd1461004657806362a26d411461005c578063feaf968c14610071575b600080fd5b6000546040519081526020015b60405180910390f35b61006f61006a366004610157565b6100af565b005b6000546040805169ffffffffffffffffffff43168082526020820193909352429181018290526060810191909152608081019190915260a001610053565b6001546001600160a01b0316331461011c5760405162461bcd60e51b815260206004820152602660248201527f4f6e6c7920746865206f776e65722063616e2063616c6c20746869732066756e60448201526531ba34b7b71760d11b606482015260840160405180910390fd5b60008190556040518181527f460e7727d40ddc0d3fb800194ba3f671e607c881d0622882417add7230b16f9e9060200160405180910390a150565b60006020828403121561016957600080fd5b503591905056fea26469706673582212206cc16d22e2d8b6611d596be208d491179cab60eafc560e4bce84bc8b8e346fc064736f6c63430008150033",
  "bytecodeSha1": "bee4bb27ec4322020fc4ddcb76a77484ebc7b9a7",
  "compiler": {
    "evm_version": "istanbul",
    "optimizer": {
      "enabled": true,
      "runs": 200
    },
    "version": "0.8.21+commit.d9974bed"
  },
  "contractName": "HardcodedPriceOracle",
  "language": "Solidity",
  "natspec": {
    "kind": "dev",
    "methods": {},
    "version": 1
  },
  "opcodes": "PUSH1 0x80 PUSH1 0x40 MSTORE CALLVALUE DUP1 ISZERO PUSH2 0x10 JUMPI PUSH1 0x0 DUP1 REVERT JUMPDEST POP PUSH1 0x4 CALLDATASIZE LT PUSH2 0x41 JUMPI PUSH1 0x0 CALLDATALOAD PUSH1 0xE0 SHR DUP1 PUSH4 0x50D25BCD EQ PUSH2 0x46 JUMPI DUP1 PUSH4 0x62A26D41 EQ PUSH2 0x5C JUMPI DUP1 PUSH4 0xFEAF968C EQ PUSH2 0x71 JUMPI JUMPDEST PUSH1 0x0 DUP1 REVERT JUMPDEST PUSH1 0x0 SLOAD PUSH1 0x40 MLOAD SWAP1 DUP2 MSTORE PUSH1 0x20 ADD JUMPDEST PUSH1 0x40 MLOAD DUP1 SWAP2 SUB SWAP1 RETURN JUMPDEST PUSH2 0x6F PUSH2 0x6A CALLDATASIZE PUSH1 0x4 PUSH2 0x157 JUMP JUMPDEST PUSH2 0xAF JUMP JUMPDEST STOP JUMPDEST PUSH1 0x0 SLOAD PUSH1 0x40 DUP1 MLOAD PUSH10 0xFFFFFFFFFFFFFFFFFFFF NUMBER AND DUP1 DUP3 MSTORE PUSH1 0x20 DUP3 ADD SWAP4 SWAP1 SWAP4 MSTORE TIMESTAMP SWAP2 DUP2 ADD DUP3 SWAP1 MSTORE PUSH1 0x60 DUP2 ADD SWAP2 SWAP1 SWAP2 MSTORE PUSH1 0x80 DUP2 ADD SWAP2 SWAP1 SWAP2 MSTORE PUSH1 0xA0 ADD PUSH2 0x53 JUMP JUMPDEST PUSH1 0x1 SLOAD PUSH1 0x1 PUSH1 0x1 PUSH1 0xA0 SHL SUB AND CALLER EQ PUSH2 0x11C JUMPI PUSH1 0x40 MLOAD PUSH3 0x461BCD PUSH1 0xE5 SHL DUP2 MSTORE PUSH1 0x20 PUSH1 0x4 DUP3 ADD MSTORE PUSH1 0x26 PUSH1 0x24 DUP3 ADD MSTORE PUSH32 0x4F6E6C7920746865206F776E65722063616E2063616C6C20746869732066756E PUSH1 0x44 DUP3 ADD MSTORE PUSH6 0x31BA34B7B717 PUSH1 0xD1 SHL PUSH1 0x64 DUP3 ADD MSTORE PUSH1 0x84 ADD PUSH1 0x40 MLOAD DUP1 SWAP2 SUB SWAP1 REVERT JUMPDEST PUSH1 0x0 DUP2 SWAP1 SSTORE PUSH1 0x40 MLOAD DUP2 DUP2 MSTORE PUSH32 0x460E7727D40DDC0D3FB800194BA3F671E607C881D0622882417ADD7230B16F9E SWAP1 PUSH1 0x20 ADD PUSH1 0x40 MLOAD DUP1 SWAP2 SUB SWAP1 LOG1 POP JUMP JUMPDEST PUSH1 0x0 PUSH1 0x20 DUP3 DUP5 SUB SLT ISZERO PUSH2 0x169 JUMPI PUSH1 0x0 DUP1 REVERT JUMPDEST POP CALLDATALOAD SWAP2 SWAP1 POP JUMP INVALID LOG2 PUSH5 0x6970667358 0x22 SLT KECCAK256 PUSH13 0xC16D22E2D8B6611D596BE208D4 SWAP2 OR SWAP13 0xAB PUSH1 0xEA 0xFC JUMP 0xE 0x4B 0xCE DUP5 0xBC DUP12 DUP15 CALLVALUE PUSH16 0xC064736F6C6343000815003300000000 ",
  "sha1": "6b87c0f023a013bb33a2f023c20f7669a50172c7",
  "source": "pragma solidity ^0.8.0;\n\ncontract HardcodedPriceOracle {\n    event SetHardcodedPrice(int256 price);\n\n    int256 private hardcodedPrice;\n    address private owner;\n    \n\n    modifier onlyOwner() {\n        require(msg.sender == owner, \"Only the owner can call this function.\");\n        _;\n    }\n\n    constructor(int256 _hardcodedPrice) {\n        owner = msg.sender;\n        hardcodedPrice = _hardcodedPrice;\n    }\n\n    function latestAnswer() external view returns (int256) {\n        return hardcodedPrice;\n    }\n\n    function setHardcodedPrice(int256 _hardcodedPrice) external onlyOwner {\n        hardcodedPrice = _hardcodedPrice;\n        emit SetHardcodedPrice(_hardcodedPrice);\n    }\n\n    function latestRoundData()\n        external\n        view\n        returns (\n            uint80 roundId,\n            int256 answer,\n            uint256 startedAt,\n            uint256 updatedAt,\n            uint80 answeredInRound\n        )\n    {\n        roundId = uint80(block.number);\n        answer = hardcodedPrice;\n        startedAt = block.timestamp;\n        updatedAt = block.timestamp;\n        answeredInRound = roundId;\n    }\n}\n",
  "sourcePath": "contracts/helper/FixedOracle.sol",
  "type": "contract"
}