{
  "abi": [
    {
      "inputs": [
        {
          "internalType": "address",
          "name": "lpToken",
          "type": "address"
        },
        {
          "internalType": "address",
          "name": "clToken0",
          "type": "address"
        },
        {
          "internalType": "address",
          "name": "clToken1",
          "type": "address"
        }
      ],
      "stateMutability": "nonpayable",
      "type": "constructor"
    },
    {
      "inputs": [],
      "name": "CL_TOKENA",
      "outputs": [
        {
          "internalType": "contract AggregatorV3Interface",
          "name": "",
          "type": "address"
        }
      ],
      "stateMutability": "view",
      "type": "function"
    },
    {
      "inputs": [],
      "name": "CL_TOKENB",
      "outputs": [
        {
          "internalType": "contract AggregatorV3Interface",
          "name": "",
          "type": "address"
        }
      ],
      "stateMutability": "view",
      "type": "function"
    },
    {
      "inputs": [],
      "name": "LP_TOKEN",
      "outputs": [
        {
          "internalType": "contract UniswapV2Pair",
          "name": "",
          "type": "address"
        }
      ],
      "stateMutability": "view",
      "type": "function"
    },
    {
      "inputs": [],
      "name": "decimals",
      "outputs": [
        {
          "internalType": "uint8",
          "name": "",
          "type": "uint8"
        }
      ],
      "stateMutability": "pure",
      "type": "function"
    },
    {
      "inputs": [],
      "name": "decimalsA",
      "outputs": [
        {
          "internalType": "uint8",
          "name": "",
          "type": "uint8"
        }
      ],
      "stateMutability": "view",
      "type": "function"
    },
    {
      "inputs": [],
      "name": "decimalsB",
      "outputs": [
        {
          "internalType": "uint8",
          "name": "",
          "type": "uint8"
        }
      ],
      "stateMutability": "view",
      "type": "function"
    },
    {
      "inputs": [],
      "name": "latestAnswer",
      "outputs": [
        {
          "internalType": "int256",
          "name": "",
          "type": "int256"
        }
      ],
      "stateMutability": "view",
      "type": "function"
    }
  ],
  "bytecode": "6101206040523480156200001257600080fd5b5060405162000d4d38038062000d4d833981016040819052620000359162000294565b6001600160a01b038316158015906200005657506001600160a01b03821615155b80156200006b57506001600160a01b03811615155b620000ae5760405162461bcd60e51b815260206004820152600f60248201526e496e76616c6964206164647265737360881b604482015260640160405180910390fd5b6001600160a01b0380841660c081905283821660805290821660a05260408051630dfe168160e01b81529051630dfe1681916004808201926020929091908290030181865afa15801562000106573d6000803e3d6000fd5b505050506040513d601f19601f820116820180604052508101906200012c9190620002de565b6001600160a01b031663313ce5676040518163ffffffff1660e01b8152600401602060405180830381865afa1580156200016a573d6000803e3d6000fd5b505050506040513d601f19601f8201168201806040525081019062000190919062000303565b60ff1660e08160ff1681525050826001600160a01b031663d21220a76040518163ffffffff1660e01b8152600401602060405180830381865afa158015620001dc573d6000803e3d6000fd5b505050506040513d601f19601f82011682018060405250810190620002029190620002de565b6001600160a01b031663313ce5676040518163ffffffff1660e01b8152600401602060405180830381865afa15801562000240573d6000803e3d6000fd5b505050506040513d601f19601f8201168201806040525081019062000266919062000303565b60ff16610100525062000328915050565b80516001600160a01b03811681146200028f57600080fd5b919050565b600080600060608486031215620002aa57600080fd5b620002b58462000277565b9250620002c56020850162000277565b9150620002d56040850162000277565b90509250925092565b600060208284031215620002f157600080fd5b620002fc8262000277565b9392505050565b6000602082840312156200031657600080fd5b815160ff81168114620002fc57600080fd5b60805160a05160c05160e05161010051610980620003cd6000396000818160de015281816102ad015281816102fe0152818161036b01528181610429015261049a01526000818160a101528181610289015281816102dd0152818161038c015281816103fa01526104e4015260008181610144015281816101940152610537015260008181610105015261025f01526000818161016b015261023201526109806000f3fe608060405234801561001057600080fd5b506004361061007d5760003560e01c806357cbf16c1161005b57806357cbf16c146100d95780635fcf91aa14610100578063bfd9041b1461013f578063e45713561461016657600080fd5b8063313ce5671461008257806350894e9f1461009c57806350d25bcd146100c3575b600080fd5b60085b60405160ff90911681526020015b60405180910390f35b6100857f000000000000000000000000000000000000000000000000000000000000000081565b6100cb61018d565b604051908152602001610093565b6100857f000000000000000000000000000000000000000000000000000000000000000081565b6101277f000000000000000000000000000000000000000000000000000000000000000081565b6040516001600160a01b039091168152602001610093565b6101277f000000000000000000000000000000000000000000000000000000000000000081565b6101277f000000000000000000000000000000000000000000000000000000000000000081565b60008060007f00000000000000000000000000000000000000000000000000000000000000006001600160a01b0316630902f1ac6040518163ffffffff1660e01b8152600401606060405180830381865afa1580156101f0573d6000803e3d6000fd5b505050506040513d601f19601f8201168201806040525081019061021491906106fc565b506001600160701b031691506001600160701b0316915060006102567f00000000000000000000000000000000000000000000000000000000000000006105cd565b905060006102837f00000000000000000000000000000000000000000000000000000000000000006105cd565b905060007f000000000000000000000000000000000000000000000000000000000000000060ff167f000000000000000000000000000000000000000000000000000000000000000060ff16106103625761035b826103227f00000000000000000000000000000000000000000000000000000000000000007f0000000000000000000000000000000000000000000000000000000000000000610762565b61032d90600a610865565b85610338888a61087b565b610342919061087b565b61034c919061087b565b6103569190610892565b610687565b90506103dd565b6103da826103b07f00000000000000000000000000000000000000000000000000000000000000007f0000000000000000000000000000000000000000000000000000000000000000610762565b6103bb90600a610865565b856103c6888a61087b565b6103d0919061087b565b61034c9190610892565b90505b6000816103ea868861087b565b6103f49190610892565b905060127f000000000000000000000000000000000000000000000000000000000000000060ff161115801561044e575060127f000000000000000000000000000000000000000000000000000000000000000060ff1611155b6104925760405162461bcd60e51b815260206004820152601060248201526f496e636f727265637420746f6b656e7360801b60448201526064015b60405180910390fd5b6000836104c07f00000000000000000000000000000000000000000000000000000000000000006012610762565b6104cb90600a610865565b6104d5908561087b565b6104df919061087b565b61050a7f00000000000000000000000000000000000000000000000000000000000000006012610762565b61051590600a610865565b61051f878561087b565b610529919061087b565b61053391906108b4565b90507f00000000000000000000000000000000000000000000000000000000000000006001600160a01b03166318160ddd6040518163ffffffff1660e01b8152600401602060405180830381865afa158015610593573d6000803e3d6000fd5b505050506040513d601f19601f820116820180604052508101906105b791906108c7565b6105c19082610892565b97505050505050505090565b6000806000836001600160a01b031663feaf968c6040518163ffffffff1660e01b815260040160a060405180830381865afa158015610610573d6000803e3d6000fd5b505050506040513d601f19601f8201168201806040525081019061063491906108fa565b50935050925050600081116106805760405162461bcd60e51b8152602060048201526012602482015271526f756e64206e6f7420636f6d706c65746560701b6044820152606401610489565b5092915050565b60008060026106978460016108b4565b6106a19190610892565b90508291505b818110156106da579050806002816106bf8186610892565b6106c991906108b4565b6106d39190610892565b90506106a7565b50919050565b80516001600160701b03811681146106f757600080fd5b919050565b60008060006060848603121561071157600080fd5b61071a846106e0565b9250610728602085016106e0565b9150604084015163ffffffff8116811461074157600080fd5b809150509250925092565b634e487b7160e01b600052601160045260246000fd5b60ff828116828216039081111561077b5761077b61074c565b92915050565b600181815b808511156107bc5781600019048211156107a2576107a261074c565b808516156107af57918102915b93841c9390800290610786565b509250929050565b6000826107d35750600161077b565b816107e05750600061077b565b81600181146107f657600281146108005761081c565b600191505061077b565b60ff8411156108115761081161074c565b50506001821b61077b565b5060208310610133831016604e8410600b841016171561083f575081810a61077b565b6108498383610781565b806000190482111561085d5761085d61074c565b029392505050565b600061087460ff8416836107c4565b9392505050565b808202811582820484141761077b5761077b61074c565b6000826108af57634e487b7160e01b600052601260045260246000fd5b500490565b8082018082111561077b5761077b61074c565b6000602082840312156108d957600080fd5b5051919050565b805169ffffffffffffffffffff811681146106f757600080fd5b600080600080600060a0868803121561091257600080fd5b61091b866108e0565b945060208601519350604086015192506060860151915061093e608087016108e0565b9050929550929590935056fea2646970667358221220799a4aebd56a361a25b951fb9e426cab6377b010a5a822283f9e7ba3a29a4e0464736f6c63430008130033",
  "bytecodeSha1": "beb3728e8c2ad6737218d52bf01177a274d1bcc7",
  "compiler": {
    "evm_version": "istanbul",
    "optimizer": {
      "enabled": true,
      "runs": 200
    },
    "version": "0.8.19+commit.7dd6d404"
  },
  "contractName": "LPOracle",
  "language": "Solidity",
  "natspec": {
    "kind": "dev",
    "methods": {
      "constructor": {
        "params": {
          "clToken0": "Underlying token0 ChainLink feed",
          "clToken1": "Underlying token1 ChainLink feed",
          "lpToken": "UNI-LP token"
        }
      },
      "decimals()": {
        "notice": "Get oracle decimals"
      },
      "latestAnswer()": {
        "notice": "Get the oracle price for the latest available round",
        "returns": {
          "_0": "Latest price"
        }
      }
    },
    "version": 1
  },
  "opcodes": "PUSH1 0x80 PUSH1 0x40 MSTORE CALLVALUE DUP1 ISZERO PUSH2 0x10 JUMPI PUSH1 0x0 DUP1 REVERT JUMPDEST POP PUSH1 0x4 CALLDATASIZE LT PUSH2 0x7D JUMPI PUSH1 0x0 CALLDATALOAD PUSH1 0xE0 SHR DUP1 PUSH4 0x57CBF16C GT PUSH2 0x5B JUMPI DUP1 PUSH4 0x57CBF16C EQ PUSH2 0xD9 JUMPI DUP1 PUSH4 0x5FCF91AA EQ PUSH2 0x100 JUMPI DUP1 PUSH4 0xBFD9041B EQ PUSH2 0x13F JUMPI DUP1 PUSH4 0xE4571356 EQ PUSH2 0x166 JUMPI PUSH1 0x0 DUP1 REVERT JUMPDEST DUP1 PUSH4 0x313CE567 EQ PUSH2 0x82 JUMPI DUP1 PUSH4 0x50894E9F EQ PUSH2 0x9C JUMPI DUP1 PUSH4 0x50D25BCD EQ PUSH2 0xC3 JUMPI JUMPDEST PUSH1 0x0 DUP1 REVERT JUMPDEST PUSH1 0x8 JUMPDEST PUSH1 0x40 MLOAD PUSH1 0xFF SWAP1 SWAP2 AND DUP2 MSTORE PUSH1 0x20 ADD JUMPDEST PUSH1 0x40 MLOAD DUP1 SWAP2 SUB SWAP1 RETURN JUMPDEST PUSH2 0x85 PUSH32 0x0 DUP2 JUMP JUMPDEST PUSH2 0xCB PUSH2 0x18D JUMP JUMPDEST PUSH1 0x40 MLOAD SWAP1 DUP2 MSTORE PUSH1 0x20 ADD PUSH2 0x93 JUMP JUMPDEST PUSH2 0x85 PUSH32 0x0 DUP2 JUMP JUMPDEST PUSH2 0x127 PUSH32 0x0 DUP2 JUMP JUMPDEST PUSH1 0x40 MLOAD PUSH1 0x1 PUSH1 0x1 PUSH1 0xA0 SHL SUB SWAP1 SWAP2 AND DUP2 MSTORE PUSH1 0x20 ADD PUSH2 0x93 JUMP JUMPDEST PUSH2 0x127 PUSH32 0x0 DUP2 JUMP JUMPDEST PUSH2 0x127 PUSH32 0x0 DUP2 JUMP JUMPDEST PUSH1 0x0 DUP1 PUSH1 0x0 PUSH32 0x0 PUSH1 0x1 PUSH1 0x1 PUSH1 0xA0 SHL SUB AND PUSH4 0x902F1AC PUSH1 0x40 MLOAD DUP2 PUSH4 0xFFFFFFFF AND PUSH1 0xE0 SHL DUP2 MSTORE PUSH1 0x4 ADD PUSH1 0x60 PUSH1 0x40 MLOAD DUP1 DUP4 SUB DUP2 DUP7 GAS STATICCALL ISZERO DUP1 ISZERO PUSH2 0x1F0 JUMPI RETURNDATASIZE PUSH1 0x0 DUP1 RETURNDATACOPY RETURNDATASIZE PUSH1 0x0 REVERT JUMPDEST POP POP POP POP PUSH1 0x40 MLOAD RETURNDATASIZE PUSH1 0x1F NOT PUSH1 0x1F DUP3 ADD AND DUP3 ADD DUP1 PUSH1 0x40 MSTORE POP DUP2 ADD SWAP1 PUSH2 0x214 SWAP2 SWAP1 PUSH2 0x6FC JUMP JUMPDEST POP PUSH1 0x1 PUSH1 0x1 PUSH1 0x70 SHL SUB AND SWAP2 POP PUSH1 0x1 PUSH1 0x1 PUSH1 0x70 SHL SUB AND SWAP2 POP PUSH1 0x0 PUSH2 0x256 PUSH32 0x0 PUSH2 0x5CD JUMP JUMPDEST SWAP1 POP PUSH1 0x0 PUSH2 0x283 PUSH32 0x0 PUSH2 0x5CD JUMP JUMPDEST SWAP1 POP PUSH1 0x0 PUSH32 0x0 PUSH1 0xFF AND PUSH32 0x0 PUSH1 0xFF AND LT PUSH2 0x362 JUMPI PUSH2 0x35B DUP3 PUSH2 0x322 PUSH32 0x0 PUSH32 0x0 PUSH2 0x762 JUMP JUMPDEST PUSH2 0x32D SWAP1 PUSH1 0xA PUSH2 0x865 JUMP JUMPDEST DUP6 PUSH2 0x338 DUP9 DUP11 PUSH2 0x87B JUMP JUMPDEST PUSH2 0x342 SWAP2 SWAP1 PUSH2 0x87B JUMP JUMPDEST PUSH2 0x34C SWAP2 SWAP1 PUSH2 0x87B JUMP JUMPDEST PUSH2 0x356 SWAP2 SWAP1 PUSH2 0x892 JUMP JUMPDEST PUSH2 0x687 JUMP JUMPDEST SWAP1 POP PUSH2 0x3DD JUMP JUMPDEST PUSH2 0x3DA DUP3 PUSH2 0x3B0 PUSH32 0x0 PUSH32 0x0 PUSH2 0x762 JUMP JUMPDEST PUSH2 0x3BB SWAP1 PUSH1 0xA PUSH2 0x865 JUMP JUMPDEST DUP6 PUSH2 0x3C6 DUP9 DUP11 PUSH2 0x87B JUMP JUMPDEST PUSH2 0x3D0 SWAP2 SWAP1 PUSH2 0x87B JUMP JUMPDEST PUSH2 0x34C SWAP2 SWAP1 PUSH2 0x892 JUMP JUMPDEST SWAP1 POP JUMPDEST PUSH1 0x0 DUP2 PUSH2 0x3EA DUP7 DUP9 PUSH2 0x87B JUMP JUMPDEST PUSH2 0x3F4 SWAP2 SWAP1 PUSH2 0x892 JUMP JUMPDEST SWAP1 POP PUSH1 0x12 PUSH32 0x0 PUSH1 0xFF AND GT ISZERO DUP1 ISZERO PUSH2 0x44E JUMPI POP PUSH1 0x12 PUSH32 0x0 PUSH1 0xFF AND GT ISZERO JUMPDEST PUSH2 0x492 JUMPI PUSH1 0x40 MLOAD PUSH3 0x461BCD PUSH1 0xE5 SHL DUP2 MSTORE PUSH1 0x20 PUSH1 0x4 DUP3 ADD MSTORE PUSH1 0x10 PUSH1 0x24 DUP3 ADD MSTORE PUSH16 0x496E636F727265637420746F6B656E73 PUSH1 0x80 SHL PUSH1 0x44 DUP3 ADD MSTORE PUSH1 0x64 ADD JUMPDEST PUSH1 0x40 MLOAD DUP1 SWAP2 SUB SWAP1 REVERT JUMPDEST PUSH1 0x0 DUP4 PUSH2 0x4C0 PUSH32 0x0 PUSH1 0x12 PUSH2 0x762 JUMP JUMPDEST PUSH2 0x4CB SWAP1 PUSH1 0xA PUSH2 0x865 JUMP JUMPDEST PUSH2 0x4D5 SWAP1 DUP6 PUSH2 0x87B JUMP JUMPDEST PUSH2 0x4DF SWAP2 SWAP1 PUSH2 0x87B JUMP JUMPDEST PUSH2 0x50A PUSH32 0x0 PUSH1 0x12 PUSH2 0x762 JUMP JUMPDEST PUSH2 0x515 SWAP1 PUSH1 0xA PUSH2 0x865 JUMP JUMPDEST PUSH2 0x51F DUP8 DUP6 PUSH2 0x87B JUMP JUMPDEST PUSH2 0x529 SWAP2 SWAP1 PUSH2 0x87B JUMP JUMPDEST PUSH2 0x533 SWAP2 SWAP1 PUSH2 0x8B4 JUMP JUMPDEST SWAP1 POP PUSH32 0x0 PUSH1 0x1 PUSH1 0x1 PUSH1 0xA0 SHL SUB AND PUSH4 0x18160DDD PUSH1 0x40 MLOAD DUP2 PUSH4 0xFFFFFFFF AND PUSH1 0xE0 SHL DUP2 MSTORE PUSH1 0x4 ADD PUSH1 0x20 PUSH1 0x40 MLOAD DUP1 DUP4 SUB DUP2 DUP7 GAS STATICCALL ISZERO DUP1 ISZERO PUSH2 0x593 JUMPI RETURNDATASIZE PUSH1 0x0 DUP1 RETURNDATACOPY RETURNDATASIZE PUSH1 0x0 REVERT JUMPDEST POP POP POP POP PUSH1 0x40 MLOAD RETURNDATASIZE PUSH1 0x1F NOT PUSH1 0x1F DUP3 ADD AND DUP3 ADD DUP1 PUSH1 0x40 MSTORE POP DUP2 ADD SWAP1 PUSH2 0x5B7 SWAP2 SWAP1 PUSH2 0x8C7 JUMP JUMPDEST PUSH2 0x5C1 SWAP1 DUP3 PUSH2 0x892 JUMP JUMPDEST SWAP8 POP POP POP POP POP POP POP POP SWAP1 JUMP JUMPDEST PUSH1 0x0 DUP1 PUSH1 0x0 DUP4 PUSH1 0x1 PUSH1 0x1 PUSH1 0xA0 SHL SUB AND PUSH4 0xFEAF968C PUSH1 0x40 MLOAD DUP2 PUSH4 0xFFFFFFFF AND PUSH1 0xE0 SHL DUP2 MSTORE PUSH1 0x4 ADD PUSH1 0xA0 PUSH1 0x40 MLOAD DUP1 DUP4 SUB DUP2 DUP7 GAS STATICCALL ISZERO DUP1 ISZERO PUSH2 0x610 JUMPI RETURNDATASIZE PUSH1 0x0 DUP1 RETURNDATACOPY RETURNDATASIZE PUSH1 0x0 REVERT JUMPDEST POP POP POP POP PUSH1 0x40 MLOAD RETURNDATASIZE PUSH1 0x1F NOT PUSH1 0x1F DUP3 ADD AND DUP3 ADD DUP1 PUSH1 0x40 MSTORE POP DUP2 ADD SWAP1 PUSH2 0x634 SWAP2 SWAP1 PUSH2 0x8FA JUMP JUMPDEST POP SWAP4 POP POP SWAP3 POP POP PUSH1 0x0 DUP2 GT PUSH2 0x680 JUMPI PUSH1 0x40 MLOAD PUSH3 0x461BCD PUSH1 0xE5 SHL DUP2 MSTORE PUSH1 0x20 PUSH1 0x4 DUP3 ADD MSTORE PUSH1 0x12 PUSH1 0x24 DUP3 ADD MSTORE PUSH18 0x526F756E64206E6F7420636F6D706C657465 PUSH1 0x70 SHL PUSH1 0x44 DUP3 ADD MSTORE PUSH1 0x64 ADD PUSH2 0x489 JUMP JUMPDEST POP SWAP3 SWAP2 POP POP JUMP JUMPDEST PUSH1 0x0 DUP1 PUSH1 0x2 PUSH2 0x697 DUP5 PUSH1 0x1 PUSH2 0x8B4 JUMP JUMPDEST PUSH2 0x6A1 SWAP2 SWAP1 PUSH2 0x892 JUMP JUMPDEST SWAP1 POP DUP3 SWAP2 POP JUMPDEST DUP2 DUP2 LT ISZERO PUSH2 0x6DA JUMPI SWAP1 POP DUP1 PUSH1 0x2 DUP2 PUSH2 0x6BF DUP2 DUP7 PUSH2 0x892 JUMP JUMPDEST PUSH2 0x6C9 SWAP2 SWAP1 PUSH2 0x8B4 JUMP JUMPDEST PUSH2 0x6D3 SWAP2 SWAP1 PUSH2 0x892 JUMP JUMPDEST SWAP1 POP PUSH2 0x6A7 JUMP JUMPDEST POP SWAP2 SWAP1 POP JUMP JUMPDEST DUP1 MLOAD PUSH1 0x1 PUSH1 0x1 PUSH1 0x70 SHL SUB DUP2 AND DUP2 EQ PUSH2 0x6F7 JUMPI PUSH1 0x0 DUP1 REVERT JUMPDEST SWAP2 SWAP1 POP JUMP JUMPDEST PUSH1 0x0 DUP1 PUSH1 0x0 PUSH1 0x60 DUP5 DUP7 SUB SLT ISZERO PUSH2 0x711 JUMPI PUSH1 0x0 DUP1 REVERT JUMPDEST PUSH2 0x71A DUP5 PUSH2 0x6E0 JUMP JUMPDEST SWAP3 POP PUSH2 0x728 PUSH1 0x20 DUP6 ADD PUSH2 0x6E0 JUMP JUMPDEST SWAP2 POP PUSH1 0x40 DUP5 ADD MLOAD PUSH4 0xFFFFFFFF DUP2 AND DUP2 EQ PUSH2 0x741 JUMPI PUSH1 0x0 DUP1 REVERT JUMPDEST DUP1 SWAP2 POP POP SWAP3 POP SWAP3 POP SWAP3 JUMP JUMPDEST PUSH4 0x4E487B71 PUSH1 0xE0 SHL PUSH1 0x0 MSTORE PUSH1 0x11 PUSH1 0x4 MSTORE PUSH1 0x24 PUSH1 0x0 REVERT JUMPDEST PUSH1 0xFF DUP3 DUP2 AND DUP3 DUP3 AND SUB SWAP1 DUP2 GT ISZERO PUSH2 0x77B JUMPI PUSH2 0x77B PUSH2 0x74C JUMP JUMPDEST SWAP3 SWAP2 POP POP JUMP JUMPDEST PUSH1 0x1 DUP2 DUP2 JUMPDEST DUP1 DUP6 GT ISZERO PUSH2 0x7BC JUMPI DUP2 PUSH1 0x0 NOT DIV DUP3 GT ISZERO PUSH2 0x7A2 JUMPI PUSH2 0x7A2 PUSH2 0x74C JUMP JUMPDEST DUP1 DUP6 AND ISZERO PUSH2 0x7AF JUMPI SWAP2 DUP2 MUL SWAP2 JUMPDEST SWAP4 DUP5 SHR SWAP4 SWAP1 DUP1 MUL SWAP1 PUSH2 0x786 JUMP JUMPDEST POP SWAP3 POP SWAP3 SWAP1 POP JUMP JUMPDEST PUSH1 0x0 DUP3 PUSH2 0x7D3 JUMPI POP PUSH1 0x1 PUSH2 0x77B JUMP JUMPDEST DUP2 PUSH2 0x7E0 JUMPI POP PUSH1 0x0 PUSH2 0x77B JUMP JUMPDEST DUP2 PUSH1 0x1 DUP2 EQ PUSH2 0x7F6 JUMPI PUSH1 0x2 DUP2 EQ PUSH2 0x800 JUMPI PUSH2 0x81C JUMP JUMPDEST PUSH1 0x1 SWAP2 POP POP PUSH2 0x77B JUMP JUMPDEST PUSH1 0xFF DUP5 GT ISZERO PUSH2 0x811 JUMPI PUSH2 0x811 PUSH2 0x74C JUMP JUMPDEST POP POP PUSH1 0x1 DUP3 SHL PUSH2 0x77B JUMP JUMPDEST POP PUSH1 0x20 DUP4 LT PUSH2 0x133 DUP4 LT AND PUSH1 0x4E DUP5 LT PUSH1 0xB DUP5 LT AND OR ISZERO PUSH2 0x83F JUMPI POP DUP2 DUP2 EXP PUSH2 0x77B JUMP JUMPDEST PUSH2 0x849 DUP4 DUP4 PUSH2 0x781 JUMP JUMPDEST DUP1 PUSH1 0x0 NOT DIV DUP3 GT ISZERO PUSH2 0x85D JUMPI PUSH2 0x85D PUSH2 0x74C JUMP JUMPDEST MUL SWAP4 SWAP3 POP POP POP JUMP JUMPDEST PUSH1 0x0 PUSH2 0x874 PUSH1 0xFF DUP5 AND DUP4 PUSH2 0x7C4 JUMP JUMPDEST SWAP4 SWAP3 POP POP POP JUMP JUMPDEST DUP1 DUP3 MUL DUP2 ISZERO DUP3 DUP3 DIV DUP5 EQ OR PUSH2 0x77B JUMPI PUSH2 0x77B PUSH2 0x74C JUMP JUMPDEST PUSH1 0x0 DUP3 PUSH2 0x8AF JUMPI PUSH4 0x4E487B71 PUSH1 0xE0 SHL PUSH1 0x0 MSTORE PUSH1 0x12 PUSH1 0x4 MSTORE PUSH1 0x24 PUSH1 0x0 REVERT JUMPDEST POP DIV SWAP1 JUMP JUMPDEST DUP1 DUP3 ADD DUP1 DUP3 GT ISZERO PUSH2 0x77B JUMPI PUSH2 0x77B PUSH2 0x74C JUMP JUMPDEST PUSH1 0x0 PUSH1 0x20 DUP3 DUP5 SUB SLT ISZERO PUSH2 0x8D9 JUMPI PUSH1 0x0 DUP1 REVERT JUMPDEST POP MLOAD SWAP2 SWAP1 POP JUMP JUMPDEST DUP1 MLOAD PUSH10 0xFFFFFFFFFFFFFFFFFFFF DUP2 AND DUP2 EQ PUSH2 0x6F7 JUMPI PUSH1 0x0 DUP1 REVERT JUMPDEST PUSH1 0x0 DUP1 PUSH1 0x0 DUP1 PUSH1 0x0 PUSH1 0xA0 DUP7 DUP9 SUB SLT ISZERO PUSH2 0x912 JUMPI PUSH1 0x0 DUP1 REVERT JUMPDEST PUSH2 0x91B DUP7 PUSH2 0x8E0 JUMP JUMPDEST SWAP5 POP PUSH1 0x20 DUP7 ADD MLOAD SWAP4 POP PUSH1 0x40 DUP7 ADD MLOAD SWAP3 POP PUSH1 0x60 DUP7 ADD MLOAD SWAP2 POP PUSH2 0x93E PUSH1 0x80 DUP8 ADD PUSH2 0x8E0 JUMP JUMPDEST SWAP1 POP SWAP3 SWAP6 POP SWAP3 SWAP6 SWAP1 SWAP4 POP JUMP INVALID LOG2 PUSH5 0x6970667358 0x22 SLT KECCAK256 PUSH26 0x9A4AEBD56A361A25B951FB9E426CAB6377B010A5A822283F9E7B LOG3 LOG2 SWAP11 0x4E DIV PUSH5 0x736F6C6343 STOP ADDMOD SGT STOP CALLER ",
  "sha1": "b5bb0de069b6907ac25c06bfa168a1f6364e55d6",
  "source": "// SPDX-License-Identifier: none\npragma solidity 0.8.19;\n\nimport \"../../interfaces/AggregatorV3Interface.sol\";\n\ninterface UniswapV2Pair {\n  function totalSupply() external view returns (uint);\n  function getReserves() external view returns (uint112 reserve0, uint112 reserve1, uint32 blockTimestampLast);\n  function token0() external view returns (address);\n  function token1() external view returns (address);\n}\n\ninterface IERC20 {\n  function decimals() external view returns (uint8);\n}\n\ncontract LPOracle {\n  /* Matic Network Settings */\n  AggregatorV3Interface public immutable CL_TOKENA;\n  AggregatorV3Interface public immutable CL_TOKENB;\n  UniswapV2Pair public immutable LP_TOKEN;\n\tuint8 public immutable decimalsA;\n\tuint8 public immutable decimalsB;\n\n\t/// @param lpToken UNI-LP token\n\t/// @param clToken0 Underlying token0 ChainLink feed\n\t/// @param clToken1 Underlying token1 ChainLink feed\n\tconstructor (address lpToken, address clToken0, address clToken1 ){\n    require(lpToken != address(0x0) && clToken0 != address(0x0) && clToken1 != address(0x0), \"Invalid address\");\n\t\tLP_TOKEN = UniswapV2Pair(lpToken);\n\t\tCL_TOKENA = AggregatorV3Interface(clToken0);\n\t\tCL_TOKENB = AggregatorV3Interface(clToken1);\n\t\tdecimalsA = IERC20(UniswapV2Pair(lpToken).token0()).decimals();\n\t\tdecimalsB = IERC20(UniswapV2Pair(lpToken).token1()).decimals();\n\t}\n\n  /// @notice Get oracle decimals\n  function decimals() external pure returns (uint8) {\n    return 8;\n  }\n\n  /// @notice Calculate a square root \n  /// @param y Square root variable\n  function sqrt(uint x) internal pure returns (uint y) {\n    uint z = (x + 1) / 2;\n    y = x;\n    while (z < y) {\n      y = z;\n      z = (x / z + z) / 2;\n    }\n  }\n\n  /// @notice Get the price for the latest available round of a feed\n  /// @param priceFeed Price feed\n  /// @return Latest price\n  function getAnswer(AggregatorV3Interface priceFeed) internal view returns (int256) {\n    (\n      , \n      int price,\n      ,\n      uint timeStamp,\n    ) = priceFeed.latestRoundData();\n    require(timeStamp > 0, \"Round not complete\");\n    return price;\n  }\n\n  /// @notice Get the oracle price for the latest available round\n  /// @return Latest price\n  function latestAnswer() external view returns (int256) {\n    (uint a, uint b,) = LP_TOKEN.getReserves();\n\n    uint priceA = uint(getAnswer(CL_TOKENA));\n    uint priceB = uint(getAnswer(CL_TOKENB));\n    /*\n      a and b represents the amounts of asset0 and asset1 in the LP\n      In the uniswap AMM model, a*b is always a constant k (ignoring fees)\n      norm_a, norm_b represents a, b adjusted along the k curve such that it represents the amounts the uniswap pool will contain at the Chainlink oracle price \n  \n      a*b = k = norm_a*norm_b\n      norm_a * cl_price_a / decimals_a = norm_b * cl_price_b / decimals_b\n      norm_b^2 = a*b * cl_price_a / decimals_a * decimals_b / cl_price_b\n    */\n    \n    // Below line may potentially overflow, e.g. for TRIBE-FEI pair, where numA * numB *priceA * 10**18 > 2**256-1\n    // uint norm_b = sqrt( a * b * priceA * 10**decimalsB / 10**decimalsA / priceB ); \n    \n    // Code below attempts to relief some common overflow potential\n    uint norm_b;\n    if (decimalsB >= decimalsA) {\n      norm_b = sqrt( a * b * priceA * 10**(decimalsB-decimalsA) / priceB );\n    } else {\n      norm_b = sqrt( a * b * priceA / 10**(decimalsA-decimalsB) / priceB );\n    }\n    uint norm_a = a * b / norm_b;\n\n    /*\n      The normalised positions (18 decimals) are multiplied with the chainlink value (8 decimals), giving val.\n      val is divided by LP_TOKEN.totalSupply(), which has 18 decimals, and casted to an int\n      The return value represents the value * 10**8 of a single LP token \n    */\n    require(decimalsA <= 18 && decimalsB <= 18, \"Incorrect tokens\");\n    uint val = norm_a * priceA * 10**(18-decimalsA) + norm_b * 10**(18-decimalsB) * priceB;\n    return int(val / LP_TOKEN.totalSupply());\n  }\n}\n",
  "sourcePath": "contracts/helper/LPOracle.sol",
  "type": "contract"
}