{
  "abi": [
    {
      "inputs": [
        {
          "internalType": "address",
          "name": "token",
          "type": "address"
        }
      ],
      "stateMutability": "nonpayable",
      "type": "constructor"
    },
    {
      "inputs": [
        {
          "internalType": "address",
          "name": "token",
          "type": "address"
        }
      ],
      "name": "getAssetPrice",
      "outputs": [
        {
          "internalType": "uint256",
          "name": "priceX8",
          "type": "uint256"
        }
      ],
      "stateMutability": "view",
      "type": "function"
    },
    {
      "inputs": [],
      "name": "nullToken",
      "outputs": [
        {
          "internalType": "address",
          "name": "",
          "type": "address"
        }
      ],
      "stateMutability": "view",
      "type": "function"
    }
  ],
  "bytecode": "608060405234801561001057600080fd5b5060405161019a38038061019a83398101604081905261002f91610054565b600080546001600160a01b0319166001600160a01b0392909216919091179055610084565b60006020828403121561006657600080fd5b81516001600160a01b038116811461007d57600080fd5b9392505050565b610107806100936000396000f3fe6080604052348015600f57600080fd5b506004361060325760003560e01c8063796bcf7b146037578063b3596f07146066575b600080fd5b6000546049906001600160a01b031681565b6040516001600160a01b0390911681526020015b60405180910390f35b6075607136600460a3565b6082565b604051908152602001605d565b600080546001600160a01b03838116911614609e57506305f5e1005b919050565b60006020828403121560b457600080fd5b81356001600160a01b038116811460ca57600080fd5b939250505056fea2646970667358221220d73c4cbd9c2e0cc0a08e6854eec9b32f0e9ce02b4a4814b1fd8381fc820c1a9164736f6c63430008130033",
  "bytecodeSha1": "cdcfbf3dfa884c77bcf1b1787d05b86d73af1f00",
  "compiler": {
    "evm_version": "istanbul",
    "optimizer": {
      "enabled": true,
      "runs": 200
    },
    "version": "0.8.19+commit.7dd6d404"
  },
  "contractName": "NullOracle",
  "language": "Solidity",
  "natspec": {
    "kind": "dev",
    "methods": {},
    "notice": "Oracle always return 0 for tests",
    "version": 1
  },
  "opcodes": "PUSH1 0x80 PUSH1 0x40 MSTORE CALLVALUE DUP1 ISZERO PUSH1 0xF JUMPI PUSH1 0x0 DUP1 REVERT JUMPDEST POP PUSH1 0x4 CALLDATASIZE LT PUSH1 0x32 JUMPI PUSH1 0x0 CALLDATALOAD PUSH1 0xE0 SHR DUP1 PUSH4 0x796BCF7B EQ PUSH1 0x37 JUMPI DUP1 PUSH4 0xB3596F07 EQ PUSH1 0x66 JUMPI JUMPDEST PUSH1 0x0 DUP1 REVERT JUMPDEST PUSH1 0x0 SLOAD PUSH1 0x49 SWAP1 PUSH1 0x1 PUSH1 0x1 PUSH1 0xA0 SHL SUB AND DUP2 JUMP JUMPDEST PUSH1 0x40 MLOAD PUSH1 0x1 PUSH1 0x1 PUSH1 0xA0 SHL SUB SWAP1 SWAP2 AND DUP2 MSTORE PUSH1 0x20 ADD JUMPDEST PUSH1 0x40 MLOAD DUP1 SWAP2 SUB SWAP1 RETURN JUMPDEST PUSH1 0x75 PUSH1 0x71 CALLDATASIZE PUSH1 0x4 PUSH1 0xA3 JUMP JUMPDEST PUSH1 0x82 JUMP JUMPDEST PUSH1 0x40 MLOAD SWAP1 DUP2 MSTORE PUSH1 0x20 ADD PUSH1 0x5D JUMP JUMPDEST PUSH1 0x0 DUP1 SLOAD PUSH1 0x1 PUSH1 0x1 PUSH1 0xA0 SHL SUB DUP4 DUP2 AND SWAP2 AND EQ PUSH1 0x9E JUMPI POP PUSH4 0x5F5E100 JUMPDEST SWAP2 SWAP1 POP JUMP JUMPDEST PUSH1 0x0 PUSH1 0x20 DUP3 DUP5 SUB SLT ISZERO PUSH1 0xB4 JUMPI PUSH1 0x0 DUP1 REVERT JUMPDEST DUP2 CALLDATALOAD PUSH1 0x1 PUSH1 0x1 PUSH1 0xA0 SHL SUB DUP2 AND DUP2 EQ PUSH1 0xCA JUMPI PUSH1 0x0 DUP1 REVERT JUMPDEST SWAP4 SWAP3 POP POP POP JUMP INVALID LOG2 PUSH5 0x6970667358 0x22 SLT KECCAK256 0xD7 EXTCODECOPY 0x4C 0xBD SWAP13 0x2E 0xC 0xC0 LOG0 DUP15 PUSH9 0x54EEC9B32F0E9CE02B 0x4A BASEFEE EQ 0xB1 REVERT DUP4 DUP2 0xFC DUP3 0xC BYTE SWAP2 PUSH5 0x736F6C6343 STOP ADDMOD SGT STOP CALLER ",
  "sha1": "086d10826e669f284873510e9c16e40833ac16a5",
  "source": "// SPDX-License-Identifier: UNLICENSED\npragma solidity 0.8.19;\n\n/// @notice Oracle always return 0 for tests\ncontract NullOracle {\n  address public nullToken;\n  \n  constructor(address token) {\n    nullToken = token;\n  }\n  \n  function getAssetPrice(address token) public view returns (uint priceX8){\n    if (token != nullToken) priceX8 = 1e8;\n  }\n}",
  "sourcePath": "contracts/tests/NullOracle.sol",
  "type": "contract"
}