{
  "abi": [
    {
      "inputs": [
        {
          "internalType": "address",
          "name": "roerouter",
          "type": "address"
        }
      ],
      "stateMutability": "nonpayable",
      "type": "constructor"
    },
    {
      "anonymous": false,
      "inputs": [
        {
          "indexed": true,
          "internalType": "address",
          "name": "user",
          "type": "address"
        },
        {
          "indexed": true,
          "internalType": "address",
          "name": "asset",
          "type": "address"
        },
        {
          "indexed": false,
          "internalType": "uint256",
          "name": "amount",
          "type": "uint256"
        },
        {
          "indexed": false,
          "internalType": "uint256",
          "name": "amount0",
          "type": "uint256"
        },
        {
          "indexed": false,
          "internalType": "uint256",
          "name": "amount1",
          "type": "uint256"
        }
      ],
      "name": "BuyOptions",
      "type": "event"
    },
    {
      "anonymous": false,
      "inputs": [
        {
          "indexed": true,
          "internalType": "address",
          "name": "user",
          "type": "address"
        },
        {
          "indexed": true,
          "internalType": "address",
          "name": "asset",
          "type": "address"
        },
        {
          "indexed": false,
          "internalType": "uint256",
          "name": "amount",
          "type": "uint256"
        },
        {
          "indexed": false,
          "internalType": "uint256",
          "name": "amount0",
          "type": "uint256"
        },
        {
          "indexed": false,
          "internalType": "uint256",
          "name": "amount1",
          "type": "uint256"
        }
      ],
      "name": "ClosePosition",
      "type": "event"
    },
    {
      "anonymous": false,
      "inputs": [
        {
          "indexed": true,
          "internalType": "address",
          "name": "user",
          "type": "address"
        },
        {
          "indexed": true,
          "internalType": "address",
          "name": "asset",
          "type": "address"
        },
        {
          "indexed": false,
          "internalType": "uint256",
          "name": "amount",
          "type": "uint256"
        },
        {
          "indexed": false,
          "internalType": "uint256",
          "name": "amount0",
          "type": "uint256"
        },
        {
          "indexed": false,
          "internalType": "uint256",
          "name": "amount1",
          "type": "uint256"
        }
      ],
      "name": "LiquidatePosition",
      "type": "event"
    },
    {
      "anonymous": false,
      "inputs": [
        {
          "indexed": true,
          "internalType": "address",
          "name": "user",
          "type": "address"
        },
        {
          "indexed": true,
          "internalType": "address",
          "name": "asset",
          "type": "address"
        },
        {
          "indexed": false,
          "internalType": "uint256",
          "name": "amount",
          "type": "uint256"
        }
      ],
      "name": "ReducedPosition",
      "type": "event"
    },
    {
      "anonymous": false,
      "inputs": [
        {
          "indexed": true,
          "internalType": "address",
          "name": "user",
          "type": "address"
        },
        {
          "indexed": true,
          "internalType": "address",
          "name": "asset",
          "type": "address"
        },
        {
          "indexed": false,
          "internalType": "uint256",
          "name": "amount",
          "type": "uint256"
        },
        {
          "indexed": false,
          "internalType": "uint256",
          "name": "amount0",
          "type": "uint256"
        },
        {
          "indexed": false,
          "internalType": "uint256",
          "name": "amount1",
          "type": "uint256"
        }
      ],
      "name": "SellOptions",
      "type": "event"
    },
    {
      "anonymous": false,
      "inputs": [
        {
          "indexed": true,
          "internalType": "address",
          "name": "user",
          "type": "address"
        },
        {
          "indexed": false,
          "internalType": "address",
          "name": "sourceAsset",
          "type": "address"
        },
        {
          "indexed": false,
          "internalType": "uint256",
          "name": "sourceAmount",
          "type": "uint256"
        },
        {
          "indexed": false,
          "internalType": "address",
          "name": "targetAsset",
          "type": "address"
        },
        {
          "indexed": false,
          "internalType": "uint256",
          "name": "targetAmount",
          "type": "uint256"
        }
      ],
      "name": "Swap",
      "type": "event"
    },
    {
      "inputs": [],
      "name": "ADDRESSES_PROVIDER",
      "outputs": [
        {
          "internalType": "contract ILendingPoolAddressesProvider",
          "name": "",
          "type": "address"
        }
      ],
      "stateMutability": "view",
      "type": "function"
    },
    {
      "inputs": [],
      "name": "LENDING_POOL",
      "outputs": [
        {
          "internalType": "contract ILendingPool",
          "name": "",
          "type": "address"
        }
      ],
      "stateMutability": "view",
      "type": "function"
    },
    {
      "inputs": [],
      "name": "ROEROUTER",
      "outputs": [
        {
          "internalType": "contract RoeRouter",
          "name": "",
          "type": "address"
        }
      ],
      "stateMutability": "view",
      "type": "function"
    },
    {
      "inputs": [
        {
          "internalType": "uint256",
          "name": "poolId",
          "type": "uint256"
        },
        {
          "internalType": "address[]",
          "name": "options",
          "type": "address[]"
        },
        {
          "internalType": "uint256[]",
          "name": "amounts",
          "type": "uint256[]"
        },
        {
          "internalType": "address[]",
          "name": "sourceSwap",
          "type": "address[]"
        }
      ],
      "name": "buyOptions",
      "outputs": [],
      "stateMutability": "nonpayable",
      "type": "function"
    },
    {
      "inputs": [
        {
          "internalType": "uint256",
          "name": "poolId",
          "type": "uint256"
        },
        {
          "internalType": "address",
          "name": "user",
          "type": "address"
        },
        {
          "internalType": "address",
          "name": "debtAsset",
          "type": "address"
        },
        {
          "internalType": "uint256",
          "name": "repayAmount",
          "type": "uint256"
        },
        {
          "internalType": "address",
          "name": "collateralAsset",
          "type": "address"
        }
      ],
      "name": "close",
      "outputs": [],
      "stateMutability": "nonpayable",
      "type": "function"
    },
    {
      "inputs": [
        {
          "internalType": "address[]",
          "name": "assets",
          "type": "address[]"
        },
        {
          "internalType": "uint256[]",
          "name": "amounts",
          "type": "uint256[]"
        },
        {
          "internalType": "uint256[]",
          "name": "premiums",
          "type": "uint256[]"
        },
        {
          "internalType": "address",
          "name": "initiator",
          "type": "address"
        },
        {
          "internalType": "bytes",
          "name": "params",
          "type": "bytes"
        }
      ],
      "name": "executeOperation",
      "outputs": [
        {
          "internalType": "bool",
          "name": "result",
          "type": "bool"
        }
      ],
      "stateMutability": "nonpayable",
      "type": "function"
    },
    {
      "inputs": [
        {
          "internalType": "uint256",
          "name": "poolId",
          "type": "uint256"
        },
        {
          "internalType": "address",
          "name": "user",
          "type": "address"
        },
        {
          "internalType": "address[]",
          "name": "options",
          "type": "address[]"
        },
        {
          "internalType": "uint256[]",
          "name": "amounts",
          "type": "uint256[]"
        },
        {
          "internalType": "address",
          "name": "collateralAsset",
          "type": "address"
        }
      ],
      "name": "liquidate",
      "outputs": [],
      "stateMutability": "nonpayable",
      "type": "function"
    },
    {
      "inputs": [
        {
          "internalType": "address",
          "name": "asset",
          "type": "address"
        }
      ],
      "name": "removeDust",
      "outputs": [],
      "stateMutability": "nonpayable",
      "type": "function"
    },
    {
      "inputs": [
        {
          "internalType": "uint256",
          "name": "poolId",
          "type": "uint256"
        },
        {
          "internalType": "address",
          "name": "optionAddress",
          "type": "address"
        },
        {
          "internalType": "uint256",
          "name": "amount0",
          "type": "uint256"
        },
        {
          "internalType": "uint256",
          "name": "amount1",
          "type": "uint256"
        }
      ],
      "name": "sellOptions",
      "outputs": [],
      "stateMutability": "nonpayable",
      "type": "function"
    },
    {
      "inputs": [
        {
          "internalType": "uint256",
          "name": "poolId",
          "type": "uint256"
        },
        {
          "internalType": "address",
          "name": "sourceAsset",
          "type": "address"
        },
        {
          "internalType": "uint256",
          "name": "amount",
          "type": "uint256"
        }
      ],
      "name": "swapTokens",
      "outputs": [
        {
          "internalType": "uint256",
          "name": "received",
          "type": "uint256"
        }
      ],
      "stateMutability": "nonpayable",
      "type": "function"
    },
    {
      "inputs": [
        {
          "internalType": "uint256",
          "name": "poolId",
          "type": "uint256"
        },
        {
          "internalType": "address",
          "name": "optionAddress",
          "type": "address"
        },
        {
          "internalType": "uint256",
          "name": "amount",
          "type": "uint256"
        }
      ],
      "name": "withdrawOptions",
      "outputs": [],
      "stateMutability": "nonpayable",
      "type": "function"
    }
  ],
  "bytecode": "60806040523480156200001157600080fd5b50604051620048a2380380620048a28339810160408190526200003491620000a9565b806001600160a01b038116620000825760405162461bcd60e51b815260206004820152600f60248201526e496e76616c6964206164647265737360881b604482015260640160405180910390fd5b600280546001600160a01b0319166001600160a01b039290921691909117905550620000db565b600060208284031215620000bc57600080fd5b81516001600160a01b0381168114620000d457600080fd5b9392505050565b6147b780620000eb6000396000f3fe608060405234801561001057600080fd5b50600436106100a95760003560e01c8063920f5c8411610071578063920f5c841461013a578063ae7bb1c91461015d578063b4dcfc7714610170578063bc93608014610183578063bead34ed14610196578063bf317e0d146101a957600080fd5b80630542975c146100ae57806325827d86146100de57806349a380a4146100f35780635137223c1461010657806373b25a7514610119575b600080fd5b6000546100c1906001600160a01b031681565b6040516001600160a01b0390911681526020015b60405180910390f35b6100f16100ec366004613aab565b6101bc565b005b6100f1610101366004613ae8565b6103bb565b6100f1610114366004613b20565b610556565b61012c610127366004613ae8565b610641565b6040519081526020016100d5565b61014d610148366004613b89565b610941565b60405190151581526020016100d5565b6002546100c1906001600160a01b031681565b6001546100c1906001600160a01b031681565b6100f1610191366004613df2565b6109c6565b6100f16101a4366004613e84565b610b55565b6100f16101b7366004613f19565b610cff565b6000806000806101cb88610eca565b6040516335ea6a7560e01b81526001600160a01b038d8116600483015295995093975090955093506000928716916335ea6a75915060240161018060405180830381865afa158015610221573d6000803e3d6000fd5b505050506040513d601f19601f82011682018060405250810190610245919061400b565b60e001516001600160a01b03160361029b5760405162461bcd60e51b81526020600482015260146024820152734f504d3a20496e76616c6964204164647265737360601b60448201526064015b60405180910390fd5b6102a78433848961102e565b6102b38433838861102e565b6102be828888611194565b6102c9818887611194565b604051631c57762b60e31b815260048101879052602481018690526000906001600160a01b0389169063e2bbb158906044016020604051808303816000875af115801561031a573d6000803e3d6000fd5b505050506040513d601f19601f8201168201806040525081019061033e91906140f8565b60408051828152602081018a90529081018890529091506001600160a01b0389169033907f0dbd48b56a2e9ac34c40fae975ada1074775db4868173b67b65cd271fc7b49599060600160405180910390a361039a85338a611228565b6103a5853385611228565b6103b0853384611228565b505050505050505050565b60008060006103c986610eca565b6040516335ea6a7560e01b81526001600160a01b038b811660048301529598509196509450600093871692506335ea6a75915060240161018060405180830381865afa15801561041d573d6000803e3d6000fd5b505050506040513d601f19601f82011682018060405250810190610441919061400b565b60e001516001600160a01b0316036104925760405162461bcd60e51b81526020600482015260146024820152734f504d3a20496e76616c6964204164647265737360601b6044820152606401610292565b61049e8333878761102e565b60405163a41fe49f60e01b815260048101859052600060248201819052604482018190529081906001600160a01b0388169063a41fe49f9060640160408051808303816000875af11580156104f7573d6000803e3d6000fd5b505050506040513d601f19601f8201168201806040525081019061051b9190614111565b9150915061052b87878484611503565b610536853389611228565b610541853386611228565b61054c853385611228565b5050505050505050565b600254604080516361d027b360e01b8152905161063e926001600160a01b0316916361d027b39160048083019260209291908290030181865afa1580156105a1573d6000803e3d6000fd5b505050506040513d601f19601f820116820180604052508101906105c59190614135565b6040516370a0823160e01b81523060048201526001600160a01b038416906370a0823190602401602060405180830381865afa158015610609573d6000803e3d6000fd5b505050506040513d601f19601f8201168201806040525081019061062d91906140f8565b6001600160a01b0384169190611875565b50565b60008060008060008061065389610eca565b94509450945094509450816001600160a01b0316886001600160a01b0316148061068e5750806001600160a01b0316886001600160a01b0316145b6106da5760405162461bcd60e51b815260206004820152601760248201527f4f504d3a20496e76616c696420537761702041737365740000000000000000006044820152606401610292565b866000036107d2576040516335ea6a7560e01b81526001600160a01b0389811660048301528616906335ea6a759060240161018060405180830381865afa158015610729573d6000803e3d6000fd5b505050506040513d601f19601f8201168201806040525081019061074d919061400b565b60e001516040516370a0823160e01b81523360048201526001600160a01b03909116906370a0823190602401602060405180830381865afa158015610796573d6000803e3d6000fd5b505050506040513d601f19601f820116820180604052508101906107ba91906140f8565b9650866000036107d25760009550505050505061093a565b6107de85338a8a61102e565b604080516002808252606082018352600092602083019080368337019050509050888160008151811061081357610813614152565b6001600160a01b0392831660209182029290920101528981169084161461083a578261083c565b815b8160018151811061084f5761084f614152565b60200260200101906001600160a01b031690816001600160a01b03168152505061087b84868a846118d8565b9650610888863385611228565b610893863384611228565b336001600160a01b03167f5380cf97d8f645d3c4896da60c053458dca03a3a31cec642ac80e1ddf0d8d02a826000815181106108d1576108d1614152565b60200260200101518a846001815181106108ed576108ed614152565b60200260200101518b60405161092b94939291906001600160a01b039485168152602081019390935292166040820152606081019190915260800190565b60405180910390a25050505050505b9392505050565b60008061095083850185614168565b90508060ff1660000361098b576000808061096d86880188614185565b93509350935050610983838f8f8f8f8787611a9e565b5050506109b5565b6000808061099b868801886141e5565b935093509350506109b1838f8f8f8f8787611bbd565b5050505b5060019a9950505050505050505050565b815183511480156109d8575082518151145b610a245760405162461bcd60e51b815260206004820152601a60248201527f4f504d3a204172726179204c656e677468204d69736d617463680000000000006044820152606401610292565b600080853384604051602001610a3d949392919061427c565b60405160208183030381529060405290506000610a5986610eca565b5050505090506000855167ffffffffffffffff811115610a7b57610a7b613c8e565b604051908082528060200260200182016040528015610aa4578160200160208202803683370190505b50905060005b86518160ff161015610ae0576002828260ff1681518110610acd57610acd614152565b6020908102919091010152600101610aaa565b5060405163ab9c4b5d60e01b81526001600160a01b0383169063ab9c4b5d90610b1a9030908a908a90879033908b90600090600401614336565b600060405180830381600087803b158015610b3457600080fd5b505af1158015610b48573d6000803e3d6000fd5b5050505050505050505050565b8151835114610b9b5760405162461bcd60e51b8152602060048201526012602482015271082a4a482b2be988a9cbe9a92a69a82a886960731b6044820152606401610292565b60408051600160208201529081018690526001600160a01b0380861660608301528216608082015260009060a00160405160208183030381529060405290506000806000610be889610eca565b94509450505092506000875167ffffffffffffffff811115610c0c57610c0c613c8e565b604051908082528060200260200182016040528015610c35578160200160208202803683370190505b50905060005b88518160ff161015610c71576000828260ff1681518110610c5e57610c5e614152565b6020908102919091010152600101610c3b565b5060405163ab9c4b5d60e01b81526001600160a01b0385169063ab9c4b5d90610cab9030908c908c90879033908d90600090600401614336565b600060405180830381600087803b158015610cc557600080fd5b505af1158015610cd9573d6000803e3d6000fd5b50505050610ce8843385611228565b610cf3843384611228565b50505050505050505050565b6000806000610d0d88610eca565b6040516335ea6a7560e01b81526001600160a01b038c811660048301529598509196509450600093871692506335ea6a75915060240161018060405180830381865afa158015610d61573d6000803e3d6000fd5b505050506040513d601f19601f82011682018060405250810190610d85919061400b565b61012001516040516370a0823160e01b81526001600160a01b038a81166004830152909116906370a0823190602401602060405180830381865afa158015610dd1573d6000803e3d6000fd5b505050506040513d601f19601f82011682018060405250810190610df591906140f8565b9050600086118015610e0657508086105b15610e0e5750845b60008111610e4d5760405162461bcd60e51b815260206004820152600c60248201526b13d4134e88139bc81119589d60a21b6044820152606401610292565b610e5a8989898489611f79565b9050610e67848985611228565b610e72848984611228565b866001600160a01b0316886001600160a01b03167f16331435a4b4fc629446f9123c94a92e6a4d89b5305ceed74754276490cb02cf83604051610eb791815260200190565b60405180910390a3505050505050505050565b6002546040516315895f4760e31b815260048101839052600091829182918291829182918291829182916001600160a01b03169063ac4afa389060240160a060405180830381865afa158015610f24573d6000803e3d6000fd5b505050506040513d601f19601f82011682018060405250810190610f4891906143c4565b509350935093509350829550819450836001600160a01b0316630261bf8b6040518163ffffffff1660e01b8152600401602060405180830381865afa158015610f95573d6000803e3d6000fd5b505050506040513d601f19601f82011682018060405250810190610fb99190614135565b9850836001600160a01b031663fca513a86040518163ffffffff1660e01b8152600401602060405180830381865afa158015610ff9573d6000803e3d6000fd5b505050506040513d601f19601f8201168201806040525081019061101d9190614135565b989a98995097949650929450505050565b801561118e576040516335ea6a7560e01b81526001600160a01b0383811660048301528516906308ebbd269082906335ea6a759060240161018060405180830381865afa158015611083573d6000803e3d6000fd5b505050506040513d601f19601f820116820180604052508101906110a7919061400b565b60e0908101516040519183901b6001600160e01b03191682526001600160a01b0390811660048301528616602482015260448101849052606401600060405180830381600087803b1580156110fb57600080fd5b505af115801561110f573d6000803e3d6000fd5b5050604051631a4ca37b60e21b81526001600160a01b03858116600483015260248201859052306044830152871692506369328dec91506064016020604051808303816000875af1158015611168573d6000803e3d6000fd5b505050506040513d601f19601f8201168201806040525081019061118c91906140f8565b505b50505050565b604051636eb1769f60e11b81523060048201526001600160a01b03838116602483015282919085169063dd62ed3e90604401602060405180830381865afa1580156111e3573d6000803e3d6000fd5b505050506040513d601f19601f8201168201806040525081019061120791906140f8565b1015611223576112236001600160a01b03841683600019612816565b505050565b6040516370a0823160e01b81523060048201526000906001600160a01b038316906370a0823190602401602060405180830381865afa15801561126f573d6000803e3d6000fd5b505050506040513d601f19601f8201168201806040525081019061129391906140f8565b9050801561118e576112a6828583611194565b6040516335ea6a7560e01b81526001600160a01b038381166004830152600091908616906335ea6a759060240161018060405180830381865afa1580156112f1573d6000803e3d6000fd5b505050506040513d601f19601f82011682018060405250810190611315919061400b565b61012001516040516370a0823160e01b81526001600160a01b038681166004830152909116906370a0823190602401602060405180830381865afa158015611361573d6000803e3d6000fd5b505050506040513d601f19601f8201168201806040525081019061138591906140f8565b90508015611496578082116114125760405163573ade8160e01b81526001600160a01b0386169063573ade81906113c790869086906002908a90600401614434565b6020604051808303816000875af11580156113e6573d6000803e3d6000fd5b505050506040513d601f19601f8201168201806040525081019061140a91906140f8565b505050505050565b60405163573ade8160e01b81526001600160a01b0386169063573ade819061144590869085906002908a90600401614434565b6020604051808303816000875af1158015611464573d6000803e3d6000fd5b505050506040513d601f19601f8201168201806040525081019061148891906140f8565b506114938183614475565b91505b60405163e8eda9df60e01b81526001600160a01b0384811660048301526024820184905285811660448301526000606483015286169063e8eda9df90608401600060405180830381600087803b1580156114ef57600080fd5b505af11580156103b0573d6000803e3d6000fd5b6000846001600160a01b03166338013f026040518163ffffffff1660e01b8152600401602060405180830381865afa158015611543573d6000803e3d6000fd5b505050506040513d601f19601f820116820180604052508101906115679190614135565b9050600080866001600160a01b031663443ec74d6040518163ffffffff1660e01b81526004016040805180830381865afa1580156115a9573d6000803e3d6000fd5b505050506040513d601f19601f820116820180604052508101906115cd919061448e565b91509150600080886001600160a01b0316635ee04d786040518163ffffffff1660e01b81526004016040805180830381865afa158015611611573d6000803e3d6000fd5b505050506040513d601f19601f82011682018060405250810190611635919061448e565b915091506000670de0b6b3a7640000898b6001600160a01b03166350d25bcd6040518163ffffffff1660e01b8152600401602060405180830381865afa158015611683573d6000803e3d6000fd5b505050506040513d601f19601f820116820180604052508101906116a791906140f8565b6116b191906144c8565b6116bb91906144df565b905060006116ca83600a6145e5565b60405163b3596f0760e01b81526001600160a01b03868116600483015289169063b3596f0790602401602060405180830381865afa158015611710573d6000803e3d6000fd5b505050506040513d601f19601f8201168201806040525081019061173491906140f8565b61173e908a6144c8565b61174891906144df565b61175386600a6145e5565b60405163b3596f0760e01b81526001600160a01b0389811660048301528a169063b3596f0790602401602060405180830381865afa158015611799573d6000803e3d6000fd5b505050506040513d601f19601f820116820180604052508101906117bd91906140f8565b6117c7908c6144c8565b6117d191906144df565b6117db91906145f4565b90506305f5e100821080156117f357506305f5e10081105b80611833575060646118068360626144c8565b61181091906144df565b81118015611833575060646118268360666144c8565b61183091906144df565b81105b610b485760405162461bcd60e51b815260206004820152601360248201527227a8269d1029b634b83830b3b29022b93937b960691b6044820152606401610292565b6040516001600160a01b03831660248201526044810182905261122390849063a9059cbb60e01b906064015b60408051601f198184030181529190526020810180516001600160e01b03166001600160e01b0319909316929092179091526128c8565b60008083118015611978575060405163d06ca61f60e01b81526000906001600160a01b0387169063d06ca61f906119159087908790600401614607565b6000604051808303816000875af1158015611934573d6000803e3d6000fd5b505050506040513d6000823e601f3d908101601f1916820160405261195c9190810190614620565b60018151811061196e5761196e614152565b6020026020010151115b15611a96576119a28260008151811061199357611993614152565b60200260200101518685611194565b6000856001600160a01b03166338ed17398560646119f689886000815181106119cd576119cd614152565b60200260200101518a8a6001815181106119e9576119e9614152565b602002602001015161299a565b611a019060636144c8565b611a0b91906144df565b8630426040518663ffffffff1660e01b8152600401611a2e9594939291906146a6565b6000604051808303816000875af1158015611a4d573d6000803e3d6000fd5b505050506040513d6000823e601f3d908101601f19168201604052611a759190810190614620565b905080600181518110611a8a57611a8a614152565b60200260200101519150505b949350505050565b6000806000611aac8a610eca565b9450945050509250336001600160a01b0316836001600160a01b031614611b0b5760405162461bcd60e51b815260206004820152601360248201527213d4134e8810d85b1b08155b985b1b1bddd959606a1b6044820152606401610292565b60005b60ff8116891115611ba65760008a8a8360ff16818110611b3057611b30614152565b9050602002016020810190611b459190613b20565b9050600089898460ff16818110611b5e57611b5e614152565b905060200201359050611b908d83838a8760ff1681518110611b8257611b82614152565b60200260200101518c612c36565b5050508080611b9e906146e2565b915050611b0e565b50611bb2838684611228565b610cf3838683611228565b6000806000611bcb8a610eca565b9450945050509250336001600160a01b0316836001600160a01b031614611c2a5760405162461bcd60e51b815260206004820152601360248201527213d4134e8810d85b1b08155b985b1b1bddd959606a1b6044820152606401610292565b60408051808201918290526370a0823160e01b909152306044820152600090806001600160a01b0385166370a0823160648301602060405180830381865afa158015611c7a573d6000803e3d6000fd5b505050506040513d601f19601f82011682018060405250810190611c9e91906140f8565b81526040516370a0823160e01b81523060048201526020909101906001600160a01b038516906370a0823190602401602060405180830381865afa158015611cea573d6000803e3d6000fd5b505050506040513d601f19601f82011682018060405250810190611d0e91906140f8565b9052905060005b60ff81168a1115611f6b5760008b8b8360ff16818110611d3757611d37614152565b9050602002016020810190611d4c9190613b20565b905060008a8a8460ff16818110611d6557611d65614152565b905060200201359050611d79828883611194565b60405162a718a960e01b81526001600160a01b03898116600483015283811660248301528a81166044830152606482018390526000608483015288169062a718a99060a401600060405180830381600087803b158015611dd857600080fd5b505af1158015611dec573d6000803e3d6000fd5b505050506000611dff8f3085858d611f79565b6040516370a0823160e01b81523060048201529091506000906001600160a01b038916906370a0823190602401602060405180830381865afa158015611e49573d6000803e3d6000fd5b505050506040513d601f19601f82011682018060405250810190611e6d91906140f8565b6040516370a0823160e01b81523060048201529091506000906001600160a01b038916906370a0823190602401602060405180830381865afa158015611eb7573d6000803e3d6000fd5b505050506040513d601f19601f82011682018060405250810190611edb91906140f8565b90506001600160a01b03808616908d167f11473f8e98477c5f8d293225476df74ef051ed687455ef4c509117ebd0040437858a60006020020151611f1f9087614475565b60208c0151611f2e9087614475565b6040805193845260208401929092529082015260600160405180910390a3908652602086015250829150611f639050816146e2565b915050611d15565b505050505050505050505050565b6000806000806000611f8a8a610eca565b945094509450509350611f9e888383612ed9565b816001600160a01b0316866001600160a01b03161480611fcf5750806001600160a01b0316866001600160a01b0316145b61201b5760405162461bcd60e51b815260206004820152601d60248201527f4f504d3a20496e76616c696420436f6c6c61746572616c2041737365740000006044820152606401610292565b6000806120298a8585613023565b612033908a6145f4565b9650896001600160a01b03166399d32fc46040518163ffffffff1660e01b8152600401600060405180830381600087803b15801561207057600080fd5b505af1158015612084573d6000803e3d6000fd5b5050604051631da7037360e11b8152600481018a9052600092508291506001600160a01b038d1690633b4e06e6906024016040805180830381865afa1580156120d1573d6000803e3d6000fd5b505050506040513d601f19601f820116820180604052508101906120f59190614111565b915091506121058c8a8484611503565b612110868d84611194565b61211b858d83611194565b6001600160a01b038d16301461235b576040516335ea6a7560e01b81526001600160a01b0387811660048301528916906335ea6a759060240161018060405180830381865afa158015612172573d6000803e3d6000fd5b505050506040513d601f19601f82011682018060405250810190612196919061400b565b60e001516040516370a0823160e01b81526001600160a01b038f81166004830152909116906370a0823190602401602060405180830381865afa1580156121e1573d6000803e3d6000fd5b505050506040513d601f19601f8201168201806040525081019061220591906140f8565b6040516335ea6a7560e01b81526001600160a01b038781166004830152919550908916906335ea6a759060240161018060405180830381865afa158015612250573d6000803e3d6000fd5b505050506040513d601f19601f82011682018060405250810190612274919061400b565b60e001516040516370a0823160e01b81526001600160a01b038f81166004830152909116906370a0823190602401602060405180830381865afa1580156122bf573d6000803e3d6000fd5b505050506040513d601f19601f820116820180604052508101906122e391906140f8565b92506122f1888e888761102e565b6122fd888e878661102e565b6001600160a01b038d16331461235657600061231b8f84848e6132ae565b9050866001600160a01b03168b6001600160a01b031603612347576123408186614475565b9450612354565b6123518185614475565b93505b505b612436565b6040516370a0823160e01b81526001600160a01b038e811660048301528716906370a0823190602401602060405180830381865afa1580156123a1573d6000803e3d6000fd5b505050506040513d601f19601f820116820180604052508101906123c591906140f8565b6040516370a0823160e01b81526001600160a01b038f81166004830152919550908616906370a0823190602401602060405180830381865afa15801561240f573d6000803e3d6000fd5b505050506040513d601f19601f8201168201806040525081019061243391906140f8565b92505b604080516002808252606082018352600092602083019080368337019050509050828510156124d957858160008151811061247357612473614152565b60200260200101906001600160a01b031690816001600160a01b03168152505086816001815181106124a7576124a7614152565b6001600160a01b03909216602092830291909101909101526124d4886124cd8786614475565b86846136e8565b612556565b818410156125565786816000815181106124f5576124f5614152565b60200260200101906001600160a01b031690816001600160a01b031681525050858160018151811061252957612529614152565b6001600160a01b03909216602092830291909101909101526125568861254f8685614475565b87846136e8565b604051631c57762b60e31b815260048101849052602481018390526001600160a01b038e169063e2bbb158906044016020604051808303816000875af11580156125a4573d6000803e3d6000fd5b505050506040513d601f19601f820116820180604052508101906125c891906140f8565b99505050506125d88a8789611194565b6001600160a01b038b16301461266057856001600160a01b031663573ade818b8960028f6040518563ffffffff1660e01b815260040161261b9493929190614434565b6020604051808303816000875af115801561263a573d6000803e3d6000fd5b505050506040513d601f19601f8201168201806040525081019061265e91906140f8565b505b6040516370a0823160e01b81523060048201526000906001600160a01b038616906370a0823190602401602060405180830381865afa1580156126a7573d6000803e3d6000fd5b505050506040513d601f19601f820116820180604052508101906126cb91906140f8565b6040516370a0823160e01b81523060048201529091506000906001600160a01b038616906370a0823190602401602060405180830381865afa158015612715573d6000803e3d6000fd5b505050506040513d601f19601f8201168201806040525081019061273991906140f8565b9050818411156127545761274d8285614475565b9150612759565b600091505b808311156127725761276b8184614475565b9050612776565b5060005b604080518a8152602081018490529081018290526001600160a01b03808e1691908f16907f13a9b207a6235519f908e828190fa2f938b5e52c7888b90b98b87125caebde6e9060600160405180910390a35050336001600160a01b038c1603612807576128058c856001600160a01b03168a6001600160a01b0316146127fc57856127fe565b845b6000610641565b505b50505050505095945050505050565b604051636eb1769f60e11b81523060048201526001600160a01b038381166024830152600091839186169063dd62ed3e90604401602060405180830381865afa158015612867573d6000803e3d6000fd5b505050506040513d601f19601f8201168201806040525081019061288b91906140f8565b61289591906145f4565b6040516001600160a01b03851660248201526044810182905290915061118e90859063095ea7b360e01b906064016118a1565b600061291d826040518060400160405280602081526020017f5361666545524332303a206c6f772d6c6576656c2063616c6c206661696c6564815250856001600160a01b03166139829092919063ffffffff16565b805190915015611223578080602001905181019061293b9190614701565b6112235760405162461bcd60e51b815260206004820152602a60248201527f5361666545524332303a204552433230206f7065726174696f6e20646964206e6044820152691bdd081cdd58d8d9595960b21b6064820152608401610292565b60405163b3596f0760e01b81526001600160a01b038481166004830152600091829187169063b3596f0790602401602060405180830381865afa1580156129e5573d6000803e3d6000fd5b505050506040513d601f19601f82011682018060405250810190612a0991906140f8565b60405163b3596f0760e01b81526001600160a01b03858116600483015291925060009188169063b3596f0790602401602060405180830381865afa158015612a55573d6000803e3d6000fd5b505050506040513d601f19601f82011682018060405250810190612a7991906140f8565b9050600082118015612a8b5750600081115b612ad75760405162461bcd60e51b815260206004820152601960248201527f4f504d3a20496e76616c6964204f7261636c65205072696365000000000000006044820152606401610292565b80866001600160a01b031663313ce5676040518163ffffffff1660e01b8152600401602060405180830381865afa158015612b16573d6000803e3d6000fd5b505050506040513d601f19601f82011682018060405250810190612b3a919061471c565b612b4590600a6145e5565b856001600160a01b031663313ce5676040518163ffffffff1660e01b8152600401602060405180830381865afa158015612b83573d6000803e3d6000fd5b505050506040513d601f19601f82011682018060405250810190612ba7919061471c565b612bb290600a6145e5565b612bbc85896144c8565b612bc691906144c8565b612bd091906144df565b612bda91906144df565b925060008311612c2c5760405162461bcd60e51b815260206004820152601a60248201527f4f504d3a2054617267657420416d6f756e7420546f6f204c6f770000000000006044820152606401610292565b5050949350505050565b6000806000806000612c478a610eca565b945094509450945050612c5b898383612ed9565b60405163a41fe49f60e01b815260048101899052600060248201819052604482018190529081906001600160a01b038c169063a41fe49f9060640160408051808303816000875af1158015612cb4573d6000803e3d6000fd5b505050506040513d601f19601f82011682018060405250810190612cd89190614111565b90925090506001600160a01b03891615612e7657836001600160a01b0316896001600160a01b03161480612d1d5750826001600160a01b0316896001600160a01b0316145b612d695760405162461bcd60e51b815260206004820152601760248201527f4f504d3a20496e76616c6964205377617020546f6b656e0000000000000000006044820152606401610292565b6040805160028082526060820183526000926020830190803683370190505090508981600081518110612d9e57612d9e614152565b6001600160a01b0392831660209182029290920101528a811690861614612dc55784612dc7565b835b81600181518110612dda57612dda614152565b6001600160a01b0392831660209182029290920101526000908b811690871614612e045782612e06565b835b90506000612e16888a84866118d8565b9050866001600160a01b03168c6001600160a01b031614612e4057612e3b81866145f4565b612e43565b60005b9450856001600160a01b03168c6001600160a01b031614612e6d57612e6881856145f4565b612e70565b60005b93505050505b604080518b8152602081018490529081018290526001600160a01b03808d1691908a16907fdc0cc97a08108cdb9e44a974a24bbf23b7d5871ba94674c1f06f3b020565bb239060600160405180910390a35060019b9a5050505050505050505050565b6000836001600160a01b031663443ec74d6040518163ffffffff1660e01b81526004016040805180830381865afa158015612f18573d6000803e3d6000fd5b505050506040513d601f19601f82011682018060405250810190612f3c919061448e565b5090506000846001600160a01b0316635ee04d786040518163ffffffff1660e01b81526004016040805180830381865afa158015612f7e573d6000803e3d6000fd5b505050506040513d601f19601f82011682018060405250810190612fa2919061448e565b509050816001600160a01b0316846001600160a01b0316148015612fd75750806001600160a01b0316836001600160a01b0316145b61118c5760405162461bcd60e51b815260206004820152601760248201527f4f504d3a20496e76616c696420446562742041737365740000000000000000006044820152606401610292565b600080846001600160a01b03166338013f026040518163ffffffff1660e01b8152600401602060405180830381865afa158015613064573d6000803e3d6000fd5b505050506040513d601f19601f820116820180604052508101906130889190614135565b60405163b3596f0760e01b81526001600160a01b0386811660048301529192506000916305f5e100919084169063b3596f0790602401602060405180830381865afa1580156130db573d6000803e3d6000fd5b505050506040513d601f19601f820116820180604052508101906130ff91906140f8565b866001600160a01b031663313ce5676040518163ffffffff1660e01b8152600401602060405180830381865afa15801561313d573d6000803e3d6000fd5b505050506040513d601f19601f82011682018060405250810190613161919061471c565b61316c906014614739565b61317790600a6145e5565b61318191906144c8565b61318b91906144df565b60405163b3596f0760e01b81526001600160a01b0386811660048301529192506000916305f5e100919085169063b3596f0790602401602060405180830381865afa1580156131de573d6000803e3d6000fd5b505050506040513d601f19601f8201168201806040525081019061320291906140f8565b866001600160a01b031663313ce5676040518163ffffffff1660e01b8152600401602060405180830381865afa158015613240573d6000803e3d6000fd5b505050506040513d601f19601f82011682018060405250810190613264919061471c565b61326f906014614739565b61327a90600a6145e5565b61328491906144c8565b61328e91906144df565b9050808211156132a0578193506132a4565b8093505b5050509392505050565b6000806000806132bd88610eca565b94509450509350506000816001600160a01b031663313ce5676040518163ffffffff1660e01b8152600401602060405180830381865afa158015613305573d6000803e3d6000fd5b505050506040513d601f19601f82011682018060405250810190613329919061471c565b61333490600a6145e5565b60405163b3596f0760e01b81526001600160a01b03848116600483015286169063b3596f0790602401602060405180830381865afa15801561337a573d6000803e3d6000fd5b505050506040513d601f19601f8201168201806040525081019061339e91906140f8565b6133a890896144c8565b6133b291906144df565b836001600160a01b031663313ce5676040518163ffffffff1660e01b8152600401602060405180830381865afa1580156133f0573d6000803e3d6000fd5b505050506040513d601f19601f82011682018060405250810190613414919061471c565b61341f90600a6145e5565b60405163b3596f0760e01b81526001600160a01b03868116600483015287169063b3596f0790602401602060405180830381865afa158015613465573d6000803e3d6000fd5b505050506040513d601f19601f8201168201806040525081019061348991906140f8565b613493908b6144c8565b61349d91906144df565b6134a791906145f4565b60405163b3596f0760e01b81526001600160a01b0388811660048301529192509085169063b3596f0790602401602060405180830381865afa1580156134f1573d6000803e3d6000fd5b505050506040513d601f19601f8201168201806040525081019061351591906140f8565b6064876001600160a01b031663313ce5676040518163ffffffff1660e01b8152600401602060405180830381865afa158015613555573d6000803e3d6000fd5b505050506040513d601f19601f82011682018060405250810190613579919061471c565b61358490600a6145e5565b61358e90846144c8565b61359891906144df565b6135a291906144df565b6040516370a0823160e01b81523060048201529095506001600160a01b038716906370a0823190602401602060405180830381865afa1580156135e9573d6000803e3d6000fd5b505050506040513d601f19601f8201168201806040525081019061360d91906140f8565b85111561365c5760405162461bcd60e51b815260206004820152601c60248201527f4f504d3a20496e73756666696369656e7420436f6c6c61746572616c000000006044820152606401610292565b600254604080516361d027b360e01b815290516136dc926001600160a01b0316916361d027b39160048083019260209291908290030181865afa1580156136a7573d6000803e3d6000fd5b505050506040513d601f19601f820116820180604052508101906136cb9190614135565b6001600160a01b0388169087611875565b50505050949350505050565b61370d816000815181106136fe576136fe614152565b60200260200101518584611194565b6040516307c0329d60e21b81526000906001600160a01b03861690631f00ca749061373e9087908690600401614607565b6000604051808303816000875af115801561375d573d6000803e3d6000fd5b505050506040513d6000823e601f3d908101601f191682016040526137859190810190614620565b9050828160008151811061379b5761379b614152565b6020026020010151111580156137cb57506000816000815181106137c1576137c1614152565b6020026020010151115b6138175760405162461bcd60e51b815260206004820152601960248201527f4f504d3a20496e76616c6964205377617020416d6f756e7473000000000000006044820152606401610292565b8160008151811061382a5761382a614152565b60209081029190910101516040516370a0823160e01b81523060048201526001600160a01b03909116906370a0823190602401602060405180830381865afa15801561387a573d6000803e3d6000fd5b505050506040513d601f19601f8201168201806040525081019061389e91906140f8565b816000815181106138b1576138b1614152565b602002602001015111156139075760405162461bcd60e51b815260206004820152601e60248201527f4f504d3a20496e73756666696369656e7420546f6b656e20416d6f756e7400006044820152606401610292565b604051634401edf760e11b81526001600160a01b03861690638803dbee9061393b90879087908790309042906004016146a6565b6000604051808303816000875af115801561395a573d6000803e3d6000fd5b505050506040513d6000823e601f3d908101601f1916820160405261140a9190810190614620565b6060611a968484600085856001600160a01b0385163b6139e45760405162461bcd60e51b815260206004820152601d60248201527f416464726573733a2063616c6c20746f206e6f6e2d636f6e74726163740000006044820152606401610292565b600080866001600160a01b03168587604051613a009190614752565b60006040518083038185875af1925050503d8060008114613a3d576040519150601f19603f3d011682016040523d82523d6000602084013e613a42565b606091505b5091509150613a52828286613a5d565b979650505050505050565b60608315613a6c57508161093a565b825115613a7c5782518084602001fd5b8160405162461bcd60e51b8152600401610292919061476e565b6001600160a01b038116811461063e57600080fd5b60008060008060808587031215613ac157600080fd5b843593506020850135613ad381613a96565b93969395505050506040820135916060013590565b600080600060608486031215613afd57600080fd5b833592506020840135613b0f81613a96565b929592945050506040919091013590565b600060208284031215613b3257600080fd5b813561093a81613a96565b60008083601f840112613b4f57600080fd5b50813567ffffffffffffffff811115613b6757600080fd5b6020830191508360208260051b8501011115613b8257600080fd5b9250929050565b600080600080600080600080600060a08a8c031215613ba757600080fd5b893567ffffffffffffffff80821115613bbf57600080fd5b613bcb8d838e01613b3d565b909b50995060208c0135915080821115613be457600080fd5b613bf08d838e01613b3d565b909950975060408c0135915080821115613c0957600080fd5b613c158d838e01613b3d565b909750955060608c01359150613c2a82613a96565b90935060808b01359080821115613c4057600080fd5b818c0191508c601f830112613c5457600080fd5b813581811115613c6357600080fd5b8d6020828501011115613c7557600080fd5b6020830194508093505050509295985092959850929598565b634e487b7160e01b600052604160045260246000fd5b604051610180810167ffffffffffffffff81118282101715613cc857613cc8613c8e565b60405290565b604051601f8201601f1916810167ffffffffffffffff81118282101715613cf757613cf7613c8e565b604052919050565b600067ffffffffffffffff821115613d1957613d19613c8e565b5060051b60200190565b600082601f830112613d3457600080fd5b81356020613d49613d4483613cff565b613cce565b82815260059290921b84018101918181019086841115613d6857600080fd5b8286015b84811015613d8c578035613d7f81613a96565b8352918301918301613d6c565b509695505050505050565b600082601f830112613da857600080fd5b81356020613db8613d4483613cff565b82815260059290921b84018101918181019086841115613dd757600080fd5b8286015b84811015613d8c5780358352918301918301613ddb565b60008060008060808587031215613e0857600080fd5b84359350602085013567ffffffffffffffff80821115613e2757600080fd5b613e3388838901613d23565b94506040870135915080821115613e4957600080fd5b613e5588838901613d97565b93506060870135915080821115613e6b57600080fd5b50613e7887828801613d23565b91505092959194509250565b600080600080600060a08688031215613e9c57600080fd5b853594506020860135613eae81613a96565b9350604086013567ffffffffffffffff80821115613ecb57600080fd5b613ed789838a01613d23565b94506060880135915080821115613eed57600080fd5b50613efa88828901613d97565b9250506080860135613f0b81613a96565b809150509295509295909350565b600080600080600060a08688031215613f3157600080fd5b853594506020860135613f4381613a96565b93506040860135613f5381613a96565b9250606086013591506080860135613f0b81613a96565b600060208284031215613f7c57600080fd5b6040516020810181811067ffffffffffffffff82111715613f9f57613f9f613c8e565b6040529151825250919050565b80516fffffffffffffffffffffffffffffffff81168114613fcc57600080fd5b919050565b805164ffffffffff81168114613fcc57600080fd5b8051613fcc81613a96565b60ff8116811461063e57600080fd5b8051613fcc81613ff1565b6000610180828403121561401e57600080fd5b614026613ca4565b6140308484613f6a565b815261403e60208401613fac565b602082015261404f60408401613fac565b604082015261406060608401613fac565b606082015261407160808401613fac565b608082015261408260a08401613fac565b60a082015261409360c08401613fd1565b60c08201526140a460e08401613fe6565b60e08201526101006140b7818501613fe6565b908201526101206140c9848201613fe6565b908201526101406140db848201613fe6565b908201526101606140ed848201614000565b908201529392505050565b60006020828403121561410a57600080fd5b5051919050565b6000806040838503121561412457600080fd5b505080516020909101519092909150565b60006020828403121561414757600080fd5b815161093a81613a96565b634e487b7160e01b600052603260045260246000fd5b60006020828403121561417a57600080fd5b813561093a81613ff1565b6000806000806080858703121561419b57600080fd5b84356141a681613ff1565b93506020850135925060408501356141bd81613a96565b9150606085013567ffffffffffffffff8111156141d957600080fd5b613e7887828801613d23565b600080600080608085870312156141fb57600080fd5b843561420681613ff1565b935060208501359250604085013561421d81613a96565b9150606085013561422d81613a96565b939692955090935050565b600081518084526020808501945080840160005b838110156142715781516001600160a01b03168752958201959082019060010161424c565b509495945050505050565b60ff8516815283602082015260018060a01b03831660408201526080606082015260006142ac6080830184614238565b9695505050505050565b600081518084526020808501945080840160005b83811015614271578151875295820195908201906001016142ca565b60005b838110156143015781810151838201526020016142e9565b50506000910152565b600081518084526143228160208601602086016142e6565b601f01601f19169290920160200192915050565b600060018060a01b03808a16835260e0602084015261435860e084018a614238565b838103604085015261436a818a6142b6565b9050838103606085015261437e81896142b6565b9050818716608085015283810360a085015261439a818761430a565b9250505061ffff831660c083015298975050505050505050565b80518015158114613fcc57600080fd5b600080600080600060a086880312156143dc57600080fd5b85516143e781613a96565b60208701519095506143f881613a96565b604087015190945061440981613a96565b606087015190935061441a81613a96565b9150614428608087016143b4565b90509295509295909350565b6001600160a01b03948516815260208101939093526040830191909152909116606082015260800190565b634e487b7160e01b600052601160045260246000fd5b818103818111156144885761448861445f565b92915050565b600080604083850312156144a157600080fd5b82516144ac81613a96565b60208401519092506144bd81613ff1565b809150509250929050565b80820281158282048414176144885761448861445f565b6000826144fc57634e487b7160e01b600052601260045260246000fd5b500490565b600181815b8085111561453c5781600019048211156145225761452261445f565b8085161561452f57918102915b93841c9390800290614506565b509250929050565b60008261455357506001614488565b8161456057506000614488565b816001811461457657600281146145805761459c565b6001915050614488565b60ff8411156145915761459161445f565b50506001821b614488565b5060208310610133831016604e8410600b84101617156145bf575081810a614488565b6145c98383614501565b80600019048211156145dd576145dd61445f565b029392505050565b600061093a60ff841683614544565b808201808211156144885761448861445f565b828152604060208201526000611a966040830184614238565b6000602080838503121561463357600080fd5b825167ffffffffffffffff81111561464a57600080fd5b8301601f8101851361465b57600080fd5b8051614669613d4482613cff565b81815260059190911b8201830190838101908783111561468857600080fd5b928401925b82841015613a525783518252928401929084019061468d565b85815284602082015260a0604082015260006146c560a0830186614238565b6001600160a01b0394909416606083015250608001529392505050565b600060ff821660ff81036146f8576146f861445f565b60010192915050565b60006020828403121561471357600080fd5b61093a826143b4565b60006020828403121561472e57600080fd5b815161093a81613ff1565b60ff82811682821603908111156144885761448861445f565b600082516147648184602087016142e6565b9190910192915050565b60208152600061093a602083018461430a56fea2646970667358221220e71727d1bae65eb2b87891873472641baeecf6051dc704f237d5842f74dff84d64736f6c63430008130033",
  "bytecodeSha1": "4e70106b5e9bb65987bff84b16ec817c45e1bb72",
  "compiler": {
    "evm_version": "istanbul",
    "optimizer": {
      "enabled": true,
      "runs": 200
    },
    "version": "0.8.19+commit.7dd6d404"
  },
  "contractName": "OptionsPositionManager",
  "language": "Solidity",
  "natspec": {
    "kind": "dev",
    "methods": {
      "buyOptions(uint256,address[],uint256[],address[])": {
        "details": "Because tickers are one coin or the other depending on the price, one can only buy OTM options. You can get ITM put by buying OTM call and swapping, or get ITM call by buying OTM put and swapping. If you wanna swap, set sourceSwap to the asset you *dont* want, otherwise must be address(0x0)",
        "notice": "Buy a list of option. An option is a triplet [TRAddress, amount, putOrCall]",
        "params": {
          "amounts": "Option amounts list",
          "options": "Option addresses list",
          "poolId": "ID of the ROE lending pool",
          "sourceSwap": "Source swap address for call-put parity"
        }
      },
      "close(uint256,address,address,uint256,address)": {
        "notice": "Repays a TR debt and send tokens back to user",
        "params": {
          "collateralAsset": "Asset used for liquidation fee",
          "debtAsset": "the borrowed LP token address",
          "poolId": "ID of the ROE lending pool",
          "repayAmount": "amount of borrowed tokens to repay; 0 or higher than current debt will repay all",
          "user": "Owner of the debt"
        }
      },
      "constructor": {
        "params": {
          "roerouter": "Address of Roe whitelist router"
        }
      },
      "executeOperation(address[],uint256[],uint256[],address,bytes)": {
        "notice": "Aave-compatible flashloan receiver dispatch: open a leverage position or liquidate a position",
        "params": {
          "amounts": "The amount of the flash-borrowed asset",
          "assets": "The address of the flash-borrowed asset",
          "initiator": "The address of the flashloan initiator",
          "params": "The byte-encoded params passed when initiating the flashloan",
          "premiums": "The fee of the flash-borrowed asset"
        },
        "returns": {
          "result": "True if the execution of the operation succeeds, false otherwise"
        }
      },
      "liquidate(uint256,address,address[],uint256[],address)": {
        "details": "Flashloan the debt tokens to liquidate, then use liquidation assets to repay the flashloan",
        "notice": "Liquidate up to 50% of an unhealthy position",
        "params": {
          "amounts": "Array of borrowed Ticker assets amounts to repay",
          "collateralAsset": "Asset used for liquidation fee",
          "options": "Array of borrowed Ticker assets to repay",
          "poolId": "ID of the ROE lending pool",
          "user": "The owner of the loan to liquidate"
        }
      },
      "removeDust(address)": {
        "notice": "Send dust to treasury",
        "params": {
          "asset": "The token to transfer"
        }
      },
      "sellOptions(uint256,address,uint256,uint256)": {
        "details": "Amounts aren't checked and will revert if wrong. In 99.9% cases one of the amounts should be 0Collateral needs to be in Lending Pool already",
        "notice": "Sell options",
        "params": {
          "amount0": "The amount of underlying token0 to add",
          "amount1": "The amount of underlying token1 to add",
          "optionAddress": "The TokenisableRange representing the option",
          "poolId": "ID of the ROE lending pool"
        }
      },
      "swapTokens(uint256,address,uint256)": {
        "notice": "Swap user assets; useful to change user risk profile",
        "params": {
          "amount": "of asset to swap - if 0, swap all",
          "poolId": "Id of the pool",
          "sourceAsset": "Asset to be swapped"
        },
        "returns": {
          "received": "Amount of target token received"
        }
      },
      "withdrawOptions(uint256,address,uint256)": {
        "notice": "Stop selling = remove liquidity from a TR",
        "params": {
          "amount": "Amount of TR asset redeemed",
          "optionAddress": "Address of the TR asset",
          "poolId": "Id of the pool"
        }
      }
    },
    "version": 1
  },
  "opcodes": "PUSH1 0x80 PUSH1 0x40 MSTORE CALLVALUE DUP1 ISZERO PUSH2 0x10 JUMPI PUSH1 0x0 DUP1 REVERT JUMPDEST POP PUSH1 0x4 CALLDATASIZE LT PUSH2 0xA9 JUMPI PUSH1 0x0 CALLDATALOAD PUSH1 0xE0 SHR DUP1 PUSH4 0x920F5C84 GT PUSH2 0x71 JUMPI DUP1 PUSH4 0x920F5C84 EQ PUSH2 0x13A JUMPI DUP1 PUSH4 0xAE7BB1C9 EQ PUSH2 0x15D JUMPI DUP1 PUSH4 0xB4DCFC77 EQ PUSH2 0x170 JUMPI DUP1 PUSH4 0xBC936080 EQ PUSH2 0x183 JUMPI DUP1 PUSH4 0xBEAD34ED EQ PUSH2 0x196 JUMPI DUP1 PUSH4 0xBF317E0D EQ PUSH2 0x1A9 JUMPI PUSH1 0x0 DUP1 REVERT JUMPDEST DUP1 PUSH4 0x542975C EQ PUSH2 0xAE JUMPI DUP1 PUSH4 0x25827D86 EQ PUSH2 0xDE JUMPI DUP1 PUSH4 0x49A380A4 EQ PUSH2 0xF3 JUMPI DUP1 PUSH4 0x5137223C EQ PUSH2 0x106 JUMPI DUP1 PUSH4 0x73B25A75 EQ PUSH2 0x119 JUMPI JUMPDEST PUSH1 0x0 DUP1 REVERT JUMPDEST PUSH1 0x0 SLOAD PUSH2 0xC1 SWAP1 PUSH1 0x1 PUSH1 0x1 PUSH1 0xA0 SHL SUB AND DUP2 JUMP JUMPDEST PUSH1 0x40 MLOAD PUSH1 0x1 PUSH1 0x1 PUSH1 0xA0 SHL SUB SWAP1 SWAP2 AND DUP2 MSTORE PUSH1 0x20 ADD JUMPDEST PUSH1 0x40 MLOAD DUP1 SWAP2 SUB SWAP1 RETURN JUMPDEST PUSH2 0xF1 PUSH2 0xEC CALLDATASIZE PUSH1 0x4 PUSH2 0x3AAB JUMP JUMPDEST PUSH2 0x1BC JUMP JUMPDEST STOP JUMPDEST PUSH2 0xF1 PUSH2 0x101 CALLDATASIZE PUSH1 0x4 PUSH2 0x3AE8 JUMP JUMPDEST PUSH2 0x3BB JUMP JUMPDEST PUSH2 0xF1 PUSH2 0x114 CALLDATASIZE PUSH1 0x4 PUSH2 0x3B20 JUMP JUMPDEST PUSH2 0x556 JUMP JUMPDEST PUSH2 0x12C PUSH2 0x127 CALLDATASIZE PUSH1 0x4 PUSH2 0x3AE8 JUMP JUMPDEST PUSH2 0x641 JUMP JUMPDEST PUSH1 0x40 MLOAD SWAP1 DUP2 MSTORE PUSH1 0x20 ADD PUSH2 0xD5 JUMP JUMPDEST PUSH2 0x14D PUSH2 0x148 CALLDATASIZE PUSH1 0x4 PUSH2 0x3B89 JUMP JUMPDEST PUSH2 0x941 JUMP JUMPDEST PUSH1 0x40 MLOAD SWAP1 ISZERO ISZERO DUP2 MSTORE PUSH1 0x20 ADD PUSH2 0xD5 JUMP JUMPDEST PUSH1 0x2 SLOAD PUSH2 0xC1 SWAP1 PUSH1 0x1 PUSH1 0x1 PUSH1 0xA0 SHL SUB AND DUP2 JUMP JUMPDEST PUSH1 0x1 SLOAD PUSH2 0xC1 SWAP1 PUSH1 0x1 PUSH1 0x1 PUSH1 0xA0 SHL SUB AND DUP2 JUMP JUMPDEST PUSH2 0xF1 PUSH2 0x191 CALLDATASIZE PUSH1 0x4 PUSH2 0x3DF2 JUMP JUMPDEST PUSH2 0x9C6 JUMP JUMPDEST PUSH2 0xF1 PUSH2 0x1A4 CALLDATASIZE PUSH1 0x4 PUSH2 0x3E84 JUMP JUMPDEST PUSH2 0xB55 JUMP JUMPDEST PUSH2 0xF1 PUSH2 0x1B7 CALLDATASIZE PUSH1 0x4 PUSH2 0x3F19 JUMP JUMPDEST PUSH2 0xCFF JUMP JUMPDEST PUSH1 0x0 DUP1 PUSH1 0x0 DUP1 PUSH2 0x1CB DUP9 PUSH2 0xECA JUMP JUMPDEST PUSH1 0x40 MLOAD PUSH4 0x35EA6A75 PUSH1 0xE0 SHL DUP2 MSTORE PUSH1 0x1 PUSH1 0x1 PUSH1 0xA0 SHL SUB DUP14 DUP2 AND PUSH1 0x4 DUP4 ADD MSTORE SWAP6 SWAP10 POP SWAP4 SWAP8 POP SWAP1 SWAP6 POP SWAP4 POP PUSH1 0x0 SWAP3 DUP8 AND SWAP2 PUSH4 0x35EA6A75 SWAP2 POP PUSH1 0x24 ADD PUSH2 0x180 PUSH1 0x40 MLOAD DUP1 DUP4 SUB DUP2 DUP7 GAS STATICCALL ISZERO DUP1 ISZERO PUSH2 0x221 JUMPI RETURNDATASIZE PUSH1 0x0 DUP1 RETURNDATACOPY RETURNDATASIZE PUSH1 0x0 REVERT JUMPDEST POP POP POP POP PUSH1 0x40 MLOAD RETURNDATASIZE PUSH1 0x1F NOT PUSH1 0x1F DUP3 ADD AND DUP3 ADD DUP1 PUSH1 0x40 MSTORE POP DUP2 ADD SWAP1 PUSH2 0x245 SWAP2 SWAP1 PUSH2 0x400B JUMP JUMPDEST PUSH1 0xE0 ADD MLOAD PUSH1 0x1 PUSH1 0x1 PUSH1 0xA0 SHL SUB AND SUB PUSH2 0x29B JUMPI PUSH1 0x40 MLOAD PUSH3 0x461BCD PUSH1 0xE5 SHL DUP2 MSTORE PUSH1 0x20 PUSH1 0x4 DUP3 ADD MSTORE PUSH1 0x14 PUSH1 0x24 DUP3 ADD MSTORE PUSH20 0x4F504D3A20496E76616C69642041646472657373 PUSH1 0x60 SHL PUSH1 0x44 DUP3 ADD MSTORE PUSH1 0x64 ADD JUMPDEST PUSH1 0x40 MLOAD DUP1 SWAP2 SUB SWAP1 REVERT JUMPDEST PUSH2 0x2A7 DUP5 CALLER DUP5 DUP10 PUSH2 0x102E JUMP JUMPDEST PUSH2 0x2B3 DUP5 CALLER DUP4 DUP9 PUSH2 0x102E JUMP JUMPDEST PUSH2 0x2BE DUP3 DUP9 DUP9 PUSH2 0x1194 JUMP JUMPDEST PUSH2 0x2C9 DUP2 DUP9 DUP8 PUSH2 0x1194 JUMP JUMPDEST PUSH1 0x40 MLOAD PUSH4 0x1C57762B PUSH1 0xE3 SHL DUP2 MSTORE PUSH1 0x4 DUP2 ADD DUP8 SWAP1 MSTORE PUSH1 0x24 DUP2 ADD DUP7 SWAP1 MSTORE PUSH1 0x0 SWAP1 PUSH1 0x1 PUSH1 0x1 PUSH1 0xA0 SHL SUB DUP10 AND SWAP1 PUSH4 0xE2BBB158 SWAP1 PUSH1 0x44 ADD PUSH1 0x20 PUSH1 0x40 MLOAD DUP1 DUP4 SUB DUP2 PUSH1 0x0 DUP8 GAS CALL ISZERO DUP1 ISZERO PUSH2 0x31A JUMPI RETURNDATASIZE PUSH1 0x0 DUP1 RETURNDATACOPY RETURNDATASIZE PUSH1 0x0 REVERT JUMPDEST POP POP POP POP PUSH1 0x40 MLOAD RETURNDATASIZE PUSH1 0x1F NOT PUSH1 0x1F DUP3 ADD AND DUP3 ADD DUP1 PUSH1 0x40 MSTORE POP DUP2 ADD SWAP1 PUSH2 0x33E SWAP2 SWAP1 PUSH2 0x40F8 JUMP JUMPDEST PUSH1 0x40 DUP1 MLOAD DUP3 DUP2 MSTORE PUSH1 0x20 DUP2 ADD DUP11 SWAP1 MSTORE SWAP1 DUP2 ADD DUP9 SWAP1 MSTORE SWAP1 SWAP2 POP PUSH1 0x1 PUSH1 0x1 PUSH1 0xA0 SHL SUB DUP10 AND SWAP1 CALLER SWAP1 PUSH32 0xDBD48B56A2E9AC34C40FAE975ADA1074775DB4868173B67B65CD271FC7B4959 SWAP1 PUSH1 0x60 ADD PUSH1 0x40 MLOAD DUP1 SWAP2 SUB SWAP1 LOG3 PUSH2 0x39A DUP6 CALLER DUP11 PUSH2 0x1228 JUMP JUMPDEST PUSH2 0x3A5 DUP6 CALLER DUP6 PUSH2 0x1228 JUMP JUMPDEST PUSH2 0x3B0 DUP6 CALLER DUP5 PUSH2 0x1228 JUMP JUMPDEST POP POP POP POP POP POP POP POP POP JUMP JUMPDEST PUSH1 0x0 DUP1 PUSH1 0x0 PUSH2 0x3C9 DUP7 PUSH2 0xECA JUMP JUMPDEST PUSH1 0x40 MLOAD PUSH4 0x35EA6A75 PUSH1 0xE0 SHL DUP2 MSTORE PUSH1 0x1 PUSH1 0x1 PUSH1 0xA0 SHL SUB DUP12 DUP2 AND PUSH1 0x4 DUP4 ADD MSTORE SWAP6 SWAP9 POP SWAP2 SWAP7 POP SWAP5 POP PUSH1 0x0 SWAP4 DUP8 AND SWAP3 POP PUSH4 0x35EA6A75 SWAP2 POP PUSH1 0x24 ADD PUSH2 0x180 PUSH1 0x40 MLOAD DUP1 DUP4 SUB DUP2 DUP7 GAS STATICCALL ISZERO DUP1 ISZERO PUSH2 0x41D JUMPI RETURNDATASIZE PUSH1 0x0 DUP1 RETURNDATACOPY RETURNDATASIZE PUSH1 0x0 REVERT JUMPDEST POP POP POP POP PUSH1 0x40 MLOAD RETURNDATASIZE PUSH1 0x1F NOT PUSH1 0x1F DUP3 ADD AND DUP3 ADD DUP1 PUSH1 0x40 MSTORE POP DUP2 ADD SWAP1 PUSH2 0x441 SWAP2 SWAP1 PUSH2 0x400B JUMP JUMPDEST PUSH1 0xE0 ADD MLOAD PUSH1 0x1 PUSH1 0x1 PUSH1 0xA0 SHL SUB AND SUB PUSH2 0x492 JUMPI PUSH1 0x40 MLOAD PUSH3 0x461BCD PUSH1 0xE5 SHL DUP2 MSTORE PUSH1 0x20 PUSH1 0x4 DUP3 ADD MSTORE PUSH1 0x14 PUSH1 0x24 DUP3 ADD MSTORE PUSH20 0x4F504D3A20496E76616C69642041646472657373 PUSH1 0x60 SHL PUSH1 0x44 DUP3 ADD MSTORE PUSH1 0x64 ADD PUSH2 0x292 JUMP JUMPDEST PUSH2 0x49E DUP4 CALLER DUP8 DUP8 PUSH2 0x102E JUMP JUMPDEST PUSH1 0x40 MLOAD PUSH4 0xA41FE49F PUSH1 0xE0 SHL DUP2 MSTORE PUSH1 0x4 DUP2 ADD DUP6 SWAP1 MSTORE PUSH1 0x0 PUSH1 0x24 DUP3 ADD DUP2 SWAP1 MSTORE PUSH1 0x44 DUP3 ADD DUP2 SWAP1 MSTORE SWAP1 DUP2 SWAP1 PUSH1 0x1 PUSH1 0x1 PUSH1 0xA0 SHL SUB DUP9 AND SWAP1 PUSH4 0xA41FE49F SWAP1 PUSH1 0x64 ADD PUSH1 0x40 DUP1 MLOAD DUP1 DUP4 SUB DUP2 PUSH1 0x0 DUP8 GAS CALL ISZERO DUP1 ISZERO PUSH2 0x4F7 JUMPI RETURNDATASIZE PUSH1 0x0 DUP1 RETURNDATACOPY RETURNDATASIZE PUSH1 0x0 REVERT JUMPDEST POP POP POP POP PUSH1 0x40 MLOAD RETURNDATASIZE PUSH1 0x1F NOT PUSH1 0x1F DUP3 ADD AND DUP3 ADD DUP1 PUSH1 0x40 MSTORE POP DUP2 ADD SWAP1 PUSH2 0x51B SWAP2 SWAP1 PUSH2 0x4111 JUMP JUMPDEST SWAP2 POP SWAP2 POP PUSH2 0x52B DUP8 DUP8 DUP5 DUP5 PUSH2 0x1503 JUMP JUMPDEST PUSH2 0x536 DUP6 CALLER DUP10 PUSH2 0x1228 JUMP JUMPDEST PUSH2 0x541 DUP6 CALLER DUP7 PUSH2 0x1228 JUMP JUMPDEST PUSH2 0x54C DUP6 CALLER DUP6 PUSH2 0x1228 JUMP JUMPDEST POP POP POP POP POP POP POP POP JUMP JUMPDEST PUSH1 0x2 SLOAD PUSH1 0x40 DUP1 MLOAD PUSH4 0x61D027B3 PUSH1 0xE0 SHL DUP2 MSTORE SWAP1 MLOAD PUSH2 0x63E SWAP3 PUSH1 0x1 PUSH1 0x1 PUSH1 0xA0 SHL SUB AND SWAP2 PUSH4 0x61D027B3 SWAP2 PUSH1 0x4 DUP1 DUP4 ADD SWAP3 PUSH1 0x20 SWAP3 SWAP2 SWAP1 DUP3 SWAP1 SUB ADD DUP2 DUP7 GAS STATICCALL ISZERO DUP1 ISZERO PUSH2 0x5A1 JUMPI RETURNDATASIZE PUSH1 0x0 DUP1 RETURNDATACOPY RETURNDATASIZE PUSH1 0x0 REVERT JUMPDEST POP POP POP POP PUSH1 0x40 MLOAD RETURNDATASIZE PUSH1 0x1F NOT PUSH1 0x1F DUP3 ADD AND DUP3 ADD DUP1 PUSH1 0x40 MSTORE POP DUP2 ADD SWAP1 PUSH2 0x5C5 SWAP2 SWAP1 PUSH2 0x4135 JUMP JUMPDEST PUSH1 0x40 MLOAD PUSH4 0x70A08231 PUSH1 0xE0 SHL DUP2 MSTORE ADDRESS PUSH1 0x4 DUP3 ADD MSTORE PUSH1 0x1 PUSH1 0x1 PUSH1 0xA0 SHL SUB DUP5 AND SWAP1 PUSH4 0x70A08231 SWAP1 PUSH1 0x24 ADD PUSH1 0x20 PUSH1 0x40 MLOAD DUP1 DUP4 SUB DUP2 DUP7 GAS STATICCALL ISZERO DUP1 ISZERO PUSH2 0x609 JUMPI RETURNDATASIZE PUSH1 0x0 DUP1 RETURNDATACOPY RETURNDATASIZE PUSH1 0x0 REVERT JUMPDEST POP POP POP POP PUSH1 0x40 MLOAD RETURNDATASIZE PUSH1 0x1F NOT PUSH1 0x1F DUP3 ADD AND DUP3 ADD DUP1 PUSH1 0x40 MSTORE POP DUP2 ADD SWAP1 PUSH2 0x62D SWAP2 SWAP1 PUSH2 0x40F8 JUMP JUMPDEST PUSH1 0x1 PUSH1 0x1 PUSH1 0xA0 SHL SUB DUP5 AND SWAP2 SWAP1 PUSH2 0x1875 JUMP JUMPDEST POP JUMP JUMPDEST PUSH1 0x0 DUP1 PUSH1 0x0 DUP1 PUSH1 0x0 DUP1 PUSH2 0x653 DUP10 PUSH2 0xECA JUMP JUMPDEST SWAP5 POP SWAP5 POP SWAP5 POP SWAP5 POP SWAP5 POP DUP2 PUSH1 0x1 PUSH1 0x1 PUSH1 0xA0 SHL SUB AND DUP9 PUSH1 0x1 PUSH1 0x1 PUSH1 0xA0 SHL SUB AND EQ DUP1 PUSH2 0x68E JUMPI POP DUP1 PUSH1 0x1 PUSH1 0x1 PUSH1 0xA0 SHL SUB AND DUP9 PUSH1 0x1 PUSH1 0x1 PUSH1 0xA0 SHL SUB AND EQ JUMPDEST PUSH2 0x6DA JUMPI PUSH1 0x40 MLOAD PUSH3 0x461BCD PUSH1 0xE5 SHL DUP2 MSTORE PUSH1 0x20 PUSH1 0x4 DUP3 ADD MSTORE PUSH1 0x17 PUSH1 0x24 DUP3 ADD MSTORE PUSH32 0x4F504D3A20496E76616C69642053776170204173736574000000000000000000 PUSH1 0x44 DUP3 ADD MSTORE PUSH1 0x64 ADD PUSH2 0x292 JUMP JUMPDEST DUP7 PUSH1 0x0 SUB PUSH2 0x7D2 JUMPI PUSH1 0x40 MLOAD PUSH4 0x35EA6A75 PUSH1 0xE0 SHL DUP2 MSTORE PUSH1 0x1 PUSH1 0x1 PUSH1 0xA0 SHL SUB DUP10 DUP2 AND PUSH1 0x4 DUP4 ADD MSTORE DUP7 AND SWAP1 PUSH4 0x35EA6A75 SWAP1 PUSH1 0x24 ADD PUSH2 0x180 PUSH1 0x40 MLOAD DUP1 DUP4 SUB DUP2 DUP7 GAS STATICCALL ISZERO DUP1 ISZERO PUSH2 0x729 JUMPI RETURNDATASIZE PUSH1 0x0 DUP1 RETURNDATACOPY RETURNDATASIZE PUSH1 0x0 REVERT JUMPDEST POP POP POP POP PUSH1 0x40 MLOAD RETURNDATASIZE PUSH1 0x1F NOT PUSH1 0x1F DUP3 ADD AND DUP3 ADD DUP1 PUSH1 0x40 MSTORE POP DUP2 ADD SWAP1 PUSH2 0x74D SWAP2 SWAP1 PUSH2 0x400B JUMP JUMPDEST PUSH1 0xE0 ADD MLOAD PUSH1 0x40 MLOAD PUSH4 0x70A08231 PUSH1 0xE0 SHL DUP2 MSTORE CALLER PUSH1 0x4 DUP3 ADD MSTORE PUSH1 0x1 PUSH1 0x1 PUSH1 0xA0 SHL SUB SWAP1 SWAP2 AND SWAP1 PUSH4 0x70A08231 SWAP1 PUSH1 0x24 ADD PUSH1 0x20 PUSH1 0x40 MLOAD DUP1 DUP4 SUB DUP2 DUP7 GAS STATICCALL ISZERO DUP1 ISZERO PUSH2 0x796 JUMPI RETURNDATASIZE PUSH1 0x0 DUP1 RETURNDATACOPY RETURNDATASIZE PUSH1 0x0 REVERT JUMPDEST POP POP POP POP PUSH1 0x40 MLOAD RETURNDATASIZE PUSH1 0x1F NOT PUSH1 0x1F DUP3 ADD AND DUP3 ADD DUP1 PUSH1 0x40 MSTORE POP DUP2 ADD SWAP1 PUSH2 0x7BA SWAP2 SWAP1 PUSH2 0x40F8 JUMP JUMPDEST SWAP7 POP DUP7 PUSH1 0x0 SUB PUSH2 0x7D2 JUMPI PUSH1 0x0 SWAP6 POP POP POP POP POP POP PUSH2 0x93A JUMP JUMPDEST PUSH2 0x7DE DUP6 CALLER DUP11 DUP11 PUSH2 0x102E JUMP JUMPDEST PUSH1 0x40 DUP1 MLOAD PUSH1 0x2 DUP1 DUP3 MSTORE PUSH1 0x60 DUP3 ADD DUP4 MSTORE PUSH1 0x0 SWAP3 PUSH1 0x20 DUP4 ADD SWAP1 DUP1 CALLDATASIZE DUP4 CALLDATACOPY ADD SWAP1 POP POP SWAP1 POP DUP9 DUP2 PUSH1 0x0 DUP2 MLOAD DUP2 LT PUSH2 0x813 JUMPI PUSH2 0x813 PUSH2 0x4152 JUMP JUMPDEST PUSH1 0x1 PUSH1 0x1 PUSH1 0xA0 SHL SUB SWAP3 DUP4 AND PUSH1 0x20 SWAP2 DUP3 MUL SWAP3 SWAP1 SWAP3 ADD ADD MSTORE DUP10 DUP2 AND SWAP1 DUP5 AND EQ PUSH2 0x83A JUMPI DUP3 PUSH2 0x83C JUMP JUMPDEST DUP2 JUMPDEST DUP2 PUSH1 0x1 DUP2 MLOAD DUP2 LT PUSH2 0x84F JUMPI PUSH2 0x84F PUSH2 0x4152 JUMP JUMPDEST PUSH1 0x20 MUL PUSH1 0x20 ADD ADD SWAP1 PUSH1 0x1 PUSH1 0x1 PUSH1 0xA0 SHL SUB AND SWAP1 DUP2 PUSH1 0x1 PUSH1 0x1 PUSH1 0xA0 SHL SUB AND DUP2 MSTORE POP POP PUSH2 0x87B DUP5 DUP7 DUP11 DUP5 PUSH2 0x18D8 JUMP JUMPDEST SWAP7 POP PUSH2 0x888 DUP7 CALLER DUP6 PUSH2 0x1228 JUMP JUMPDEST PUSH2 0x893 DUP7 CALLER DUP5 PUSH2 0x1228 JUMP JUMPDEST CALLER PUSH1 0x1 PUSH1 0x1 PUSH1 0xA0 SHL SUB AND PUSH32 0x5380CF97D8F645D3C4896DA60C053458DCA03A3A31CEC642AC80E1DDF0D8D02A DUP3 PUSH1 0x0 DUP2 MLOAD DUP2 LT PUSH2 0x8D1 JUMPI PUSH2 0x8D1 PUSH2 0x4152 JUMP JUMPDEST PUSH1 0x20 MUL PUSH1 0x20 ADD ADD MLOAD DUP11 DUP5 PUSH1 0x1 DUP2 MLOAD DUP2 LT PUSH2 0x8ED JUMPI PUSH2 0x8ED PUSH2 0x4152 JUMP JUMPDEST PUSH1 0x20 MUL PUSH1 0x20 ADD ADD MLOAD DUP12 PUSH1 0x40 MLOAD PUSH2 0x92B SWAP5 SWAP4 SWAP3 SWAP2 SWAP1 PUSH1 0x1 PUSH1 0x1 PUSH1 0xA0 SHL SUB SWAP5 DUP6 AND DUP2 MSTORE PUSH1 0x20 DUP2 ADD SWAP4 SWAP1 SWAP4 MSTORE SWAP3 AND PUSH1 0x40 DUP3 ADD MSTORE PUSH1 0x60 DUP2 ADD SWAP2 SWAP1 SWAP2 MSTORE PUSH1 0x80 ADD SWAP1 JUMP JUMPDEST PUSH1 0x40 MLOAD DUP1 SWAP2 SUB SWAP1 LOG2 POP POP POP POP POP POP JUMPDEST SWAP4 SWAP3 POP POP POP JUMP JUMPDEST PUSH1 0x0 DUP1 PUSH2 0x950 DUP4 DUP6 ADD DUP6 PUSH2 0x4168 JUMP JUMPDEST SWAP1 POP DUP1 PUSH1 0xFF AND PUSH1 0x0 SUB PUSH2 0x98B JUMPI PUSH1 0x0 DUP1 DUP1 PUSH2 0x96D DUP7 DUP9 ADD DUP9 PUSH2 0x4185 JUMP JUMPDEST SWAP4 POP SWAP4 POP SWAP4 POP POP PUSH2 0x983 DUP4 DUP16 DUP16 DUP16 DUP16 DUP8 DUP8 PUSH2 0x1A9E JUMP JUMPDEST POP POP POP PUSH2 0x9B5 JUMP JUMPDEST PUSH1 0x0 DUP1 DUP1 PUSH2 0x99B DUP7 DUP9 ADD DUP9 PUSH2 0x41E5 JUMP JUMPDEST SWAP4 POP SWAP4 POP SWAP4 POP POP PUSH2 0x9B1 DUP4 DUP16 DUP16 DUP16 DUP16 DUP8 DUP8 PUSH2 0x1BBD JUMP JUMPDEST POP POP POP JUMPDEST POP PUSH1 0x1 SWAP11 SWAP10 POP POP POP POP POP POP POP POP POP POP JUMP JUMPDEST DUP2 MLOAD DUP4 MLOAD EQ DUP1 ISZERO PUSH2 0x9D8 JUMPI POP DUP3 MLOAD DUP2 MLOAD EQ JUMPDEST PUSH2 0xA24 JUMPI PUSH1 0x40 MLOAD PUSH3 0x461BCD PUSH1 0xE5 SHL DUP2 MSTORE PUSH1 0x20 PUSH1 0x4 DUP3 ADD MSTORE PUSH1 0x1A PUSH1 0x24 DUP3 ADD MSTORE PUSH32 0x4F504D3A204172726179204C656E677468204D69736D61746368000000000000 PUSH1 0x44 DUP3 ADD MSTORE PUSH1 0x64 ADD PUSH2 0x292 JUMP JUMPDEST PUSH1 0x0 DUP1 DUP6 CALLER DUP5 PUSH1 0x40 MLOAD PUSH1 0x20 ADD PUSH2 0xA3D SWAP5 SWAP4 SWAP3 SWAP2 SWAP1 PUSH2 0x427C JUMP JUMPDEST PUSH1 0x40 MLOAD PUSH1 0x20 DUP2 DUP4 SUB SUB DUP2 MSTORE SWAP1 PUSH1 0x40 MSTORE SWAP1 POP PUSH1 0x0 PUSH2 0xA59 DUP7 PUSH2 0xECA JUMP JUMPDEST POP POP POP POP SWAP1 POP PUSH1 0x0 DUP6 MLOAD PUSH8 0xFFFFFFFFFFFFFFFF DUP2 GT ISZERO PUSH2 0xA7B JUMPI PUSH2 0xA7B PUSH2 0x3C8E JUMP JUMPDEST PUSH1 0x40 MLOAD SWAP1 DUP1 DUP3 MSTORE DUP1 PUSH1 0x20 MUL PUSH1 0x20 ADD DUP3 ADD PUSH1 0x40 MSTORE DUP1 ISZERO PUSH2 0xAA4 JUMPI DUP2 PUSH1 0x20 ADD PUSH1 0x20 DUP3 MUL DUP1 CALLDATASIZE DUP4 CALLDATACOPY ADD SWAP1 POP JUMPDEST POP SWAP1 POP PUSH1 0x0 JUMPDEST DUP7 MLOAD DUP2 PUSH1 0xFF AND LT ISZERO PUSH2 0xAE0 JUMPI PUSH1 0x2 DUP3 DUP3 PUSH1 0xFF AND DUP2 MLOAD DUP2 LT PUSH2 0xACD JUMPI PUSH2 0xACD PUSH2 0x4152 JUMP JUMPDEST PUSH1 0x20 SWAP1 DUP2 MUL SWAP2 SWAP1 SWAP2 ADD ADD MSTORE PUSH1 0x1 ADD PUSH2 0xAAA JUMP JUMPDEST POP PUSH1 0x40 MLOAD PUSH4 0xAB9C4B5D PUSH1 0xE0 SHL DUP2 MSTORE PUSH1 0x1 PUSH1 0x1 PUSH1 0xA0 SHL SUB DUP4 AND SWAP1 PUSH4 0xAB9C4B5D SWAP1 PUSH2 0xB1A SWAP1 ADDRESS SWAP1 DUP11 SWAP1 DUP11 SWAP1 DUP8 SWAP1 CALLER SWAP1 DUP12 SWAP1 PUSH1 0x0 SWAP1 PUSH1 0x4 ADD PUSH2 0x4336 JUMP JUMPDEST PUSH1 0x0 PUSH1 0x40 MLOAD DUP1 DUP4 SUB DUP2 PUSH1 0x0 DUP8 DUP1 EXTCODESIZE ISZERO DUP1 ISZERO PUSH2 0xB34 JUMPI PUSH1 0x0 DUP1 REVERT JUMPDEST POP GAS CALL ISZERO DUP1 ISZERO PUSH2 0xB48 JUMPI RETURNDATASIZE PUSH1 0x0 DUP1 RETURNDATACOPY RETURNDATASIZE PUSH1 0x0 REVERT JUMPDEST POP POP POP POP POP POP POP POP POP POP POP JUMP JUMPDEST DUP2 MLOAD DUP4 MLOAD EQ PUSH2 0xB9B JUMPI PUSH1 0x40 MLOAD PUSH3 0x461BCD PUSH1 0xE5 SHL DUP2 MSTORE PUSH1 0x20 PUSH1 0x4 DUP3 ADD MSTORE PUSH1 0x12 PUSH1 0x24 DUP3 ADD MSTORE PUSH18 0x82A4A482B2BE988A9CBE9A92A69A82A8869 PUSH1 0x73 SHL PUSH1 0x44 DUP3 ADD MSTORE PUSH1 0x64 ADD PUSH2 0x292 JUMP JUMPDEST PUSH1 0x40 DUP1 MLOAD PUSH1 0x1 PUSH1 0x20 DUP3 ADD MSTORE SWAP1 DUP2 ADD DUP7 SWAP1 MSTORE PUSH1 0x1 PUSH1 0x1 PUSH1 0xA0 SHL SUB DUP1 DUP7 AND PUSH1 0x60 DUP4 ADD MSTORE DUP3 AND PUSH1 0x80 DUP3 ADD MSTORE PUSH1 0x0 SWAP1 PUSH1 0xA0 ADD PUSH1 0x40 MLOAD PUSH1 0x20 DUP2 DUP4 SUB SUB DUP2 MSTORE SWAP1 PUSH1 0x40 MSTORE SWAP1 POP PUSH1 0x0 DUP1 PUSH1 0x0 PUSH2 0xBE8 DUP10 PUSH2 0xECA JUMP JUMPDEST SWAP5 POP SWAP5 POP POP POP SWAP3 POP PUSH1 0x0 DUP8 MLOAD PUSH8 0xFFFFFFFFFFFFFFFF DUP2 GT ISZERO PUSH2 0xC0C JUMPI PUSH2 0xC0C PUSH2 0x3C8E JUMP JUMPDEST PUSH1 0x40 MLOAD SWAP1 DUP1 DUP3 MSTORE DUP1 PUSH1 0x20 MUL PUSH1 0x20 ADD DUP3 ADD PUSH1 0x40 MSTORE DUP1 ISZERO PUSH2 0xC35 JUMPI DUP2 PUSH1 0x20 ADD PUSH1 0x20 DUP3 MUL DUP1 CALLDATASIZE DUP4 CALLDATACOPY ADD SWAP1 POP JUMPDEST POP SWAP1 POP PUSH1 0x0 JUMPDEST DUP9 MLOAD DUP2 PUSH1 0xFF AND LT ISZERO PUSH2 0xC71 JUMPI PUSH1 0x0 DUP3 DUP3 PUSH1 0xFF AND DUP2 MLOAD DUP2 LT PUSH2 0xC5E JUMPI PUSH2 0xC5E PUSH2 0x4152 JUMP JUMPDEST PUSH1 0x20 SWAP1 DUP2 MUL SWAP2 SWAP1 SWAP2 ADD ADD MSTORE PUSH1 0x1 ADD PUSH2 0xC3B JUMP JUMPDEST POP PUSH1 0x40 MLOAD PUSH4 0xAB9C4B5D PUSH1 0xE0 SHL DUP2 MSTORE PUSH1 0x1 PUSH1 0x1 PUSH1 0xA0 SHL SUB DUP6 AND SWAP1 PUSH4 0xAB9C4B5D SWAP1 PUSH2 0xCAB SWAP1 ADDRESS SWAP1 DUP13 SWAP1 DUP13 SWAP1 DUP8 SWAP1 CALLER SWAP1 DUP14 SWAP1 PUSH1 0x0 SWAP1 PUSH1 0x4 ADD PUSH2 0x4336 JUMP JUMPDEST PUSH1 0x0 PUSH1 0x40 MLOAD DUP1 DUP4 SUB DUP2 PUSH1 0x0 DUP8 DUP1 EXTCODESIZE ISZERO DUP1 ISZERO PUSH2 0xCC5 JUMPI PUSH1 0x0 DUP1 REVERT JUMPDEST POP GAS CALL ISZERO DUP1 ISZERO PUSH2 0xCD9 JUMPI RETURNDATASIZE PUSH1 0x0 DUP1 RETURNDATACOPY RETURNDATASIZE PUSH1 0x0 REVERT JUMPDEST POP POP POP POP PUSH2 0xCE8 DUP5 CALLER DUP6 PUSH2 0x1228 JUMP JUMPDEST PUSH2 0xCF3 DUP5 CALLER DUP5 PUSH2 0x1228 JUMP JUMPDEST POP POP POP POP POP POP POP POP POP POP JUMP JUMPDEST PUSH1 0x0 DUP1 PUSH1 0x0 PUSH2 0xD0D DUP9 PUSH2 0xECA JUMP JUMPDEST PUSH1 0x40 MLOAD PUSH4 0x35EA6A75 PUSH1 0xE0 SHL DUP2 MSTORE PUSH1 0x1 PUSH1 0x1 PUSH1 0xA0 SHL SUB DUP13 DUP2 AND PUSH1 0x4 DUP4 ADD MSTORE SWAP6 SWAP9 POP SWAP2 SWAP7 POP SWAP5 POP PUSH1 0x0 SWAP4 DUP8 AND SWAP3 POP PUSH4 0x35EA6A75 SWAP2 POP PUSH1 0x24 ADD PUSH2 0x180 PUSH1 0x40 MLOAD DUP1 DUP4 SUB DUP2 DUP7 GAS STATICCALL ISZERO DUP1 ISZERO PUSH2 0xD61 JUMPI RETURNDATASIZE PUSH1 0x0 DUP1 RETURNDATACOPY RETURNDATASIZE PUSH1 0x0 REVERT JUMPDEST POP POP POP POP PUSH1 0x40 MLOAD RETURNDATASIZE PUSH1 0x1F NOT PUSH1 0x1F DUP3 ADD AND DUP3 ADD DUP1 PUSH1 0x40 MSTORE POP DUP2 ADD SWAP1 PUSH2 0xD85 SWAP2 SWAP1 PUSH2 0x400B JUMP JUMPDEST PUSH2 0x120 ADD MLOAD PUSH1 0x40 MLOAD PUSH4 0x70A08231 PUSH1 0xE0 SHL DUP2 MSTORE PUSH1 0x1 PUSH1 0x1 PUSH1 0xA0 SHL SUB DUP11 DUP2 AND PUSH1 0x4 DUP4 ADD MSTORE SWAP1 SWAP2 AND SWAP1 PUSH4 0x70A08231 SWAP1 PUSH1 0x24 ADD PUSH1 0x20 PUSH1 0x40 MLOAD DUP1 DUP4 SUB DUP2 DUP7 GAS STATICCALL ISZERO DUP1 ISZERO PUSH2 0xDD1 JUMPI RETURNDATASIZE PUSH1 0x0 DUP1 RETURNDATACOPY RETURNDATASIZE PUSH1 0x0 REVERT JUMPDEST POP POP POP POP PUSH1 0x40 MLOAD RETURNDATASIZE PUSH1 0x1F NOT PUSH1 0x1F DUP3 ADD AND DUP3 ADD DUP1 PUSH1 0x40 MSTORE POP DUP2 ADD SWAP1 PUSH2 0xDF5 SWAP2 SWAP1 PUSH2 0x40F8 JUMP JUMPDEST SWAP1 POP PUSH1 0x0 DUP7 GT DUP1 ISZERO PUSH2 0xE06 JUMPI POP DUP1 DUP7 LT JUMPDEST ISZERO PUSH2 0xE0E JUMPI POP DUP5 JUMPDEST PUSH1 0x0 DUP2 GT PUSH2 0xE4D JUMPI PUSH1 0x40 MLOAD PUSH3 0x461BCD PUSH1 0xE5 SHL DUP2 MSTORE PUSH1 0x20 PUSH1 0x4 DUP3 ADD MSTORE PUSH1 0xC PUSH1 0x24 DUP3 ADD MSTORE PUSH12 0x13D4134E88139BC81119589D PUSH1 0xA2 SHL PUSH1 0x44 DUP3 ADD MSTORE PUSH1 0x64 ADD PUSH2 0x292 JUMP JUMPDEST PUSH2 0xE5A DUP10 DUP10 DUP10 DUP5 DUP10 PUSH2 0x1F79 JUMP JUMPDEST SWAP1 POP PUSH2 0xE67 DUP5 DUP10 DUP6 PUSH2 0x1228 JUMP JUMPDEST PUSH2 0xE72 DUP5 DUP10 DUP5 PUSH2 0x1228 JUMP JUMPDEST DUP7 PUSH1 0x1 PUSH1 0x1 PUSH1 0xA0 SHL SUB AND DUP9 PUSH1 0x1 PUSH1 0x1 PUSH1 0xA0 SHL SUB AND PUSH32 0x16331435A4B4FC629446F9123C94A92E6A4D89B5305CEED74754276490CB02CF DUP4 PUSH1 0x40 MLOAD PUSH2 0xEB7 SWAP2 DUP2 MSTORE PUSH1 0x20 ADD SWAP1 JUMP JUMPDEST PUSH1 0x40 MLOAD DUP1 SWAP2 SUB SWAP1 LOG3 POP POP POP POP POP POP POP POP POP JUMP JUMPDEST PUSH1 0x2 SLOAD PUSH1 0x40 MLOAD PUSH4 0x15895F47 PUSH1 0xE3 SHL DUP2 MSTORE PUSH1 0x4 DUP2 ADD DUP4 SWAP1 MSTORE PUSH1 0x0 SWAP2 DUP3 SWAP2 DUP3 SWAP2 DUP3 SWAP2 DUP3 SWAP2 DUP3 SWAP2 DUP3 SWAP2 DUP3 SWAP2 DUP3 SWAP2 PUSH1 0x1 PUSH1 0x1 PUSH1 0xA0 SHL SUB AND SWAP1 PUSH4 0xAC4AFA38 SWAP1 PUSH1 0x24 ADD PUSH1 0xA0 PUSH1 0x40 MLOAD DUP1 DUP4 SUB DUP2 DUP7 GAS STATICCALL ISZERO DUP1 ISZERO PUSH2 0xF24 JUMPI RETURNDATASIZE PUSH1 0x0 DUP1 RETURNDATACOPY RETURNDATASIZE PUSH1 0x0 REVERT JUMPDEST POP POP POP POP PUSH1 0x40 MLOAD RETURNDATASIZE PUSH1 0x1F NOT PUSH1 0x1F DUP3 ADD AND DUP3 ADD DUP1 PUSH1 0x40 MSTORE POP DUP2 ADD SWAP1 PUSH2 0xF48 SWAP2 SWAP1 PUSH2 0x43C4 JUMP JUMPDEST POP SWAP4 POP SWAP4 POP SWAP4 POP SWAP4 POP DUP3 SWAP6 POP DUP2 SWAP5 POP DUP4 PUSH1 0x1 PUSH1 0x1 PUSH1 0xA0 SHL SUB AND PUSH4 0x261BF8B PUSH1 0x40 MLOAD DUP2 PUSH4 0xFFFFFFFF AND PUSH1 0xE0 SHL DUP2 MSTORE PUSH1 0x4 ADD PUSH1 0x20 PUSH1 0x40 MLOAD DUP1 DUP4 SUB DUP2 DUP7 GAS STATICCALL ISZERO DUP1 ISZERO PUSH2 0xF95 JUMPI RETURNDATASIZE PUSH1 0x0 DUP1 RETURNDATACOPY RETURNDATASIZE PUSH1 0x0 REVERT JUMPDEST POP POP POP POP PUSH1 0x40 MLOAD RETURNDATASIZE PUSH1 0x1F NOT PUSH1 0x1F DUP3 ADD AND DUP3 ADD DUP1 PUSH1 0x40 MSTORE POP DUP2 ADD SWAP1 PUSH2 0xFB9 SWAP2 SWAP1 PUSH2 0x4135 JUMP JUMPDEST SWAP9 POP DUP4 PUSH1 0x1 PUSH1 0x1 PUSH1 0xA0 SHL SUB AND PUSH4 0xFCA513A8 PUSH1 0x40 MLOAD DUP2 PUSH4 0xFFFFFFFF AND PUSH1 0xE0 SHL DUP2 MSTORE PUSH1 0x4 ADD PUSH1 0x20 PUSH1 0x40 MLOAD DUP1 DUP4 SUB DUP2 DUP7 GAS STATICCALL ISZERO DUP1 ISZERO PUSH2 0xFF9 JUMPI RETURNDATASIZE PUSH1 0x0 DUP1 RETURNDATACOPY RETURNDATASIZE PUSH1 0x0 REVERT JUMPDEST POP POP POP POP PUSH1 0x40 MLOAD RETURNDATASIZE PUSH1 0x1F NOT PUSH1 0x1F DUP3 ADD AND DUP3 ADD DUP1 PUSH1 0x40 MSTORE POP DUP2 ADD SWAP1 PUSH2 0x101D SWAP2 SWAP1 PUSH2 0x4135 JUMP JUMPDEST SWAP9 SWAP11 SWAP9 SWAP10 POP SWAP8 SWAP5 SWAP7 POP SWAP3 SWAP5 POP POP POP POP JUMP JUMPDEST DUP1 ISZERO PUSH2 0x118E JUMPI PUSH1 0x40 MLOAD PUSH4 0x35EA6A75 PUSH1 0xE0 SHL DUP2 MSTORE PUSH1 0x1 PUSH1 0x1 PUSH1 0xA0 SHL SUB DUP4 DUP2 AND PUSH1 0x4 DUP4 ADD MSTORE DUP6 AND SWAP1 PUSH4 0x8EBBD26 SWAP1 DUP3 SWAP1 PUSH4 0x35EA6A75 SWAP1 PUSH1 0x24 ADD PUSH2 0x180 PUSH1 0x40 MLOAD DUP1 DUP4 SUB DUP2 DUP7 GAS STATICCALL ISZERO DUP1 ISZERO PUSH2 0x1083 JUMPI RETURNDATASIZE PUSH1 0x0 DUP1 RETURNDATACOPY RETURNDATASIZE PUSH1 0x0 REVERT JUMPDEST POP POP POP POP PUSH1 0x40 MLOAD RETURNDATASIZE PUSH1 0x1F NOT PUSH1 0x1F DUP3 ADD AND DUP3 ADD DUP1 PUSH1 0x40 MSTORE POP DUP2 ADD SWAP1 PUSH2 0x10A7 SWAP2 SWAP1 PUSH2 0x400B JUMP JUMPDEST PUSH1 0xE0 SWAP1 DUP2 ADD MLOAD PUSH1 0x40 MLOAD SWAP2 DUP4 SWAP1 SHL PUSH1 0x1 PUSH1 0x1 PUSH1 0xE0 SHL SUB NOT AND DUP3 MSTORE PUSH1 0x1 PUSH1 0x1 PUSH1 0xA0 SHL SUB SWAP1 DUP2 AND PUSH1 0x4 DUP4 ADD MSTORE DUP7 AND PUSH1 0x24 DUP3 ADD MSTORE PUSH1 0x44 DUP2 ADD DUP5 SWAP1 MSTORE PUSH1 0x64 ADD PUSH1 0x0 PUSH1 0x40 MLOAD DUP1 DUP4 SUB DUP2 PUSH1 0x0 DUP8 DUP1 EXTCODESIZE ISZERO DUP1 ISZERO PUSH2 0x10FB JUMPI PUSH1 0x0 DUP1 REVERT JUMPDEST POP GAS CALL ISZERO DUP1 ISZERO PUSH2 0x110F JUMPI RETURNDATASIZE PUSH1 0x0 DUP1 RETURNDATACOPY RETURNDATASIZE PUSH1 0x0 REVERT JUMPDEST POP POP PUSH1 0x40 MLOAD PUSH4 0x1A4CA37B PUSH1 0xE2 SHL DUP2 MSTORE PUSH1 0x1 PUSH1 0x1 PUSH1 0xA0 SHL SUB DUP6 DUP2 AND PUSH1 0x4 DUP4 ADD MSTORE PUSH1 0x24 DUP3 ADD DUP6 SWAP1 MSTORE ADDRESS PUSH1 0x44 DUP4 ADD MSTORE DUP8 AND SWAP3 POP PUSH4 0x69328DEC SWAP2 POP PUSH1 0x64 ADD PUSH1 0x20 PUSH1 0x40 MLOAD DUP1 DUP4 SUB DUP2 PUSH1 0x0 DUP8 GAS CALL ISZERO DUP1 ISZERO PUSH2 0x1168 JUMPI RETURNDATASIZE PUSH1 0x0 DUP1 RETURNDATACOPY RETURNDATASIZE PUSH1 0x0 REVERT JUMPDEST POP POP POP POP PUSH1 0x40 MLOAD RETURNDATASIZE PUSH1 0x1F NOT PUSH1 0x1F DUP3 ADD AND DUP3 ADD DUP1 PUSH1 0x40 MSTORE POP DUP2 ADD SWAP1 PUSH2 0x118C SWAP2 SWAP1 PUSH2 0x40F8 JUMP JUMPDEST POP JUMPDEST POP POP POP POP JUMP JUMPDEST PUSH1 0x40 MLOAD PUSH4 0x6EB1769F PUSH1 0xE1 SHL DUP2 MSTORE ADDRESS PUSH1 0x4 DUP3 ADD MSTORE PUSH1 0x1 PUSH1 0x1 PUSH1 0xA0 SHL SUB DUP4 DUP2 AND PUSH1 0x24 DUP4 ADD MSTORE DUP3 SWAP2 SWAP1 DUP6 AND SWAP1 PUSH4 0xDD62ED3E SWAP1 PUSH1 0x44 ADD PUSH1 0x20 PUSH1 0x40 MLOAD DUP1 DUP4 SUB DUP2 DUP7 GAS STATICCALL ISZERO DUP1 ISZERO PUSH2 0x11E3 JUMPI RETURNDATASIZE PUSH1 0x0 DUP1 RETURNDATACOPY RETURNDATASIZE PUSH1 0x0 REVERT JUMPDEST POP POP POP POP PUSH1 0x40 MLOAD RETURNDATASIZE PUSH1 0x1F NOT PUSH1 0x1F DUP3 ADD AND DUP3 ADD DUP1 PUSH1 0x40 MSTORE POP DUP2 ADD SWAP1 PUSH2 0x1207 SWAP2 SWAP1 PUSH2 0x40F8 JUMP JUMPDEST LT ISZERO PUSH2 0x1223 JUMPI PUSH2 0x1223 PUSH1 0x1 PUSH1 0x1 PUSH1 0xA0 SHL SUB DUP5 AND DUP4 PUSH1 0x0 NOT PUSH2 0x2816 JUMP JUMPDEST POP POP POP JUMP JUMPDEST PUSH1 0x40 MLOAD PUSH4 0x70A08231 PUSH1 0xE0 SHL DUP2 MSTORE ADDRESS PUSH1 0x4 DUP3 ADD MSTORE PUSH1 0x0 SWAP1 PUSH1 0x1 PUSH1 0x1 PUSH1 0xA0 SHL SUB DUP4 AND SWAP1 PUSH4 0x70A08231 SWAP1 PUSH1 0x24 ADD PUSH1 0x20 PUSH1 0x40 MLOAD DUP1 DUP4 SUB DUP2 DUP7 GAS STATICCALL ISZERO DUP1 ISZERO PUSH2 0x126F JUMPI RETURNDATASIZE PUSH1 0x0 DUP1 RETURNDATACOPY RETURNDATASIZE PUSH1 0x0 REVERT JUMPDEST POP POP POP POP PUSH1 0x40 MLOAD RETURNDATASIZE PUSH1 0x1F NOT PUSH1 0x1F DUP3 ADD AND DUP3 ADD DUP1 PUSH1 0x40 MSTORE POP DUP2 ADD SWAP1 PUSH2 0x1293 SWAP2 SWAP1 PUSH2 0x40F8 JUMP JUMPDEST SWAP1 POP DUP1 ISZERO PUSH2 0x118E JUMPI PUSH2 0x12A6 DUP3 DUP6 DUP4 PUSH2 0x1194 JUMP JUMPDEST PUSH1 0x40 MLOAD PUSH4 0x35EA6A75 PUSH1 0xE0 SHL DUP2 MSTORE PUSH1 0x1 PUSH1 0x1 PUSH1 0xA0 SHL SUB DUP4 DUP2 AND PUSH1 0x4 DUP4 ADD MSTORE PUSH1 0x0 SWAP2 SWAP1 DUP7 AND SWAP1 PUSH4 0x35EA6A75 SWAP1 PUSH1 0x24 ADD PUSH2 0x180 PUSH1 0x40 MLOAD DUP1 DUP4 SUB DUP2 DUP7 GAS STATICCALL ISZERO DUP1 ISZERO PUSH2 0x12F1 JUMPI RETURNDATASIZE PUSH1 0x0 DUP1 RETURNDATACOPY RETURNDATASIZE PUSH1 0x0 REVERT JUMPDEST POP POP POP POP PUSH1 0x40 MLOAD RETURNDATASIZE PUSH1 0x1F NOT PUSH1 0x1F DUP3 ADD AND DUP3 ADD DUP1 PUSH1 0x40 MSTORE POP DUP2 ADD SWAP1 PUSH2 0x1315 SWAP2 SWAP1 PUSH2 0x400B JUMP JUMPDEST PUSH2 0x120 ADD MLOAD PUSH1 0x40 MLOAD PUSH4 0x70A08231 PUSH1 0xE0 SHL DUP2 MSTORE PUSH1 0x1 PUSH1 0x1 PUSH1 0xA0 SHL SUB DUP7 DUP2 AND PUSH1 0x4 DUP4 ADD MSTORE SWAP1 SWAP2 AND SWAP1 PUSH4 0x70A08231 SWAP1 PUSH1 0x24 ADD PUSH1 0x20 PUSH1 0x40 MLOAD DUP1 DUP4 SUB DUP2 DUP7 GAS STATICCALL ISZERO DUP1 ISZERO PUSH2 0x1361 JUMPI RETURNDATASIZE PUSH1 0x0 DUP1 RETURNDATACOPY RETURNDATASIZE PUSH1 0x0 REVERT JUMPDEST POP POP POP POP PUSH1 0x40 MLOAD RETURNDATASIZE PUSH1 0x1F NOT PUSH1 0x1F DUP3 ADD AND DUP3 ADD DUP1 PUSH1 0x40 MSTORE POP DUP2 ADD SWAP1 PUSH2 0x1385 SWAP2 SWAP1 PUSH2 0x40F8 JUMP JUMPDEST SWAP1 POP DUP1 ISZERO PUSH2 0x1496 JUMPI DUP1 DUP3 GT PUSH2 0x1412 JUMPI PUSH1 0x40 MLOAD PUSH4 0x573ADE81 PUSH1 0xE0 SHL DUP2 MSTORE PUSH1 0x1 PUSH1 0x1 PUSH1 0xA0 SHL SUB DUP7 AND SWAP1 PUSH4 0x573ADE81 SWAP1 PUSH2 0x13C7 SWAP1 DUP7 SWAP1 DUP7 SWAP1 PUSH1 0x2 SWAP1 DUP11 SWAP1 PUSH1 0x4 ADD PUSH2 0x4434 JUMP JUMPDEST PUSH1 0x20 PUSH1 0x40 MLOAD DUP1 DUP4 SUB DUP2 PUSH1 0x0 DUP8 GAS CALL ISZERO DUP1 ISZERO PUSH2 0x13E6 JUMPI RETURNDATASIZE PUSH1 0x0 DUP1 RETURNDATACOPY RETURNDATASIZE PUSH1 0x0 REVERT JUMPDEST POP POP POP POP PUSH1 0x40 MLOAD RETURNDATASIZE PUSH1 0x1F NOT PUSH1 0x1F DUP3 ADD AND DUP3 ADD DUP1 PUSH1 0x40 MSTORE POP DUP2 ADD SWAP1 PUSH2 0x140A SWAP2 SWAP1 PUSH2 0x40F8 JUMP JUMPDEST POP POP POP POP POP POP JUMP JUMPDEST PUSH1 0x40 MLOAD PUSH4 0x573ADE81 PUSH1 0xE0 SHL DUP2 MSTORE PUSH1 0x1 PUSH1 0x1 PUSH1 0xA0 SHL SUB DUP7 AND SWAP1 PUSH4 0x573ADE81 SWAP1 PUSH2 0x1445 SWAP1 DUP7 SWAP1 DUP6 SWAP1 PUSH1 0x2 SWAP1 DUP11 SWAP1 PUSH1 0x4 ADD PUSH2 0x4434 JUMP JUMPDEST PUSH1 0x20 PUSH1 0x40 MLOAD DUP1 DUP4 SUB DUP2 PUSH1 0x0 DUP8 GAS CALL ISZERO DUP1 ISZERO PUSH2 0x1464 JUMPI RETURNDATASIZE PUSH1 0x0 DUP1 RETURNDATACOPY RETURNDATASIZE PUSH1 0x0 REVERT JUMPDEST POP POP POP POP PUSH1 0x40 MLOAD RETURNDATASIZE PUSH1 0x1F NOT PUSH1 0x1F DUP3 ADD AND DUP3 ADD DUP1 PUSH1 0x40 MSTORE POP DUP2 ADD SWAP1 PUSH2 0x1488 SWAP2 SWAP1 PUSH2 0x40F8 JUMP JUMPDEST POP PUSH2 0x1493 DUP2 DUP4 PUSH2 0x4475 JUMP JUMPDEST SWAP2 POP JUMPDEST PUSH1 0x40 MLOAD PUSH4 0xE8EDA9DF PUSH1 0xE0 SHL DUP2 MSTORE PUSH1 0x1 PUSH1 0x1 PUSH1 0xA0 SHL SUB DUP5 DUP2 AND PUSH1 0x4 DUP4 ADD MSTORE PUSH1 0x24 DUP3 ADD DUP5 SWAP1 MSTORE DUP6 DUP2 AND PUSH1 0x44 DUP4 ADD MSTORE PUSH1 0x0 PUSH1 0x64 DUP4 ADD MSTORE DUP7 AND SWAP1 PUSH4 0xE8EDA9DF SWAP1 PUSH1 0x84 ADD PUSH1 0x0 PUSH1 0x40 MLOAD DUP1 DUP4 SUB DUP2 PUSH1 0x0 DUP8 DUP1 EXTCODESIZE ISZERO DUP1 ISZERO PUSH2 0x14EF JUMPI PUSH1 0x0 DUP1 REVERT JUMPDEST POP GAS CALL ISZERO DUP1 ISZERO PUSH2 0x3B0 JUMPI RETURNDATASIZE PUSH1 0x0 DUP1 RETURNDATACOPY RETURNDATASIZE PUSH1 0x0 REVERT JUMPDEST PUSH1 0x0 DUP5 PUSH1 0x1 PUSH1 0x1 PUSH1 0xA0 SHL SUB AND PUSH4 0x38013F02 PUSH1 0x40 MLOAD DUP2 PUSH4 0xFFFFFFFF AND PUSH1 0xE0 SHL DUP2 MSTORE PUSH1 0x4 ADD PUSH1 0x20 PUSH1 0x40 MLOAD DUP1 DUP4 SUB DUP2 DUP7 GAS STATICCALL ISZERO DUP1 ISZERO PUSH2 0x1543 JUMPI RETURNDATASIZE PUSH1 0x0 DUP1 RETURNDATACOPY RETURNDATASIZE PUSH1 0x0 REVERT JUMPDEST POP POP POP POP PUSH1 0x40 MLOAD RETURNDATASIZE PUSH1 0x1F NOT PUSH1 0x1F DUP3 ADD AND DUP3 ADD DUP1 PUSH1 0x40 MSTORE POP DUP2 ADD SWAP1 PUSH2 0x1567 SWAP2 SWAP1 PUSH2 0x4135 JUMP JUMPDEST SWAP1 POP PUSH1 0x0 DUP1 DUP7 PUSH1 0x1 PUSH1 0x1 PUSH1 0xA0 SHL SUB AND PUSH4 0x443EC74D PUSH1 0x40 MLOAD DUP2 PUSH4 0xFFFFFFFF AND PUSH1 0xE0 SHL DUP2 MSTORE PUSH1 0x4 ADD PUSH1 0x40 DUP1 MLOAD DUP1 DUP4 SUB DUP2 DUP7 GAS STATICCALL ISZERO DUP1 ISZERO PUSH2 0x15A9 JUMPI RETURNDATASIZE PUSH1 0x0 DUP1 RETURNDATACOPY RETURNDATASIZE PUSH1 0x0 REVERT JUMPDEST POP POP POP POP PUSH1 0x40 MLOAD RETURNDATASIZE PUSH1 0x1F NOT PUSH1 0x1F DUP3 ADD AND DUP3 ADD DUP1 PUSH1 0x40 MSTORE POP DUP2 ADD SWAP1 PUSH2 0x15CD SWAP2 SWAP1 PUSH2 0x448E JUMP JUMPDEST SWAP2 POP SWAP2 POP PUSH1 0x0 DUP1 DUP9 PUSH1 0x1 PUSH1 0x1 PUSH1 0xA0 SHL SUB AND PUSH4 0x5EE04D78 PUSH1 0x40 MLOAD DUP2 PUSH4 0xFFFFFFFF AND PUSH1 0xE0 SHL DUP2 MSTORE PUSH1 0x4 ADD PUSH1 0x40 DUP1 MLOAD DUP1 DUP4 SUB DUP2 DUP7 GAS STATICCALL ISZERO DUP1 ISZERO PUSH2 0x1611 JUMPI RETURNDATASIZE PUSH1 0x0 DUP1 RETURNDATACOPY RETURNDATASIZE PUSH1 0x0 REVERT JUMPDEST POP POP POP POP PUSH1 0x40 MLOAD RETURNDATASIZE PUSH1 0x1F NOT PUSH1 0x1F DUP3 ADD AND DUP3 ADD DUP1 PUSH1 0x40 MSTORE POP DUP2 ADD SWAP1 PUSH2 0x1635 SWAP2 SWAP1 PUSH2 0x448E JUMP JUMPDEST SWAP2 POP SWAP2 POP PUSH1 0x0 PUSH8 0xDE0B6B3A7640000 DUP10 DUP12 PUSH1 0x1 PUSH1 0x1 PUSH1 0xA0 SHL SUB AND PUSH4 0x50D25BCD PUSH1 0x40 MLOAD DUP2 PUSH4 0xFFFFFFFF AND PUSH1 0xE0 SHL DUP2 MSTORE PUSH1 0x4 ADD PUSH1 0x20 PUSH1 0x40 MLOAD DUP1 DUP4 SUB DUP2 DUP7 GAS STATICCALL ISZERO DUP1 ISZERO PUSH2 0x1683 JUMPI RETURNDATASIZE PUSH1 0x0 DUP1 RETURNDATACOPY RETURNDATASIZE PUSH1 0x0 REVERT JUMPDEST POP POP POP POP PUSH1 0x40 MLOAD RETURNDATASIZE PUSH1 0x1F NOT PUSH1 0x1F DUP3 ADD AND DUP3 ADD DUP1 PUSH1 0x40 MSTORE POP DUP2 ADD SWAP1 PUSH2 0x16A7 SWAP2 SWAP1 PUSH2 0x40F8 JUMP JUMPDEST PUSH2 0x16B1 SWAP2 SWAP1 PUSH2 0x44C8 JUMP JUMPDEST PUSH2 0x16BB SWAP2 SWAP1 PUSH2 0x44DF JUMP JUMPDEST SWAP1 POP PUSH1 0x0 PUSH2 0x16CA DUP4 PUSH1 0xA PUSH2 0x45E5 JUMP JUMPDEST PUSH1 0x40 MLOAD PUSH4 0xB3596F07 PUSH1 0xE0 SHL DUP2 MSTORE PUSH1 0x1 PUSH1 0x1 PUSH1 0xA0 SHL SUB DUP7 DUP2 AND PUSH1 0x4 DUP4 ADD MSTORE DUP10 AND SWAP1 PUSH4 0xB3596F07 SWAP1 PUSH1 0x24 ADD PUSH1 0x20 PUSH1 0x40 MLOAD DUP1 DUP4 SUB DUP2 DUP7 GAS STATICCALL ISZERO DUP1 ISZERO PUSH2 0x1710 JUMPI RETURNDATASIZE PUSH1 0x0 DUP1 RETURNDATACOPY RETURNDATASIZE PUSH1 0x0 REVERT JUMPDEST POP POP POP POP PUSH1 0x40 MLOAD RETURNDATASIZE PUSH1 0x1F NOT PUSH1 0x1F DUP3 ADD AND DUP3 ADD DUP1 PUSH1 0x40 MSTORE POP DUP2 ADD SWAP1 PUSH2 0x1734 SWAP2 SWAP1 PUSH2 0x40F8 JUMP JUMPDEST PUSH2 0x173E SWAP1 DUP11 PUSH2 0x44C8 JUMP JUMPDEST PUSH2 0x1748 SWAP2 SWAP1 PUSH2 0x44DF JUMP JUMPDEST PUSH2 0x1753 DUP7 PUSH1 0xA PUSH2 0x45E5 JUMP JUMPDEST PUSH1 0x40 MLOAD PUSH4 0xB3596F07 PUSH1 0xE0 SHL DUP2 MSTORE PUSH1 0x1 PUSH1 0x1 PUSH1 0xA0 SHL SUB DUP10 DUP2 AND PUSH1 0x4 DUP4 ADD MSTORE DUP11 AND SWAP1 PUSH4 0xB3596F07 SWAP1 PUSH1 0x24 ADD PUSH1 0x20 PUSH1 0x40 MLOAD DUP1 DUP4 SUB DUP2 DUP7 GAS STATICCALL ISZERO DUP1 ISZERO PUSH2 0x1799 JUMPI RETURNDATASIZE PUSH1 0x0 DUP1 RETURNDATACOPY RETURNDATASIZE PUSH1 0x0 REVERT JUMPDEST POP POP POP POP PUSH1 0x40 MLOAD RETURNDATASIZE PUSH1 0x1F NOT PUSH1 0x1F DUP3 ADD AND DUP3 ADD DUP1 PUSH1 0x40 MSTORE POP DUP2 ADD SWAP1 PUSH2 0x17BD SWAP2 SWAP1 PUSH2 0x40F8 JUMP JUMPDEST PUSH2 0x17C7 SWAP1 DUP13 PUSH2 0x44C8 JUMP JUMPDEST PUSH2 0x17D1 SWAP2 SWAP1 PUSH2 0x44DF JUMP JUMPDEST PUSH2 0x17DB SWAP2 SWAP1 PUSH2 0x45F4 JUMP JUMPDEST SWAP1 POP PUSH4 0x5F5E100 DUP3 LT DUP1 ISZERO PUSH2 0x17F3 JUMPI POP PUSH4 0x5F5E100 DUP2 LT JUMPDEST DUP1 PUSH2 0x1833 JUMPI POP PUSH1 0x64 PUSH2 0x1806 DUP4 PUSH1 0x62 PUSH2 0x44C8 JUMP JUMPDEST PUSH2 0x1810 SWAP2 SWAP1 PUSH2 0x44DF JUMP JUMPDEST DUP2 GT DUP1 ISZERO PUSH2 0x1833 JUMPI POP PUSH1 0x64 PUSH2 0x1826 DUP4 PUSH1 0x66 PUSH2 0x44C8 JUMP JUMPDEST PUSH2 0x1830 SWAP2 SWAP1 PUSH2 0x44DF JUMP JUMPDEST DUP2 LT JUMPDEST PUSH2 0xB48 JUMPI PUSH1 0x40 MLOAD PUSH3 0x461BCD PUSH1 0xE5 SHL DUP2 MSTORE PUSH1 0x20 PUSH1 0x4 DUP3 ADD MSTORE PUSH1 0x13 PUSH1 0x24 DUP3 ADD MSTORE PUSH19 0x27A8269D1029B634B83830B3B29022B93937B9 PUSH1 0x69 SHL PUSH1 0x44 DUP3 ADD MSTORE PUSH1 0x64 ADD PUSH2 0x292 JUMP JUMPDEST PUSH1 0x40 MLOAD PUSH1 0x1 PUSH1 0x1 PUSH1 0xA0 SHL SUB DUP4 AND PUSH1 0x24 DUP3 ADD MSTORE PUSH1 0x44 DUP2 ADD DUP3 SWAP1 MSTORE PUSH2 0x1223 SWAP1 DUP5 SWAP1 PUSH4 0xA9059CBB PUSH1 0xE0 SHL SWAP1 PUSH1 0x64 ADD JUMPDEST PUSH1 0x40 DUP1 MLOAD PUSH1 0x1F NOT DUP2 DUP5 SUB ADD DUP2 MSTORE SWAP2 SWAP1 MSTORE PUSH1 0x20 DUP2 ADD DUP1 MLOAD PUSH1 0x1 PUSH1 0x1 PUSH1 0xE0 SHL SUB AND PUSH1 0x1 PUSH1 0x1 PUSH1 0xE0 SHL SUB NOT SWAP1 SWAP4 AND SWAP3 SWAP1 SWAP3 OR SWAP1 SWAP2 MSTORE PUSH2 0x28C8 JUMP JUMPDEST PUSH1 0x0 DUP1 DUP4 GT DUP1 ISZERO PUSH2 0x1978 JUMPI POP PUSH1 0x40 MLOAD PUSH4 0xD06CA61F PUSH1 0xE0 SHL DUP2 MSTORE PUSH1 0x0 SWAP1 PUSH1 0x1 PUSH1 0x1 PUSH1 0xA0 SHL SUB DUP8 AND SWAP1 PUSH4 0xD06CA61F SWAP1 PUSH2 0x1915 SWAP1 DUP8 SWAP1 DUP8 SWAP1 PUSH1 0x4 ADD PUSH2 0x4607 JUMP JUMPDEST PUSH1 0x0 PUSH1 0x40 MLOAD DUP1 DUP4 SUB DUP2 PUSH1 0x0 DUP8 GAS CALL ISZERO DUP1 ISZERO PUSH2 0x1934 JUMPI RETURNDATASIZE PUSH1 0x0 DUP1 RETURNDATACOPY RETURNDATASIZE PUSH1 0x0 REVERT JUMPDEST POP POP POP POP PUSH1 0x40 MLOAD RETURNDATASIZE PUSH1 0x0 DUP3 RETURNDATACOPY PUSH1 0x1F RETURNDATASIZE SWAP1 DUP2 ADD PUSH1 0x1F NOT AND DUP3 ADD PUSH1 0x40 MSTORE PUSH2 0x195C SWAP2 SWAP1 DUP2 ADD SWAP1 PUSH2 0x4620 JUMP JUMPDEST PUSH1 0x1 DUP2 MLOAD DUP2 LT PUSH2 0x196E JUMPI PUSH2 0x196E PUSH2 0x4152 JUMP JUMPDEST PUSH1 0x20 MUL PUSH1 0x20 ADD ADD MLOAD GT JUMPDEST ISZERO PUSH2 0x1A96 JUMPI PUSH2 0x19A2 DUP3 PUSH1 0x0 DUP2 MLOAD DUP2 LT PUSH2 0x1993 JUMPI PUSH2 0x1993 PUSH2 0x4152 JUMP JUMPDEST PUSH1 0x20 MUL PUSH1 0x20 ADD ADD MLOAD DUP7 DUP6 PUSH2 0x1194 JUMP JUMPDEST PUSH1 0x0 DUP6 PUSH1 0x1 PUSH1 0x1 PUSH1 0xA0 SHL SUB AND PUSH4 0x38ED1739 DUP6 PUSH1 0x64 PUSH2 0x19F6 DUP10 DUP9 PUSH1 0x0 DUP2 MLOAD DUP2 LT PUSH2 0x19CD JUMPI PUSH2 0x19CD PUSH2 0x4152 JUMP JUMPDEST PUSH1 0x20 MUL PUSH1 0x20 ADD ADD MLOAD DUP11 DUP11 PUSH1 0x1 DUP2 MLOAD DUP2 LT PUSH2 0x19E9 JUMPI PUSH2 0x19E9 PUSH2 0x4152 JUMP JUMPDEST PUSH1 0x20 MUL PUSH1 0x20 ADD ADD MLOAD PUSH2 0x299A JUMP JUMPDEST PUSH2 0x1A01 SWAP1 PUSH1 0x63 PUSH2 0x44C8 JUMP JUMPDEST PUSH2 0x1A0B SWAP2 SWAP1 PUSH2 0x44DF JUMP JUMPDEST DUP7 ADDRESS TIMESTAMP PUSH1 0x40 MLOAD DUP7 PUSH4 0xFFFFFFFF AND PUSH1 0xE0 SHL DUP2 MSTORE PUSH1 0x4 ADD PUSH2 0x1A2E SWAP6 SWAP5 SWAP4 SWAP3 SWAP2 SWAP1 PUSH2 0x46A6 JUMP JUMPDEST PUSH1 0x0 PUSH1 0x40 MLOAD DUP1 DUP4 SUB DUP2 PUSH1 0x0 DUP8 GAS CALL ISZERO DUP1 ISZERO PUSH2 0x1A4D JUMPI RETURNDATASIZE PUSH1 0x0 DUP1 RETURNDATACOPY RETURNDATASIZE PUSH1 0x0 REVERT JUMPDEST POP POP POP POP PUSH1 0x40 MLOAD RETURNDATASIZE PUSH1 0x0 DUP3 RETURNDATACOPY PUSH1 0x1F RETURNDATASIZE SWAP1 DUP2 ADD PUSH1 0x1F NOT AND DUP3 ADD PUSH1 0x40 MSTORE PUSH2 0x1A75 SWAP2 SWAP1 DUP2 ADD SWAP1 PUSH2 0x4620 JUMP JUMPDEST SWAP1 POP DUP1 PUSH1 0x1 DUP2 MLOAD DUP2 LT PUSH2 0x1A8A JUMPI PUSH2 0x1A8A PUSH2 0x4152 JUMP JUMPDEST PUSH1 0x20 MUL PUSH1 0x20 ADD ADD MLOAD SWAP2 POP POP JUMPDEST SWAP5 SWAP4 POP POP POP POP JUMP JUMPDEST PUSH1 0x0 DUP1 PUSH1 0x0 PUSH2 0x1AAC DUP11 PUSH2 0xECA JUMP JUMPDEST SWAP5 POP SWAP5 POP POP POP SWAP3 POP CALLER PUSH1 0x1 PUSH1 0x1 PUSH1 0xA0 SHL SUB AND DUP4 PUSH1 0x1 PUSH1 0x1 PUSH1 0xA0 SHL SUB AND EQ PUSH2 0x1B0B JUMPI PUSH1 0x40 MLOAD PUSH3 0x461BCD PUSH1 0xE5 SHL DUP2 MSTORE PUSH1 0x20 PUSH1 0x4 DUP3 ADD MSTORE PUSH1 0x13 PUSH1 0x24 DUP3 ADD MSTORE PUSH19 0x13D4134E8810D85B1B08155B985B1B1BDDD959 PUSH1 0x6A SHL PUSH1 0x44 DUP3 ADD MSTORE PUSH1 0x64 ADD PUSH2 0x292 JUMP JUMPDEST PUSH1 0x0 JUMPDEST PUSH1 0xFF DUP2 AND DUP10 GT ISZERO PUSH2 0x1BA6 JUMPI PUSH1 0x0 DUP11 DUP11 DUP4 PUSH1 0xFF AND DUP2 DUP2 LT PUSH2 0x1B30 JUMPI PUSH2 0x1B30 PUSH2 0x4152 JUMP JUMPDEST SWAP1 POP PUSH1 0x20 MUL ADD PUSH1 0x20 DUP2 ADD SWAP1 PUSH2 0x1B45 SWAP2 SWAP1 PUSH2 0x3B20 JUMP JUMPDEST SWAP1 POP PUSH1 0x0 DUP10 DUP10 DUP5 PUSH1 0xFF AND DUP2 DUP2 LT PUSH2 0x1B5E JUMPI PUSH2 0x1B5E PUSH2 0x4152 JUMP JUMPDEST SWAP1 POP PUSH1 0x20 MUL ADD CALLDATALOAD SWAP1 POP PUSH2 0x1B90 DUP14 DUP4 DUP4 DUP11 DUP8 PUSH1 0xFF AND DUP2 MLOAD DUP2 LT PUSH2 0x1B82 JUMPI PUSH2 0x1B82 PUSH2 0x4152 JUMP JUMPDEST PUSH1 0x20 MUL PUSH1 0x20 ADD ADD MLOAD DUP13 PUSH2 0x2C36 JUMP JUMPDEST POP POP POP DUP1 DUP1 PUSH2 0x1B9E SWAP1 PUSH2 0x46E2 JUMP JUMPDEST SWAP2 POP POP PUSH2 0x1B0E JUMP JUMPDEST POP PUSH2 0x1BB2 DUP4 DUP7 DUP5 PUSH2 0x1228 JUMP JUMPDEST PUSH2 0xCF3 DUP4 DUP7 DUP4 PUSH2 0x1228 JUMP JUMPDEST PUSH1 0x0 DUP1 PUSH1 0x0 PUSH2 0x1BCB DUP11 PUSH2 0xECA JUMP JUMPDEST SWAP5 POP SWAP5 POP POP POP SWAP3 POP CALLER PUSH1 0x1 PUSH1 0x1 PUSH1 0xA0 SHL SUB AND DUP4 PUSH1 0x1 PUSH1 0x1 PUSH1 0xA0 SHL SUB AND EQ PUSH2 0x1C2A JUMPI PUSH1 0x40 MLOAD PUSH3 0x461BCD PUSH1 0xE5 SHL DUP2 MSTORE PUSH1 0x20 PUSH1 0x4 DUP3 ADD MSTORE PUSH1 0x13 PUSH1 0x24 DUP3 ADD MSTORE PUSH19 0x13D4134E8810D85B1B08155B985B1B1BDDD959 PUSH1 0x6A SHL PUSH1 0x44 DUP3 ADD MSTORE PUSH1 0x64 ADD PUSH2 0x292 JUMP JUMPDEST PUSH1 0x40 DUP1 MLOAD DUP1 DUP3 ADD SWAP2 DUP3 SWAP1 MSTORE PUSH4 0x70A08231 PUSH1 0xE0 SHL SWAP1 SWAP2 MSTORE ADDRESS PUSH1 0x44 DUP3 ADD MSTORE PUSH1 0x0 SWAP1 DUP1 PUSH1 0x1 PUSH1 0x1 PUSH1 0xA0 SHL SUB DUP6 AND PUSH4 0x70A08231 PUSH1 0x64 DUP4 ADD PUSH1 0x20 PUSH1 0x40 MLOAD DUP1 DUP4 SUB DUP2 DUP7 GAS STATICCALL ISZERO DUP1 ISZERO PUSH2 0x1C7A JUMPI RETURNDATASIZE PUSH1 0x0 DUP1 RETURNDATACOPY RETURNDATASIZE PUSH1 0x0 REVERT JUMPDEST POP POP POP POP PUSH1 0x40 MLOAD RETURNDATASIZE PUSH1 0x1F NOT PUSH1 0x1F DUP3 ADD AND DUP3 ADD DUP1 PUSH1 0x40 MSTORE POP DUP2 ADD SWAP1 PUSH2 0x1C9E SWAP2 SWAP1 PUSH2 0x40F8 JUMP JUMPDEST DUP2 MSTORE PUSH1 0x40 MLOAD PUSH4 0x70A08231 PUSH1 0xE0 SHL DUP2 MSTORE ADDRESS PUSH1 0x4 DUP3 ADD MSTORE PUSH1 0x20 SWAP1 SWAP2 ADD SWAP1 PUSH1 0x1 PUSH1 0x1 PUSH1 0xA0 SHL SUB DUP6 AND SWAP1 PUSH4 0x70A08231 SWAP1 PUSH1 0x24 ADD PUSH1 0x20 PUSH1 0x40 MLOAD DUP1 DUP4 SUB DUP2 DUP7 GAS STATICCALL ISZERO DUP1 ISZERO PUSH2 0x1CEA JUMPI RETURNDATASIZE PUSH1 0x0 DUP1 RETURNDATACOPY RETURNDATASIZE PUSH1 0x0 REVERT JUMPDEST POP POP POP POP PUSH1 0x40 MLOAD RETURNDATASIZE PUSH1 0x1F NOT PUSH1 0x1F DUP3 ADD AND DUP3 ADD DUP1 PUSH1 0x40 MSTORE POP DUP2 ADD SWAP1 PUSH2 0x1D0E SWAP2 SWAP1 PUSH2 0x40F8 JUMP JUMPDEST SWAP1 MSTORE SWAP1 POP PUSH1 0x0 JUMPDEST PUSH1 0xFF DUP2 AND DUP11 GT ISZERO PUSH2 0x1F6B JUMPI PUSH1 0x0 DUP12 DUP12 DUP4 PUSH1 0xFF AND DUP2 DUP2 LT PUSH2 0x1D37 JUMPI PUSH2 0x1D37 PUSH2 0x4152 JUMP JUMPDEST SWAP1 POP PUSH1 0x20 MUL ADD PUSH1 0x20 DUP2 ADD SWAP1 PUSH2 0x1D4C SWAP2 SWAP1 PUSH2 0x3B20 JUMP JUMPDEST SWAP1 POP PUSH1 0x0 DUP11 DUP11 DUP5 PUSH1 0xFF AND DUP2 DUP2 LT PUSH2 0x1D65 JUMPI PUSH2 0x1D65 PUSH2 0x4152 JUMP JUMPDEST SWAP1 POP PUSH1 0x20 MUL ADD CALLDATALOAD SWAP1 POP PUSH2 0x1D79 DUP3 DUP9 DUP4 PUSH2 0x1194 JUMP JUMPDEST PUSH1 0x40 MLOAD PUSH3 0xA718A9 PUSH1 0xE0 SHL DUP2 MSTORE PUSH1 0x1 PUSH1 0x1 PUSH1 0xA0 SHL SUB DUP10 DUP2 AND PUSH1 0x4 DUP4 ADD MSTORE DUP4 DUP2 AND PUSH1 0x24 DUP4 ADD MSTORE DUP11 DUP2 AND PUSH1 0x44 DUP4 ADD MSTORE PUSH1 0x64 DUP3 ADD DUP4 SWAP1 MSTORE PUSH1 0x0 PUSH1 0x84 DUP4 ADD MSTORE DUP9 AND SWAP1 PUSH3 0xA718A9 SWAP1 PUSH1 0xA4 ADD PUSH1 0x0 PUSH1 0x40 MLOAD DUP1 DUP4 SUB DUP2 PUSH1 0x0 DUP8 DUP1 EXTCODESIZE ISZERO DUP1 ISZERO PUSH2 0x1DD8 JUMPI PUSH1 0x0 DUP1 REVERT JUMPDEST POP GAS CALL ISZERO DUP1 ISZERO PUSH2 0x1DEC JUMPI RETURNDATASIZE PUSH1 0x0 DUP1 RETURNDATACOPY RETURNDATASIZE PUSH1 0x0 REVERT JUMPDEST POP POP POP POP PUSH1 0x0 PUSH2 0x1DFF DUP16 ADDRESS DUP6 DUP6 DUP14 PUSH2 0x1F79 JUMP JUMPDEST PUSH1 0x40 MLOAD PUSH4 0x70A08231 PUSH1 0xE0 SHL DUP2 MSTORE ADDRESS PUSH1 0x4 DUP3 ADD MSTORE SWAP1 SWAP2 POP PUSH1 0x0 SWAP1 PUSH1 0x1 PUSH1 0x1 PUSH1 0xA0 SHL SUB DUP10 AND SWAP1 PUSH4 0x70A08231 SWAP1 PUSH1 0x24 ADD PUSH1 0x20 PUSH1 0x40 MLOAD DUP1 DUP4 SUB DUP2 DUP7 GAS STATICCALL ISZERO DUP1 ISZERO PUSH2 0x1E49 JUMPI RETURNDATASIZE PUSH1 0x0 DUP1 RETURNDATACOPY RETURNDATASIZE PUSH1 0x0 REVERT JUMPDEST POP POP POP POP PUSH1 0x40 MLOAD RETURNDATASIZE PUSH1 0x1F NOT PUSH1 0x1F DUP3 ADD AND DUP3 ADD DUP1 PUSH1 0x40 MSTORE POP DUP2 ADD SWAP1 PUSH2 0x1E6D SWAP2 SWAP1 PUSH2 0x40F8 JUMP JUMPDEST PUSH1 0x40 MLOAD PUSH4 0x70A08231 PUSH1 0xE0 SHL DUP2 MSTORE ADDRESS PUSH1 0x4 DUP3 ADD MSTORE SWAP1 SWAP2 POP PUSH1 0x0 SWAP1 PUSH1 0x1 PUSH1 0x1 PUSH1 0xA0 SHL SUB DUP10 AND SWAP1 PUSH4 0x70A08231 SWAP1 PUSH1 0x24 ADD PUSH1 0x20 PUSH1 0x40 MLOAD DUP1 DUP4 SUB DUP2 DUP7 GAS STATICCALL ISZERO DUP1 ISZERO PUSH2 0x1EB7 JUMPI RETURNDATASIZE PUSH1 0x0 DUP1 RETURNDATACOPY RETURNDATASIZE PUSH1 0x0 REVERT JUMPDEST POP POP POP POP PUSH1 0x40 MLOAD RETURNDATASIZE PUSH1 0x1F NOT PUSH1 0x1F DUP3 ADD AND DUP3 ADD DUP1 PUSH1 0x40 MSTORE POP DUP2 ADD SWAP1 PUSH2 0x1EDB SWAP2 SWAP1 PUSH2 0x40F8 JUMP JUMPDEST SWAP1 POP PUSH1 0x1 PUSH1 0x1 PUSH1 0xA0 SHL SUB DUP1 DUP7 AND SWAP1 DUP14 AND PUSH32 0x11473F8E98477C5F8D293225476DF74EF051ED687455EF4C509117EBD0040437 DUP6 DUP11 PUSH1 0x0 PUSH1 0x20 MUL ADD MLOAD PUSH2 0x1F1F SWAP1 DUP8 PUSH2 0x4475 JUMP JUMPDEST PUSH1 0x20 DUP13 ADD MLOAD PUSH2 0x1F2E SWAP1 DUP8 PUSH2 0x4475 JUMP JUMPDEST PUSH1 0x40 DUP1 MLOAD SWAP4 DUP5 MSTORE PUSH1 0x20 DUP5 ADD SWAP3 SWAP1 SWAP3 MSTORE SWAP1 DUP3 ADD MSTORE PUSH1 0x60 ADD PUSH1 0x40 MLOAD DUP1 SWAP2 SUB SWAP1 LOG3 SWAP1 DUP7 MSTORE PUSH1 0x20 DUP7 ADD MSTORE POP DUP3 SWAP2 POP PUSH2 0x1F63 SWAP1 POP DUP2 PUSH2 0x46E2 JUMP JUMPDEST SWAP2 POP POP PUSH2 0x1D15 JUMP JUMPDEST POP POP POP POP POP POP POP POP POP POP POP POP JUMP JUMPDEST PUSH1 0x0 DUP1 PUSH1 0x0 DUP1 PUSH1 0x0 PUSH2 0x1F8A DUP11 PUSH2 0xECA JUMP JUMPDEST SWAP5 POP SWAP5 POP SWAP5 POP POP SWAP4 POP PUSH2 0x1F9E DUP9 DUP4 DUP4 PUSH2 0x2ED9 JUMP JUMPDEST DUP2 PUSH1 0x1 PUSH1 0x1 PUSH1 0xA0 SHL SUB AND DUP7 PUSH1 0x1 PUSH1 0x1 PUSH1 0xA0 SHL SUB AND EQ DUP1 PUSH2 0x1FCF JUMPI POP DUP1 PUSH1 0x1 PUSH1 0x1 PUSH1 0xA0 SHL SUB AND DUP7 PUSH1 0x1 PUSH1 0x1 PUSH1 0xA0 SHL SUB AND EQ JUMPDEST PUSH2 0x201B JUMPI PUSH1 0x40 MLOAD PUSH3 0x461BCD PUSH1 0xE5 SHL DUP2 MSTORE PUSH1 0x20 PUSH1 0x4 DUP3 ADD MSTORE PUSH1 0x1D PUSH1 0x24 DUP3 ADD MSTORE PUSH32 0x4F504D3A20496E76616C696420436F6C6C61746572616C204173736574000000 PUSH1 0x44 DUP3 ADD MSTORE PUSH1 0x64 ADD PUSH2 0x292 JUMP JUMPDEST PUSH1 0x0 DUP1 PUSH2 0x2029 DUP11 DUP6 DUP6 PUSH2 0x3023 JUMP JUMPDEST PUSH2 0x2033 SWAP1 DUP11 PUSH2 0x45F4 JUMP JUMPDEST SWAP7 POP DUP10 PUSH1 0x1 PUSH1 0x1 PUSH1 0xA0 SHL SUB AND PUSH4 0x99D32FC4 PUSH1 0x40 MLOAD DUP2 PUSH4 0xFFFFFFFF AND PUSH1 0xE0 SHL DUP2 MSTORE PUSH1 0x4 ADD PUSH1 0x0 PUSH1 0x40 MLOAD DUP1 DUP4 SUB DUP2 PUSH1 0x0 DUP8 DUP1 EXTCODESIZE ISZERO DUP1 ISZERO PUSH2 0x2070 JUMPI PUSH1 0x0 DUP1 REVERT JUMPDEST POP GAS CALL ISZERO DUP1 ISZERO PUSH2 0x2084 JUMPI RETURNDATASIZE PUSH1 0x0 DUP1 RETURNDATACOPY RETURNDATASIZE PUSH1 0x0 REVERT JUMPDEST POP POP PUSH1 0x40 MLOAD PUSH4 0x1DA70373 PUSH1 0xE1 SHL DUP2 MSTORE PUSH1 0x4 DUP2 ADD DUP11 SWAP1 MSTORE PUSH1 0x0 SWAP3 POP DUP3 SWAP2 POP PUSH1 0x1 PUSH1 0x1 PUSH1 0xA0 SHL SUB DUP14 AND SWAP1 PUSH4 0x3B4E06E6 SWAP1 PUSH1 0x24 ADD PUSH1 0x40 DUP1 MLOAD DUP1 DUP4 SUB DUP2 DUP7 GAS STATICCALL ISZERO DUP1 ISZERO PUSH2 0x20D1 JUMPI RETURNDATASIZE PUSH1 0x0 DUP1 RETURNDATACOPY RETURNDATASIZE PUSH1 0x0 REVERT JUMPDEST POP POP POP POP PUSH1 0x40 MLOAD RETURNDATASIZE PUSH1 0x1F NOT PUSH1 0x1F DUP3 ADD AND DUP3 ADD DUP1 PUSH1 0x40 MSTORE POP DUP2 ADD SWAP1 PUSH2 0x20F5 SWAP2 SWAP1 PUSH2 0x4111 JUMP JUMPDEST SWAP2 POP SWAP2 POP PUSH2 0x2105 DUP13 DUP11 DUP5 DUP5 PUSH2 0x1503 JUMP JUMPDEST PUSH2 0x2110 DUP7 DUP14 DUP5 PUSH2 0x1194 JUMP JUMPDEST PUSH2 0x211B DUP6 DUP14 DUP4 PUSH2 0x1194 JUMP JUMPDEST PUSH1 0x1 PUSH1 0x1 PUSH1 0xA0 SHL SUB DUP14 AND ADDRESS EQ PUSH2 0x235B JUMPI PUSH1 0x40 MLOAD PUSH4 0x35EA6A75 PUSH1 0xE0 SHL DUP2 MSTORE PUSH1 0x1 PUSH1 0x1 PUSH1 0xA0 SHL SUB DUP8 DUP2 AND PUSH1 0x4 DUP4 ADD MSTORE DUP10 AND SWAP1 PUSH4 0x35EA6A75 SWAP1 PUSH1 0x24 ADD PUSH2 0x180 PUSH1 0x40 MLOAD DUP1 DUP4 SUB DUP2 DUP7 GAS STATICCALL ISZERO DUP1 ISZERO PUSH2 0x2172 JUMPI RETURNDATASIZE PUSH1 0x0 DUP1 RETURNDATACOPY RETURNDATASIZE PUSH1 0x0 REVERT JUMPDEST POP POP POP POP PUSH1 0x40 MLOAD RETURNDATASIZE PUSH1 0x1F NOT PUSH1 0x1F DUP3 ADD AND DUP3 ADD DUP1 PUSH1 0x40 MSTORE POP DUP2 ADD SWAP1 PUSH2 0x2196 SWAP2 SWAP1 PUSH2 0x400B JUMP JUMPDEST PUSH1 0xE0 ADD MLOAD PUSH1 0x40 MLOAD PUSH4 0x70A08231 PUSH1 0xE0 SHL DUP2 MSTORE PUSH1 0x1 PUSH1 0x1 PUSH1 0xA0 SHL SUB DUP16 DUP2 AND PUSH1 0x4 DUP4 ADD MSTORE SWAP1 SWAP2 AND SWAP1 PUSH4 0x70A08231 SWAP1 PUSH1 0x24 ADD PUSH1 0x20 PUSH1 0x40 MLOAD DUP1 DUP4 SUB DUP2 DUP7 GAS STATICCALL ISZERO DUP1 ISZERO PUSH2 0x21E1 JUMPI RETURNDATASIZE PUSH1 0x0 DUP1 RETURNDATACOPY RETURNDATASIZE PUSH1 0x0 REVERT JUMPDEST POP POP POP POP PUSH1 0x40 MLOAD RETURNDATASIZE PUSH1 0x1F NOT PUSH1 0x1F DUP3 ADD AND DUP3 ADD DUP1 PUSH1 0x40 MSTORE POP DUP2 ADD SWAP1 PUSH2 0x2205 SWAP2 SWAP1 PUSH2 0x40F8 JUMP JUMPDEST PUSH1 0x40 MLOAD PUSH4 0x35EA6A75 PUSH1 0xE0 SHL DUP2 MSTORE PUSH1 0x1 PUSH1 0x1 PUSH1 0xA0 SHL SUB DUP8 DUP2 AND PUSH1 0x4 DUP4 ADD MSTORE SWAP2 SWAP6 POP SWAP1 DUP10 AND SWAP1 PUSH4 0x35EA6A75 SWAP1 PUSH1 0x24 ADD PUSH2 0x180 PUSH1 0x40 MLOAD DUP1 DUP4 SUB DUP2 DUP7 GAS STATICCALL ISZERO DUP1 ISZERO PUSH2 0x2250 JUMPI RETURNDATASIZE PUSH1 0x0 DUP1 RETURNDATACOPY RETURNDATASIZE PUSH1 0x0 REVERT JUMPDEST POP POP POP POP PUSH1 0x40 MLOAD RETURNDATASIZE PUSH1 0x1F NOT PUSH1 0x1F DUP3 ADD AND DUP3 ADD DUP1 PUSH1 0x40 MSTORE POP DUP2 ADD SWAP1 PUSH2 0x2274 SWAP2 SWAP1 PUSH2 0x400B JUMP JUMPDEST PUSH1 0xE0 ADD MLOAD PUSH1 0x40 MLOAD PUSH4 0x70A08231 PUSH1 0xE0 SHL DUP2 MSTORE PUSH1 0x1 PUSH1 0x1 PUSH1 0xA0 SHL SUB DUP16 DUP2 AND PUSH1 0x4 DUP4 ADD MSTORE SWAP1 SWAP2 AND SWAP1 PUSH4 0x70A08231 SWAP1 PUSH1 0x24 ADD PUSH1 0x20 PUSH1 0x40 MLOAD DUP1 DUP4 SUB DUP2 DUP7 GAS STATICCALL ISZERO DUP1 ISZERO PUSH2 0x22BF JUMPI RETURNDATASIZE PUSH1 0x0 DUP1 RETURNDATACOPY RETURNDATASIZE PUSH1 0x0 REVERT JUMPDEST POP POP POP POP PUSH1 0x40 MLOAD RETURNDATASIZE PUSH1 0x1F NOT PUSH1 0x1F DUP3 ADD AND DUP3 ADD DUP1 PUSH1 0x40 MSTORE POP DUP2 ADD SWAP1 PUSH2 0x22E3 SWAP2 SWAP1 PUSH2 0x40F8 JUMP JUMPDEST SWAP3 POP PUSH2 0x22F1 DUP9 DUP15 DUP9 DUP8 PUSH2 0x102E JUMP JUMPDEST PUSH2 0x22FD DUP9 DUP15 DUP8 DUP7 PUSH2 0x102E JUMP JUMPDEST PUSH1 0x1 PUSH1 0x1 PUSH1 0xA0 SHL SUB DUP14 AND CALLER EQ PUSH2 0x2356 JUMPI PUSH1 0x0 PUSH2 0x231B DUP16 DUP5 DUP5 DUP15 PUSH2 0x32AE JUMP JUMPDEST SWAP1 POP DUP7 PUSH1 0x1 PUSH1 0x1 PUSH1 0xA0 SHL SUB AND DUP12 PUSH1 0x1 PUSH1 0x1 PUSH1 0xA0 SHL SUB AND SUB PUSH2 0x2347 JUMPI PUSH2 0x2340 DUP2 DUP7 PUSH2 0x4475 JUMP JUMPDEST SWAP5 POP PUSH2 0x2354 JUMP JUMPDEST PUSH2 0x2351 DUP2 DUP6 PUSH2 0x4475 JUMP JUMPDEST SWAP4 POP JUMPDEST POP JUMPDEST PUSH2 0x2436 JUMP JUMPDEST PUSH1 0x40 MLOAD PUSH4 0x70A08231 PUSH1 0xE0 SHL DUP2 MSTORE PUSH1 0x1 PUSH1 0x1 PUSH1 0xA0 SHL SUB DUP15 DUP2 AND PUSH1 0x4 DUP4 ADD MSTORE DUP8 AND SWAP1 PUSH4 0x70A08231 SWAP1 PUSH1 0x24 ADD PUSH1 0x20 PUSH1 0x40 MLOAD DUP1 DUP4 SUB DUP2 DUP7 GAS STATICCALL ISZERO DUP1 ISZERO PUSH2 0x23A1 JUMPI RETURNDATASIZE PUSH1 0x0 DUP1 RETURNDATACOPY RETURNDATASIZE PUSH1 0x0 REVERT JUMPDEST POP POP POP POP PUSH1 0x40 MLOAD RETURNDATASIZE PUSH1 0x1F NOT PUSH1 0x1F DUP3 ADD AND DUP3 ADD DUP1 PUSH1 0x40 MSTORE POP DUP2 ADD SWAP1 PUSH2 0x23C5 SWAP2 SWAP1 PUSH2 0x40F8 JUMP JUMPDEST PUSH1 0x40 MLOAD PUSH4 0x70A08231 PUSH1 0xE0 SHL DUP2 MSTORE PUSH1 0x1 PUSH1 0x1 PUSH1 0xA0 SHL SUB DUP16 DUP2 AND PUSH1 0x4 DUP4 ADD MSTORE SWAP2 SWAP6 POP SWAP1 DUP7 AND SWAP1 PUSH4 0x70A08231 SWAP1 PUSH1 0x24 ADD PUSH1 0x20 PUSH1 0x40 MLOAD DUP1 DUP4 SUB DUP2 DUP7 GAS STATICCALL ISZERO DUP1 ISZERO PUSH2 0x240F JUMPI RETURNDATASIZE PUSH1 0x0 DUP1 RETURNDATACOPY RETURNDATASIZE PUSH1 0x0 REVERT JUMPDEST POP POP POP POP PUSH1 0x40 MLOAD RETURNDATASIZE PUSH1 0x1F NOT PUSH1 0x1F DUP3 ADD AND DUP3 ADD DUP1 PUSH1 0x40 MSTORE POP DUP2 ADD SWAP1 PUSH2 0x2433 SWAP2 SWAP1 PUSH2 0x40F8 JUMP JUMPDEST SWAP3 POP JUMPDEST PUSH1 0x40 DUP1 MLOAD PUSH1 0x2 DUP1 DUP3 MSTORE PUSH1 0x60 DUP3 ADD DUP4 MSTORE PUSH1 0x0 SWAP3 PUSH1 0x20 DUP4 ADD SWAP1 DUP1 CALLDATASIZE DUP4 CALLDATACOPY ADD SWAP1 POP POP SWAP1 POP DUP3 DUP6 LT ISZERO PUSH2 0x24D9 JUMPI DUP6 DUP2 PUSH1 0x0 DUP2 MLOAD DUP2 LT PUSH2 0x2473 JUMPI PUSH2 0x2473 PUSH2 0x4152 JUMP JUMPDEST PUSH1 0x20 MUL PUSH1 0x20 ADD ADD SWAP1 PUSH1 0x1 PUSH1 0x1 PUSH1 0xA0 SHL SUB AND SWAP1 DUP2 PUSH1 0x1 PUSH1 0x1 PUSH1 0xA0 SHL SUB AND DUP2 MSTORE POP POP DUP7 DUP2 PUSH1 0x1 DUP2 MLOAD DUP2 LT PUSH2 0x24A7 JUMPI PUSH2 0x24A7 PUSH2 0x4152 JUMP JUMPDEST PUSH1 0x1 PUSH1 0x1 PUSH1 0xA0 SHL SUB SWAP1 SWAP3 AND PUSH1 0x20 SWAP3 DUP4 MUL SWAP2 SWAP1 SWAP2 ADD SWAP1 SWAP2 ADD MSTORE PUSH2 0x24D4 DUP9 PUSH2 0x24CD DUP8 DUP7 PUSH2 0x4475 JUMP JUMPDEST DUP7 DUP5 PUSH2 0x36E8 JUMP JUMPDEST PUSH2 0x2556 JUMP JUMPDEST DUP2 DUP5 LT ISZERO PUSH2 0x2556 JUMPI DUP7 DUP2 PUSH1 0x0 DUP2 MLOAD DUP2 LT PUSH2 0x24F5 JUMPI PUSH2 0x24F5 PUSH2 0x4152 JUMP JUMPDEST PUSH1 0x20 MUL PUSH1 0x20 ADD ADD SWAP1 PUSH1 0x1 PUSH1 0x1 PUSH1 0xA0 SHL SUB AND SWAP1 DUP2 PUSH1 0x1 PUSH1 0x1 PUSH1 0xA0 SHL SUB AND DUP2 MSTORE POP POP DUP6 DUP2 PUSH1 0x1 DUP2 MLOAD DUP2 LT PUSH2 0x2529 JUMPI PUSH2 0x2529 PUSH2 0x4152 JUMP JUMPDEST PUSH1 0x1 PUSH1 0x1 PUSH1 0xA0 SHL SUB SWAP1 SWAP3 AND PUSH1 0x20 SWAP3 DUP4 MUL SWAP2 SWAP1 SWAP2 ADD SWAP1 SWAP2 ADD MSTORE PUSH2 0x2556 DUP9 PUSH2 0x254F DUP7 DUP6 PUSH2 0x4475 JUMP JUMPDEST DUP8 DUP5 PUSH2 0x36E8 JUMP JUMPDEST PUSH1 0x40 MLOAD PUSH4 0x1C57762B PUSH1 0xE3 SHL DUP2 MSTORE PUSH1 0x4 DUP2 ADD DUP5 SWAP1 MSTORE PUSH1 0x24 DUP2 ADD DUP4 SWAP1 MSTORE PUSH1 0x1 PUSH1 0x1 PUSH1 0xA0 SHL SUB DUP15 AND SWAP1 PUSH4 0xE2BBB158 SWAP1 PUSH1 0x44 ADD PUSH1 0x20 PUSH1 0x40 MLOAD DUP1 DUP4 SUB DUP2 PUSH1 0x0 DUP8 GAS CALL ISZERO DUP1 ISZERO PUSH2 0x25A4 JUMPI RETURNDATASIZE PUSH1 0x0 DUP1 RETURNDATACOPY RETURNDATASIZE PUSH1 0x0 REVERT JUMPDEST POP POP POP POP PUSH1 0x40 MLOAD RETURNDATASIZE PUSH1 0x1F NOT PUSH1 0x1F DUP3 ADD AND DUP3 ADD DUP1 PUSH1 0x40 MSTORE POP DUP2 ADD SWAP1 PUSH2 0x25C8 SWAP2 SWAP1 PUSH2 0x40F8 JUMP JUMPDEST SWAP10 POP POP POP POP PUSH2 0x25D8 DUP11 DUP8 DUP10 PUSH2 0x1194 JUMP JUMPDEST PUSH1 0x1 PUSH1 0x1 PUSH1 0xA0 SHL SUB DUP12 AND ADDRESS EQ PUSH2 0x2660 JUMPI DUP6 PUSH1 0x1 PUSH1 0x1 PUSH1 0xA0 SHL SUB AND PUSH4 0x573ADE81 DUP12 DUP10 PUSH1 0x2 DUP16 PUSH1 0x40 MLOAD DUP6 PUSH4 0xFFFFFFFF AND PUSH1 0xE0 SHL DUP2 MSTORE PUSH1 0x4 ADD PUSH2 0x261B SWAP5 SWAP4 SWAP3 SWAP2 SWAP1 PUSH2 0x4434 JUMP JUMPDEST PUSH1 0x20 PUSH1 0x40 MLOAD DUP1 DUP4 SUB DUP2 PUSH1 0x0 DUP8 GAS CALL ISZERO DUP1 ISZERO PUSH2 0x263A JUMPI RETURNDATASIZE PUSH1 0x0 DUP1 RETURNDATACOPY RETURNDATASIZE PUSH1 0x0 REVERT JUMPDEST POP POP POP POP PUSH1 0x40 MLOAD RETURNDATASIZE PUSH1 0x1F NOT PUSH1 0x1F DUP3 ADD AND DUP3 ADD DUP1 PUSH1 0x40 MSTORE POP DUP2 ADD SWAP1 PUSH2 0x265E SWAP2 SWAP1 PUSH2 0x40F8 JUMP JUMPDEST POP JUMPDEST PUSH1 0x40 MLOAD PUSH4 0x70A08231 PUSH1 0xE0 SHL DUP2 MSTORE ADDRESS PUSH1 0x4 DUP3 ADD MSTORE PUSH1 0x0 SWAP1 PUSH1 0x1 PUSH1 0x1 PUSH1 0xA0 SHL SUB DUP7 AND SWAP1 PUSH4 0x70A08231 SWAP1 PUSH1 0x24 ADD PUSH1 0x20 PUSH1 0x40 MLOAD DUP1 DUP4 SUB DUP2 DUP7 GAS STATICCALL ISZERO DUP1 ISZERO PUSH2 0x26A7 JUMPI RETURNDATASIZE PUSH1 0x0 DUP1 RETURNDATACOPY RETURNDATASIZE PUSH1 0x0 REVERT JUMPDEST POP POP POP POP PUSH1 0x40 MLOAD RETURNDATASIZE PUSH1 0x1F NOT PUSH1 0x1F DUP3 ADD AND DUP3 ADD DUP1 PUSH1 0x40 MSTORE POP DUP2 ADD SWAP1 PUSH2 0x26CB SWAP2 SWAP1 PUSH2 0x40F8 JUMP JUMPDEST PUSH1 0x40 MLOAD PUSH4 0x70A08231 PUSH1 0xE0 SHL DUP2 MSTORE ADDRESS PUSH1 0x4 DUP3 ADD MSTORE SWAP1 SWAP2 POP PUSH1 0x0 SWAP1 PUSH1 0x1 PUSH1 0x1 PUSH1 0xA0 SHL SUB DUP7 AND SWAP1 PUSH4 0x70A08231 SWAP1 PUSH1 0x24 ADD PUSH1 0x20 PUSH1 0x40 MLOAD DUP1 DUP4 SUB DUP2 DUP7 GAS STATICCALL ISZERO DUP1 ISZERO PUSH2 0x2715 JUMPI RETURNDATASIZE PUSH1 0x0 DUP1 RETURNDATACOPY RETURNDATASIZE PUSH1 0x0 REVERT JUMPDEST POP POP POP POP PUSH1 0x40 MLOAD RETURNDATASIZE PUSH1 0x1F NOT PUSH1 0x1F DUP3 ADD AND DUP3 ADD DUP1 PUSH1 0x40 MSTORE POP DUP2 ADD SWAP1 PUSH2 0x2739 SWAP2 SWAP1 PUSH2 0x40F8 JUMP JUMPDEST SWAP1 POP DUP2 DUP5 GT ISZERO PUSH2 0x2754 JUMPI PUSH2 0x274D DUP3 DUP6 PUSH2 0x4475 JUMP JUMPDEST SWAP2 POP PUSH2 0x2759 JUMP JUMPDEST PUSH1 0x0 SWAP2 POP JUMPDEST DUP1 DUP4 GT ISZERO PUSH2 0x2772 JUMPI PUSH2 0x276B DUP2 DUP5 PUSH2 0x4475 JUMP JUMPDEST SWAP1 POP PUSH2 0x2776 JUMP JUMPDEST POP PUSH1 0x0 JUMPDEST PUSH1 0x40 DUP1 MLOAD DUP11 DUP2 MSTORE PUSH1 0x20 DUP2 ADD DUP5 SWAP1 MSTORE SWAP1 DUP2 ADD DUP3 SWAP1 MSTORE PUSH1 0x1 PUSH1 0x1 PUSH1 0xA0 SHL SUB DUP1 DUP15 AND SWAP2 SWAP1 DUP16 AND SWAP1 PUSH32 0x13A9B207A6235519F908E828190FA2F938B5E52C7888B90B98B87125CAEBDE6E SWAP1 PUSH1 0x60 ADD PUSH1 0x40 MLOAD DUP1 SWAP2 SUB SWAP1 LOG3 POP POP CALLER PUSH1 0x1 PUSH1 0x1 PUSH1 0xA0 SHL SUB DUP13 AND SUB PUSH2 0x2807 JUMPI PUSH2 0x2805 DUP13 DUP6 PUSH1 0x1 PUSH1 0x1 PUSH1 0xA0 SHL SUB AND DUP11 PUSH1 0x1 PUSH1 0x1 PUSH1 0xA0 SHL SUB AND EQ PUSH2 0x27FC JUMPI DUP6 PUSH2 0x27FE JUMP JUMPDEST DUP5 JUMPDEST PUSH1 0x0 PUSH2 0x641 JUMP JUMPDEST POP JUMPDEST POP POP POP POP POP POP SWAP6 SWAP5 POP POP POP POP POP JUMP JUMPDEST PUSH1 0x40 MLOAD PUSH4 0x6EB1769F PUSH1 0xE1 SHL DUP2 MSTORE ADDRESS PUSH1 0x4 DUP3 ADD MSTORE PUSH1 0x1 PUSH1 0x1 PUSH1 0xA0 SHL SUB DUP4 DUP2 AND PUSH1 0x24 DUP4 ADD MSTORE PUSH1 0x0 SWAP2 DUP4 SWAP2 DUP7 AND SWAP1 PUSH4 0xDD62ED3E SWAP1 PUSH1 0x44 ADD PUSH1 0x20 PUSH1 0x40 MLOAD DUP1 DUP4 SUB DUP2 DUP7 GAS STATICCALL ISZERO DUP1 ISZERO PUSH2 0x2867 JUMPI RETURNDATASIZE PUSH1 0x0 DUP1 RETURNDATACOPY RETURNDATASIZE PUSH1 0x0 REVERT JUMPDEST POP POP POP POP PUSH1 0x40 MLOAD RETURNDATASIZE PUSH1 0x1F NOT PUSH1 0x1F DUP3 ADD AND DUP3 ADD DUP1 PUSH1 0x40 MSTORE POP DUP2 ADD SWAP1 PUSH2 0x288B SWAP2 SWAP1 PUSH2 0x40F8 JUMP JUMPDEST PUSH2 0x2895 SWAP2 SWAP1 PUSH2 0x45F4 JUMP JUMPDEST PUSH1 0x40 MLOAD PUSH1 0x1 PUSH1 0x1 PUSH1 0xA0 SHL SUB DUP6 AND PUSH1 0x24 DUP3 ADD MSTORE PUSH1 0x44 DUP2 ADD DUP3 SWAP1 MSTORE SWAP1 SWAP2 POP PUSH2 0x118E SWAP1 DUP6 SWAP1 PUSH4 0x95EA7B3 PUSH1 0xE0 SHL SWAP1 PUSH1 0x64 ADD PUSH2 0x18A1 JUMP JUMPDEST PUSH1 0x0 PUSH2 0x291D DUP3 PUSH1 0x40 MLOAD DUP1 PUSH1 0x40 ADD PUSH1 0x40 MSTORE DUP1 PUSH1 0x20 DUP2 MSTORE PUSH1 0x20 ADD PUSH32 0x5361666545524332303A206C6F772D6C6576656C2063616C6C206661696C6564 DUP2 MSTORE POP DUP6 PUSH1 0x1 PUSH1 0x1 PUSH1 0xA0 SHL SUB AND PUSH2 0x3982 SWAP1 SWAP3 SWAP2 SWAP1 PUSH4 0xFFFFFFFF AND JUMP JUMPDEST DUP1 MLOAD SWAP1 SWAP2 POP ISZERO PUSH2 0x1223 JUMPI DUP1 DUP1 PUSH1 0x20 ADD SWAP1 MLOAD DUP2 ADD SWAP1 PUSH2 0x293B SWAP2 SWAP1 PUSH2 0x4701 JUMP JUMPDEST PUSH2 0x1223 JUMPI PUSH1 0x40 MLOAD PUSH3 0x461BCD PUSH1 0xE5 SHL DUP2 MSTORE PUSH1 0x20 PUSH1 0x4 DUP3 ADD MSTORE PUSH1 0x2A PUSH1 0x24 DUP3 ADD MSTORE PUSH32 0x5361666545524332303A204552433230206F7065726174696F6E20646964206E PUSH1 0x44 DUP3 ADD MSTORE PUSH10 0x1BDD081CDD58D8D95959 PUSH1 0xB2 SHL PUSH1 0x64 DUP3 ADD MSTORE PUSH1 0x84 ADD PUSH2 0x292 JUMP JUMPDEST PUSH1 0x40 MLOAD PUSH4 0xB3596F07 PUSH1 0xE0 SHL DUP2 MSTORE PUSH1 0x1 PUSH1 0x1 PUSH1 0xA0 SHL SUB DUP5 DUP2 AND PUSH1 0x4 DUP4 ADD MSTORE PUSH1 0x0 SWAP2 DUP3 SWAP2 DUP8 AND SWAP1 PUSH4 0xB3596F07 SWAP1 PUSH1 0x24 ADD PUSH1 0x20 PUSH1 0x40 MLOAD DUP1 DUP4 SUB DUP2 DUP7 GAS STATICCALL ISZERO DUP1 ISZERO PUSH2 0x29E5 JUMPI RETURNDATASIZE PUSH1 0x0 DUP1 RETURNDATACOPY RETURNDATASIZE PUSH1 0x0 REVERT JUMPDEST POP POP POP POP PUSH1 0x40 MLOAD RETURNDATASIZE PUSH1 0x1F NOT PUSH1 0x1F DUP3 ADD AND DUP3 ADD DUP1 PUSH1 0x40 MSTORE POP DUP2 ADD SWAP1 PUSH2 0x2A09 SWAP2 SWAP1 PUSH2 0x40F8 JUMP JUMPDEST PUSH1 0x40 MLOAD PUSH4 0xB3596F07 PUSH1 0xE0 SHL DUP2 MSTORE PUSH1 0x1 PUSH1 0x1 PUSH1 0xA0 SHL SUB DUP6 DUP2 AND PUSH1 0x4 DUP4 ADD MSTORE SWAP2 SWAP3 POP PUSH1 0x0 SWAP2 DUP9 AND SWAP1 PUSH4 0xB3596F07 SWAP1 PUSH1 0x24 ADD PUSH1 0x20 PUSH1 0x40 MLOAD DUP1 DUP4 SUB DUP2 DUP7 GAS STATICCALL ISZERO DUP1 ISZERO PUSH2 0x2A55 JUMPI RETURNDATASIZE PUSH1 0x0 DUP1 RETURNDATACOPY RETURNDATASIZE PUSH1 0x0 REVERT JUMPDEST POP POP POP POP PUSH1 0x40 MLOAD RETURNDATASIZE PUSH1 0x1F NOT PUSH1 0x1F DUP3 ADD AND DUP3 ADD DUP1 PUSH1 0x40 MSTORE POP DUP2 ADD SWAP1 PUSH2 0x2A79 SWAP2 SWAP1 PUSH2 0x40F8 JUMP JUMPDEST SWAP1 POP PUSH1 0x0 DUP3 GT DUP1 ISZERO PUSH2 0x2A8B JUMPI POP PUSH1 0x0 DUP2 GT JUMPDEST PUSH2 0x2AD7 JUMPI PUSH1 0x40 MLOAD PUSH3 0x461BCD PUSH1 0xE5 SHL DUP2 MSTORE PUSH1 0x20 PUSH1 0x4 DUP3 ADD MSTORE PUSH1 0x19 PUSH1 0x24 DUP3 ADD MSTORE PUSH32 0x4F504D3A20496E76616C6964204F7261636C6520507269636500000000000000 PUSH1 0x44 DUP3 ADD MSTORE PUSH1 0x64 ADD PUSH2 0x292 JUMP JUMPDEST DUP1 DUP7 PUSH1 0x1 PUSH1 0x1 PUSH1 0xA0 SHL SUB AND PUSH4 0x313CE567 PUSH1 0x40 MLOAD DUP2 PUSH4 0xFFFFFFFF AND PUSH1 0xE0 SHL DUP2 MSTORE PUSH1 0x4 ADD PUSH1 0x20 PUSH1 0x40 MLOAD DUP1 DUP4 SUB DUP2 DUP7 GAS STATICCALL ISZERO DUP1 ISZERO PUSH2 0x2B16 JUMPI RETURNDATASIZE PUSH1 0x0 DUP1 RETURNDATACOPY RETURNDATASIZE PUSH1 0x0 REVERT JUMPDEST POP POP POP POP PUSH1 0x40 MLOAD RETURNDATASIZE PUSH1 0x1F NOT PUSH1 0x1F DUP3 ADD AND DUP3 ADD DUP1 PUSH1 0x40 MSTORE POP DUP2 ADD SWAP1 PUSH2 0x2B3A SWAP2 SWAP1 PUSH2 0x471C JUMP JUMPDEST PUSH2 0x2B45 SWAP1 PUSH1 0xA PUSH2 0x45E5 JUMP JUMPDEST DUP6 PUSH1 0x1 PUSH1 0x1 PUSH1 0xA0 SHL SUB AND PUSH4 0x313CE567 PUSH1 0x40 MLOAD DUP2 PUSH4 0xFFFFFFFF AND PUSH1 0xE0 SHL DUP2 MSTORE PUSH1 0x4 ADD PUSH1 0x20 PUSH1 0x40 MLOAD DUP1 DUP4 SUB DUP2 DUP7 GAS STATICCALL ISZERO DUP1 ISZERO PUSH2 0x2B83 JUMPI RETURNDATASIZE PUSH1 0x0 DUP1 RETURNDATACOPY RETURNDATASIZE PUSH1 0x0 REVERT JUMPDEST POP POP POP POP PUSH1 0x40 MLOAD RETURNDATASIZE PUSH1 0x1F NOT PUSH1 0x1F DUP3 ADD AND DUP3 ADD DUP1 PUSH1 0x40 MSTORE POP DUP2 ADD SWAP1 PUSH2 0x2BA7 SWAP2 SWAP1 PUSH2 0x471C JUMP JUMPDEST PUSH2 0x2BB2 SWAP1 PUSH1 0xA PUSH2 0x45E5 JUMP JUMPDEST PUSH2 0x2BBC DUP6 DUP10 PUSH2 0x44C8 JUMP JUMPDEST PUSH2 0x2BC6 SWAP2 SWAP1 PUSH2 0x44C8 JUMP JUMPDEST PUSH2 0x2BD0 SWAP2 SWAP1 PUSH2 0x44DF JUMP JUMPDEST PUSH2 0x2BDA SWAP2 SWAP1 PUSH2 0x44DF JUMP JUMPDEST SWAP3 POP PUSH1 0x0 DUP4 GT PUSH2 0x2C2C JUMPI PUSH1 0x40 MLOAD PUSH3 0x461BCD PUSH1 0xE5 SHL DUP2 MSTORE PUSH1 0x20 PUSH1 0x4 DUP3 ADD MSTORE PUSH1 0x1A PUSH1 0x24 DUP3 ADD MSTORE PUSH32 0x4F504D3A2054617267657420416D6F756E7420546F6F204C6F77000000000000 PUSH1 0x44 DUP3 ADD MSTORE PUSH1 0x64 ADD PUSH2 0x292 JUMP JUMPDEST POP POP SWAP5 SWAP4 POP POP POP POP JUMP JUMPDEST PUSH1 0x0 DUP1 PUSH1 0x0 DUP1 PUSH1 0x0 PUSH2 0x2C47 DUP11 PUSH2 0xECA JUMP JUMPDEST SWAP5 POP SWAP5 POP SWAP5 POP SWAP5 POP POP PUSH2 0x2C5B DUP10 DUP4 DUP4 PUSH2 0x2ED9 JUMP JUMPDEST PUSH1 0x40 MLOAD PUSH4 0xA41FE49F PUSH1 0xE0 SHL DUP2 MSTORE PUSH1 0x4 DUP2 ADD DUP10 SWAP1 MSTORE PUSH1 0x0 PUSH1 0x24 DUP3 ADD DUP2 SWAP1 MSTORE PUSH1 0x44 DUP3 ADD DUP2 SWAP1 MSTORE SWAP1 DUP2 SWAP1 PUSH1 0x1 PUSH1 0x1 PUSH1 0xA0 SHL SUB DUP13 AND SWAP1 PUSH4 0xA41FE49F SWAP1 PUSH1 0x64 ADD PUSH1 0x40 DUP1 MLOAD DUP1 DUP4 SUB DUP2 PUSH1 0x0 DUP8 GAS CALL ISZERO DUP1 ISZERO PUSH2 0x2CB4 JUMPI RETURNDATASIZE PUSH1 0x0 DUP1 RETURNDATACOPY RETURNDATASIZE PUSH1 0x0 REVERT JUMPDEST POP POP POP POP PUSH1 0x40 MLOAD RETURNDATASIZE PUSH1 0x1F NOT PUSH1 0x1F DUP3 ADD AND DUP3 ADD DUP1 PUSH1 0x40 MSTORE POP DUP2 ADD SWAP1 PUSH2 0x2CD8 SWAP2 SWAP1 PUSH2 0x4111 JUMP JUMPDEST SWAP1 SWAP3 POP SWAP1 POP PUSH1 0x1 PUSH1 0x1 PUSH1 0xA0 SHL SUB DUP10 AND ISZERO PUSH2 0x2E76 JUMPI DUP4 PUSH1 0x1 PUSH1 0x1 PUSH1 0xA0 SHL SUB AND DUP10 PUSH1 0x1 PUSH1 0x1 PUSH1 0xA0 SHL SUB AND EQ DUP1 PUSH2 0x2D1D JUMPI POP DUP3 PUSH1 0x1 PUSH1 0x1 PUSH1 0xA0 SHL SUB AND DUP10 PUSH1 0x1 PUSH1 0x1 PUSH1 0xA0 SHL SUB AND EQ JUMPDEST PUSH2 0x2D69 JUMPI PUSH1 0x40 MLOAD PUSH3 0x461BCD PUSH1 0xE5 SHL DUP2 MSTORE PUSH1 0x20 PUSH1 0x4 DUP3 ADD MSTORE PUSH1 0x17 PUSH1 0x24 DUP3 ADD MSTORE PUSH32 0x4F504D3A20496E76616C6964205377617020546F6B656E000000000000000000 PUSH1 0x44 DUP3 ADD MSTORE PUSH1 0x64 ADD PUSH2 0x292 JUMP JUMPDEST PUSH1 0x40 DUP1 MLOAD PUSH1 0x2 DUP1 DUP3 MSTORE PUSH1 0x60 DUP3 ADD DUP4 MSTORE PUSH1 0x0 SWAP3 PUSH1 0x20 DUP4 ADD SWAP1 DUP1 CALLDATASIZE DUP4 CALLDATACOPY ADD SWAP1 POP POP SWAP1 POP DUP10 DUP2 PUSH1 0x0 DUP2 MLOAD DUP2 LT PUSH2 0x2D9E JUMPI PUSH2 0x2D9E PUSH2 0x4152 JUMP JUMPDEST PUSH1 0x1 PUSH1 0x1 PUSH1 0xA0 SHL SUB SWAP3 DUP4 AND PUSH1 0x20 SWAP2 DUP3 MUL SWAP3 SWAP1 SWAP3 ADD ADD MSTORE DUP11 DUP2 AND SWAP1 DUP7 AND EQ PUSH2 0x2DC5 JUMPI DUP5 PUSH2 0x2DC7 JUMP JUMPDEST DUP4 JUMPDEST DUP2 PUSH1 0x1 DUP2 MLOAD DUP2 LT PUSH2 0x2DDA JUMPI PUSH2 0x2DDA PUSH2 0x4152 JUMP JUMPDEST PUSH1 0x1 PUSH1 0x1 PUSH1 0xA0 SHL SUB SWAP3 DUP4 AND PUSH1 0x20 SWAP2 DUP3 MUL SWAP3 SWAP1 SWAP3 ADD ADD MSTORE PUSH1 0x0 SWAP1 DUP12 DUP2 AND SWAP1 DUP8 AND EQ PUSH2 0x2E04 JUMPI DUP3 PUSH2 0x2E06 JUMP JUMPDEST DUP4 JUMPDEST SWAP1 POP PUSH1 0x0 PUSH2 0x2E16 DUP9 DUP11 DUP5 DUP7 PUSH2 0x18D8 JUMP JUMPDEST SWAP1 POP DUP7 PUSH1 0x1 PUSH1 0x1 PUSH1 0xA0 SHL SUB AND DUP13 PUSH1 0x1 PUSH1 0x1 PUSH1 0xA0 SHL SUB AND EQ PUSH2 0x2E40 JUMPI PUSH2 0x2E3B DUP2 DUP7 PUSH2 0x45F4 JUMP JUMPDEST PUSH2 0x2E43 JUMP JUMPDEST PUSH1 0x0 JUMPDEST SWAP5 POP DUP6 PUSH1 0x1 PUSH1 0x1 PUSH1 0xA0 SHL SUB AND DUP13 PUSH1 0x1 PUSH1 0x1 PUSH1 0xA0 SHL SUB AND EQ PUSH2 0x2E6D JUMPI PUSH2 0x2E68 DUP2 DUP6 PUSH2 0x45F4 JUMP JUMPDEST PUSH2 0x2E70 JUMP JUMPDEST PUSH1 0x0 JUMPDEST SWAP4 POP POP POP POP JUMPDEST PUSH1 0x40 DUP1 MLOAD DUP12 DUP2 MSTORE PUSH1 0x20 DUP2 ADD DUP5 SWAP1 MSTORE SWAP1 DUP2 ADD DUP3 SWAP1 MSTORE PUSH1 0x1 PUSH1 0x1 PUSH1 0xA0 SHL SUB DUP1 DUP14 AND SWAP2 SWAP1 DUP11 AND SWAP1 PUSH32 0xDC0CC97A08108CDB9E44A974A24BBF23B7D5871BA94674C1F06F3B020565BB23 SWAP1 PUSH1 0x60 ADD PUSH1 0x40 MLOAD DUP1 SWAP2 SUB SWAP1 LOG3 POP PUSH1 0x1 SWAP12 SWAP11 POP POP POP POP POP POP POP POP POP POP POP JUMP JUMPDEST PUSH1 0x0 DUP4 PUSH1 0x1 PUSH1 0x1 PUSH1 0xA0 SHL SUB AND PUSH4 0x443EC74D PUSH1 0x40 MLOAD DUP2 PUSH4 0xFFFFFFFF AND PUSH1 0xE0 SHL DUP2 MSTORE PUSH1 0x4 ADD PUSH1 0x40 DUP1 MLOAD DUP1 DUP4 SUB DUP2 DUP7 GAS STATICCALL ISZERO DUP1 ISZERO PUSH2 0x2F18 JUMPI RETURNDATASIZE PUSH1 0x0 DUP1 RETURNDATACOPY RETURNDATASIZE PUSH1 0x0 REVERT JUMPDEST POP POP POP POP PUSH1 0x40 MLOAD RETURNDATASIZE PUSH1 0x1F NOT PUSH1 0x1F DUP3 ADD AND DUP3 ADD DUP1 PUSH1 0x40 MSTORE POP DUP2 ADD SWAP1 PUSH2 0x2F3C SWAP2 SWAP1 PUSH2 0x448E JUMP JUMPDEST POP SWAP1 POP PUSH1 0x0 DUP5 PUSH1 0x1 PUSH1 0x1 PUSH1 0xA0 SHL SUB AND PUSH4 0x5EE04D78 PUSH1 0x40 MLOAD DUP2 PUSH4 0xFFFFFFFF AND PUSH1 0xE0 SHL DUP2 MSTORE PUSH1 0x4 ADD PUSH1 0x40 DUP1 MLOAD DUP1 DUP4 SUB DUP2 DUP7 GAS STATICCALL ISZERO DUP1 ISZERO PUSH2 0x2F7E JUMPI RETURNDATASIZE PUSH1 0x0 DUP1 RETURNDATACOPY RETURNDATASIZE PUSH1 0x0 REVERT JUMPDEST POP POP POP POP PUSH1 0x40 MLOAD RETURNDATASIZE PUSH1 0x1F NOT PUSH1 0x1F DUP3 ADD AND DUP3 ADD DUP1 PUSH1 0x40 MSTORE POP DUP2 ADD SWAP1 PUSH2 0x2FA2 SWAP2 SWAP1 PUSH2 0x448E JUMP JUMPDEST POP SWAP1 POP DUP2 PUSH1 0x1 PUSH1 0x1 PUSH1 0xA0 SHL SUB AND DUP5 PUSH1 0x1 PUSH1 0x1 PUSH1 0xA0 SHL SUB AND EQ DUP1 ISZERO PUSH2 0x2FD7 JUMPI POP DUP1 PUSH1 0x1 PUSH1 0x1 PUSH1 0xA0 SHL SUB AND DUP4 PUSH1 0x1 PUSH1 0x1 PUSH1 0xA0 SHL SUB AND EQ JUMPDEST PUSH2 0x118C JUMPI PUSH1 0x40 MLOAD PUSH3 0x461BCD PUSH1 0xE5 SHL DUP2 MSTORE PUSH1 0x20 PUSH1 0x4 DUP3 ADD MSTORE PUSH1 0x17 PUSH1 0x24 DUP3 ADD MSTORE PUSH32 0x4F504D3A20496E76616C69642044656274204173736574000000000000000000 PUSH1 0x44 DUP3 ADD MSTORE PUSH1 0x64 ADD PUSH2 0x292 JUMP JUMPDEST PUSH1 0x0 DUP1 DUP5 PUSH1 0x1 PUSH1 0x1 PUSH1 0xA0 SHL SUB AND PUSH4 0x38013F02 PUSH1 0x40 MLOAD DUP2 PUSH4 0xFFFFFFFF AND PUSH1 0xE0 SHL DUP2 MSTORE PUSH1 0x4 ADD PUSH1 0x20 PUSH1 0x40 MLOAD DUP1 DUP4 SUB DUP2 DUP7 GAS STATICCALL ISZERO DUP1 ISZERO PUSH2 0x3064 JUMPI RETURNDATASIZE PUSH1 0x0 DUP1 RETURNDATACOPY RETURNDATASIZE PUSH1 0x0 REVERT JUMPDEST POP POP POP POP PUSH1 0x40 MLOAD RETURNDATASIZE PUSH1 0x1F NOT PUSH1 0x1F DUP3 ADD AND DUP3 ADD DUP1 PUSH1 0x40 MSTORE POP DUP2 ADD SWAP1 PUSH2 0x3088 SWAP2 SWAP1 PUSH2 0x4135 JUMP JUMPDEST PUSH1 0x40 MLOAD PUSH4 0xB3596F07 PUSH1 0xE0 SHL DUP2 MSTORE PUSH1 0x1 PUSH1 0x1 PUSH1 0xA0 SHL SUB DUP7 DUP2 AND PUSH1 0x4 DUP4 ADD MSTORE SWAP2 SWAP3 POP PUSH1 0x0 SWAP2 PUSH4 0x5F5E100 SWAP2 SWAP1 DUP5 AND SWAP1 PUSH4 0xB3596F07 SWAP1 PUSH1 0x24 ADD PUSH1 0x20 PUSH1 0x40 MLOAD DUP1 DUP4 SUB DUP2 DUP7 GAS STATICCALL ISZERO DUP1 ISZERO PUSH2 0x30DB JUMPI RETURNDATASIZE PUSH1 0x0 DUP1 RETURNDATACOPY RETURNDATASIZE PUSH1 0x0 REVERT JUMPDEST POP POP POP POP PUSH1 0x40 MLOAD RETURNDATASIZE PUSH1 0x1F NOT PUSH1 0x1F DUP3 ADD AND DUP3 ADD DUP1 PUSH1 0x40 MSTORE POP DUP2 ADD SWAP1 PUSH2 0x30FF SWAP2 SWAP1 PUSH2 0x40F8 JUMP JUMPDEST DUP7 PUSH1 0x1 PUSH1 0x1 PUSH1 0xA0 SHL SUB AND PUSH4 0x313CE567 PUSH1 0x40 MLOAD DUP2 PUSH4 0xFFFFFFFF AND PUSH1 0xE0 SHL DUP2 MSTORE PUSH1 0x4 ADD PUSH1 0x20 PUSH1 0x40 MLOAD DUP1 DUP4 SUB DUP2 DUP7 GAS STATICCALL ISZERO DUP1 ISZERO PUSH2 0x313D JUMPI RETURNDATASIZE PUSH1 0x0 DUP1 RETURNDATACOPY RETURNDATASIZE PUSH1 0x0 REVERT JUMPDEST POP POP POP POP PUSH1 0x40 MLOAD RETURNDATASIZE PUSH1 0x1F NOT PUSH1 0x1F DUP3 ADD AND DUP3 ADD DUP1 PUSH1 0x40 MSTORE POP DUP2 ADD SWAP1 PUSH2 0x3161 SWAP2 SWAP1 PUSH2 0x471C JUMP JUMPDEST PUSH2 0x316C SWAP1 PUSH1 0x14 PUSH2 0x4739 JUMP JUMPDEST PUSH2 0x3177 SWAP1 PUSH1 0xA PUSH2 0x45E5 JUMP JUMPDEST PUSH2 0x3181 SWAP2 SWAP1 PUSH2 0x44C8 JUMP JUMPDEST PUSH2 0x318B SWAP2 SWAP1 PUSH2 0x44DF JUMP JUMPDEST PUSH1 0x40 MLOAD PUSH4 0xB3596F07 PUSH1 0xE0 SHL DUP2 MSTORE PUSH1 0x1 PUSH1 0x1 PUSH1 0xA0 SHL SUB DUP7 DUP2 AND PUSH1 0x4 DUP4 ADD MSTORE SWAP2 SWAP3 POP PUSH1 0x0 SWAP2 PUSH4 0x5F5E100 SWAP2 SWAP1 DUP6 AND SWAP1 PUSH4 0xB3596F07 SWAP1 PUSH1 0x24 ADD PUSH1 0x20 PUSH1 0x40 MLOAD DUP1 DUP4 SUB DUP2 DUP7 GAS STATICCALL ISZERO DUP1 ISZERO PUSH2 0x31DE JUMPI RETURNDATASIZE PUSH1 0x0 DUP1 RETURNDATACOPY RETURNDATASIZE PUSH1 0x0 REVERT JUMPDEST POP POP POP POP PUSH1 0x40 MLOAD RETURNDATASIZE PUSH1 0x1F NOT PUSH1 0x1F DUP3 ADD AND DUP3 ADD DUP1 PUSH1 0x40 MSTORE POP DUP2 ADD SWAP1 PUSH2 0x3202 SWAP2 SWAP1 PUSH2 0x40F8 JUMP JUMPDEST DUP7 PUSH1 0x1 PUSH1 0x1 PUSH1 0xA0 SHL SUB AND PUSH4 0x313CE567 PUSH1 0x40 MLOAD DUP2 PUSH4 0xFFFFFFFF AND PUSH1 0xE0 SHL DUP2 MSTORE PUSH1 0x4 ADD PUSH1 0x20 PUSH1 0x40 MLOAD DUP1 DUP4 SUB DUP2 DUP7 GAS STATICCALL ISZERO DUP1 ISZERO PUSH2 0x3240 JUMPI RETURNDATASIZE PUSH1 0x0 DUP1 RETURNDATACOPY RETURNDATASIZE PUSH1 0x0 REVERT JUMPDEST POP POP POP POP PUSH1 0x40 MLOAD RETURNDATASIZE PUSH1 0x1F NOT PUSH1 0x1F DUP3 ADD AND DUP3 ADD DUP1 PUSH1 0x40 MSTORE POP DUP2 ADD SWAP1 PUSH2 0x3264 SWAP2 SWAP1 PUSH2 0x471C JUMP JUMPDEST PUSH2 0x326F SWAP1 PUSH1 0x14 PUSH2 0x4739 JUMP JUMPDEST PUSH2 0x327A SWAP1 PUSH1 0xA PUSH2 0x45E5 JUMP JUMPDEST PUSH2 0x3284 SWAP2 SWAP1 PUSH2 0x44C8 JUMP JUMPDEST PUSH2 0x328E SWAP2 SWAP1 PUSH2 0x44DF JUMP JUMPDEST SWAP1 POP DUP1 DUP3 GT ISZERO PUSH2 0x32A0 JUMPI DUP2 SWAP4 POP PUSH2 0x32A4 JUMP JUMPDEST DUP1 SWAP4 POP JUMPDEST POP POP POP SWAP4 SWAP3 POP POP POP JUMP JUMPDEST PUSH1 0x0 DUP1 PUSH1 0x0 DUP1 PUSH2 0x32BD DUP9 PUSH2 0xECA JUMP JUMPDEST SWAP5 POP SWAP5 POP POP SWAP4 POP POP PUSH1 0x0 DUP2 PUSH1 0x1 PUSH1 0x1 PUSH1 0xA0 SHL SUB AND PUSH4 0x313CE567 PUSH1 0x40 MLOAD DUP2 PUSH4 0xFFFFFFFF AND PUSH1 0xE0 SHL DUP2 MSTORE PUSH1 0x4 ADD PUSH1 0x20 PUSH1 0x40 MLOAD DUP1 DUP4 SUB DUP2 DUP7 GAS STATICCALL ISZERO DUP1 ISZERO PUSH2 0x3305 JUMPI RETURNDATASIZE PUSH1 0x0 DUP1 RETURNDATACOPY RETURNDATASIZE PUSH1 0x0 REVERT JUMPDEST POP POP POP POP PUSH1 0x40 MLOAD RETURNDATASIZE PUSH1 0x1F NOT PUSH1 0x1F DUP3 ADD AND DUP3 ADD DUP1 PUSH1 0x40 MSTORE POP DUP2 ADD SWAP1 PUSH2 0x3329 SWAP2 SWAP1 PUSH2 0x471C JUMP JUMPDEST PUSH2 0x3334 SWAP1 PUSH1 0xA PUSH2 0x45E5 JUMP JUMPDEST PUSH1 0x40 MLOAD PUSH4 0xB3596F07 PUSH1 0xE0 SHL DUP2 MSTORE PUSH1 0x1 PUSH1 0x1 PUSH1 0xA0 SHL SUB DUP5 DUP2 AND PUSH1 0x4 DUP4 ADD MSTORE DUP7 AND SWAP1 PUSH4 0xB3596F07 SWAP1 PUSH1 0x24 ADD PUSH1 0x20 PUSH1 0x40 MLOAD DUP1 DUP4 SUB DUP2 DUP7 GAS STATICCALL ISZERO DUP1 ISZERO PUSH2 0x337A JUMPI RETURNDATASIZE PUSH1 0x0 DUP1 RETURNDATACOPY RETURNDATASIZE PUSH1 0x0 REVERT JUMPDEST POP POP POP POP PUSH1 0x40 MLOAD RETURNDATASIZE PUSH1 0x1F NOT PUSH1 0x1F DUP3 ADD AND DUP3 ADD DUP1 PUSH1 0x40 MSTORE POP DUP2 ADD SWAP1 PUSH2 0x339E SWAP2 SWAP1 PUSH2 0x40F8 JUMP JUMPDEST PUSH2 0x33A8 SWAP1 DUP10 PUSH2 0x44C8 JUMP JUMPDEST PUSH2 0x33B2 SWAP2 SWAP1 PUSH2 0x44DF JUMP JUMPDEST DUP4 PUSH1 0x1 PUSH1 0x1 PUSH1 0xA0 SHL SUB AND PUSH4 0x313CE567 PUSH1 0x40 MLOAD DUP2 PUSH4 0xFFFFFFFF AND PUSH1 0xE0 SHL DUP2 MSTORE PUSH1 0x4 ADD PUSH1 0x20 PUSH1 0x40 MLOAD DUP1 DUP4 SUB DUP2 DUP7 GAS STATICCALL ISZERO DUP1 ISZERO PUSH2 0x33F0 JUMPI RETURNDATASIZE PUSH1 0x0 DUP1 RETURNDATACOPY RETURNDATASIZE PUSH1 0x0 REVERT JUMPDEST POP POP POP POP PUSH1 0x40 MLOAD RETURNDATASIZE PUSH1 0x1F NOT PUSH1 0x1F DUP3 ADD AND DUP3 ADD DUP1 PUSH1 0x40 MSTORE POP DUP2 ADD SWAP1 PUSH2 0x3414 SWAP2 SWAP1 PUSH2 0x471C JUMP JUMPDEST PUSH2 0x341F SWAP1 PUSH1 0xA PUSH2 0x45E5 JUMP JUMPDEST PUSH1 0x40 MLOAD PUSH4 0xB3596F07 PUSH1 0xE0 SHL DUP2 MSTORE PUSH1 0x1 PUSH1 0x1 PUSH1 0xA0 SHL SUB DUP7 DUP2 AND PUSH1 0x4 DUP4 ADD MSTORE DUP8 AND SWAP1 PUSH4 0xB3596F07 SWAP1 PUSH1 0x24 ADD PUSH1 0x20 PUSH1 0x40 MLOAD DUP1 DUP4 SUB DUP2 DUP7 GAS STATICCALL ISZERO DUP1 ISZERO PUSH2 0x3465 JUMPI RETURNDATASIZE PUSH1 0x0 DUP1 RETURNDATACOPY RETURNDATASIZE PUSH1 0x0 REVERT JUMPDEST POP POP POP POP PUSH1 0x40 MLOAD RETURNDATASIZE PUSH1 0x1F NOT PUSH1 0x1F DUP3 ADD AND DUP3 ADD DUP1 PUSH1 0x40 MSTORE POP DUP2 ADD SWAP1 PUSH2 0x3489 SWAP2 SWAP1 PUSH2 0x40F8 JUMP JUMPDEST PUSH2 0x3493 SWAP1 DUP12 PUSH2 0x44C8 JUMP JUMPDEST PUSH2 0x349D SWAP2 SWAP1 PUSH2 0x44DF JUMP JUMPDEST PUSH2 0x34A7 SWAP2 SWAP1 PUSH2 0x45F4 JUMP JUMPDEST PUSH1 0x40 MLOAD PUSH4 0xB3596F07 PUSH1 0xE0 SHL DUP2 MSTORE PUSH1 0x1 PUSH1 0x1 PUSH1 0xA0 SHL SUB DUP9 DUP2 AND PUSH1 0x4 DUP4 ADD MSTORE SWAP2 SWAP3 POP SWAP1 DUP6 AND SWAP1 PUSH4 0xB3596F07 SWAP1 PUSH1 0x24 ADD PUSH1 0x20 PUSH1 0x40 MLOAD DUP1 DUP4 SUB DUP2 DUP7 GAS STATICCALL ISZERO DUP1 ISZERO PUSH2 0x34F1 JUMPI RETURNDATASIZE PUSH1 0x0 DUP1 RETURNDATACOPY RETURNDATASIZE PUSH1 0x0 REVERT JUMPDEST POP POP POP POP PUSH1 0x40 MLOAD RETURNDATASIZE PUSH1 0x1F NOT PUSH1 0x1F DUP3 ADD AND DUP3 ADD DUP1 PUSH1 0x40 MSTORE POP DUP2 ADD SWAP1 PUSH2 0x3515 SWAP2 SWAP1 PUSH2 0x40F8 JUMP JUMPDEST PUSH1 0x64 DUP8 PUSH1 0x1 PUSH1 0x1 PUSH1 0xA0 SHL SUB AND PUSH4 0x313CE567 PUSH1 0x40 MLOAD DUP2 PUSH4 0xFFFFFFFF AND PUSH1 0xE0 SHL DUP2 MSTORE PUSH1 0x4 ADD PUSH1 0x20 PUSH1 0x40 MLOAD DUP1 DUP4 SUB DUP2 DUP7 GAS STATICCALL ISZERO DUP1 ISZERO PUSH2 0x3555 JUMPI RETURNDATASIZE PUSH1 0x0 DUP1 RETURNDATACOPY RETURNDATASIZE PUSH1 0x0 REVERT JUMPDEST POP POP POP POP PUSH1 0x40 MLOAD RETURNDATASIZE PUSH1 0x1F NOT PUSH1 0x1F DUP3 ADD AND DUP3 ADD DUP1 PUSH1 0x40 MSTORE POP DUP2 ADD SWAP1 PUSH2 0x3579 SWAP2 SWAP1 PUSH2 0x471C JUMP JUMPDEST PUSH2 0x3584 SWAP1 PUSH1 0xA PUSH2 0x45E5 JUMP JUMPDEST PUSH2 0x358E SWAP1 DUP5 PUSH2 0x44C8 JUMP JUMPDEST PUSH2 0x3598 SWAP2 SWAP1 PUSH2 0x44DF JUMP JUMPDEST PUSH2 0x35A2 SWAP2 SWAP1 PUSH2 0x44DF JUMP JUMPDEST PUSH1 0x40 MLOAD PUSH4 0x70A08231 PUSH1 0xE0 SHL DUP2 MSTORE ADDRESS PUSH1 0x4 DUP3 ADD MSTORE SWAP1 SWAP6 POP PUSH1 0x1 PUSH1 0x1 PUSH1 0xA0 SHL SUB DUP8 AND SWAP1 PUSH4 0x70A08231 SWAP1 PUSH1 0x24 ADD PUSH1 0x20 PUSH1 0x40 MLOAD DUP1 DUP4 SUB DUP2 DUP7 GAS STATICCALL ISZERO DUP1 ISZERO PUSH2 0x35E9 JUMPI RETURNDATASIZE PUSH1 0x0 DUP1 RETURNDATACOPY RETURNDATASIZE PUSH1 0x0 REVERT JUMPDEST POP POP POP POP PUSH1 0x40 MLOAD RETURNDATASIZE PUSH1 0x1F NOT PUSH1 0x1F DUP3 ADD AND DUP3 ADD DUP1 PUSH1 0x40 MSTORE POP DUP2 ADD SWAP1 PUSH2 0x360D SWAP2 SWAP1 PUSH2 0x40F8 JUMP JUMPDEST DUP6 GT ISZERO PUSH2 0x365C JUMPI PUSH1 0x40 MLOAD PUSH3 0x461BCD PUSH1 0xE5 SHL DUP2 MSTORE PUSH1 0x20 PUSH1 0x4 DUP3 ADD MSTORE PUSH1 0x1C PUSH1 0x24 DUP3 ADD MSTORE PUSH32 0x4F504D3A20496E73756666696369656E7420436F6C6C61746572616C00000000 PUSH1 0x44 DUP3 ADD MSTORE PUSH1 0x64 ADD PUSH2 0x292 JUMP JUMPDEST PUSH1 0x2 SLOAD PUSH1 0x40 DUP1 MLOAD PUSH4 0x61D027B3 PUSH1 0xE0 SHL DUP2 MSTORE SWAP1 MLOAD PUSH2 0x36DC SWAP3 PUSH1 0x1 PUSH1 0x1 PUSH1 0xA0 SHL SUB AND SWAP2 PUSH4 0x61D027B3 SWAP2 PUSH1 0x4 DUP1 DUP4 ADD SWAP3 PUSH1 0x20 SWAP3 SWAP2 SWAP1 DUP3 SWAP1 SUB ADD DUP2 DUP7 GAS STATICCALL ISZERO DUP1 ISZERO PUSH2 0x36A7 JUMPI RETURNDATASIZE PUSH1 0x0 DUP1 RETURNDATACOPY RETURNDATASIZE PUSH1 0x0 REVERT JUMPDEST POP POP POP POP PUSH1 0x40 MLOAD RETURNDATASIZE PUSH1 0x1F NOT PUSH1 0x1F DUP3 ADD AND DUP3 ADD DUP1 PUSH1 0x40 MSTORE POP DUP2 ADD SWAP1 PUSH2 0x36CB SWAP2 SWAP1 PUSH2 0x4135 JUMP JUMPDEST PUSH1 0x1 PUSH1 0x1 PUSH1 0xA0 SHL SUB DUP9 AND SWAP1 DUP8 PUSH2 0x1875 JUMP JUMPDEST POP POP POP POP SWAP5 SWAP4 POP POP POP POP JUMP JUMPDEST PUSH2 0x370D DUP2 PUSH1 0x0 DUP2 MLOAD DUP2 LT PUSH2 0x36FE JUMPI PUSH2 0x36FE PUSH2 0x4152 JUMP JUMPDEST PUSH1 0x20 MUL PUSH1 0x20 ADD ADD MLOAD DUP6 DUP5 PUSH2 0x1194 JUMP JUMPDEST PUSH1 0x40 MLOAD PUSH4 0x7C0329D PUSH1 0xE2 SHL DUP2 MSTORE PUSH1 0x0 SWAP1 PUSH1 0x1 PUSH1 0x1 PUSH1 0xA0 SHL SUB DUP7 AND SWAP1 PUSH4 0x1F00CA74 SWAP1 PUSH2 0x373E SWAP1 DUP8 SWAP1 DUP7 SWAP1 PUSH1 0x4 ADD PUSH2 0x4607 JUMP JUMPDEST PUSH1 0x0 PUSH1 0x40 MLOAD DUP1 DUP4 SUB DUP2 PUSH1 0x0 DUP8 GAS CALL ISZERO DUP1 ISZERO PUSH2 0x375D JUMPI RETURNDATASIZE PUSH1 0x0 DUP1 RETURNDATACOPY RETURNDATASIZE PUSH1 0x0 REVERT JUMPDEST POP POP POP POP PUSH1 0x40 MLOAD RETURNDATASIZE PUSH1 0x0 DUP3 RETURNDATACOPY PUSH1 0x1F RETURNDATASIZE SWAP1 DUP2 ADD PUSH1 0x1F NOT AND DUP3 ADD PUSH1 0x40 MSTORE PUSH2 0x3785 SWAP2 SWAP1 DUP2 ADD SWAP1 PUSH2 0x4620 JUMP JUMPDEST SWAP1 POP DUP3 DUP2 PUSH1 0x0 DUP2 MLOAD DUP2 LT PUSH2 0x379B JUMPI PUSH2 0x379B PUSH2 0x4152 JUMP JUMPDEST PUSH1 0x20 MUL PUSH1 0x20 ADD ADD MLOAD GT ISZERO DUP1 ISZERO PUSH2 0x37CB JUMPI POP PUSH1 0x0 DUP2 PUSH1 0x0 DUP2 MLOAD DUP2 LT PUSH2 0x37C1 JUMPI PUSH2 0x37C1 PUSH2 0x4152 JUMP JUMPDEST PUSH1 0x20 MUL PUSH1 0x20 ADD ADD MLOAD GT JUMPDEST PUSH2 0x3817 JUMPI PUSH1 0x40 MLOAD PUSH3 0x461BCD PUSH1 0xE5 SHL DUP2 MSTORE PUSH1 0x20 PUSH1 0x4 DUP3 ADD MSTORE PUSH1 0x19 PUSH1 0x24 DUP3 ADD MSTORE PUSH32 0x4F504D3A20496E76616C6964205377617020416D6F756E747300000000000000 PUSH1 0x44 DUP3 ADD MSTORE PUSH1 0x64 ADD PUSH2 0x292 JUMP JUMPDEST DUP2 PUSH1 0x0 DUP2 MLOAD DUP2 LT PUSH2 0x382A JUMPI PUSH2 0x382A PUSH2 0x4152 JUMP JUMPDEST PUSH1 0x20 SWAP1 DUP2 MUL SWAP2 SWAP1 SWAP2 ADD ADD MLOAD PUSH1 0x40 MLOAD PUSH4 0x70A08231 PUSH1 0xE0 SHL DUP2 MSTORE ADDRESS PUSH1 0x4 DUP3 ADD MSTORE PUSH1 0x1 PUSH1 0x1 PUSH1 0xA0 SHL SUB SWAP1 SWAP2 AND SWAP1 PUSH4 0x70A08231 SWAP1 PUSH1 0x24 ADD PUSH1 0x20 PUSH1 0x40 MLOAD DUP1 DUP4 SUB DUP2 DUP7 GAS STATICCALL ISZERO DUP1 ISZERO PUSH2 0x387A JUMPI RETURNDATASIZE PUSH1 0x0 DUP1 RETURNDATACOPY RETURNDATASIZE PUSH1 0x0 REVERT JUMPDEST POP POP POP POP PUSH1 0x40 MLOAD RETURNDATASIZE PUSH1 0x1F NOT PUSH1 0x1F DUP3 ADD AND DUP3 ADD DUP1 PUSH1 0x40 MSTORE POP DUP2 ADD SWAP1 PUSH2 0x389E SWAP2 SWAP1 PUSH2 0x40F8 JUMP JUMPDEST DUP2 PUSH1 0x0 DUP2 MLOAD DUP2 LT PUSH2 0x38B1 JUMPI PUSH2 0x38B1 PUSH2 0x4152 JUMP JUMPDEST PUSH1 0x20 MUL PUSH1 0x20 ADD ADD MLOAD GT ISZERO PUSH2 0x3907 JUMPI PUSH1 0x40 MLOAD PUSH3 0x461BCD PUSH1 0xE5 SHL DUP2 MSTORE PUSH1 0x20 PUSH1 0x4 DUP3 ADD MSTORE PUSH1 0x1E PUSH1 0x24 DUP3 ADD MSTORE PUSH32 0x4F504D3A20496E73756666696369656E7420546F6B656E20416D6F756E740000 PUSH1 0x44 DUP3 ADD MSTORE PUSH1 0x64 ADD PUSH2 0x292 JUMP JUMPDEST PUSH1 0x40 MLOAD PUSH4 0x4401EDF7 PUSH1 0xE1 SHL DUP2 MSTORE PUSH1 0x1 PUSH1 0x1 PUSH1 0xA0 SHL SUB DUP7 AND SWAP1 PUSH4 0x8803DBEE SWAP1 PUSH2 0x393B SWAP1 DUP8 SWAP1 DUP8 SWAP1 DUP8 SWAP1 ADDRESS SWAP1 TIMESTAMP SWAP1 PUSH1 0x4 ADD PUSH2 0x46A6 JUMP JUMPDEST PUSH1 0x0 PUSH1 0x40 MLOAD DUP1 DUP4 SUB DUP2 PUSH1 0x0 DUP8 GAS CALL ISZERO DUP1 ISZERO PUSH2 0x395A JUMPI RETURNDATASIZE PUSH1 0x0 DUP1 RETURNDATACOPY RETURNDATASIZE PUSH1 0x0 REVERT JUMPDEST POP POP POP POP PUSH1 0x40 MLOAD RETURNDATASIZE PUSH1 0x0 DUP3 RETURNDATACOPY PUSH1 0x1F RETURNDATASIZE SWAP1 DUP2 ADD PUSH1 0x1F NOT AND DUP3 ADD PUSH1 0x40 MSTORE PUSH2 0x140A SWAP2 SWAP1 DUP2 ADD SWAP1 PUSH2 0x4620 JUMP JUMPDEST PUSH1 0x60 PUSH2 0x1A96 DUP5 DUP5 PUSH1 0x0 DUP6 DUP6 PUSH1 0x1 PUSH1 0x1 PUSH1 0xA0 SHL SUB DUP6 AND EXTCODESIZE PUSH2 0x39E4 JUMPI PUSH1 0x40 MLOAD PUSH3 0x461BCD PUSH1 0xE5 SHL DUP2 MSTORE PUSH1 0x20 PUSH1 0x4 DUP3 ADD MSTORE PUSH1 0x1D PUSH1 0x24 DUP3 ADD MSTORE PUSH32 0x416464726573733A2063616C6C20746F206E6F6E2D636F6E7472616374000000 PUSH1 0x44 DUP3 ADD MSTORE PUSH1 0x64 ADD PUSH2 0x292 JUMP JUMPDEST PUSH1 0x0 DUP1 DUP7 PUSH1 0x1 PUSH1 0x1 PUSH1 0xA0 SHL SUB AND DUP6 DUP8 PUSH1 0x40 MLOAD PUSH2 0x3A00 SWAP2 SWAP1 PUSH2 0x4752 JUMP JUMPDEST PUSH1 0x0 PUSH1 0x40 MLOAD DUP1 DUP4 SUB DUP2 DUP6 DUP8 GAS CALL SWAP3 POP POP POP RETURNDATASIZE DUP1 PUSH1 0x0 DUP2 EQ PUSH2 0x3A3D JUMPI PUSH1 0x40 MLOAD SWAP2 POP PUSH1 0x1F NOT PUSH1 0x3F RETURNDATASIZE ADD AND DUP3 ADD PUSH1 0x40 MSTORE RETURNDATASIZE DUP3 MSTORE RETURNDATASIZE PUSH1 0x0 PUSH1 0x20 DUP5 ADD RETURNDATACOPY PUSH2 0x3A42 JUMP JUMPDEST PUSH1 0x60 SWAP2 POP JUMPDEST POP SWAP2 POP SWAP2 POP PUSH2 0x3A52 DUP3 DUP3 DUP7 PUSH2 0x3A5D JUMP JUMPDEST SWAP8 SWAP7 POP POP POP POP POP POP POP JUMP JUMPDEST PUSH1 0x60 DUP4 ISZERO PUSH2 0x3A6C JUMPI POP DUP2 PUSH2 0x93A JUMP JUMPDEST DUP3 MLOAD ISZERO PUSH2 0x3A7C JUMPI DUP3 MLOAD DUP1 DUP5 PUSH1 0x20 ADD REVERT JUMPDEST DUP2 PUSH1 0x40 MLOAD PUSH3 0x461BCD PUSH1 0xE5 SHL DUP2 MSTORE PUSH1 0x4 ADD PUSH2 0x292 SWAP2 SWAP1 PUSH2 0x476E JUMP JUMPDEST PUSH1 0x1 PUSH1 0x1 PUSH1 0xA0 SHL SUB DUP2 AND DUP2 EQ PUSH2 0x63E JUMPI PUSH1 0x0 DUP1 REVERT JUMPDEST PUSH1 0x0 DUP1 PUSH1 0x0 DUP1 PUSH1 0x80 DUP6 DUP8 SUB SLT ISZERO PUSH2 0x3AC1 JUMPI PUSH1 0x0 DUP1 REVERT JUMPDEST DUP5 CALLDATALOAD SWAP4 POP PUSH1 0x20 DUP6 ADD CALLDATALOAD PUSH2 0x3AD3 DUP2 PUSH2 0x3A96 JUMP JUMPDEST SWAP4 SWAP7 SWAP4 SWAP6 POP POP POP POP PUSH1 0x40 DUP3 ADD CALLDATALOAD SWAP2 PUSH1 0x60 ADD CALLDATALOAD SWAP1 JUMP JUMPDEST PUSH1 0x0 DUP1 PUSH1 0x0 PUSH1 0x60 DUP5 DUP7 SUB SLT ISZERO PUSH2 0x3AFD JUMPI PUSH1 0x0 DUP1 REVERT JUMPDEST DUP4 CALLDATALOAD SWAP3 POP PUSH1 0x20 DUP5 ADD CALLDATALOAD PUSH2 0x3B0F DUP2 PUSH2 0x3A96 JUMP JUMPDEST SWAP3 SWAP6 SWAP3 SWAP5 POP POP POP PUSH1 0x40 SWAP2 SWAP1 SWAP2 ADD CALLDATALOAD SWAP1 JUMP JUMPDEST PUSH1 0x0 PUSH1 0x20 DUP3 DUP5 SUB SLT ISZERO PUSH2 0x3B32 JUMPI PUSH1 0x0 DUP1 REVERT JUMPDEST DUP2 CALLDATALOAD PUSH2 0x93A DUP2 PUSH2 0x3A96 JUMP JUMPDEST PUSH1 0x0 DUP1 DUP4 PUSH1 0x1F DUP5 ADD SLT PUSH2 0x3B4F JUMPI PUSH1 0x0 DUP1 REVERT JUMPDEST POP DUP2 CALLDATALOAD PUSH8 0xFFFFFFFFFFFFFFFF DUP2 GT ISZERO PUSH2 0x3B67 JUMPI PUSH1 0x0 DUP1 REVERT JUMPDEST PUSH1 0x20 DUP4 ADD SWAP2 POP DUP4 PUSH1 0x20 DUP3 PUSH1 0x5 SHL DUP6 ADD ADD GT ISZERO PUSH2 0x3B82 JUMPI PUSH1 0x0 DUP1 REVERT JUMPDEST SWAP3 POP SWAP3 SWAP1 POP JUMP JUMPDEST PUSH1 0x0 DUP1 PUSH1 0x0 DUP1 PUSH1 0x0 DUP1 PUSH1 0x0 DUP1 PUSH1 0x0 PUSH1 0xA0 DUP11 DUP13 SUB SLT ISZERO PUSH2 0x3BA7 JUMPI PUSH1 0x0 DUP1 REVERT JUMPDEST DUP10 CALLDATALOAD PUSH8 0xFFFFFFFFFFFFFFFF DUP1 DUP3 GT ISZERO PUSH2 0x3BBF JUMPI PUSH1 0x0 DUP1 REVERT JUMPDEST PUSH2 0x3BCB DUP14 DUP4 DUP15 ADD PUSH2 0x3B3D JUMP JUMPDEST SWAP1 SWAP12 POP SWAP10 POP PUSH1 0x20 DUP13 ADD CALLDATALOAD SWAP2 POP DUP1 DUP3 GT ISZERO PUSH2 0x3BE4 JUMPI PUSH1 0x0 DUP1 REVERT JUMPDEST PUSH2 0x3BF0 DUP14 DUP4 DUP15 ADD PUSH2 0x3B3D JUMP JUMPDEST SWAP1 SWAP10 POP SWAP8 POP PUSH1 0x40 DUP13 ADD CALLDATALOAD SWAP2 POP DUP1 DUP3 GT ISZERO PUSH2 0x3C09 JUMPI PUSH1 0x0 DUP1 REVERT JUMPDEST PUSH2 0x3C15 DUP14 DUP4 DUP15 ADD PUSH2 0x3B3D JUMP JUMPDEST SWAP1 SWAP8 POP SWAP6 POP PUSH1 0x60 DUP13 ADD CALLDATALOAD SWAP2 POP PUSH2 0x3C2A DUP3 PUSH2 0x3A96 JUMP JUMPDEST SWAP1 SWAP4 POP PUSH1 0x80 DUP12 ADD CALLDATALOAD SWAP1 DUP1 DUP3 GT ISZERO PUSH2 0x3C40 JUMPI PUSH1 0x0 DUP1 REVERT JUMPDEST DUP2 DUP13 ADD SWAP2 POP DUP13 PUSH1 0x1F DUP4 ADD SLT PUSH2 0x3C54 JUMPI PUSH1 0x0 DUP1 REVERT JUMPDEST DUP2 CALLDATALOAD DUP2 DUP2 GT ISZERO PUSH2 0x3C63 JUMPI PUSH1 0x0 DUP1 REVERT JUMPDEST DUP14 PUSH1 0x20 DUP3 DUP6 ADD ADD GT ISZERO PUSH2 0x3C75 JUMPI PUSH1 0x0 DUP1 REVERT JUMPDEST PUSH1 0x20 DUP4 ADD SWAP5 POP DUP1 SWAP4 POP POP POP POP SWAP3 SWAP6 SWAP9 POP SWAP3 SWAP6 SWAP9 POP SWAP3 SWAP6 SWAP9 JUMP JUMPDEST PUSH4 0x4E487B71 PUSH1 0xE0 SHL PUSH1 0x0 MSTORE PUSH1 0x41 PUSH1 0x4 MSTORE PUSH1 0x24 PUSH1 0x0 REVERT JUMPDEST PUSH1 0x40 MLOAD PUSH2 0x180 DUP2 ADD PUSH8 0xFFFFFFFFFFFFFFFF DUP2 GT DUP3 DUP3 LT OR ISZERO PUSH2 0x3CC8 JUMPI PUSH2 0x3CC8 PUSH2 0x3C8E JUMP JUMPDEST PUSH1 0x40 MSTORE SWAP1 JUMP JUMPDEST PUSH1 0x40 MLOAD PUSH1 0x1F DUP3 ADD PUSH1 0x1F NOT AND DUP2 ADD PUSH8 0xFFFFFFFFFFFFFFFF DUP2 GT DUP3 DUP3 LT OR ISZERO PUSH2 0x3CF7 JUMPI PUSH2 0x3CF7 PUSH2 0x3C8E JUMP JUMPDEST PUSH1 0x40 MSTORE SWAP2 SWAP1 POP JUMP JUMPDEST PUSH1 0x0 PUSH8 0xFFFFFFFFFFFFFFFF DUP3 GT ISZERO PUSH2 0x3D19 JUMPI PUSH2 0x3D19 PUSH2 0x3C8E JUMP JUMPDEST POP PUSH1 0x5 SHL PUSH1 0x20 ADD SWAP1 JUMP JUMPDEST PUSH1 0x0 DUP3 PUSH1 0x1F DUP4 ADD SLT PUSH2 0x3D34 JUMPI PUSH1 0x0 DUP1 REVERT JUMPDEST DUP2 CALLDATALOAD PUSH1 0x20 PUSH2 0x3D49 PUSH2 0x3D44 DUP4 PUSH2 0x3CFF JUMP JUMPDEST PUSH2 0x3CCE JUMP JUMPDEST DUP3 DUP2 MSTORE PUSH1 0x5 SWAP3 SWAP1 SWAP3 SHL DUP5 ADD DUP2 ADD SWAP2 DUP2 DUP2 ADD SWAP1 DUP7 DUP5 GT ISZERO PUSH2 0x3D68 JUMPI PUSH1 0x0 DUP1 REVERT JUMPDEST DUP3 DUP7 ADD JUMPDEST DUP5 DUP2 LT ISZERO PUSH2 0x3D8C JUMPI DUP1 CALLDATALOAD PUSH2 0x3D7F DUP2 PUSH2 0x3A96 JUMP JUMPDEST DUP4 MSTORE SWAP2 DUP4 ADD SWAP2 DUP4 ADD PUSH2 0x3D6C JUMP JUMPDEST POP SWAP7 SWAP6 POP POP POP POP POP POP JUMP JUMPDEST PUSH1 0x0 DUP3 PUSH1 0x1F DUP4 ADD SLT PUSH2 0x3DA8 JUMPI PUSH1 0x0 DUP1 REVERT JUMPDEST DUP2 CALLDATALOAD PUSH1 0x20 PUSH2 0x3DB8 PUSH2 0x3D44 DUP4 PUSH2 0x3CFF JUMP JUMPDEST DUP3 DUP2 MSTORE PUSH1 0x5 SWAP3 SWAP1 SWAP3 SHL DUP5 ADD DUP2 ADD SWAP2 DUP2 DUP2 ADD SWAP1 DUP7 DUP5 GT ISZERO PUSH2 0x3DD7 JUMPI PUSH1 0x0 DUP1 REVERT JUMPDEST DUP3 DUP7 ADD JUMPDEST DUP5 DUP2 LT ISZERO PUSH2 0x3D8C JUMPI DUP1 CALLDATALOAD DUP4 MSTORE SWAP2 DUP4 ADD SWAP2 DUP4 ADD PUSH2 0x3DDB JUMP JUMPDEST PUSH1 0x0 DUP1 PUSH1 0x0 DUP1 PUSH1 0x80 DUP6 DUP8 SUB SLT ISZERO PUSH2 0x3E08 JUMPI PUSH1 0x0 DUP1 REVERT JUMPDEST DUP5 CALLDATALOAD SWAP4 POP PUSH1 0x20 DUP6 ADD CALLDATALOAD PUSH8 0xFFFFFFFFFFFFFFFF DUP1 DUP3 GT ISZERO PUSH2 0x3E27 JUMPI PUSH1 0x0 DUP1 REVERT JUMPDEST PUSH2 0x3E33 DUP9 DUP4 DUP10 ADD PUSH2 0x3D23 JUMP JUMPDEST SWAP5 POP PUSH1 0x40 DUP8 ADD CALLDATALOAD SWAP2 POP DUP1 DUP3 GT ISZERO PUSH2 0x3E49 JUMPI PUSH1 0x0 DUP1 REVERT JUMPDEST PUSH2 0x3E55 DUP9 DUP4 DUP10 ADD PUSH2 0x3D97 JUMP JUMPDEST SWAP4 POP PUSH1 0x60 DUP8 ADD CALLDATALOAD SWAP2 POP DUP1 DUP3 GT ISZERO PUSH2 0x3E6B JUMPI PUSH1 0x0 DUP1 REVERT JUMPDEST POP PUSH2 0x3E78 DUP8 DUP3 DUP9 ADD PUSH2 0x3D23 JUMP JUMPDEST SWAP2 POP POP SWAP3 SWAP6 SWAP2 SWAP5 POP SWAP3 POP JUMP JUMPDEST PUSH1 0x0 DUP1 PUSH1 0x0 DUP1 PUSH1 0x0 PUSH1 0xA0 DUP7 DUP9 SUB SLT ISZERO PUSH2 0x3E9C JUMPI PUSH1 0x0 DUP1 REVERT JUMPDEST DUP6 CALLDATALOAD SWAP5 POP PUSH1 0x20 DUP7 ADD CALLDATALOAD PUSH2 0x3EAE DUP2 PUSH2 0x3A96 JUMP JUMPDEST SWAP4 POP PUSH1 0x40 DUP7 ADD CALLDATALOAD PUSH8 0xFFFFFFFFFFFFFFFF DUP1 DUP3 GT ISZERO PUSH2 0x3ECB JUMPI PUSH1 0x0 DUP1 REVERT JUMPDEST PUSH2 0x3ED7 DUP10 DUP4 DUP11 ADD PUSH2 0x3D23 JUMP JUMPDEST SWAP5 POP PUSH1 0x60 DUP9 ADD CALLDATALOAD SWAP2 POP DUP1 DUP3 GT ISZERO PUSH2 0x3EED JUMPI PUSH1 0x0 DUP1 REVERT JUMPDEST POP PUSH2 0x3EFA DUP9 DUP3 DUP10 ADD PUSH2 0x3D97 JUMP JUMPDEST SWAP3 POP POP PUSH1 0x80 DUP7 ADD CALLDATALOAD PUSH2 0x3F0B DUP2 PUSH2 0x3A96 JUMP JUMPDEST DUP1 SWAP2 POP POP SWAP3 SWAP6 POP SWAP3 SWAP6 SWAP1 SWAP4 POP JUMP JUMPDEST PUSH1 0x0 DUP1 PUSH1 0x0 DUP1 PUSH1 0x0 PUSH1 0xA0 DUP7 DUP9 SUB SLT ISZERO PUSH2 0x3F31 JUMPI PUSH1 0x0 DUP1 REVERT JUMPDEST DUP6 CALLDATALOAD SWAP5 POP PUSH1 0x20 DUP7 ADD CALLDATALOAD PUSH2 0x3F43 DUP2 PUSH2 0x3A96 JUMP JUMPDEST SWAP4 POP PUSH1 0x40 DUP7 ADD CALLDATALOAD PUSH2 0x3F53 DUP2 PUSH2 0x3A96 JUMP JUMPDEST SWAP3 POP PUSH1 0x60 DUP7 ADD CALLDATALOAD SWAP2 POP PUSH1 0x80 DUP7 ADD CALLDATALOAD PUSH2 0x3F0B DUP2 PUSH2 0x3A96 JUMP JUMPDEST PUSH1 0x0 PUSH1 0x20 DUP3 DUP5 SUB SLT ISZERO PUSH2 0x3F7C JUMPI PUSH1 0x0 DUP1 REVERT JUMPDEST PUSH1 0x40 MLOAD PUSH1 0x20 DUP2 ADD DUP2 DUP2 LT PUSH8 0xFFFFFFFFFFFFFFFF DUP3 GT OR ISZERO PUSH2 0x3F9F JUMPI PUSH2 0x3F9F PUSH2 0x3C8E JUMP JUMPDEST PUSH1 0x40 MSTORE SWAP2 MLOAD DUP3 MSTORE POP SWAP2 SWAP1 POP JUMP JUMPDEST DUP1 MLOAD PUSH16 0xFFFFFFFFFFFFFFFFFFFFFFFFFFFFFFFF DUP2 AND DUP2 EQ PUSH2 0x3FCC JUMPI PUSH1 0x0 DUP1 REVERT JUMPDEST SWAP2 SWAP1 POP JUMP JUMPDEST DUP1 MLOAD PUSH5 0xFFFFFFFFFF DUP2 AND DUP2 EQ PUSH2 0x3FCC JUMPI PUSH1 0x0 DUP1 REVERT JUMPDEST DUP1 MLOAD PUSH2 0x3FCC DUP2 PUSH2 0x3A96 JUMP JUMPDEST PUSH1 0xFF DUP2 AND DUP2 EQ PUSH2 0x63E JUMPI PUSH1 0x0 DUP1 REVERT JUMPDEST DUP1 MLOAD PUSH2 0x3FCC DUP2 PUSH2 0x3FF1 JUMP JUMPDEST PUSH1 0x0 PUSH2 0x180 DUP3 DUP5 SUB SLT ISZERO PUSH2 0x401E JUMPI PUSH1 0x0 DUP1 REVERT JUMPDEST PUSH2 0x4026 PUSH2 0x3CA4 JUMP JUMPDEST PUSH2 0x4030 DUP5 DUP5 PUSH2 0x3F6A JUMP JUMPDEST DUP2 MSTORE PUSH2 0x403E PUSH1 0x20 DUP5 ADD PUSH2 0x3FAC JUMP JUMPDEST PUSH1 0x20 DUP3 ADD MSTORE PUSH2 0x404F PUSH1 0x40 DUP5 ADD PUSH2 0x3FAC JUMP JUMPDEST PUSH1 0x40 DUP3 ADD MSTORE PUSH2 0x4060 PUSH1 0x60 DUP5 ADD PUSH2 0x3FAC JUMP JUMPDEST PUSH1 0x60 DUP3 ADD MSTORE PUSH2 0x4071 PUSH1 0x80 DUP5 ADD PUSH2 0x3FAC JUMP JUMPDEST PUSH1 0x80 DUP3 ADD MSTORE PUSH2 0x4082 PUSH1 0xA0 DUP5 ADD PUSH2 0x3FAC JUMP JUMPDEST PUSH1 0xA0 DUP3 ADD MSTORE PUSH2 0x4093 PUSH1 0xC0 DUP5 ADD PUSH2 0x3FD1 JUMP JUMPDEST PUSH1 0xC0 DUP3 ADD MSTORE PUSH2 0x40A4 PUSH1 0xE0 DUP5 ADD PUSH2 0x3FE6 JUMP JUMPDEST PUSH1 0xE0 DUP3 ADD MSTORE PUSH2 0x100 PUSH2 0x40B7 DUP2 DUP6 ADD PUSH2 0x3FE6 JUMP JUMPDEST SWAP1 DUP3 ADD MSTORE PUSH2 0x120 PUSH2 0x40C9 DUP5 DUP3 ADD PUSH2 0x3FE6 JUMP JUMPDEST SWAP1 DUP3 ADD MSTORE PUSH2 0x140 PUSH2 0x40DB DUP5 DUP3 ADD PUSH2 0x3FE6 JUMP JUMPDEST SWAP1 DUP3 ADD MSTORE PUSH2 0x160 PUSH2 0x40ED DUP5 DUP3 ADD PUSH2 0x4000 JUMP JUMPDEST SWAP1 DUP3 ADD MSTORE SWAP4 SWAP3 POP POP POP JUMP JUMPDEST PUSH1 0x0 PUSH1 0x20 DUP3 DUP5 SUB SLT ISZERO PUSH2 0x410A JUMPI PUSH1 0x0 DUP1 REVERT JUMPDEST POP MLOAD SWAP2 SWAP1 POP JUMP JUMPDEST PUSH1 0x0 DUP1 PUSH1 0x40 DUP4 DUP6 SUB SLT ISZERO PUSH2 0x4124 JUMPI PUSH1 0x0 DUP1 REVERT JUMPDEST POP POP DUP1 MLOAD PUSH1 0x20 SWAP1 SWAP2 ADD MLOAD SWAP1 SWAP3 SWAP1 SWAP2 POP JUMP JUMPDEST PUSH1 0x0 PUSH1 0x20 DUP3 DUP5 SUB SLT ISZERO PUSH2 0x4147 JUMPI PUSH1 0x0 DUP1 REVERT JUMPDEST DUP2 MLOAD PUSH2 0x93A DUP2 PUSH2 0x3A96 JUMP JUMPDEST PUSH4 0x4E487B71 PUSH1 0xE0 SHL PUSH1 0x0 MSTORE PUSH1 0x32 PUSH1 0x4 MSTORE PUSH1 0x24 PUSH1 0x0 REVERT JUMPDEST PUSH1 0x0 PUSH1 0x20 DUP3 DUP5 SUB SLT ISZERO PUSH2 0x417A JUMPI PUSH1 0x0 DUP1 REVERT JUMPDEST DUP2 CALLDATALOAD PUSH2 0x93A DUP2 PUSH2 0x3FF1 JUMP JUMPDEST PUSH1 0x0 DUP1 PUSH1 0x0 DUP1 PUSH1 0x80 DUP6 DUP8 SUB SLT ISZERO PUSH2 0x419B JUMPI PUSH1 0x0 DUP1 REVERT JUMPDEST DUP5 CALLDATALOAD PUSH2 0x41A6 DUP2 PUSH2 0x3FF1 JUMP JUMPDEST SWAP4 POP PUSH1 0x20 DUP6 ADD CALLDATALOAD SWAP3 POP PUSH1 0x40 DUP6 ADD CALLDATALOAD PUSH2 0x41BD DUP2 PUSH2 0x3A96 JUMP JUMPDEST SWAP2 POP PUSH1 0x60 DUP6 ADD CALLDATALOAD PUSH8 0xFFFFFFFFFFFFFFFF DUP2 GT ISZERO PUSH2 0x41D9 JUMPI PUSH1 0x0 DUP1 REVERT JUMPDEST PUSH2 0x3E78 DUP8 DUP3 DUP9 ADD PUSH2 0x3D23 JUMP JUMPDEST PUSH1 0x0 DUP1 PUSH1 0x0 DUP1 PUSH1 0x80 DUP6 DUP8 SUB SLT ISZERO PUSH2 0x41FB JUMPI PUSH1 0x0 DUP1 REVERT JUMPDEST DUP5 CALLDATALOAD PUSH2 0x4206 DUP2 PUSH2 0x3FF1 JUMP JUMPDEST SWAP4 POP PUSH1 0x20 DUP6 ADD CALLDATALOAD SWAP3 POP PUSH1 0x40 DUP6 ADD CALLDATALOAD PUSH2 0x421D DUP2 PUSH2 0x3A96 JUMP JUMPDEST SWAP2 POP PUSH1 0x60 DUP6 ADD CALLDATALOAD PUSH2 0x422D DUP2 PUSH2 0x3A96 JUMP JUMPDEST SWAP4 SWAP7 SWAP3 SWAP6 POP SWAP1 SWAP4 POP POP JUMP JUMPDEST PUSH1 0x0 DUP2 MLOAD DUP1 DUP5 MSTORE PUSH1 0x20 DUP1 DUP6 ADD SWAP5 POP DUP1 DUP5 ADD PUSH1 0x0 JUMPDEST DUP4 DUP2 LT ISZERO PUSH2 0x4271 JUMPI DUP2 MLOAD PUSH1 0x1 PUSH1 0x1 PUSH1 0xA0 SHL SUB AND DUP8 MSTORE SWAP6 DUP3 ADD SWAP6 SWAP1 DUP3 ADD SWAP1 PUSH1 0x1 ADD PUSH2 0x424C JUMP JUMPDEST POP SWAP5 SWAP6 SWAP5 POP POP POP POP POP JUMP JUMPDEST PUSH1 0xFF DUP6 AND DUP2 MSTORE DUP4 PUSH1 0x20 DUP3 ADD MSTORE PUSH1 0x1 DUP1 PUSH1 0xA0 SHL SUB DUP4 AND PUSH1 0x40 DUP3 ADD MSTORE PUSH1 0x80 PUSH1 0x60 DUP3 ADD MSTORE PUSH1 0x0 PUSH2 0x42AC PUSH1 0x80 DUP4 ADD DUP5 PUSH2 0x4238 JUMP JUMPDEST SWAP7 SWAP6 POP POP POP POP POP POP JUMP JUMPDEST PUSH1 0x0 DUP2 MLOAD DUP1 DUP5 MSTORE PUSH1 0x20 DUP1 DUP6 ADD SWAP5 POP DUP1 DUP5 ADD PUSH1 0x0 JUMPDEST DUP4 DUP2 LT ISZERO PUSH2 0x4271 JUMPI DUP2 MLOAD DUP8 MSTORE SWAP6 DUP3 ADD SWAP6 SWAP1 DUP3 ADD SWAP1 PUSH1 0x1 ADD PUSH2 0x42CA JUMP JUMPDEST PUSH1 0x0 JUMPDEST DUP4 DUP2 LT ISZERO PUSH2 0x4301 JUMPI DUP2 DUP2 ADD MLOAD DUP4 DUP3 ADD MSTORE PUSH1 0x20 ADD PUSH2 0x42E9 JUMP JUMPDEST POP POP PUSH1 0x0 SWAP2 ADD MSTORE JUMP JUMPDEST PUSH1 0x0 DUP2 MLOAD DUP1 DUP5 MSTORE PUSH2 0x4322 DUP2 PUSH1 0x20 DUP7 ADD PUSH1 0x20 DUP7 ADD PUSH2 0x42E6 JUMP JUMPDEST PUSH1 0x1F ADD PUSH1 0x1F NOT AND SWAP3 SWAP1 SWAP3 ADD PUSH1 0x20 ADD SWAP3 SWAP2 POP POP JUMP JUMPDEST PUSH1 0x0 PUSH1 0x1 DUP1 PUSH1 0xA0 SHL SUB DUP1 DUP11 AND DUP4 MSTORE PUSH1 0xE0 PUSH1 0x20 DUP5 ADD MSTORE PUSH2 0x4358 PUSH1 0xE0 DUP5 ADD DUP11 PUSH2 0x4238 JUMP JUMPDEST DUP4 DUP2 SUB PUSH1 0x40 DUP6 ADD MSTORE PUSH2 0x436A DUP2 DUP11 PUSH2 0x42B6 JUMP JUMPDEST SWAP1 POP DUP4 DUP2 SUB PUSH1 0x60 DUP6 ADD MSTORE PUSH2 0x437E DUP2 DUP10 PUSH2 0x42B6 JUMP JUMPDEST SWAP1 POP DUP2 DUP8 AND PUSH1 0x80 DUP6 ADD MSTORE DUP4 DUP2 SUB PUSH1 0xA0 DUP6 ADD MSTORE PUSH2 0x439A DUP2 DUP8 PUSH2 0x430A JUMP JUMPDEST SWAP3 POP POP POP PUSH2 0xFFFF DUP4 AND PUSH1 0xC0 DUP4 ADD MSTORE SWAP9 SWAP8 POP POP POP POP POP POP POP POP JUMP JUMPDEST DUP1 MLOAD DUP1 ISZERO ISZERO DUP2 EQ PUSH2 0x3FCC JUMPI PUSH1 0x0 DUP1 REVERT JUMPDEST PUSH1 0x0 DUP1 PUSH1 0x0 DUP1 PUSH1 0x0 PUSH1 0xA0 DUP7 DUP9 SUB SLT ISZERO PUSH2 0x43DC JUMPI PUSH1 0x0 DUP1 REVERT JUMPDEST DUP6 MLOAD PUSH2 0x43E7 DUP2 PUSH2 0x3A96 JUMP JUMPDEST PUSH1 0x20 DUP8 ADD MLOAD SWAP1 SWAP6 POP PUSH2 0x43F8 DUP2 PUSH2 0x3A96 JUMP JUMPDEST PUSH1 0x40 DUP8 ADD MLOAD SWAP1 SWAP5 POP PUSH2 0x4409 DUP2 PUSH2 0x3A96 JUMP JUMPDEST PUSH1 0x60 DUP8 ADD MLOAD SWAP1 SWAP4 POP PUSH2 0x441A DUP2 PUSH2 0x3A96 JUMP JUMPDEST SWAP2 POP PUSH2 0x4428 PUSH1 0x80 DUP8 ADD PUSH2 0x43B4 JUMP JUMPDEST SWAP1 POP SWAP3 SWAP6 POP SWAP3 SWAP6 SWAP1 SWAP4 POP JUMP JUMPDEST PUSH1 0x1 PUSH1 0x1 PUSH1 0xA0 SHL SUB SWAP5 DUP6 AND DUP2 MSTORE PUSH1 0x20 DUP2 ADD SWAP4 SWAP1 SWAP4 MSTORE PUSH1 0x40 DUP4 ADD SWAP2 SWAP1 SWAP2 MSTORE SWAP1 SWAP2 AND PUSH1 0x60 DUP3 ADD MSTORE PUSH1 0x80 ADD SWAP1 JUMP JUMPDEST PUSH4 0x4E487B71 PUSH1 0xE0 SHL PUSH1 0x0 MSTORE PUSH1 0x11 PUSH1 0x4 MSTORE PUSH1 0x24 PUSH1 0x0 REVERT JUMPDEST DUP2 DUP2 SUB DUP2 DUP2 GT ISZERO PUSH2 0x4488 JUMPI PUSH2 0x4488 PUSH2 0x445F JUMP JUMPDEST SWAP3 SWAP2 POP POP JUMP JUMPDEST PUSH1 0x0 DUP1 PUSH1 0x40 DUP4 DUP6 SUB SLT ISZERO PUSH2 0x44A1 JUMPI PUSH1 0x0 DUP1 REVERT JUMPDEST DUP3 MLOAD PUSH2 0x44AC DUP2 PUSH2 0x3A96 JUMP JUMPDEST PUSH1 0x20 DUP5 ADD MLOAD SWAP1 SWAP3 POP PUSH2 0x44BD DUP2 PUSH2 0x3FF1 JUMP JUMPDEST DUP1 SWAP2 POP POP SWAP3 POP SWAP3 SWAP1 POP JUMP JUMPDEST DUP1 DUP3 MUL DUP2 ISZERO DUP3 DUP3 DIV DUP5 EQ OR PUSH2 0x4488 JUMPI PUSH2 0x4488 PUSH2 0x445F JUMP JUMPDEST PUSH1 0x0 DUP3 PUSH2 0x44FC JUMPI PUSH4 0x4E487B71 PUSH1 0xE0 SHL PUSH1 0x0 MSTORE PUSH1 0x12 PUSH1 0x4 MSTORE PUSH1 0x24 PUSH1 0x0 REVERT JUMPDEST POP DIV SWAP1 JUMP JUMPDEST PUSH1 0x1 DUP2 DUP2 JUMPDEST DUP1 DUP6 GT ISZERO PUSH2 0x453C JUMPI DUP2 PUSH1 0x0 NOT DIV DUP3 GT ISZERO PUSH2 0x4522 JUMPI PUSH2 0x4522 PUSH2 0x445F JUMP JUMPDEST DUP1 DUP6 AND ISZERO PUSH2 0x452F JUMPI SWAP2 DUP2 MUL SWAP2 JUMPDEST SWAP4 DUP5 SHR SWAP4 SWAP1 DUP1 MUL SWAP1 PUSH2 0x4506 JUMP JUMPDEST POP SWAP3 POP SWAP3 SWAP1 POP JUMP JUMPDEST PUSH1 0x0 DUP3 PUSH2 0x4553 JUMPI POP PUSH1 0x1 PUSH2 0x4488 JUMP JUMPDEST DUP2 PUSH2 0x4560 JUMPI POP PUSH1 0x0 PUSH2 0x4488 JUMP JUMPDEST DUP2 PUSH1 0x1 DUP2 EQ PUSH2 0x4576 JUMPI PUSH1 0x2 DUP2 EQ PUSH2 0x4580 JUMPI PUSH2 0x459C JUMP JUMPDEST PUSH1 0x1 SWAP2 POP POP PUSH2 0x4488 JUMP JUMPDEST PUSH1 0xFF DUP5 GT ISZERO PUSH2 0x4591 JUMPI PUSH2 0x4591 PUSH2 0x445F JUMP JUMPDEST POP POP PUSH1 0x1 DUP3 SHL PUSH2 0x4488 JUMP JUMPDEST POP PUSH1 0x20 DUP4 LT PUSH2 0x133 DUP4 LT AND PUSH1 0x4E DUP5 LT PUSH1 0xB DUP5 LT AND OR ISZERO PUSH2 0x45BF JUMPI POP DUP2 DUP2 EXP PUSH2 0x4488 JUMP JUMPDEST PUSH2 0x45C9 DUP4 DUP4 PUSH2 0x4501 JUMP JUMPDEST DUP1 PUSH1 0x0 NOT DIV DUP3 GT ISZERO PUSH2 0x45DD JUMPI PUSH2 0x45DD PUSH2 0x445F JUMP JUMPDEST MUL SWAP4 SWAP3 POP POP POP JUMP JUMPDEST PUSH1 0x0 PUSH2 0x93A PUSH1 0xFF DUP5 AND DUP4 PUSH2 0x4544 JUMP JUMPDEST DUP1 DUP3 ADD DUP1 DUP3 GT ISZERO PUSH2 0x4488 JUMPI PUSH2 0x4488 PUSH2 0x445F JUMP JUMPDEST DUP3 DUP2 MSTORE PUSH1 0x40 PUSH1 0x20 DUP3 ADD MSTORE PUSH1 0x0 PUSH2 0x1A96 PUSH1 0x40 DUP4 ADD DUP5 PUSH2 0x4238 JUMP JUMPDEST PUSH1 0x0 PUSH1 0x20 DUP1 DUP4 DUP6 SUB SLT ISZERO PUSH2 0x4633 JUMPI PUSH1 0x0 DUP1 REVERT JUMPDEST DUP3 MLOAD PUSH8 0xFFFFFFFFFFFFFFFF DUP2 GT ISZERO PUSH2 0x464A JUMPI PUSH1 0x0 DUP1 REVERT JUMPDEST DUP4 ADD PUSH1 0x1F DUP2 ADD DUP6 SGT PUSH2 0x465B JUMPI PUSH1 0x0 DUP1 REVERT JUMPDEST DUP1 MLOAD PUSH2 0x4669 PUSH2 0x3D44 DUP3 PUSH2 0x3CFF JUMP JUMPDEST DUP2 DUP2 MSTORE PUSH1 0x5 SWAP2 SWAP1 SWAP2 SHL DUP3 ADD DUP4 ADD SWAP1 DUP4 DUP2 ADD SWAP1 DUP8 DUP4 GT ISZERO PUSH2 0x4688 JUMPI PUSH1 0x0 DUP1 REVERT JUMPDEST SWAP3 DUP5 ADD SWAP3 JUMPDEST DUP3 DUP5 LT ISZERO PUSH2 0x3A52 JUMPI DUP4 MLOAD DUP3 MSTORE SWAP3 DUP5 ADD SWAP3 SWAP1 DUP5 ADD SWAP1 PUSH2 0x468D JUMP JUMPDEST DUP6 DUP2 MSTORE DUP5 PUSH1 0x20 DUP3 ADD MSTORE PUSH1 0xA0 PUSH1 0x40 DUP3 ADD MSTORE PUSH1 0x0 PUSH2 0x46C5 PUSH1 0xA0 DUP4 ADD DUP7 PUSH2 0x4238 JUMP JUMPDEST PUSH1 0x1 PUSH1 0x1 PUSH1 0xA0 SHL SUB SWAP5 SWAP1 SWAP5 AND PUSH1 0x60 DUP4 ADD MSTORE POP PUSH1 0x80 ADD MSTORE SWAP4 SWAP3 POP POP POP JUMP JUMPDEST PUSH1 0x0 PUSH1 0xFF DUP3 AND PUSH1 0xFF DUP2 SUB PUSH2 0x46F8 JUMPI PUSH2 0x46F8 PUSH2 0x445F JUMP JUMPDEST PUSH1 0x1 ADD SWAP3 SWAP2 POP POP JUMP JUMPDEST PUSH1 0x0 PUSH1 0x20 DUP3 DUP5 SUB SLT ISZERO PUSH2 0x4713 JUMPI PUSH1 0x0 DUP1 REVERT JUMPDEST PUSH2 0x93A DUP3 PUSH2 0x43B4 JUMP JUMPDEST PUSH1 0x0 PUSH1 0x20 DUP3 DUP5 SUB SLT ISZERO PUSH2 0x472E JUMPI PUSH1 0x0 DUP1 REVERT JUMPDEST DUP2 MLOAD PUSH2 0x93A DUP2 PUSH2 0x3FF1 JUMP JUMPDEST PUSH1 0xFF DUP3 DUP2 AND DUP3 DUP3 AND SUB SWAP1 DUP2 GT ISZERO PUSH2 0x4488 JUMPI PUSH2 0x4488 PUSH2 0x445F JUMP JUMPDEST PUSH1 0x0 DUP3 MLOAD PUSH2 0x4764 DUP2 DUP5 PUSH1 0x20 DUP8 ADD PUSH2 0x42E6 JUMP JUMPDEST SWAP2 SWAP1 SWAP2 ADD SWAP3 SWAP2 POP POP JUMP JUMPDEST PUSH1 0x20 DUP2 MSTORE PUSH1 0x0 PUSH2 0x93A PUSH1 0x20 DUP4 ADD DUP5 PUSH2 0x430A JUMP INVALID LOG2 PUSH5 0x6970667358 0x22 SLT KECCAK256 0xE7 OR 0x27 0xD1 0xBA 0xE6 0x5E 0xB2 0xB8 PUSH25 0x91873472641BAEECF6051DC704F237D5842F74DFF84D64736F PUSH13 0x63430008130033000000000000 ",
  "sha1": "26f91682dc8e88f23649a8835056be75b382bf12",
  "source": "// SPDX-License-Identifier: none\npragma solidity 0.8.19;\n\nimport \"./PositionManager.sol\";\nimport \"../TokenisableRange.sol\";\n\ninterface  AmountsRouter {\n  function getAmountsOut(uint256 amountIn, address[] calldata path) external returns (uint256[] memory amounts);\n  function getAmountsIn(uint256 amountOut, address[] calldata path) external returns (uint256[] memory amounts);\n}\n\ncontract OptionsPositionManager is PositionManager {\n  using SafeERC20 for IERC20;\n\n  ////////////////////// EVENTS\n  event BuyOptions(address indexed user, address indexed asset, uint amount, uint amount0, uint amount1);\n  event SellOptions(address indexed user, address indexed asset, uint amount, uint amount0, uint amount1);\n  event ClosePosition(address indexed user, address indexed asset, uint amount, uint amount0, uint amount1);\n  event LiquidatePosition(address indexed user, address indexed asset, uint amount, uint amount0, uint amount1);\n  event ReducedPosition(address indexed user, address indexed asset, uint amount);\n  event Swap(address indexed user, address sourceAsset, uint sourceAmount, address targetAsset, uint targetAmount);\n\n\n  /// @param roerouter Address of Roe whitelist router\n  constructor (address roerouter) PositionManager(roerouter) {}\n\n\n  ////////////////////// DISPATCHER\n  /**\n   * @notice Aave-compatible flashloan receiver dispatch: open a leverage position or liquidate a position\n   * @param assets The address of the flash-borrowed asset\n   * @param amounts The amount of the flash-borrowed asset\n   * @param premiums The fee of the flash-borrowed asset\n   * @param initiator The address of the flashloan initiator\n   * @param params The byte-encoded params passed when initiating the flashloan\n   * @return result True if the execution of the operation succeeds, false otherwise\n   */\n  function executeOperation(\n    address[] calldata assets,\n    uint256[] calldata amounts,\n    uint256[] calldata premiums,\n    address initiator,\n    bytes calldata params\n  ) override external returns (bool result) {\n    uint8 mode = abi.decode(params, (uint8) );\n    // Buy options\n    if ( mode == 0 ){\n      (, uint poolId, address user, address[] memory sourceSwap) = abi.decode(params, (uint8, uint, address, address[]));\n      executeBuyOptions(poolId, assets, amounts, user, sourceSwap);\n    }\n    // Liquidate\n    else {\n      (, uint poolId, address user, address collateral) = abi.decode(params, (uint8, uint, address, address));\n      executeLiquidation(poolId, assets, amounts, user, collateral);\n    }\n    result = true;\n  }\n  \n  \n  /// @notice Buy each flashloaned option\n  function executeBuyOptions(\n    uint poolId,\n    address[] calldata assets,\n    uint256[] calldata amounts,\n    address user,\n    address[] memory sourceSwap\n  ) internal {\n    (ILendingPool lendingPool,,, address token0, address token1 ) = getPoolAddresses(poolId);\n    require( address(lendingPool) == msg.sender, \"OPM: Call Unallowed\");\n    \n    for ( uint8 k = 0; k<assets.length; k++){\n      address asset = assets[k];\n      uint amount = amounts[k];\n      withdrawOptionAssets(poolId, asset, amount, sourceSwap[k], user);\n    }\n    // send all tokens to lendingPool\n    cleanup(lendingPool, user, token0);\n    cleanup(lendingPool, user, token1);\n  }\n  \n  \n  /// @notice Execute operation liquidation\n  function executeLiquidation(\n    uint poolId,\n    address[] calldata assets,\n    uint256[] calldata amounts,\n    address user,\n    address collateral\n  ) internal {\n    (ILendingPool lendingPool,,, address token0, address token1) = getPoolAddresses(poolId);\n    require( address(lendingPool) == msg.sender, \"OPM: Call Unallowed\");\n    uint[2] memory amts = [ERC20(token0).balanceOf(address(this)), ERC20(token1).balanceOf(address(this))];\n    for ( uint8 k =0; k<assets.length; k++){\n      address debtAsset = assets[k];\n      \n      // simple liquidation: debt is transferred from user to liquidator and collateral deposited to roe\n      uint amount = amounts[k];\n      \n      // liquidate and send assets here\n      checkSetAllowance(debtAsset, address(lendingPool), amount);\n      lendingPool.liquidationCall(collateral, debtAsset, user, amount, false);\n      // repay tokens\n      uint debt = closeDebt(poolId, address(this), debtAsset, amount, collateral);\n      uint amt0 = ERC20(token0).balanceOf(address(this));\n      uint amt1 = ERC20(token1).balanceOf(address(this));\n      emit LiquidatePosition(user, debtAsset, debt, amt0 - amts[0], amt1 - amts[1]);\n      amts[0] = amt0;\n      amts[1] = amt1;\n      \n    }\n  }\n\n\n  ////////////////////// BUY OPTIONS\n  \n  /// @notice Withdraw underlying option assets and swap if necessary\n  /// @param poolId ID of the ROE lending pool\n  /// @param flashAsset Option asset to borrow\n  /// @param flashAmount Amount to borrow\n  /// @param sourceSwap Asset to swap (put-call parity)\n  /// @param user Address of option buyer\n  /// @dev Only withdraws the tokens and swap, doesnt deposit, as this is done afterwards to avoid doing multiple times\n  function withdrawOptionAssets(\n    uint poolId,\n    address flashAsset,\n    uint256 flashAmount,\n    address sourceSwap,\n    address user\n  ) \n    private returns (bool result)\n  {\n    (, IPriceOracle oracle, IUniswapV2Router01 router, address token0, address token1) = getPoolAddresses(poolId);\n    sanityCheckUnderlying(flashAsset, token0, token1);\n    // Remove Liquidity and get underlying tokens\n    (uint256 amount0, uint256 amount1) = TokenisableRange(flashAsset).withdraw(flashAmount, 0, 0);\n    if (sourceSwap != address(0) ){\n      require(sourceSwap == token0 || sourceSwap == token1, \"OPM: Invalid Swap Token\");\n      address[] memory path = new address[](2);\n      path[0] = sourceSwap ;\n      path[1] = sourceSwap == token0 ? token1 : token0;\n      uint amount = sourceSwap == token0 ? amount0 : amount1;\n\n      uint received = swapExactTokensForTokens(router, oracle, amount, path);\n      // if swap underlying, then sourceSwap amount is 0 and the other amount is amount withdrawn + amount received from swap\n      amount0 = sourceSwap == token0 ? 0 : amount0 + received;\n      amount1 = sourceSwap == token1 ? 0 : amount1 + received;\n    }\n    emit BuyOptions(user, flashAsset, flashAmount, amount0, amount1);\n    result = true;\n  }\n\n  \n  /// @notice Buy a list of option. An option is a triplet [TRAddress, amount, putOrCall]\n  /// @param poolId ID of the ROE lending pool\n  /// @param options Option addresses list\n  /// @param amounts Option amounts list\n  /// @param sourceSwap Source swap address for call-put parity\n  /// @dev Because tickers are one coin or the other depending on the price, one can only buy OTM options. You can get ITM put by buying OTM call and swapping, or get ITM call by buying OTM put and swapping. If you wanna swap, set sourceSwap to the asset you *dont* want, otherwise must be address(0x0)\n  function buyOptions(\n    uint poolId, \n    address[] memory options, \n    uint[] memory amounts, \n    address[] memory sourceSwap\n  )\n    external\n  {\n    require(options.length == amounts.length && sourceSwap.length == options.length, \"OPM: Array Length Mismatch\");\n    bytes memory params = abi.encode(0, poolId, msg.sender, sourceSwap);\n    (ILendingPool LP,,,, ) = getPoolAddresses(poolId);\n\n    uint[] memory flashtype = new uint[](options.length);\n    for (uint8 i = 0; i< options.length; ){\n      flashtype[i] = 2;\n      unchecked { i+=1; }\n    }\n    LP.flashLoan( address(this), options, amounts, flashtype, msg.sender, params, 0);\n  }\n\n  \n  ////////////////////// LIQUIDATIONS\n  \n  /// @notice Liquidate up to 50% of an unhealthy position\n  /// @param poolId ID of the ROE lending pool\n  /// @param user The owner of the loan to liquidate\n  /// @param options Array of borrowed Ticker assets to repay\n  /// @param amounts Array of borrowed Ticker assets amounts to repay\n  /// @param collateralAsset Asset used for liquidation fee\n  /// @dev Flashloan the debt tokens to liquidate, then use liquidation assets to repay the flashloan\n  function liquidate (\n    uint poolId, \n    address user,\n    address[] memory options, \n    uint[] memory amounts,\n    address collateralAsset\n  )\n    external\n  {\n    require(options.length == amounts.length, \"ARRAY_LEN_MISMATCH\");\n    bytes memory params = abi.encode(1, poolId, user, collateralAsset); // mode = 1 -> liquidation\n    (ILendingPool LP,,, address token0, address token1) = getPoolAddresses(poolId);\n    \n    uint[] memory flashtype = new uint[](options.length);\n    for (uint8 i = 0; i< options.length; ){\n      flashtype[i] = 0; // dont open debt for liquidations, need to repay\n      unchecked { i+=1; }\n    }\n    LP.flashLoan( address(this), options, amounts, flashtype, msg.sender, params, 0);\n\n    // send all tokens to liquidator\n    cleanup(LP, msg.sender, token0);\n    cleanup(LP, msg.sender, token1);\n  }\n\n\n  ////////////////////// REDUCING POSITION\n  \n  /// @notice Repays a TR debt and send tokens back to user\n  /// @param poolId ID of the ROE lending pool\n  /// @param user Owner of the debt\n  /// @param debtAsset the borrowed LP token address\n  /// @param repayAmount amount of borrowed tokens to repay; 0 or higher than current debt will repay all\n  /// @param collateralAsset Asset used for liquidation fee\n  function close(\n    uint poolId, \n    address user,\n    address debtAsset, \n    uint repayAmount,\n    address collateralAsset\n  ) \n    external\n  {\n    (ILendingPool LP,,, address token0, address token1) = getPoolAddresses(poolId);\n    uint debt = ERC20(LP.getReserveData(debtAsset).variableDebtTokenAddress).balanceOf(user);\n    if ( repayAmount > 0 && repayAmount < debt ) debt = repayAmount;\n    require(debt > 0, \"OPM: No Debt\");\n    debt = closeDebt(poolId, user, debtAsset, debt, collateralAsset);\n\n    cleanup(LP, user, token0);\n    cleanup(LP, user, token1);\n    emit ReducedPosition(user, debtAsset, debt);\n  }\n\n\n  /// @notice Repays a TR debt\n  /// @param poolId ID of the ROE lending pool\n  /// @param user Owner of the debt to close. If user is address(this), we dont repay but just recreate tokens, flashloan will take care of getting them back\n  /// @param debtAsset the borrowed LP token address\n  /// @param repayAmount amount of borrowed tokens to repay; 0 or higher than current debt will repay all\n  /// @param collateralAsset Asset used for liquidation fee\n  function closeDebt(\n    uint poolId, \n    address user,\n    address debtAsset, \n    uint repayAmount,\n    address collateralAsset\n  ) \n    internal returns (uint debt)\n  {\n    (ILendingPool LP,,IUniswapV2Router01 ammRouter, address token0, address token1) = getPoolAddresses(poolId);\n    sanityCheckUnderlying(debtAsset, token0, token1);\n    require(collateralAsset == token0 || collateralAsset == token1, \"OPM: Invalid Collateral Asset\");\n    uint amtA;\n    uint amtB;\n    // Add dust to be sure debt reformed >= debt outstanding\n    debt = repayAmount + addDust(debtAsset, token0, token1);\n    \n    // Claim fees first so that deposit will match exactly\n    TokenisableRange(debtAsset).claimFee();\n    { //localize vars\n      (uint token0Amount, uint token1Amount) = TokenisableRange(debtAsset).getTokenAmounts(debt);\n      checkExpectedBalances(debtAsset, debt, token0Amount, token1Amount);\n      checkSetAllowance(token0, debtAsset, token0Amount);\n      checkSetAllowance(token1, debtAsset, token1Amount);\n      // If called by this contract himself this is a liquidation, skip that step\n      if (user != address(this) ){\n        amtA = IERC20(LP.getReserveData(token0).aTokenAddress ).balanceOf(user);\n        amtB = IERC20(LP.getReserveData(token1).aTokenAddress ).balanceOf(user);\n        PMWithdraw(LP, user, token0, amtA );\n        PMWithdraw(LP, user, token1, amtB );\n        // If another user softLiquidates a share of the liquidation goes to the treasury\n        if (user != msg.sender ) {\n          uint feeAmount = calculateAndSendFee(poolId, token0Amount, token1Amount, collateralAsset);\n          if (collateralAsset == token0) amtA -= feeAmount;\n          else amtB -= feeAmount;\n        }\n      }\n      else {\n        // Assets are already present from liquidation\n        amtA = ERC20(token0).balanceOf(user);\n        amtB = ERC20(token1).balanceOf(user);\n      }\n\n      // swap if one token is missing - consider that there is enough \n      address[] memory path = new address[](2);\n      if ( amtA < token0Amount ){\n        path[0] = token1;\n        path[1] = token0;\n        swapTokensForExactTokens(ammRouter, token0Amount - amtA, amtB, path); \n      }\n      else if ( amtB < token1Amount ){\n        path[0] = token0;\n        path[1] = token1;\n        swapTokensForExactTokens(ammRouter, token1Amount - amtB, amtA, path); \n      }\n      debt = TokenisableRange(debtAsset).deposit(token0Amount, token1Amount);\n    }\n    checkSetAllowance(debtAsset, address(LP), debt);\n    \n    // If user closes, repay debt, else tokens will be taken back by the flashloan\n    if (user != address(this) ) LP.repay( debtAsset, debt, 2, user);\n    {\n      uint amt0 = ERC20(token0).balanceOf(address(this));\n      uint amt1 = ERC20(token1).balanceOf(address(this));\n      // edge case where after swapping exactly the tokens and repaying debt, dust causes remaining asset balance to be slightly higher than before repaying\n      if (amtA > amt0) \n        amt0 = amtA - amt0;\n      else \n        amt0 = 0;\n      if (amtB > amt1) \n        amt1 = amtB - amt1;\n      else \n        amt1 = 0;\n      emit ClosePosition(user, debtAsset, debt, amt0, amt1);\n    }\n    \n    // Swap other token back to collateral: this allows to control exposure\n    if (user == msg.sender) swapTokens(poolId, collateralAsset == token0 ? token1 : token0, 0);\n  }\n  \n  \n  /// @notice Check that amounts to deposit in TR are matching expected balance based on oracle, to avoid sandwich attacks\n  /// @param debtAsset the borrowed LP token address\n  /// @param debtAmount the amount of debt\n  /// @param token0Amount Amount of token0 used to liquidate the debt\n  /// @param token1Amount Amount of token1 used to liquidate the debt\n  function checkExpectedBalances(address debtAsset, uint debtAmount, uint token0Amount, uint token1Amount) internal view\n  {\n    IAaveOracle oracle = TokenisableRange(debtAsset).ORACLE();\n    (ERC20 token0, uint8 decimals0) = TokenisableRange(debtAsset).TOKEN0();\n    (ERC20 token1, uint8 decimals1) = TokenisableRange(debtAsset).TOKEN1();\n    uint debtValue = TokenisableRange(debtAsset).latestAnswer() * debtAmount / 1e18;\n    uint tokensValue = token0Amount * oracle.getAssetPrice(address(token0)) / 10**decimals0 + token1Amount * oracle.getAssetPrice(address(token1)) / 10**decimals1;\n    // check that value of underlying tokens > 98% theoretical value  of TR asset, or that this is dust \n    require( \n      (debtValue < 1e8 && tokensValue < 1e8 )\n      || (tokensValue > debtValue * 98 / 100 && tokensValue < debtValue * 102 / 100), \n      \"OPM: Slippage Error\"\n    );\n  }\n\n  \n  /// @notice Calculates the liquidation fee and sends it to the treasury\n  /// @param poolId ROE pool Id\n  /// @param token0Amount Amount of token0 used to liquidate the debt\n  /// @param token1Amount Amount of token1 used to liquidate the debt\n  /// @param collateralAsset Asset used for liquidation fee\n  function calculateAndSendFee(\n    uint poolId, \n    uint token0Amount, \n    uint token1Amount, \n    address collateralAsset\n  ) internal returns (uint feeAmount) {\n    (, IPriceOracle oracle,, address token0, address token1) = getPoolAddresses(poolId);\n    \n    uint feeValueE8 = token0Amount * oracle.getAssetPrice(token0) / 10**ERC20(token0).decimals()\n                    + token1Amount * oracle.getAssetPrice(token1) / 10**ERC20(token1).decimals() ;\n    feeAmount = feeValueE8 * 10**ERC20(collateralAsset).decimals() / 100 / oracle.getAssetPrice(collateralAsset);\n    \n    require(feeAmount <= IERC20(collateralAsset).balanceOf(address(this)), \"OPM: Insufficient Collateral\");\n    IERC20(collateralAsset).safeTransfer(ROEROUTER.treasury(), feeAmount);\n  }\n\n  \n  ////////////////////// SELL OPTIONS\n  \n  \n  /// @notice Sell options\n  /// @param poolId ID of the ROE lending pool\n  /// @param optionAddress The TokenisableRange representing the option\n  /// @param amount0 The amount of underlying token0 to add\n  /// @param amount1 The amount of underlying token1 to add\n  /// @dev Amounts aren't checked and will revert if wrong. In 99.9% cases one of the amounts should be 0\n  /// @dev Collateral needs to be in Lending Pool already\n  function sellOptions(\n    uint poolId,\n    address optionAddress,\n    uint amount0,\n    uint amount1\n  )\n    external\n  {\n    (ILendingPool LP, IPriceOracle oracle,, address token0, address token1 ) = getPoolAddresses(poolId);\n    require( LP.getReserveData(optionAddress).aTokenAddress != address(0x0), \"OPM: Invalid Address\" );\n    \n    PMWithdraw(LP, msg.sender, token0, amount0);\n    PMWithdraw(LP, msg.sender, token1, amount1);\n    checkSetAllowance(token0, optionAddress, amount0);\n    checkSetAllowance(token1, optionAddress, amount1);\n    uint deposited = TokenisableRange(optionAddress).deposit(amount0, amount1);\n    \n    emit SellOptions(msg.sender, optionAddress, deposited, amount0, amount1 );\n    cleanup(LP, msg.sender, optionAddress);\n    cleanup(LP, msg.sender, token0);\n    cleanup(LP, msg.sender, token1);\n  }\n  \n  \n  /// @notice Stop selling = remove liquidity from a TR\n  /// @param poolId Id of the pool\n  /// @param optionAddress Address of the TR asset\n  /// @param amount Amount of TR asset redeemed\n  function withdrawOptions(\n    uint poolId,\n    address optionAddress,\n    uint amount\n  )\n    external\n  {\n    (ILendingPool LP,,, address token0, address token1 ) = getPoolAddresses(poolId);\n    require( LP.getReserveData(optionAddress).aTokenAddress != address(0x0), \"OPM: Invalid Address\" );\n    PMWithdraw(LP, msg.sender, optionAddress, amount);\n\n    // Get output amounts from oracle to avoid sandwich\n    (uint amount0, uint amount1) = TokenisableRange(optionAddress).withdraw(amount, 0, 0);\n    checkExpectedBalances(optionAddress, amount, amount0, amount1);\n    cleanup(LP, msg.sender, optionAddress);\n    cleanup(LP, msg.sender, token0);\n    cleanup(LP, msg.sender, token1);\n  }\n  \n  \n  ////////////////////// SWAP\n  \n  /// @notice Swap user assets; useful to change user risk profile\n  /// @param poolId Id of the pool\n  /// @param sourceAsset Asset to be swapped\n  /// @param amount of asset to swap - if 0, swap all\n  /// @return received Amount of target token received\n  function swapTokens(uint poolId, address sourceAsset, uint amount) public returns (uint received) {\n    (ILendingPool LP, IPriceOracle oracle,IUniswapV2Router01 router, address token0, address token1) = getPoolAddresses(poolId);\n    require(sourceAsset == token0 || sourceAsset == token1, \"OPM: Invalid Swap Asset\");\n    if (amount == 0) {\n      amount = ERC20(LP.getReserveData(sourceAsset).aTokenAddress).balanceOf(msg.sender);\n      if (amount == 0) return 0;\n    }\n    PMWithdraw(LP, msg.sender, sourceAsset, amount);\n\n    address[] memory path = new address[](2);\n    path[0] = sourceAsset ;\n    path[1] = sourceAsset == token0 ? token1 : token0;\n    received = swapExactTokensForTokens(router, oracle, amount, path);\n    \n    cleanup(LP, msg.sender, token0);\n    cleanup(LP, msg.sender, token1);\n    emit Swap(msg.sender, path[0], amount, path[1], received);\n  }\n  \n  \n  \n  \n  ////////////////////// HELPERS\n\n  \n  /// @notice Swaps assets for exact assets\n  /// @param ammRouter AMM router\n  /// @param oracle Price oracle\n  /// @param amount Amount of target token received\n  /// @param path The path [source, target] of the swap\n  /// @return received Amount of target tokens received\n  function swapExactTokensForTokens(IUniswapV2Router01 ammRouter, IPriceOracle oracle, uint amount, address[] memory path) \n    internal returns (uint256 received)\n  {\n    if (amount > 0 && AmountsRouter(address(ammRouter)).getAmountsOut(amount, path)[1] > 0){\n      checkSetAllowance(path[0], address(ammRouter), amount);\n      uint[] memory amounts = ammRouter.swapExactTokensForTokens(\n        amount, \n        getTargetAmountFromOracle(oracle, path[0], amount, path[1]) * 99 / 100, // allow 1% slippage \n        path, \n        address(this), \n        block.timestamp\n      );\n      received = amounts[1];\n    }\n  }\n  \n  /// @notice Swaps assets for exact assets\n  /// @param ammRouter AMM router\n  /// @param recvAmount Amount of target token received\n  /// @param maxAmount Amount of source token allowed to be spent minus margin\n  /// @param path The path [source, target] of the swap\n  function swapTokensForExactTokens(IUniswapV2Router01 ammRouter, uint recvAmount, uint maxAmount, address[] memory path) internal {\n    checkSetAllowance(path[0], address(ammRouter), maxAmount);\n    uint [] memory amountsIn = AmountsRouter(address(ammRouter)).getAmountsIn(recvAmount, path);\n        \n    require( amountsIn[0] <= maxAmount && amountsIn[0] > 0, \"OPM: Invalid Swap Amounts\" );\n    require( amountsIn[0] <= ERC20(path[0]).balanceOf(address(this)), \"OPM: Insufficient Token Amount\" );\n    amountsIn = ammRouter.swapTokensForExactTokens(\n      recvAmount,\n      maxAmount,\n      path,\n      address(this),\n      block.timestamp\n    );\n  }\n  \n\n  /// @notice Calculate a target swap amount based on oracle-provided token prices\n  /// @param oracle Price oracle\n  /// @param assetA address of token A\n  /// @param amountA Amount of toke A\n  /// @param assetB address of token B\n  /// @return amountB Amount of target token\n  function getTargetAmountFromOracle(IPriceOracle oracle, address assetA, uint amountA, address assetB) \n    internal view returns (uint amountB) \n  {\n    /**\n      uint valueA = amountA * oracle.getAssetPrice(assetA) / 10**ERC20(assetA).decimals();\n      uint valueB = amountB * oracle.getAssetPrice(assetB) / 10**ERC20(assetB).decimals();\n      We expect valueA == valueB\n    */\n    uint priceAssetA = oracle.getAssetPrice(assetA);\n    uint priceAssetB = oracle.getAssetPrice(assetB);\n    require ( priceAssetA > 0 && priceAssetB > 0, \"OPM: Invalid Oracle Price\");\n    amountB = amountA * priceAssetA * 10**ERC20(assetB).decimals() / 10**ERC20(assetA).decimals() / priceAssetB;\n    require( amountB > 0, \"OPM: Target Amount Too Low\");\n  }\n  \n  \n  /// @notice Check that tr is a Tokenisable Range matching given tokens or revert\n  /// @param tr Tokenisable range\n  /// @param token0 Underlying token 0\n  /// @param token1 Underlying token 1\n  function sanityCheckUnderlying(address tr, address token0, address token1) internal {\n    (ERC20 t0, ) = TokenisableRange(tr).TOKEN0();\n    (ERC20 t1, ) = TokenisableRange(tr).TOKEN1();\n    require(token0 == address(t0) && token1 == address(t1), \"OPM: Invalid Debt Asset\");\n  }\n  \n  \n  /// @notice Calculate a dust amount such that any underlying token amount would be larger than 100 units\n  /// @param debtAsset The debt TR asset\n  /// @param token0 Underlying token\n  /// @param token1 Underlying token\n  function addDust(address debtAsset, address token0, address token1) internal returns (uint amount){\n    IAaveOracle oracle = TokenisableRange(debtAsset).ORACLE();\n    uint scale0 = 10**(20 - ERC20(token0).decimals()) * oracle.getAssetPrice(token0) / 1e8;\n    uint scale1 = 10**(20 - ERC20(token1).decimals()) * oracle.getAssetPrice(token1) / 1e8;\n    \n    if (scale0 > scale1) amount = scale0;\n    else amount = scale1;\n  }\n}\n",
  "sourcePath": "contracts/PositionManager/OptionsPositionManager.sol",
  "type": "contract"
}