{
  "abi": [
    {
      "inputs": [
        {
          "internalType": "address",
          "name": "clToken0",
          "type": "address"
        },
        {
          "internalType": "address",
          "name": "clToken1",
          "type": "address"
        }
      ],
      "stateMutability": "nonpayable",
      "type": "constructor"
    },
    {
      "inputs": [],
      "name": "CL_TOKENA",
      "outputs": [
        {
          "internalType": "contract AggregatorV3Interface",
          "name": "",
          "type": "address"
        }
      ],
      "stateMutability": "view",
      "type": "function"
    },
    {
      "inputs": [],
      "name": "CL_TOKENB",
      "outputs": [
        {
          "internalType": "contract AggregatorV3Interface",
          "name": "",
          "type": "address"
        }
      ],
      "stateMutability": "view",
      "type": "function"
    },
    {
      "inputs": [],
      "name": "decimals",
      "outputs": [
        {
          "internalType": "uint8",
          "name": "",
          "type": "uint8"
        }
      ],
      "stateMutability": "pure",
      "type": "function"
    },
    {
      "inputs": [],
      "name": "latestAnswer",
      "outputs": [
        {
          "internalType": "int256",
          "name": "",
          "type": "int256"
        }
      ],
      "stateMutability": "view",
      "type": "function"
    },
    {
      "inputs": [],
      "name": "latestRoundData",
      "outputs": [
        {
          "internalType": "uint80",
          "name": "roundId",
          "type": "uint80"
        },
        {
          "internalType": "int256",
          "name": "answer",
          "type": "int256"
        },
        {
          "internalType": "uint256",
          "name": "startedAt",
          "type": "uint256"
        },
        {
          "internalType": "uint256",
          "name": "updatedAt",
          "type": "uint256"
        },
        {
          "internalType": "uint80",
          "name": "answeredInRound",
          "type": "uint80"
        }
      ],
      "stateMutability": "view",
      "type": "function"
    }
  ],
  "bytecode": "60c060405234801561001057600080fd5b506040516108a93803806108a983398101604081905261002f916101dc565b6001600160a01b0382161580159061004f57506001600160a01b03811615155b6100925760405162461bcd60e51b815260206004820152600f60248201526e496e76616c6964206164647265737360881b60448201526064015b60405180910390fd5b6001600160a01b03808316608052811660a08190526040805163313ce56760e01b815290516010929163313ce5679160048083019260209291908290030181865afa1580156100e5573d6000803e3d6000fd5b505050506040513d601f19601f82011682018060405250810190610109919061020f565b6080516001600160a01b031663313ce5676040518163ffffffff1660e01b8152600401602060405180830381865afa158015610149573d6000803e3d6000fd5b505050506040513d601f19601f8201168201806040525081019061016d919061020f565b6101779190610239565b60ff1610156101b95760405162461bcd60e51b815260206004820152600e60248201526d2232b1b4b6b0b6399032b93937b960911b6044820152606401610089565b5050610266565b80516001600160a01b03811681146101d757600080fd5b919050565b600080604083850312156101ef57600080fd5b6101f8836101c0565b9150610206602084016101c0565b90509250929050565b60006020828403121561022157600080fd5b815160ff8116811461023257600080fd5b9392505050565b60ff818116838216019081111561026057634e487b7160e01b600052601160045260246000fd5b92915050565b60805160a0516106046102a560003960008181608b01528181610160015261020c01526000818160ca01528181610133015261018a01526106046000f3fe608060405234801561001057600080fd5b50600436106100575760003560e01c8063313ce5671461005c57806350d25bcd146100705780635fcf91aa14610086578063e4571356146100c5578063feaf968c146100ec575b600080fd5b604051600881526020015b60405180910390f35b61007861012b565b604051908152602001610067565b6100ad7f000000000000000000000000000000000000000000000000000000000000000081565b6040516001600160a01b039091168152602001610067565b6100ad7f000000000000000000000000000000000000000000000000000000000000000081565b6100f46102c6565b6040805169ffffffffffffffffffff968716815260208101959095528401929092526060830152909116608082015260a001610067565b6000806101577f00000000000000000000000000000000000000000000000000000000000000006102fd565b905060006101847f00000000000000000000000000000000000000000000000000000000000000006102fd565b905060087f00000000000000000000000000000000000000000000000000000000000000006001600160a01b031663313ce5676040518163ffffffff1660e01b8152600401602060405180830381865afa1580156101e6573d6000803e3d6000fd5b505050506040513d601f19601f8201168201806040525081019061020a91906103bb565b7f00000000000000000000000000000000000000000000000000000000000000006001600160a01b031663313ce5676040518163ffffffff1660e01b8152600401602060405180830381865afa158015610268573d6000803e3d6000fd5b505050506040513d601f19601f8201168201806040525081019061028c91906103bb565b61029691906103fb565b6102a0919061041a565b6102ab90600a610517565b6102b58284610526565b6102bf919061053d565b9250505090565b600080600080600069ffffffffffffffffffff6102e161012b565b909690955042945084935069ffffffffffffffffffff92509050565b6000806000836001600160a01b031663feaf968c6040518163ffffffff1660e01b815260040160a060405180830381865afa158015610340573d6000803e3d6000fd5b505050506040513d601f19601f82011682018060405250810190610364919061057e565b50935050925050600081116103b45760405162461bcd60e51b8152602060048201526012602482015271526f756e64206e6f7420636f6d706c65746560701b604482015260640160405180910390fd5b5092915050565b6000602082840312156103cd57600080fd5b815160ff811681146103de57600080fd5b9392505050565b634e487b7160e01b600052601160045260246000fd5b60ff8181168382160190811115610414576104146103e5565b92915050565b60ff8281168282160390811115610414576104146103e5565b600181815b8085111561046e578160001904821115610454576104546103e5565b8085161561046157918102915b93841c9390800290610438565b509250929050565b60008261048557506001610414565b8161049257506000610414565b81600181146104a857600281146104b2576104ce565b6001915050610414565b60ff8411156104c3576104c36103e5565b50506001821b610414565b5060208310610133831016604e8410600b84101617156104f1575081810a610414565b6104fb8383610433565b806000190482111561050f5761050f6103e5565b029392505050565b60006103de60ff841683610476565b8082028115828204841417610414576104146103e5565b60008261055a57634e487b7160e01b600052601260045260246000fd5b500490565b805169ffffffffffffffffffff8116811461057957600080fd5b919050565b600080600080600060a0868803121561059657600080fd5b61059f8661055f565b94506020860151935060408601519250606086015191506105c26080870161055f565b9050929550929590935056fea26469706673582212202bd897fd648d4ddbcd3a4653cea3bad94f9f987ce8985dbae28da765baec1c4364736f6c63430008130033",
  "bytecodeSha1": "2690241d55c3edd34385145d31753d615bd4beb3",
  "compiler": {
    "evm_version": "istanbul",
    "optimizer": {
      "enabled": true,
      "runs": 200
    },
    "version": "0.8.19+commit.7dd6d404"
  },
  "contractName": "OracleConvert",
  "language": "Solidity",
  "natspec": {
    "kind": "dev",
    "methods": {
      "constructor": {
        "params": {
          "clToken0": "Underlying token0 ChainLink feed",
          "clToken1": "Underlying token1 ChainLink feed"
        }
      },
      "decimals()": {
        "notice": "Get oracle decimals"
      },
      "latestAnswer()": {
        "notice": "Get the oracle price for the latest available round",
        "returns": {
          "_0": "Latest price"
        }
      },
      "latestRoundData()": {
        "details": "Note that answer and updatedAt may change between queries.",
        "notice": "get data about the latest round. Consumers are encouraged to check that they're receiving fresh data by inspecting the updatedAt and answeredInRound return values. Note that different underlying implementations of AggregatorV3Interface have slightly different semantics for some of the return values. Consumers should determine what implementations they expect to receive data from and validate that they can properly handle return data from all of them.",
        "returns": {
          "answer": "is the answer for the given round",
          "answeredInRound": "is the round ID of the round in which the answer was computed. (Only some AggregatorV3Interface implementations return meaningful values)",
          "roundId": "is the round ID from the aggregator for which the data was retrieved combined with an phase to ensure that round IDs get larger as time moves forward.",
          "startedAt": "is the timestamp when the round was started. (Only some AggregatorV3Interface implementations return meaningful values)",
          "updatedAt": "is the timestamp when the round last was updated (i.e. answer was last computed)"
        }
      }
    },
    "version": 1
  },
  "opcodes": "PUSH1 0x80 PUSH1 0x40 MSTORE CALLVALUE DUP1 ISZERO PUSH2 0x10 JUMPI PUSH1 0x0 DUP1 REVERT JUMPDEST POP PUSH1 0x4 CALLDATASIZE LT PUSH2 0x57 JUMPI PUSH1 0x0 CALLDATALOAD PUSH1 0xE0 SHR DUP1 PUSH4 0x313CE567 EQ PUSH2 0x5C JUMPI DUP1 PUSH4 0x50D25BCD EQ PUSH2 0x70 JUMPI DUP1 PUSH4 0x5FCF91AA EQ PUSH2 0x86 JUMPI DUP1 PUSH4 0xE4571356 EQ PUSH2 0xC5 JUMPI DUP1 PUSH4 0xFEAF968C EQ PUSH2 0xEC JUMPI JUMPDEST PUSH1 0x0 DUP1 REVERT JUMPDEST PUSH1 0x40 MLOAD PUSH1 0x8 DUP2 MSTORE PUSH1 0x20 ADD JUMPDEST PUSH1 0x40 MLOAD DUP1 SWAP2 SUB SWAP1 RETURN JUMPDEST PUSH2 0x78 PUSH2 0x12B JUMP JUMPDEST PUSH1 0x40 MLOAD SWAP1 DUP2 MSTORE PUSH1 0x20 ADD PUSH2 0x67 JUMP JUMPDEST PUSH2 0xAD PUSH32 0x0 DUP2 JUMP JUMPDEST PUSH1 0x40 MLOAD PUSH1 0x1 PUSH1 0x1 PUSH1 0xA0 SHL SUB SWAP1 SWAP2 AND DUP2 MSTORE PUSH1 0x20 ADD PUSH2 0x67 JUMP JUMPDEST PUSH2 0xAD PUSH32 0x0 DUP2 JUMP JUMPDEST PUSH2 0xF4 PUSH2 0x2C6 JUMP JUMPDEST PUSH1 0x40 DUP1 MLOAD PUSH10 0xFFFFFFFFFFFFFFFFFFFF SWAP7 DUP8 AND DUP2 MSTORE PUSH1 0x20 DUP2 ADD SWAP6 SWAP1 SWAP6 MSTORE DUP5 ADD SWAP3 SWAP1 SWAP3 MSTORE PUSH1 0x60 DUP4 ADD MSTORE SWAP1 SWAP2 AND PUSH1 0x80 DUP3 ADD MSTORE PUSH1 0xA0 ADD PUSH2 0x67 JUMP JUMPDEST PUSH1 0x0 DUP1 PUSH2 0x157 PUSH32 0x0 PUSH2 0x2FD JUMP JUMPDEST SWAP1 POP PUSH1 0x0 PUSH2 0x184 PUSH32 0x0 PUSH2 0x2FD JUMP JUMPDEST SWAP1 POP PUSH1 0x8 PUSH32 0x0 PUSH1 0x1 PUSH1 0x1 PUSH1 0xA0 SHL SUB AND PUSH4 0x313CE567 PUSH1 0x40 MLOAD DUP2 PUSH4 0xFFFFFFFF AND PUSH1 0xE0 SHL DUP2 MSTORE PUSH1 0x4 ADD PUSH1 0x20 PUSH1 0x40 MLOAD DUP1 DUP4 SUB DUP2 DUP7 GAS STATICCALL ISZERO DUP1 ISZERO PUSH2 0x1E6 JUMPI RETURNDATASIZE PUSH1 0x0 DUP1 RETURNDATACOPY RETURNDATASIZE PUSH1 0x0 REVERT JUMPDEST POP POP POP POP PUSH1 0x40 MLOAD RETURNDATASIZE PUSH1 0x1F NOT PUSH1 0x1F DUP3 ADD AND DUP3 ADD DUP1 PUSH1 0x40 MSTORE POP DUP2 ADD SWAP1 PUSH2 0x20A SWAP2 SWAP1 PUSH2 0x3BB JUMP JUMPDEST PUSH32 0x0 PUSH1 0x1 PUSH1 0x1 PUSH1 0xA0 SHL SUB AND PUSH4 0x313CE567 PUSH1 0x40 MLOAD DUP2 PUSH4 0xFFFFFFFF AND PUSH1 0xE0 SHL DUP2 MSTORE PUSH1 0x4 ADD PUSH1 0x20 PUSH1 0x40 MLOAD DUP1 DUP4 SUB DUP2 DUP7 GAS STATICCALL ISZERO DUP1 ISZERO PUSH2 0x268 JUMPI RETURNDATASIZE PUSH1 0x0 DUP1 RETURNDATACOPY RETURNDATASIZE PUSH1 0x0 REVERT JUMPDEST POP POP POP POP PUSH1 0x40 MLOAD RETURNDATASIZE PUSH1 0x1F NOT PUSH1 0x1F DUP3 ADD AND DUP3 ADD DUP1 PUSH1 0x40 MSTORE POP DUP2 ADD SWAP1 PUSH2 0x28C SWAP2 SWAP1 PUSH2 0x3BB JUMP JUMPDEST PUSH2 0x296 SWAP2 SWAP1 PUSH2 0x3FB JUMP JUMPDEST PUSH2 0x2A0 SWAP2 SWAP1 PUSH2 0x41A JUMP JUMPDEST PUSH2 0x2AB SWAP1 PUSH1 0xA PUSH2 0x517 JUMP JUMPDEST PUSH2 0x2B5 DUP3 DUP5 PUSH2 0x526 JUMP JUMPDEST PUSH2 0x2BF SWAP2 SWAP1 PUSH2 0x53D JUMP JUMPDEST SWAP3 POP POP POP SWAP1 JUMP JUMPDEST PUSH1 0x0 DUP1 PUSH1 0x0 DUP1 PUSH1 0x0 PUSH10 0xFFFFFFFFFFFFFFFFFFFF PUSH2 0x2E1 PUSH2 0x12B JUMP JUMPDEST SWAP1 SWAP7 SWAP1 SWAP6 POP TIMESTAMP SWAP5 POP DUP5 SWAP4 POP PUSH10 0xFFFFFFFFFFFFFFFFFFFF SWAP3 POP SWAP1 POP JUMP JUMPDEST PUSH1 0x0 DUP1 PUSH1 0x0 DUP4 PUSH1 0x1 PUSH1 0x1 PUSH1 0xA0 SHL SUB AND PUSH4 0xFEAF968C PUSH1 0x40 MLOAD DUP2 PUSH4 0xFFFFFFFF AND PUSH1 0xE0 SHL DUP2 MSTORE PUSH1 0x4 ADD PUSH1 0xA0 PUSH1 0x40 MLOAD DUP1 DUP4 SUB DUP2 DUP7 GAS STATICCALL ISZERO DUP1 ISZERO PUSH2 0x340 JUMPI RETURNDATASIZE PUSH1 0x0 DUP1 RETURNDATACOPY RETURNDATASIZE PUSH1 0x0 REVERT JUMPDEST POP POP POP POP PUSH1 0x40 MLOAD RETURNDATASIZE PUSH1 0x1F NOT PUSH1 0x1F DUP3 ADD AND DUP3 ADD DUP1 PUSH1 0x40 MSTORE POP DUP2 ADD SWAP1 PUSH2 0x364 SWAP2 SWAP1 PUSH2 0x57E JUMP JUMPDEST POP SWAP4 POP POP SWAP3 POP POP PUSH1 0x0 DUP2 GT PUSH2 0x3B4 JUMPI PUSH1 0x40 MLOAD PUSH3 0x461BCD PUSH1 0xE5 SHL DUP2 MSTORE PUSH1 0x20 PUSH1 0x4 DUP3 ADD MSTORE PUSH1 0x12 PUSH1 0x24 DUP3 ADD MSTORE PUSH18 0x526F756E64206E6F7420636F6D706C657465 PUSH1 0x70 SHL PUSH1 0x44 DUP3 ADD MSTORE PUSH1 0x64 ADD PUSH1 0x40 MLOAD DUP1 SWAP2 SUB SWAP1 REVERT JUMPDEST POP SWAP3 SWAP2 POP POP JUMP JUMPDEST PUSH1 0x0 PUSH1 0x20 DUP3 DUP5 SUB SLT ISZERO PUSH2 0x3CD JUMPI PUSH1 0x0 DUP1 REVERT JUMPDEST DUP2 MLOAD PUSH1 0xFF DUP2 AND DUP2 EQ PUSH2 0x3DE JUMPI PUSH1 0x0 DUP1 REVERT JUMPDEST SWAP4 SWAP3 POP POP POP JUMP JUMPDEST PUSH4 0x4E487B71 PUSH1 0xE0 SHL PUSH1 0x0 MSTORE PUSH1 0x11 PUSH1 0x4 MSTORE PUSH1 0x24 PUSH1 0x0 REVERT JUMPDEST PUSH1 0xFF DUP2 DUP2 AND DUP4 DUP3 AND ADD SWAP1 DUP2 GT ISZERO PUSH2 0x414 JUMPI PUSH2 0x414 PUSH2 0x3E5 JUMP JUMPDEST SWAP3 SWAP2 POP POP JUMP JUMPDEST PUSH1 0xFF DUP3 DUP2 AND DUP3 DUP3 AND SUB SWAP1 DUP2 GT ISZERO PUSH2 0x414 JUMPI PUSH2 0x414 PUSH2 0x3E5 JUMP JUMPDEST PUSH1 0x1 DUP2 DUP2 JUMPDEST DUP1 DUP6 GT ISZERO PUSH2 0x46E JUMPI DUP2 PUSH1 0x0 NOT DIV DUP3 GT ISZERO PUSH2 0x454 JUMPI PUSH2 0x454 PUSH2 0x3E5 JUMP JUMPDEST DUP1 DUP6 AND ISZERO PUSH2 0x461 JUMPI SWAP2 DUP2 MUL SWAP2 JUMPDEST SWAP4 DUP5 SHR SWAP4 SWAP1 DUP1 MUL SWAP1 PUSH2 0x438 JUMP JUMPDEST POP SWAP3 POP SWAP3 SWAP1 POP JUMP JUMPDEST PUSH1 0x0 DUP3 PUSH2 0x485 JUMPI POP PUSH1 0x1 PUSH2 0x414 JUMP JUMPDEST DUP2 PUSH2 0x492 JUMPI POP PUSH1 0x0 PUSH2 0x414 JUMP JUMPDEST DUP2 PUSH1 0x1 DUP2 EQ PUSH2 0x4A8 JUMPI PUSH1 0x2 DUP2 EQ PUSH2 0x4B2 JUMPI PUSH2 0x4CE JUMP JUMPDEST PUSH1 0x1 SWAP2 POP POP PUSH2 0x414 JUMP JUMPDEST PUSH1 0xFF DUP5 GT ISZERO PUSH2 0x4C3 JUMPI PUSH2 0x4C3 PUSH2 0x3E5 JUMP JUMPDEST POP POP PUSH1 0x1 DUP3 SHL PUSH2 0x414 JUMP JUMPDEST POP PUSH1 0x20 DUP4 LT PUSH2 0x133 DUP4 LT AND PUSH1 0x4E DUP5 LT PUSH1 0xB DUP5 LT AND OR ISZERO PUSH2 0x4F1 JUMPI POP DUP2 DUP2 EXP PUSH2 0x414 JUMP JUMPDEST PUSH2 0x4FB DUP4 DUP4 PUSH2 0x433 JUMP JUMPDEST DUP1 PUSH1 0x0 NOT DIV DUP3 GT ISZERO PUSH2 0x50F JUMPI PUSH2 0x50F PUSH2 0x3E5 JUMP JUMPDEST MUL SWAP4 SWAP3 POP POP POP JUMP JUMPDEST PUSH1 0x0 PUSH2 0x3DE PUSH1 0xFF DUP5 AND DUP4 PUSH2 0x476 JUMP JUMPDEST DUP1 DUP3 MUL DUP2 ISZERO DUP3 DUP3 DIV DUP5 EQ OR PUSH2 0x414 JUMPI PUSH2 0x414 PUSH2 0x3E5 JUMP JUMPDEST PUSH1 0x0 DUP3 PUSH2 0x55A JUMPI PUSH4 0x4E487B71 PUSH1 0xE0 SHL PUSH1 0x0 MSTORE PUSH1 0x12 PUSH1 0x4 MSTORE PUSH1 0x24 PUSH1 0x0 REVERT JUMPDEST POP DIV SWAP1 JUMP JUMPDEST DUP1 MLOAD PUSH10 0xFFFFFFFFFFFFFFFFFFFF DUP2 AND DUP2 EQ PUSH2 0x579 JUMPI PUSH1 0x0 DUP1 REVERT JUMPDEST SWAP2 SWAP1 POP JUMP JUMPDEST PUSH1 0x0 DUP1 PUSH1 0x0 DUP1 PUSH1 0x0 PUSH1 0xA0 DUP7 DUP9 SUB SLT ISZERO PUSH2 0x596 JUMPI PUSH1 0x0 DUP1 REVERT JUMPDEST PUSH2 0x59F DUP7 PUSH2 0x55F JUMP JUMPDEST SWAP5 POP PUSH1 0x20 DUP7 ADD MLOAD SWAP4 POP PUSH1 0x40 DUP7 ADD MLOAD SWAP3 POP PUSH1 0x60 DUP7 ADD MLOAD SWAP2 POP PUSH2 0x5C2 PUSH1 0x80 DUP8 ADD PUSH2 0x55F JUMP JUMPDEST SWAP1 POP SWAP3 SWAP6 POP SWAP3 SWAP6 SWAP1 SWAP4 POP JUMP INVALID LOG2 PUSH5 0x6970667358 0x22 SLT KECCAK256 0x2B 0xD8 SWAP8 REVERT PUSH5 0x8D4DDBCD3A CHAINID MSTORE8 0xCE LOG3 0xBA 0xD9 0x4F SWAP16 SWAP9 PUSH29 0xE8985DBAE28DA765BAEC1C4364736F6C63430008130033000000000000 ",
  "sha1": "f3146ac8be8c11032eb4ba560031f3f7f9fee856",
  "source": "// SPDX-License-Identifier: none\npragma solidity 0.8.19;\n\nimport \"../../interfaces/AggregatorV3Interface.sol\";\n\n/*\n    Contract takes 2 Chainlink feeds, and synthesises a composite price,\n    by calculating priceA * priceB, and scaling to 8 decimals places, as\n    the primary use is to scale / ETH to / USD\n    E.g. Given TRIBE / ETH and ETH / USD, return TRIBE / USD\n    \n    Note that only latestAnswer() is calculated, and this is primarily meant \n    to be used with the Aave Market Oracles\n*/\ncontract OracleConvert {\n    AggregatorV3Interface public immutable CL_TOKENA;\n    AggregatorV3Interface public immutable CL_TOKENB;\n \n \n\t/// @param clToken0 Underlying token0 ChainLink feed\n\t/// @param clToken1 Underlying token1 ChainLink feed\n\tconstructor (address clToken0, address clToken1 ){\n    require(clToken0 != address(0x0) && clToken1 != address(0x0), \"Invalid address\");\n\t\tCL_TOKENA = AggregatorV3Interface(clToken0);\n\t\tCL_TOKENB = AggregatorV3Interface(clToken1);\n    require(CL_TOKENA.decimals() + CL_TOKENB.decimals() >= 16, \"Decimals error\");\n\t}\n\n  /// @notice Get oracle decimals\n  function decimals() external pure returns (uint8) {\n    return 8;\n  }\n\n  /// @notice Get the price for the latest available round of a feed\n  /// @param priceFeed Price feed\n  /// @return Latest price\n  function getAnswer(AggregatorV3Interface priceFeed) internal view returns (int256) {\n    (\n      , \n      int price,\n      ,\n      uint timeStamp,\n    ) = priceFeed.latestRoundData();\n    require(timeStamp > 0, \"Round not complete\");\n    return price;\n  }\n\n  /// @notice Get the oracle price for the latest available round\n  /// @return Latest price\n  function latestAnswer() public view returns (int256) {\n    uint priceA = uint(getAnswer(CL_TOKENA));\n    uint priceB = uint(getAnswer(CL_TOKENB));\n    return int(priceA * priceB / (10 ** (CL_TOKENB.decimals() + CL_TOKENA.decimals() - 8))); \n  }\n  \n  /**\n   * @notice get data about the latest round. Consumers are encouraged to check\n   * that they're receiving fresh data by inspecting the updatedAt and\n   * answeredInRound return values.\n   * Note that different underlying implementations of AggregatorV3Interface\n   * have slightly different semantics for some of the return values. Consumers\n   * should determine what implementations they expect to receive\n   * data from and validate that they can properly handle return data from all\n   * of them.\n   * @return roundId is the round ID from the aggregator for which the data was\n   * retrieved combined with an phase to ensure that round IDs get larger as\n   * time moves forward.\n   * @return answer is the answer for the given round\n   * @return startedAt is the timestamp when the round was started.\n   * (Only some AggregatorV3Interface implementations return meaningful values)\n   * @return updatedAt is the timestamp when the round last was updated (i.e.\n   * answer was last computed)\n   * @return answeredInRound is the round ID of the round in which the answer\n   * was computed.\n   * (Only some AggregatorV3Interface implementations return meaningful values)\n   * @dev Note that answer and updatedAt may change between queries.\n   */\n  function latestRoundData() external view returns (uint80 roundId, int256 answer, uint256 startedAt, uint256 updatedAt, uint80 answeredInRound) {\n    return (type(uint80).max, latestAnswer(), block.timestamp, block.timestamp, type(uint80).max);\n  }\n}\n",
  "sourcePath": "contracts/helper/OracleConvert.sol",
  "type": "contract"
}