{
  "abi": [
    {
      "inputs": [
        {
          "internalType": "address",
          "name": "roerouter",
          "type": "address"
        }
      ],
      "stateMutability": "nonpayable",
      "type": "constructor"
    },
    {
      "inputs": [],
      "name": "ADDRESSES_PROVIDER",
      "outputs": [
        {
          "internalType": "contract ILendingPoolAddressesProvider",
          "name": "",
          "type": "address"
        }
      ],
      "stateMutability": "view",
      "type": "function"
    },
    {
      "inputs": [],
      "name": "LENDING_POOL",
      "outputs": [
        {
          "internalType": "contract ILendingPool",
          "name": "",
          "type": "address"
        }
      ],
      "stateMutability": "view",
      "type": "function"
    },
    {
      "inputs": [],
      "name": "ROEROUTER",
      "outputs": [
        {
          "internalType": "contract RoeRouter",
          "name": "",
          "type": "address"
        }
      ],
      "stateMutability": "view",
      "type": "function"
    },
    {
      "inputs": [
        {
          "internalType": "address[]",
          "name": "assets",
          "type": "address[]"
        },
        {
          "internalType": "uint256[]",
          "name": "amounts",
          "type": "uint256[]"
        },
        {
          "internalType": "uint256[]",
          "name": "premiums",
          "type": "uint256[]"
        },
        {
          "internalType": "address",
          "name": "initiator",
          "type": "address"
        },
        {
          "internalType": "bytes",
          "name": "params",
          "type": "bytes"
        }
      ],
      "name": "executeOperation",
      "outputs": [
        {
          "internalType": "bool",
          "name": "result",
          "type": "bool"
        }
      ],
      "stateMutability": "nonpayable",
      "type": "function"
    },
    {
      "inputs": [
        {
          "internalType": "address",
          "name": "asset",
          "type": "address"
        }
      ],
      "name": "removeDust",
      "outputs": [],
      "stateMutability": "nonpayable",
      "type": "function"
    }
  ],
  "bytecode": "608060405234801561001057600080fd5b506040516107f33803806107f383398101604081905261002f916100a0565b6001600160a01b03811661007b5760405162461bcd60e51b815260206004820152600f60248201526e496e76616c6964206164647265737360881b604482015260640160405180910390fd5b600280546001600160a01b0319166001600160a01b03929092169190911790556100d0565b6000602082840312156100b257600080fd5b81516001600160a01b03811681146100c957600080fd5b9392505050565b610714806100df6000396000f3fe608060405234801561001057600080fd5b50600436106100575760003560e01c80630542975c1461005c5780635137223c1461008c578063920f5c84146100a1578063ae7bb1c9146100ce578063b4dcfc77146100e1575b600080fd5b60005461006f906001600160a01b031681565b6040516001600160a01b0390911681526020015b60405180910390f35b61009f61009a3660046104a5565b6100f4565b005b6100be6100af36600461050e565b60009998505050505050505050565b6040519015158152602001610083565b60025461006f906001600160a01b031681565b60015461006f906001600160a01b031681565b600254604080516361d027b360e01b815290516101dc926001600160a01b0316916361d027b39160048083019260209291908290030181865afa15801561013f573d6000803e3d6000fd5b505050506040513d601f19601f820116820180604052508101906101639190610613565b6040516370a0823160e01b81523060048201526001600160a01b038416906370a0823190602401602060405180830381865afa1580156101a7573d6000803e3d6000fd5b505050506040513d601f19601f820116820180604052508101906101cb9190610630565b6001600160a01b03841691906101df565b50565b604080516001600160a01b038416602482015260448082018490528251808303909101815260649091019091526020810180516001600160e01b031663a9059cbb60e01b179052610231908490610236565b505050565b600061028b826040518060400160405280602081526020017f5361666545524332303a206c6f772d6c6576656c2063616c6c206661696c6564815250856001600160a01b031661030d9092919063ffffffff16565b80519091501561023157808060200190518101906102a99190610649565b6102315760405162461bcd60e51b815260206004820152602a60248201527f5361666545524332303a204552433230206f7065726174696f6e20646964206e6044820152691bdd081cdd58d8d9595960b21b60648201526084015b60405180910390fd5b606061031c8484600085610326565b90505b9392505050565b6060824710156103875760405162461bcd60e51b815260206004820152602660248201527f416464726573733a20696e73756666696369656e742062616c616e636520666f6044820152651c8818d85b1b60d21b6064820152608401610304565b6001600160a01b0385163b6103de5760405162461bcd60e51b815260206004820152601d60248201527f416464726573733a2063616c6c20746f206e6f6e2d636f6e74726163740000006044820152606401610304565b600080866001600160a01b031685876040516103fa919061068f565b60006040518083038185875af1925050503d8060008114610437576040519150601f19603f3d011682016040523d82523d6000602084013e61043c565b606091505b509150915061044c828286610457565b979650505050505050565b6060831561046657508161031f565b8251156104765782518084602001fd5b8160405162461bcd60e51b815260040161030491906106ab565b6001600160a01b03811681146101dc57600080fd5b6000602082840312156104b757600080fd5b813561031f81610490565b60008083601f8401126104d457600080fd5b50813567ffffffffffffffff8111156104ec57600080fd5b6020830191508360208260051b850101111561050757600080fd5b9250929050565b600080600080600080600080600060a08a8c03121561052c57600080fd5b893567ffffffffffffffff8082111561054457600080fd5b6105508d838e016104c2565b909b50995060208c013591508082111561056957600080fd5b6105758d838e016104c2565b909950975060408c013591508082111561058e57600080fd5b61059a8d838e016104c2565b909750955060608c013591506105af82610490565b90935060808b013590808211156105c557600080fd5b818c0191508c601f8301126105d957600080fd5b8135818111156105e857600080fd5b8d60208285010111156105fa57600080fd5b6020830194508093505050509295985092959850929598565b60006020828403121561062557600080fd5b815161031f81610490565b60006020828403121561064257600080fd5b5051919050565b60006020828403121561065b57600080fd5b8151801515811461031f57600080fd5b60005b8381101561068657818101518382015260200161066e565b50506000910152565b600082516106a181846020870161066b565b9190910192915050565b60208152600082518060208401526106ca81604085016020870161066b565b601f01601f1916919091016040019291505056fea26469706673582212203b884d4b0df24316f8b3afaaca1ec1215240288a1873ad72cd11f4c269231b6164736f6c63430008130033",
  "bytecodeSha1": "ebb3920469ff13b1a024105a862fc1666ab80c7a",
  "compiler": {
    "evm_version": "istanbul",
    "optimizer": {
      "enabled": true,
      "runs": 200
    },
    "version": "0.8.19+commit.7dd6d404"
  },
  "contractName": "PositionManager",
  "language": "Solidity",
  "natspec": {
    "kind": "dev",
    "methods": {
      "constructor": {
        "params": {
          "roerouter": "Address of Roe whitelist router"
        }
      },
      "executeOperation(address[],uint256[],uint256[],address,bytes)": {
        "notice": "Aave-compatible flashloan receiver",
        "params": {
          "amounts": "The amount of the flash-borrowed asset",
          "assets": "The address of the flash-borrowed asset",
          "initiator": "The address of the flashloan initiator",
          "params": "The byte-encoded params passed when initiating the flashloan",
          "premiums": "The fee of the flash-borrowed asset"
        },
        "returns": {
          "result": "True if the execution of the operation succeeds, false otherwise"
        }
      },
      "removeDust(address)": {
        "notice": "Send dust to treasury",
        "params": {
          "asset": "The token to transfer"
        }
      }
    },
    "version": 1
  },
  "opcodes": "PUSH1 0x80 PUSH1 0x40 MSTORE CALLVALUE DUP1 ISZERO PUSH2 0x10 JUMPI PUSH1 0x0 DUP1 REVERT JUMPDEST POP PUSH1 0x4 CALLDATASIZE LT PUSH2 0x57 JUMPI PUSH1 0x0 CALLDATALOAD PUSH1 0xE0 SHR DUP1 PUSH4 0x542975C EQ PUSH2 0x5C JUMPI DUP1 PUSH4 0x5137223C EQ PUSH2 0x8C JUMPI DUP1 PUSH4 0x920F5C84 EQ PUSH2 0xA1 JUMPI DUP1 PUSH4 0xAE7BB1C9 EQ PUSH2 0xCE JUMPI DUP1 PUSH4 0xB4DCFC77 EQ PUSH2 0xE1 JUMPI JUMPDEST PUSH1 0x0 DUP1 REVERT JUMPDEST PUSH1 0x0 SLOAD PUSH2 0x6F SWAP1 PUSH1 0x1 PUSH1 0x1 PUSH1 0xA0 SHL SUB AND DUP2 JUMP JUMPDEST PUSH1 0x40 MLOAD PUSH1 0x1 PUSH1 0x1 PUSH1 0xA0 SHL SUB SWAP1 SWAP2 AND DUP2 MSTORE PUSH1 0x20 ADD JUMPDEST PUSH1 0x40 MLOAD DUP1 SWAP2 SUB SWAP1 RETURN JUMPDEST PUSH2 0x9F PUSH2 0x9A CALLDATASIZE PUSH1 0x4 PUSH2 0x4A5 JUMP JUMPDEST PUSH2 0xF4 JUMP JUMPDEST STOP JUMPDEST PUSH2 0xBE PUSH2 0xAF CALLDATASIZE PUSH1 0x4 PUSH2 0x50E JUMP JUMPDEST PUSH1 0x0 SWAP10 SWAP9 POP POP POP POP POP POP POP POP POP JUMP JUMPDEST PUSH1 0x40 MLOAD SWAP1 ISZERO ISZERO DUP2 MSTORE PUSH1 0x20 ADD PUSH2 0x83 JUMP JUMPDEST PUSH1 0x2 SLOAD PUSH2 0x6F SWAP1 PUSH1 0x1 PUSH1 0x1 PUSH1 0xA0 SHL SUB AND DUP2 JUMP JUMPDEST PUSH1 0x1 SLOAD PUSH2 0x6F SWAP1 PUSH1 0x1 PUSH1 0x1 PUSH1 0xA0 SHL SUB AND DUP2 JUMP JUMPDEST PUSH1 0x2 SLOAD PUSH1 0x40 DUP1 MLOAD PUSH4 0x61D027B3 PUSH1 0xE0 SHL DUP2 MSTORE SWAP1 MLOAD PUSH2 0x1DC SWAP3 PUSH1 0x1 PUSH1 0x1 PUSH1 0xA0 SHL SUB AND SWAP2 PUSH4 0x61D027B3 SWAP2 PUSH1 0x4 DUP1 DUP4 ADD SWAP3 PUSH1 0x20 SWAP3 SWAP2 SWAP1 DUP3 SWAP1 SUB ADD DUP2 DUP7 GAS STATICCALL ISZERO DUP1 ISZERO PUSH2 0x13F JUMPI RETURNDATASIZE PUSH1 0x0 DUP1 RETURNDATACOPY RETURNDATASIZE PUSH1 0x0 REVERT JUMPDEST POP POP POP POP PUSH1 0x40 MLOAD RETURNDATASIZE PUSH1 0x1F NOT PUSH1 0x1F DUP3 ADD AND DUP3 ADD DUP1 PUSH1 0x40 MSTORE POP DUP2 ADD SWAP1 PUSH2 0x163 SWAP2 SWAP1 PUSH2 0x613 JUMP JUMPDEST PUSH1 0x40 MLOAD PUSH4 0x70A08231 PUSH1 0xE0 SHL DUP2 MSTORE ADDRESS PUSH1 0x4 DUP3 ADD MSTORE PUSH1 0x1 PUSH1 0x1 PUSH1 0xA0 SHL SUB DUP5 AND SWAP1 PUSH4 0x70A08231 SWAP1 PUSH1 0x24 ADD PUSH1 0x20 PUSH1 0x40 MLOAD DUP1 DUP4 SUB DUP2 DUP7 GAS STATICCALL ISZERO DUP1 ISZERO PUSH2 0x1A7 JUMPI RETURNDATASIZE PUSH1 0x0 DUP1 RETURNDATACOPY RETURNDATASIZE PUSH1 0x0 REVERT JUMPDEST POP POP POP POP PUSH1 0x40 MLOAD RETURNDATASIZE PUSH1 0x1F NOT PUSH1 0x1F DUP3 ADD AND DUP3 ADD DUP1 PUSH1 0x40 MSTORE POP DUP2 ADD SWAP1 PUSH2 0x1CB SWAP2 SWAP1 PUSH2 0x630 JUMP JUMPDEST PUSH1 0x1 PUSH1 0x1 PUSH1 0xA0 SHL SUB DUP5 AND SWAP2 SWAP1 PUSH2 0x1DF JUMP JUMPDEST POP JUMP JUMPDEST PUSH1 0x40 DUP1 MLOAD PUSH1 0x1 PUSH1 0x1 PUSH1 0xA0 SHL SUB DUP5 AND PUSH1 0x24 DUP3 ADD MSTORE PUSH1 0x44 DUP1 DUP3 ADD DUP5 SWAP1 MSTORE DUP3 MLOAD DUP1 DUP4 SUB SWAP1 SWAP2 ADD DUP2 MSTORE PUSH1 0x64 SWAP1 SWAP2 ADD SWAP1 SWAP2 MSTORE PUSH1 0x20 DUP2 ADD DUP1 MLOAD PUSH1 0x1 PUSH1 0x1 PUSH1 0xE0 SHL SUB AND PUSH4 0xA9059CBB PUSH1 0xE0 SHL OR SWAP1 MSTORE PUSH2 0x231 SWAP1 DUP5 SWAP1 PUSH2 0x236 JUMP JUMPDEST POP POP POP JUMP JUMPDEST PUSH1 0x0 PUSH2 0x28B DUP3 PUSH1 0x40 MLOAD DUP1 PUSH1 0x40 ADD PUSH1 0x40 MSTORE DUP1 PUSH1 0x20 DUP2 MSTORE PUSH1 0x20 ADD PUSH32 0x5361666545524332303A206C6F772D6C6576656C2063616C6C206661696C6564 DUP2 MSTORE POP DUP6 PUSH1 0x1 PUSH1 0x1 PUSH1 0xA0 SHL SUB AND PUSH2 0x30D SWAP1 SWAP3 SWAP2 SWAP1 PUSH4 0xFFFFFFFF AND JUMP JUMPDEST DUP1 MLOAD SWAP1 SWAP2 POP ISZERO PUSH2 0x231 JUMPI DUP1 DUP1 PUSH1 0x20 ADD SWAP1 MLOAD DUP2 ADD SWAP1 PUSH2 0x2A9 SWAP2 SWAP1 PUSH2 0x649 JUMP JUMPDEST PUSH2 0x231 JUMPI PUSH1 0x40 MLOAD PUSH3 0x461BCD PUSH1 0xE5 SHL DUP2 MSTORE PUSH1 0x20 PUSH1 0x4 DUP3 ADD MSTORE PUSH1 0x2A PUSH1 0x24 DUP3 ADD MSTORE PUSH32 0x5361666545524332303A204552433230206F7065726174696F6E20646964206E PUSH1 0x44 DUP3 ADD MSTORE PUSH10 0x1BDD081CDD58D8D95959 PUSH1 0xB2 SHL PUSH1 0x64 DUP3 ADD MSTORE PUSH1 0x84 ADD JUMPDEST PUSH1 0x40 MLOAD DUP1 SWAP2 SUB SWAP1 REVERT JUMPDEST PUSH1 0x60 PUSH2 0x31C DUP5 DUP5 PUSH1 0x0 DUP6 PUSH2 0x326 JUMP JUMPDEST SWAP1 POP JUMPDEST SWAP4 SWAP3 POP POP POP JUMP JUMPDEST PUSH1 0x60 DUP3 SELFBALANCE LT ISZERO PUSH2 0x387 JUMPI PUSH1 0x40 MLOAD PUSH3 0x461BCD PUSH1 0xE5 SHL DUP2 MSTORE PUSH1 0x20 PUSH1 0x4 DUP3 ADD MSTORE PUSH1 0x26 PUSH1 0x24 DUP3 ADD MSTORE PUSH32 0x416464726573733A20696E73756666696369656E742062616C616E636520666F PUSH1 0x44 DUP3 ADD MSTORE PUSH6 0x1C8818D85B1B PUSH1 0xD2 SHL PUSH1 0x64 DUP3 ADD MSTORE PUSH1 0x84 ADD PUSH2 0x304 JUMP JUMPDEST PUSH1 0x1 PUSH1 0x1 PUSH1 0xA0 SHL SUB DUP6 AND EXTCODESIZE PUSH2 0x3DE JUMPI PUSH1 0x40 MLOAD PUSH3 0x461BCD PUSH1 0xE5 SHL DUP2 MSTORE PUSH1 0x20 PUSH1 0x4 DUP3 ADD MSTORE PUSH1 0x1D PUSH1 0x24 DUP3 ADD MSTORE PUSH32 0x416464726573733A2063616C6C20746F206E6F6E2D636F6E7472616374000000 PUSH1 0x44 DUP3 ADD MSTORE PUSH1 0x64 ADD PUSH2 0x304 JUMP JUMPDEST PUSH1 0x0 DUP1 DUP7 PUSH1 0x1 PUSH1 0x1 PUSH1 0xA0 SHL SUB AND DUP6 DUP8 PUSH1 0x40 MLOAD PUSH2 0x3FA SWAP2 SWAP1 PUSH2 0x68F JUMP JUMPDEST PUSH1 0x0 PUSH1 0x40 MLOAD DUP1 DUP4 SUB DUP2 DUP6 DUP8 GAS CALL SWAP3 POP POP POP RETURNDATASIZE DUP1 PUSH1 0x0 DUP2 EQ PUSH2 0x437 JUMPI PUSH1 0x40 MLOAD SWAP2 POP PUSH1 0x1F NOT PUSH1 0x3F RETURNDATASIZE ADD AND DUP3 ADD PUSH1 0x40 MSTORE RETURNDATASIZE DUP3 MSTORE RETURNDATASIZE PUSH1 0x0 PUSH1 0x20 DUP5 ADD RETURNDATACOPY PUSH2 0x43C JUMP JUMPDEST PUSH1 0x60 SWAP2 POP JUMPDEST POP SWAP2 POP SWAP2 POP PUSH2 0x44C DUP3 DUP3 DUP7 PUSH2 0x457 JUMP JUMPDEST SWAP8 SWAP7 POP POP POP POP POP POP POP JUMP JUMPDEST PUSH1 0x60 DUP4 ISZERO PUSH2 0x466 JUMPI POP DUP2 PUSH2 0x31F JUMP JUMPDEST DUP3 MLOAD ISZERO PUSH2 0x476 JUMPI DUP3 MLOAD DUP1 DUP5 PUSH1 0x20 ADD REVERT JUMPDEST DUP2 PUSH1 0x40 MLOAD PUSH3 0x461BCD PUSH1 0xE5 SHL DUP2 MSTORE PUSH1 0x4 ADD PUSH2 0x304 SWAP2 SWAP1 PUSH2 0x6AB JUMP JUMPDEST PUSH1 0x1 PUSH1 0x1 PUSH1 0xA0 SHL SUB DUP2 AND DUP2 EQ PUSH2 0x1DC JUMPI PUSH1 0x0 DUP1 REVERT JUMPDEST PUSH1 0x0 PUSH1 0x20 DUP3 DUP5 SUB SLT ISZERO PUSH2 0x4B7 JUMPI PUSH1 0x0 DUP1 REVERT JUMPDEST DUP2 CALLDATALOAD PUSH2 0x31F DUP2 PUSH2 0x490 JUMP JUMPDEST PUSH1 0x0 DUP1 DUP4 PUSH1 0x1F DUP5 ADD SLT PUSH2 0x4D4 JUMPI PUSH1 0x0 DUP1 REVERT JUMPDEST POP DUP2 CALLDATALOAD PUSH8 0xFFFFFFFFFFFFFFFF DUP2 GT ISZERO PUSH2 0x4EC JUMPI PUSH1 0x0 DUP1 REVERT JUMPDEST PUSH1 0x20 DUP4 ADD SWAP2 POP DUP4 PUSH1 0x20 DUP3 PUSH1 0x5 SHL DUP6 ADD ADD GT ISZERO PUSH2 0x507 JUMPI PUSH1 0x0 DUP1 REVERT JUMPDEST SWAP3 POP SWAP3 SWAP1 POP JUMP JUMPDEST PUSH1 0x0 DUP1 PUSH1 0x0 DUP1 PUSH1 0x0 DUP1 PUSH1 0x0 DUP1 PUSH1 0x0 PUSH1 0xA0 DUP11 DUP13 SUB SLT ISZERO PUSH2 0x52C JUMPI PUSH1 0x0 DUP1 REVERT JUMPDEST DUP10 CALLDATALOAD PUSH8 0xFFFFFFFFFFFFFFFF DUP1 DUP3 GT ISZERO PUSH2 0x544 JUMPI PUSH1 0x0 DUP1 REVERT JUMPDEST PUSH2 0x550 DUP14 DUP4 DUP15 ADD PUSH2 0x4C2 JUMP JUMPDEST SWAP1 SWAP12 POP SWAP10 POP PUSH1 0x20 DUP13 ADD CALLDATALOAD SWAP2 POP DUP1 DUP3 GT ISZERO PUSH2 0x569 JUMPI PUSH1 0x0 DUP1 REVERT JUMPDEST PUSH2 0x575 DUP14 DUP4 DUP15 ADD PUSH2 0x4C2 JUMP JUMPDEST SWAP1 SWAP10 POP SWAP8 POP PUSH1 0x40 DUP13 ADD CALLDATALOAD SWAP2 POP DUP1 DUP3 GT ISZERO PUSH2 0x58E JUMPI PUSH1 0x0 DUP1 REVERT JUMPDEST PUSH2 0x59A DUP14 DUP4 DUP15 ADD PUSH2 0x4C2 JUMP JUMPDEST SWAP1 SWAP8 POP SWAP6 POP PUSH1 0x60 DUP13 ADD CALLDATALOAD SWAP2 POP PUSH2 0x5AF DUP3 PUSH2 0x490 JUMP JUMPDEST SWAP1 SWAP4 POP PUSH1 0x80 DUP12 ADD CALLDATALOAD SWAP1 DUP1 DUP3 GT ISZERO PUSH2 0x5C5 JUMPI PUSH1 0x0 DUP1 REVERT JUMPDEST DUP2 DUP13 ADD SWAP2 POP DUP13 PUSH1 0x1F DUP4 ADD SLT PUSH2 0x5D9 JUMPI PUSH1 0x0 DUP1 REVERT JUMPDEST DUP2 CALLDATALOAD DUP2 DUP2 GT ISZERO PUSH2 0x5E8 JUMPI PUSH1 0x0 DUP1 REVERT JUMPDEST DUP14 PUSH1 0x20 DUP3 DUP6 ADD ADD GT ISZERO PUSH2 0x5FA JUMPI PUSH1 0x0 DUP1 REVERT JUMPDEST PUSH1 0x20 DUP4 ADD SWAP5 POP DUP1 SWAP4 POP POP POP POP SWAP3 SWAP6 SWAP9 POP SWAP3 SWAP6 SWAP9 POP SWAP3 SWAP6 SWAP9 JUMP JUMPDEST PUSH1 0x0 PUSH1 0x20 DUP3 DUP5 SUB SLT ISZERO PUSH2 0x625 JUMPI PUSH1 0x0 DUP1 REVERT JUMPDEST DUP2 MLOAD PUSH2 0x31F DUP2 PUSH2 0x490 JUMP JUMPDEST PUSH1 0x0 PUSH1 0x20 DUP3 DUP5 SUB SLT ISZERO PUSH2 0x642 JUMPI PUSH1 0x0 DUP1 REVERT JUMPDEST POP MLOAD SWAP2 SWAP1 POP JUMP JUMPDEST PUSH1 0x0 PUSH1 0x20 DUP3 DUP5 SUB SLT ISZERO PUSH2 0x65B JUMPI PUSH1 0x0 DUP1 REVERT JUMPDEST DUP2 MLOAD DUP1 ISZERO ISZERO DUP2 EQ PUSH2 0x31F JUMPI PUSH1 0x0 DUP1 REVERT JUMPDEST PUSH1 0x0 JUMPDEST DUP4 DUP2 LT ISZERO PUSH2 0x686 JUMPI DUP2 DUP2 ADD MLOAD DUP4 DUP3 ADD MSTORE PUSH1 0x20 ADD PUSH2 0x66E JUMP JUMPDEST POP POP PUSH1 0x0 SWAP2 ADD MSTORE JUMP JUMPDEST PUSH1 0x0 DUP3 MLOAD PUSH2 0x6A1 DUP2 DUP5 PUSH1 0x20 DUP8 ADD PUSH2 0x66B JUMP JUMPDEST SWAP2 SWAP1 SWAP2 ADD SWAP3 SWAP2 POP POP JUMP JUMPDEST PUSH1 0x20 DUP2 MSTORE PUSH1 0x0 DUP3 MLOAD DUP1 PUSH1 0x20 DUP5 ADD MSTORE PUSH2 0x6CA DUP2 PUSH1 0x40 DUP6 ADD PUSH1 0x20 DUP8 ADD PUSH2 0x66B JUMP JUMPDEST PUSH1 0x1F ADD PUSH1 0x1F NOT AND SWAP2 SWAP1 SWAP2 ADD PUSH1 0x40 ADD SWAP3 SWAP2 POP POP JUMP INVALID LOG2 PUSH5 0x6970667358 0x22 SLT KECCAK256 EXTCODESIZE DUP9 0x4D 0x4B 0xD CALLCODE NUMBER AND 0xF8 0xB3 0xAF 0xAA 0xCA 0x1E 0xC1 0x21 MSTORE BLOCKHASH 0x28 DUP11 XOR PUSH20 0xAD72CD11F4C269231B6164736F6C634300081300 CALLER ",
  "sha1": "dd2983d7c7a1a9e0da700cd31dc20ea662e4ec32",
  "source": "// SPDX-License-Identifier: none\npragma solidity 0.8.19;\nimport \"../openzeppelin-solidity/contracts/token/ERC20/ERC20.sol\";\nimport \"../openzeppelin-solidity/contracts/token/ERC20/utils/SafeERC20.sol\";\n\nimport {IFlashLoanReceiver} from \"../../interfaces/IFlashLoanReceiver.sol\";\nimport {ILendingPoolAddressesProvider} from \"../../interfaces/ILendingPoolAddressesProvider.sol\";\nimport {ILendingPool} from \"../../interfaces/IAaveLendingPoolV2.sol\";\nimport {IPriceOracle} from \"../../interfaces/IPriceOracle.sol\";\nimport \"../../interfaces/IUniswapV2Router01.sol\";\nimport \"../../interfaces/IUniswapV2Pair.sol\";\nimport \"../../interfaces/IUniswapV2Factory.sol\";\n\nimport \"../RoeRouter.sol\";\n\n\ncontract PositionManager is IFlashLoanReceiver {\n  using SafeERC20 for ERC20;\n\n  ////////////////////// VARS\n  ILendingPoolAddressesProvider public ADDRESSES_PROVIDER; // IFlashLoanReceiver  requirement\n  ILendingPool public LENDING_POOL; // IFlashLoanReceiver  requirement\n  RoeRouter public ROEROUTER; \n  \n  \n  ////////////////////// GENERAL   \n\n  /// @param roerouter Address of Roe whitelist router\n  constructor(address roerouter) {\n    require(roerouter != address(0x0), \"Invalid address\");\n    ROEROUTER = RoeRouter(roerouter);\n  }\n\n\n  ////////////////////// DISPATCHER\n  \n  /**\n   * @notice Aave-compatible flashloan receiver\n   * @param assets The address of the flash-borrowed asset\n   * @param amounts The amount of the flash-borrowed asset\n   * @param premiums The fee of the flash-borrowed asset\n   * @param initiator The address of the flashloan initiator\n   * @param params The byte-encoded params passed when initiating the flashloan\n   * @return result True if the execution of the operation succeeds, false otherwise\n   */\n  function executeOperation(\n    address[] calldata assets,\n    uint256[] calldata amounts,\n    uint256[] calldata premiums,\n    address initiator,\n    bytes calldata params\n  ) virtual external returns (bool result) {\n  }\n  \n  \n  /// @notice Get lp, oracle, router and underlying tokens from RoeRouter\n  /// @param poolId Id of the ROE pool\n  /// @return lp ROE Lending pool address\n  /// @return oracle Lending pool oracle\n  /// @return router Lending pool LP asset router\n  /// @return token0 First underlying token in lexicographic order\n  /// @return token1 Second underlying token\n  function getPoolAddresses(uint poolId) \n    internal view \n    returns( ILendingPool lp, IPriceOracle oracle, IUniswapV2Router01 router, address token0, address token1) \n  {\n    (address lpap, address _token0, address _token1, address r, ) = ROEROUTER.pools(poolId);\n    token0 = _token0;\n    token1 = _token1;\n    lp = ILendingPool(ILendingPoolAddressesProvider(lpap).getLendingPool());\n    oracle = IPriceOracle(ILendingPoolAddressesProvider(lpap).getPriceOracle());\n    router = IUniswapV2Router01(r);\n  }\n  \n  \n  /// @notice Check and set allowance\n  /// @param token Token address\n  /// @param spender Spender address\n  /// @param amount Minimum allowance needed\n  function checkSetAllowance(address token, address spender, uint amount) internal {\n    if ( ERC20(token).allowance(address(this), spender) < amount ) ERC20(token).safeIncreaseAllowance(spender, type(uint256).max);\n  }\n  \n  \n  /// @notice Deposit remaining users assets back to ROE, repaying debt if any\n  /// @param LP The ROE lending pool\n  /// @param user The owner of the tokens\n  /// @param asset The first asset to deposit\n  function cleanup(ILendingPool LP, address user, address asset) internal {\n    uint amt = ERC20(asset).balanceOf(address(this));\n    if (amt > 0) {\n      checkSetAllowance(asset, address(LP), amt);\n      \n      // if there is a debt, try to repay the debt \n      uint debt = ERC20(LP.getReserveData(asset).variableDebtTokenAddress).balanceOf(user);\n      if ( debt > 0 ){\n        if (amt <= debt ) {\n          LP.repay( asset, amt, 2, user);\n          return;\n        }\n        else {\n          LP.repay( asset, debt, 2, user);\n          amt = amt - debt;\n        }\n      }\n      // deposit remaining tokens\n      LP.deposit( asset, amt, user, 0 );\n    }\n  }\n\n\n  /// @notice Send dust to treasury\n  /// @param asset The token to transfer\n  function removeDust(address asset) external {\n    ERC20(asset).safeTransfer(ROEROUTER.treasury(), ERC20(asset).balanceOf(address(this))); \n  }\n\n\n  /// @notice Transfer amount of aAssets here and withdraw without checks\n  /// @param LP The ROE lending pool\n  /// @param user The owner of the tokens withdrawn\n  /// @param asset The asset withdrawn\n  /// @param amount The amount withdrawn\n  function PMWithdraw(ILendingPool LP, address user, address asset, uint amount) internal {\n    if ( amount > 0 ){\n      LP.PMTransfer(LP.getReserveData(asset).aTokenAddress, user, amount);\n      LP.withdraw(asset, amount, address(this));\n    }\n  }  \n  \n  \n  /// @notice Check LP underlying assets value against oracle values: allow a 1% error\n  /// @param oracle The Lending pool oracle for the LP token\n  /// @param assetA The first token address\n  /// @param amountA The first token amount\n  /// @param assetB The second token address\n  /// @param amountB The second token amount\n  function validateValuesAgainstOracle(IPriceOracle oracle, address assetA, uint amountA, address assetB, uint amountB) internal view {\n    uint decimalsA = ERC20(assetA).decimals();\n    uint decimalsB = ERC20(assetB).decimals();\n    uint valueA = amountA * oracle.getAssetPrice(assetA);\n    uint valueB = amountB * oracle.getAssetPrice(assetB);\n    if (decimalsA > decimalsB) valueA = valueA / 10 ** (decimalsA - decimalsB);\n    else if (decimalsA < decimalsB) valueB = valueB / 10 ** (decimalsB - decimalsA);\n    require( valueA <= valueB * 101 / 100, \"PM: LP Oracle Error\");\n    require( valueB <= valueA * 101 / 100, \"PM: LP Oracle Error\");\n  }\n}\n",
  "sourcePath": "contracts/PositionManager/PositionManager.sol",
  "type": "contract"
}