{
  "abi": [
    {
      "inputs": [
        {
          "internalType": "contract ILendingPool",
          "name": "lendingPool",
          "type": "address"
        },
        {
          "internalType": "contract ERC20",
          "name": "_asset0",
          "type": "address"
        },
        {
          "internalType": "contract ERC20",
          "name": "_asset1",
          "type": "address"
        }
      ],
      "stateMutability": "nonpayable",
      "type": "constructor"
    },
    {
      "anonymous": false,
      "inputs": [
        {
          "indexed": false,
          "internalType": "uint128",
          "name": "startX10",
          "type": "uint128"
        },
        {
          "indexed": false,
          "internalType": "uint128",
          "name": "endX10",
          "type": "uint128"
        },
        {
          "indexed": false,
          "internalType": "uint256",
          "name": "step",
          "type": "uint256"
        }
      ],
      "name": "AddRange",
      "type": "event"
    },
    {
      "anonymous": false,
      "inputs": [
        {
          "indexed": false,
          "internalType": "address",
          "name": "user",
          "type": "address"
        },
        {
          "indexed": false,
          "internalType": "address",
          "name": "asset",
          "type": "address"
        },
        {
          "indexed": false,
          "internalType": "uint256",
          "name": "amount",
          "type": "uint256"
        }
      ],
      "name": "Deposit",
      "type": "event"
    },
    {
      "anonymous": false,
      "inputs": [
        {
          "indexed": true,
          "internalType": "address",
          "name": "previousOwner",
          "type": "address"
        },
        {
          "indexed": true,
          "internalType": "address",
          "name": "newOwner",
          "type": "address"
        }
      ],
      "name": "OwnershipTransferred",
      "type": "event"
    },
    {
      "anonymous": false,
      "inputs": [
        {
          "indexed": false,
          "internalType": "address",
          "name": "user",
          "type": "address"
        },
        {
          "indexed": false,
          "internalType": "address",
          "name": "asset",
          "type": "address"
        },
        {
          "indexed": false,
          "internalType": "uint256",
          "name": "amount",
          "type": "uint256"
        }
      ],
      "name": "Withdraw",
      "type": "event"
    },
    {
      "inputs": [],
      "name": "ASSET_0",
      "outputs": [
        {
          "internalType": "contract ERC20",
          "name": "",
          "type": "address"
        }
      ],
      "stateMutability": "view",
      "type": "function"
    },
    {
      "inputs": [],
      "name": "ASSET_1",
      "outputs": [
        {
          "internalType": "contract ERC20",
          "name": "",
          "type": "address"
        }
      ],
      "stateMutability": "view",
      "type": "function"
    },
    {
      "inputs": [],
      "name": "LENDING_POOL",
      "outputs": [
        {
          "internalType": "contract ILendingPool",
          "name": "",
          "type": "address"
        }
      ],
      "stateMutability": "view",
      "type": "function"
    },
    {
      "inputs": [],
      "name": "POS_MGR",
      "outputs": [
        {
          "internalType": "contract INonfungiblePositionManager",
          "name": "",
          "type": "address"
        }
      ],
      "stateMutability": "view",
      "type": "function"
    },
    {
      "inputs": [
        {
          "internalType": "uint128",
          "name": "startX10",
          "type": "uint128"
        },
        {
          "internalType": "uint128",
          "name": "endX10",
          "type": "uint128"
        },
        {
          "internalType": "string",
          "name": "startName",
          "type": "string"
        },
        {
          "internalType": "string",
          "name": "endName",
          "type": "string"
        },
        {
          "internalType": "address",
          "name": "beacon",
          "type": "address"
        }
      ],
      "name": "generateRange",
      "outputs": [],
      "stateMutability": "nonpayable",
      "type": "function"
    },
    {
      "inputs": [],
      "name": "getStepListLength",
      "outputs": [
        {
          "internalType": "uint256",
          "name": "listLength",
          "type": "uint256"
        }
      ],
      "stateMutability": "view",
      "type": "function"
    },
    {
      "inputs": [
        {
          "internalType": "address",
          "name": "tr",
          "type": "address"
        },
        {
          "internalType": "uint256",
          "name": "amount0",
          "type": "uint256"
        },
        {
          "internalType": "uint256",
          "name": "amount1",
          "type": "uint256"
        }
      ],
      "name": "initRange",
      "outputs": [],
      "stateMutability": "nonpayable",
      "type": "function"
    },
    {
      "inputs": [],
      "name": "owner",
      "outputs": [
        {
          "internalType": "address",
          "name": "",
          "type": "address"
        }
      ],
      "stateMutability": "view",
      "type": "function"
    },
    {
      "inputs": [
        {
          "internalType": "uint256",
          "name": "step",
          "type": "uint256"
        }
      ],
      "name": "removeAssetsFromStep",
      "outputs": [],
      "stateMutability": "nonpayable",
      "type": "function"
    },
    {
      "inputs": [],
      "name": "renounceOwnership",
      "outputs": [],
      "stateMutability": "nonpayable",
      "type": "function"
    },
    {
      "inputs": [
        {
          "internalType": "uint256",
          "name": "",
          "type": "uint256"
        }
      ],
      "name": "stepList",
      "outputs": [
        {
          "internalType": "uint128",
          "name": "start",
          "type": "uint128"
        },
        {
          "internalType": "uint128",
          "name": "end",
          "type": "uint128"
        }
      ],
      "stateMutability": "view",
      "type": "function"
    },
    {
      "inputs": [
        {
          "internalType": "uint256",
          "name": "",
          "type": "uint256"
        }
      ],
      "name": "tokenisedRanges",
      "outputs": [
        {
          "internalType": "contract TokenisableRange",
          "name": "",
          "type": "address"
        }
      ],
      "stateMutability": "view",
      "type": "function"
    },
    {
      "inputs": [
        {
          "internalType": "uint256",
          "name": "",
          "type": "uint256"
        }
      ],
      "name": "tokenisedTicker",
      "outputs": [
        {
          "internalType": "contract TokenisableRange",
          "name": "",
          "type": "address"
        }
      ],
      "stateMutability": "view",
      "type": "function"
    },
    {
      "inputs": [
        {
          "internalType": "uint256",
          "name": "step",
          "type": "uint256"
        },
        {
          "internalType": "uint256",
          "name": "amount0",
          "type": "uint256"
        },
        {
          "internalType": "uint256",
          "name": "amount1",
          "type": "uint256"
        }
      ],
      "name": "transferAssetsIntoRangerStep",
      "outputs": [],
      "stateMutability": "nonpayable",
      "type": "function"
    },
    {
      "inputs": [
        {
          "internalType": "uint256",
          "name": "step",
          "type": "uint256"
        },
        {
          "internalType": "uint256",
          "name": "amount0",
          "type": "uint256"
        },
        {
          "internalType": "uint256",
          "name": "amount1",
          "type": "uint256"
        }
      ],
      "name": "transferAssetsIntoTickerStep",
      "outputs": [],
      "stateMutability": "nonpayable",
      "type": "function"
    },
    {
      "inputs": [
        {
          "internalType": "address",
          "name": "newOwner",
          "type": "address"
        }
      ],
      "name": "transferOwnership",
      "outputs": [],
      "stateMutability": "nonpayable",
      "type": "function"
    }
  ],
  "bytecode": "60806040523480156200001157600080fd5b50604051620030a5380380620030a583398101604081905262000034916200018c565b6001600055620000443362000121565b6001600160a01b038316620000915760405162461bcd60e51b815260206004820152600f60248201526e496e76616c6964206164647265737360881b604482015260640160405180910390fd5b600280546001600160a01b0319166001600160a01b038581169190911790915581811690831610620000c45780620000c6565b815b600380546001600160a01b0319166001600160a01b0392831617905581811690831610620000f55781620000f7565b805b600480546001600160a01b0319166001600160a01b039290921691909117905550620001e0915050565b600180546001600160a01b038381166001600160a01b0319831681179093556040519116919082907f8be0079c531659141344cd1fd0a4f28419497f9722a3daafe3b4186f6b6457e090600090a35050565b6001600160a01b03811681146200018957600080fd5b50565b600080600060608486031215620001a257600080fd5b8351620001af8162000173565b6020850151909350620001c28162000173565b6040850151909250620001d58162000173565b809150509250925092565b612eb580620001f06000396000f3fe60806040523480156200001157600080fd5b5060043610620001145760003560e01c80638da5cb5b11620000a3578063bd865cba116200006e578063bd865cba1462000250578063c9c46225146200026c578063e58346b81462000280578063f2fde38b146200029757600080fd5b80638da5cb5b14620001e05780639092fe7514620001f2578063ab65051f1462000204578063b4dcfc77146200023c57600080fd5b8063576b605211620000e4578063576b6052146200019157806358cb5e9d14620001a8578063653e9b8914620001bf578063715018a614620001d657600080fd5b80627562ab14620001195780632b9c4841146200013257806343204ff3146200016657806348b0c087146200017d575b600080fd5b620001306200012a36600462002022565b620002ae565b005b62000149620001433660046200204f565b62000326565b6040516001600160a01b0390911681526020015b60405180910390f35b62000130620001773660046200216d565b62000351565b60045462000149906001600160a01b031681565b62000130620001a236600462002218565b62000806565b62000149620001b93660046200204f565b62000985565b62000130620001d03660046200204f565b62000996565b62000130620009dd565b6001546001600160a01b031662000149565b6005546040519081526020016200015d565b6200021b620002153660046200204f565b62000a18565b604080516001600160801b039384168152929091166020830152016200015d565b60025462000149906001600160a01b031681565b6200014973c36442b4a4522e871399cd717abdd847ab11fe8881565b60035462000149906001600160a01b031681565b620001306200029136600462002022565b62000a4e565b62000130620002a836600462002250565b62000a95565b600260005403620002dc5760405162461bcd60e51b8152600401620002d39062002270565b60405180910390fd5b60026000819055506200031c60068481548110620002fe57620002fe620022a7565b6000918252602090912001546001600160a01b031684848462000b37565b5050600160005550565b600781815481106200033757600080fd5b6000918252602090912001546001600160a01b0316905081565b6001546001600160a01b031633146200037e5760405162461bcd60e51b8152600401620002d390620022bd565b6001600160a01b038116620003c75760405162461bcd60e51b815260206004820152600e60248201526d24b73b30b634b2103132b0b1b7b760911b6044820152606401620002d3565b620003d3858562000fe5565b6040805180820182526001600160801b03808816825286811660208301908152600580546001810182556000918252935191518316600160801b0291909216177f036b6384b5eca791c62761152d0c79bb0604c104a5fb6f4eb0703f3154bb3db090920191909155905182906200044a9062002014565b6001600160a01b039091168152604060208201819052600090820152606001604051809103906000f08015801562000486573d6000803e3d6000fd5b50600680546001810182556000919091527ff652222313e28459528d920b65115c16c04f3efc82aaedc97be59f3f377c0d3f0180546001600160a01b0319166001600160a01b0383161790556040519091508290620004e59062002014565b6001600160a01b039091168152604060208201819052600090820152606001604051809103906000f08015801562000521573d6000803e3d6000fd5b506007805460018101825560009182527fa66cc928b5edb82af9bd49922954155ab7b0942694bea4ce44661d9a8736c6880180546001600160a01b0319166001600160a01b038481169190911790915560025460408051637f32d67f60e11b81529051949550929391169163fe65acfe9160048083019260209291908290030181865afa158015620005b7573d6000803e3d6000fd5b505050506040513d601f19601f82011682018060405250810190620005dd9190620022f2565b6001600160a01b031663fca513a86040518163ffffffff1660e01b8152600401602060405180830381865afa1580156200061b573d6000803e3d6000fd5b505050506040513d601f19601f82011682018060405250810190620006419190620022f2565b600680549192509062000657906001906200233a565b815481106200066a576200066a620022a7565b60009182526020822001546003546004805460405163d351887760e01b81526001600160a01b039485169563d351887795620006ba95899590821694909116928f928f928f928f929101620023aa565b600060405180830381600087803b158015620006d557600080fd5b505af1158015620006ea573d6000803e3d6000fd5b5050600780549092506200070291506001906200233a565b81548110620007155762000715620022a7565b6000918252602090912001546003546004805460405163d351887760e01b81526001600160a01b039485169463d351887794620007699488949183169391909216918e918e918e918e9160019101620023aa565b600060405180830381600087803b1580156200078457600080fd5b505af115801562000799573d6000803e3d6000fd5b505050507ffc9fd5a154bb65cceb4f482bb1b19a821c98d99849a7173a72699ee86bc8553787876001600680549050620007d491906200233a565b604080516001600160801b0394851681529390921660208401529082015260600160405180910390a150505050505050565b6001546001600160a01b03163314620008335760405162461bcd60e51b8152600401620002d390620022bd565b6003546200084d906001600160a01b031633308562001113565b60035462000866906001600160a01b031684846200116f565b60045462000880906001600160a01b031633308462001113565b60045462000899906001600160a01b031684836200116f565b6040516314b087e160e31b815260048101839052602481018290526001600160a01b0384169063a5843f0890604401600060405180830381600087803b158015620008e357600080fd5b505af1158015620008f8573d6000803e3d6000fd5b50506040516370a0823160e01b81523060048201526200098092503391506001600160a01b038616906370a0823190602401602060405180830381865afa15801562000948573d6000803e3d6000fd5b505050506040513d601f19601f820116820180604052508101906200096e919062002426565b6001600160a01b038616919062001228565b505050565b600681815481106200033757600080fd5b600260005403620009bb5760405162461bcd60e51b8152600401620002d39062002270565b6002600055620009cb816200125a565b620009d562001a6d565b506001600055565b6001546001600160a01b0316331462000a0a5760405162461bcd60e51b8152600401620002d390620022bd565b62000a16600062001d55565b565b6005818154811062000a2957600080fd5b6000918252602090912001546001600160801b038082169250600160801b9091041682565b60026000540362000a735760405162461bcd60e51b8152600401620002d39062002270565b60026000819055506200031c60078481548110620002fe57620002fe620022a7565b6001546001600160a01b0316331462000ac25760405162461bcd60e51b8152600401620002d390620022bd565b6001600160a01b03811662000b295760405162461bcd60e51b815260206004820152602660248201527f4f776e61626c653a206e6577206f776e657220697320746865207a65726f206160448201526564647265737360d01b6064820152608401620002d3565b62000b348162001d55565b50565b62000b42836200125a565b811562000cba576002546003546040516335ea6a7560e01b81526001600160a01b0391821660048201529116906308ebbd269082906335ea6a759060240161018060405180830381865afa15801562000b9f573d6000803e3d6000fd5b505050506040513d601f19601f8201168201806040525081019062000bc59190620024bb565b60e0015133856040518463ffffffff1660e01b815260040162000beb93929190620025c3565b600060405180830381600087803b15801562000c0657600080fd5b505af115801562000c1b573d6000803e3d6000fd5b5050600254600354604051631a4ca37b60e21b81526001600160a01b0392831694506369328dec935062000c5a929091169086903090600401620025e7565b6020604051808303816000875af115801562000c7a573d6000803e3d6000fd5b505050506040513d601f19601f8201168201806040525081019062000ca0919062002426565b5060035462000cba906001600160a01b031685846200116f565b801562000e3557600254600480546040516335ea6a7560e01b81526001600160a01b0391821692810192909252909116906308ebbd269082906335ea6a759060240161018060405180830381865afa15801562000d1b573d6000803e3d6000fd5b505050506040513d601f19601f8201168201806040525081019062000d419190620024bb565b60e0015133846040518463ffffffff1660e01b815260040162000d6793929190620025c3565b600060405180830381600087803b15801562000d8257600080fd5b505af115801562000d97573d6000803e3d6000fd5b505060025460048054604051631a4ca37b60e21b81526001600160a01b0393841695506369328dec945062000dd593909116918691309101620025e7565b6020604051808303816000875af115801562000df5573d6000803e3d6000fd5b505050506040513d601f19601f8201168201806040525081019062000e1b919062002426565b5060045462000e35906001600160a01b031685836200116f565b604051631c57762b60e31b815260048101839052602481018290526000906001600160a01b0386169063e2bbb158906044016020604051808303816000875af115801562000e87573d6000803e3d6000fd5b505050506040513d601f19601f8201168201806040525081019062000ead919062002426565b90507f5548c837ab068cf56a2c2479df0882a4922fd203edb7517321831d95078c5f6233868360405162000ee493929190620025c3565b60405180910390a160025460405163095ea7b360e01b81526001600160a01b039182166004820152602481018390529086169063095ea7b3906044016020604051808303816000875af115801562000f40573d6000803e3d6000fd5b505050506040513d601f19601f8201168201806040525081019062000f6691906200260a565b5060025460405163e8eda9df60e01b81526001600160a01b039091169063e8eda9df9062000fa0908890859033906000906004016200262e565b600060405180830381600087803b15801562000fbb57600080fd5b505af115801562000fd0573d6000803e3d6000fd5b5050505062000fde62001a6d565b5050505050565b806001600160801b0316826001600160801b031610620010385760405162461bcd60e51b815260206004820152600d60248201526c14985b99d9481a5b9d985b1a59609a1b6044820152606401620002d3565b60055460005b818110156200110d57600581815481106200105d576200105d620022a7565b6000918252602090912001546001600160801b03600160801b9091048116908516101580620010ba5750600581815481106200109d576200109d620022a7565b6000918252602090912001546001600160801b0390811690841611155b620010f85760405162461bcd60e51b815260206004820152600d60248201526c052616e6765206f7665726c617609c1b6044820152606401620002d3565b8062001104816200265b565b9150506200103e565b50505050565b6200110d846323b872dd60e01b8585856040516024016200113793929190620025c3565b60408051601f198184030181529190526020810180516001600160e01b03166001600160e01b03199093169290921790915262001da7565b604051636eb1769f60e11b81523060048201526001600160a01b038381166024830152600091839186169063dd62ed3e90604401602060405180830381865afa158015620011c1573d6000803e3d6000fd5b505050506040513d601f19601f82011682018060405250810190620011e7919062002426565b620011f3919062002677565b6040516001600160a01b0385166024820152604481018290529091506200110d90859063095ea7b360e01b9060640162001137565b6040516001600160a01b0383166024820152604481018290526200098090849063a9059cbb60e01b9060640162001137565b600654811080156200126d575060075481105b620012aa5760405162461bcd60e51b815260206004820152600c60248201526b0496e76616c696420737465760a41b6044820152606401620002d3565b600254600680546000926001600160a01b0316916335ea6a759185908110620012d757620012d7620022a7565b60009182526020909120015460405160e083901b6001600160e01b03191681526001600160a01b03909116600482015260240161018060405180830381865afa15801562001329573d6000803e3d6000fd5b505050506040513d601f19601f820116820180604052508101906200134f9190620024bb565b60e001516040516370a0823160e01b81523360048201526001600160a01b03909116906370a0823190602401602060405180830381865afa15801562001399573d6000803e3d6000fd5b505050506040513d601f19601f82011682018060405250810190620013bf919062002426565b905080156200168857600254600680546001600160a01b03909216916308ebbd269183916335ea6a75919087908110620013fd57620013fd620022a7565b60009182526020909120015460405160e083901b6001600160e01b03191681526001600160a01b03909116600482015260240161018060405180830381865afa1580156200144f573d6000803e3d6000fd5b505050506040513d601f19601f82011682018060405250810190620014759190620024bb565b60e0015133846040518463ffffffff1660e01b81526004016200149b93929190620025c3565b600060405180830381600087803b158015620014b657600080fd5b505af1158015620014cb573d6000803e3d6000fd5b5050600254600680546001600160a01b0390921693506369328dec92509085908110620014fc57620014fc620022a7565b6000918252602090912001546040516001600160e01b031960e084901b1681526200153a916001600160a01b031690600019903090600401620025e7565b6020604051808303816000875af11580156200155a573d6000803e3d6000fd5b505050506040513d601f19601f8201168201806040525081019062001580919062002426565b905060068281548110620015985762001598620022a7565b600091825260208220015460405163a41fe49f60e01b8152600481018490526024810183905260448101929092526001600160a01b03169063a41fe49f9060640160408051808303816000875af1158015620015f8573d6000803e3d6000fd5b505050506040513d601f19601f820116820180604052508101906200161e91906200268d565b50507f9b1bfa7fa9ee420a16e124f794c35ac9f90472acc99140eb2f6447c714cad8eb3360068481548110620016585762001658620022a7565b6000918252602090912001546040516200167f92916001600160a01b0316908590620025c3565b60405180910390a15b600254600780546001600160a01b03909216916335ea6a75919085908110620016b557620016b5620022a7565b60009182526020909120015460405160e083901b6001600160e01b03191681526001600160a01b03909116600482015260240161018060405180830381865afa15801562001707573d6000803e3d6000fd5b505050506040513d601f19601f820116820180604052508101906200172d9190620024bb565b60e001516040516370a0823160e01b81523360048201526001600160a01b03909116906370a0823190602401602060405180830381865afa15801562001777573d6000803e3d6000fd5b505050506040513d601f19601f820116820180604052508101906200179d919062002426565b9050801562001a6957600254600780546001600160a01b03909216916308ebbd269183916335ea6a75919087908110620017db57620017db620022a7565b60009182526020909120015460405160e083901b6001600160e01b03191681526001600160a01b03909116600482015260240161018060405180830381865afa1580156200182d573d6000803e3d6000fd5b505050506040513d601f19601f82011682018060405250810190620018539190620024bb565b60e0015133846040518463ffffffff1660e01b81526004016200187993929190620025c3565b600060405180830381600087803b1580156200189457600080fd5b505af1158015620018a9573d6000803e3d6000fd5b505060025460078054600094506001600160a01b0390921692506369328dec9186908110620018dc57620018dc620022a7565b6000918252602090912001546040516001600160e01b031960e084901b1681526200191a916001600160a01b031690600019903090600401620025e7565b6020604051808303816000875af11580156200193a573d6000803e3d6000fd5b505050506040513d601f19601f8201168201806040525081019062001960919062002426565b905060078381548110620019785762001978620022a7565b600091825260208220015460405163a41fe49f60e01b8152600481018490526024810183905260448101929092526001600160a01b03169063a41fe49f9060640160408051808303816000875af1158015620019d8573d6000803e3d6000fd5b505050506040513d601f19601f82011682018060405250810190620019fe91906200268d565b50507f9b1bfa7fa9ee420a16e124f794c35ac9f90472acc99140eb2f6447c714cad8eb336007858154811062001a385762001a38620022a7565b60009182526020909120015460405162001a5f92916001600160a01b0316908690620025c3565b60405180910390a1505b5050565b6003546040516370a0823160e01b81523060048201526000916001600160a01b0316906370a0823190602401602060405180830381865afa15801562001ab7573d6000803e3d6000fd5b505050506040513d601f19601f8201168201806040525081019062001add919062002426565b600480546040516370a0823160e01b815230928101929092529192506000916001600160a01b0316906370a0823190602401602060405180830381865afa15801562001b2d573d6000803e3d6000fd5b505050506040513d601f19601f8201168201806040525081019062001b53919062002426565b9050811562001bed5760025460035462001b7b916001600160a01b039182169116846200116f565b60025460035460405163e8eda9df60e01b81526001600160a01b039283169263e8eda9df9262001bb892911690869033906000906004016200262e565b600060405180830381600087803b15801562001bd357600080fd5b505af115801562001be8573d6000803e3d6000fd5b505050505b801562001c855760025460045462001c13916001600160a01b039182169116836200116f565b6002546004805460405163e8eda9df60e01b81526001600160a01b039384169363e8eda9df9362001c50939091169186913391600091016200262e565b600060405180830381600087803b15801562001c6b57600080fd5b505af115801562001c80573d6000803e3d6000fd5b505050505b600254604051632fe4a15f60e21b81523360048201526000916001600160a01b03169063bf92857c9060240160c060405180830381865afa15801562001ccf573d6000803e3d6000fd5b505050506040513d601f19601f8201168201806040525081019062001cf59190620026b2565b95505050505050670e043da6172500008111620009805760405162461bcd60e51b815260206004820152601860248201527f4865616c746820666163746f7220697320746f6f206c6f7700000000000000006044820152606401620002d3565b600180546001600160a01b038381166001600160a01b0319831681179093556040519116919082907f8be0079c531659141344cd1fd0a4f28419497f9722a3daafe3b4186f6b6457e090600090a35050565b600062001dfe826040518060400160405280602081526020017f5361666545524332303a206c6f772d6c6576656c2063616c6c206661696c6564815250856001600160a01b031662001e809092919063ffffffff16565b80519091501562000980578080602001905181019062001e1f91906200260a565b620009805760405162461bcd60e51b815260206004820152602a60248201527f5361666545524332303a204552433230206f7065726174696f6e20646964206e6044820152691bdd081cdd58d8d9595960b21b6064820152608401620002d3565b606062001e91848460008562001e9b565b90505b9392505050565b60608247101562001efe5760405162461bcd60e51b815260206004820152602660248201527f416464726573733a20696e73756666696369656e742062616c616e636520666f6044820152651c8818d85b1b60d21b6064820152608401620002d3565b6001600160a01b0385163b62001f575760405162461bcd60e51b815260206004820152601d60248201527f416464726573733a2063616c6c20746f206e6f6e2d636f6e74726163740000006044820152606401620002d3565b600080866001600160a01b0316858760405162001f759190620026fd565b60006040518083038185875af1925050503d806000811462001fb4576040519150601f19603f3d011682016040523d82523d6000602084013e62001fb9565b606091505b509150915062001fcb82828662001fd6565b979650505050505050565b6060831562001fe757508162001e94565b82511562001ff85782518084602001fd5b8160405162461bcd60e51b8152600401620002d391906200271b565b61074f806200273183390190565b6000806000606084860312156200203857600080fd5b505081359360208301359350604090920135919050565b6000602082840312156200206257600080fd5b5035919050565b6001600160801b038116811462000b3457600080fd5b634e487b7160e01b600052604160045260246000fd5b604051610180810167ffffffffffffffff81118282101715620020bc57620020bc6200207f565b60405290565b600082601f830112620020d457600080fd5b813567ffffffffffffffff80821115620020f257620020f26200207f565b604051601f8301601f19908116603f011681019082821181831017156200211d576200211d6200207f565b816040528381528660208588010111156200213757600080fd5b836020870160208301376000602085830101528094505050505092915050565b6001600160a01b038116811462000b3457600080fd5b600080600080600060a086880312156200218657600080fd5b8535620021938162002069565b94506020860135620021a58162002069565b9350604086013567ffffffffffffffff80821115620021c357600080fd5b620021d189838a01620020c2565b94506060880135915080821115620021e857600080fd5b50620021f788828901620020c2565b92505060808601356200220a8162002157565b809150509295509295909350565b6000806000606084860312156200222e57600080fd5b83356200223b8162002157565b95602085013595506040909401359392505050565b6000602082840312156200226357600080fd5b813562001e948162002157565b6020808252601f908201527f5265656e7472616e637947756172643a207265656e7472616e742063616c6c00604082015260600190565b634e487b7160e01b600052603260045260246000fd5b6020808252818101527f4f776e61626c653a2063616c6c6572206973206e6f7420746865206f776e6572604082015260600190565b6000602082840312156200230557600080fd5b815162001e948162002157565b80516200231f8162002157565b919050565b634e487b7160e01b600052601160045260246000fd5b8181038181111562002350576200235062002324565b92915050565b60005b838110156200237357818101518382015260200162002359565b50506000910152565b600081518084526200239681602086016020860162002356565b601f01601f19169290920160200192915050565b6001600160a01b0389811682528881166020830152871660408201526001600160801b0386811660608301528516608082015261010060a08201819052600090620023f8838201876200237c565b905082810360c08401526200240e81866200237c565b91505082151560e08301529998505050505050505050565b6000602082840312156200243957600080fd5b5051919050565b6000602082840312156200245357600080fd5b6040516020810181811067ffffffffffffffff821117156200247957620024796200207f565b6040529151825250919050565b80516200231f8162002069565b805164ffffffffff811681146200231f57600080fd5b805160ff811681146200231f57600080fd5b60006101808284031215620024cf57600080fd5b620024d962002095565b620024e5848462002440565b8152620024f56020840162002486565b6020820152620025086040840162002486565b60408201526200251b6060840162002486565b60608201526200252e6080840162002486565b60808201526200254160a0840162002486565b60a08201526200255460c0840162002493565b60c08201526200256760e0840162002312565b60e08201526101006200257c81850162002312565b908201526101206200259084820162002312565b90820152610140620025a484820162002312565b90820152610160620025b8848201620024a9565b908201529392505050565b6001600160a01b039384168152919092166020820152604081019190915260600190565b6001600160a01b0393841681526020810192909252909116604082015260600190565b6000602082840312156200261d57600080fd5b8151801515811462001e9457600080fd5b6001600160a01b03948516815260208101939093529216604082015261ffff909116606082015260800190565b60006001820162002670576200267062002324565b5060010190565b8082018082111562002350576200235062002324565b60008060408385031215620026a157600080fd5b505080516020909101519092909150565b60008060008060008060c08789031215620026cc57600080fd5b865195506020870151945060408701519350606087015192506080870151915060a087015190509295509295509295565b600082516200271181846020870162002356565b9190910192915050565b60208152600062001e9460208301846200237c56fe608060405260405161074f38038061074f8339810160408190526100229161044c565b61004d60017fa3f0ad74e5423aebfd80d3ef4346578335a9a72aeaee59ff6cb3582b35133d5161050c565b600080516020610708833981519152146100695761006961052d565b6100758282600061007c565b50506105ad565b6100858361013d565b6040516001600160a01b038416907f1cf3b03a6cf19fa2baba4df148e9dcabedea7f8a5c07840e207e5c089be95d3e90600090a26000825111806100c65750805b1561013857610136836001600160a01b0316635c60da1b6040518163ffffffff1660e01b8152600401602060405180830381865afa15801561010c573d6000803e3d6000fd5b505050506040513d601f19601f820116820180604052508101906101309190610543565b836102af565b505b505050565b6001600160a01b0381163b6101a75760405162461bcd60e51b815260206004820152602560248201527f455243313936373a206e657720626561636f6e206973206e6f74206120636f6e6044820152641d1c9858dd60da1b60648201526084015b60405180910390fd5b61021b816001600160a01b0316635c60da1b6040518163ffffffff1660e01b8152600401602060405180830381865afa1580156101e8573d6000803e3d6000fd5b505050506040513d601f19601f8201168201806040525081019061020c9190610543565b6001600160a01b03163b151590565b6102805760405162461bcd60e51b815260206004820152603060248201527f455243313936373a20626561636f6e20696d706c656d656e746174696f6e206960448201526f1cc81b9bdd08184818dbdb9d1c9858dd60821b606482015260840161019e565b60008051602061070883398151915280546001600160a01b0319166001600160a01b0392909216919091179055565b60606102d48383604051806060016040528060278152602001610728602791396102dd565b90505b92915050565b60606001600160a01b0384163b6103455760405162461bcd60e51b815260206004820152602660248201527f416464726573733a2064656c65676174652063616c6c20746f206e6f6e2d636f6044820152651b9d1c9858dd60d21b606482015260840161019e565b600080856001600160a01b031685604051610360919061055e565b600060405180830381855af49150503d806000811461039b576040519150601f19603f3d011682016040523d82523d6000602084013e6103a0565b606091505b5090925090506103b18282866103bd565b925050505b9392505050565b606083156103cc5750816103b6565b8251156103dc5782518084602001fd5b8160405162461bcd60e51b815260040161019e919061057a565b80516001600160a01b038116811461040d57600080fd5b919050565b634e487b7160e01b600052604160045260246000fd5b60005b8381101561044357818101518382015260200161042b565b50506000910152565b6000806040838503121561045f57600080fd5b610468836103f6565b60208401519092506001600160401b038082111561048557600080fd5b818501915085601f83011261049957600080fd5b8151818111156104ab576104ab610412565b604051601f8201601f19908116603f011681019083821181831017156104d3576104d3610412565b816040528281528860208487010111156104ec57600080fd5b6104fd836020830160208801610428565b80955050505050509250929050565b818103818111156102d757634e487b7160e01b600052601160045260246000fd5b634e487b7160e01b600052600160045260246000fd5b60006020828403121561055557600080fd5b6102d4826103f6565b60008251610570818460208701610428565b9190910192915050565b6020815260008251806020840152610599816040850160208701610428565b601f01601f19169190910160400192915050565b61014c806105bc6000396000f3fe60806040523661001357610011610017565b005b6100115b610027610022610029565b6100c2565b565b600061005c7fa3f0ad74e5423aebfd80d3ef4346578335a9a72aeaee59ff6cb3582b35133d50546001600160a01b031690565b6001600160a01b0316635c60da1b6040518163ffffffff1660e01b8152600401602060405180830381865afa158015610099573d6000803e3d6000fd5b505050506040513d601f19601f820116820180604052508101906100bd91906100e6565b905090565b3660008037600080366000845af43d6000803e8080156100e1573d6000f35b3d6000fd5b6000602082840312156100f857600080fd5b81516001600160a01b038116811461010f57600080fd5b939250505056fea2646970667358221220694410e42ad26f06cd4ced242ea88d7b1cc6876fa826773bf7479ab242d5c86464736f6c63430008150033a3f0ad74e5423aebfd80d3ef4346578335a9a72aeaee59ff6cb3582b35133d50416464726573733a206c6f772d6c6576656c2064656c65676174652063616c6c206661696c6564a2646970667358221220d9353d98c2f6721d5d9579295898e60a60a24b56b245501707bf0cc2e934f04e64736f6c63430008150033",
  "bytecodeSha1": "28f07bfce59e1e0a70a7bd7b915a15f3c23401cc",
  "compiler": {
    "evm_version": "istanbul",
    "optimizer": {
      "enabled": true,
      "runs": 200
    },
    "version": "0.8.21+commit.d9974bed"
  },
  "contractName": "RangeManager",
  "language": "Solidity",
  "natspec": {
    "kind": "dev",
    "methods": {
      "generateRange(uint128,uint128,string,string,address)": {
        "notice": "Generate Ticker and Ranger ranges",
        "params": {
          "endName": "Name of the range higher bound",
          "endX10": "Range high price scaled by 1e10",
          "startName": "Name of the range lower bound ",
          "startX10": "Range lower price scaled by 1e10"
        }
      },
      "getStepListLength()": {
        "notice": "Get length of stepList",
        "returns": {
          "listLength": "Length"
        }
      },
      "initRange(address,uint256,uint256)": {
        "notice": "Initialize a previously created ticker",
        "params": {
          "amount0": "Amount of token0",
          "amount1": "Amount of token1",
          "tr": "Range address"
        }
      },
      "owner()": {
        "details": "Returns the address of the current owner."
      },
      "removeAssetsFromStep(uint256)": {
        "notice": "Remove assets from tokenisedRanges",
        "params": {
          "step": "Id of the range+ticker step from which to remove assets"
        }
      },
      "renounceOwnership()": {
        "details": "Leaves the contract without owner. It will not be possible to call `onlyOwner` functions anymore. Can only be called by the current owner. NOTE: Renouncing ownership will leave the contract without an owner, thereby removing any functionality that is only available to the owner."
      },
      "transferAssetsIntoRangerStep(uint256,uint256,uint256)": {
        "notice": "Transfer assets from the lending pool to a Ranger",
        "params": {
          "amount0": "Amount of asset0 to transfer in the Range",
          "amount1": "Amount of asset1 to transfer in the Range",
          "step": "Id of the range+ticker step from which to remove assets"
        }
      },
      "transferAssetsIntoTickerStep(uint256,uint256,uint256)": {
        "notice": "Transfer assets from the lending pool to a Ticker",
        "params": {
          "amount0": "Amount of asset0 to transfer in the Ticker",
          "amount1": "Amount of asset1 to transfer in the Ticker",
          "step": "Id of the range+ticker step from which to remove assets"
        }
      },
      "transferOwnership(address)": {
        "details": "Transfers ownership of the contract to a new account (`newOwner`). Can only be called by the current owner."
      }
    },
    "title": "Range middleware between ROE lending pool and various ranges",
    "version": 1
  },
  "opcodes": "PUSH1 0x80 PUSH1 0x40 MSTORE CALLVALUE DUP1 ISZERO PUSH3 0x11 JUMPI PUSH1 0x0 DUP1 REVERT JUMPDEST POP PUSH1 0x4 CALLDATASIZE LT PUSH3 0x114 JUMPI PUSH1 0x0 CALLDATALOAD PUSH1 0xE0 SHR DUP1 PUSH4 0x8DA5CB5B GT PUSH3 0xA3 JUMPI DUP1 PUSH4 0xBD865CBA GT PUSH3 0x6E JUMPI DUP1 PUSH4 0xBD865CBA EQ PUSH3 0x250 JUMPI DUP1 PUSH4 0xC9C46225 EQ PUSH3 0x26C JUMPI DUP1 PUSH4 0xE58346B8 EQ PUSH3 0x280 JUMPI DUP1 PUSH4 0xF2FDE38B EQ PUSH3 0x297 JUMPI PUSH1 0x0 DUP1 REVERT JUMPDEST DUP1 PUSH4 0x8DA5CB5B EQ PUSH3 0x1E0 JUMPI DUP1 PUSH4 0x9092FE75 EQ PUSH3 0x1F2 JUMPI DUP1 PUSH4 0xAB65051F EQ PUSH3 0x204 JUMPI DUP1 PUSH4 0xB4DCFC77 EQ PUSH3 0x23C JUMPI PUSH1 0x0 DUP1 REVERT JUMPDEST DUP1 PUSH4 0x576B6052 GT PUSH3 0xE4 JUMPI DUP1 PUSH4 0x576B6052 EQ PUSH3 0x191 JUMPI DUP1 PUSH4 0x58CB5E9D EQ PUSH3 0x1A8 JUMPI DUP1 PUSH4 0x653E9B89 EQ PUSH3 0x1BF JUMPI DUP1 PUSH4 0x715018A6 EQ PUSH3 0x1D6 JUMPI PUSH1 0x0 DUP1 REVERT JUMPDEST DUP1 PUSH3 0x7562AB EQ PUSH3 0x119 JUMPI DUP1 PUSH4 0x2B9C4841 EQ PUSH3 0x132 JUMPI DUP1 PUSH4 0x43204FF3 EQ PUSH3 0x166 JUMPI DUP1 PUSH4 0x48B0C087 EQ PUSH3 0x17D JUMPI JUMPDEST PUSH1 0x0 DUP1 REVERT JUMPDEST PUSH3 0x130 PUSH3 0x12A CALLDATASIZE PUSH1 0x4 PUSH3 0x2022 JUMP JUMPDEST PUSH3 0x2AE JUMP JUMPDEST STOP JUMPDEST PUSH3 0x149 PUSH3 0x143 CALLDATASIZE PUSH1 0x4 PUSH3 0x204F JUMP JUMPDEST PUSH3 0x326 JUMP JUMPDEST PUSH1 0x40 MLOAD PUSH1 0x1 PUSH1 0x1 PUSH1 0xA0 SHL SUB SWAP1 SWAP2 AND DUP2 MSTORE PUSH1 0x20 ADD JUMPDEST PUSH1 0x40 MLOAD DUP1 SWAP2 SUB SWAP1 RETURN JUMPDEST PUSH3 0x130 PUSH3 0x177 CALLDATASIZE PUSH1 0x4 PUSH3 0x216D JUMP JUMPDEST PUSH3 0x351 JUMP JUMPDEST PUSH1 0x4 SLOAD PUSH3 0x149 SWAP1 PUSH1 0x1 PUSH1 0x1 PUSH1 0xA0 SHL SUB AND DUP2 JUMP JUMPDEST PUSH3 0x130 PUSH3 0x1A2 CALLDATASIZE PUSH1 0x4 PUSH3 0x2218 JUMP JUMPDEST PUSH3 0x806 JUMP JUMPDEST PUSH3 0x149 PUSH3 0x1B9 CALLDATASIZE PUSH1 0x4 PUSH3 0x204F JUMP JUMPDEST PUSH3 0x985 JUMP JUMPDEST PUSH3 0x130 PUSH3 0x1D0 CALLDATASIZE PUSH1 0x4 PUSH3 0x204F JUMP JUMPDEST PUSH3 0x996 JUMP JUMPDEST PUSH3 0x130 PUSH3 0x9DD JUMP JUMPDEST PUSH1 0x1 SLOAD PUSH1 0x1 PUSH1 0x1 PUSH1 0xA0 SHL SUB AND PUSH3 0x149 JUMP JUMPDEST PUSH1 0x5 SLOAD PUSH1 0x40 MLOAD SWAP1 DUP2 MSTORE PUSH1 0x20 ADD PUSH3 0x15D JUMP JUMPDEST PUSH3 0x21B PUSH3 0x215 CALLDATASIZE PUSH1 0x4 PUSH3 0x204F JUMP JUMPDEST PUSH3 0xA18 JUMP JUMPDEST PUSH1 0x40 DUP1 MLOAD PUSH1 0x1 PUSH1 0x1 PUSH1 0x80 SHL SUB SWAP4 DUP5 AND DUP2 MSTORE SWAP3 SWAP1 SWAP2 AND PUSH1 0x20 DUP4 ADD MSTORE ADD PUSH3 0x15D JUMP JUMPDEST PUSH1 0x2 SLOAD PUSH3 0x149 SWAP1 PUSH1 0x1 PUSH1 0x1 PUSH1 0xA0 SHL SUB AND DUP2 JUMP JUMPDEST PUSH3 0x149 PUSH20 0xC36442B4A4522E871399CD717ABDD847AB11FE88 DUP2 JUMP JUMPDEST PUSH1 0x3 SLOAD PUSH3 0x149 SWAP1 PUSH1 0x1 PUSH1 0x1 PUSH1 0xA0 SHL SUB AND DUP2 JUMP JUMPDEST PUSH3 0x130 PUSH3 0x291 CALLDATASIZE PUSH1 0x4 PUSH3 0x2022 JUMP JUMPDEST PUSH3 0xA4E JUMP JUMPDEST PUSH3 0x130 PUSH3 0x2A8 CALLDATASIZE PUSH1 0x4 PUSH3 0x2250 JUMP JUMPDEST PUSH3 0xA95 JUMP JUMPDEST PUSH1 0x2 PUSH1 0x0 SLOAD SUB PUSH3 0x2DC JUMPI PUSH1 0x40 MLOAD PUSH3 0x461BCD PUSH1 0xE5 SHL DUP2 MSTORE PUSH1 0x4 ADD PUSH3 0x2D3 SWAP1 PUSH3 0x2270 JUMP JUMPDEST PUSH1 0x40 MLOAD DUP1 SWAP2 SUB SWAP1 REVERT JUMPDEST PUSH1 0x2 PUSH1 0x0 DUP2 SWAP1 SSTORE POP PUSH3 0x31C PUSH1 0x6 DUP5 DUP2 SLOAD DUP2 LT PUSH3 0x2FE JUMPI PUSH3 0x2FE PUSH3 0x22A7 JUMP JUMPDEST PUSH1 0x0 SWAP2 DUP3 MSTORE PUSH1 0x20 SWAP1 SWAP2 KECCAK256 ADD SLOAD PUSH1 0x1 PUSH1 0x1 PUSH1 0xA0 SHL SUB AND DUP5 DUP5 DUP5 PUSH3 0xB37 JUMP JUMPDEST POP POP PUSH1 0x1 PUSH1 0x0 SSTORE POP JUMP JUMPDEST PUSH1 0x7 DUP2 DUP2 SLOAD DUP2 LT PUSH3 0x337 JUMPI PUSH1 0x0 DUP1 REVERT JUMPDEST PUSH1 0x0 SWAP2 DUP3 MSTORE PUSH1 0x20 SWAP1 SWAP2 KECCAK256 ADD SLOAD PUSH1 0x1 PUSH1 0x1 PUSH1 0xA0 SHL SUB AND SWAP1 POP DUP2 JUMP JUMPDEST PUSH1 0x1 SLOAD PUSH1 0x1 PUSH1 0x1 PUSH1 0xA0 SHL SUB AND CALLER EQ PUSH3 0x37E JUMPI PUSH1 0x40 MLOAD PUSH3 0x461BCD PUSH1 0xE5 SHL DUP2 MSTORE PUSH1 0x4 ADD PUSH3 0x2D3 SWAP1 PUSH3 0x22BD JUMP JUMPDEST PUSH1 0x1 PUSH1 0x1 PUSH1 0xA0 SHL SUB DUP2 AND PUSH3 0x3C7 JUMPI PUSH1 0x40 MLOAD PUSH3 0x461BCD PUSH1 0xE5 SHL DUP2 MSTORE PUSH1 0x20 PUSH1 0x4 DUP3 ADD MSTORE PUSH1 0xE PUSH1 0x24 DUP3 ADD MSTORE PUSH14 0x24B73B30B634B2103132B0B1B7B7 PUSH1 0x91 SHL PUSH1 0x44 DUP3 ADD MSTORE PUSH1 0x64 ADD PUSH3 0x2D3 JUMP JUMPDEST PUSH3 0x3D3 DUP6 DUP6 PUSH3 0xFE5 JUMP JUMPDEST PUSH1 0x40 DUP1 MLOAD DUP1 DUP3 ADD DUP3 MSTORE PUSH1 0x1 PUSH1 0x1 PUSH1 0x80 SHL SUB DUP1 DUP9 AND DUP3 MSTORE DUP7 DUP2 AND PUSH1 0x20 DUP4 ADD SWAP1 DUP2 MSTORE PUSH1 0x5 DUP1 SLOAD PUSH1 0x1 DUP2 ADD DUP3 SSTORE PUSH1 0x0 SWAP2 DUP3 MSTORE SWAP4 MLOAD SWAP2 MLOAD DUP4 AND PUSH1 0x1 PUSH1 0x80 SHL MUL SWAP2 SWAP1 SWAP3 AND OR PUSH32 0x36B6384B5ECA791C62761152D0C79BB0604C104A5FB6F4EB0703F3154BB3DB0 SWAP1 SWAP3 ADD SWAP2 SWAP1 SWAP2 SSTORE SWAP1 MLOAD DUP3 SWAP1 PUSH3 0x44A SWAP1 PUSH3 0x2014 JUMP JUMPDEST PUSH1 0x1 PUSH1 0x1 PUSH1 0xA0 SHL SUB SWAP1 SWAP2 AND DUP2 MSTORE PUSH1 0x40 PUSH1 0x20 DUP3 ADD DUP2 SWAP1 MSTORE PUSH1 0x0 SWAP1 DUP3 ADD MSTORE PUSH1 0x60 ADD PUSH1 0x40 MLOAD DUP1 SWAP2 SUB SWAP1 PUSH1 0x0 CREATE DUP1 ISZERO DUP1 ISZERO PUSH3 0x486 JUMPI RETURNDATASIZE PUSH1 0x0 DUP1 RETURNDATACOPY RETURNDATASIZE PUSH1 0x0 REVERT JUMPDEST POP PUSH1 0x6 DUP1 SLOAD PUSH1 0x1 DUP2 ADD DUP3 SSTORE PUSH1 0x0 SWAP2 SWAP1 SWAP2 MSTORE PUSH32 0xF652222313E28459528D920B65115C16C04F3EFC82AAEDC97BE59F3F377C0D3F ADD DUP1 SLOAD PUSH1 0x1 PUSH1 0x1 PUSH1 0xA0 SHL SUB NOT AND PUSH1 0x1 PUSH1 0x1 PUSH1 0xA0 SHL SUB DUP4 AND OR SWAP1 SSTORE PUSH1 0x40 MLOAD SWAP1 SWAP2 POP DUP3 SWAP1 PUSH3 0x4E5 SWAP1 PUSH3 0x2014 JUMP JUMPDEST PUSH1 0x1 PUSH1 0x1 PUSH1 0xA0 SHL SUB SWAP1 SWAP2 AND DUP2 MSTORE PUSH1 0x40 PUSH1 0x20 DUP3 ADD DUP2 SWAP1 MSTORE PUSH1 0x0 SWAP1 DUP3 ADD MSTORE PUSH1 0x60 ADD PUSH1 0x40 MLOAD DUP1 SWAP2 SUB SWAP1 PUSH1 0x0 CREATE DUP1 ISZERO DUP1 ISZERO PUSH3 0x521 JUMPI RETURNDATASIZE PUSH1 0x0 DUP1 RETURNDATACOPY RETURNDATASIZE PUSH1 0x0 REVERT JUMPDEST POP PUSH1 0x7 DUP1 SLOAD PUSH1 0x1 DUP2 ADD DUP3 SSTORE PUSH1 0x0 SWAP2 DUP3 MSTORE PUSH32 0xA66CC928B5EDB82AF9BD49922954155AB7B0942694BEA4CE44661D9A8736C688 ADD DUP1 SLOAD PUSH1 0x1 PUSH1 0x1 PUSH1 0xA0 SHL SUB NOT AND PUSH1 0x1 PUSH1 0x1 PUSH1 0xA0 SHL SUB DUP5 DUP2 AND SWAP2 SWAP1 SWAP2 OR SWAP1 SWAP2 SSTORE PUSH1 0x2 SLOAD PUSH1 0x40 DUP1 MLOAD PUSH4 0x7F32D67F PUSH1 0xE1 SHL DUP2 MSTORE SWAP1 MLOAD SWAP5 SWAP6 POP SWAP3 SWAP4 SWAP2 AND SWAP2 PUSH4 0xFE65ACFE SWAP2 PUSH1 0x4 DUP1 DUP4 ADD SWAP3 PUSH1 0x20 SWAP3 SWAP2 SWAP1 DUP3 SWAP1 SUB ADD DUP2 DUP7 GAS STATICCALL ISZERO DUP1 ISZERO PUSH3 0x5B7 JUMPI RETURNDATASIZE PUSH1 0x0 DUP1 RETURNDATACOPY RETURNDATASIZE PUSH1 0x0 REVERT JUMPDEST POP POP POP POP PUSH1 0x40 MLOAD RETURNDATASIZE PUSH1 0x1F NOT PUSH1 0x1F DUP3 ADD AND DUP3 ADD DUP1 PUSH1 0x40 MSTORE POP DUP2 ADD SWAP1 PUSH3 0x5DD SWAP2 SWAP1 PUSH3 0x22F2 JUMP JUMPDEST PUSH1 0x1 PUSH1 0x1 PUSH1 0xA0 SHL SUB AND PUSH4 0xFCA513A8 PUSH1 0x40 MLOAD DUP2 PUSH4 0xFFFFFFFF AND PUSH1 0xE0 SHL DUP2 MSTORE PUSH1 0x4 ADD PUSH1 0x20 PUSH1 0x40 MLOAD DUP1 DUP4 SUB DUP2 DUP7 GAS STATICCALL ISZERO DUP1 ISZERO PUSH3 0x61B JUMPI RETURNDATASIZE PUSH1 0x0 DUP1 RETURNDATACOPY RETURNDATASIZE PUSH1 0x0 REVERT JUMPDEST POP POP POP POP PUSH1 0x40 MLOAD RETURNDATASIZE PUSH1 0x1F NOT PUSH1 0x1F DUP3 ADD AND DUP3 ADD DUP1 PUSH1 0x40 MSTORE POP DUP2 ADD SWAP1 PUSH3 0x641 SWAP2 SWAP1 PUSH3 0x22F2 JUMP JUMPDEST PUSH1 0x6 DUP1 SLOAD SWAP2 SWAP3 POP SWAP1 PUSH3 0x657 SWAP1 PUSH1 0x1 SWAP1 PUSH3 0x233A JUMP JUMPDEST DUP2 SLOAD DUP2 LT PUSH3 0x66A JUMPI PUSH3 0x66A PUSH3 0x22A7 JUMP JUMPDEST PUSH1 0x0 SWAP2 DUP3 MSTORE PUSH1 0x20 DUP3 KECCAK256 ADD SLOAD PUSH1 0x3 SLOAD PUSH1 0x4 DUP1 SLOAD PUSH1 0x40 MLOAD PUSH4 0xD3518877 PUSH1 0xE0 SHL DUP2 MSTORE PUSH1 0x1 PUSH1 0x1 PUSH1 0xA0 SHL SUB SWAP5 DUP6 AND SWAP6 PUSH4 0xD3518877 SWAP6 PUSH3 0x6BA SWAP6 DUP10 SWAP6 SWAP1 DUP3 AND SWAP5 SWAP1 SWAP2 AND SWAP3 DUP16 SWAP3 DUP16 SWAP3 DUP16 SWAP3 DUP16 SWAP3 SWAP2 ADD PUSH3 0x23AA JUMP JUMPDEST PUSH1 0x0 PUSH1 0x40 MLOAD DUP1 DUP4 SUB DUP2 PUSH1 0x0 DUP8 DUP1 EXTCODESIZE ISZERO DUP1 ISZERO PUSH3 0x6D5 JUMPI PUSH1 0x0 DUP1 REVERT JUMPDEST POP GAS CALL ISZERO DUP1 ISZERO PUSH3 0x6EA JUMPI RETURNDATASIZE PUSH1 0x0 DUP1 RETURNDATACOPY RETURNDATASIZE PUSH1 0x0 REVERT JUMPDEST POP POP PUSH1 0x7 DUP1 SLOAD SWAP1 SWAP3 POP PUSH3 0x702 SWAP2 POP PUSH1 0x1 SWAP1 PUSH3 0x233A JUMP JUMPDEST DUP2 SLOAD DUP2 LT PUSH3 0x715 JUMPI PUSH3 0x715 PUSH3 0x22A7 JUMP JUMPDEST PUSH1 0x0 SWAP2 DUP3 MSTORE PUSH1 0x20 SWAP1 SWAP2 KECCAK256 ADD SLOAD PUSH1 0x3 SLOAD PUSH1 0x4 DUP1 SLOAD PUSH1 0x40 MLOAD PUSH4 0xD3518877 PUSH1 0xE0 SHL DUP2 MSTORE PUSH1 0x1 PUSH1 0x1 PUSH1 0xA0 SHL SUB SWAP5 DUP6 AND SWAP5 PUSH4 0xD3518877 SWAP5 PUSH3 0x769 SWAP5 DUP9 SWAP5 SWAP2 DUP4 AND SWAP4 SWAP2 SWAP1 SWAP3 AND SWAP2 DUP15 SWAP2 DUP15 SWAP2 DUP15 SWAP2 DUP15 SWAP2 PUSH1 0x1 SWAP2 ADD PUSH3 0x23AA JUMP JUMPDEST PUSH1 0x0 PUSH1 0x40 MLOAD DUP1 DUP4 SUB DUP2 PUSH1 0x0 DUP8 DUP1 EXTCODESIZE ISZERO DUP1 ISZERO PUSH3 0x784 JUMPI PUSH1 0x0 DUP1 REVERT JUMPDEST POP GAS CALL ISZERO DUP1 ISZERO PUSH3 0x799 JUMPI RETURNDATASIZE PUSH1 0x0 DUP1 RETURNDATACOPY RETURNDATASIZE PUSH1 0x0 REVERT JUMPDEST POP POP POP POP PUSH32 0xFC9FD5A154BB65CCEB4F482BB1B19A821C98D99849A7173A72699EE86BC85537 DUP8 DUP8 PUSH1 0x1 PUSH1 0x6 DUP1 SLOAD SWAP1 POP PUSH3 0x7D4 SWAP2 SWAP1 PUSH3 0x233A JUMP JUMPDEST PUSH1 0x40 DUP1 MLOAD PUSH1 0x1 PUSH1 0x1 PUSH1 0x80 SHL SUB SWAP5 DUP6 AND DUP2 MSTORE SWAP4 SWAP1 SWAP3 AND PUSH1 0x20 DUP5 ADD MSTORE SWAP1 DUP3 ADD MSTORE PUSH1 0x60 ADD PUSH1 0x40 MLOAD DUP1 SWAP2 SUB SWAP1 LOG1 POP POP POP POP POP POP POP JUMP JUMPDEST PUSH1 0x1 SLOAD PUSH1 0x1 PUSH1 0x1 PUSH1 0xA0 SHL SUB AND CALLER EQ PUSH3 0x833 JUMPI PUSH1 0x40 MLOAD PUSH3 0x461BCD PUSH1 0xE5 SHL DUP2 MSTORE PUSH1 0x4 ADD PUSH3 0x2D3 SWAP1 PUSH3 0x22BD JUMP JUMPDEST PUSH1 0x3 SLOAD PUSH3 0x84D SWAP1 PUSH1 0x1 PUSH1 0x1 PUSH1 0xA0 SHL SUB AND CALLER ADDRESS DUP6 PUSH3 0x1113 JUMP JUMPDEST PUSH1 0x3 SLOAD PUSH3 0x866 SWAP1 PUSH1 0x1 PUSH1 0x1 PUSH1 0xA0 SHL SUB AND DUP5 DUP5 PUSH3 0x116F JUMP JUMPDEST PUSH1 0x4 SLOAD PUSH3 0x880 SWAP1 PUSH1 0x1 PUSH1 0x1 PUSH1 0xA0 SHL SUB AND CALLER ADDRESS DUP5 PUSH3 0x1113 JUMP JUMPDEST PUSH1 0x4 SLOAD PUSH3 0x899 SWAP1 PUSH1 0x1 PUSH1 0x1 PUSH1 0xA0 SHL SUB AND DUP5 DUP4 PUSH3 0x116F JUMP JUMPDEST PUSH1 0x40 MLOAD PUSH4 0x14B087E1 PUSH1 0xE3 SHL DUP2 MSTORE PUSH1 0x4 DUP2 ADD DUP4 SWAP1 MSTORE PUSH1 0x24 DUP2 ADD DUP3 SWAP1 MSTORE PUSH1 0x1 PUSH1 0x1 PUSH1 0xA0 SHL SUB DUP5 AND SWAP1 PUSH4 0xA5843F08 SWAP1 PUSH1 0x44 ADD PUSH1 0x0 PUSH1 0x40 MLOAD DUP1 DUP4 SUB DUP2 PUSH1 0x0 DUP8 DUP1 EXTCODESIZE ISZERO DUP1 ISZERO PUSH3 0x8E3 JUMPI PUSH1 0x0 DUP1 REVERT JUMPDEST POP GAS CALL ISZERO DUP1 ISZERO PUSH3 0x8F8 JUMPI RETURNDATASIZE PUSH1 0x0 DUP1 RETURNDATACOPY RETURNDATASIZE PUSH1 0x0 REVERT JUMPDEST POP POP PUSH1 0x40 MLOAD PUSH4 0x70A08231 PUSH1 0xE0 SHL DUP2 MSTORE ADDRESS PUSH1 0x4 DUP3 ADD MSTORE PUSH3 0x980 SWAP3 POP CALLER SWAP2 POP PUSH1 0x1 PUSH1 0x1 PUSH1 0xA0 SHL SUB DUP7 AND SWAP1 PUSH4 0x70A08231 SWAP1 PUSH1 0x24 ADD PUSH1 0x20 PUSH1 0x40 MLOAD DUP1 DUP4 SUB DUP2 DUP7 GAS STATICCALL ISZERO DUP1 ISZERO PUSH3 0x948 JUMPI RETURNDATASIZE PUSH1 0x0 DUP1 RETURNDATACOPY RETURNDATASIZE PUSH1 0x0 REVERT JUMPDEST POP POP POP POP PUSH1 0x40 MLOAD RETURNDATASIZE PUSH1 0x1F NOT PUSH1 0x1F DUP3 ADD AND DUP3 ADD DUP1 PUSH1 0x40 MSTORE POP DUP2 ADD SWAP1 PUSH3 0x96E SWAP2 SWAP1 PUSH3 0x2426 JUMP JUMPDEST PUSH1 0x1 PUSH1 0x1 PUSH1 0xA0 SHL SUB DUP7 AND SWAP2 SWAP1 PUSH3 0x1228 JUMP JUMPDEST POP POP POP JUMP JUMPDEST PUSH1 0x6 DUP2 DUP2 SLOAD DUP2 LT PUSH3 0x337 JUMPI PUSH1 0x0 DUP1 REVERT JUMPDEST PUSH1 0x2 PUSH1 0x0 SLOAD SUB PUSH3 0x9BB JUMPI PUSH1 0x40 MLOAD PUSH3 0x461BCD PUSH1 0xE5 SHL DUP2 MSTORE PUSH1 0x4 ADD PUSH3 0x2D3 SWAP1 PUSH3 0x2270 JUMP JUMPDEST PUSH1 0x2 PUSH1 0x0 SSTORE PUSH3 0x9CB DUP2 PUSH3 0x125A JUMP JUMPDEST PUSH3 0x9D5 PUSH3 0x1A6D JUMP JUMPDEST POP PUSH1 0x1 PUSH1 0x0 SSTORE JUMP JUMPDEST PUSH1 0x1 SLOAD PUSH1 0x1 PUSH1 0x1 PUSH1 0xA0 SHL SUB AND CALLER EQ PUSH3 0xA0A JUMPI PUSH1 0x40 MLOAD PUSH3 0x461BCD PUSH1 0xE5 SHL DUP2 MSTORE PUSH1 0x4 ADD PUSH3 0x2D3 SWAP1 PUSH3 0x22BD JUMP JUMPDEST PUSH3 0xA16 PUSH1 0x0 PUSH3 0x1D55 JUMP JUMPDEST JUMP JUMPDEST PUSH1 0x5 DUP2 DUP2 SLOAD DUP2 LT PUSH3 0xA29 JUMPI PUSH1 0x0 DUP1 REVERT JUMPDEST PUSH1 0x0 SWAP2 DUP3 MSTORE PUSH1 0x20 SWAP1 SWAP2 KECCAK256 ADD SLOAD PUSH1 0x1 PUSH1 0x1 PUSH1 0x80 SHL SUB DUP1 DUP3 AND SWAP3 POP PUSH1 0x1 PUSH1 0x80 SHL SWAP1 SWAP2 DIV AND DUP3 JUMP JUMPDEST PUSH1 0x2 PUSH1 0x0 SLOAD SUB PUSH3 0xA73 JUMPI PUSH1 0x40 MLOAD PUSH3 0x461BCD PUSH1 0xE5 SHL DUP2 MSTORE PUSH1 0x4 ADD PUSH3 0x2D3 SWAP1 PUSH3 0x2270 JUMP JUMPDEST PUSH1 0x2 PUSH1 0x0 DUP2 SWAP1 SSTORE POP PUSH3 0x31C PUSH1 0x7 DUP5 DUP2 SLOAD DUP2 LT PUSH3 0x2FE JUMPI PUSH3 0x2FE PUSH3 0x22A7 JUMP JUMPDEST PUSH1 0x1 SLOAD PUSH1 0x1 PUSH1 0x1 PUSH1 0xA0 SHL SUB AND CALLER EQ PUSH3 0xAC2 JUMPI PUSH1 0x40 MLOAD PUSH3 0x461BCD PUSH1 0xE5 SHL DUP2 MSTORE PUSH1 0x4 ADD PUSH3 0x2D3 SWAP1 PUSH3 0x22BD JUMP JUMPDEST PUSH1 0x1 PUSH1 0x1 PUSH1 0xA0 SHL SUB DUP2 AND PUSH3 0xB29 JUMPI PUSH1 0x40 MLOAD PUSH3 0x461BCD PUSH1 0xE5 SHL DUP2 MSTORE PUSH1 0x20 PUSH1 0x4 DUP3 ADD MSTORE PUSH1 0x26 PUSH1 0x24 DUP3 ADD MSTORE PUSH32 0x4F776E61626C653A206E6577206F776E657220697320746865207A65726F2061 PUSH1 0x44 DUP3 ADD MSTORE PUSH6 0x646472657373 PUSH1 0xD0 SHL PUSH1 0x64 DUP3 ADD MSTORE PUSH1 0x84 ADD PUSH3 0x2D3 JUMP JUMPDEST PUSH3 0xB34 DUP2 PUSH3 0x1D55 JUMP JUMPDEST POP JUMP JUMPDEST PUSH3 0xB42 DUP4 PUSH3 0x125A JUMP JUMPDEST DUP2 ISZERO PUSH3 0xCBA JUMPI PUSH1 0x2 SLOAD PUSH1 0x3 SLOAD PUSH1 0x40 MLOAD PUSH4 0x35EA6A75 PUSH1 0xE0 SHL DUP2 MSTORE PUSH1 0x1 PUSH1 0x1 PUSH1 0xA0 SHL SUB SWAP2 DUP3 AND PUSH1 0x4 DUP3 ADD MSTORE SWAP2 AND SWAP1 PUSH4 0x8EBBD26 SWAP1 DUP3 SWAP1 PUSH4 0x35EA6A75 SWAP1 PUSH1 0x24 ADD PUSH2 0x180 PUSH1 0x40 MLOAD DUP1 DUP4 SUB DUP2 DUP7 GAS STATICCALL ISZERO DUP1 ISZERO PUSH3 0xB9F JUMPI RETURNDATASIZE PUSH1 0x0 DUP1 RETURNDATACOPY RETURNDATASIZE PUSH1 0x0 REVERT JUMPDEST POP POP POP POP PUSH1 0x40 MLOAD RETURNDATASIZE PUSH1 0x1F NOT PUSH1 0x1F DUP3 ADD AND DUP3 ADD DUP1 PUSH1 0x40 MSTORE POP DUP2 ADD SWAP1 PUSH3 0xBC5 SWAP2 SWAP1 PUSH3 0x24BB JUMP JUMPDEST PUSH1 0xE0 ADD MLOAD CALLER DUP6 PUSH1 0x40 MLOAD DUP5 PUSH4 0xFFFFFFFF AND PUSH1 0xE0 SHL DUP2 MSTORE PUSH1 0x4 ADD PUSH3 0xBEB SWAP4 SWAP3 SWAP2 SWAP1 PUSH3 0x25C3 JUMP JUMPDEST PUSH1 0x0 PUSH1 0x40 MLOAD DUP1 DUP4 SUB DUP2 PUSH1 0x0 DUP8 DUP1 EXTCODESIZE ISZERO DUP1 ISZERO PUSH3 0xC06 JUMPI PUSH1 0x0 DUP1 REVERT JUMPDEST POP GAS CALL ISZERO DUP1 ISZERO PUSH3 0xC1B JUMPI RETURNDATASIZE PUSH1 0x0 DUP1 RETURNDATACOPY RETURNDATASIZE PUSH1 0x0 REVERT JUMPDEST POP POP PUSH1 0x2 SLOAD PUSH1 0x3 SLOAD PUSH1 0x40 MLOAD PUSH4 0x1A4CA37B PUSH1 0xE2 SHL DUP2 MSTORE PUSH1 0x1 PUSH1 0x1 PUSH1 0xA0 SHL SUB SWAP3 DUP4 AND SWAP5 POP PUSH4 0x69328DEC SWAP4 POP PUSH3 0xC5A SWAP3 SWAP1 SWAP2 AND SWAP1 DUP7 SWAP1 ADDRESS SWAP1 PUSH1 0x4 ADD PUSH3 0x25E7 JUMP JUMPDEST PUSH1 0x20 PUSH1 0x40 MLOAD DUP1 DUP4 SUB DUP2 PUSH1 0x0 DUP8 GAS CALL ISZERO DUP1 ISZERO PUSH3 0xC7A JUMPI RETURNDATASIZE PUSH1 0x0 DUP1 RETURNDATACOPY RETURNDATASIZE PUSH1 0x0 REVERT JUMPDEST POP POP POP POP PUSH1 0x40 MLOAD RETURNDATASIZE PUSH1 0x1F NOT PUSH1 0x1F DUP3 ADD AND DUP3 ADD DUP1 PUSH1 0x40 MSTORE POP DUP2 ADD SWAP1 PUSH3 0xCA0 SWAP2 SWAP1 PUSH3 0x2426 JUMP JUMPDEST POP PUSH1 0x3 SLOAD PUSH3 0xCBA SWAP1 PUSH1 0x1 PUSH1 0x1 PUSH1 0xA0 SHL SUB AND DUP6 DUP5 PUSH3 0x116F JUMP JUMPDEST DUP1 ISZERO PUSH3 0xE35 JUMPI PUSH1 0x2 SLOAD PUSH1 0x4 DUP1 SLOAD PUSH1 0x40 MLOAD PUSH4 0x35EA6A75 PUSH1 0xE0 SHL DUP2 MSTORE PUSH1 0x1 PUSH1 0x1 PUSH1 0xA0 SHL SUB SWAP2 DUP3 AND SWAP3 DUP2 ADD SWAP3 SWAP1 SWAP3 MSTORE SWAP1 SWAP2 AND SWAP1 PUSH4 0x8EBBD26 SWAP1 DUP3 SWAP1 PUSH4 0x35EA6A75 SWAP1 PUSH1 0x24 ADD PUSH2 0x180 PUSH1 0x40 MLOAD DUP1 DUP4 SUB DUP2 DUP7 GAS STATICCALL ISZERO DUP1 ISZERO PUSH3 0xD1B JUMPI RETURNDATASIZE PUSH1 0x0 DUP1 RETURNDATACOPY RETURNDATASIZE PUSH1 0x0 REVERT JUMPDEST POP POP POP POP PUSH1 0x40 MLOAD RETURNDATASIZE PUSH1 0x1F NOT PUSH1 0x1F DUP3 ADD AND DUP3 ADD DUP1 PUSH1 0x40 MSTORE POP DUP2 ADD SWAP1 PUSH3 0xD41 SWAP2 SWAP1 PUSH3 0x24BB JUMP JUMPDEST PUSH1 0xE0 ADD MLOAD CALLER DUP5 PUSH1 0x40 MLOAD DUP5 PUSH4 0xFFFFFFFF AND PUSH1 0xE0 SHL DUP2 MSTORE PUSH1 0x4 ADD PUSH3 0xD67 SWAP4 SWAP3 SWAP2 SWAP1 PUSH3 0x25C3 JUMP JUMPDEST PUSH1 0x0 PUSH1 0x40 MLOAD DUP1 DUP4 SUB DUP2 PUSH1 0x0 DUP8 DUP1 EXTCODESIZE ISZERO DUP1 ISZERO PUSH3 0xD82 JUMPI PUSH1 0x0 DUP1 REVERT JUMPDEST POP GAS CALL ISZERO DUP1 ISZERO PUSH3 0xD97 JUMPI RETURNDATASIZE PUSH1 0x0 DUP1 RETURNDATACOPY RETURNDATASIZE PUSH1 0x0 REVERT JUMPDEST POP POP PUSH1 0x2 SLOAD PUSH1 0x4 DUP1 SLOAD PUSH1 0x40 MLOAD PUSH4 0x1A4CA37B PUSH1 0xE2 SHL DUP2 MSTORE PUSH1 0x1 PUSH1 0x1 PUSH1 0xA0 SHL SUB SWAP4 DUP5 AND SWAP6 POP PUSH4 0x69328DEC SWAP5 POP PUSH3 0xDD5 SWAP4 SWAP1 SWAP2 AND SWAP2 DUP7 SWAP2 ADDRESS SWAP2 ADD PUSH3 0x25E7 JUMP JUMPDEST PUSH1 0x20 PUSH1 0x40 MLOAD DUP1 DUP4 SUB DUP2 PUSH1 0x0 DUP8 GAS CALL ISZERO DUP1 ISZERO PUSH3 0xDF5 JUMPI RETURNDATASIZE PUSH1 0x0 DUP1 RETURNDATACOPY RETURNDATASIZE PUSH1 0x0 REVERT JUMPDEST POP POP POP POP PUSH1 0x40 MLOAD RETURNDATASIZE PUSH1 0x1F NOT PUSH1 0x1F DUP3 ADD AND DUP3 ADD DUP1 PUSH1 0x40 MSTORE POP DUP2 ADD SWAP1 PUSH3 0xE1B SWAP2 SWAP1 PUSH3 0x2426 JUMP JUMPDEST POP PUSH1 0x4 SLOAD PUSH3 0xE35 SWAP1 PUSH1 0x1 PUSH1 0x1 PUSH1 0xA0 SHL SUB AND DUP6 DUP4 PUSH3 0x116F JUMP JUMPDEST PUSH1 0x40 MLOAD PUSH4 0x1C57762B PUSH1 0xE3 SHL DUP2 MSTORE PUSH1 0x4 DUP2 ADD DUP4 SWAP1 MSTORE PUSH1 0x24 DUP2 ADD DUP3 SWAP1 MSTORE PUSH1 0x0 SWAP1 PUSH1 0x1 PUSH1 0x1 PUSH1 0xA0 SHL SUB DUP7 AND SWAP1 PUSH4 0xE2BBB158 SWAP1 PUSH1 0x44 ADD PUSH1 0x20 PUSH1 0x40 MLOAD DUP1 DUP4 SUB DUP2 PUSH1 0x0 DUP8 GAS CALL ISZERO DUP1 ISZERO PUSH3 0xE87 JUMPI RETURNDATASIZE PUSH1 0x0 DUP1 RETURNDATACOPY RETURNDATASIZE PUSH1 0x0 REVERT JUMPDEST POP POP POP POP PUSH1 0x40 MLOAD RETURNDATASIZE PUSH1 0x1F NOT PUSH1 0x1F DUP3 ADD AND DUP3 ADD DUP1 PUSH1 0x40 MSTORE POP DUP2 ADD SWAP1 PUSH3 0xEAD SWAP2 SWAP1 PUSH3 0x2426 JUMP JUMPDEST SWAP1 POP PUSH32 0x5548C837AB068CF56A2C2479DF0882A4922FD203EDB7517321831D95078C5F62 CALLER DUP7 DUP4 PUSH1 0x40 MLOAD PUSH3 0xEE4 SWAP4 SWAP3 SWAP2 SWAP1 PUSH3 0x25C3 JUMP JUMPDEST PUSH1 0x40 MLOAD DUP1 SWAP2 SUB SWAP1 LOG1 PUSH1 0x2 SLOAD PUSH1 0x40 MLOAD PUSH4 0x95EA7B3 PUSH1 0xE0 SHL DUP2 MSTORE PUSH1 0x1 PUSH1 0x1 PUSH1 0xA0 SHL SUB SWAP2 DUP3 AND PUSH1 0x4 DUP3 ADD MSTORE PUSH1 0x24 DUP2 ADD DUP4 SWAP1 MSTORE SWAP1 DUP7 AND SWAP1 PUSH4 0x95EA7B3 SWAP1 PUSH1 0x44 ADD PUSH1 0x20 PUSH1 0x40 MLOAD DUP1 DUP4 SUB DUP2 PUSH1 0x0 DUP8 GAS CALL ISZERO DUP1 ISZERO PUSH3 0xF40 JUMPI RETURNDATASIZE PUSH1 0x0 DUP1 RETURNDATACOPY RETURNDATASIZE PUSH1 0x0 REVERT JUMPDEST POP POP POP POP PUSH1 0x40 MLOAD RETURNDATASIZE PUSH1 0x1F NOT PUSH1 0x1F DUP3 ADD AND DUP3 ADD DUP1 PUSH1 0x40 MSTORE POP DUP2 ADD SWAP1 PUSH3 0xF66 SWAP2 SWAP1 PUSH3 0x260A JUMP JUMPDEST POP PUSH1 0x2 SLOAD PUSH1 0x40 MLOAD PUSH4 0xE8EDA9DF PUSH1 0xE0 SHL DUP2 MSTORE PUSH1 0x1 PUSH1 0x1 PUSH1 0xA0 SHL SUB SWAP1 SWAP2 AND SWAP1 PUSH4 0xE8EDA9DF SWAP1 PUSH3 0xFA0 SWAP1 DUP9 SWAP1 DUP6 SWAP1 CALLER SWAP1 PUSH1 0x0 SWAP1 PUSH1 0x4 ADD PUSH3 0x262E JUMP JUMPDEST PUSH1 0x0 PUSH1 0x40 MLOAD DUP1 DUP4 SUB DUP2 PUSH1 0x0 DUP8 DUP1 EXTCODESIZE ISZERO DUP1 ISZERO PUSH3 0xFBB JUMPI PUSH1 0x0 DUP1 REVERT JUMPDEST POP GAS CALL ISZERO DUP1 ISZERO PUSH3 0xFD0 JUMPI RETURNDATASIZE PUSH1 0x0 DUP1 RETURNDATACOPY RETURNDATASIZE PUSH1 0x0 REVERT JUMPDEST POP POP POP POP PUSH3 0xFDE PUSH3 0x1A6D JUMP JUMPDEST POP POP POP POP POP JUMP JUMPDEST DUP1 PUSH1 0x1 PUSH1 0x1 PUSH1 0x80 SHL SUB AND DUP3 PUSH1 0x1 PUSH1 0x1 PUSH1 0x80 SHL SUB AND LT PUSH3 0x1038 JUMPI PUSH1 0x40 MLOAD PUSH3 0x461BCD PUSH1 0xE5 SHL DUP2 MSTORE PUSH1 0x20 PUSH1 0x4 DUP3 ADD MSTORE PUSH1 0xD PUSH1 0x24 DUP3 ADD MSTORE PUSH13 0x14985B99D9481A5B9D985B1A59 PUSH1 0x9A SHL PUSH1 0x44 DUP3 ADD MSTORE PUSH1 0x64 ADD PUSH3 0x2D3 JUMP JUMPDEST PUSH1 0x5 SLOAD PUSH1 0x0 JUMPDEST DUP2 DUP2 LT ISZERO PUSH3 0x110D JUMPI PUSH1 0x5 DUP2 DUP2 SLOAD DUP2 LT PUSH3 0x105D JUMPI PUSH3 0x105D PUSH3 0x22A7 JUMP JUMPDEST PUSH1 0x0 SWAP2 DUP3 MSTORE PUSH1 0x20 SWAP1 SWAP2 KECCAK256 ADD SLOAD PUSH1 0x1 PUSH1 0x1 PUSH1 0x80 SHL SUB PUSH1 0x1 PUSH1 0x80 SHL SWAP1 SWAP2 DIV DUP2 AND SWAP1 DUP6 AND LT ISZERO DUP1 PUSH3 0x10BA JUMPI POP PUSH1 0x5 DUP2 DUP2 SLOAD DUP2 LT PUSH3 0x109D JUMPI PUSH3 0x109D PUSH3 0x22A7 JUMP JUMPDEST PUSH1 0x0 SWAP2 DUP3 MSTORE PUSH1 0x20 SWAP1 SWAP2 KECCAK256 ADD SLOAD PUSH1 0x1 PUSH1 0x1 PUSH1 0x80 SHL SUB SWAP1 DUP2 AND SWAP1 DUP5 AND GT ISZERO JUMPDEST PUSH3 0x10F8 JUMPI PUSH1 0x40 MLOAD PUSH3 0x461BCD PUSH1 0xE5 SHL DUP2 MSTORE PUSH1 0x20 PUSH1 0x4 DUP3 ADD MSTORE PUSH1 0xD PUSH1 0x24 DUP3 ADD MSTORE PUSH13 0x52616E6765206F7665726C617 PUSH1 0x9C SHL PUSH1 0x44 DUP3 ADD MSTORE PUSH1 0x64 ADD PUSH3 0x2D3 JUMP JUMPDEST DUP1 PUSH3 0x1104 DUP2 PUSH3 0x265B JUMP JUMPDEST SWAP2 POP POP PUSH3 0x103E JUMP JUMPDEST POP POP POP POP JUMP JUMPDEST PUSH3 0x110D DUP5 PUSH4 0x23B872DD PUSH1 0xE0 SHL DUP6 DUP6 DUP6 PUSH1 0x40 MLOAD PUSH1 0x24 ADD PUSH3 0x1137 SWAP4 SWAP3 SWAP2 SWAP1 PUSH3 0x25C3 JUMP JUMPDEST PUSH1 0x40 DUP1 MLOAD PUSH1 0x1F NOT DUP2 DUP5 SUB ADD DUP2 MSTORE SWAP2 SWAP1 MSTORE PUSH1 0x20 DUP2 ADD DUP1 MLOAD PUSH1 0x1 PUSH1 0x1 PUSH1 0xE0 SHL SUB AND PUSH1 0x1 PUSH1 0x1 PUSH1 0xE0 SHL SUB NOT SWAP1 SWAP4 AND SWAP3 SWAP1 SWAP3 OR SWAP1 SWAP2 MSTORE PUSH3 0x1DA7 JUMP JUMPDEST PUSH1 0x40 MLOAD PUSH4 0x6EB1769F PUSH1 0xE1 SHL DUP2 MSTORE ADDRESS PUSH1 0x4 DUP3 ADD MSTORE PUSH1 0x1 PUSH1 0x1 PUSH1 0xA0 SHL SUB DUP4 DUP2 AND PUSH1 0x24 DUP4 ADD MSTORE PUSH1 0x0 SWAP2 DUP4 SWAP2 DUP7 AND SWAP1 PUSH4 0xDD62ED3E SWAP1 PUSH1 0x44 ADD PUSH1 0x20 PUSH1 0x40 MLOAD DUP1 DUP4 SUB DUP2 DUP7 GAS STATICCALL ISZERO DUP1 ISZERO PUSH3 0x11C1 JUMPI RETURNDATASIZE PUSH1 0x0 DUP1 RETURNDATACOPY RETURNDATASIZE PUSH1 0x0 REVERT JUMPDEST POP POP POP POP PUSH1 0x40 MLOAD RETURNDATASIZE PUSH1 0x1F NOT PUSH1 0x1F DUP3 ADD AND DUP3 ADD DUP1 PUSH1 0x40 MSTORE POP DUP2 ADD SWAP1 PUSH3 0x11E7 SWAP2 SWAP1 PUSH3 0x2426 JUMP JUMPDEST PUSH3 0x11F3 SWAP2 SWAP1 PUSH3 0x2677 JUMP JUMPDEST PUSH1 0x40 MLOAD PUSH1 0x1 PUSH1 0x1 PUSH1 0xA0 SHL SUB DUP6 AND PUSH1 0x24 DUP3 ADD MSTORE PUSH1 0x44 DUP2 ADD DUP3 SWAP1 MSTORE SWAP1 SWAP2 POP PUSH3 0x110D SWAP1 DUP6 SWAP1 PUSH4 0x95EA7B3 PUSH1 0xE0 SHL SWAP1 PUSH1 0x64 ADD PUSH3 0x1137 JUMP JUMPDEST PUSH1 0x40 MLOAD PUSH1 0x1 PUSH1 0x1 PUSH1 0xA0 SHL SUB DUP4 AND PUSH1 0x24 DUP3 ADD MSTORE PUSH1 0x44 DUP2 ADD DUP3 SWAP1 MSTORE PUSH3 0x980 SWAP1 DUP5 SWAP1 PUSH4 0xA9059CBB PUSH1 0xE0 SHL SWAP1 PUSH1 0x64 ADD PUSH3 0x1137 JUMP JUMPDEST PUSH1 0x6 SLOAD DUP2 LT DUP1 ISZERO PUSH3 0x126D JUMPI POP PUSH1 0x7 SLOAD DUP2 LT JUMPDEST PUSH3 0x12AA JUMPI PUSH1 0x40 MLOAD PUSH3 0x461BCD PUSH1 0xE5 SHL DUP2 MSTORE PUSH1 0x20 PUSH1 0x4 DUP3 ADD MSTORE PUSH1 0xC PUSH1 0x24 DUP3 ADD MSTORE PUSH12 0x496E76616C6964207374657 PUSH1 0xA4 SHL PUSH1 0x44 DUP3 ADD MSTORE PUSH1 0x64 ADD PUSH3 0x2D3 JUMP JUMPDEST PUSH1 0x2 SLOAD PUSH1 0x6 DUP1 SLOAD PUSH1 0x0 SWAP3 PUSH1 0x1 PUSH1 0x1 PUSH1 0xA0 SHL SUB AND SWAP2 PUSH4 0x35EA6A75 SWAP2 DUP6 SWAP1 DUP2 LT PUSH3 0x12D7 JUMPI PUSH3 0x12D7 PUSH3 0x22A7 JUMP JUMPDEST PUSH1 0x0 SWAP2 DUP3 MSTORE PUSH1 0x20 SWAP1 SWAP2 KECCAK256 ADD SLOAD PUSH1 0x40 MLOAD PUSH1 0xE0 DUP4 SWAP1 SHL PUSH1 0x1 PUSH1 0x1 PUSH1 0xE0 SHL SUB NOT AND DUP2 MSTORE PUSH1 0x1 PUSH1 0x1 PUSH1 0xA0 SHL SUB SWAP1 SWAP2 AND PUSH1 0x4 DUP3 ADD MSTORE PUSH1 0x24 ADD PUSH2 0x180 PUSH1 0x40 MLOAD DUP1 DUP4 SUB DUP2 DUP7 GAS STATICCALL ISZERO DUP1 ISZERO PUSH3 0x1329 JUMPI RETURNDATASIZE PUSH1 0x0 DUP1 RETURNDATACOPY RETURNDATASIZE PUSH1 0x0 REVERT JUMPDEST POP POP POP POP PUSH1 0x40 MLOAD RETURNDATASIZE PUSH1 0x1F NOT PUSH1 0x1F DUP3 ADD AND DUP3 ADD DUP1 PUSH1 0x40 MSTORE POP DUP2 ADD SWAP1 PUSH3 0x134F SWAP2 SWAP1 PUSH3 0x24BB JUMP JUMPDEST PUSH1 0xE0 ADD MLOAD PUSH1 0x40 MLOAD PUSH4 0x70A08231 PUSH1 0xE0 SHL DUP2 MSTORE CALLER PUSH1 0x4 DUP3 ADD MSTORE PUSH1 0x1 PUSH1 0x1 PUSH1 0xA0 SHL SUB SWAP1 SWAP2 AND SWAP1 PUSH4 0x70A08231 SWAP1 PUSH1 0x24 ADD PUSH1 0x20 PUSH1 0x40 MLOAD DUP1 DUP4 SUB DUP2 DUP7 GAS STATICCALL ISZERO DUP1 ISZERO PUSH3 0x1399 JUMPI RETURNDATASIZE PUSH1 0x0 DUP1 RETURNDATACOPY RETURNDATASIZE PUSH1 0x0 REVERT JUMPDEST POP POP POP POP PUSH1 0x40 MLOAD RETURNDATASIZE PUSH1 0x1F NOT PUSH1 0x1F DUP3 ADD AND DUP3 ADD DUP1 PUSH1 0x40 MSTORE POP DUP2 ADD SWAP1 PUSH3 0x13BF SWAP2 SWAP1 PUSH3 0x2426 JUMP JUMPDEST SWAP1 POP DUP1 ISZERO PUSH3 0x1688 JUMPI PUSH1 0x2 SLOAD PUSH1 0x6 DUP1 SLOAD PUSH1 0x1 PUSH1 0x1 PUSH1 0xA0 SHL SUB SWAP1 SWAP3 AND SWAP2 PUSH4 0x8EBBD26 SWAP2 DUP4 SWAP2 PUSH4 0x35EA6A75 SWAP2 SWAP1 DUP8 SWAP1 DUP2 LT PUSH3 0x13FD JUMPI PUSH3 0x13FD PUSH3 0x22A7 JUMP JUMPDEST PUSH1 0x0 SWAP2 DUP3 MSTORE PUSH1 0x20 SWAP1 SWAP2 KECCAK256 ADD SLOAD PUSH1 0x40 MLOAD PUSH1 0xE0 DUP4 SWAP1 SHL PUSH1 0x1 PUSH1 0x1 PUSH1 0xE0 SHL SUB NOT AND DUP2 MSTORE PUSH1 0x1 PUSH1 0x1 PUSH1 0xA0 SHL SUB SWAP1 SWAP2 AND PUSH1 0x4 DUP3 ADD MSTORE PUSH1 0x24 ADD PUSH2 0x180 PUSH1 0x40 MLOAD DUP1 DUP4 SUB DUP2 DUP7 GAS STATICCALL ISZERO DUP1 ISZERO PUSH3 0x144F JUMPI RETURNDATASIZE PUSH1 0x0 DUP1 RETURNDATACOPY RETURNDATASIZE PUSH1 0x0 REVERT JUMPDEST POP POP POP POP PUSH1 0x40 MLOAD RETURNDATASIZE PUSH1 0x1F NOT PUSH1 0x1F DUP3 ADD AND DUP3 ADD DUP1 PUSH1 0x40 MSTORE POP DUP2 ADD SWAP1 PUSH3 0x1475 SWAP2 SWAP1 PUSH3 0x24BB JUMP JUMPDEST PUSH1 0xE0 ADD MLOAD CALLER DUP5 PUSH1 0x40 MLOAD DUP5 PUSH4 0xFFFFFFFF AND PUSH1 0xE0 SHL DUP2 MSTORE PUSH1 0x4 ADD PUSH3 0x149B SWAP4 SWAP3 SWAP2 SWAP1 PUSH3 0x25C3 JUMP JUMPDEST PUSH1 0x0 PUSH1 0x40 MLOAD DUP1 DUP4 SUB DUP2 PUSH1 0x0 DUP8 DUP1 EXTCODESIZE ISZERO DUP1 ISZERO PUSH3 0x14B6 JUMPI PUSH1 0x0 DUP1 REVERT JUMPDEST POP GAS CALL ISZERO DUP1 ISZERO PUSH3 0x14CB JUMPI RETURNDATASIZE PUSH1 0x0 DUP1 RETURNDATACOPY RETURNDATASIZE PUSH1 0x0 REVERT JUMPDEST POP POP PUSH1 0x2 SLOAD PUSH1 0x6 DUP1 SLOAD PUSH1 0x1 PUSH1 0x1 PUSH1 0xA0 SHL SUB SWAP1 SWAP3 AND SWAP4 POP PUSH4 0x69328DEC SWAP3 POP SWAP1 DUP6 SWAP1 DUP2 LT PUSH3 0x14FC JUMPI PUSH3 0x14FC PUSH3 0x22A7 JUMP JUMPDEST PUSH1 0x0 SWAP2 DUP3 MSTORE PUSH1 0x20 SWAP1 SWAP2 KECCAK256 ADD SLOAD PUSH1 0x40 MLOAD PUSH1 0x1 PUSH1 0x1 PUSH1 0xE0 SHL SUB NOT PUSH1 0xE0 DUP5 SWAP1 SHL AND DUP2 MSTORE PUSH3 0x153A SWAP2 PUSH1 0x1 PUSH1 0x1 PUSH1 0xA0 SHL SUB AND SWAP1 PUSH1 0x0 NOT SWAP1 ADDRESS SWAP1 PUSH1 0x4 ADD PUSH3 0x25E7 JUMP JUMPDEST PUSH1 0x20 PUSH1 0x40 MLOAD DUP1 DUP4 SUB DUP2 PUSH1 0x0 DUP8 GAS CALL ISZERO DUP1 ISZERO PUSH3 0x155A JUMPI RETURNDATASIZE PUSH1 0x0 DUP1 RETURNDATACOPY RETURNDATASIZE PUSH1 0x0 REVERT JUMPDEST POP POP POP POP PUSH1 0x40 MLOAD RETURNDATASIZE PUSH1 0x1F NOT PUSH1 0x1F DUP3 ADD AND DUP3 ADD DUP1 PUSH1 0x40 MSTORE POP DUP2 ADD SWAP1 PUSH3 0x1580 SWAP2 SWAP1 PUSH3 0x2426 JUMP JUMPDEST SWAP1 POP PUSH1 0x6 DUP3 DUP2 SLOAD DUP2 LT PUSH3 0x1598 JUMPI PUSH3 0x1598 PUSH3 0x22A7 JUMP JUMPDEST PUSH1 0x0 SWAP2 DUP3 MSTORE PUSH1 0x20 DUP3 KECCAK256 ADD SLOAD PUSH1 0x40 MLOAD PUSH4 0xA41FE49F PUSH1 0xE0 SHL DUP2 MSTORE PUSH1 0x4 DUP2 ADD DUP5 SWAP1 MSTORE PUSH1 0x24 DUP2 ADD DUP4 SWAP1 MSTORE PUSH1 0x44 DUP2 ADD SWAP3 SWAP1 SWAP3 MSTORE PUSH1 0x1 PUSH1 0x1 PUSH1 0xA0 SHL SUB AND SWAP1 PUSH4 0xA41FE49F SWAP1 PUSH1 0x64 ADD PUSH1 0x40 DUP1 MLOAD DUP1 DUP4 SUB DUP2 PUSH1 0x0 DUP8 GAS CALL ISZERO DUP1 ISZERO PUSH3 0x15F8 JUMPI RETURNDATASIZE PUSH1 0x0 DUP1 RETURNDATACOPY RETURNDATASIZE PUSH1 0x0 REVERT JUMPDEST POP POP POP POP PUSH1 0x40 MLOAD RETURNDATASIZE PUSH1 0x1F NOT PUSH1 0x1F DUP3 ADD AND DUP3 ADD DUP1 PUSH1 0x40 MSTORE POP DUP2 ADD SWAP1 PUSH3 0x161E SWAP2 SWAP1 PUSH3 0x268D JUMP JUMPDEST POP POP PUSH32 0x9B1BFA7FA9EE420A16E124F794C35AC9F90472ACC99140EB2F6447C714CAD8EB CALLER PUSH1 0x6 DUP5 DUP2 SLOAD DUP2 LT PUSH3 0x1658 JUMPI PUSH3 0x1658 PUSH3 0x22A7 JUMP JUMPDEST PUSH1 0x0 SWAP2 DUP3 MSTORE PUSH1 0x20 SWAP1 SWAP2 KECCAK256 ADD SLOAD PUSH1 0x40 MLOAD PUSH3 0x167F SWAP3 SWAP2 PUSH1 0x1 PUSH1 0x1 PUSH1 0xA0 SHL SUB AND SWAP1 DUP6 SWAP1 PUSH3 0x25C3 JUMP JUMPDEST PUSH1 0x40 MLOAD DUP1 SWAP2 SUB SWAP1 LOG1 JUMPDEST PUSH1 0x2 SLOAD PUSH1 0x7 DUP1 SLOAD PUSH1 0x1 PUSH1 0x1 PUSH1 0xA0 SHL SUB SWAP1 SWAP3 AND SWAP2 PUSH4 0x35EA6A75 SWAP2 SWAP1 DUP6 SWAP1 DUP2 LT PUSH3 0x16B5 JUMPI PUSH3 0x16B5 PUSH3 0x22A7 JUMP JUMPDEST PUSH1 0x0 SWAP2 DUP3 MSTORE PUSH1 0x20 SWAP1 SWAP2 KECCAK256 ADD SLOAD PUSH1 0x40 MLOAD PUSH1 0xE0 DUP4 SWAP1 SHL PUSH1 0x1 PUSH1 0x1 PUSH1 0xE0 SHL SUB NOT AND DUP2 MSTORE PUSH1 0x1 PUSH1 0x1 PUSH1 0xA0 SHL SUB SWAP1 SWAP2 AND PUSH1 0x4 DUP3 ADD MSTORE PUSH1 0x24 ADD PUSH2 0x180 PUSH1 0x40 MLOAD DUP1 DUP4 SUB DUP2 DUP7 GAS STATICCALL ISZERO DUP1 ISZERO PUSH3 0x1707 JUMPI RETURNDATASIZE PUSH1 0x0 DUP1 RETURNDATACOPY RETURNDATASIZE PUSH1 0x0 REVERT JUMPDEST POP POP POP POP PUSH1 0x40 MLOAD RETURNDATASIZE PUSH1 0x1F NOT PUSH1 0x1F DUP3 ADD AND DUP3 ADD DUP1 PUSH1 0x40 MSTORE POP DUP2 ADD SWAP1 PUSH3 0x172D SWAP2 SWAP1 PUSH3 0x24BB JUMP JUMPDEST PUSH1 0xE0 ADD MLOAD PUSH1 0x40 MLOAD PUSH4 0x70A08231 PUSH1 0xE0 SHL DUP2 MSTORE CALLER PUSH1 0x4 DUP3 ADD MSTORE PUSH1 0x1 PUSH1 0x1 PUSH1 0xA0 SHL SUB SWAP1 SWAP2 AND SWAP1 PUSH4 0x70A08231 SWAP1 PUSH1 0x24 ADD PUSH1 0x20 PUSH1 0x40 MLOAD DUP1 DUP4 SUB DUP2 DUP7 GAS STATICCALL ISZERO DUP1 ISZERO PUSH3 0x1777 JUMPI RETURNDATASIZE PUSH1 0x0 DUP1 RETURNDATACOPY RETURNDATASIZE PUSH1 0x0 REVERT JUMPDEST POP POP POP POP PUSH1 0x40 MLOAD RETURNDATASIZE PUSH1 0x1F NOT PUSH1 0x1F DUP3 ADD AND DUP3 ADD DUP1 PUSH1 0x40 MSTORE POP DUP2 ADD SWAP1 PUSH3 0x179D SWAP2 SWAP1 PUSH3 0x2426 JUMP JUMPDEST SWAP1 POP DUP1 ISZERO PUSH3 0x1A69 JUMPI PUSH1 0x2 SLOAD PUSH1 0x7 DUP1 SLOAD PUSH1 0x1 PUSH1 0x1 PUSH1 0xA0 SHL SUB SWAP1 SWAP3 AND SWAP2 PUSH4 0x8EBBD26 SWAP2 DUP4 SWAP2 PUSH4 0x35EA6A75 SWAP2 SWAP1 DUP8 SWAP1 DUP2 LT PUSH3 0x17DB JUMPI PUSH3 0x17DB PUSH3 0x22A7 JUMP JUMPDEST PUSH1 0x0 SWAP2 DUP3 MSTORE PUSH1 0x20 SWAP1 SWAP2 KECCAK256 ADD SLOAD PUSH1 0x40 MLOAD PUSH1 0xE0 DUP4 SWAP1 SHL PUSH1 0x1 PUSH1 0x1 PUSH1 0xE0 SHL SUB NOT AND DUP2 MSTORE PUSH1 0x1 PUSH1 0x1 PUSH1 0xA0 SHL SUB SWAP1 SWAP2 AND PUSH1 0x4 DUP3 ADD MSTORE PUSH1 0x24 ADD PUSH2 0x180 PUSH1 0x40 MLOAD DUP1 DUP4 SUB DUP2 DUP7 GAS STATICCALL ISZERO DUP1 ISZERO PUSH3 0x182D JUMPI RETURNDATASIZE PUSH1 0x0 DUP1 RETURNDATACOPY RETURNDATASIZE PUSH1 0x0 REVERT JUMPDEST POP POP POP POP PUSH1 0x40 MLOAD RETURNDATASIZE PUSH1 0x1F NOT PUSH1 0x1F DUP3 ADD AND DUP3 ADD DUP1 PUSH1 0x40 MSTORE POP DUP2 ADD SWAP1 PUSH3 0x1853 SWAP2 SWAP1 PUSH3 0x24BB JUMP JUMPDEST PUSH1 0xE0 ADD MLOAD CALLER DUP5 PUSH1 0x40 MLOAD DUP5 PUSH4 0xFFFFFFFF AND PUSH1 0xE0 SHL DUP2 MSTORE PUSH1 0x4 ADD PUSH3 0x1879 SWAP4 SWAP3 SWAP2 SWAP1 PUSH3 0x25C3 JUMP JUMPDEST PUSH1 0x0 PUSH1 0x40 MLOAD DUP1 DUP4 SUB DUP2 PUSH1 0x0 DUP8 DUP1 EXTCODESIZE ISZERO DUP1 ISZERO PUSH3 0x1894 JUMPI PUSH1 0x0 DUP1 REVERT JUMPDEST POP GAS CALL ISZERO DUP1 ISZERO PUSH3 0x18A9 JUMPI RETURNDATASIZE PUSH1 0x0 DUP1 RETURNDATACOPY RETURNDATASIZE PUSH1 0x0 REVERT JUMPDEST POP POP PUSH1 0x2 SLOAD PUSH1 0x7 DUP1 SLOAD PUSH1 0x0 SWAP5 POP PUSH1 0x1 PUSH1 0x1 PUSH1 0xA0 SHL SUB SWAP1 SWAP3 AND SWAP3 POP PUSH4 0x69328DEC SWAP2 DUP7 SWAP1 DUP2 LT PUSH3 0x18DC JUMPI PUSH3 0x18DC PUSH3 0x22A7 JUMP JUMPDEST PUSH1 0x0 SWAP2 DUP3 MSTORE PUSH1 0x20 SWAP1 SWAP2 KECCAK256 ADD SLOAD PUSH1 0x40 MLOAD PUSH1 0x1 PUSH1 0x1 PUSH1 0xE0 SHL SUB NOT PUSH1 0xE0 DUP5 SWAP1 SHL AND DUP2 MSTORE PUSH3 0x191A SWAP2 PUSH1 0x1 PUSH1 0x1 PUSH1 0xA0 SHL SUB AND SWAP1 PUSH1 0x0 NOT SWAP1 ADDRESS SWAP1 PUSH1 0x4 ADD PUSH3 0x25E7 JUMP JUMPDEST PUSH1 0x20 PUSH1 0x40 MLOAD DUP1 DUP4 SUB DUP2 PUSH1 0x0 DUP8 GAS CALL ISZERO DUP1 ISZERO PUSH3 0x193A JUMPI RETURNDATASIZE PUSH1 0x0 DUP1 RETURNDATACOPY RETURNDATASIZE PUSH1 0x0 REVERT JUMPDEST POP POP POP POP PUSH1 0x40 MLOAD RETURNDATASIZE PUSH1 0x1F NOT PUSH1 0x1F DUP3 ADD AND DUP3 ADD DUP1 PUSH1 0x40 MSTORE POP DUP2 ADD SWAP1 PUSH3 0x1960 SWAP2 SWAP1 PUSH3 0x2426 JUMP JUMPDEST SWAP1 POP PUSH1 0x7 DUP4 DUP2 SLOAD DUP2 LT PUSH3 0x1978 JUMPI PUSH3 0x1978 PUSH3 0x22A7 JUMP JUMPDEST PUSH1 0x0 SWAP2 DUP3 MSTORE PUSH1 0x20 DUP3 KECCAK256 ADD SLOAD PUSH1 0x40 MLOAD PUSH4 0xA41FE49F PUSH1 0xE0 SHL DUP2 MSTORE PUSH1 0x4 DUP2 ADD DUP5 SWAP1 MSTORE PUSH1 0x24 DUP2 ADD DUP4 SWAP1 MSTORE PUSH1 0x44 DUP2 ADD SWAP3 SWAP1 SWAP3 MSTORE PUSH1 0x1 PUSH1 0x1 PUSH1 0xA0 SHL SUB AND SWAP1 PUSH4 0xA41FE49F SWAP1 PUSH1 0x64 ADD PUSH1 0x40 DUP1 MLOAD DUP1 DUP4 SUB DUP2 PUSH1 0x0 DUP8 GAS CALL ISZERO DUP1 ISZERO PUSH3 0x19D8 JUMPI RETURNDATASIZE PUSH1 0x0 DUP1 RETURNDATACOPY RETURNDATASIZE PUSH1 0x0 REVERT JUMPDEST POP POP POP POP PUSH1 0x40 MLOAD RETURNDATASIZE PUSH1 0x1F NOT PUSH1 0x1F DUP3 ADD AND DUP3 ADD DUP1 PUSH1 0x40 MSTORE POP DUP2 ADD SWAP1 PUSH3 0x19FE SWAP2 SWAP1 PUSH3 0x268D JUMP JUMPDEST POP POP PUSH32 0x9B1BFA7FA9EE420A16E124F794C35AC9F90472ACC99140EB2F6447C714CAD8EB CALLER PUSH1 0x7 DUP6 DUP2 SLOAD DUP2 LT PUSH3 0x1A38 JUMPI PUSH3 0x1A38 PUSH3 0x22A7 JUMP JUMPDEST PUSH1 0x0 SWAP2 DUP3 MSTORE PUSH1 0x20 SWAP1 SWAP2 KECCAK256 ADD SLOAD PUSH1 0x40 MLOAD PUSH3 0x1A5F SWAP3 SWAP2 PUSH1 0x1 PUSH1 0x1 PUSH1 0xA0 SHL SUB AND SWAP1 DUP7 SWAP1 PUSH3 0x25C3 JUMP JUMPDEST PUSH1 0x40 MLOAD DUP1 SWAP2 SUB SWAP1 LOG1 POP JUMPDEST POP POP JUMP JUMPDEST PUSH1 0x3 SLOAD PUSH1 0x40 MLOAD PUSH4 0x70A08231 PUSH1 0xE0 SHL DUP2 MSTORE ADDRESS PUSH1 0x4 DUP3 ADD MSTORE PUSH1 0x0 SWAP2 PUSH1 0x1 PUSH1 0x1 PUSH1 0xA0 SHL SUB AND SWAP1 PUSH4 0x70A08231 SWAP1 PUSH1 0x24 ADD PUSH1 0x20 PUSH1 0x40 MLOAD DUP1 DUP4 SUB DUP2 DUP7 GAS STATICCALL ISZERO DUP1 ISZERO PUSH3 0x1AB7 JUMPI RETURNDATASIZE PUSH1 0x0 DUP1 RETURNDATACOPY RETURNDATASIZE PUSH1 0x0 REVERT JUMPDEST POP POP POP POP PUSH1 0x40 MLOAD RETURNDATASIZE PUSH1 0x1F NOT PUSH1 0x1F DUP3 ADD AND DUP3 ADD DUP1 PUSH1 0x40 MSTORE POP DUP2 ADD SWAP1 PUSH3 0x1ADD SWAP2 SWAP1 PUSH3 0x2426 JUMP JUMPDEST PUSH1 0x4 DUP1 SLOAD PUSH1 0x40 MLOAD PUSH4 0x70A08231 PUSH1 0xE0 SHL DUP2 MSTORE ADDRESS SWAP3 DUP2 ADD SWAP3 SWAP1 SWAP3 MSTORE SWAP2 SWAP3 POP PUSH1 0x0 SWAP2 PUSH1 0x1 PUSH1 0x1 PUSH1 0xA0 SHL SUB AND SWAP1 PUSH4 0x70A08231 SWAP1 PUSH1 0x24 ADD PUSH1 0x20 PUSH1 0x40 MLOAD DUP1 DUP4 SUB DUP2 DUP7 GAS STATICCALL ISZERO DUP1 ISZERO PUSH3 0x1B2D JUMPI RETURNDATASIZE PUSH1 0x0 DUP1 RETURNDATACOPY RETURNDATASIZE PUSH1 0x0 REVERT JUMPDEST POP POP POP POP PUSH1 0x40 MLOAD RETURNDATASIZE PUSH1 0x1F NOT PUSH1 0x1F DUP3 ADD AND DUP3 ADD DUP1 PUSH1 0x40 MSTORE POP DUP2 ADD SWAP1 PUSH3 0x1B53 SWAP2 SWAP1 PUSH3 0x2426 JUMP JUMPDEST SWAP1 POP DUP2 ISZERO PUSH3 0x1BED JUMPI PUSH1 0x2 SLOAD PUSH1 0x3 SLOAD PUSH3 0x1B7B SWAP2 PUSH1 0x1 PUSH1 0x1 PUSH1 0xA0 SHL SUB SWAP2 DUP3 AND SWAP2 AND DUP5 PUSH3 0x116F JUMP JUMPDEST PUSH1 0x2 SLOAD PUSH1 0x3 SLOAD PUSH1 0x40 MLOAD PUSH4 0xE8EDA9DF PUSH1 0xE0 SHL DUP2 MSTORE PUSH1 0x1 PUSH1 0x1 PUSH1 0xA0 SHL SUB SWAP3 DUP4 AND SWAP3 PUSH4 0xE8EDA9DF SWAP3 PUSH3 0x1BB8 SWAP3 SWAP2 AND SWAP1 DUP7 SWAP1 CALLER SWAP1 PUSH1 0x0 SWAP1 PUSH1 0x4 ADD PUSH3 0x262E JUMP JUMPDEST PUSH1 0x0 PUSH1 0x40 MLOAD DUP1 DUP4 SUB DUP2 PUSH1 0x0 DUP8 DUP1 EXTCODESIZE ISZERO DUP1 ISZERO PUSH3 0x1BD3 JUMPI PUSH1 0x0 DUP1 REVERT JUMPDEST POP GAS CALL ISZERO DUP1 ISZERO PUSH3 0x1BE8 JUMPI RETURNDATASIZE PUSH1 0x0 DUP1 RETURNDATACOPY RETURNDATASIZE PUSH1 0x0 REVERT JUMPDEST POP POP POP POP JUMPDEST DUP1 ISZERO PUSH3 0x1C85 JUMPI PUSH1 0x2 SLOAD PUSH1 0x4 SLOAD PUSH3 0x1C13 SWAP2 PUSH1 0x1 PUSH1 0x1 PUSH1 0xA0 SHL SUB SWAP2 DUP3 AND SWAP2 AND DUP4 PUSH3 0x116F JUMP JUMPDEST PUSH1 0x2 SLOAD PUSH1 0x4 DUP1 SLOAD PUSH1 0x40 MLOAD PUSH4 0xE8EDA9DF PUSH1 0xE0 SHL DUP2 MSTORE PUSH1 0x1 PUSH1 0x1 PUSH1 0xA0 SHL SUB SWAP4 DUP5 AND SWAP4 PUSH4 0xE8EDA9DF SWAP4 PUSH3 0x1C50 SWAP4 SWAP1 SWAP2 AND SWAP2 DUP7 SWAP2 CALLER SWAP2 PUSH1 0x0 SWAP2 ADD PUSH3 0x262E JUMP JUMPDEST PUSH1 0x0 PUSH1 0x40 MLOAD DUP1 DUP4 SUB DUP2 PUSH1 0x0 DUP8 DUP1 EXTCODESIZE ISZERO DUP1 ISZERO PUSH3 0x1C6B JUMPI PUSH1 0x0 DUP1 REVERT JUMPDEST POP GAS CALL ISZERO DUP1 ISZERO PUSH3 0x1C80 JUMPI RETURNDATASIZE PUSH1 0x0 DUP1 RETURNDATACOPY RETURNDATASIZE PUSH1 0x0 REVERT JUMPDEST POP POP POP POP JUMPDEST PUSH1 0x2 SLOAD PUSH1 0x40 MLOAD PUSH4 0x2FE4A15F PUSH1 0xE2 SHL DUP2 MSTORE CALLER PUSH1 0x4 DUP3 ADD MSTORE PUSH1 0x0 SWAP2 PUSH1 0x1 PUSH1 0x1 PUSH1 0xA0 SHL SUB AND SWAP1 PUSH4 0xBF92857C SWAP1 PUSH1 0x24 ADD PUSH1 0xC0 PUSH1 0x40 MLOAD DUP1 DUP4 SUB DUP2 DUP7 GAS STATICCALL ISZERO DUP1 ISZERO PUSH3 0x1CCF JUMPI RETURNDATASIZE PUSH1 0x0 DUP1 RETURNDATACOPY RETURNDATASIZE PUSH1 0x0 REVERT JUMPDEST POP POP POP POP PUSH1 0x40 MLOAD RETURNDATASIZE PUSH1 0x1F NOT PUSH1 0x1F DUP3 ADD AND DUP3 ADD DUP1 PUSH1 0x40 MSTORE POP DUP2 ADD SWAP1 PUSH3 0x1CF5 SWAP2 SWAP1 PUSH3 0x26B2 JUMP JUMPDEST SWAP6 POP POP POP POP POP POP PUSH8 0xE043DA617250000 DUP2 GT PUSH3 0x980 JUMPI PUSH1 0x40 MLOAD PUSH3 0x461BCD PUSH1 0xE5 SHL DUP2 MSTORE PUSH1 0x20 PUSH1 0x4 DUP3 ADD MSTORE PUSH1 0x18 PUSH1 0x24 DUP3 ADD MSTORE PUSH32 0x4865616C746820666163746F7220697320746F6F206C6F770000000000000000 PUSH1 0x44 DUP3 ADD MSTORE PUSH1 0x64 ADD PUSH3 0x2D3 JUMP JUMPDEST PUSH1 0x1 DUP1 SLOAD PUSH1 0x1 PUSH1 0x1 PUSH1 0xA0 SHL SUB DUP4 DUP2 AND PUSH1 0x1 PUSH1 0x1 PUSH1 0xA0 SHL SUB NOT DUP4 AND DUP2 OR SWAP1 SWAP4 SSTORE PUSH1 0x40 MLOAD SWAP2 AND SWAP2 SWAP1 DUP3 SWAP1 PUSH32 0x8BE0079C531659141344CD1FD0A4F28419497F9722A3DAAFE3B4186F6B6457E0 SWAP1 PUSH1 0x0 SWAP1 LOG3 POP POP JUMP JUMPDEST PUSH1 0x0 PUSH3 0x1DFE DUP3 PUSH1 0x40 MLOAD DUP1 PUSH1 0x40 ADD PUSH1 0x40 MSTORE DUP1 PUSH1 0x20 DUP2 MSTORE PUSH1 0x20 ADD PUSH32 0x5361666545524332303A206C6F772D6C6576656C2063616C6C206661696C6564 DUP2 MSTORE POP DUP6 PUSH1 0x1 PUSH1 0x1 PUSH1 0xA0 SHL SUB AND PUSH3 0x1E80 SWAP1 SWAP3 SWAP2 SWAP1 PUSH4 0xFFFFFFFF AND JUMP JUMPDEST DUP1 MLOAD SWAP1 SWAP2 POP ISZERO PUSH3 0x980 JUMPI DUP1 DUP1 PUSH1 0x20 ADD SWAP1 MLOAD DUP2 ADD SWAP1 PUSH3 0x1E1F SWAP2 SWAP1 PUSH3 0x260A JUMP JUMPDEST PUSH3 0x980 JUMPI PUSH1 0x40 MLOAD PUSH3 0x461BCD PUSH1 0xE5 SHL DUP2 MSTORE PUSH1 0x20 PUSH1 0x4 DUP3 ADD MSTORE PUSH1 0x2A PUSH1 0x24 DUP3 ADD MSTORE PUSH32 0x5361666545524332303A204552433230206F7065726174696F6E20646964206E PUSH1 0x44 DUP3 ADD MSTORE PUSH10 0x1BDD081CDD58D8D95959 PUSH1 0xB2 SHL PUSH1 0x64 DUP3 ADD MSTORE PUSH1 0x84 ADD PUSH3 0x2D3 JUMP JUMPDEST PUSH1 0x60 PUSH3 0x1E91 DUP5 DUP5 PUSH1 0x0 DUP6 PUSH3 0x1E9B JUMP JUMPDEST SWAP1 POP JUMPDEST SWAP4 SWAP3 POP POP POP JUMP JUMPDEST PUSH1 0x60 DUP3 SELFBALANCE LT ISZERO PUSH3 0x1EFE JUMPI PUSH1 0x40 MLOAD PUSH3 0x461BCD PUSH1 0xE5 SHL DUP2 MSTORE PUSH1 0x20 PUSH1 0x4 DUP3 ADD MSTORE PUSH1 0x26 PUSH1 0x24 DUP3 ADD MSTORE PUSH32 0x416464726573733A20696E73756666696369656E742062616C616E636520666F PUSH1 0x44 DUP3 ADD MSTORE PUSH6 0x1C8818D85B1B PUSH1 0xD2 SHL PUSH1 0x64 DUP3 ADD MSTORE PUSH1 0x84 ADD PUSH3 0x2D3 JUMP JUMPDEST PUSH1 0x1 PUSH1 0x1 PUSH1 0xA0 SHL SUB DUP6 AND EXTCODESIZE PUSH3 0x1F57 JUMPI PUSH1 0x40 MLOAD PUSH3 0x461BCD PUSH1 0xE5 SHL DUP2 MSTORE PUSH1 0x20 PUSH1 0x4 DUP3 ADD MSTORE PUSH1 0x1D PUSH1 0x24 DUP3 ADD MSTORE PUSH32 0x416464726573733A2063616C6C20746F206E6F6E2D636F6E7472616374000000 PUSH1 0x44 DUP3 ADD MSTORE PUSH1 0x64 ADD PUSH3 0x2D3 JUMP JUMPDEST PUSH1 0x0 DUP1 DUP7 PUSH1 0x1 PUSH1 0x1 PUSH1 0xA0 SHL SUB AND DUP6 DUP8 PUSH1 0x40 MLOAD PUSH3 0x1F75 SWAP2 SWAP1 PUSH3 0x26FD JUMP JUMPDEST PUSH1 0x0 PUSH1 0x40 MLOAD DUP1 DUP4 SUB DUP2 DUP6 DUP8 GAS CALL SWAP3 POP POP POP RETURNDATASIZE DUP1 PUSH1 0x0 DUP2 EQ PUSH3 0x1FB4 JUMPI PUSH1 0x40 MLOAD SWAP2 POP PUSH1 0x1F NOT PUSH1 0x3F RETURNDATASIZE ADD AND DUP3 ADD PUSH1 0x40 MSTORE RETURNDATASIZE DUP3 MSTORE RETURNDATASIZE PUSH1 0x0 PUSH1 0x20 DUP5 ADD RETURNDATACOPY PUSH3 0x1FB9 JUMP JUMPDEST PUSH1 0x60 SWAP2 POP JUMPDEST POP SWAP2 POP SWAP2 POP PUSH3 0x1FCB DUP3 DUP3 DUP7 PUSH3 0x1FD6 JUMP JUMPDEST SWAP8 SWAP7 POP POP POP POP POP POP POP JUMP JUMPDEST PUSH1 0x60 DUP4 ISZERO PUSH3 0x1FE7 JUMPI POP DUP2 PUSH3 0x1E94 JUMP JUMPDEST DUP3 MLOAD ISZERO PUSH3 0x1FF8 JUMPI DUP3 MLOAD DUP1 DUP5 PUSH1 0x20 ADD REVERT JUMPDEST DUP2 PUSH1 0x40 MLOAD PUSH3 0x461BCD PUSH1 0xE5 SHL DUP2 MSTORE PUSH1 0x4 ADD PUSH3 0x2D3 SWAP2 SWAP1 PUSH3 0x271B JUMP JUMPDEST PUSH2 0x74F DUP1 PUSH3 0x2731 DUP4 CODECOPY ADD SWAP1 JUMP JUMPDEST PUSH1 0x0 DUP1 PUSH1 0x0 PUSH1 0x60 DUP5 DUP7 SUB SLT ISZERO PUSH3 0x2038 JUMPI PUSH1 0x0 DUP1 REVERT JUMPDEST POP POP DUP2 CALLDATALOAD SWAP4 PUSH1 0x20 DUP4 ADD CALLDATALOAD SWAP4 POP PUSH1 0x40 SWAP1 SWAP3 ADD CALLDATALOAD SWAP2 SWAP1 POP JUMP JUMPDEST PUSH1 0x0 PUSH1 0x20 DUP3 DUP5 SUB SLT ISZERO PUSH3 0x2062 JUMPI PUSH1 0x0 DUP1 REVERT JUMPDEST POP CALLDATALOAD SWAP2 SWAP1 POP JUMP JUMPDEST PUSH1 0x1 PUSH1 0x1 PUSH1 0x80 SHL SUB DUP2 AND DUP2 EQ PUSH3 0xB34 JUMPI PUSH1 0x0 DUP1 REVERT JUMPDEST PUSH4 0x4E487B71 PUSH1 0xE0 SHL PUSH1 0x0 MSTORE PUSH1 0x41 PUSH1 0x4 MSTORE PUSH1 0x24 PUSH1 0x0 REVERT JUMPDEST PUSH1 0x40 MLOAD PUSH2 0x180 DUP2 ADD PUSH8 0xFFFFFFFFFFFFFFFF DUP2 GT DUP3 DUP3 LT OR ISZERO PUSH3 0x20BC JUMPI PUSH3 0x20BC PUSH3 0x207F JUMP JUMPDEST PUSH1 0x40 MSTORE SWAP1 JUMP JUMPDEST PUSH1 0x0 DUP3 PUSH1 0x1F DUP4 ADD SLT PUSH3 0x20D4 JUMPI PUSH1 0x0 DUP1 REVERT JUMPDEST DUP2 CALLDATALOAD PUSH8 0xFFFFFFFFFFFFFFFF DUP1 DUP3 GT ISZERO PUSH3 0x20F2 JUMPI PUSH3 0x20F2 PUSH3 0x207F JUMP JUMPDEST PUSH1 0x40 MLOAD PUSH1 0x1F DUP4 ADD PUSH1 0x1F NOT SWAP1 DUP2 AND PUSH1 0x3F ADD AND DUP2 ADD SWAP1 DUP3 DUP3 GT DUP2 DUP4 LT OR ISZERO PUSH3 0x211D JUMPI PUSH3 0x211D PUSH3 0x207F JUMP JUMPDEST DUP2 PUSH1 0x40 MSTORE DUP4 DUP2 MSTORE DUP7 PUSH1 0x20 DUP6 DUP9 ADD ADD GT ISZERO PUSH3 0x2137 JUMPI PUSH1 0x0 DUP1 REVERT JUMPDEST DUP4 PUSH1 0x20 DUP8 ADD PUSH1 0x20 DUP4 ADD CALLDATACOPY PUSH1 0x0 PUSH1 0x20 DUP6 DUP4 ADD ADD MSTORE DUP1 SWAP5 POP POP POP POP POP SWAP3 SWAP2 POP POP JUMP JUMPDEST PUSH1 0x1 PUSH1 0x1 PUSH1 0xA0 SHL SUB DUP2 AND DUP2 EQ PUSH3 0xB34 JUMPI PUSH1 0x0 DUP1 REVERT JUMPDEST PUSH1 0x0 DUP1 PUSH1 0x0 DUP1 PUSH1 0x0 PUSH1 0xA0 DUP7 DUP9 SUB SLT ISZERO PUSH3 0x2186 JUMPI PUSH1 0x0 DUP1 REVERT JUMPDEST DUP6 CALLDATALOAD PUSH3 0x2193 DUP2 PUSH3 0x2069 JUMP JUMPDEST SWAP5 POP PUSH1 0x20 DUP7 ADD CALLDATALOAD PUSH3 0x21A5 DUP2 PUSH3 0x2069 JUMP JUMPDEST SWAP4 POP PUSH1 0x40 DUP7 ADD CALLDATALOAD PUSH8 0xFFFFFFFFFFFFFFFF DUP1 DUP3 GT ISZERO PUSH3 0x21C3 JUMPI PUSH1 0x0 DUP1 REVERT JUMPDEST PUSH3 0x21D1 DUP10 DUP4 DUP11 ADD PUSH3 0x20C2 JUMP JUMPDEST SWAP5 POP PUSH1 0x60 DUP9 ADD CALLDATALOAD SWAP2 POP DUP1 DUP3 GT ISZERO PUSH3 0x21E8 JUMPI PUSH1 0x0 DUP1 REVERT JUMPDEST POP PUSH3 0x21F7 DUP9 DUP3 DUP10 ADD PUSH3 0x20C2 JUMP JUMPDEST SWAP3 POP POP PUSH1 0x80 DUP7 ADD CALLDATALOAD PUSH3 0x220A DUP2 PUSH3 0x2157 JUMP JUMPDEST DUP1 SWAP2 POP POP SWAP3 SWAP6 POP SWAP3 SWAP6 SWAP1 SWAP4 POP JUMP JUMPDEST PUSH1 0x0 DUP1 PUSH1 0x0 PUSH1 0x60 DUP5 DUP7 SUB SLT ISZERO PUSH3 0x222E JUMPI PUSH1 0x0 DUP1 REVERT JUMPDEST DUP4 CALLDATALOAD PUSH3 0x223B DUP2 PUSH3 0x2157 JUMP JUMPDEST SWAP6 PUSH1 0x20 DUP6 ADD CALLDATALOAD SWAP6 POP PUSH1 0x40 SWAP1 SWAP5 ADD CALLDATALOAD SWAP4 SWAP3 POP POP POP JUMP JUMPDEST PUSH1 0x0 PUSH1 0x20 DUP3 DUP5 SUB SLT ISZERO PUSH3 0x2263 JUMPI PUSH1 0x0 DUP1 REVERT JUMPDEST DUP2 CALLDATALOAD PUSH3 0x1E94 DUP2 PUSH3 0x2157 JUMP JUMPDEST PUSH1 0x20 DUP1 DUP3 MSTORE PUSH1 0x1F SWAP1 DUP3 ADD MSTORE PUSH32 0x5265656E7472616E637947756172643A207265656E7472616E742063616C6C00 PUSH1 0x40 DUP3 ADD MSTORE PUSH1 0x60 ADD SWAP1 JUMP JUMPDEST PUSH4 0x4E487B71 PUSH1 0xE0 SHL PUSH1 0x0 MSTORE PUSH1 0x32 PUSH1 0x4 MSTORE PUSH1 0x24 PUSH1 0x0 REVERT JUMPDEST PUSH1 0x20 DUP1 DUP3 MSTORE DUP2 DUP2 ADD MSTORE PUSH32 0x4F776E61626C653A2063616C6C6572206973206E6F7420746865206F776E6572 PUSH1 0x40 DUP3 ADD MSTORE PUSH1 0x60 ADD SWAP1 JUMP JUMPDEST PUSH1 0x0 PUSH1 0x20 DUP3 DUP5 SUB SLT ISZERO PUSH3 0x2305 JUMPI PUSH1 0x0 DUP1 REVERT JUMPDEST DUP2 MLOAD PUSH3 0x1E94 DUP2 PUSH3 0x2157 JUMP JUMPDEST DUP1 MLOAD PUSH3 0x231F DUP2 PUSH3 0x2157 JUMP JUMPDEST SWAP2 SWAP1 POP JUMP JUMPDEST PUSH4 0x4E487B71 PUSH1 0xE0 SHL PUSH1 0x0 MSTORE PUSH1 0x11 PUSH1 0x4 MSTORE PUSH1 0x24 PUSH1 0x0 REVERT JUMPDEST DUP2 DUP2 SUB DUP2 DUP2 GT ISZERO PUSH3 0x2350 JUMPI PUSH3 0x2350 PUSH3 0x2324 JUMP JUMPDEST SWAP3 SWAP2 POP POP JUMP JUMPDEST PUSH1 0x0 JUMPDEST DUP4 DUP2 LT ISZERO PUSH3 0x2373 JUMPI DUP2 DUP2 ADD MLOAD DUP4 DUP3 ADD MSTORE PUSH1 0x20 ADD PUSH3 0x2359 JUMP JUMPDEST POP POP PUSH1 0x0 SWAP2 ADD MSTORE JUMP JUMPDEST PUSH1 0x0 DUP2 MLOAD DUP1 DUP5 MSTORE PUSH3 0x2396 DUP2 PUSH1 0x20 DUP7 ADD PUSH1 0x20 DUP7 ADD PUSH3 0x2356 JUMP JUMPDEST PUSH1 0x1F ADD PUSH1 0x1F NOT AND SWAP3 SWAP1 SWAP3 ADD PUSH1 0x20 ADD SWAP3 SWAP2 POP POP JUMP JUMPDEST PUSH1 0x1 PUSH1 0x1 PUSH1 0xA0 SHL SUB DUP10 DUP2 AND DUP3 MSTORE DUP9 DUP2 AND PUSH1 0x20 DUP4 ADD MSTORE DUP8 AND PUSH1 0x40 DUP3 ADD MSTORE PUSH1 0x1 PUSH1 0x1 PUSH1 0x80 SHL SUB DUP7 DUP2 AND PUSH1 0x60 DUP4 ADD MSTORE DUP6 AND PUSH1 0x80 DUP3 ADD MSTORE PUSH2 0x100 PUSH1 0xA0 DUP3 ADD DUP2 SWAP1 MSTORE PUSH1 0x0 SWAP1 PUSH3 0x23F8 DUP4 DUP3 ADD DUP8 PUSH3 0x237C JUMP JUMPDEST SWAP1 POP DUP3 DUP2 SUB PUSH1 0xC0 DUP5 ADD MSTORE PUSH3 0x240E DUP2 DUP7 PUSH3 0x237C JUMP JUMPDEST SWAP2 POP POP DUP3 ISZERO ISZERO PUSH1 0xE0 DUP4 ADD MSTORE SWAP10 SWAP9 POP POP POP POP POP POP POP POP POP JUMP JUMPDEST PUSH1 0x0 PUSH1 0x20 DUP3 DUP5 SUB SLT ISZERO PUSH3 0x2439 JUMPI PUSH1 0x0 DUP1 REVERT JUMPDEST POP MLOAD SWAP2 SWAP1 POP JUMP JUMPDEST PUSH1 0x0 PUSH1 0x20 DUP3 DUP5 SUB SLT ISZERO PUSH3 0x2453 JUMPI PUSH1 0x0 DUP1 REVERT JUMPDEST PUSH1 0x40 MLOAD PUSH1 0x20 DUP2 ADD DUP2 DUP2 LT PUSH8 0xFFFFFFFFFFFFFFFF DUP3 GT OR ISZERO PUSH3 0x2479 JUMPI PUSH3 0x2479 PUSH3 0x207F JUMP JUMPDEST PUSH1 0x40 MSTORE SWAP2 MLOAD DUP3 MSTORE POP SWAP2 SWAP1 POP JUMP JUMPDEST DUP1 MLOAD PUSH3 0x231F DUP2 PUSH3 0x2069 JUMP JUMPDEST DUP1 MLOAD PUSH5 0xFFFFFFFFFF DUP2 AND DUP2 EQ PUSH3 0x231F JUMPI PUSH1 0x0 DUP1 REVERT JUMPDEST DUP1 MLOAD PUSH1 0xFF DUP2 AND DUP2 EQ PUSH3 0x231F JUMPI PUSH1 0x0 DUP1 REVERT JUMPDEST PUSH1 0x0 PUSH2 0x180 DUP3 DUP5 SUB SLT ISZERO PUSH3 0x24CF JUMPI PUSH1 0x0 DUP1 REVERT JUMPDEST PUSH3 0x24D9 PUSH3 0x2095 JUMP JUMPDEST PUSH3 0x24E5 DUP5 DUP5 PUSH3 0x2440 JUMP JUMPDEST DUP2 MSTORE PUSH3 0x24F5 PUSH1 0x20 DUP5 ADD PUSH3 0x2486 JUMP JUMPDEST PUSH1 0x20 DUP3 ADD MSTORE PUSH3 0x2508 PUSH1 0x40 DUP5 ADD PUSH3 0x2486 JUMP JUMPDEST PUSH1 0x40 DUP3 ADD MSTORE PUSH3 0x251B PUSH1 0x60 DUP5 ADD PUSH3 0x2486 JUMP JUMPDEST PUSH1 0x60 DUP3 ADD MSTORE PUSH3 0x252E PUSH1 0x80 DUP5 ADD PUSH3 0x2486 JUMP JUMPDEST PUSH1 0x80 DUP3 ADD MSTORE PUSH3 0x2541 PUSH1 0xA0 DUP5 ADD PUSH3 0x2486 JUMP JUMPDEST PUSH1 0xA0 DUP3 ADD MSTORE PUSH3 0x2554 PUSH1 0xC0 DUP5 ADD PUSH3 0x2493 JUMP JUMPDEST PUSH1 0xC0 DUP3 ADD MSTORE PUSH3 0x2567 PUSH1 0xE0 DUP5 ADD PUSH3 0x2312 JUMP JUMPDEST PUSH1 0xE0 DUP3 ADD MSTORE PUSH2 0x100 PUSH3 0x257C DUP2 DUP6 ADD PUSH3 0x2312 JUMP JUMPDEST SWAP1 DUP3 ADD MSTORE PUSH2 0x120 PUSH3 0x2590 DUP5 DUP3 ADD PUSH3 0x2312 JUMP JUMPDEST SWAP1 DUP3 ADD MSTORE PUSH2 0x140 PUSH3 0x25A4 DUP5 DUP3 ADD PUSH3 0x2312 JUMP JUMPDEST SWAP1 DUP3 ADD MSTORE PUSH2 0x160 PUSH3 0x25B8 DUP5 DUP3 ADD PUSH3 0x24A9 JUMP JUMPDEST SWAP1 DUP3 ADD MSTORE SWAP4 SWAP3 POP POP POP JUMP JUMPDEST PUSH1 0x1 PUSH1 0x1 PUSH1 0xA0 SHL SUB SWAP4 DUP5 AND DUP2 MSTORE SWAP2 SWAP1 SWAP3 AND PUSH1 0x20 DUP3 ADD MSTORE PUSH1 0x40 DUP2 ADD SWAP2 SWAP1 SWAP2 MSTORE PUSH1 0x60 ADD SWAP1 JUMP JUMPDEST PUSH1 0x1 PUSH1 0x1 PUSH1 0xA0 SHL SUB SWAP4 DUP5 AND DUP2 MSTORE PUSH1 0x20 DUP2 ADD SWAP3 SWAP1 SWAP3 MSTORE SWAP1 SWAP2 AND PUSH1 0x40 DUP3 ADD MSTORE PUSH1 0x60 ADD SWAP1 JUMP JUMPDEST PUSH1 0x0 PUSH1 0x20 DUP3 DUP5 SUB SLT ISZERO PUSH3 0x261D JUMPI PUSH1 0x0 DUP1 REVERT JUMPDEST DUP2 MLOAD DUP1 ISZERO ISZERO DUP2 EQ PUSH3 0x1E94 JUMPI PUSH1 0x0 DUP1 REVERT JUMPDEST PUSH1 0x1 PUSH1 0x1 PUSH1 0xA0 SHL SUB SWAP5 DUP6 AND DUP2 MSTORE PUSH1 0x20 DUP2 ADD SWAP4 SWAP1 SWAP4 MSTORE SWAP3 AND PUSH1 0x40 DUP3 ADD MSTORE PUSH2 0xFFFF SWAP1 SWAP2 AND PUSH1 0x60 DUP3 ADD MSTORE PUSH1 0x80 ADD SWAP1 JUMP JUMPDEST PUSH1 0x0 PUSH1 0x1 DUP3 ADD PUSH3 0x2670 JUMPI PUSH3 0x2670 PUSH3 0x2324 JUMP JUMPDEST POP PUSH1 0x1 ADD SWAP1 JUMP JUMPDEST DUP1 DUP3 ADD DUP1 DUP3 GT ISZERO PUSH3 0x2350 JUMPI PUSH3 0x2350 PUSH3 0x2324 JUMP JUMPDEST PUSH1 0x0 DUP1 PUSH1 0x40 DUP4 DUP6 SUB SLT ISZERO PUSH3 0x26A1 JUMPI PUSH1 0x0 DUP1 REVERT JUMPDEST POP POP DUP1 MLOAD PUSH1 0x20 SWAP1 SWAP2 ADD MLOAD SWAP1 SWAP3 SWAP1 SWAP2 POP JUMP JUMPDEST PUSH1 0x0 DUP1 PUSH1 0x0 DUP1 PUSH1 0x0 DUP1 PUSH1 0xC0 DUP8 DUP10 SUB SLT ISZERO PUSH3 0x26CC JUMPI PUSH1 0x0 DUP1 REVERT JUMPDEST DUP7 MLOAD SWAP6 POP PUSH1 0x20 DUP8 ADD MLOAD SWAP5 POP PUSH1 0x40 DUP8 ADD MLOAD SWAP4 POP PUSH1 0x60 DUP8 ADD MLOAD SWAP3 POP PUSH1 0x80 DUP8 ADD MLOAD SWAP2 POP PUSH1 0xA0 DUP8 ADD MLOAD SWAP1 POP SWAP3 SWAP6 POP SWAP3 SWAP6 POP SWAP3 SWAP6 JUMP JUMPDEST PUSH1 0x0 DUP3 MLOAD PUSH3 0x2711 DUP2 DUP5 PUSH1 0x20 DUP8 ADD PUSH3 0x2356 JUMP JUMPDEST SWAP2 SWAP1 SWAP2 ADD SWAP3 SWAP2 POP POP JUMP JUMPDEST PUSH1 0x20 DUP2 MSTORE PUSH1 0x0 PUSH3 0x1E94 PUSH1 0x20 DUP4 ADD DUP5 PUSH3 0x237C JUMP INVALID PUSH1 0x80 PUSH1 0x40 MSTORE PUSH1 0x40 MLOAD PUSH2 0x74F CODESIZE SUB DUP1 PUSH2 0x74F DUP4 CODECOPY DUP2 ADD PUSH1 0x40 DUP2 SWAP1 MSTORE PUSH2 0x22 SWAP2 PUSH2 0x44C JUMP JUMPDEST PUSH2 0x4D PUSH1 0x1 PUSH32 0xA3F0AD74E5423AEBFD80D3EF4346578335A9A72AEAEE59FF6CB3582B35133D51 PUSH2 0x50C JUMP JUMPDEST PUSH1 0x0 DUP1 MLOAD PUSH1 0x20 PUSH2 0x708 DUP4 CODECOPY DUP2 MLOAD SWAP2 MSTORE EQ PUSH2 0x69 JUMPI PUSH2 0x69 PUSH2 0x52D JUMP JUMPDEST PUSH2 0x75 DUP3 DUP3 PUSH1 0x0 PUSH2 0x7C JUMP JUMPDEST POP POP PUSH2 0x5AD JUMP JUMPDEST PUSH2 0x85 DUP4 PUSH2 0x13D JUMP JUMPDEST PUSH1 0x40 MLOAD PUSH1 0x1 PUSH1 0x1 PUSH1 0xA0 SHL SUB DUP5 AND SWAP1 PUSH32 0x1CF3B03A6CF19FA2BABA4DF148E9DCABEDEA7F8A5C07840E207E5C089BE95D3E SWAP1 PUSH1 0x0 SWAP1 LOG2 PUSH1 0x0 DUP3 MLOAD GT DUP1 PUSH2 0xC6 JUMPI POP DUP1 JUMPDEST ISZERO PUSH2 0x138 JUMPI PUSH2 0x136 DUP4 PUSH1 0x1 PUSH1 0x1 PUSH1 0xA0 SHL SUB AND PUSH4 0x5C60DA1B PUSH1 0x40 MLOAD DUP2 PUSH4 0xFFFFFFFF AND PUSH1 0xE0 SHL DUP2 MSTORE PUSH1 0x4 ADD PUSH1 0x20 PUSH1 0x40 MLOAD DUP1 DUP4 SUB DUP2 DUP7 GAS STATICCALL ISZERO DUP1 ISZERO PUSH2 0x10C JUMPI RETURNDATASIZE PUSH1 0x0 DUP1 RETURNDATACOPY RETURNDATASIZE PUSH1 0x0 REVERT JUMPDEST POP POP POP POP PUSH1 0x40 MLOAD RETURNDATASIZE PUSH1 0x1F NOT PUSH1 0x1F DUP3 ADD AND DUP3 ADD DUP1 PUSH1 0x40 MSTORE POP DUP2 ADD SWAP1 PUSH2 0x130 SWAP2 SWAP1 PUSH2 0x543 JUMP JUMPDEST DUP4 PUSH2 0x2AF JUMP JUMPDEST POP JUMPDEST POP POP POP JUMP JUMPDEST PUSH1 0x1 PUSH1 0x1 PUSH1 0xA0 SHL SUB DUP2 AND EXTCODESIZE PUSH2 0x1A7 JUMPI PUSH1 0x40 MLOAD PUSH3 0x461BCD PUSH1 0xE5 SHL DUP2 MSTORE PUSH1 0x20 PUSH1 0x4 DUP3 ADD MSTORE PUSH1 0x25 PUSH1 0x24 DUP3 ADD MSTORE PUSH32 0x455243313936373A206E657720626561636F6E206973206E6F74206120636F6E PUSH1 0x44 DUP3 ADD MSTORE PUSH5 0x1D1C9858DD PUSH1 0xDA SHL PUSH1 0x64 DUP3 ADD MSTORE PUSH1 0x84 ADD JUMPDEST PUSH1 0x40 MLOAD DUP1 SWAP2 SUB SWAP1 REVERT JUMPDEST PUSH2 0x21B DUP2 PUSH1 0x1 PUSH1 0x1 PUSH1 0xA0 SHL SUB AND PUSH4 0x5C60DA1B PUSH1 0x40 MLOAD DUP2 PUSH4 0xFFFFFFFF AND PUSH1 0xE0 SHL DUP2 MSTORE PUSH1 0x4 ADD PUSH1 0x20 PUSH1 0x40 MLOAD DUP1 DUP4 SUB DUP2 DUP7 GAS STATICCALL ISZERO DUP1 ISZERO PUSH2 0x1E8 JUMPI RETURNDATASIZE PUSH1 0x0 DUP1 RETURNDATACOPY RETURNDATASIZE PUSH1 0x0 REVERT JUMPDEST POP POP POP POP PUSH1 0x40 MLOAD RETURNDATASIZE PUSH1 0x1F NOT PUSH1 0x1F DUP3 ADD AND DUP3 ADD DUP1 PUSH1 0x40 MSTORE POP DUP2 ADD SWAP1 PUSH2 0x20C SWAP2 SWAP1 PUSH2 0x543 JUMP JUMPDEST PUSH1 0x1 PUSH1 0x1 PUSH1 0xA0 SHL SUB AND EXTCODESIZE ISZERO ISZERO SWAP1 JUMP JUMPDEST PUSH2 0x280 JUMPI PUSH1 0x40 MLOAD PUSH3 0x461BCD PUSH1 0xE5 SHL DUP2 MSTORE PUSH1 0x20 PUSH1 0x4 DUP3 ADD MSTORE PUSH1 0x30 PUSH1 0x24 DUP3 ADD MSTORE PUSH32 0x455243313936373A20626561636F6E20696D706C656D656E746174696F6E2069 PUSH1 0x44 DUP3 ADD MSTORE PUSH16 0x1CC81B9BDD08184818DBDB9D1C9858DD PUSH1 0x82 SHL PUSH1 0x64 DUP3 ADD MSTORE PUSH1 0x84 ADD PUSH2 0x19E JUMP JUMPDEST PUSH1 0x0 DUP1 MLOAD PUSH1 0x20 PUSH2 0x708 DUP4 CODECOPY DUP2 MLOAD SWAP2 MSTORE DUP1 SLOAD PUSH1 0x1 PUSH1 0x1 PUSH1 0xA0 SHL SUB NOT AND PUSH1 0x1 PUSH1 0x1 PUSH1 0xA0 SHL SUB SWAP3 SWAP1 SWAP3 AND SWAP2 SWAP1 SWAP2 OR SWAP1 SSTORE JUMP JUMPDEST PUSH1 0x60 PUSH2 0x2D4 DUP4 DUP4 PUSH1 0x40 MLOAD DUP1 PUSH1 0x60 ADD PUSH1 0x40 MSTORE DUP1 PUSH1 0x27 DUP2 MSTORE PUSH1 0x20 ADD PUSH2 0x728 PUSH1 0x27 SWAP2 CODECOPY PUSH2 0x2DD JUMP JUMPDEST SWAP1 POP JUMPDEST SWAP3 SWAP2 POP POP JUMP JUMPDEST PUSH1 0x60 PUSH1 0x1 PUSH1 0x1 PUSH1 0xA0 SHL SUB DUP5 AND EXTCODESIZE PUSH2 0x345 JUMPI PUSH1 0x40 MLOAD PUSH3 0x461BCD PUSH1 0xE5 SHL DUP2 MSTORE PUSH1 0x20 PUSH1 0x4 DUP3 ADD MSTORE PUSH1 0x26 PUSH1 0x24 DUP3 ADD MSTORE PUSH32 0x416464726573733A2064656C65676174652063616C6C20746F206E6F6E2D636F PUSH1 0x44 DUP3 ADD MSTORE PUSH6 0x1B9D1C9858DD PUSH1 0xD2 SHL PUSH1 0x64 DUP3 ADD MSTORE PUSH1 0x84 ADD PUSH2 0x19E JUMP JUMPDEST PUSH1 0x0 DUP1 DUP6 PUSH1 0x1 PUSH1 0x1 PUSH1 0xA0 SHL SUB AND DUP6 PUSH1 0x40 MLOAD PUSH2 0x360 SWAP2 SWAP1 PUSH2 0x55E JUMP JUMPDEST PUSH1 0x0 PUSH1 0x40 MLOAD DUP1 DUP4 SUB DUP2 DUP6 GAS DELEGATECALL SWAP2 POP POP RETURNDATASIZE DUP1 PUSH1 0x0 DUP2 EQ PUSH2 0x39B JUMPI PUSH1 0x40 MLOAD SWAP2 POP PUSH1 0x1F NOT PUSH1 0x3F RETURNDATASIZE ADD AND DUP3 ADD PUSH1 0x40 MSTORE RETURNDATASIZE DUP3 MSTORE RETURNDATASIZE PUSH1 0x0 PUSH1 0x20 DUP5 ADD RETURNDATACOPY PUSH2 0x3A0 JUMP JUMPDEST PUSH1 0x60 SWAP2 POP JUMPDEST POP SWAP1 SWAP3 POP SWAP1 POP PUSH2 0x3B1 DUP3 DUP3 DUP7 PUSH2 0x3BD JUMP JUMPDEST SWAP3 POP POP POP JUMPDEST SWAP4 SWAP3 POP POP POP JUMP JUMPDEST PUSH1 0x60 DUP4 ISZERO PUSH2 0x3CC JUMPI POP DUP2 PUSH2 0x3B6 JUMP JUMPDEST DUP3 MLOAD ISZERO PUSH2 0x3DC JUMPI DUP3 MLOAD DUP1 DUP5 PUSH1 0x20 ADD REVERT JUMPDEST DUP2 PUSH1 0x40 MLOAD PUSH3 0x461BCD PUSH1 0xE5 SHL DUP2 MSTORE PUSH1 0x4 ADD PUSH2 0x19E SWAP2 SWAP1 PUSH2 0x57A JUMP JUMPDEST DUP1 MLOAD PUSH1 0x1 PUSH1 0x1 PUSH1 0xA0 SHL SUB DUP2 AND DUP2 EQ PUSH2 0x40D JUMPI PUSH1 0x0 DUP1 REVERT JUMPDEST SWAP2 SWAP1 POP JUMP JUMPDEST PUSH4 0x4E487B71 PUSH1 0xE0 SHL PUSH1 0x0 MSTORE PUSH1 0x41 PUSH1 0x4 MSTORE PUSH1 0x24 PUSH1 0x0 REVERT JUMPDEST PUSH1 0x0 JUMPDEST DUP4 DUP2 LT ISZERO PUSH2 0x443 JUMPI DUP2 DUP2 ADD MLOAD DUP4 DUP3 ADD MSTORE PUSH1 0x20 ADD PUSH2 0x42B JUMP JUMPDEST POP POP PUSH1 0x0 SWAP2 ADD MSTORE JUMP JUMPDEST PUSH1 0x0 DUP1 PUSH1 0x40 DUP4 DUP6 SUB SLT ISZERO PUSH2 0x45F JUMPI PUSH1 0x0 DUP1 REVERT JUMPDEST PUSH2 0x468 DUP4 PUSH2 0x3F6 JUMP JUMPDEST PUSH1 0x20 DUP5 ADD MLOAD SWAP1 SWAP3 POP PUSH1 0x1 PUSH1 0x1 PUSH1 0x40 SHL SUB DUP1 DUP3 GT ISZERO PUSH2 0x485 JUMPI PUSH1 0x0 DUP1 REVERT JUMPDEST DUP2 DUP6 ADD SWAP2 POP DUP6 PUSH1 0x1F DUP4 ADD SLT PUSH2 0x499 JUMPI PUSH1 0x0 DUP1 REVERT JUMPDEST DUP2 MLOAD DUP2 DUP2 GT ISZERO PUSH2 0x4AB JUMPI PUSH2 0x4AB PUSH2 0x412 JUMP JUMPDEST PUSH1 0x40 MLOAD PUSH1 0x1F DUP3 ADD PUSH1 0x1F NOT SWAP1 DUP2 AND PUSH1 0x3F ADD AND DUP2 ADD SWAP1 DUP4 DUP3 GT DUP2 DUP4 LT OR ISZERO PUSH2 0x4D3 JUMPI PUSH2 0x4D3 PUSH2 0x412 JUMP JUMPDEST DUP2 PUSH1 0x40 MSTORE DUP3 DUP2 MSTORE DUP9 PUSH1 0x20 DUP5 DUP8 ADD ADD GT ISZERO PUSH2 0x4EC JUMPI PUSH1 0x0 DUP1 REVERT JUMPDEST PUSH2 0x4FD DUP4 PUSH1 0x20 DUP4 ADD PUSH1 0x20 DUP9 ADD PUSH2 0x428 JUMP JUMPDEST DUP1 SWAP6 POP POP POP POP POP POP SWAP3 POP SWAP3 SWAP1 POP JUMP JUMPDEST DUP2 DUP2 SUB DUP2 DUP2 GT ISZERO PUSH2 0x2D7 JUMPI PUSH4 0x4E487B71 PUSH1 0xE0 SHL PUSH1 0x0 MSTORE PUSH1 0x11 PUSH1 0x4 MSTORE PUSH1 0x24 PUSH1 0x0 REVERT JUMPDEST PUSH4 0x4E487B71 PUSH1 0xE0 SHL PUSH1 0x0 MSTORE PUSH1 0x1 PUSH1 0x4 MSTORE PUSH1 0x24 PUSH1 0x0 REVERT JUMPDEST PUSH1 0x0 PUSH1 0x20 DUP3 DUP5 SUB SLT ISZERO PUSH2 0x555 JUMPI PUSH1 0x0 DUP1 REVERT JUMPDEST PUSH2 0x2D4 DUP3 PUSH2 0x3F6 JUMP JUMPDEST PUSH1 0x0 DUP3 MLOAD PUSH2 0x570 DUP2 DUP5 PUSH1 0x20 DUP8 ADD PUSH2 0x428 JUMP JUMPDEST SWAP2 SWAP1 SWAP2 ADD SWAP3 SWAP2 POP POP JUMP JUMPDEST PUSH1 0x20 DUP2 MSTORE PUSH1 0x0 DUP3 MLOAD DUP1 PUSH1 0x20 DUP5 ADD MSTORE PUSH2 0x599 DUP2 PUSH1 0x40 DUP6 ADD PUSH1 0x20 DUP8 ADD PUSH2 0x428 JUMP JUMPDEST PUSH1 0x1F ADD PUSH1 0x1F NOT AND SWAP2 SWAP1 SWAP2 ADD PUSH1 0x40 ADD SWAP3 SWAP2 POP POP JUMP JUMPDEST PUSH2 0x14C DUP1 PUSH2 0x5BC PUSH1 0x0 CODECOPY PUSH1 0x0 RETURN INVALID PUSH1 0x80 PUSH1 0x40 MSTORE CALLDATASIZE PUSH2 0x13 JUMPI PUSH2 0x11 PUSH2 0x17 JUMP JUMPDEST STOP JUMPDEST PUSH2 0x11 JUMPDEST PUSH2 0x27 PUSH2 0x22 PUSH2 0x29 JUMP JUMPDEST PUSH2 0xC2 JUMP JUMPDEST JUMP JUMPDEST PUSH1 0x0 PUSH2 0x5C PUSH32 0xA3F0AD74E5423AEBFD80D3EF4346578335A9A72AEAEE59FF6CB3582B35133D50 SLOAD PUSH1 0x1 PUSH1 0x1 PUSH1 0xA0 SHL SUB AND SWAP1 JUMP JUMPDEST PUSH1 0x1 PUSH1 0x1 PUSH1 0xA0 SHL SUB AND PUSH4 0x5C60DA1B PUSH1 0x40 MLOAD DUP2 PUSH4 0xFFFFFFFF AND PUSH1 0xE0 SHL DUP2 MSTORE PUSH1 0x4 ADD PUSH1 0x20 PUSH1 0x40 MLOAD DUP1 DUP4 SUB DUP2 DUP7 GAS STATICCALL ISZERO DUP1 ISZERO PUSH2 0x99 JUMPI RETURNDATASIZE PUSH1 0x0 DUP1 RETURNDATACOPY RETURNDATASIZE PUSH1 0x0 REVERT JUMPDEST POP POP POP POP PUSH1 0x40 MLOAD RETURNDATASIZE PUSH1 0x1F NOT PUSH1 0x1F DUP3 ADD AND DUP3 ADD DUP1 PUSH1 0x40 MSTORE POP DUP2 ADD SWAP1 PUSH2 0xBD SWAP2 SWAP1 PUSH2 0xE6 JUMP JUMPDEST SWAP1 POP SWAP1 JUMP JUMPDEST CALLDATASIZE PUSH1 0x0 DUP1 CALLDATACOPY PUSH1 0x0 DUP1 CALLDATASIZE PUSH1 0x0 DUP5 GAS DELEGATECALL RETURNDATASIZE PUSH1 0x0 DUP1 RETURNDATACOPY DUP1 DUP1 ISZERO PUSH2 0xE1 JUMPI RETURNDATASIZE PUSH1 0x0 RETURN JUMPDEST RETURNDATASIZE PUSH1 0x0 REVERT JUMPDEST PUSH1 0x0 PUSH1 0x20 DUP3 DUP5 SUB SLT ISZERO PUSH2 0xF8 JUMPI PUSH1 0x0 DUP1 REVERT JUMPDEST DUP2 MLOAD PUSH1 0x1 PUSH1 0x1 PUSH1 0xA0 SHL SUB DUP2 AND DUP2 EQ PUSH2 0x10F JUMPI PUSH1 0x0 DUP1 REVERT JUMPDEST SWAP4 SWAP3 POP POP POP JUMP INVALID LOG2 PUSH5 0x6970667358 0x22 SLT KECCAK256 PUSH10 0x4410E42AD26F06CD4CED 0x24 0x2E 0xA8 DUP14 PUSH28 0x1CC6876FA826773BF7479AB242D5C86464736F6C63430008150033A3 CREATE 0xAD PUSH21 0xE5423AEBFD80D3EF4346578335A9A72AEAEE59FF6C 0xB3 PC 0x2B CALLDATALOAD SGT RETURNDATASIZE POP COINBASE PUSH5 0x6472657373 GASPRICE KECCAK256 PUSH13 0x6F772D6C6576656C2064656C65 PUSH8 0x6174652063616C6C KECCAK256 PUSH7 0x61696C6564A264 PUSH10 0x70667358221220D9353D SWAP9 0xC2 0xF6 PUSH19 0x1D5D9579295898E60A60A24B56B245501707BF 0xC 0xC2 0xE9 CALLVALUE CREATE 0x4E PUSH5 0x736F6C6343 STOP ADDMOD ISZERO STOP CALLER ",
  "sha1": "dec9fb5ad5e6fb550240a7bc6d09ac63d01ffead",
  "source": "// SPDX-License-Identifier: UNLICENSED\npragma solidity ^0.8.0;\n\nimport \"./openzeppelin-solidity/contracts/token/ERC20/ERC20.sol\";\nimport \"./openzeppelin-solidity/contracts/token/ERC20/utils/SafeERC20.sol\";\nimport \"./openzeppelin-solidity/contracts/utils/cryptography/ECDSA.sol\";\nimport \"./openzeppelin-solidity/contracts/token/ERC20/utils/SafeERC20.sol\";\nimport \"./openzeppelin-solidity/contracts/security/ReentrancyGuard.sol\";\nimport \"../interfaces/AggregatorV3Interface.sol\";\nimport \"../interfaces/ILendingPoolAddressesProvider.sol\";\nimport \"../interfaces/IAaveLendingPoolV2.sol\";\nimport \"../interfaces/IAaveOracle.sol\";\nimport \"../interfaces/IUniswapV2Pair.sol\";\nimport \"../interfaces/IUniswapV2Factory.sol\";\nimport \"../interfaces/IUniswapV2Router01.sol\";\nimport \"../interfaces/ISwapRouter.sol\";\nimport \"../interfaces/INonfungiblePositionManager.sol\";\nimport \"./TokenisableRange.sol\";\nimport \"./openzeppelin-solidity/contracts/proxy/beacon/BeaconProxy.sol\";\nimport \"./openzeppelin-solidity/contracts/access/Ownable.sol\";\nimport {IPriceOracle} from \"../interfaces/IPriceOracle.sol\";\n\n\n/// @title Range middleware between ROE lending pool and various ranges\ncontract RangeManager is ReentrancyGuard, Ownable {\n  using SafeERC20 for ERC20;\n  ILendingPool public LENDING_POOL;\n  event Withdraw(address user, address asset, uint amount);\n  event Deposit(address user, address asset, uint amount);\n  event AddRange(uint128 startX10, uint128 endX10, uint step);\n\n  ERC20 public ASSET_0;\n  ERC20 public ASSET_1;\n\n  // Constant across chains - https://docs.uniswap.org/protocol/reference/deployments\n  INonfungiblePositionManager constant public POS_MGR = INonfungiblePositionManager(0xC36442b4a4522E871399CD717aBDD847Ab11FE88);  \n\n  struct Step {\n    uint128 start;\n    uint128 end;\n  }\n\n  Step [] public stepList; \n  TokenisableRange [] public tokenisedRanges;\n  TokenisableRange [] public tokenisedTicker;\n  \n  \n  constructor(ILendingPool lendingPool, ERC20 _asset0, ERC20 _asset1)  {\n    require( address(lendingPool) != address(0x0), \"Invalid address\" );\n    LENDING_POOL = lendingPool;\n    ASSET_0 = _asset0 < _asset1 ? _asset0 : _asset1;\n    ASSET_1 = _asset0 < _asset1 ? _asset1 : _asset0;\n  }\n\n\n  /// @notice Checks validity and non overlap of the price ranges\n  /// @param start range low price bound\n  /// @param end range high price bound\n  function checkNewRange(uint128 start, uint128 end) internal view {\n    require(start < end, \"Range invalid\");\n    uint256 len = stepList.length;\n    for (uint i = 0; i < len; i++) {\n      if (start >= stepList[i].end || end <= stepList[i].start) {\n        continue;\n      }\n      revert(\"Range overlap\");\n    } \n  }\n  \n  /// @notice Generate Ticker and Ranger ranges\n  /// @param startX10 Range lower price scaled by 1e10\n  /// @param endX10 Range high price scaled by 1e10\n  /// @param startName Name of the range lower bound \n  /// @param endName Name of the range higher bound\n  function generateRange(uint128 startX10, uint128 endX10, string memory startName, string memory endName, address beacon) external onlyOwner {\n    require(beacon != address(0x0), \"Invalid beacon\");\n    checkNewRange(startX10, endX10);\n    stepList.push( Step(startX10, endX10) );\n    BeaconProxy trbp = new BeaconProxy(beacon, \"\");\n    tokenisedRanges.push( TokenisableRange(address(trbp)) );\n    trbp = new BeaconProxy(beacon, \"\");\n    tokenisedTicker.push( TokenisableRange(address(trbp)) );\n    IAaveOracle oracle = IAaveOracle(ILendingPoolAddressesProvider( LENDING_POOL.getAddressesProvider() ).getPriceOracle());\n    \n    tokenisedRanges[ tokenisedRanges.length - 1 ].initProxy(oracle, ASSET_0, ASSET_1, startX10, endX10, startName, endName, false);\n    tokenisedTicker[ tokenisedTicker.length - 1 ].initProxy(oracle, ASSET_0, ASSET_1, startX10, endX10, startName, endName, true); \n    emit AddRange(startX10, endX10, tokenisedRanges.length - 1);\n  }\n  \n  \n  /// @notice Initialize a previously created ticker\n  /// @param tr Range address\n  /// @param amount0 Amount of token0\n  /// @param amount1 Amount of token1\n  function initRange(address tr, uint amount0, uint amount1) external onlyOwner {\n    ASSET_0.safeTransferFrom(msg.sender, address(this), amount0);\n    ASSET_0.safeIncreaseAllowance(tr, amount0);\n    ASSET_1.safeTransferFrom(msg.sender, address(this), amount1);\n    ASSET_1.safeIncreaseAllowance(tr, amount1);\n    TokenisableRange(tr).init(amount0, amount1);\n    ERC20(tr).safeTransfer(msg.sender, TokenisableRange(tr).balanceOf(address(this)));\n  }\n\n\n  /// @notice Remove assets from tokenisedRanges\n  /// @param step Id of the range+ticker step from which to remove assets\n  function removeFromStep(uint256 step) internal {\n    require(step < tokenisedRanges.length && step < tokenisedTicker.length, \"Invalid step\");\n    uint256 trAmt;\n    \n    trAmt = ERC20(LENDING_POOL.getReserveData(address(tokenisedRanges[step])).aTokenAddress).balanceOf(msg.sender);   \n    if (trAmt > 0) {       \n        LENDING_POOL.PMTransfer(\n          LENDING_POOL.getReserveData(address(tokenisedRanges[step])).aTokenAddress, \n          msg.sender, \n          trAmt\n        );\n        trAmt = LENDING_POOL.withdraw(address(tokenisedRanges[step]), type(uint256).max, address(this));\n        tokenisedRanges[step].withdraw(trAmt, 0, 0);\n        emit Withdraw(msg.sender, address(tokenisedRanges[step]), trAmt);\n    }        \n\n    trAmt = ERC20(LENDING_POOL.getReserveData(address(tokenisedTicker[step])).aTokenAddress).balanceOf(msg.sender);\n    if (trAmt > 0) {    \n        LENDING_POOL.PMTransfer(\n          LENDING_POOL.getReserveData(address(tokenisedTicker[step])).aTokenAddress, \n          msg.sender, \n          trAmt\n        );\n        uint256 ttAmt = LENDING_POOL.withdraw(address(tokenisedTicker[step]), type(uint256).max, address(this));\n        tokenisedTicker[step].withdraw(ttAmt, 0, 0);\n        emit Withdraw(msg.sender, address(tokenisedTicker[step]), trAmt);\n    }           \n  }\n\n\n  /// @notice Remove assets from tokenisedRanges\n  /// @param step Id of the range+ticker step from which to remove assets\n  function removeAssetsFromStep(uint256 step) nonReentrant external {\n    removeFromStep(step);\n    cleanup();\n  }\n  \n  \n  /// @notice Transfer assets from the lending pool to a tokenizedRange\n  /// @param tr TokenisableRange instance into which to transfer assets\n  /// @param step Id of the range+ticker step from which to remove assets\n  /// @param amount0 Amount of asset0 to transfer in the TR\n  /// @param amount1 Amount of asset1 to transfer in the TR\n  /// @dev Useful to remove from a previous range and deposit into a new TR when price moves\n  function transferAssetsIntoStep(TokenisableRange tr, uint256 step, uint256 amount0, uint256 amount1) internal {\n    removeFromStep(step);\n    if (amount0 > 0) {    \n      LENDING_POOL.PMTransfer( LENDING_POOL.getReserveData(address(ASSET_0)).aTokenAddress, msg.sender, amount0 );\n      LENDING_POOL.withdraw( address(ASSET_0), amount0, address(this) );\n      ASSET_0.safeIncreaseAllowance(address(tr), amount0);\n    }\n    if (amount1 > 0) {\n      LENDING_POOL.PMTransfer( LENDING_POOL.getReserveData(address(ASSET_1)).aTokenAddress, msg.sender, amount1 );\n      LENDING_POOL.withdraw( address(ASSET_1), amount1, address(this) );\n      ASSET_1.safeIncreaseAllowance(address(tr), amount1);\n    }\n    uint256 lpAmt = tr.deposit(amount0, amount1);\n    emit Deposit(msg.sender, address(tr), lpAmt);\n    tr.approve(address(LENDING_POOL), lpAmt);\n    LENDING_POOL.deposit(address(tr), lpAmt, msg.sender, 0);\n    cleanup();\n  }\n\n\n  /// @notice Transfer assets from the lending pool to a Ranger\n  /// @param step Id of the range+ticker step from which to remove assets\n  /// @param amount0 Amount of asset0 to transfer in the Range\n  /// @param amount1 Amount of asset1 to transfer in the Range\n  function transferAssetsIntoRangerStep(uint256 step, uint256 amount0, uint256 amount1) nonReentrant external {\n    transferAssetsIntoStep(tokenisedRanges[step], step, amount0, amount1);\n  }\n\n\n  /// @notice Transfer assets from the lending pool to a Ticker\n  /// @param step Id of the range+ticker step from which to remove assets\n  /// @param amount0 Amount of asset0 to transfer in the Ticker\n  /// @param amount1 Amount of asset1 to transfer in the Ticker\n  function transferAssetsIntoTickerStep(uint256 step, uint256 amount0, uint256 amount1) nonReentrant external {\n    transferAssetsIntoStep(tokenisedTicker[step], step, amount0, amount1);\n  }\n\n\n  /// @notice Check token balances and return assets to the user\n  function cleanup() internal {\n    uint256 asset0_amt = ASSET_0.balanceOf(address(this));\n    uint256 asset1_amt = ASSET_1.balanceOf(address(this));\n    \n    if (asset0_amt > 0) {\n      ASSET_0.safeIncreaseAllowance(address(LENDING_POOL), asset0_amt);\n      LENDING_POOL.deposit(address(ASSET_0), asset0_amt, msg.sender, 0);\n    }\n    \n    if (asset1_amt > 0) {\n      ASSET_1.safeIncreaseAllowance(address(LENDING_POOL), asset1_amt);\n      LENDING_POOL.deposit(address(ASSET_1), asset1_amt, msg.sender, 0);\n    }\n    \n    // Check that health factor is not put into liquidation / with buffer\n    (,,,,,uint256 hf) = LENDING_POOL.getUserAccountData(msg.sender);\n    require(hf > 1.01e18, \"Health factor is too low\");\n  }\n\n\n  /// @notice Get length of stepList\n  /// @return listLength Length\n  function getStepListLength() external view returns (uint256 listLength) {\n    listLength = stepList.length;\n  }\n}\n",
  "sourcePath": "contracts/RangeManager.sol",
  "type": "contract"
}