{
  "abi": [
    {
      "inputs": [
        {
          "internalType": "address",
          "name": "treasury_",
          "type": "address"
        }
      ],
      "stateMutability": "nonpayable",
      "type": "constructor"
    },
    {
      "anonymous": false,
      "inputs": [
        {
          "indexed": false,
          "internalType": "uint256",
          "name": "poolId",
          "type": "uint256"
        },
        {
          "indexed": false,
          "internalType": "address",
          "name": "lendingPoolAddressProvider",
          "type": "address"
        }
      ],
      "name": "AddPool",
      "type": "event"
    },
    {
      "anonymous": false,
      "inputs": [
        {
          "indexed": false,
          "internalType": "uint256",
          "name": "poolId",
          "type": "uint256"
        }
      ],
      "name": "DeprecatePool",
      "type": "event"
    },
    {
      "anonymous": false,
      "inputs": [
        {
          "indexed": true,
          "internalType": "address",
          "name": "previousOwner",
          "type": "address"
        },
        {
          "indexed": true,
          "internalType": "address",
          "name": "newOwner",
          "type": "address"
        }
      ],
      "name": "OwnershipTransferred",
      "type": "event"
    },
    {
      "anonymous": false,
      "inputs": [
        {
          "indexed": false,
          "internalType": "address",
          "name": "treasury",
          "type": "address"
        }
      ],
      "name": "UpdateTreasury",
      "type": "event"
    },
    {
      "inputs": [
        {
          "internalType": "address",
          "name": "lendingPoolAddressProvider",
          "type": "address"
        },
        {
          "internalType": "address",
          "name": "token0",
          "type": "address"
        },
        {
          "internalType": "address",
          "name": "token1",
          "type": "address"
        },
        {
          "internalType": "address",
          "name": "ammRouter",
          "type": "address"
        }
      ],
      "name": "addPool",
      "outputs": [
        {
          "internalType": "uint256",
          "name": "poolId",
          "type": "uint256"
        }
      ],
      "stateMutability": "nonpayable",
      "type": "function"
    },
    {
      "inputs": [
        {
          "internalType": "uint256",
          "name": "poolId",
          "type": "uint256"
        }
      ],
      "name": "deprecatePool",
      "outputs": [],
      "stateMutability": "nonpayable",
      "type": "function"
    },
    {
      "inputs": [],
      "name": "getPoolsLength",
      "outputs": [
        {
          "internalType": "uint256",
          "name": "poolLength",
          "type": "uint256"
        }
      ],
      "stateMutability": "view",
      "type": "function"
    },
    {
      "inputs": [],
      "name": "owner",
      "outputs": [
        {
          "internalType": "address",
          "name": "",
          "type": "address"
        }
      ],
      "stateMutability": "view",
      "type": "function"
    },
    {
      "inputs": [
        {
          "internalType": "uint256",
          "name": "",
          "type": "uint256"
        }
      ],
      "name": "pools",
      "outputs": [
        {
          "internalType": "address",
          "name": "lendingPoolAddressProvider",
          "type": "address"
        },
        {
          "internalType": "address",
          "name": "token0",
          "type": "address"
        },
        {
          "internalType": "address",
          "name": "token1",
          "type": "address"
        },
        {
          "internalType": "address",
          "name": "ammRouter",
          "type": "address"
        },
        {
          "internalType": "bool",
          "name": "isDeprecated",
          "type": "bool"
        }
      ],
      "stateMutability": "view",
      "type": "function"
    },
    {
      "inputs": [],
      "name": "renounceOwnership",
      "outputs": [],
      "stateMutability": "nonpayable",
      "type": "function"
    },
    {
      "inputs": [
        {
          "internalType": "address",
          "name": "newTreasury",
          "type": "address"
        }
      ],
      "name": "setTreasury",
      "outputs": [],
      "stateMutability": "nonpayable",
      "type": "function"
    },
    {
      "inputs": [
        {
          "internalType": "address",
          "name": "newOwner",
          "type": "address"
        }
      ],
      "name": "transferOwnership",
      "outputs": [],
      "stateMutability": "nonpayable",
      "type": "function"
    },
    {
      "inputs": [],
      "name": "treasury",
      "outputs": [
        {
          "internalType": "address",
          "name": "",
          "type": "address"
        }
      ],
      "stateMutability": "view",
      "type": "function"
    }
  ],
  "bytecode": "608060405234801561001057600080fd5b5060405161099638038061099683398101604081905261002f916100f9565b610038336100a9565b6001600160a01b0381166100845760405162461bcd60e51b815260206004820152600f60248201526e496e76616c6964206164647265737360881b604482015260640160405180910390fd5b600180546001600160a01b0319166001600160a01b0392909216919091179055610129565b600080546001600160a01b038381166001600160a01b0319831681178455604051919092169283917f8be0079c531659141344cd1fd0a4f28419497f9722a3daafe3b4186f6b6457e09190a35050565b60006020828403121561010b57600080fd5b81516001600160a01b038116811461012257600080fd5b9392505050565b61085e806101386000396000f3fe608060405234801561001057600080fd5b50600436106100935760003560e01c8063ac4afa3811610066578063ac4afa3814610104578063c6973f2014610152578063ce883cdb14610165578063f0f442601461016d578063f2fde38b1461018057600080fd5b8063393218151461009857806361d027b3146100be578063715018a6146100e95780638da5cb5b146100f3575b600080fd5b6100ab6100a6366004610727565b610193565b6040519081526020015b60405180910390f35b6001546100d1906001600160a01b031681565b6040516001600160a01b0390911681526020016100b5565b6100f1610431565b005b6000546001600160a01b03166100d1565b61011761011236600461077b565b610467565b604080516001600160a01b0396871681529486166020860152928516928401929092529092166060820152901515608082015260a0016100b5565b6100f161016036600461077b565b6104bd565b6002546100ab565b6100f161017b366004610794565b610560565b6100f161018e366004610794565b610620565b600080546001600160a01b031633146101c75760405162461bcd60e51b81526004016101be906107b6565b60405180910390fd5b6001600160a01b038516158015906101e757506001600160a01b03841615155b80156101fb57506001600160a01b03831615155b801561020f57506001600160a01b03821615155b61024d5760405162461bcd60e51b815260206004820152600f60248201526e496e76616c6964204164647265737360881b60448201526064016101be565b826001600160a01b0316846001600160a01b03161061029e5760405162461bcd60e51b815260206004820152600d60248201526c24b73b30b634b21027b93232b960991b60448201526064016101be565b6040805160a0810182526001600160a01b0380881682528681166020830190815286821693830193845285821660608401908152600060808501818152600280546001818101835593829052965160049097027f405787fa12a823e0f2b7631cc41b3ba8828b3321ca811111fa75cd3aa3bb5ace810180549888166001600160a01b0319998a1617905594517f405787fa12a823e0f2b7631cc41b3ba8828b3321ca811111fa75cd3aa3bb5acf8601805491881691891691909117905596517f405787fa12a823e0f2b7631cc41b3ba8828b3321ca811111fa75cd3aa3bb5ad085018054918716919097161790955590517f405787fa12a823e0f2b7631cc41b3ba8828b3321ca811111fa75cd3aa3bb5ad1909201805494511515600160a01b026001600160a81b0319909516929093169190911792909217905590546103e591906107eb565b604080518281526001600160a01b03881660208201529192507fdc467816be4ae0fb24482b03c7fcaebabc217fa013c4d51e500dc79c5ad5e2ba910160405180910390a1949350505050565b6000546001600160a01b0316331461045b5760405162461bcd60e51b81526004016101be906107b6565b61046560006106bb565b565b6002818154811061047757600080fd5b600091825260209091206004909102018054600182015460028301546003909301546001600160a01b03928316945090821692821691811690600160a01b900460ff1685565b6000546001600160a01b031633146104e75760405162461bcd60e51b81526004016101be906107b6565b6001600282815481106104fc576104fc610812565b906000526020600020906004020160030160146101000a81548160ff0219169083151502179055507fb07c86833892733d795e460c0c7ef561cb87d1143f4bd7c61a282334b7a1f3cc8160405161055591815260200190565b60405180910390a150565b6000546001600160a01b0316331461058a5760405162461bcd60e51b81526004016101be906107b6565b6001600160a01b0381166105d25760405162461bcd60e51b815260206004820152600f60248201526e496e76616c6964206164647265737360881b60448201526064016101be565b600180546001600160a01b0319166001600160a01b0383169081179091556040519081527f1f54d231bb9d500b1923e4a1cb25e600f366a8368873d9af7c1c623814df19fc90602001610555565b6000546001600160a01b0316331461064a5760405162461bcd60e51b81526004016101be906107b6565b6001600160a01b0381166106af5760405162461bcd60e51b815260206004820152602660248201527f4f776e61626c653a206e6577206f776e657220697320746865207a65726f206160448201526564647265737360d01b60648201526084016101be565b6106b8816106bb565b50565b600080546001600160a01b038381166001600160a01b0319831681178455604051919092169283917f8be0079c531659141344cd1fd0a4f28419497f9722a3daafe3b4186f6b6457e09190a35050565b80356001600160a01b038116811461072257600080fd5b919050565b6000806000806080858703121561073d57600080fd5b6107468561070b565b93506107546020860161070b565b92506107626040860161070b565b91506107706060860161070b565b905092959194509250565b60006020828403121561078d57600080fd5b5035919050565b6000602082840312156107a657600080fd5b6107af8261070b565b9392505050565b6020808252818101527f4f776e61626c653a2063616c6c6572206973206e6f7420746865206f776e6572604082015260600190565b8181038181111561080c57634e487b7160e01b600052601160045260246000fd5b92915050565b634e487b7160e01b600052603260045260246000fdfea2646970667358221220e284e1af90b9a596e5b5ee4f81a8278ac0ff68e26ae26b5a27152206d144245764736f6c63430008130033",
  "bytecodeSha1": "03370ec5786ee21ee02f991f7639b8f720569df9",
  "compiler": {
    "evm_version": "istanbul",
    "optimizer": {
      "enabled": true,
      "runs": 200
    },
    "version": "0.8.19+commit.7dd6d404"
  },
  "contractName": "RoeRouter",
  "language": "Solidity",
  "natspec": {
    "kind": "dev",
    "methods": {
      "addPool(address,address,address,address)": {
        "notice": "Add a new pool parameters",
        "params": {
          "ammRouter": "address of the AMMv2 such that the LP pair ammRouter.factory.getPair(token0, token1) is supported by the lending pool",
          "lendingPoolAddressProvider": "address of a ROE Aave-compatible lending pool address provider",
          "token0": "address of the one token of the pair ",
          "token1": "address of the second token of the pair"
        }
      },
      "constructor": {
        "notice": "constructor"
      },
      "deprecatePool(uint256)": {
        "details": "isDeprecated is a statement about the pool record, and does not imply anything about the pool itself",
        "notice": "Deprecate a pool",
        "params": {
          "poolId": "pool ID"
        }
      },
      "getPoolsLength()": {
        "notice": "Return pool list length"
      },
      "owner()": {
        "details": "Returns the address of the current owner."
      },
      "pools(uint256)": {
        "notice": "List of pools"
      },
      "renounceOwnership()": {
        "details": "Leaves the contract without owner. It will not be possible to call `onlyOwner` functions anymore. Can only be called by the current owner. NOTE: Renouncing ownership will leave the contract without an owner, thereby removing any functionality that is only available to the owner."
      },
      "setTreasury(address)": {
        "notice": "Modify treaury address",
        "params": {
          "newTreasury": "New treasury address"
        }
      },
      "transferOwnership(address)": {
        "details": "Transfers ownership of the contract to a new account (`newOwner`). Can only be called by the current owner."
      },
      "treasury()": {
        "notice": "ROE treasury"
      }
    },
    "notice": "Contract RoeRouter holds a list of whitelisted ROE lending pools and important parameters",
    "version": 1
  },
  "opcodes": "PUSH1 0x80 PUSH1 0x40 MSTORE CALLVALUE DUP1 ISZERO PUSH2 0x10 JUMPI PUSH1 0x0 DUP1 REVERT JUMPDEST POP PUSH1 0x4 CALLDATASIZE LT PUSH2 0x93 JUMPI PUSH1 0x0 CALLDATALOAD PUSH1 0xE0 SHR DUP1 PUSH4 0xAC4AFA38 GT PUSH2 0x66 JUMPI DUP1 PUSH4 0xAC4AFA38 EQ PUSH2 0x104 JUMPI DUP1 PUSH4 0xC6973F20 EQ PUSH2 0x152 JUMPI DUP1 PUSH4 0xCE883CDB EQ PUSH2 0x165 JUMPI DUP1 PUSH4 0xF0F44260 EQ PUSH2 0x16D JUMPI DUP1 PUSH4 0xF2FDE38B EQ PUSH2 0x180 JUMPI PUSH1 0x0 DUP1 REVERT JUMPDEST DUP1 PUSH4 0x39321815 EQ PUSH2 0x98 JUMPI DUP1 PUSH4 0x61D027B3 EQ PUSH2 0xBE JUMPI DUP1 PUSH4 0x715018A6 EQ PUSH2 0xE9 JUMPI DUP1 PUSH4 0x8DA5CB5B EQ PUSH2 0xF3 JUMPI JUMPDEST PUSH1 0x0 DUP1 REVERT JUMPDEST PUSH2 0xAB PUSH2 0xA6 CALLDATASIZE PUSH1 0x4 PUSH2 0x727 JUMP JUMPDEST PUSH2 0x193 JUMP JUMPDEST PUSH1 0x40 MLOAD SWAP1 DUP2 MSTORE PUSH1 0x20 ADD JUMPDEST PUSH1 0x40 MLOAD DUP1 SWAP2 SUB SWAP1 RETURN JUMPDEST PUSH1 0x1 SLOAD PUSH2 0xD1 SWAP1 PUSH1 0x1 PUSH1 0x1 PUSH1 0xA0 SHL SUB AND DUP2 JUMP JUMPDEST PUSH1 0x40 MLOAD PUSH1 0x1 PUSH1 0x1 PUSH1 0xA0 SHL SUB SWAP1 SWAP2 AND DUP2 MSTORE PUSH1 0x20 ADD PUSH2 0xB5 JUMP JUMPDEST PUSH2 0xF1 PUSH2 0x431 JUMP JUMPDEST STOP JUMPDEST PUSH1 0x0 SLOAD PUSH1 0x1 PUSH1 0x1 PUSH1 0xA0 SHL SUB AND PUSH2 0xD1 JUMP JUMPDEST PUSH2 0x117 PUSH2 0x112 CALLDATASIZE PUSH1 0x4 PUSH2 0x77B JUMP JUMPDEST PUSH2 0x467 JUMP JUMPDEST PUSH1 0x40 DUP1 MLOAD PUSH1 0x1 PUSH1 0x1 PUSH1 0xA0 SHL SUB SWAP7 DUP8 AND DUP2 MSTORE SWAP5 DUP7 AND PUSH1 0x20 DUP7 ADD MSTORE SWAP3 DUP6 AND SWAP3 DUP5 ADD SWAP3 SWAP1 SWAP3 MSTORE SWAP1 SWAP3 AND PUSH1 0x60 DUP3 ADD MSTORE SWAP1 ISZERO ISZERO PUSH1 0x80 DUP3 ADD MSTORE PUSH1 0xA0 ADD PUSH2 0xB5 JUMP JUMPDEST PUSH2 0xF1 PUSH2 0x160 CALLDATASIZE PUSH1 0x4 PUSH2 0x77B JUMP JUMPDEST PUSH2 0x4BD JUMP JUMPDEST PUSH1 0x2 SLOAD PUSH2 0xAB JUMP JUMPDEST PUSH2 0xF1 PUSH2 0x17B CALLDATASIZE PUSH1 0x4 PUSH2 0x794 JUMP JUMPDEST PUSH2 0x560 JUMP JUMPDEST PUSH2 0xF1 PUSH2 0x18E CALLDATASIZE PUSH1 0x4 PUSH2 0x794 JUMP JUMPDEST PUSH2 0x620 JUMP JUMPDEST PUSH1 0x0 DUP1 SLOAD PUSH1 0x1 PUSH1 0x1 PUSH1 0xA0 SHL SUB AND CALLER EQ PUSH2 0x1C7 JUMPI PUSH1 0x40 MLOAD PUSH3 0x461BCD PUSH1 0xE5 SHL DUP2 MSTORE PUSH1 0x4 ADD PUSH2 0x1BE SWAP1 PUSH2 0x7B6 JUMP JUMPDEST PUSH1 0x40 MLOAD DUP1 SWAP2 SUB SWAP1 REVERT JUMPDEST PUSH1 0x1 PUSH1 0x1 PUSH1 0xA0 SHL SUB DUP6 AND ISZERO DUP1 ISZERO SWAP1 PUSH2 0x1E7 JUMPI POP PUSH1 0x1 PUSH1 0x1 PUSH1 0xA0 SHL SUB DUP5 AND ISZERO ISZERO JUMPDEST DUP1 ISZERO PUSH2 0x1FB JUMPI POP PUSH1 0x1 PUSH1 0x1 PUSH1 0xA0 SHL SUB DUP4 AND ISZERO ISZERO JUMPDEST DUP1 ISZERO PUSH2 0x20F JUMPI POP PUSH1 0x1 PUSH1 0x1 PUSH1 0xA0 SHL SUB DUP3 AND ISZERO ISZERO JUMPDEST PUSH2 0x24D JUMPI PUSH1 0x40 MLOAD PUSH3 0x461BCD PUSH1 0xE5 SHL DUP2 MSTORE PUSH1 0x20 PUSH1 0x4 DUP3 ADD MSTORE PUSH1 0xF PUSH1 0x24 DUP3 ADD MSTORE PUSH15 0x496E76616C69642041646472657373 PUSH1 0x88 SHL PUSH1 0x44 DUP3 ADD MSTORE PUSH1 0x64 ADD PUSH2 0x1BE JUMP JUMPDEST DUP3 PUSH1 0x1 PUSH1 0x1 PUSH1 0xA0 SHL SUB AND DUP5 PUSH1 0x1 PUSH1 0x1 PUSH1 0xA0 SHL SUB AND LT PUSH2 0x29E JUMPI PUSH1 0x40 MLOAD PUSH3 0x461BCD PUSH1 0xE5 SHL DUP2 MSTORE PUSH1 0x20 PUSH1 0x4 DUP3 ADD MSTORE PUSH1 0xD PUSH1 0x24 DUP3 ADD MSTORE PUSH13 0x24B73B30B634B21027B93232B9 PUSH1 0x99 SHL PUSH1 0x44 DUP3 ADD MSTORE PUSH1 0x64 ADD PUSH2 0x1BE JUMP JUMPDEST PUSH1 0x40 DUP1 MLOAD PUSH1 0xA0 DUP2 ADD DUP3 MSTORE PUSH1 0x1 PUSH1 0x1 PUSH1 0xA0 SHL SUB DUP1 DUP9 AND DUP3 MSTORE DUP7 DUP2 AND PUSH1 0x20 DUP4 ADD SWAP1 DUP2 MSTORE DUP7 DUP3 AND SWAP4 DUP4 ADD SWAP4 DUP5 MSTORE DUP6 DUP3 AND PUSH1 0x60 DUP5 ADD SWAP1 DUP2 MSTORE PUSH1 0x0 PUSH1 0x80 DUP6 ADD DUP2 DUP2 MSTORE PUSH1 0x2 DUP1 SLOAD PUSH1 0x1 DUP2 DUP2 ADD DUP4 SSTORE SWAP4 DUP3 SWAP1 MSTORE SWAP7 MLOAD PUSH1 0x4 SWAP1 SWAP8 MUL PUSH32 0x405787FA12A823E0F2B7631CC41B3BA8828B3321CA811111FA75CD3AA3BB5ACE DUP2 ADD DUP1 SLOAD SWAP9 DUP9 AND PUSH1 0x1 PUSH1 0x1 PUSH1 0xA0 SHL SUB NOT SWAP10 DUP11 AND OR SWAP1 SSTORE SWAP5 MLOAD PUSH32 0x405787FA12A823E0F2B7631CC41B3BA8828B3321CA811111FA75CD3AA3BB5ACF DUP7 ADD DUP1 SLOAD SWAP2 DUP9 AND SWAP2 DUP10 AND SWAP2 SWAP1 SWAP2 OR SWAP1 SSTORE SWAP7 MLOAD PUSH32 0x405787FA12A823E0F2B7631CC41B3BA8828B3321CA811111FA75CD3AA3BB5AD0 DUP6 ADD DUP1 SLOAD SWAP2 DUP8 AND SWAP2 SWAP1 SWAP8 AND OR SWAP1 SWAP6 SSTORE SWAP1 MLOAD PUSH32 0x405787FA12A823E0F2B7631CC41B3BA8828B3321CA811111FA75CD3AA3BB5AD1 SWAP1 SWAP3 ADD DUP1 SLOAD SWAP5 MLOAD ISZERO ISZERO PUSH1 0x1 PUSH1 0xA0 SHL MUL PUSH1 0x1 PUSH1 0x1 PUSH1 0xA8 SHL SUB NOT SWAP1 SWAP6 AND SWAP3 SWAP1 SWAP4 AND SWAP2 SWAP1 SWAP2 OR SWAP3 SWAP1 SWAP3 OR SWAP1 SSTORE SWAP1 SLOAD PUSH2 0x3E5 SWAP2 SWAP1 PUSH2 0x7EB JUMP JUMPDEST PUSH1 0x40 DUP1 MLOAD DUP3 DUP2 MSTORE PUSH1 0x1 PUSH1 0x1 PUSH1 0xA0 SHL SUB DUP9 AND PUSH1 0x20 DUP3 ADD MSTORE SWAP2 SWAP3 POP PUSH32 0xDC467816BE4AE0FB24482B03C7FCAEBABC217FA013C4D51E500DC79C5AD5E2BA SWAP2 ADD PUSH1 0x40 MLOAD DUP1 SWAP2 SUB SWAP1 LOG1 SWAP5 SWAP4 POP POP POP POP JUMP JUMPDEST PUSH1 0x0 SLOAD PUSH1 0x1 PUSH1 0x1 PUSH1 0xA0 SHL SUB AND CALLER EQ PUSH2 0x45B JUMPI PUSH1 0x40 MLOAD PUSH3 0x461BCD PUSH1 0xE5 SHL DUP2 MSTORE PUSH1 0x4 ADD PUSH2 0x1BE SWAP1 PUSH2 0x7B6 JUMP JUMPDEST PUSH2 0x465 PUSH1 0x0 PUSH2 0x6BB JUMP JUMPDEST JUMP JUMPDEST PUSH1 0x2 DUP2 DUP2 SLOAD DUP2 LT PUSH2 0x477 JUMPI PUSH1 0x0 DUP1 REVERT JUMPDEST PUSH1 0x0 SWAP2 DUP3 MSTORE PUSH1 0x20 SWAP1 SWAP2 KECCAK256 PUSH1 0x4 SWAP1 SWAP2 MUL ADD DUP1 SLOAD PUSH1 0x1 DUP3 ADD SLOAD PUSH1 0x2 DUP4 ADD SLOAD PUSH1 0x3 SWAP1 SWAP4 ADD SLOAD PUSH1 0x1 PUSH1 0x1 PUSH1 0xA0 SHL SUB SWAP3 DUP4 AND SWAP5 POP SWAP1 DUP3 AND SWAP3 DUP3 AND SWAP2 DUP2 AND SWAP1 PUSH1 0x1 PUSH1 0xA0 SHL SWAP1 DIV PUSH1 0xFF AND DUP6 JUMP JUMPDEST PUSH1 0x0 SLOAD PUSH1 0x1 PUSH1 0x1 PUSH1 0xA0 SHL SUB AND CALLER EQ PUSH2 0x4E7 JUMPI PUSH1 0x40 MLOAD PUSH3 0x461BCD PUSH1 0xE5 SHL DUP2 MSTORE PUSH1 0x4 ADD PUSH2 0x1BE SWAP1 PUSH2 0x7B6 JUMP JUMPDEST PUSH1 0x1 PUSH1 0x2 DUP3 DUP2 SLOAD DUP2 LT PUSH2 0x4FC JUMPI PUSH2 0x4FC PUSH2 0x812 JUMP JUMPDEST SWAP1 PUSH1 0x0 MSTORE PUSH1 0x20 PUSH1 0x0 KECCAK256 SWAP1 PUSH1 0x4 MUL ADD PUSH1 0x3 ADD PUSH1 0x14 PUSH2 0x100 EXP DUP2 SLOAD DUP2 PUSH1 0xFF MUL NOT AND SWAP1 DUP4 ISZERO ISZERO MUL OR SWAP1 SSTORE POP PUSH32 0xB07C86833892733D795E460C0C7EF561CB87D1143F4BD7C61A282334B7A1F3CC DUP2 PUSH1 0x40 MLOAD PUSH2 0x555 SWAP2 DUP2 MSTORE PUSH1 0x20 ADD SWAP1 JUMP JUMPDEST PUSH1 0x40 MLOAD DUP1 SWAP2 SUB SWAP1 LOG1 POP JUMP JUMPDEST PUSH1 0x0 SLOAD PUSH1 0x1 PUSH1 0x1 PUSH1 0xA0 SHL SUB AND CALLER EQ PUSH2 0x58A JUMPI PUSH1 0x40 MLOAD PUSH3 0x461BCD PUSH1 0xE5 SHL DUP2 MSTORE PUSH1 0x4 ADD PUSH2 0x1BE SWAP1 PUSH2 0x7B6 JUMP JUMPDEST PUSH1 0x1 PUSH1 0x1 PUSH1 0xA0 SHL SUB DUP2 AND PUSH2 0x5D2 JUMPI PUSH1 0x40 MLOAD PUSH3 0x461BCD PUSH1 0xE5 SHL DUP2 MSTORE PUSH1 0x20 PUSH1 0x4 DUP3 ADD MSTORE PUSH1 0xF PUSH1 0x24 DUP3 ADD MSTORE PUSH15 0x496E76616C69642061646472657373 PUSH1 0x88 SHL PUSH1 0x44 DUP3 ADD MSTORE PUSH1 0x64 ADD PUSH2 0x1BE JUMP JUMPDEST PUSH1 0x1 DUP1 SLOAD PUSH1 0x1 PUSH1 0x1 PUSH1 0xA0 SHL SUB NOT AND PUSH1 0x1 PUSH1 0x1 PUSH1 0xA0 SHL SUB DUP4 AND SWAP1 DUP2 OR SWAP1 SWAP2 SSTORE PUSH1 0x40 MLOAD SWAP1 DUP2 MSTORE PUSH32 0x1F54D231BB9D500B1923E4A1CB25E600F366A8368873D9AF7C1C623814DF19FC SWAP1 PUSH1 0x20 ADD PUSH2 0x555 JUMP JUMPDEST PUSH1 0x0 SLOAD PUSH1 0x1 PUSH1 0x1 PUSH1 0xA0 SHL SUB AND CALLER EQ PUSH2 0x64A JUMPI PUSH1 0x40 MLOAD PUSH3 0x461BCD PUSH1 0xE5 SHL DUP2 MSTORE PUSH1 0x4 ADD PUSH2 0x1BE SWAP1 PUSH2 0x7B6 JUMP JUMPDEST PUSH1 0x1 PUSH1 0x1 PUSH1 0xA0 SHL SUB DUP2 AND PUSH2 0x6AF JUMPI PUSH1 0x40 MLOAD PUSH3 0x461BCD PUSH1 0xE5 SHL DUP2 MSTORE PUSH1 0x20 PUSH1 0x4 DUP3 ADD MSTORE PUSH1 0x26 PUSH1 0x24 DUP3 ADD MSTORE PUSH32 0x4F776E61626C653A206E6577206F776E657220697320746865207A65726F2061 PUSH1 0x44 DUP3 ADD MSTORE PUSH6 0x646472657373 PUSH1 0xD0 SHL PUSH1 0x64 DUP3 ADD MSTORE PUSH1 0x84 ADD PUSH2 0x1BE JUMP JUMPDEST PUSH2 0x6B8 DUP2 PUSH2 0x6BB JUMP JUMPDEST POP JUMP JUMPDEST PUSH1 0x0 DUP1 SLOAD PUSH1 0x1 PUSH1 0x1 PUSH1 0xA0 SHL SUB DUP4 DUP2 AND PUSH1 0x1 PUSH1 0x1 PUSH1 0xA0 SHL SUB NOT DUP4 AND DUP2 OR DUP5 SSTORE PUSH1 0x40 MLOAD SWAP2 SWAP1 SWAP3 AND SWAP3 DUP4 SWAP2 PUSH32 0x8BE0079C531659141344CD1FD0A4F28419497F9722A3DAAFE3B4186F6B6457E0 SWAP2 SWAP1 LOG3 POP POP JUMP JUMPDEST DUP1 CALLDATALOAD PUSH1 0x1 PUSH1 0x1 PUSH1 0xA0 SHL SUB DUP2 AND DUP2 EQ PUSH2 0x722 JUMPI PUSH1 0x0 DUP1 REVERT JUMPDEST SWAP2 SWAP1 POP JUMP JUMPDEST PUSH1 0x0 DUP1 PUSH1 0x0 DUP1 PUSH1 0x80 DUP6 DUP8 SUB SLT ISZERO PUSH2 0x73D JUMPI PUSH1 0x0 DUP1 REVERT JUMPDEST PUSH2 0x746 DUP6 PUSH2 0x70B JUMP JUMPDEST SWAP4 POP PUSH2 0x754 PUSH1 0x20 DUP7 ADD PUSH2 0x70B JUMP JUMPDEST SWAP3 POP PUSH2 0x762 PUSH1 0x40 DUP7 ADD PUSH2 0x70B JUMP JUMPDEST SWAP2 POP PUSH2 0x770 PUSH1 0x60 DUP7 ADD PUSH2 0x70B JUMP JUMPDEST SWAP1 POP SWAP3 SWAP6 SWAP2 SWAP5 POP SWAP3 POP JUMP JUMPDEST PUSH1 0x0 PUSH1 0x20 DUP3 DUP5 SUB SLT ISZERO PUSH2 0x78D JUMPI PUSH1 0x0 DUP1 REVERT JUMPDEST POP CALLDATALOAD SWAP2 SWAP1 POP JUMP JUMPDEST PUSH1 0x0 PUSH1 0x20 DUP3 DUP5 SUB SLT ISZERO PUSH2 0x7A6 JUMPI PUSH1 0x0 DUP1 REVERT JUMPDEST PUSH2 0x7AF DUP3 PUSH2 0x70B JUMP JUMPDEST SWAP4 SWAP3 POP POP POP JUMP JUMPDEST PUSH1 0x20 DUP1 DUP3 MSTORE DUP2 DUP2 ADD MSTORE PUSH32 0x4F776E61626C653A2063616C6C6572206973206E6F7420746865206F776E6572 PUSH1 0x40 DUP3 ADD MSTORE PUSH1 0x60 ADD SWAP1 JUMP JUMPDEST DUP2 DUP2 SUB DUP2 DUP2 GT ISZERO PUSH2 0x80C JUMPI PUSH4 0x4E487B71 PUSH1 0xE0 SHL PUSH1 0x0 MSTORE PUSH1 0x11 PUSH1 0x4 MSTORE PUSH1 0x24 PUSH1 0x0 REVERT JUMPDEST SWAP3 SWAP2 POP POP JUMP JUMPDEST PUSH4 0x4E487B71 PUSH1 0xE0 SHL PUSH1 0x0 MSTORE PUSH1 0x32 PUSH1 0x4 MSTORE PUSH1 0x24 PUSH1 0x0 REVERT INVALID LOG2 PUSH5 0x6970667358 0x22 SLT KECCAK256 0xE2 DUP5 0xE1 0xAF SWAP1 0xB9 0xA5 SWAP7 0xE5 0xB5 0xEE 0x4F DUP2 0xA8 0x27 DUP11 0xC0 SELFDESTRUCT PUSH9 0xE26AE26B5A27152206 0xD1 DIFFICULTY 0x24 JUMPI PUSH5 0x736F6C6343 STOP ADDMOD SGT STOP CALLER ",
  "sha1": "6baf8fd098eac00fbbbcf28f7ea8db425e4899a3",
  "source": "// SPDX-License-Identifier: none\npragma solidity 0.8.19;\n\nimport \"./openzeppelin-solidity/contracts/access/Ownable.sol\";\n\n\n/**\n * Contract RoeRouter holds a list of whitelisted ROE lending pools and important parameters\n */\ncontract RoeRouter is Ownable {\n  /// EVENTS\n  event AddPool(uint poolId, address lendingPoolAddressProvider);\n  event DeprecatePool(uint poolId);\n  event UpdateTreasury(address treasury);\n\n  /// ROE treasury\n  address public treasury;\n\n  /// List of pools\n  RoePool[] public pools;\n\n  /// Lending pool structure\n  struct RoePool {\n    address lendingPoolAddressProvider;\n    address token0;\n    address token1;\n    address ammRouter;\n    bool isDeprecated;\n  }\n  \n  \n  /// @notice constructor\n  constructor (address treasury_) {\n    require(treasury_ != address(0x0), \"Invalid address\");\n    treasury = treasury_;\n  }\n  \n  \n  /// @notice Return pool list length\n  function getPoolsLength() public view returns (uint poolLength) {\n    poolLength = pools.length;\n  }\n  \n  \n  /// @notice Deprecate a pool\n  /// @param poolId pool ID\n  /// @dev isDeprecated is a statement about the pool record, and does not imply anything about the pool itself\n  function deprecatePool(uint poolId) public onlyOwner {\n    pools[poolId].isDeprecated = true;\n    emit DeprecatePool(poolId);\n  }\n  \n  \n  /// @notice Add a new pool parameters\n  /// @param lendingPoolAddressProvider address of a ROE Aave-compatible lending pool address provider\n  /// @param token0 address of the one token of the pair \n  /// @param token1 address of the second token of the pair\n  /// @param ammRouter address of the AMMv2 such that the LP pair ammRouter.factory.getPair(token0, token1) is supported by the lending pool\n  function addPool(\n    address lendingPoolAddressProvider, \n    address token0, \n    address token1, \n    address ammRouter\n  ) \n    public onlyOwner \n    returns (uint poolId)\n  {\n    require (\n      lendingPoolAddressProvider != address(0x0) \n      && token0 != address(0x0) \n      && token1 != address(0x0) \n      && ammRouter != address(0x0), \n      \"Invalid Address\"\n    );\n    require(token0 < token1, \"Invalid Order\");\n    pools.push(RoePool(lendingPoolAddressProvider, token0, token1, ammRouter, false));\n    poolId = pools.length - 1;\n    emit AddPool(poolId, lendingPoolAddressProvider);\n  }\n  \n  /// @notice Modify treaury address\n  /// @param newTreasury New treasury address\n  function setTreasury(address newTreasury) public onlyOwner {\n    require(newTreasury != address(0x0), \"Invalid address\");\n    treasury = newTreasury;\n    emit UpdateTreasury(newTreasury);\n  }\n}",
  "sourcePath": "contracts/RoeRouter.sol",
  "type": "contract"
}