{
  "abi": [
    {
      "inputs": [
        {
          "internalType": "uint256",
          "name": "value",
          "type": "uint256"
        }
      ],
      "name": "fromUint256",
      "outputs": [
        {
          "internalType": "string",
          "name": "",
          "type": "string"
        }
      ],
      "stateMutability": "pure",
      "type": "function"
    },
    {
      "inputs": [
        {
          "internalType": "uint256",
          "name": "value",
          "type": "uint256"
        }
      ],
      "name": "fromUint256Hex",
      "outputs": [
        {
          "internalType": "string",
          "name": "",
          "type": "string"
        }
      ],
      "stateMutability": "pure",
      "type": "function"
    },
    {
      "inputs": [
        {
          "internalType": "uint256",
          "name": "value",
          "type": "uint256"
        },
        {
          "internalType": "uint256",
          "name": "length",
          "type": "uint256"
        }
      ],
      "name": "fromUint256HexFixed",
      "outputs": [
        {
          "internalType": "string",
          "name": "",
          "type": "string"
        }
      ],
      "stateMutability": "pure",
      "type": "function"
    }
  ],
  "bytecode": "608060405234801561001057600080fd5b50610570806100206000396000f3fe608060405234801561001057600080fd5b50600436106100415760003560e01c806302c5b75f1461004657806392b0ed1a1461006f578063a2bd364414610082575b600080fd5b6100596100543660046103c4565b610095565b60405161006691906103dd565b60405180910390f35b61005961007d36600461042b565b6100a6565b6100596100903660046103c4565b6100b9565b60606100a0826100c4565b92915050565b60606100b28383610123565b9392505050565b60606100a0826102c3565b6060816000036100ee5750506040805180820190915260048152630307830360e41b602082015290565b8160005b8115610111578061010281610463565b915050600882901c91506100f2565b61011b8482610123565b949350505050565b6060600061013283600261047c565b61013d906002610493565b67ffffffffffffffff811115610155576101556104a6565b6040519080825280601f01601f19166020018201604052801561017f576020820181803683370190505b509050600360fc1b8160008151811061019a5761019a6104bc565b60200101906001600160f81b031916908160001a905350600f60fb1b816001815181106101c9576101c96104bc565b60200101906001600160f81b031916908160001a90535060006101ed84600261047c565b6101f8906001610493565b90505b6001811115610270576f181899199a1a9b1b9c1cb0b131b232b360811b85600f166010811061022c5761022c6104bc565b1a60f81b828281518110610242576102426104bc565b60200101906001600160f81b031916908160001a90535060049490941c93610269816104d2565b90506101fb565b5083156100b25760405162461bcd60e51b815260206004820181905260248201527f537472696e67733a20686578206c656e67746820696e73756666696369656e74604482015260640160405180910390fd5b6060816000036102ea5750506040805180820190915260018152600360fc1b602082015290565b8160005b811561031457806102fe81610463565b915061030d9050600a836104ff565b91506102ee565b60008167ffffffffffffffff81111561032f5761032f6104a6565b6040519080825280601f01601f191660200182016040528015610359576020820181803683370190505b5090505b841561011b5761036e600183610513565b915061037b600a86610526565b610386906030610493565b60f81b81838151811061039b5761039b6104bc565b60200101906001600160f81b031916908160001a9053506103bd600a866104ff565b945061035d565b6000602082840312156103d657600080fd5b5035919050565b600060208083528351808285015260005b8181101561040a578581018301518582016040015282016103ee565b506000604082860101526040601f19601f8301168501019250505092915050565b6000806040838503121561043e57600080fd5b50508035926020909101359150565b634e487b7160e01b600052601160045260246000fd5b6000600182016104755761047561044d565b5060010190565b80820281158282048414176100a0576100a061044d565b808201808211156100a0576100a061044d565b634e487b7160e01b600052604160045260246000fd5b634e487b7160e01b600052603260045260246000fd5b6000816104e1576104e161044d565b506000190190565b634e487b7160e01b600052601260045260246000fd5b60008261050e5761050e6104e9565b500490565b818103818111156100a0576100a061044d565b600082610535576105356104e9565b50069056fea26469706673582212201236d2344d91044fc13aad354254464dccac47caa322c224d630601543bf185b64736f6c63430008150033",
  "bytecodeSha1": "837170fce621aa48cc1716826003d6cda4037a51",
  "compiler": {
    "evm_version": "istanbul",
    "optimizer": {
      "enabled": true,
      "runs": 200
    },
    "version": "0.8.21+commit.d9974bed"
  },
  "contractName": "StringsMock",
  "language": "Solidity",
  "natspec": {
    "kind": "dev",
    "methods": {},
    "version": 1
  },
  "opcodes": "PUSH1 0x80 PUSH1 0x40 MSTORE CALLVALUE DUP1 ISZERO PUSH2 0x10 JUMPI PUSH1 0x0 DUP1 REVERT JUMPDEST POP PUSH1 0x4 CALLDATASIZE LT PUSH2 0x41 JUMPI PUSH1 0x0 CALLDATALOAD PUSH1 0xE0 SHR DUP1 PUSH4 0x2C5B75F EQ PUSH2 0x46 JUMPI DUP1 PUSH4 0x92B0ED1A EQ PUSH2 0x6F JUMPI DUP1 PUSH4 0xA2BD3644 EQ PUSH2 0x82 JUMPI JUMPDEST PUSH1 0x0 DUP1 REVERT JUMPDEST PUSH2 0x59 PUSH2 0x54 CALLDATASIZE PUSH1 0x4 PUSH2 0x3C4 JUMP JUMPDEST PUSH2 0x95 JUMP JUMPDEST PUSH1 0x40 MLOAD PUSH2 0x66 SWAP2 SWAP1 PUSH2 0x3DD JUMP JUMPDEST PUSH1 0x40 MLOAD DUP1 SWAP2 SUB SWAP1 RETURN JUMPDEST PUSH2 0x59 PUSH2 0x7D CALLDATASIZE PUSH1 0x4 PUSH2 0x42B JUMP JUMPDEST PUSH2 0xA6 JUMP JUMPDEST PUSH2 0x59 PUSH2 0x90 CALLDATASIZE PUSH1 0x4 PUSH2 0x3C4 JUMP JUMPDEST PUSH2 0xB9 JUMP JUMPDEST PUSH1 0x60 PUSH2 0xA0 DUP3 PUSH2 0xC4 JUMP JUMPDEST SWAP3 SWAP2 POP POP JUMP JUMPDEST PUSH1 0x60 PUSH2 0xB2 DUP4 DUP4 PUSH2 0x123 JUMP JUMPDEST SWAP4 SWAP3 POP POP POP JUMP JUMPDEST PUSH1 0x60 PUSH2 0xA0 DUP3 PUSH2 0x2C3 JUMP JUMPDEST PUSH1 0x60 DUP2 PUSH1 0x0 SUB PUSH2 0xEE JUMPI POP POP PUSH1 0x40 DUP1 MLOAD DUP1 DUP3 ADD SWAP1 SWAP2 MSTORE PUSH1 0x4 DUP2 MSTORE PUSH4 0x3078303 PUSH1 0xE4 SHL PUSH1 0x20 DUP3 ADD MSTORE SWAP1 JUMP JUMPDEST DUP2 PUSH1 0x0 JUMPDEST DUP2 ISZERO PUSH2 0x111 JUMPI DUP1 PUSH2 0x102 DUP2 PUSH2 0x463 JUMP JUMPDEST SWAP2 POP POP PUSH1 0x8 DUP3 SWAP1 SHR SWAP2 POP PUSH2 0xF2 JUMP JUMPDEST PUSH2 0x11B DUP5 DUP3 PUSH2 0x123 JUMP JUMPDEST SWAP5 SWAP4 POP POP POP POP JUMP JUMPDEST PUSH1 0x60 PUSH1 0x0 PUSH2 0x132 DUP4 PUSH1 0x2 PUSH2 0x47C JUMP JUMPDEST PUSH2 0x13D SWAP1 PUSH1 0x2 PUSH2 0x493 JUMP JUMPDEST PUSH8 0xFFFFFFFFFFFFFFFF DUP2 GT ISZERO PUSH2 0x155 JUMPI PUSH2 0x155 PUSH2 0x4A6 JUMP JUMPDEST PUSH1 0x40 MLOAD SWAP1 DUP1 DUP3 MSTORE DUP1 PUSH1 0x1F ADD PUSH1 0x1F NOT AND PUSH1 0x20 ADD DUP3 ADD PUSH1 0x40 MSTORE DUP1 ISZERO PUSH2 0x17F JUMPI PUSH1 0x20 DUP3 ADD DUP2 DUP1 CALLDATASIZE DUP4 CALLDATACOPY ADD SWAP1 POP JUMPDEST POP SWAP1 POP PUSH1 0x3 PUSH1 0xFC SHL DUP2 PUSH1 0x0 DUP2 MLOAD DUP2 LT PUSH2 0x19A JUMPI PUSH2 0x19A PUSH2 0x4BC JUMP JUMPDEST PUSH1 0x20 ADD ADD SWAP1 PUSH1 0x1 PUSH1 0x1 PUSH1 0xF8 SHL SUB NOT AND SWAP1 DUP2 PUSH1 0x0 BYTE SWAP1 MSTORE8 POP PUSH1 0xF PUSH1 0xFB SHL DUP2 PUSH1 0x1 DUP2 MLOAD DUP2 LT PUSH2 0x1C9 JUMPI PUSH2 0x1C9 PUSH2 0x4BC JUMP JUMPDEST PUSH1 0x20 ADD ADD SWAP1 PUSH1 0x1 PUSH1 0x1 PUSH1 0xF8 SHL SUB NOT AND SWAP1 DUP2 PUSH1 0x0 BYTE SWAP1 MSTORE8 POP PUSH1 0x0 PUSH2 0x1ED DUP5 PUSH1 0x2 PUSH2 0x47C JUMP JUMPDEST PUSH2 0x1F8 SWAP1 PUSH1 0x1 PUSH2 0x493 JUMP JUMPDEST SWAP1 POP JUMPDEST PUSH1 0x1 DUP2 GT ISZERO PUSH2 0x270 JUMPI PUSH16 0x181899199A1A9B1B9C1CB0B131B232B3 PUSH1 0x81 SHL DUP6 PUSH1 0xF AND PUSH1 0x10 DUP2 LT PUSH2 0x22C JUMPI PUSH2 0x22C PUSH2 0x4BC JUMP JUMPDEST BYTE PUSH1 0xF8 SHL DUP3 DUP3 DUP2 MLOAD DUP2 LT PUSH2 0x242 JUMPI PUSH2 0x242 PUSH2 0x4BC JUMP JUMPDEST PUSH1 0x20 ADD ADD SWAP1 PUSH1 0x1 PUSH1 0x1 PUSH1 0xF8 SHL SUB NOT AND SWAP1 DUP2 PUSH1 0x0 BYTE SWAP1 MSTORE8 POP PUSH1 0x4 SWAP5 SWAP1 SWAP5 SHR SWAP4 PUSH2 0x269 DUP2 PUSH2 0x4D2 JUMP JUMPDEST SWAP1 POP PUSH2 0x1FB JUMP JUMPDEST POP DUP4 ISZERO PUSH2 0xB2 JUMPI PUSH1 0x40 MLOAD PUSH3 0x461BCD PUSH1 0xE5 SHL DUP2 MSTORE PUSH1 0x20 PUSH1 0x4 DUP3 ADD DUP2 SWAP1 MSTORE PUSH1 0x24 DUP3 ADD MSTORE PUSH32 0x537472696E67733A20686578206C656E67746820696E73756666696369656E74 PUSH1 0x44 DUP3 ADD MSTORE PUSH1 0x64 ADD PUSH1 0x40 MLOAD DUP1 SWAP2 SUB SWAP1 REVERT JUMPDEST PUSH1 0x60 DUP2 PUSH1 0x0 SUB PUSH2 0x2EA JUMPI POP POP PUSH1 0x40 DUP1 MLOAD DUP1 DUP3 ADD SWAP1 SWAP2 MSTORE PUSH1 0x1 DUP2 MSTORE PUSH1 0x3 PUSH1 0xFC SHL PUSH1 0x20 DUP3 ADD MSTORE SWAP1 JUMP JUMPDEST DUP2 PUSH1 0x0 JUMPDEST DUP2 ISZERO PUSH2 0x314 JUMPI DUP1 PUSH2 0x2FE DUP2 PUSH2 0x463 JUMP JUMPDEST SWAP2 POP PUSH2 0x30D SWAP1 POP PUSH1 0xA DUP4 PUSH2 0x4FF JUMP JUMPDEST SWAP2 POP PUSH2 0x2EE JUMP JUMPDEST PUSH1 0x0 DUP2 PUSH8 0xFFFFFFFFFFFFFFFF DUP2 GT ISZERO PUSH2 0x32F JUMPI PUSH2 0x32F PUSH2 0x4A6 JUMP JUMPDEST PUSH1 0x40 MLOAD SWAP1 DUP1 DUP3 MSTORE DUP1 PUSH1 0x1F ADD PUSH1 0x1F NOT AND PUSH1 0x20 ADD DUP3 ADD PUSH1 0x40 MSTORE DUP1 ISZERO PUSH2 0x359 JUMPI PUSH1 0x20 DUP3 ADD DUP2 DUP1 CALLDATASIZE DUP4 CALLDATACOPY ADD SWAP1 POP JUMPDEST POP SWAP1 POP JUMPDEST DUP5 ISZERO PUSH2 0x11B JUMPI PUSH2 0x36E PUSH1 0x1 DUP4 PUSH2 0x513 JUMP JUMPDEST SWAP2 POP PUSH2 0x37B PUSH1 0xA DUP7 PUSH2 0x526 JUMP JUMPDEST PUSH2 0x386 SWAP1 PUSH1 0x30 PUSH2 0x493 JUMP JUMPDEST PUSH1 0xF8 SHL DUP2 DUP4 DUP2 MLOAD DUP2 LT PUSH2 0x39B JUMPI PUSH2 0x39B PUSH2 0x4BC JUMP JUMPDEST PUSH1 0x20 ADD ADD SWAP1 PUSH1 0x1 PUSH1 0x1 PUSH1 0xF8 SHL SUB NOT AND SWAP1 DUP2 PUSH1 0x0 BYTE SWAP1 MSTORE8 POP PUSH2 0x3BD PUSH1 0xA DUP7 PUSH2 0x4FF JUMP JUMPDEST SWAP5 POP PUSH2 0x35D JUMP JUMPDEST PUSH1 0x0 PUSH1 0x20 DUP3 DUP5 SUB SLT ISZERO PUSH2 0x3D6 JUMPI PUSH1 0x0 DUP1 REVERT JUMPDEST POP CALLDATALOAD SWAP2 SWAP1 POP JUMP JUMPDEST PUSH1 0x0 PUSH1 0x20 DUP1 DUP4 MSTORE DUP4 MLOAD DUP1 DUP3 DUP6 ADD MSTORE PUSH1 0x0 JUMPDEST DUP2 DUP2 LT ISZERO PUSH2 0x40A JUMPI DUP6 DUP2 ADD DUP4 ADD MLOAD DUP6 DUP3 ADD PUSH1 0x40 ADD MSTORE DUP3 ADD PUSH2 0x3EE JUMP JUMPDEST POP PUSH1 0x0 PUSH1 0x40 DUP3 DUP7 ADD ADD MSTORE PUSH1 0x40 PUSH1 0x1F NOT PUSH1 0x1F DUP4 ADD AND DUP6 ADD ADD SWAP3 POP POP POP SWAP3 SWAP2 POP POP JUMP JUMPDEST PUSH1 0x0 DUP1 PUSH1 0x40 DUP4 DUP6 SUB SLT ISZERO PUSH2 0x43E JUMPI PUSH1 0x0 DUP1 REVERT JUMPDEST POP POP DUP1 CALLDATALOAD SWAP3 PUSH1 0x20 SWAP1 SWAP2 ADD CALLDATALOAD SWAP2 POP JUMP JUMPDEST PUSH4 0x4E487B71 PUSH1 0xE0 SHL PUSH1 0x0 MSTORE PUSH1 0x11 PUSH1 0x4 MSTORE PUSH1 0x24 PUSH1 0x0 REVERT JUMPDEST PUSH1 0x0 PUSH1 0x1 DUP3 ADD PUSH2 0x475 JUMPI PUSH2 0x475 PUSH2 0x44D JUMP JUMPDEST POP PUSH1 0x1 ADD SWAP1 JUMP JUMPDEST DUP1 DUP3 MUL DUP2 ISZERO DUP3 DUP3 DIV DUP5 EQ OR PUSH2 0xA0 JUMPI PUSH2 0xA0 PUSH2 0x44D JUMP JUMPDEST DUP1 DUP3 ADD DUP1 DUP3 GT ISZERO PUSH2 0xA0 JUMPI PUSH2 0xA0 PUSH2 0x44D JUMP JUMPDEST PUSH4 0x4E487B71 PUSH1 0xE0 SHL PUSH1 0x0 MSTORE PUSH1 0x41 PUSH1 0x4 MSTORE PUSH1 0x24 PUSH1 0x0 REVERT JUMPDEST PUSH4 0x4E487B71 PUSH1 0xE0 SHL PUSH1 0x0 MSTORE PUSH1 0x32 PUSH1 0x4 MSTORE PUSH1 0x24 PUSH1 0x0 REVERT JUMPDEST PUSH1 0x0 DUP2 PUSH2 0x4E1 JUMPI PUSH2 0x4E1 PUSH2 0x44D JUMP JUMPDEST POP PUSH1 0x0 NOT ADD SWAP1 JUMP JUMPDEST PUSH4 0x4E487B71 PUSH1 0xE0 SHL PUSH1 0x0 MSTORE PUSH1 0x12 PUSH1 0x4 MSTORE PUSH1 0x24 PUSH1 0x0 REVERT JUMPDEST PUSH1 0x0 DUP3 PUSH2 0x50E JUMPI PUSH2 0x50E PUSH2 0x4E9 JUMP JUMPDEST POP DIV SWAP1 JUMP JUMPDEST DUP2 DUP2 SUB DUP2 DUP2 GT ISZERO PUSH2 0xA0 JUMPI PUSH2 0xA0 PUSH2 0x44D JUMP JUMPDEST PUSH1 0x0 DUP3 PUSH2 0x535 JUMPI PUSH2 0x535 PUSH2 0x4E9 JUMP JUMPDEST POP MOD SWAP1 JUMP INVALID LOG2 PUSH5 0x6970667358 0x22 SLT KECCAK256 SLT CALLDATASIZE 0xD2 CALLVALUE 0x4D SWAP2 DIV 0x4F 0xC1 GASPRICE 0xAD CALLDATALOAD TIMESTAMP SLOAD CHAINID 0x4D 0xCC 0xAC SELFBALANCE 0xCA LOG3 0x22 0xC2 0x24 0xD6 ADDRESS PUSH1 0x15 NUMBER 0xBF XOR JUMPDEST PUSH5 0x736F6C6343 STOP ADDMOD ISZERO STOP CALLER ",
  "sha1": "56932706281832cf8886fdca511e3938dec2c29c",
  "source": "// SPDX-License-Identifier: MIT\n\npragma solidity ^0.8.0;\n\nimport \"../utils/Strings.sol\";\n\ncontract StringsMock {\n    function fromUint256(uint256 value) public pure returns (string memory) {\n        return Strings.toString(value);\n    }\n\n    function fromUint256Hex(uint256 value) public pure returns (string memory) {\n        return Strings.toHexString(value);\n    }\n\n    function fromUint256HexFixed(uint256 value, uint256 length) public pure returns (string memory) {\n        return Strings.toHexString(value, length);\n    }\n}\n",
  "sourcePath": "contracts/openzeppelin-solidity/contracts/mocks/StringsMock.sol",
  "type": "contract"
}