{
  "abi": [
    {
      "inputs": [
        {
          "internalType": "address",
          "name": "roerouter",
          "type": "address"
        }
      ],
      "stateMutability": "nonpayable",
      "type": "constructor"
    },
    {
      "anonymous": false,
      "inputs": [
        {
          "indexed": true,
          "internalType": "address",
          "name": "user",
          "type": "address"
        },
        {
          "indexed": true,
          "internalType": "address",
          "name": "asset",
          "type": "address"
        },
        {
          "indexed": false,
          "internalType": "uint256",
          "name": "amount",
          "type": "uint256"
        },
        {
          "indexed": false,
          "internalType": "uint256",
          "name": "amount0",
          "type": "uint256"
        },
        {
          "indexed": false,
          "internalType": "uint256",
          "name": "amount1",
          "type": "uint256"
        }
      ],
      "name": "BuyOptions",
      "type": "event"
    },
    {
      "anonymous": false,
      "inputs": [
        {
          "indexed": true,
          "internalType": "address",
          "name": "user",
          "type": "address"
        },
        {
          "indexed": true,
          "internalType": "address",
          "name": "asset",
          "type": "address"
        },
        {
          "indexed": false,
          "internalType": "uint256",
          "name": "amount",
          "type": "uint256"
        },
        {
          "indexed": false,
          "internalType": "uint256",
          "name": "amount0",
          "type": "uint256"
        },
        {
          "indexed": false,
          "internalType": "uint256",
          "name": "amount1",
          "type": "uint256"
        }
      ],
      "name": "ClosePosition",
      "type": "event"
    },
    {
      "anonymous": false,
      "inputs": [
        {
          "indexed": true,
          "internalType": "address",
          "name": "user",
          "type": "address"
        },
        {
          "indexed": true,
          "internalType": "address",
          "name": "asset",
          "type": "address"
        },
        {
          "indexed": false,
          "internalType": "uint256",
          "name": "amount",
          "type": "uint256"
        },
        {
          "indexed": false,
          "internalType": "uint256",
          "name": "amount0",
          "type": "uint256"
        },
        {
          "indexed": false,
          "internalType": "uint256",
          "name": "amount1",
          "type": "uint256"
        }
      ],
      "name": "LiquidatePosition",
      "type": "event"
    },
    {
      "anonymous": false,
      "inputs": [
        {
          "indexed": true,
          "internalType": "address",
          "name": "user",
          "type": "address"
        },
        {
          "indexed": true,
          "internalType": "address",
          "name": "asset",
          "type": "address"
        },
        {
          "indexed": false,
          "internalType": "uint256",
          "name": "amount",
          "type": "uint256"
        }
      ],
      "name": "ReducedPosition",
      "type": "event"
    },
    {
      "anonymous": false,
      "inputs": [
        {
          "indexed": true,
          "internalType": "address",
          "name": "user",
          "type": "address"
        },
        {
          "indexed": true,
          "internalType": "address",
          "name": "asset",
          "type": "address"
        },
        {
          "indexed": false,
          "internalType": "uint256",
          "name": "amount",
          "type": "uint256"
        },
        {
          "indexed": false,
          "internalType": "uint256",
          "name": "amount0",
          "type": "uint256"
        },
        {
          "indexed": false,
          "internalType": "uint256",
          "name": "amount1",
          "type": "uint256"
        }
      ],
      "name": "SellOptions",
      "type": "event"
    },
    {
      "anonymous": false,
      "inputs": [
        {
          "indexed": true,
          "internalType": "address",
          "name": "user",
          "type": "address"
        },
        {
          "indexed": false,
          "internalType": "address",
          "name": "sourceAsset",
          "type": "address"
        },
        {
          "indexed": false,
          "internalType": "uint256",
          "name": "sourceAmount",
          "type": "uint256"
        },
        {
          "indexed": false,
          "internalType": "address",
          "name": "targetAsset",
          "type": "address"
        },
        {
          "indexed": false,
          "internalType": "uint256",
          "name": "targetAmount",
          "type": "uint256"
        }
      ],
      "name": "Swap",
      "type": "event"
    },
    {
      "inputs": [],
      "name": "ADDRESSES_PROVIDER",
      "outputs": [
        {
          "internalType": "contract ILendingPoolAddressesProvider",
          "name": "",
          "type": "address"
        }
      ],
      "stateMutability": "view",
      "type": "function"
    },
    {
      "inputs": [],
      "name": "LENDING_POOL",
      "outputs": [
        {
          "internalType": "contract ILendingPool",
          "name": "",
          "type": "address"
        }
      ],
      "stateMutability": "view",
      "type": "function"
    },
    {
      "inputs": [],
      "name": "ROEROUTER",
      "outputs": [
        {
          "internalType": "contract RoeRouter",
          "name": "",
          "type": "address"
        }
      ],
      "stateMutability": "view",
      "type": "function"
    },
    {
      "inputs": [
        {
          "internalType": "uint256",
          "name": "poolId",
          "type": "uint256"
        },
        {
          "internalType": "address[]",
          "name": "options",
          "type": "address[]"
        },
        {
          "internalType": "uint256[]",
          "name": "amounts",
          "type": "uint256[]"
        },
        {
          "internalType": "address[]",
          "name": "sourceSwap",
          "type": "address[]"
        }
      ],
      "name": "buyOptions",
      "outputs": [],
      "stateMutability": "nonpayable",
      "type": "function"
    },
    {
      "inputs": [
        {
          "internalType": "uint256",
          "name": "poolId",
          "type": "uint256"
        },
        {
          "internalType": "address",
          "name": "user",
          "type": "address"
        },
        {
          "internalType": "address",
          "name": "debtAsset",
          "type": "address"
        },
        {
          "internalType": "uint256",
          "name": "repayAmount",
          "type": "uint256"
        },
        {
          "internalType": "address",
          "name": "collateralAsset",
          "type": "address"
        }
      ],
      "name": "close",
      "outputs": [],
      "stateMutability": "nonpayable",
      "type": "function"
    },
    {
      "inputs": [
        {
          "internalType": "address[]",
          "name": "assets",
          "type": "address[]"
        },
        {
          "internalType": "uint256[]",
          "name": "amounts",
          "type": "uint256[]"
        },
        {
          "internalType": "uint256[]",
          "name": "premiums",
          "type": "uint256[]"
        },
        {
          "internalType": "address",
          "name": "initiator",
          "type": "address"
        },
        {
          "internalType": "bytes",
          "name": "params",
          "type": "bytes"
        }
      ],
      "name": "executeOperation",
      "outputs": [
        {
          "internalType": "bool",
          "name": "result",
          "type": "bool"
        }
      ],
      "stateMutability": "nonpayable",
      "type": "function"
    },
    {
      "inputs": [
        {
          "internalType": "uint256",
          "name": "poolId",
          "type": "uint256"
        },
        {
          "internalType": "address",
          "name": "user",
          "type": "address"
        },
        {
          "internalType": "address[]",
          "name": "options",
          "type": "address[]"
        },
        {
          "internalType": "uint256[]",
          "name": "amounts",
          "type": "uint256[]"
        },
        {
          "internalType": "address",
          "name": "collateralAsset",
          "type": "address"
        }
      ],
      "name": "liquidate",
      "outputs": [],
      "stateMutability": "nonpayable",
      "type": "function"
    },
    {
      "inputs": [
        {
          "internalType": "address",
          "name": "asset",
          "type": "address"
        }
      ],
      "name": "removeDust",
      "outputs": [],
      "stateMutability": "nonpayable",
      "type": "function"
    },
    {
      "inputs": [
        {
          "internalType": "uint256",
          "name": "poolId",
          "type": "uint256"
        },
        {
          "internalType": "address",
          "name": "optionAddress",
          "type": "address"
        },
        {
          "internalType": "uint256",
          "name": "amount0",
          "type": "uint256"
        },
        {
          "internalType": "uint256",
          "name": "amount1",
          "type": "uint256"
        }
      ],
      "name": "sellOptions",
      "outputs": [],
      "stateMutability": "nonpayable",
      "type": "function"
    },
    {
      "inputs": [
        {
          "internalType": "uint256",
          "name": "poolId",
          "type": "uint256"
        },
        {
          "internalType": "address",
          "name": "sourceAsset",
          "type": "address"
        },
        {
          "internalType": "uint256",
          "name": "amount",
          "type": "uint256"
        }
      ],
      "name": "swapTokens",
      "outputs": [
        {
          "internalType": "uint256",
          "name": "received",
          "type": "uint256"
        }
      ],
      "stateMutability": "nonpayable",
      "type": "function"
    },
    {
      "inputs": [
        {
          "internalType": "address",
          "name": "debtAsset",
          "type": "address"
        },
        {
          "internalType": "uint256",
          "name": "debtAmount",
          "type": "uint256"
        },
        {
          "internalType": "uint256",
          "name": "token0Amount",
          "type": "uint256"
        },
        {
          "internalType": "uint256",
          "name": "token1Amount",
          "type": "uint256"
        }
      ],
      "name": "test_checkExpectedBalances",
      "outputs": [],
      "stateMutability": "view",
      "type": "function"
    },
    {
      "inputs": [
        {
          "internalType": "contract IPriceOracle",
          "name": "oracle",
          "type": "address"
        },
        {
          "internalType": "address",
          "name": "assetA",
          "type": "address"
        },
        {
          "internalType": "uint256",
          "name": "amountA",
          "type": "uint256"
        },
        {
          "internalType": "address",
          "name": "assetB",
          "type": "address"
        }
      ],
      "name": "test_getTargetAmountFromOracle",
      "outputs": [
        {
          "internalType": "uint256",
          "name": "",
          "type": "uint256"
        }
      ],
      "stateMutability": "view",
      "type": "function"
    },
    {
      "inputs": [
        {
          "internalType": "contract IUniswapV2Router01",
          "name": "ammRouter",
          "type": "address"
        },
        {
          "internalType": "uint256",
          "name": "recvAmount",
          "type": "uint256"
        },
        {
          "internalType": "uint256",
          "name": "maxAmount",
          "type": "uint256"
        },
        {
          "internalType": "address[]",
          "name": "path",
          "type": "address[]"
        }
      ],
      "name": "test_swapTokensForExactTokens",
      "outputs": [],
      "stateMutability": "nonpayable",
      "type": "function"
    },
    {
      "inputs": [
        {
          "internalType": "uint256",
          "name": "poolId",
          "type": "uint256"
        },
        {
          "internalType": "address",
          "name": "optionAddress",
          "type": "address"
        },
        {
          "internalType": "uint256",
          "name": "amount",
          "type": "uint256"
        }
      ],
      "name": "withdrawOptions",
      "outputs": [],
      "stateMutability": "nonpayable",
      "type": "function"
    }
  ],
  "bytecode": "60806040523480156200001157600080fd5b5060405162004a1538038062004a158339810160408190526200003491620000ac565b80806001600160a01b038116620000835760405162461bcd60e51b815260206004820152600f60248201526e496e76616c6964206164647265737360881b604482015260640160405180910390fd5b600280546001600160a01b0319166001600160a01b039290921691909117905550620000de9050565b600060208284031215620000bf57600080fd5b81516001600160a01b0381168114620000d757600080fd5b9392505050565b61492780620000ee6000396000f3fe608060405234801561001057600080fd5b50600436106100ea5760003560e01c806373b25a751161008c578063b4dcfc7711610066578063b4dcfc77146101ea578063bc936080146101fd578063bead34ed14610210578063bf317e0d1461022357600080fd5b806373b25a75146101a1578063920f5c84146101b4578063ae7bb1c9146101d757600080fd5b80632ba170ee116100c85780632ba170ee1461014757806340ebac7c1461015a57806349a380a41461017b5780635137223c1461018e57600080fd5b80630542975c146100ef5780630cb940791461011f57806325827d8614610134575b600080fd5b600054610102906001600160a01b031681565b6040516001600160a01b0390911681526020015b60405180910390f35b61013261012d366004613c5e565b610236565b005b610132610142366004613cc0565b610248565b610132610155366004613cfd565b610447565b61016d610168366004613d38565b610453565b604051908152602001610116565b610132610189366004613d8b565b61046c565b61013261019c366004613dc3565b610607565b61016d6101af366004613d8b565b6106f2565b6101c76101c2366004613e2b565b6109f2565b6040519015158152602001610116565b600254610102906001600160a01b031681565b600154610102906001600160a01b031681565b61013261020b366004613f8a565b610a77565b61013261021e36600461400f565b610c05565b6101326102313660046140a3565b610dae565b61024284848484610f79565b50505050565b6000806000806102578861121b565b6040516335ea6a7560e01b81526001600160a01b038d8116600483015295995093975090955093506000928716916335ea6a75915060240161018060405180830381865afa1580156102ad573d6000803e3d6000fd5b505050506040513d601f19601f820116820180604052508101906102d19190614194565b60e001516001600160a01b0316036103275760405162461bcd60e51b81526020600482015260146024820152734f504d3a20496e76616c6964204164647265737360601b60448201526064015b60405180910390fd5b6103338433848961137f565b61033f8433838861137f565b61034a8288886114e4565b6103558188876114e4565b604051631c57762b60e31b815260048101879052602481018690526000906001600160a01b0389169063e2bbb158906044016020604051808303816000875af11580156103a6573d6000803e3d6000fd5b505050506040513d601f19601f820116820180604052508101906103ca9190614281565b60408051828152602081018a90529081018890529091506001600160a01b0389169033907f0dbd48b56a2e9ac34c40fae975ada1074775db4868173b67b65cd271fc7b49599060600160405180910390a361042685338a611578565b610431853385611578565b61043c853384611578565b505050505050505050565b6102428484848461184b565b600061046185858585611bbd565b90505b949350505050565b600080600061047a8661121b565b6040516335ea6a7560e01b81526001600160a01b038b811660048301529598509196509450600093871692506335ea6a75915060240161018060405180830381865afa1580156104ce573d6000803e3d6000fd5b505050506040513d601f19601f820116820180604052508101906104f29190614194565b60e001516001600160a01b0316036105435760405162461bcd60e51b81526020600482015260146024820152734f504d3a20496e76616c6964204164647265737360601b604482015260640161031e565b61054f8333878761137f565b60405163a41fe49f60e01b815260048101859052600060248201819052604482018190529081906001600160a01b0388169063a41fe49f9060640160408051808303816000875af11580156105a8573d6000803e3d6000fd5b505050506040513d601f19601f820116820180604052508101906105cc919061429a565b915091506105dc8787848461184b565b6105e7853389611578565b6105f2853386611578565b6105fd853385611578565b5050505050505050565b600254604080516361d027b360e01b815290516106ef926001600160a01b0316916361d027b39160048083019260209291908290030181865afa158015610652573d6000803e3d6000fd5b505050506040513d601f19601f8201168201806040525081019061067691906142be565b6040516370a0823160e01b81523060048201526001600160a01b038416906370a0823190602401602060405180830381865afa1580156106ba573d6000803e3d6000fd5b505050506040513d601f19601f820116820180604052508101906106de9190614281565b6001600160a01b0384169190611e59565b50565b6000806000806000806107048961121b565b94509450945094509450816001600160a01b0316886001600160a01b0316148061073f5750806001600160a01b0316886001600160a01b0316145b61078b5760405162461bcd60e51b815260206004820152601760248201527f4f504d3a20496e76616c69642053776170204173736574000000000000000000604482015260640161031e565b86600003610883576040516335ea6a7560e01b81526001600160a01b0389811660048301528616906335ea6a759060240161018060405180830381865afa1580156107da573d6000803e3d6000fd5b505050506040513d601f19601f820116820180604052508101906107fe9190614194565b60e001516040516370a0823160e01b81523360048201526001600160a01b03909116906370a0823190602401602060405180830381865afa158015610847573d6000803e3d6000fd5b505050506040513d601f19601f8201168201806040525081019061086b9190614281565b965086600003610883576000955050505050506109eb565b61088f85338a8a61137f565b60408051600280825260608201835260009260208301908036833701905050905088816000815181106108c4576108c46142db565b6001600160a01b039283166020918202929092010152898116908416146108eb57826108ed565b815b81600181518110610900576109006142db565b60200260200101906001600160a01b031690816001600160a01b03168152505061092c84868a84611ebc565b9650610939863385611578565b610944863384611578565b336001600160a01b03167f5380cf97d8f645d3c4896da60c053458dca03a3a31cec642ac80e1ddf0d8d02a82600081518110610982576109826142db565b60200260200101518a8460018151811061099e5761099e6142db565b60200260200101518b6040516109dc94939291906001600160a01b039485168152602081019390935292166040820152606081019190915260800190565b60405180910390a25050505050505b9392505050565b600080610a01838501856142f1565b90508060ff16600003610a3c5760008080610a1e8688018861430e565b93509350935050610a34838f8f8f8f8787612081565b505050610a66565b60008080610a4c86880188614361565b93509350935050610a62838f8f8f8f87876121a0565b5050505b5060019a9950505050505050505050565b81518351148015610a89575082518151145b610ad55760405162461bcd60e51b815260206004820152601a60248201527f4f504d3a204172726179204c656e677468204d69736d61746368000000000000604482015260640161031e565b600080853384604051602001610aee94939291906143ed565b60405160208183030381529060405290506000610b0a8661121b565b505050509050600085516001600160401b03811115610b2b57610b2b613b58565b604051908082528060200260200182016040528015610b54578160200160208202803683370190505b50905060005b86518160ff161015610b90576002828260ff1681518110610b7d57610b7d6142db565b6020908102919091010152600101610b5a565b5060405163ab9c4b5d60e01b81526001600160a01b0383169063ab9c4b5d90610bca9030908a908a90879033908b906000906004016144a7565b600060405180830381600087803b158015610be457600080fd5b505af1158015610bf8573d6000803e3d6000fd5b5050505050505050505050565b8151835114610c4b5760405162461bcd60e51b8152602060048201526012602482015271082a4a482b2be988a9cbe9a92a69a82a886960731b604482015260640161031e565b60408051600160208201529081018690526001600160a01b0380861660608301528216608082015260009060a00160405160208183030381529060405290506000806000610c988961121b565b9450945050509250600087516001600160401b03811115610cbb57610cbb613b58565b604051908082528060200260200182016040528015610ce4578160200160208202803683370190505b50905060005b88518160ff161015610d20576000828260ff1681518110610d0d57610d0d6142db565b6020908102919091010152600101610cea565b5060405163ab9c4b5d60e01b81526001600160a01b0385169063ab9c4b5d90610d5a9030908c908c90879033908d906000906004016144a7565b600060405180830381600087803b158015610d7457600080fd5b505af1158015610d88573d6000803e3d6000fd5b50505050610d97843385611578565b610da2843384611578565b50505050505050505050565b6000806000610dbc8861121b565b6040516335ea6a7560e01b81526001600160a01b038c811660048301529598509196509450600093871692506335ea6a75915060240161018060405180830381865afa158015610e10573d6000803e3d6000fd5b505050506040513d601f19601f82011682018060405250810190610e349190614194565b61012001516040516370a0823160e01b81526001600160a01b038a81166004830152909116906370a0823190602401602060405180830381865afa158015610e80573d6000803e3d6000fd5b505050506040513d601f19601f82011682018060405250810190610ea49190614281565b9050600086118015610eb557508086105b15610ebd5750845b60008111610efc5760405162461bcd60e51b815260206004820152600c60248201526b13d4134e88139bc81119589d60a21b604482015260640161031e565b610f09898989848961255c565b9050610f16848985611578565b610f21848984611578565b866001600160a01b0316886001600160a01b03167f16331435a4b4fc629446f9123c94a92e6a4d89b5305ceed74754276490cb02cf83604051610f6691815260200190565b60405180910390a3505050505050505050565b610f9e81600081518110610f8f57610f8f6142db565b602002602001015185846114e4565b6040516307c0329d60e21b81526000906001600160a01b03861690631f00ca7490610fcf9087908690600401614525565b6000604051808303816000875af1158015610fee573d6000803e3d6000fd5b505050506040513d6000823e601f3d908101601f19168201604052611016919081019061453e565b9050828160008151811061102c5761102c6142db565b60200260200101511115801561105c5750600081600081518110611052576110526142db565b6020026020010151115b6110a85760405162461bcd60e51b815260206004820152601960248201527f4f504d3a20496e76616c6964205377617020416d6f756e747300000000000000604482015260640161031e565b816000815181106110bb576110bb6142db565b60209081029190910101516040516370a0823160e01b81523060048201526001600160a01b03909116906370a0823190602401602060405180830381865afa15801561110b573d6000803e3d6000fd5b505050506040513d601f19601f8201168201806040525081019061112f9190614281565b81600081518110611142576111426142db565b602002602001015111156111985760405162461bcd60e51b815260206004820152601e60248201527f4f504d3a20496e73756666696369656e7420546f6b656e20416d6f756e740000604482015260640161031e565b604051634401edf760e11b81526001600160a01b03861690638803dbee906111cc90879087908790309042906004016145c3565b6000604051808303816000875af11580156111eb573d6000803e3d6000fd5b505050506040513d6000823e601f3d908101601f19168201604052611213919081019061453e565b505050505050565b6002546040516315895f4760e31b815260048101839052600091829182918291829182918291829182916001600160a01b03169063ac4afa389060240160a060405180830381865afa158015611275573d6000803e3d6000fd5b505050506040513d601f19601f82011682018060405250810190611299919061460f565b509350935093509350829550819450836001600160a01b0316630261bf8b6040518163ffffffff1660e01b8152600401602060405180830381865afa1580156112e6573d6000803e3d6000fd5b505050506040513d601f19601f8201168201806040525081019061130a91906142be565b9850836001600160a01b031663fca513a86040518163ffffffff1660e01b8152600401602060405180830381865afa15801561134a573d6000803e3d6000fd5b505050506040513d601f19601f8201168201806040525081019061136e91906142be565b989a98995097949650929450505050565b8015610242576040516335ea6a7560e01b81526001600160a01b0383811660048301528516906308ebbd269082906335ea6a759060240161018060405180830381865afa1580156113d4573d6000803e3d6000fd5b505050506040513d601f19601f820116820180604052508101906113f89190614194565b60e0908101516040519183901b6001600160e01b03191682526001600160a01b0390811660048301528616602482015260448101849052606401600060405180830381600087803b15801561144c57600080fd5b505af1158015611460573d6000803e3d6000fd5b5050604051631a4ca37b60e21b81526001600160a01b03858116600483015260248201859052306044830152871692506369328dec91506064016020604051808303816000875af11580156114b9573d6000803e3d6000fd5b505050506040513d601f19601f820116820180604052508101906114dd9190614281565b5050505050565b604051636eb1769f60e11b81523060048201526001600160a01b03838116602483015282919085169063dd62ed3e90604401602060405180830381865afa158015611533573d6000803e3d6000fd5b505050506040513d601f19601f820116820180604052508101906115579190614281565b1015611573576115736001600160a01b03841683600019612df9565b505050565b6040516370a0823160e01b81523060048201526000906001600160a01b038316906370a0823190602401602060405180830381865afa1580156115bf573d6000803e3d6000fd5b505050506040513d601f19601f820116820180604052508101906115e39190614281565b90508015610242576115f68285836114e4565b6040516335ea6a7560e01b81526001600160a01b038381166004830152600091908616906335ea6a759060240161018060405180830381865afa158015611641573d6000803e3d6000fd5b505050506040513d601f19601f820116820180604052508101906116659190614194565b61012001516040516370a0823160e01b81526001600160a01b038681166004830152909116906370a0823190602401602060405180830381865afa1580156116b1573d6000803e3d6000fd5b505050506040513d601f19601f820116820180604052508101906116d59190614281565b905080156117de5780821161175a5760405163573ade8160e01b81526001600160a01b0386169063573ade819061171790869086906002908a9060040161467f565b6020604051808303816000875af1158015611736573d6000803e3d6000fd5b505050506040513d601f19601f820116820180604052508101906112139190614281565b60405163573ade8160e01b81526001600160a01b0386169063573ade819061178d90869085906002908a9060040161467f565b6020604051808303816000875af11580156117ac573d6000803e3d6000fd5b505050506040513d601f19601f820116820180604052508101906117d09190614281565b506117db81836146c0565b91505b60405163e8eda9df60e01b81526001600160a01b0384811660048301526024820184905285811660448301526000606483015286169063e8eda9df90608401600060405180830381600087803b15801561183757600080fd5b505af115801561043c573d6000803e3d6000fd5b6000846001600160a01b03166338013f026040518163ffffffff1660e01b8152600401602060405180830381865afa15801561188b573d6000803e3d6000fd5b505050506040513d601f19601f820116820180604052508101906118af91906142be565b9050600080866001600160a01b031663443ec74d6040518163ffffffff1660e01b81526004016040805180830381865afa1580156118f1573d6000803e3d6000fd5b505050506040513d601f19601f8201168201806040525081019061191591906146d9565b91509150600080886001600160a01b0316635ee04d786040518163ffffffff1660e01b81526004016040805180830381865afa158015611959573d6000803e3d6000fd5b505050506040513d601f19601f8201168201806040525081019061197d91906146d9565b915091506000670de0b6b3a7640000898b6001600160a01b03166350d25bcd6040518163ffffffff1660e01b8152600401602060405180830381865afa1580156119cb573d6000803e3d6000fd5b505050506040513d601f19601f820116820180604052508101906119ef9190614281565b6119f99190614713565b611a03919061472a565b90506000611a1283600a614830565b60405163b3596f0760e01b81526001600160a01b03868116600483015289169063b3596f0790602401602060405180830381865afa158015611a58573d6000803e3d6000fd5b505050506040513d601f19601f82011682018060405250810190611a7c9190614281565b611a86908a614713565b611a90919061472a565b611a9b86600a614830565b60405163b3596f0760e01b81526001600160a01b0389811660048301528a169063b3596f0790602401602060405180830381865afa158015611ae1573d6000803e3d6000fd5b505050506040513d601f19601f82011682018060405250810190611b059190614281565b611b0f908c614713565b611b19919061472a565b611b23919061483f565b90506305f5e10082108015611b3b57506305f5e10081105b80611b7b57506064611b4e836062614713565b611b58919061472a565b81118015611b7b57506064611b6e836066614713565b611b78919061472a565b81105b610bf85760405162461bcd60e51b815260206004820152601360248201527227a8269d1029b634b83830b3b29022b93937b960691b604482015260640161031e565b60405163b3596f0760e01b81526001600160a01b038481166004830152600091829187169063b3596f0790602401602060405180830381865afa158015611c08573d6000803e3d6000fd5b505050506040513d601f19601f82011682018060405250810190611c2c9190614281565b60405163b3596f0760e01b81526001600160a01b03858116600483015291925060009188169063b3596f0790602401602060405180830381865afa158015611c78573d6000803e3d6000fd5b505050506040513d601f19601f82011682018060405250810190611c9c9190614281565b9050600082118015611cae5750600081115b611cfa5760405162461bcd60e51b815260206004820152601960248201527f4f504d3a20496e76616c6964204f7261636c6520507269636500000000000000604482015260640161031e565b80866001600160a01b031663313ce5676040518163ffffffff1660e01b8152600401602060405180830381865afa158015611d39573d6000803e3d6000fd5b505050506040513d601f19601f82011682018060405250810190611d5d9190614852565b611d6890600a614830565b856001600160a01b031663313ce5676040518163ffffffff1660e01b8152600401602060405180830381865afa158015611da6573d6000803e3d6000fd5b505050506040513d601f19601f82011682018060405250810190611dca9190614852565b611dd590600a614830565b611ddf8589614713565b611de99190614713565b611df3919061472a565b611dfd919061472a565b925060008311611e4f5760405162461bcd60e51b815260206004820152601a60248201527f4f504d3a2054617267657420416d6f756e7420546f6f204c6f77000000000000604482015260640161031e565b5050949350505050565b6040516001600160a01b03831660248201526044810182905261157390849063a9059cbb60e01b906064015b60408051601f198184030181529190526020810180516001600160e01b03166001600160e01b031990931692909217909152612eab565b60008083118015611f5c575060405163d06ca61f60e01b81526000906001600160a01b0387169063d06ca61f90611ef99087908790600401614525565b6000604051808303816000875af1158015611f18573d6000803e3d6000fd5b505050506040513d6000823e601f3d908101601f19168201604052611f40919081019061453e565b600181518110611f5257611f526142db565b6020026020010151115b1561046457611f8682600081518110611f7757611f776142db565b602002602001015186856114e4565b6000856001600160a01b03166338ed1739856064611fda8988600081518110611fb157611fb16142db565b60200260200101518a8a600181518110611fcd57611fcd6142db565b6020026020010151611bbd565b611fe5906063614713565b611fef919061472a565b8630426040518663ffffffff1660e01b81526004016120129594939291906145c3565b6000604051808303816000875af1158015612031573d6000803e3d6000fd5b505050506040513d6000823e601f3d908101601f19168201604052612059919081019061453e565b90508060018151811061206e5761206e6142db565b6020026020010151915050949350505050565b600080600061208f8a61121b565b9450945050509250336001600160a01b0316836001600160a01b0316146120ee5760405162461bcd60e51b815260206004820152601360248201527213d4134e8810d85b1b08155b985b1b1bddd959606a1b604482015260640161031e565b60005b60ff81168911156121895760008a8a8360ff16818110612113576121136142db565b90506020020160208101906121289190613dc3565b9050600089898460ff16818110612141576121416142db565b9050602002013590506121738d83838a8760ff1681518110612165576121656142db565b60200260200101518c612f7d565b50505080806121819061486f565b9150506120f1565b50612195838684611578565b610da2838683611578565b60008060006121ae8a61121b565b9450945050509250336001600160a01b0316836001600160a01b03161461220d5760405162461bcd60e51b815260206004820152601360248201527213d4134e8810d85b1b08155b985b1b1bddd959606a1b604482015260640161031e565b60408051808201918290526370a0823160e01b909152306044820152600090806001600160a01b0385166370a0823160648301602060405180830381865afa15801561225d573d6000803e3d6000fd5b505050506040513d601f19601f820116820180604052508101906122819190614281565b81526040516370a0823160e01b81523060048201526020909101906001600160a01b038516906370a0823190602401602060405180830381865afa1580156122cd573d6000803e3d6000fd5b505050506040513d601f19601f820116820180604052508101906122f19190614281565b9052905060005b60ff81168a111561254e5760008b8b8360ff1681811061231a5761231a6142db565b905060200201602081019061232f9190613dc3565b905060008a8a8460ff16818110612348576123486142db565b90506020020135905061235c8288836114e4565b60405162a718a960e01b81526001600160a01b03898116600483015283811660248301528a81166044830152606482018390526000608483015288169062a718a99060a401600060405180830381600087803b1580156123bb57600080fd5b505af11580156123cf573d6000803e3d6000fd5b5050505060006123e28f3085858d61255c565b6040516370a0823160e01b81523060048201529091506000906001600160a01b038916906370a0823190602401602060405180830381865afa15801561242c573d6000803e3d6000fd5b505050506040513d601f19601f820116820180604052508101906124509190614281565b6040516370a0823160e01b81523060048201529091506000906001600160a01b038916906370a0823190602401602060405180830381865afa15801561249a573d6000803e3d6000fd5b505050506040513d601f19601f820116820180604052508101906124be9190614281565b90506001600160a01b03808616908d167f11473f8e98477c5f8d293225476df74ef051ed687455ef4c509117ebd0040437858a6000602002015161250290876146c0565b60208c015161251190876146c0565b6040805193845260208401929092529082015260600160405180910390a390865260208601525082915061254690508161486f565b9150506122f8565b505050505050505050505050565b600080600080600061256d8a61121b565b945094509450509350612581888383613220565b816001600160a01b0316866001600160a01b031614806125b25750806001600160a01b0316866001600160a01b0316145b6125fe5760405162461bcd60e51b815260206004820152601d60248201527f4f504d3a20496e76616c696420436f6c6c61746572616c204173736574000000604482015260640161031e565b60008061260c8a858561336a565b612616908a61483f565b9650896001600160a01b03166399d32fc46040518163ffffffff1660e01b8152600401600060405180830381600087803b15801561265357600080fd5b505af1158015612667573d6000803e3d6000fd5b5050604051631da7037360e11b8152600481018a9052600092508291506001600160a01b038d1690633b4e06e6906024016040805180830381865afa1580156126b4573d6000803e3d6000fd5b505050506040513d601f19601f820116820180604052508101906126d8919061429a565b915091506126e88c8a848461184b565b6126f3868d846114e4565b6126fe858d836114e4565b6001600160a01b038d16301461293e576040516335ea6a7560e01b81526001600160a01b0387811660048301528916906335ea6a759060240161018060405180830381865afa158015612755573d6000803e3d6000fd5b505050506040513d601f19601f820116820180604052508101906127799190614194565b60e001516040516370a0823160e01b81526001600160a01b038f81166004830152909116906370a0823190602401602060405180830381865afa1580156127c4573d6000803e3d6000fd5b505050506040513d601f19601f820116820180604052508101906127e89190614281565b6040516335ea6a7560e01b81526001600160a01b038781166004830152919550908916906335ea6a759060240161018060405180830381865afa158015612833573d6000803e3d6000fd5b505050506040513d601f19601f820116820180604052508101906128579190614194565b60e001516040516370a0823160e01b81526001600160a01b038f81166004830152909116906370a0823190602401602060405180830381865afa1580156128a2573d6000803e3d6000fd5b505050506040513d601f19601f820116820180604052508101906128c69190614281565b92506128d4888e888761137f565b6128e0888e878661137f565b6001600160a01b038d1633146129395760006128fe8f84848e6135f5565b9050866001600160a01b03168b6001600160a01b03160361292a5761292381866146c0565b9450612937565b61293481856146c0565b93505b505b612a19565b6040516370a0823160e01b81526001600160a01b038e811660048301528716906370a0823190602401602060405180830381865afa158015612984573d6000803e3d6000fd5b505050506040513d601f19601f820116820180604052508101906129a89190614281565b6040516370a0823160e01b81526001600160a01b038f81166004830152919550908616906370a0823190602401602060405180830381865afa1580156129f2573d6000803e3d6000fd5b505050506040513d601f19601f82011682018060405250810190612a169190614281565b92505b60408051600280825260608201835260009260208301908036833701905050905082851015612abc578581600081518110612a5657612a566142db565b60200260200101906001600160a01b031690816001600160a01b0316815250508681600181518110612a8a57612a8a6142db565b6001600160a01b0390921660209283029190910190910152612ab788612ab087866146c0565b8684610f79565b612b39565b81841015612b39578681600081518110612ad857612ad86142db565b60200260200101906001600160a01b031690816001600160a01b0316815250508581600181518110612b0c57612b0c6142db565b6001600160a01b0390921660209283029190910190910152612b3988612b3286856146c0565b8784610f79565b604051631c57762b60e31b815260048101849052602481018390526001600160a01b038e169063e2bbb158906044016020604051808303816000875af1158015612b87573d6000803e3d6000fd5b505050506040513d601f19601f82011682018060405250810190612bab9190614281565b9950505050612bbb8a87896114e4565b6001600160a01b038b163014612c4357856001600160a01b031663573ade818b8960028f6040518563ffffffff1660e01b8152600401612bfe949392919061467f565b6020604051808303816000875af1158015612c1d573d6000803e3d6000fd5b505050506040513d601f19601f82011682018060405250810190612c419190614281565b505b6040516370a0823160e01b81523060048201526000906001600160a01b038616906370a0823190602401602060405180830381865afa158015612c8a573d6000803e3d6000fd5b505050506040513d601f19601f82011682018060405250810190612cae9190614281565b6040516370a0823160e01b81523060048201529091506000906001600160a01b038616906370a0823190602401602060405180830381865afa158015612cf8573d6000803e3d6000fd5b505050506040513d601f19601f82011682018060405250810190612d1c9190614281565b905081841115612d3757612d3082856146c0565b9150612d3c565b600091505b80831115612d5557612d4e81846146c0565b9050612d59565b5060005b604080518a8152602081018490529081018290526001600160a01b03808e1691908f16907f13a9b207a6235519f908e828190fa2f938b5e52c7888b90b98b87125caebde6e9060600160405180910390a35050336001600160a01b038c1603612dea57612de88c856001600160a01b03168a6001600160a01b031614612ddf5785612de1565b845b60006106f2565b505b50505050505095945050505050565b604051636eb1769f60e11b81523060048201526001600160a01b038381166024830152600091839186169063dd62ed3e90604401602060405180830381865afa158015612e4a573d6000803e3d6000fd5b505050506040513d601f19601f82011682018060405250810190612e6e9190614281565b612e78919061483f565b6040516001600160a01b03851660248201526044810182905290915061024290859063095ea7b360e01b90606401611e85565b6000612f00826040518060400160405280602081526020017f5361666545524332303a206c6f772d6c6576656c2063616c6c206661696c6564815250856001600160a01b0316613a2f9092919063ffffffff16565b8051909150156115735780806020019051810190612f1e919061488e565b6115735760405162461bcd60e51b815260206004820152602a60248201527f5361666545524332303a204552433230206f7065726174696f6e20646964206e6044820152691bdd081cdd58d8d9595960b21b606482015260840161031e565b6000806000806000612f8e8a61121b565b945094509450945050612fa2898383613220565b60405163a41fe49f60e01b815260048101899052600060248201819052604482018190529081906001600160a01b038c169063a41fe49f9060640160408051808303816000875af1158015612ffb573d6000803e3d6000fd5b505050506040513d601f19601f8201168201806040525081019061301f919061429a565b90925090506001600160a01b038916156131bd57836001600160a01b0316896001600160a01b031614806130645750826001600160a01b0316896001600160a01b0316145b6130b05760405162461bcd60e51b815260206004820152601760248201527f4f504d3a20496e76616c6964205377617020546f6b656e000000000000000000604482015260640161031e565b60408051600280825260608201835260009260208301908036833701905050905089816000815181106130e5576130e56142db565b6001600160a01b0392831660209182029290920101528a81169086161461310c578461310e565b835b81600181518110613121576131216142db565b6001600160a01b0392831660209182029290920101526000908b81169087161461314b578261314d565b835b9050600061315d888a8486611ebc565b9050866001600160a01b03168c6001600160a01b03161461318757613182818661483f565b61318a565b60005b9450856001600160a01b03168c6001600160a01b0316146131b4576131af818561483f565b6131b7565b60005b93505050505b604080518b8152602081018490529081018290526001600160a01b03808d1691908a16907fdc0cc97a08108cdb9e44a974a24bbf23b7d5871ba94674c1f06f3b020565bb239060600160405180910390a35060019b9a5050505050505050505050565b6000836001600160a01b031663443ec74d6040518163ffffffff1660e01b81526004016040805180830381865afa15801561325f573d6000803e3d6000fd5b505050506040513d601f19601f8201168201806040525081019061328391906146d9565b5090506000846001600160a01b0316635ee04d786040518163ffffffff1660e01b81526004016040805180830381865afa1580156132c5573d6000803e3d6000fd5b505050506040513d601f19601f820116820180604052508101906132e991906146d9565b509050816001600160a01b0316846001600160a01b031614801561331e5750806001600160a01b0316836001600160a01b0316145b6114dd5760405162461bcd60e51b815260206004820152601760248201527f4f504d3a20496e76616c69642044656274204173736574000000000000000000604482015260640161031e565b600080846001600160a01b03166338013f026040518163ffffffff1660e01b8152600401602060405180830381865afa1580156133ab573d6000803e3d6000fd5b505050506040513d601f19601f820116820180604052508101906133cf91906142be565b60405163b3596f0760e01b81526001600160a01b0386811660048301529192506000916305f5e100919084169063b3596f0790602401602060405180830381865afa158015613422573d6000803e3d6000fd5b505050506040513d601f19601f820116820180604052508101906134469190614281565b866001600160a01b031663313ce5676040518163ffffffff1660e01b8152600401602060405180830381865afa158015613484573d6000803e3d6000fd5b505050506040513d601f19601f820116820180604052508101906134a89190614852565b6134b39060146148a9565b6134be90600a614830565b6134c89190614713565b6134d2919061472a565b60405163b3596f0760e01b81526001600160a01b0386811660048301529192506000916305f5e100919085169063b3596f0790602401602060405180830381865afa158015613525573d6000803e3d6000fd5b505050506040513d601f19601f820116820180604052508101906135499190614281565b866001600160a01b031663313ce5676040518163ffffffff1660e01b8152600401602060405180830381865afa158015613587573d6000803e3d6000fd5b505050506040513d601f19601f820116820180604052508101906135ab9190614852565b6135b69060146148a9565b6135c190600a614830565b6135cb9190614713565b6135d5919061472a565b9050808211156135e7578193506135eb565b8093505b5050509392505050565b6000806000806136048861121b565b94509450509350506000816001600160a01b031663313ce5676040518163ffffffff1660e01b8152600401602060405180830381865afa15801561364c573d6000803e3d6000fd5b505050506040513d601f19601f820116820180604052508101906136709190614852565b61367b90600a614830565b60405163b3596f0760e01b81526001600160a01b03848116600483015286169063b3596f0790602401602060405180830381865afa1580156136c1573d6000803e3d6000fd5b505050506040513d601f19601f820116820180604052508101906136e59190614281565b6136ef9089614713565b6136f9919061472a565b836001600160a01b031663313ce5676040518163ffffffff1660e01b8152600401602060405180830381865afa158015613737573d6000803e3d6000fd5b505050506040513d601f19601f8201168201806040525081019061375b9190614852565b61376690600a614830565b60405163b3596f0760e01b81526001600160a01b03868116600483015287169063b3596f0790602401602060405180830381865afa1580156137ac573d6000803e3d6000fd5b505050506040513d601f19601f820116820180604052508101906137d09190614281565b6137da908b614713565b6137e4919061472a565b6137ee919061483f565b60405163b3596f0760e01b81526001600160a01b0388811660048301529192509085169063b3596f0790602401602060405180830381865afa158015613838573d6000803e3d6000fd5b505050506040513d601f19601f8201168201806040525081019061385c9190614281565b6064876001600160a01b031663313ce5676040518163ffffffff1660e01b8152600401602060405180830381865afa15801561389c573d6000803e3d6000fd5b505050506040513d601f19601f820116820180604052508101906138c09190614852565b6138cb90600a614830565b6138d59084614713565b6138df919061472a565b6138e9919061472a565b6040516370a0823160e01b81523060048201529095506001600160a01b038716906370a0823190602401602060405180830381865afa158015613930573d6000803e3d6000fd5b505050506040513d601f19601f820116820180604052508101906139549190614281565b8511156139a35760405162461bcd60e51b815260206004820152601c60248201527f4f504d3a20496e73756666696369656e7420436f6c6c61746572616c00000000604482015260640161031e565b600254604080516361d027b360e01b81529051613a23926001600160a01b0316916361d027b39160048083019260209291908290030181865afa1580156139ee573d6000803e3d6000fd5b505050506040513d601f19601f82011682018060405250810190613a1291906142be565b6001600160a01b0388169087611e59565b50505050949350505050565b60606104648484600085856001600160a01b0385163b613a915760405162461bcd60e51b815260206004820152601d60248201527f416464726573733a2063616c6c20746f206e6f6e2d636f6e7472616374000000604482015260640161031e565b600080866001600160a01b03168587604051613aad91906148c2565b60006040518083038185875af1925050503d8060008114613aea576040519150601f19603f3d011682016040523d82523d6000602084013e613aef565b606091505b5091509150613aff828286613b0a565b979650505050505050565b60608315613b195750816109eb565b825115613b295782518084602001fd5b8160405162461bcd60e51b815260040161031e91906148de565b6001600160a01b03811681146106ef57600080fd5b634e487b7160e01b600052604160045260246000fd5b60405161018081016001600160401b0381118282101715613b9157613b91613b58565b60405290565b604051601f8201601f191681016001600160401b0381118282101715613bbf57613bbf613b58565b604052919050565b60006001600160401b03821115613be057613be0613b58565b5060051b60200190565b600082601f830112613bfb57600080fd5b81356020613c10613c0b83613bc7565b613b97565b82815260059290921b84018101918181019086841115613c2f57600080fd5b8286015b84811015613c53578035613c4681613b43565b8352918301918301613c33565b509695505050505050565b60008060008060808587031215613c7457600080fd5b8435613c7f81613b43565b9350602085013592506040850135915060608501356001600160401b03811115613ca857600080fd5b613cb487828801613bea565b91505092959194509250565b60008060008060808587031215613cd657600080fd5b843593506020850135613ce881613b43565b93969395505050506040820135916060013590565b60008060008060808587031215613d1357600080fd5b8435613d1e81613b43565b966020860135965060408601359560600135945092505050565b60008060008060808587031215613d4e57600080fd5b8435613d5981613b43565b93506020850135613d6981613b43565b9250604085013591506060850135613d8081613b43565b939692955090935050565b600080600060608486031215613da057600080fd5b833592506020840135613db281613b43565b929592945050506040919091013590565b600060208284031215613dd557600080fd5b81356109eb81613b43565b60008083601f840112613df257600080fd5b5081356001600160401b03811115613e0957600080fd5b6020830191508360208260051b8501011115613e2457600080fd5b9250929050565b600080600080600080600080600060a08a8c031215613e4957600080fd5b89356001600160401b0380821115613e6057600080fd5b613e6c8d838e01613de0565b909b50995060208c0135915080821115613e8557600080fd5b613e918d838e01613de0565b909950975060408c0135915080821115613eaa57600080fd5b613eb68d838e01613de0565b909750955060608c01359150613ecb82613b43565b90935060808b01359080821115613ee157600080fd5b818c0191508c601f830112613ef557600080fd5b813581811115613f0457600080fd5b8d6020828501011115613f1657600080fd5b6020830194508093505050509295985092959850929598565b600082601f830112613f4057600080fd5b81356020613f50613c0b83613bc7565b82815260059290921b84018101918181019086841115613f6f57600080fd5b8286015b84811015613c535780358352918301918301613f73565b60008060008060808587031215613fa057600080fd5b8435935060208501356001600160401b0380821115613fbe57600080fd5b613fca88838901613bea565b94506040870135915080821115613fe057600080fd5b613fec88838901613f2f565b9350606087013591508082111561400257600080fd5b50613cb487828801613bea565b600080600080600060a0868803121561402757600080fd5b85359450602086013561403981613b43565b935060408601356001600160401b038082111561405557600080fd5b61406189838a01613bea565b9450606088013591508082111561407757600080fd5b5061408488828901613f2f565b925050608086013561409581613b43565b809150509295509295909350565b600080600080600060a086880312156140bb57600080fd5b8535945060208601356140cd81613b43565b935060408601356140dd81613b43565b925060608601359150608086013561409581613b43565b60006020828403121561410657600080fd5b604051602081018181106001600160401b038211171561412857614128613b58565b6040529151825250919050565b80516fffffffffffffffffffffffffffffffff8116811461415557600080fd5b919050565b805164ffffffffff8116811461415557600080fd5b805161415581613b43565b60ff811681146106ef57600080fd5b80516141558161417a565b600061018082840312156141a757600080fd5b6141af613b6e565b6141b984846140f4565b81526141c760208401614135565b60208201526141d860408401614135565b60408201526141e960608401614135565b60608201526141fa60808401614135565b608082015261420b60a08401614135565b60a082015261421c60c0840161415a565b60c082015261422d60e0840161416f565b60e082015261010061424081850161416f565b9082015261012061425284820161416f565b9082015261014061426484820161416f565b90820152610160614276848201614189565b908201529392505050565b60006020828403121561429357600080fd5b5051919050565b600080604083850312156142ad57600080fd5b505080516020909101519092909150565b6000602082840312156142d057600080fd5b81516109eb81613b43565b634e487b7160e01b600052603260045260246000fd5b60006020828403121561430357600080fd5b81356109eb8161417a565b6000806000806080858703121561432457600080fd5b843561432f8161417a565b935060208501359250604085013561434681613b43565b915060608501356001600160401b03811115613ca857600080fd5b6000806000806080858703121561437757600080fd5b84356143828161417a565b935060208501359250604085013561439981613b43565b91506060850135613d8081613b43565b600081518084526020808501945080840160005b838110156143e25781516001600160a01b0316875295820195908201906001016143bd565b509495945050505050565b60ff8516815283602082015260018060a01b038316604082015260806060820152600061441d60808301846143a9565b9695505050505050565b600081518084526020808501945080840160005b838110156143e25781518752958201959082019060010161443b565b60005b8381101561447257818101518382015260200161445a565b50506000910152565b60008151808452614493816020860160208601614457565b601f01601f19169290920160200192915050565b600060018060a01b03808a16835260e060208401526144c960e084018a6143a9565b83810360408501526144db818a614427565b905083810360608501526144ef8189614427565b9050818716608085015283810360a085015261450b818761447b565b9250505061ffff831660c083015298975050505050505050565b82815260406020820152600061046460408301846143a9565b6000602080838503121561455157600080fd5b82516001600160401b0381111561456757600080fd5b8301601f8101851361457857600080fd5b8051614586613c0b82613bc7565b81815260059190911b820183019083810190878311156145a557600080fd5b928401925b82841015613aff578351825292840192908401906145aa565b85815284602082015260a0604082015260006145e260a08301866143a9565b6001600160a01b0394909416606083015250608001529392505050565b8051801515811461415557600080fd5b600080600080600060a0868803121561462757600080fd5b855161463281613b43565b602087015190955061464381613b43565b604087015190945061465481613b43565b606087015190935061466581613b43565b9150614673608087016145ff565b90509295509295909350565b6001600160a01b03948516815260208101939093526040830191909152909116606082015260800190565b634e487b7160e01b600052601160045260246000fd5b818103818111156146d3576146d36146aa565b92915050565b600080604083850312156146ec57600080fd5b82516146f781613b43565b60208401519092506147088161417a565b809150509250929050565b80820281158282048414176146d3576146d36146aa565b60008261474757634e487b7160e01b600052601260045260246000fd5b500490565b600181815b8085111561478757816000190482111561476d5761476d6146aa565b8085161561477a57918102915b93841c9390800290614751565b509250929050565b60008261479e575060016146d3565b816147ab575060006146d3565b81600181146147c157600281146147cb576147e7565b60019150506146d3565b60ff8411156147dc576147dc6146aa565b50506001821b6146d3565b5060208310610133831016604e8410600b841016171561480a575081810a6146d3565b614814838361474c565b8060001904821115614828576148286146aa565b029392505050565b60006109eb60ff84168361478f565b808201808211156146d3576146d36146aa565b60006020828403121561486457600080fd5b81516109eb8161417a565b600060ff821660ff8103614885576148856146aa565b60010192915050565b6000602082840312156148a057600080fd5b6109eb826145ff565b60ff82811682821603908111156146d3576146d36146aa565b600082516148d4818460208701614457565b9190910192915050565b6020815260006109eb602083018461447b56fea26469706673582212209239e9a6a060c9db307ebd9859c23ef610598b826ea7b715e41c7bdf3e7cdc2f64736f6c63430008130033",
  "bytecodeSha1": "065d0030a78a06923ec9754bcfe4f956118da77b",
  "compiler": {
    "evm_version": "istanbul",
    "optimizer": {
      "enabled": true,
      "runs": 200
    },
    "version": "0.8.19+commit.7dd6d404"
  },
  "contractName": "Test_OptionsPositionManager",
  "language": "Solidity",
  "natspec": {
    "kind": "dev",
    "methods": {
      "buyOptions(uint256,address[],uint256[],address[])": {
        "details": "Because tickers are one coin or the other depending on the price, one can only buy OTM options. You can get ITM put by buying OTM call and swapping, or get ITM call by buying OTM put and swapping. If you wanna swap, set sourceSwap to the asset you *dont* want, otherwise must be address(0x0)",
        "notice": "Buy a list of option. An option is a triplet [TRAddress, amount, putOrCall]",
        "params": {
          "amounts": "Option amounts list",
          "options": "Option addresses list",
          "poolId": "ID of the ROE lending pool",
          "sourceSwap": "Source swap address for call-put parity"
        }
      },
      "close(uint256,address,address,uint256,address)": {
        "notice": "Repays a TR debt and send tokens back to user",
        "params": {
          "collateralAsset": "Asset used for liquidation fee",
          "debtAsset": "the borrowed LP token address",
          "poolId": "ID of the ROE lending pool",
          "repayAmount": "amount of borrowed tokens to repay; 0 or higher than current debt will repay all",
          "user": "Owner of the debt"
        }
      },
      "constructor": {
        "params": {
          "roerouter": "address of the ROE pools router"
        }
      },
      "executeOperation(address[],uint256[],uint256[],address,bytes)": {
        "notice": "Aave-compatible flashloan receiver dispatch: open a leverage position or liquidate a position",
        "params": {
          "amounts": "The amount of the flash-borrowed asset",
          "assets": "The address of the flash-borrowed asset",
          "initiator": "The address of the flashloan initiator",
          "params": "The byte-encoded params passed when initiating the flashloan",
          "premiums": "The fee of the flash-borrowed asset"
        },
        "returns": {
          "result": "True if the execution of the operation succeeds, false otherwise"
        }
      },
      "liquidate(uint256,address,address[],uint256[],address)": {
        "details": "Flashloan the debt tokens to liquidate, then use liquidation assets to repay the flashloan",
        "notice": "Liquidate up to 50% of an unhealthy position",
        "params": {
          "amounts": "Array of borrowed Ticker assets amounts to repay",
          "collateralAsset": "Asset used for liquidation fee",
          "options": "Array of borrowed Ticker assets to repay",
          "poolId": "ID of the ROE lending pool",
          "user": "The owner of the loan to liquidate"
        }
      },
      "removeDust(address)": {
        "notice": "Send dust to treasury",
        "params": {
          "asset": "The token to transfer"
        }
      },
      "sellOptions(uint256,address,uint256,uint256)": {
        "details": "Amounts aren't checked and will revert if wrong. In 99.9% cases one of the amounts should be 0Collateral needs to be in Lending Pool already",
        "notice": "Sell options",
        "params": {
          "amount0": "The amount of underlying token0 to add",
          "amount1": "The amount of underlying token1 to add",
          "optionAddress": "The TokenisableRange representing the option",
          "poolId": "ID of the ROE lending pool"
        }
      },
      "swapTokens(uint256,address,uint256)": {
        "notice": "Swap user assets; useful to change user risk profile",
        "params": {
          "amount": "of asset to swap - if 0, swap all",
          "poolId": "Id of the pool",
          "sourceAsset": "Asset to be swapped"
        },
        "returns": {
          "received": "Amount of target token received"
        }
      },
      "test_checkExpectedBalances(address,uint256,uint256,uint256)": {
        "notice": "test internal function checkExpectedBalances"
      },
      "test_getTargetAmountFromOracle(address,address,uint256,address)": {
        "notice": "test internal function swapTokensForExactTokens"
      },
      "test_swapTokensForExactTokens(address,uint256,uint256,address[])": {
        "notice": "test internal function swapTokensForExactTokens"
      },
      "withdrawOptions(uint256,address,uint256)": {
        "notice": "Stop selling = remove liquidity from a TR",
        "params": {
          "amount": "Amount of TR asset redeemed",
          "optionAddress": "Address of the TR asset",
          "poolId": "Id of the pool"
        }
      }
    },
    "notice": "Extend OptionsPositionManager to test interal function inaccessible code branches",
    "version": 1
  },
  "opcodes": "PUSH1 0x80 PUSH1 0x40 MSTORE CALLVALUE DUP1 ISZERO PUSH2 0x10 JUMPI PUSH1 0x0 DUP1 REVERT JUMPDEST POP PUSH1 0x4 CALLDATASIZE LT PUSH2 0xEA JUMPI PUSH1 0x0 CALLDATALOAD PUSH1 0xE0 SHR DUP1 PUSH4 0x73B25A75 GT PUSH2 0x8C JUMPI DUP1 PUSH4 0xB4DCFC77 GT PUSH2 0x66 JUMPI DUP1 PUSH4 0xB4DCFC77 EQ PUSH2 0x1EA JUMPI DUP1 PUSH4 0xBC936080 EQ PUSH2 0x1FD JUMPI DUP1 PUSH4 0xBEAD34ED EQ PUSH2 0x210 JUMPI DUP1 PUSH4 0xBF317E0D EQ PUSH2 0x223 JUMPI PUSH1 0x0 DUP1 REVERT JUMPDEST DUP1 PUSH4 0x73B25A75 EQ PUSH2 0x1A1 JUMPI DUP1 PUSH4 0x920F5C84 EQ PUSH2 0x1B4 JUMPI DUP1 PUSH4 0xAE7BB1C9 EQ PUSH2 0x1D7 JUMPI PUSH1 0x0 DUP1 REVERT JUMPDEST DUP1 PUSH4 0x2BA170EE GT PUSH2 0xC8 JUMPI DUP1 PUSH4 0x2BA170EE EQ PUSH2 0x147 JUMPI DUP1 PUSH4 0x40EBAC7C EQ PUSH2 0x15A JUMPI DUP1 PUSH4 0x49A380A4 EQ PUSH2 0x17B JUMPI DUP1 PUSH4 0x5137223C EQ PUSH2 0x18E JUMPI PUSH1 0x0 DUP1 REVERT JUMPDEST DUP1 PUSH4 0x542975C EQ PUSH2 0xEF JUMPI DUP1 PUSH4 0xCB94079 EQ PUSH2 0x11F JUMPI DUP1 PUSH4 0x25827D86 EQ PUSH2 0x134 JUMPI JUMPDEST PUSH1 0x0 DUP1 REVERT JUMPDEST PUSH1 0x0 SLOAD PUSH2 0x102 SWAP1 PUSH1 0x1 PUSH1 0x1 PUSH1 0xA0 SHL SUB AND DUP2 JUMP JUMPDEST PUSH1 0x40 MLOAD PUSH1 0x1 PUSH1 0x1 PUSH1 0xA0 SHL SUB SWAP1 SWAP2 AND DUP2 MSTORE PUSH1 0x20 ADD JUMPDEST PUSH1 0x40 MLOAD DUP1 SWAP2 SUB SWAP1 RETURN JUMPDEST PUSH2 0x132 PUSH2 0x12D CALLDATASIZE PUSH1 0x4 PUSH2 0x3C5E JUMP JUMPDEST PUSH2 0x236 JUMP JUMPDEST STOP JUMPDEST PUSH2 0x132 PUSH2 0x142 CALLDATASIZE PUSH1 0x4 PUSH2 0x3CC0 JUMP JUMPDEST PUSH2 0x248 JUMP JUMPDEST PUSH2 0x132 PUSH2 0x155 CALLDATASIZE PUSH1 0x4 PUSH2 0x3CFD JUMP JUMPDEST PUSH2 0x447 JUMP JUMPDEST PUSH2 0x16D PUSH2 0x168 CALLDATASIZE PUSH1 0x4 PUSH2 0x3D38 JUMP JUMPDEST PUSH2 0x453 JUMP JUMPDEST PUSH1 0x40 MLOAD SWAP1 DUP2 MSTORE PUSH1 0x20 ADD PUSH2 0x116 JUMP JUMPDEST PUSH2 0x132 PUSH2 0x189 CALLDATASIZE PUSH1 0x4 PUSH2 0x3D8B JUMP JUMPDEST PUSH2 0x46C JUMP JUMPDEST PUSH2 0x132 PUSH2 0x19C CALLDATASIZE PUSH1 0x4 PUSH2 0x3DC3 JUMP JUMPDEST PUSH2 0x607 JUMP JUMPDEST PUSH2 0x16D PUSH2 0x1AF CALLDATASIZE PUSH1 0x4 PUSH2 0x3D8B JUMP JUMPDEST PUSH2 0x6F2 JUMP JUMPDEST PUSH2 0x1C7 PUSH2 0x1C2 CALLDATASIZE PUSH1 0x4 PUSH2 0x3E2B JUMP JUMPDEST PUSH2 0x9F2 JUMP JUMPDEST PUSH1 0x40 MLOAD SWAP1 ISZERO ISZERO DUP2 MSTORE PUSH1 0x20 ADD PUSH2 0x116 JUMP JUMPDEST PUSH1 0x2 SLOAD PUSH2 0x102 SWAP1 PUSH1 0x1 PUSH1 0x1 PUSH1 0xA0 SHL SUB AND DUP2 JUMP JUMPDEST PUSH1 0x1 SLOAD PUSH2 0x102 SWAP1 PUSH1 0x1 PUSH1 0x1 PUSH1 0xA0 SHL SUB AND DUP2 JUMP JUMPDEST PUSH2 0x132 PUSH2 0x20B CALLDATASIZE PUSH1 0x4 PUSH2 0x3F8A JUMP JUMPDEST PUSH2 0xA77 JUMP JUMPDEST PUSH2 0x132 PUSH2 0x21E CALLDATASIZE PUSH1 0x4 PUSH2 0x400F JUMP JUMPDEST PUSH2 0xC05 JUMP JUMPDEST PUSH2 0x132 PUSH2 0x231 CALLDATASIZE PUSH1 0x4 PUSH2 0x40A3 JUMP JUMPDEST PUSH2 0xDAE JUMP JUMPDEST PUSH2 0x242 DUP5 DUP5 DUP5 DUP5 PUSH2 0xF79 JUMP JUMPDEST POP POP POP POP JUMP JUMPDEST PUSH1 0x0 DUP1 PUSH1 0x0 DUP1 PUSH2 0x257 DUP9 PUSH2 0x121B JUMP JUMPDEST PUSH1 0x40 MLOAD PUSH4 0x35EA6A75 PUSH1 0xE0 SHL DUP2 MSTORE PUSH1 0x1 PUSH1 0x1 PUSH1 0xA0 SHL SUB DUP14 DUP2 AND PUSH1 0x4 DUP4 ADD MSTORE SWAP6 SWAP10 POP SWAP4 SWAP8 POP SWAP1 SWAP6 POP SWAP4 POP PUSH1 0x0 SWAP3 DUP8 AND SWAP2 PUSH4 0x35EA6A75 SWAP2 POP PUSH1 0x24 ADD PUSH2 0x180 PUSH1 0x40 MLOAD DUP1 DUP4 SUB DUP2 DUP7 GAS STATICCALL ISZERO DUP1 ISZERO PUSH2 0x2AD JUMPI RETURNDATASIZE PUSH1 0x0 DUP1 RETURNDATACOPY RETURNDATASIZE PUSH1 0x0 REVERT JUMPDEST POP POP POP POP PUSH1 0x40 MLOAD RETURNDATASIZE PUSH1 0x1F NOT PUSH1 0x1F DUP3 ADD AND DUP3 ADD DUP1 PUSH1 0x40 MSTORE POP DUP2 ADD SWAP1 PUSH2 0x2D1 SWAP2 SWAP1 PUSH2 0x4194 JUMP JUMPDEST PUSH1 0xE0 ADD MLOAD PUSH1 0x1 PUSH1 0x1 PUSH1 0xA0 SHL SUB AND SUB PUSH2 0x327 JUMPI PUSH1 0x40 MLOAD PUSH3 0x461BCD PUSH1 0xE5 SHL DUP2 MSTORE PUSH1 0x20 PUSH1 0x4 DUP3 ADD MSTORE PUSH1 0x14 PUSH1 0x24 DUP3 ADD MSTORE PUSH20 0x4F504D3A20496E76616C69642041646472657373 PUSH1 0x60 SHL PUSH1 0x44 DUP3 ADD MSTORE PUSH1 0x64 ADD JUMPDEST PUSH1 0x40 MLOAD DUP1 SWAP2 SUB SWAP1 REVERT JUMPDEST PUSH2 0x333 DUP5 CALLER DUP5 DUP10 PUSH2 0x137F JUMP JUMPDEST PUSH2 0x33F DUP5 CALLER DUP4 DUP9 PUSH2 0x137F JUMP JUMPDEST PUSH2 0x34A DUP3 DUP9 DUP9 PUSH2 0x14E4 JUMP JUMPDEST PUSH2 0x355 DUP2 DUP9 DUP8 PUSH2 0x14E4 JUMP JUMPDEST PUSH1 0x40 MLOAD PUSH4 0x1C57762B PUSH1 0xE3 SHL DUP2 MSTORE PUSH1 0x4 DUP2 ADD DUP8 SWAP1 MSTORE PUSH1 0x24 DUP2 ADD DUP7 SWAP1 MSTORE PUSH1 0x0 SWAP1 PUSH1 0x1 PUSH1 0x1 PUSH1 0xA0 SHL SUB DUP10 AND SWAP1 PUSH4 0xE2BBB158 SWAP1 PUSH1 0x44 ADD PUSH1 0x20 PUSH1 0x40 MLOAD DUP1 DUP4 SUB DUP2 PUSH1 0x0 DUP8 GAS CALL ISZERO DUP1 ISZERO PUSH2 0x3A6 JUMPI RETURNDATASIZE PUSH1 0x0 DUP1 RETURNDATACOPY RETURNDATASIZE PUSH1 0x0 REVERT JUMPDEST POP POP POP POP PUSH1 0x40 MLOAD RETURNDATASIZE PUSH1 0x1F NOT PUSH1 0x1F DUP3 ADD AND DUP3 ADD DUP1 PUSH1 0x40 MSTORE POP DUP2 ADD SWAP1 PUSH2 0x3CA SWAP2 SWAP1 PUSH2 0x4281 JUMP JUMPDEST PUSH1 0x40 DUP1 MLOAD DUP3 DUP2 MSTORE PUSH1 0x20 DUP2 ADD DUP11 SWAP1 MSTORE SWAP1 DUP2 ADD DUP9 SWAP1 MSTORE SWAP1 SWAP2 POP PUSH1 0x1 PUSH1 0x1 PUSH1 0xA0 SHL SUB DUP10 AND SWAP1 CALLER SWAP1 PUSH32 0xDBD48B56A2E9AC34C40FAE975ADA1074775DB4868173B67B65CD271FC7B4959 SWAP1 PUSH1 0x60 ADD PUSH1 0x40 MLOAD DUP1 SWAP2 SUB SWAP1 LOG3 PUSH2 0x426 DUP6 CALLER DUP11 PUSH2 0x1578 JUMP JUMPDEST PUSH2 0x431 DUP6 CALLER DUP6 PUSH2 0x1578 JUMP JUMPDEST PUSH2 0x43C DUP6 CALLER DUP5 PUSH2 0x1578 JUMP JUMPDEST POP POP POP POP POP POP POP POP POP JUMP JUMPDEST PUSH2 0x242 DUP5 DUP5 DUP5 DUP5 PUSH2 0x184B JUMP JUMPDEST PUSH1 0x0 PUSH2 0x461 DUP6 DUP6 DUP6 DUP6 PUSH2 0x1BBD JUMP JUMPDEST SWAP1 POP JUMPDEST SWAP5 SWAP4 POP POP POP POP JUMP JUMPDEST PUSH1 0x0 DUP1 PUSH1 0x0 PUSH2 0x47A DUP7 PUSH2 0x121B JUMP JUMPDEST PUSH1 0x40 MLOAD PUSH4 0x35EA6A75 PUSH1 0xE0 SHL DUP2 MSTORE PUSH1 0x1 PUSH1 0x1 PUSH1 0xA0 SHL SUB DUP12 DUP2 AND PUSH1 0x4 DUP4 ADD MSTORE SWAP6 SWAP9 POP SWAP2 SWAP7 POP SWAP5 POP PUSH1 0x0 SWAP4 DUP8 AND SWAP3 POP PUSH4 0x35EA6A75 SWAP2 POP PUSH1 0x24 ADD PUSH2 0x180 PUSH1 0x40 MLOAD DUP1 DUP4 SUB DUP2 DUP7 GAS STATICCALL ISZERO DUP1 ISZERO PUSH2 0x4CE JUMPI RETURNDATASIZE PUSH1 0x0 DUP1 RETURNDATACOPY RETURNDATASIZE PUSH1 0x0 REVERT JUMPDEST POP POP POP POP PUSH1 0x40 MLOAD RETURNDATASIZE PUSH1 0x1F NOT PUSH1 0x1F DUP3 ADD AND DUP3 ADD DUP1 PUSH1 0x40 MSTORE POP DUP2 ADD SWAP1 PUSH2 0x4F2 SWAP2 SWAP1 PUSH2 0x4194 JUMP JUMPDEST PUSH1 0xE0 ADD MLOAD PUSH1 0x1 PUSH1 0x1 PUSH1 0xA0 SHL SUB AND SUB PUSH2 0x543 JUMPI PUSH1 0x40 MLOAD PUSH3 0x461BCD PUSH1 0xE5 SHL DUP2 MSTORE PUSH1 0x20 PUSH1 0x4 DUP3 ADD MSTORE PUSH1 0x14 PUSH1 0x24 DUP3 ADD MSTORE PUSH20 0x4F504D3A20496E76616C69642041646472657373 PUSH1 0x60 SHL PUSH1 0x44 DUP3 ADD MSTORE PUSH1 0x64 ADD PUSH2 0x31E JUMP JUMPDEST PUSH2 0x54F DUP4 CALLER DUP8 DUP8 PUSH2 0x137F JUMP JUMPDEST PUSH1 0x40 MLOAD PUSH4 0xA41FE49F PUSH1 0xE0 SHL DUP2 MSTORE PUSH1 0x4 DUP2 ADD DUP6 SWAP1 MSTORE PUSH1 0x0 PUSH1 0x24 DUP3 ADD DUP2 SWAP1 MSTORE PUSH1 0x44 DUP3 ADD DUP2 SWAP1 MSTORE SWAP1 DUP2 SWAP1 PUSH1 0x1 PUSH1 0x1 PUSH1 0xA0 SHL SUB DUP9 AND SWAP1 PUSH4 0xA41FE49F SWAP1 PUSH1 0x64 ADD PUSH1 0x40 DUP1 MLOAD DUP1 DUP4 SUB DUP2 PUSH1 0x0 DUP8 GAS CALL ISZERO DUP1 ISZERO PUSH2 0x5A8 JUMPI RETURNDATASIZE PUSH1 0x0 DUP1 RETURNDATACOPY RETURNDATASIZE PUSH1 0x0 REVERT JUMPDEST POP POP POP POP PUSH1 0x40 MLOAD RETURNDATASIZE PUSH1 0x1F NOT PUSH1 0x1F DUP3 ADD AND DUP3 ADD DUP1 PUSH1 0x40 MSTORE POP DUP2 ADD SWAP1 PUSH2 0x5CC SWAP2 SWAP1 PUSH2 0x429A JUMP JUMPDEST SWAP2 POP SWAP2 POP PUSH2 0x5DC DUP8 DUP8 DUP5 DUP5 PUSH2 0x184B JUMP JUMPDEST PUSH2 0x5E7 DUP6 CALLER DUP10 PUSH2 0x1578 JUMP JUMPDEST PUSH2 0x5F2 DUP6 CALLER DUP7 PUSH2 0x1578 JUMP JUMPDEST PUSH2 0x5FD DUP6 CALLER DUP6 PUSH2 0x1578 JUMP JUMPDEST POP POP POP POP POP POP POP POP JUMP JUMPDEST PUSH1 0x2 SLOAD PUSH1 0x40 DUP1 MLOAD PUSH4 0x61D027B3 PUSH1 0xE0 SHL DUP2 MSTORE SWAP1 MLOAD PUSH2 0x6EF SWAP3 PUSH1 0x1 PUSH1 0x1 PUSH1 0xA0 SHL SUB AND SWAP2 PUSH4 0x61D027B3 SWAP2 PUSH1 0x4 DUP1 DUP4 ADD SWAP3 PUSH1 0x20 SWAP3 SWAP2 SWAP1 DUP3 SWAP1 SUB ADD DUP2 DUP7 GAS STATICCALL ISZERO DUP1 ISZERO PUSH2 0x652 JUMPI RETURNDATASIZE PUSH1 0x0 DUP1 RETURNDATACOPY RETURNDATASIZE PUSH1 0x0 REVERT JUMPDEST POP POP POP POP PUSH1 0x40 MLOAD RETURNDATASIZE PUSH1 0x1F NOT PUSH1 0x1F DUP3 ADD AND DUP3 ADD DUP1 PUSH1 0x40 MSTORE POP DUP2 ADD SWAP1 PUSH2 0x676 SWAP2 SWAP1 PUSH2 0x42BE JUMP JUMPDEST PUSH1 0x40 MLOAD PUSH4 0x70A08231 PUSH1 0xE0 SHL DUP2 MSTORE ADDRESS PUSH1 0x4 DUP3 ADD MSTORE PUSH1 0x1 PUSH1 0x1 PUSH1 0xA0 SHL SUB DUP5 AND SWAP1 PUSH4 0x70A08231 SWAP1 PUSH1 0x24 ADD PUSH1 0x20 PUSH1 0x40 MLOAD DUP1 DUP4 SUB DUP2 DUP7 GAS STATICCALL ISZERO DUP1 ISZERO PUSH2 0x6BA JUMPI RETURNDATASIZE PUSH1 0x0 DUP1 RETURNDATACOPY RETURNDATASIZE PUSH1 0x0 REVERT JUMPDEST POP POP POP POP PUSH1 0x40 MLOAD RETURNDATASIZE PUSH1 0x1F NOT PUSH1 0x1F DUP3 ADD AND DUP3 ADD DUP1 PUSH1 0x40 MSTORE POP DUP2 ADD SWAP1 PUSH2 0x6DE SWAP2 SWAP1 PUSH2 0x4281 JUMP JUMPDEST PUSH1 0x1 PUSH1 0x1 PUSH1 0xA0 SHL SUB DUP5 AND SWAP2 SWAP1 PUSH2 0x1E59 JUMP JUMPDEST POP JUMP JUMPDEST PUSH1 0x0 DUP1 PUSH1 0x0 DUP1 PUSH1 0x0 DUP1 PUSH2 0x704 DUP10 PUSH2 0x121B JUMP JUMPDEST SWAP5 POP SWAP5 POP SWAP5 POP SWAP5 POP SWAP5 POP DUP2 PUSH1 0x1 PUSH1 0x1 PUSH1 0xA0 SHL SUB AND DUP9 PUSH1 0x1 PUSH1 0x1 PUSH1 0xA0 SHL SUB AND EQ DUP1 PUSH2 0x73F JUMPI POP DUP1 PUSH1 0x1 PUSH1 0x1 PUSH1 0xA0 SHL SUB AND DUP9 PUSH1 0x1 PUSH1 0x1 PUSH1 0xA0 SHL SUB AND EQ JUMPDEST PUSH2 0x78B JUMPI PUSH1 0x40 MLOAD PUSH3 0x461BCD PUSH1 0xE5 SHL DUP2 MSTORE PUSH1 0x20 PUSH1 0x4 DUP3 ADD MSTORE PUSH1 0x17 PUSH1 0x24 DUP3 ADD MSTORE PUSH32 0x4F504D3A20496E76616C69642053776170204173736574000000000000000000 PUSH1 0x44 DUP3 ADD MSTORE PUSH1 0x64 ADD PUSH2 0x31E JUMP JUMPDEST DUP7 PUSH1 0x0 SUB PUSH2 0x883 JUMPI PUSH1 0x40 MLOAD PUSH4 0x35EA6A75 PUSH1 0xE0 SHL DUP2 MSTORE PUSH1 0x1 PUSH1 0x1 PUSH1 0xA0 SHL SUB DUP10 DUP2 AND PUSH1 0x4 DUP4 ADD MSTORE DUP7 AND SWAP1 PUSH4 0x35EA6A75 SWAP1 PUSH1 0x24 ADD PUSH2 0x180 PUSH1 0x40 MLOAD DUP1 DUP4 SUB DUP2 DUP7 GAS STATICCALL ISZERO DUP1 ISZERO PUSH2 0x7DA JUMPI RETURNDATASIZE PUSH1 0x0 DUP1 RETURNDATACOPY RETURNDATASIZE PUSH1 0x0 REVERT JUMPDEST POP POP POP POP PUSH1 0x40 MLOAD RETURNDATASIZE PUSH1 0x1F NOT PUSH1 0x1F DUP3 ADD AND DUP3 ADD DUP1 PUSH1 0x40 MSTORE POP DUP2 ADD SWAP1 PUSH2 0x7FE SWAP2 SWAP1 PUSH2 0x4194 JUMP JUMPDEST PUSH1 0xE0 ADD MLOAD PUSH1 0x40 MLOAD PUSH4 0x70A08231 PUSH1 0xE0 SHL DUP2 MSTORE CALLER PUSH1 0x4 DUP3 ADD MSTORE PUSH1 0x1 PUSH1 0x1 PUSH1 0xA0 SHL SUB SWAP1 SWAP2 AND SWAP1 PUSH4 0x70A08231 SWAP1 PUSH1 0x24 ADD PUSH1 0x20 PUSH1 0x40 MLOAD DUP1 DUP4 SUB DUP2 DUP7 GAS STATICCALL ISZERO DUP1 ISZERO PUSH2 0x847 JUMPI RETURNDATASIZE PUSH1 0x0 DUP1 RETURNDATACOPY RETURNDATASIZE PUSH1 0x0 REVERT JUMPDEST POP POP POP POP PUSH1 0x40 MLOAD RETURNDATASIZE PUSH1 0x1F NOT PUSH1 0x1F DUP3 ADD AND DUP3 ADD DUP1 PUSH1 0x40 MSTORE POP DUP2 ADD SWAP1 PUSH2 0x86B SWAP2 SWAP1 PUSH2 0x4281 JUMP JUMPDEST SWAP7 POP DUP7 PUSH1 0x0 SUB PUSH2 0x883 JUMPI PUSH1 0x0 SWAP6 POP POP POP POP POP POP PUSH2 0x9EB JUMP JUMPDEST PUSH2 0x88F DUP6 CALLER DUP11 DUP11 PUSH2 0x137F JUMP JUMPDEST PUSH1 0x40 DUP1 MLOAD PUSH1 0x2 DUP1 DUP3 MSTORE PUSH1 0x60 DUP3 ADD DUP4 MSTORE PUSH1 0x0 SWAP3 PUSH1 0x20 DUP4 ADD SWAP1 DUP1 CALLDATASIZE DUP4 CALLDATACOPY ADD SWAP1 POP POP SWAP1 POP DUP9 DUP2 PUSH1 0x0 DUP2 MLOAD DUP2 LT PUSH2 0x8C4 JUMPI PUSH2 0x8C4 PUSH2 0x42DB JUMP JUMPDEST PUSH1 0x1 PUSH1 0x1 PUSH1 0xA0 SHL SUB SWAP3 DUP4 AND PUSH1 0x20 SWAP2 DUP3 MUL SWAP3 SWAP1 SWAP3 ADD ADD MSTORE DUP10 DUP2 AND SWAP1 DUP5 AND EQ PUSH2 0x8EB JUMPI DUP3 PUSH2 0x8ED JUMP JUMPDEST DUP2 JUMPDEST DUP2 PUSH1 0x1 DUP2 MLOAD DUP2 LT PUSH2 0x900 JUMPI PUSH2 0x900 PUSH2 0x42DB JUMP JUMPDEST PUSH1 0x20 MUL PUSH1 0x20 ADD ADD SWAP1 PUSH1 0x1 PUSH1 0x1 PUSH1 0xA0 SHL SUB AND SWAP1 DUP2 PUSH1 0x1 PUSH1 0x1 PUSH1 0xA0 SHL SUB AND DUP2 MSTORE POP POP PUSH2 0x92C DUP5 DUP7 DUP11 DUP5 PUSH2 0x1EBC JUMP JUMPDEST SWAP7 POP PUSH2 0x939 DUP7 CALLER DUP6 PUSH2 0x1578 JUMP JUMPDEST PUSH2 0x944 DUP7 CALLER DUP5 PUSH2 0x1578 JUMP JUMPDEST CALLER PUSH1 0x1 PUSH1 0x1 PUSH1 0xA0 SHL SUB AND PUSH32 0x5380CF97D8F645D3C4896DA60C053458DCA03A3A31CEC642AC80E1DDF0D8D02A DUP3 PUSH1 0x0 DUP2 MLOAD DUP2 LT PUSH2 0x982 JUMPI PUSH2 0x982 PUSH2 0x42DB JUMP JUMPDEST PUSH1 0x20 MUL PUSH1 0x20 ADD ADD MLOAD DUP11 DUP5 PUSH1 0x1 DUP2 MLOAD DUP2 LT PUSH2 0x99E JUMPI PUSH2 0x99E PUSH2 0x42DB JUMP JUMPDEST PUSH1 0x20 MUL PUSH1 0x20 ADD ADD MLOAD DUP12 PUSH1 0x40 MLOAD PUSH2 0x9DC SWAP5 SWAP4 SWAP3 SWAP2 SWAP1 PUSH1 0x1 PUSH1 0x1 PUSH1 0xA0 SHL SUB SWAP5 DUP6 AND DUP2 MSTORE PUSH1 0x20 DUP2 ADD SWAP4 SWAP1 SWAP4 MSTORE SWAP3 AND PUSH1 0x40 DUP3 ADD MSTORE PUSH1 0x60 DUP2 ADD SWAP2 SWAP1 SWAP2 MSTORE PUSH1 0x80 ADD SWAP1 JUMP JUMPDEST PUSH1 0x40 MLOAD DUP1 SWAP2 SUB SWAP1 LOG2 POP POP POP POP POP POP JUMPDEST SWAP4 SWAP3 POP POP POP JUMP JUMPDEST PUSH1 0x0 DUP1 PUSH2 0xA01 DUP4 DUP6 ADD DUP6 PUSH2 0x42F1 JUMP JUMPDEST SWAP1 POP DUP1 PUSH1 0xFF AND PUSH1 0x0 SUB PUSH2 0xA3C JUMPI PUSH1 0x0 DUP1 DUP1 PUSH2 0xA1E DUP7 DUP9 ADD DUP9 PUSH2 0x430E JUMP JUMPDEST SWAP4 POP SWAP4 POP SWAP4 POP POP PUSH2 0xA34 DUP4 DUP16 DUP16 DUP16 DUP16 DUP8 DUP8 PUSH2 0x2081 JUMP JUMPDEST POP POP POP PUSH2 0xA66 JUMP JUMPDEST PUSH1 0x0 DUP1 DUP1 PUSH2 0xA4C DUP7 DUP9 ADD DUP9 PUSH2 0x4361 JUMP JUMPDEST SWAP4 POP SWAP4 POP SWAP4 POP POP PUSH2 0xA62 DUP4 DUP16 DUP16 DUP16 DUP16 DUP8 DUP8 PUSH2 0x21A0 JUMP JUMPDEST POP POP POP JUMPDEST POP PUSH1 0x1 SWAP11 SWAP10 POP POP POP POP POP POP POP POP POP POP JUMP JUMPDEST DUP2 MLOAD DUP4 MLOAD EQ DUP1 ISZERO PUSH2 0xA89 JUMPI POP DUP3 MLOAD DUP2 MLOAD EQ JUMPDEST PUSH2 0xAD5 JUMPI PUSH1 0x40 MLOAD PUSH3 0x461BCD PUSH1 0xE5 SHL DUP2 MSTORE PUSH1 0x20 PUSH1 0x4 DUP3 ADD MSTORE PUSH1 0x1A PUSH1 0x24 DUP3 ADD MSTORE PUSH32 0x4F504D3A204172726179204C656E677468204D69736D61746368000000000000 PUSH1 0x44 DUP3 ADD MSTORE PUSH1 0x64 ADD PUSH2 0x31E JUMP JUMPDEST PUSH1 0x0 DUP1 DUP6 CALLER DUP5 PUSH1 0x40 MLOAD PUSH1 0x20 ADD PUSH2 0xAEE SWAP5 SWAP4 SWAP3 SWAP2 SWAP1 PUSH2 0x43ED JUMP JUMPDEST PUSH1 0x40 MLOAD PUSH1 0x20 DUP2 DUP4 SUB SUB DUP2 MSTORE SWAP1 PUSH1 0x40 MSTORE SWAP1 POP PUSH1 0x0 PUSH2 0xB0A DUP7 PUSH2 0x121B JUMP JUMPDEST POP POP POP POP SWAP1 POP PUSH1 0x0 DUP6 MLOAD PUSH1 0x1 PUSH1 0x1 PUSH1 0x40 SHL SUB DUP2 GT ISZERO PUSH2 0xB2B JUMPI PUSH2 0xB2B PUSH2 0x3B58 JUMP JUMPDEST PUSH1 0x40 MLOAD SWAP1 DUP1 DUP3 MSTORE DUP1 PUSH1 0x20 MUL PUSH1 0x20 ADD DUP3 ADD PUSH1 0x40 MSTORE DUP1 ISZERO PUSH2 0xB54 JUMPI DUP2 PUSH1 0x20 ADD PUSH1 0x20 DUP3 MUL DUP1 CALLDATASIZE DUP4 CALLDATACOPY ADD SWAP1 POP JUMPDEST POP SWAP1 POP PUSH1 0x0 JUMPDEST DUP7 MLOAD DUP2 PUSH1 0xFF AND LT ISZERO PUSH2 0xB90 JUMPI PUSH1 0x2 DUP3 DUP3 PUSH1 0xFF AND DUP2 MLOAD DUP2 LT PUSH2 0xB7D JUMPI PUSH2 0xB7D PUSH2 0x42DB JUMP JUMPDEST PUSH1 0x20 SWAP1 DUP2 MUL SWAP2 SWAP1 SWAP2 ADD ADD MSTORE PUSH1 0x1 ADD PUSH2 0xB5A JUMP JUMPDEST POP PUSH1 0x40 MLOAD PUSH4 0xAB9C4B5D PUSH1 0xE0 SHL DUP2 MSTORE PUSH1 0x1 PUSH1 0x1 PUSH1 0xA0 SHL SUB DUP4 AND SWAP1 PUSH4 0xAB9C4B5D SWAP1 PUSH2 0xBCA SWAP1 ADDRESS SWAP1 DUP11 SWAP1 DUP11 SWAP1 DUP8 SWAP1 CALLER SWAP1 DUP12 SWAP1 PUSH1 0x0 SWAP1 PUSH1 0x4 ADD PUSH2 0x44A7 JUMP JUMPDEST PUSH1 0x0 PUSH1 0x40 MLOAD DUP1 DUP4 SUB DUP2 PUSH1 0x0 DUP8 DUP1 EXTCODESIZE ISZERO DUP1 ISZERO PUSH2 0xBE4 JUMPI PUSH1 0x0 DUP1 REVERT JUMPDEST POP GAS CALL ISZERO DUP1 ISZERO PUSH2 0xBF8 JUMPI RETURNDATASIZE PUSH1 0x0 DUP1 RETURNDATACOPY RETURNDATASIZE PUSH1 0x0 REVERT JUMPDEST POP POP POP POP POP POP POP POP POP POP POP JUMP JUMPDEST DUP2 MLOAD DUP4 MLOAD EQ PUSH2 0xC4B JUMPI PUSH1 0x40 MLOAD PUSH3 0x461BCD PUSH1 0xE5 SHL DUP2 MSTORE PUSH1 0x20 PUSH1 0x4 DUP3 ADD MSTORE PUSH1 0x12 PUSH1 0x24 DUP3 ADD MSTORE PUSH18 0x82A4A482B2BE988A9CBE9A92A69A82A8869 PUSH1 0x73 SHL PUSH1 0x44 DUP3 ADD MSTORE PUSH1 0x64 ADD PUSH2 0x31E JUMP JUMPDEST PUSH1 0x40 DUP1 MLOAD PUSH1 0x1 PUSH1 0x20 DUP3 ADD MSTORE SWAP1 DUP2 ADD DUP7 SWAP1 MSTORE PUSH1 0x1 PUSH1 0x1 PUSH1 0xA0 SHL SUB DUP1 DUP7 AND PUSH1 0x60 DUP4 ADD MSTORE DUP3 AND PUSH1 0x80 DUP3 ADD MSTORE PUSH1 0x0 SWAP1 PUSH1 0xA0 ADD PUSH1 0x40 MLOAD PUSH1 0x20 DUP2 DUP4 SUB SUB DUP2 MSTORE SWAP1 PUSH1 0x40 MSTORE SWAP1 POP PUSH1 0x0 DUP1 PUSH1 0x0 PUSH2 0xC98 DUP10 PUSH2 0x121B JUMP JUMPDEST SWAP5 POP SWAP5 POP POP POP SWAP3 POP PUSH1 0x0 DUP8 MLOAD PUSH1 0x1 PUSH1 0x1 PUSH1 0x40 SHL SUB DUP2 GT ISZERO PUSH2 0xCBB JUMPI PUSH2 0xCBB PUSH2 0x3B58 JUMP JUMPDEST PUSH1 0x40 MLOAD SWAP1 DUP1 DUP3 MSTORE DUP1 PUSH1 0x20 MUL PUSH1 0x20 ADD DUP3 ADD PUSH1 0x40 MSTORE DUP1 ISZERO PUSH2 0xCE4 JUMPI DUP2 PUSH1 0x20 ADD PUSH1 0x20 DUP3 MUL DUP1 CALLDATASIZE DUP4 CALLDATACOPY ADD SWAP1 POP JUMPDEST POP SWAP1 POP PUSH1 0x0 JUMPDEST DUP9 MLOAD DUP2 PUSH1 0xFF AND LT ISZERO PUSH2 0xD20 JUMPI PUSH1 0x0 DUP3 DUP3 PUSH1 0xFF AND DUP2 MLOAD DUP2 LT PUSH2 0xD0D JUMPI PUSH2 0xD0D PUSH2 0x42DB JUMP JUMPDEST PUSH1 0x20 SWAP1 DUP2 MUL SWAP2 SWAP1 SWAP2 ADD ADD MSTORE PUSH1 0x1 ADD PUSH2 0xCEA JUMP JUMPDEST POP PUSH1 0x40 MLOAD PUSH4 0xAB9C4B5D PUSH1 0xE0 SHL DUP2 MSTORE PUSH1 0x1 PUSH1 0x1 PUSH1 0xA0 SHL SUB DUP6 AND SWAP1 PUSH4 0xAB9C4B5D SWAP1 PUSH2 0xD5A SWAP1 ADDRESS SWAP1 DUP13 SWAP1 DUP13 SWAP1 DUP8 SWAP1 CALLER SWAP1 DUP14 SWAP1 PUSH1 0x0 SWAP1 PUSH1 0x4 ADD PUSH2 0x44A7 JUMP JUMPDEST PUSH1 0x0 PUSH1 0x40 MLOAD DUP1 DUP4 SUB DUP2 PUSH1 0x0 DUP8 DUP1 EXTCODESIZE ISZERO DUP1 ISZERO PUSH2 0xD74 JUMPI PUSH1 0x0 DUP1 REVERT JUMPDEST POP GAS CALL ISZERO DUP1 ISZERO PUSH2 0xD88 JUMPI RETURNDATASIZE PUSH1 0x0 DUP1 RETURNDATACOPY RETURNDATASIZE PUSH1 0x0 REVERT JUMPDEST POP POP POP POP PUSH2 0xD97 DUP5 CALLER DUP6 PUSH2 0x1578 JUMP JUMPDEST PUSH2 0xDA2 DUP5 CALLER DUP5 PUSH2 0x1578 JUMP JUMPDEST POP POP POP POP POP POP POP POP POP POP JUMP JUMPDEST PUSH1 0x0 DUP1 PUSH1 0x0 PUSH2 0xDBC DUP9 PUSH2 0x121B JUMP JUMPDEST PUSH1 0x40 MLOAD PUSH4 0x35EA6A75 PUSH1 0xE0 SHL DUP2 MSTORE PUSH1 0x1 PUSH1 0x1 PUSH1 0xA0 SHL SUB DUP13 DUP2 AND PUSH1 0x4 DUP4 ADD MSTORE SWAP6 SWAP9 POP SWAP2 SWAP7 POP SWAP5 POP PUSH1 0x0 SWAP4 DUP8 AND SWAP3 POP PUSH4 0x35EA6A75 SWAP2 POP PUSH1 0x24 ADD PUSH2 0x180 PUSH1 0x40 MLOAD DUP1 DUP4 SUB DUP2 DUP7 GAS STATICCALL ISZERO DUP1 ISZERO PUSH2 0xE10 JUMPI RETURNDATASIZE PUSH1 0x0 DUP1 RETURNDATACOPY RETURNDATASIZE PUSH1 0x0 REVERT JUMPDEST POP POP POP POP PUSH1 0x40 MLOAD RETURNDATASIZE PUSH1 0x1F NOT PUSH1 0x1F DUP3 ADD AND DUP3 ADD DUP1 PUSH1 0x40 MSTORE POP DUP2 ADD SWAP1 PUSH2 0xE34 SWAP2 SWAP1 PUSH2 0x4194 JUMP JUMPDEST PUSH2 0x120 ADD MLOAD PUSH1 0x40 MLOAD PUSH4 0x70A08231 PUSH1 0xE0 SHL DUP2 MSTORE PUSH1 0x1 PUSH1 0x1 PUSH1 0xA0 SHL SUB DUP11 DUP2 AND PUSH1 0x4 DUP4 ADD MSTORE SWAP1 SWAP2 AND SWAP1 PUSH4 0x70A08231 SWAP1 PUSH1 0x24 ADD PUSH1 0x20 PUSH1 0x40 MLOAD DUP1 DUP4 SUB DUP2 DUP7 GAS STATICCALL ISZERO DUP1 ISZERO PUSH2 0xE80 JUMPI RETURNDATASIZE PUSH1 0x0 DUP1 RETURNDATACOPY RETURNDATASIZE PUSH1 0x0 REVERT JUMPDEST POP POP POP POP PUSH1 0x40 MLOAD RETURNDATASIZE PUSH1 0x1F NOT PUSH1 0x1F DUP3 ADD AND DUP3 ADD DUP1 PUSH1 0x40 MSTORE POP DUP2 ADD SWAP1 PUSH2 0xEA4 SWAP2 SWAP1 PUSH2 0x4281 JUMP JUMPDEST SWAP1 POP PUSH1 0x0 DUP7 GT DUP1 ISZERO PUSH2 0xEB5 JUMPI POP DUP1 DUP7 LT JUMPDEST ISZERO PUSH2 0xEBD JUMPI POP DUP5 JUMPDEST PUSH1 0x0 DUP2 GT PUSH2 0xEFC JUMPI PUSH1 0x40 MLOAD PUSH3 0x461BCD PUSH1 0xE5 SHL DUP2 MSTORE PUSH1 0x20 PUSH1 0x4 DUP3 ADD MSTORE PUSH1 0xC PUSH1 0x24 DUP3 ADD MSTORE PUSH12 0x13D4134E88139BC81119589D PUSH1 0xA2 SHL PUSH1 0x44 DUP3 ADD MSTORE PUSH1 0x64 ADD PUSH2 0x31E JUMP JUMPDEST PUSH2 0xF09 DUP10 DUP10 DUP10 DUP5 DUP10 PUSH2 0x255C JUMP JUMPDEST SWAP1 POP PUSH2 0xF16 DUP5 DUP10 DUP6 PUSH2 0x1578 JUMP JUMPDEST PUSH2 0xF21 DUP5 DUP10 DUP5 PUSH2 0x1578 JUMP JUMPDEST DUP7 PUSH1 0x1 PUSH1 0x1 PUSH1 0xA0 SHL SUB AND DUP9 PUSH1 0x1 PUSH1 0x1 PUSH1 0xA0 SHL SUB AND PUSH32 0x16331435A4B4FC629446F9123C94A92E6A4D89B5305CEED74754276490CB02CF DUP4 PUSH1 0x40 MLOAD PUSH2 0xF66 SWAP2 DUP2 MSTORE PUSH1 0x20 ADD SWAP1 JUMP JUMPDEST PUSH1 0x40 MLOAD DUP1 SWAP2 SUB SWAP1 LOG3 POP POP POP POP POP POP POP POP POP JUMP JUMPDEST PUSH2 0xF9E DUP2 PUSH1 0x0 DUP2 MLOAD DUP2 LT PUSH2 0xF8F JUMPI PUSH2 0xF8F PUSH2 0x42DB JUMP JUMPDEST PUSH1 0x20 MUL PUSH1 0x20 ADD ADD MLOAD DUP6 DUP5 PUSH2 0x14E4 JUMP JUMPDEST PUSH1 0x40 MLOAD PUSH4 0x7C0329D PUSH1 0xE2 SHL DUP2 MSTORE PUSH1 0x0 SWAP1 PUSH1 0x1 PUSH1 0x1 PUSH1 0xA0 SHL SUB DUP7 AND SWAP1 PUSH4 0x1F00CA74 SWAP1 PUSH2 0xFCF SWAP1 DUP8 SWAP1 DUP7 SWAP1 PUSH1 0x4 ADD PUSH2 0x4525 JUMP JUMPDEST PUSH1 0x0 PUSH1 0x40 MLOAD DUP1 DUP4 SUB DUP2 PUSH1 0x0 DUP8 GAS CALL ISZERO DUP1 ISZERO PUSH2 0xFEE JUMPI RETURNDATASIZE PUSH1 0x0 DUP1 RETURNDATACOPY RETURNDATASIZE PUSH1 0x0 REVERT JUMPDEST POP POP POP POP PUSH1 0x40 MLOAD RETURNDATASIZE PUSH1 0x0 DUP3 RETURNDATACOPY PUSH1 0x1F RETURNDATASIZE SWAP1 DUP2 ADD PUSH1 0x1F NOT AND DUP3 ADD PUSH1 0x40 MSTORE PUSH2 0x1016 SWAP2 SWAP1 DUP2 ADD SWAP1 PUSH2 0x453E JUMP JUMPDEST SWAP1 POP DUP3 DUP2 PUSH1 0x0 DUP2 MLOAD DUP2 LT PUSH2 0x102C JUMPI PUSH2 0x102C PUSH2 0x42DB JUMP JUMPDEST PUSH1 0x20 MUL PUSH1 0x20 ADD ADD MLOAD GT ISZERO DUP1 ISZERO PUSH2 0x105C JUMPI POP PUSH1 0x0 DUP2 PUSH1 0x0 DUP2 MLOAD DUP2 LT PUSH2 0x1052 JUMPI PUSH2 0x1052 PUSH2 0x42DB JUMP JUMPDEST PUSH1 0x20 MUL PUSH1 0x20 ADD ADD MLOAD GT JUMPDEST PUSH2 0x10A8 JUMPI PUSH1 0x40 MLOAD PUSH3 0x461BCD PUSH1 0xE5 SHL DUP2 MSTORE PUSH1 0x20 PUSH1 0x4 DUP3 ADD MSTORE PUSH1 0x19 PUSH1 0x24 DUP3 ADD MSTORE PUSH32 0x4F504D3A20496E76616C6964205377617020416D6F756E747300000000000000 PUSH1 0x44 DUP3 ADD MSTORE PUSH1 0x64 ADD PUSH2 0x31E JUMP JUMPDEST DUP2 PUSH1 0x0 DUP2 MLOAD DUP2 LT PUSH2 0x10BB JUMPI PUSH2 0x10BB PUSH2 0x42DB JUMP JUMPDEST PUSH1 0x20 SWAP1 DUP2 MUL SWAP2 SWAP1 SWAP2 ADD ADD MLOAD PUSH1 0x40 MLOAD PUSH4 0x70A08231 PUSH1 0xE0 SHL DUP2 MSTORE ADDRESS PUSH1 0x4 DUP3 ADD MSTORE PUSH1 0x1 PUSH1 0x1 PUSH1 0xA0 SHL SUB SWAP1 SWAP2 AND SWAP1 PUSH4 0x70A08231 SWAP1 PUSH1 0x24 ADD PUSH1 0x20 PUSH1 0x40 MLOAD DUP1 DUP4 SUB DUP2 DUP7 GAS STATICCALL ISZERO DUP1 ISZERO PUSH2 0x110B JUMPI RETURNDATASIZE PUSH1 0x0 DUP1 RETURNDATACOPY RETURNDATASIZE PUSH1 0x0 REVERT JUMPDEST POP POP POP POP PUSH1 0x40 MLOAD RETURNDATASIZE PUSH1 0x1F NOT PUSH1 0x1F DUP3 ADD AND DUP3 ADD DUP1 PUSH1 0x40 MSTORE POP DUP2 ADD SWAP1 PUSH2 0x112F SWAP2 SWAP1 PUSH2 0x4281 JUMP JUMPDEST DUP2 PUSH1 0x0 DUP2 MLOAD DUP2 LT PUSH2 0x1142 JUMPI PUSH2 0x1142 PUSH2 0x42DB JUMP JUMPDEST PUSH1 0x20 MUL PUSH1 0x20 ADD ADD MLOAD GT ISZERO PUSH2 0x1198 JUMPI PUSH1 0x40 MLOAD PUSH3 0x461BCD PUSH1 0xE5 SHL DUP2 MSTORE PUSH1 0x20 PUSH1 0x4 DUP3 ADD MSTORE PUSH1 0x1E PUSH1 0x24 DUP3 ADD MSTORE PUSH32 0x4F504D3A20496E73756666696369656E7420546F6B656E20416D6F756E740000 PUSH1 0x44 DUP3 ADD MSTORE PUSH1 0x64 ADD PUSH2 0x31E JUMP JUMPDEST PUSH1 0x40 MLOAD PUSH4 0x4401EDF7 PUSH1 0xE1 SHL DUP2 MSTORE PUSH1 0x1 PUSH1 0x1 PUSH1 0xA0 SHL SUB DUP7 AND SWAP1 PUSH4 0x8803DBEE SWAP1 PUSH2 0x11CC SWAP1 DUP8 SWAP1 DUP8 SWAP1 DUP8 SWAP1 ADDRESS SWAP1 TIMESTAMP SWAP1 PUSH1 0x4 ADD PUSH2 0x45C3 JUMP JUMPDEST PUSH1 0x0 PUSH1 0x40 MLOAD DUP1 DUP4 SUB DUP2 PUSH1 0x0 DUP8 GAS CALL ISZERO DUP1 ISZERO PUSH2 0x11EB JUMPI RETURNDATASIZE PUSH1 0x0 DUP1 RETURNDATACOPY RETURNDATASIZE PUSH1 0x0 REVERT JUMPDEST POP POP POP POP PUSH1 0x40 MLOAD RETURNDATASIZE PUSH1 0x0 DUP3 RETURNDATACOPY PUSH1 0x1F RETURNDATASIZE SWAP1 DUP2 ADD PUSH1 0x1F NOT AND DUP3 ADD PUSH1 0x40 MSTORE PUSH2 0x1213 SWAP2 SWAP1 DUP2 ADD SWAP1 PUSH2 0x453E JUMP JUMPDEST POP POP POP POP POP POP JUMP JUMPDEST PUSH1 0x2 SLOAD PUSH1 0x40 MLOAD PUSH4 0x15895F47 PUSH1 0xE3 SHL DUP2 MSTORE PUSH1 0x4 DUP2 ADD DUP4 SWAP1 MSTORE PUSH1 0x0 SWAP2 DUP3 SWAP2 DUP3 SWAP2 DUP3 SWAP2 DUP3 SWAP2 DUP3 SWAP2 DUP3 SWAP2 DUP3 SWAP2 DUP3 SWAP2 PUSH1 0x1 PUSH1 0x1 PUSH1 0xA0 SHL SUB AND SWAP1 PUSH4 0xAC4AFA38 SWAP1 PUSH1 0x24 ADD PUSH1 0xA0 PUSH1 0x40 MLOAD DUP1 DUP4 SUB DUP2 DUP7 GAS STATICCALL ISZERO DUP1 ISZERO PUSH2 0x1275 JUMPI RETURNDATASIZE PUSH1 0x0 DUP1 RETURNDATACOPY RETURNDATASIZE PUSH1 0x0 REVERT JUMPDEST POP POP POP POP PUSH1 0x40 MLOAD RETURNDATASIZE PUSH1 0x1F NOT PUSH1 0x1F DUP3 ADD AND DUP3 ADD DUP1 PUSH1 0x40 MSTORE POP DUP2 ADD SWAP1 PUSH2 0x1299 SWAP2 SWAP1 PUSH2 0x460F JUMP JUMPDEST POP SWAP4 POP SWAP4 POP SWAP4 POP SWAP4 POP DUP3 SWAP6 POP DUP2 SWAP5 POP DUP4 PUSH1 0x1 PUSH1 0x1 PUSH1 0xA0 SHL SUB AND PUSH4 0x261BF8B PUSH1 0x40 MLOAD DUP2 PUSH4 0xFFFFFFFF AND PUSH1 0xE0 SHL DUP2 MSTORE PUSH1 0x4 ADD PUSH1 0x20 PUSH1 0x40 MLOAD DUP1 DUP4 SUB DUP2 DUP7 GAS STATICCALL ISZERO DUP1 ISZERO PUSH2 0x12E6 JUMPI RETURNDATASIZE PUSH1 0x0 DUP1 RETURNDATACOPY RETURNDATASIZE PUSH1 0x0 REVERT JUMPDEST POP POP POP POP PUSH1 0x40 MLOAD RETURNDATASIZE PUSH1 0x1F NOT PUSH1 0x1F DUP3 ADD AND DUP3 ADD DUP1 PUSH1 0x40 MSTORE POP DUP2 ADD SWAP1 PUSH2 0x130A SWAP2 SWAP1 PUSH2 0x42BE JUMP JUMPDEST SWAP9 POP DUP4 PUSH1 0x1 PUSH1 0x1 PUSH1 0xA0 SHL SUB AND PUSH4 0xFCA513A8 PUSH1 0x40 MLOAD DUP2 PUSH4 0xFFFFFFFF AND PUSH1 0xE0 SHL DUP2 MSTORE PUSH1 0x4 ADD PUSH1 0x20 PUSH1 0x40 MLOAD DUP1 DUP4 SUB DUP2 DUP7 GAS STATICCALL ISZERO DUP1 ISZERO PUSH2 0x134A JUMPI RETURNDATASIZE PUSH1 0x0 DUP1 RETURNDATACOPY RETURNDATASIZE PUSH1 0x0 REVERT JUMPDEST POP POP POP POP PUSH1 0x40 MLOAD RETURNDATASIZE PUSH1 0x1F NOT PUSH1 0x1F DUP3 ADD AND DUP3 ADD DUP1 PUSH1 0x40 MSTORE POP DUP2 ADD SWAP1 PUSH2 0x136E SWAP2 SWAP1 PUSH2 0x42BE JUMP JUMPDEST SWAP9 SWAP11 SWAP9 SWAP10 POP SWAP8 SWAP5 SWAP7 POP SWAP3 SWAP5 POP POP POP POP JUMP JUMPDEST DUP1 ISZERO PUSH2 0x242 JUMPI PUSH1 0x40 MLOAD PUSH4 0x35EA6A75 PUSH1 0xE0 SHL DUP2 MSTORE PUSH1 0x1 PUSH1 0x1 PUSH1 0xA0 SHL SUB DUP4 DUP2 AND PUSH1 0x4 DUP4 ADD MSTORE DUP6 AND SWAP1 PUSH4 0x8EBBD26 SWAP1 DUP3 SWAP1 PUSH4 0x35EA6A75 SWAP1 PUSH1 0x24 ADD PUSH2 0x180 PUSH1 0x40 MLOAD DUP1 DUP4 SUB DUP2 DUP7 GAS STATICCALL ISZERO DUP1 ISZERO PUSH2 0x13D4 JUMPI RETURNDATASIZE PUSH1 0x0 DUP1 RETURNDATACOPY RETURNDATASIZE PUSH1 0x0 REVERT JUMPDEST POP POP POP POP PUSH1 0x40 MLOAD RETURNDATASIZE PUSH1 0x1F NOT PUSH1 0x1F DUP3 ADD AND DUP3 ADD DUP1 PUSH1 0x40 MSTORE POP DUP2 ADD SWAP1 PUSH2 0x13F8 SWAP2 SWAP1 PUSH2 0x4194 JUMP JUMPDEST PUSH1 0xE0 SWAP1 DUP2 ADD MLOAD PUSH1 0x40 MLOAD SWAP2 DUP4 SWAP1 SHL PUSH1 0x1 PUSH1 0x1 PUSH1 0xE0 SHL SUB NOT AND DUP3 MSTORE PUSH1 0x1 PUSH1 0x1 PUSH1 0xA0 SHL SUB SWAP1 DUP2 AND PUSH1 0x4 DUP4 ADD MSTORE DUP7 AND PUSH1 0x24 DUP3 ADD MSTORE PUSH1 0x44 DUP2 ADD DUP5 SWAP1 MSTORE PUSH1 0x64 ADD PUSH1 0x0 PUSH1 0x40 MLOAD DUP1 DUP4 SUB DUP2 PUSH1 0x0 DUP8 DUP1 EXTCODESIZE ISZERO DUP1 ISZERO PUSH2 0x144C JUMPI PUSH1 0x0 DUP1 REVERT JUMPDEST POP GAS CALL ISZERO DUP1 ISZERO PUSH2 0x1460 JUMPI RETURNDATASIZE PUSH1 0x0 DUP1 RETURNDATACOPY RETURNDATASIZE PUSH1 0x0 REVERT JUMPDEST POP POP PUSH1 0x40 MLOAD PUSH4 0x1A4CA37B PUSH1 0xE2 SHL DUP2 MSTORE PUSH1 0x1 PUSH1 0x1 PUSH1 0xA0 SHL SUB DUP6 DUP2 AND PUSH1 0x4 DUP4 ADD MSTORE PUSH1 0x24 DUP3 ADD DUP6 SWAP1 MSTORE ADDRESS PUSH1 0x44 DUP4 ADD MSTORE DUP8 AND SWAP3 POP PUSH4 0x69328DEC SWAP2 POP PUSH1 0x64 ADD PUSH1 0x20 PUSH1 0x40 MLOAD DUP1 DUP4 SUB DUP2 PUSH1 0x0 DUP8 GAS CALL ISZERO DUP1 ISZERO PUSH2 0x14B9 JUMPI RETURNDATASIZE PUSH1 0x0 DUP1 RETURNDATACOPY RETURNDATASIZE PUSH1 0x0 REVERT JUMPDEST POP POP POP POP PUSH1 0x40 MLOAD RETURNDATASIZE PUSH1 0x1F NOT PUSH1 0x1F DUP3 ADD AND DUP3 ADD DUP1 PUSH1 0x40 MSTORE POP DUP2 ADD SWAP1 PUSH2 0x14DD SWAP2 SWAP1 PUSH2 0x4281 JUMP JUMPDEST POP POP POP POP POP JUMP JUMPDEST PUSH1 0x40 MLOAD PUSH4 0x6EB1769F PUSH1 0xE1 SHL DUP2 MSTORE ADDRESS PUSH1 0x4 DUP3 ADD MSTORE PUSH1 0x1 PUSH1 0x1 PUSH1 0xA0 SHL SUB DUP4 DUP2 AND PUSH1 0x24 DUP4 ADD MSTORE DUP3 SWAP2 SWAP1 DUP6 AND SWAP1 PUSH4 0xDD62ED3E SWAP1 PUSH1 0x44 ADD PUSH1 0x20 PUSH1 0x40 MLOAD DUP1 DUP4 SUB DUP2 DUP7 GAS STATICCALL ISZERO DUP1 ISZERO PUSH2 0x1533 JUMPI RETURNDATASIZE PUSH1 0x0 DUP1 RETURNDATACOPY RETURNDATASIZE PUSH1 0x0 REVERT JUMPDEST POP POP POP POP PUSH1 0x40 MLOAD RETURNDATASIZE PUSH1 0x1F NOT PUSH1 0x1F DUP3 ADD AND DUP3 ADD DUP1 PUSH1 0x40 MSTORE POP DUP2 ADD SWAP1 PUSH2 0x1557 SWAP2 SWAP1 PUSH2 0x4281 JUMP JUMPDEST LT ISZERO PUSH2 0x1573 JUMPI PUSH2 0x1573 PUSH1 0x1 PUSH1 0x1 PUSH1 0xA0 SHL SUB DUP5 AND DUP4 PUSH1 0x0 NOT PUSH2 0x2DF9 JUMP JUMPDEST POP POP POP JUMP JUMPDEST PUSH1 0x40 MLOAD PUSH4 0x70A08231 PUSH1 0xE0 SHL DUP2 MSTORE ADDRESS PUSH1 0x4 DUP3 ADD MSTORE PUSH1 0x0 SWAP1 PUSH1 0x1 PUSH1 0x1 PUSH1 0xA0 SHL SUB DUP4 AND SWAP1 PUSH4 0x70A08231 SWAP1 PUSH1 0x24 ADD PUSH1 0x20 PUSH1 0x40 MLOAD DUP1 DUP4 SUB DUP2 DUP7 GAS STATICCALL ISZERO DUP1 ISZERO PUSH2 0x15BF JUMPI RETURNDATASIZE PUSH1 0x0 DUP1 RETURNDATACOPY RETURNDATASIZE PUSH1 0x0 REVERT JUMPDEST POP POP POP POP PUSH1 0x40 MLOAD RETURNDATASIZE PUSH1 0x1F NOT PUSH1 0x1F DUP3 ADD AND DUP3 ADD DUP1 PUSH1 0x40 MSTORE POP DUP2 ADD SWAP1 PUSH2 0x15E3 SWAP2 SWAP1 PUSH2 0x4281 JUMP JUMPDEST SWAP1 POP DUP1 ISZERO PUSH2 0x242 JUMPI PUSH2 0x15F6 DUP3 DUP6 DUP4 PUSH2 0x14E4 JUMP JUMPDEST PUSH1 0x40 MLOAD PUSH4 0x35EA6A75 PUSH1 0xE0 SHL DUP2 MSTORE PUSH1 0x1 PUSH1 0x1 PUSH1 0xA0 SHL SUB DUP4 DUP2 AND PUSH1 0x4 DUP4 ADD MSTORE PUSH1 0x0 SWAP2 SWAP1 DUP7 AND SWAP1 PUSH4 0x35EA6A75 SWAP1 PUSH1 0x24 ADD PUSH2 0x180 PUSH1 0x40 MLOAD DUP1 DUP4 SUB DUP2 DUP7 GAS STATICCALL ISZERO DUP1 ISZERO PUSH2 0x1641 JUMPI RETURNDATASIZE PUSH1 0x0 DUP1 RETURNDATACOPY RETURNDATASIZE PUSH1 0x0 REVERT JUMPDEST POP POP POP POP PUSH1 0x40 MLOAD RETURNDATASIZE PUSH1 0x1F NOT PUSH1 0x1F DUP3 ADD AND DUP3 ADD DUP1 PUSH1 0x40 MSTORE POP DUP2 ADD SWAP1 PUSH2 0x1665 SWAP2 SWAP1 PUSH2 0x4194 JUMP JUMPDEST PUSH2 0x120 ADD MLOAD PUSH1 0x40 MLOAD PUSH4 0x70A08231 PUSH1 0xE0 SHL DUP2 MSTORE PUSH1 0x1 PUSH1 0x1 PUSH1 0xA0 SHL SUB DUP7 DUP2 AND PUSH1 0x4 DUP4 ADD MSTORE SWAP1 SWAP2 AND SWAP1 PUSH4 0x70A08231 SWAP1 PUSH1 0x24 ADD PUSH1 0x20 PUSH1 0x40 MLOAD DUP1 DUP4 SUB DUP2 DUP7 GAS STATICCALL ISZERO DUP1 ISZERO PUSH2 0x16B1 JUMPI RETURNDATASIZE PUSH1 0x0 DUP1 RETURNDATACOPY RETURNDATASIZE PUSH1 0x0 REVERT JUMPDEST POP POP POP POP PUSH1 0x40 MLOAD RETURNDATASIZE PUSH1 0x1F NOT PUSH1 0x1F DUP3 ADD AND DUP3 ADD DUP1 PUSH1 0x40 MSTORE POP DUP2 ADD SWAP1 PUSH2 0x16D5 SWAP2 SWAP1 PUSH2 0x4281 JUMP JUMPDEST SWAP1 POP DUP1 ISZERO PUSH2 0x17DE JUMPI DUP1 DUP3 GT PUSH2 0x175A JUMPI PUSH1 0x40 MLOAD PUSH4 0x573ADE81 PUSH1 0xE0 SHL DUP2 MSTORE PUSH1 0x1 PUSH1 0x1 PUSH1 0xA0 SHL SUB DUP7 AND SWAP1 PUSH4 0x573ADE81 SWAP1 PUSH2 0x1717 SWAP1 DUP7 SWAP1 DUP7 SWAP1 PUSH1 0x2 SWAP1 DUP11 SWAP1 PUSH1 0x4 ADD PUSH2 0x467F JUMP JUMPDEST PUSH1 0x20 PUSH1 0x40 MLOAD DUP1 DUP4 SUB DUP2 PUSH1 0x0 DUP8 GAS CALL ISZERO DUP1 ISZERO PUSH2 0x1736 JUMPI RETURNDATASIZE PUSH1 0x0 DUP1 RETURNDATACOPY RETURNDATASIZE PUSH1 0x0 REVERT JUMPDEST POP POP POP POP PUSH1 0x40 MLOAD RETURNDATASIZE PUSH1 0x1F NOT PUSH1 0x1F DUP3 ADD AND DUP3 ADD DUP1 PUSH1 0x40 MSTORE POP DUP2 ADD SWAP1 PUSH2 0x1213 SWAP2 SWAP1 PUSH2 0x4281 JUMP JUMPDEST PUSH1 0x40 MLOAD PUSH4 0x573ADE81 PUSH1 0xE0 SHL DUP2 MSTORE PUSH1 0x1 PUSH1 0x1 PUSH1 0xA0 SHL SUB DUP7 AND SWAP1 PUSH4 0x573ADE81 SWAP1 PUSH2 0x178D SWAP1 DUP7 SWAP1 DUP6 SWAP1 PUSH1 0x2 SWAP1 DUP11 SWAP1 PUSH1 0x4 ADD PUSH2 0x467F JUMP JUMPDEST PUSH1 0x20 PUSH1 0x40 MLOAD DUP1 DUP4 SUB DUP2 PUSH1 0x0 DUP8 GAS CALL ISZERO DUP1 ISZERO PUSH2 0x17AC JUMPI RETURNDATASIZE PUSH1 0x0 DUP1 RETURNDATACOPY RETURNDATASIZE PUSH1 0x0 REVERT JUMPDEST POP POP POP POP PUSH1 0x40 MLOAD RETURNDATASIZE PUSH1 0x1F NOT PUSH1 0x1F DUP3 ADD AND DUP3 ADD DUP1 PUSH1 0x40 MSTORE POP DUP2 ADD SWAP1 PUSH2 0x17D0 SWAP2 SWAP1 PUSH2 0x4281 JUMP JUMPDEST POP PUSH2 0x17DB DUP2 DUP4 PUSH2 0x46C0 JUMP JUMPDEST SWAP2 POP JUMPDEST PUSH1 0x40 MLOAD PUSH4 0xE8EDA9DF PUSH1 0xE0 SHL DUP2 MSTORE PUSH1 0x1 PUSH1 0x1 PUSH1 0xA0 SHL SUB DUP5 DUP2 AND PUSH1 0x4 DUP4 ADD MSTORE PUSH1 0x24 DUP3 ADD DUP5 SWAP1 MSTORE DUP6 DUP2 AND PUSH1 0x44 DUP4 ADD MSTORE PUSH1 0x0 PUSH1 0x64 DUP4 ADD MSTORE DUP7 AND SWAP1 PUSH4 0xE8EDA9DF SWAP1 PUSH1 0x84 ADD PUSH1 0x0 PUSH1 0x40 MLOAD DUP1 DUP4 SUB DUP2 PUSH1 0x0 DUP8 DUP1 EXTCODESIZE ISZERO DUP1 ISZERO PUSH2 0x1837 JUMPI PUSH1 0x0 DUP1 REVERT JUMPDEST POP GAS CALL ISZERO DUP1 ISZERO PUSH2 0x43C JUMPI RETURNDATASIZE PUSH1 0x0 DUP1 RETURNDATACOPY RETURNDATASIZE PUSH1 0x0 REVERT JUMPDEST PUSH1 0x0 DUP5 PUSH1 0x1 PUSH1 0x1 PUSH1 0xA0 SHL SUB AND PUSH4 0x38013F02 PUSH1 0x40 MLOAD DUP2 PUSH4 0xFFFFFFFF AND PUSH1 0xE0 SHL DUP2 MSTORE PUSH1 0x4 ADD PUSH1 0x20 PUSH1 0x40 MLOAD DUP1 DUP4 SUB DUP2 DUP7 GAS STATICCALL ISZERO DUP1 ISZERO PUSH2 0x188B JUMPI RETURNDATASIZE PUSH1 0x0 DUP1 RETURNDATACOPY RETURNDATASIZE PUSH1 0x0 REVERT JUMPDEST POP POP POP POP PUSH1 0x40 MLOAD RETURNDATASIZE PUSH1 0x1F NOT PUSH1 0x1F DUP3 ADD AND DUP3 ADD DUP1 PUSH1 0x40 MSTORE POP DUP2 ADD SWAP1 PUSH2 0x18AF SWAP2 SWAP1 PUSH2 0x42BE JUMP JUMPDEST SWAP1 POP PUSH1 0x0 DUP1 DUP7 PUSH1 0x1 PUSH1 0x1 PUSH1 0xA0 SHL SUB AND PUSH4 0x443EC74D PUSH1 0x40 MLOAD DUP2 PUSH4 0xFFFFFFFF AND PUSH1 0xE0 SHL DUP2 MSTORE PUSH1 0x4 ADD PUSH1 0x40 DUP1 MLOAD DUP1 DUP4 SUB DUP2 DUP7 GAS STATICCALL ISZERO DUP1 ISZERO PUSH2 0x18F1 JUMPI RETURNDATASIZE PUSH1 0x0 DUP1 RETURNDATACOPY RETURNDATASIZE PUSH1 0x0 REVERT JUMPDEST POP POP POP POP PUSH1 0x40 MLOAD RETURNDATASIZE PUSH1 0x1F NOT PUSH1 0x1F DUP3 ADD AND DUP3 ADD DUP1 PUSH1 0x40 MSTORE POP DUP2 ADD SWAP1 PUSH2 0x1915 SWAP2 SWAP1 PUSH2 0x46D9 JUMP JUMPDEST SWAP2 POP SWAP2 POP PUSH1 0x0 DUP1 DUP9 PUSH1 0x1 PUSH1 0x1 PUSH1 0xA0 SHL SUB AND PUSH4 0x5EE04D78 PUSH1 0x40 MLOAD DUP2 PUSH4 0xFFFFFFFF AND PUSH1 0xE0 SHL DUP2 MSTORE PUSH1 0x4 ADD PUSH1 0x40 DUP1 MLOAD DUP1 DUP4 SUB DUP2 DUP7 GAS STATICCALL ISZERO DUP1 ISZERO PUSH2 0x1959 JUMPI RETURNDATASIZE PUSH1 0x0 DUP1 RETURNDATACOPY RETURNDATASIZE PUSH1 0x0 REVERT JUMPDEST POP POP POP POP PUSH1 0x40 MLOAD RETURNDATASIZE PUSH1 0x1F NOT PUSH1 0x1F DUP3 ADD AND DUP3 ADD DUP1 PUSH1 0x40 MSTORE POP DUP2 ADD SWAP1 PUSH2 0x197D SWAP2 SWAP1 PUSH2 0x46D9 JUMP JUMPDEST SWAP2 POP SWAP2 POP PUSH1 0x0 PUSH8 0xDE0B6B3A7640000 DUP10 DUP12 PUSH1 0x1 PUSH1 0x1 PUSH1 0xA0 SHL SUB AND PUSH4 0x50D25BCD PUSH1 0x40 MLOAD DUP2 PUSH4 0xFFFFFFFF AND PUSH1 0xE0 SHL DUP2 MSTORE PUSH1 0x4 ADD PUSH1 0x20 PUSH1 0x40 MLOAD DUP1 DUP4 SUB DUP2 DUP7 GAS STATICCALL ISZERO DUP1 ISZERO PUSH2 0x19CB JUMPI RETURNDATASIZE PUSH1 0x0 DUP1 RETURNDATACOPY RETURNDATASIZE PUSH1 0x0 REVERT JUMPDEST POP POP POP POP PUSH1 0x40 MLOAD RETURNDATASIZE PUSH1 0x1F NOT PUSH1 0x1F DUP3 ADD AND DUP3 ADD DUP1 PUSH1 0x40 MSTORE POP DUP2 ADD SWAP1 PUSH2 0x19EF SWAP2 SWAP1 PUSH2 0x4281 JUMP JUMPDEST PUSH2 0x19F9 SWAP2 SWAP1 PUSH2 0x4713 JUMP JUMPDEST PUSH2 0x1A03 SWAP2 SWAP1 PUSH2 0x472A JUMP JUMPDEST SWAP1 POP PUSH1 0x0 PUSH2 0x1A12 DUP4 PUSH1 0xA PUSH2 0x4830 JUMP JUMPDEST PUSH1 0x40 MLOAD PUSH4 0xB3596F07 PUSH1 0xE0 SHL DUP2 MSTORE PUSH1 0x1 PUSH1 0x1 PUSH1 0xA0 SHL SUB DUP7 DUP2 AND PUSH1 0x4 DUP4 ADD MSTORE DUP10 AND SWAP1 PUSH4 0xB3596F07 SWAP1 PUSH1 0x24 ADD PUSH1 0x20 PUSH1 0x40 MLOAD DUP1 DUP4 SUB DUP2 DUP7 GAS STATICCALL ISZERO DUP1 ISZERO PUSH2 0x1A58 JUMPI RETURNDATASIZE PUSH1 0x0 DUP1 RETURNDATACOPY RETURNDATASIZE PUSH1 0x0 REVERT JUMPDEST POP POP POP POP PUSH1 0x40 MLOAD RETURNDATASIZE PUSH1 0x1F NOT PUSH1 0x1F DUP3 ADD AND DUP3 ADD DUP1 PUSH1 0x40 MSTORE POP DUP2 ADD SWAP1 PUSH2 0x1A7C SWAP2 SWAP1 PUSH2 0x4281 JUMP JUMPDEST PUSH2 0x1A86 SWAP1 DUP11 PUSH2 0x4713 JUMP JUMPDEST PUSH2 0x1A90 SWAP2 SWAP1 PUSH2 0x472A JUMP JUMPDEST PUSH2 0x1A9B DUP7 PUSH1 0xA PUSH2 0x4830 JUMP JUMPDEST PUSH1 0x40 MLOAD PUSH4 0xB3596F07 PUSH1 0xE0 SHL DUP2 MSTORE PUSH1 0x1 PUSH1 0x1 PUSH1 0xA0 SHL SUB DUP10 DUP2 AND PUSH1 0x4 DUP4 ADD MSTORE DUP11 AND SWAP1 PUSH4 0xB3596F07 SWAP1 PUSH1 0x24 ADD PUSH1 0x20 PUSH1 0x40 MLOAD DUP1 DUP4 SUB DUP2 DUP7 GAS STATICCALL ISZERO DUP1 ISZERO PUSH2 0x1AE1 JUMPI RETURNDATASIZE PUSH1 0x0 DUP1 RETURNDATACOPY RETURNDATASIZE PUSH1 0x0 REVERT JUMPDEST POP POP POP POP PUSH1 0x40 MLOAD RETURNDATASIZE PUSH1 0x1F NOT PUSH1 0x1F DUP3 ADD AND DUP3 ADD DUP1 PUSH1 0x40 MSTORE POP DUP2 ADD SWAP1 PUSH2 0x1B05 SWAP2 SWAP1 PUSH2 0x4281 JUMP JUMPDEST PUSH2 0x1B0F SWAP1 DUP13 PUSH2 0x4713 JUMP JUMPDEST PUSH2 0x1B19 SWAP2 SWAP1 PUSH2 0x472A JUMP JUMPDEST PUSH2 0x1B23 SWAP2 SWAP1 PUSH2 0x483F JUMP JUMPDEST SWAP1 POP PUSH4 0x5F5E100 DUP3 LT DUP1 ISZERO PUSH2 0x1B3B JUMPI POP PUSH4 0x5F5E100 DUP2 LT JUMPDEST DUP1 PUSH2 0x1B7B JUMPI POP PUSH1 0x64 PUSH2 0x1B4E DUP4 PUSH1 0x62 PUSH2 0x4713 JUMP JUMPDEST PUSH2 0x1B58 SWAP2 SWAP1 PUSH2 0x472A JUMP JUMPDEST DUP2 GT DUP1 ISZERO PUSH2 0x1B7B JUMPI POP PUSH1 0x64 PUSH2 0x1B6E DUP4 PUSH1 0x66 PUSH2 0x4713 JUMP JUMPDEST PUSH2 0x1B78 SWAP2 SWAP1 PUSH2 0x472A JUMP JUMPDEST DUP2 LT JUMPDEST PUSH2 0xBF8 JUMPI PUSH1 0x40 MLOAD PUSH3 0x461BCD PUSH1 0xE5 SHL DUP2 MSTORE PUSH1 0x20 PUSH1 0x4 DUP3 ADD MSTORE PUSH1 0x13 PUSH1 0x24 DUP3 ADD MSTORE PUSH19 0x27A8269D1029B634B83830B3B29022B93937B9 PUSH1 0x69 SHL PUSH1 0x44 DUP3 ADD MSTORE PUSH1 0x64 ADD PUSH2 0x31E JUMP JUMPDEST PUSH1 0x40 MLOAD PUSH4 0xB3596F07 PUSH1 0xE0 SHL DUP2 MSTORE PUSH1 0x1 PUSH1 0x1 PUSH1 0xA0 SHL SUB DUP5 DUP2 AND PUSH1 0x4 DUP4 ADD MSTORE PUSH1 0x0 SWAP2 DUP3 SWAP2 DUP8 AND SWAP1 PUSH4 0xB3596F07 SWAP1 PUSH1 0x24 ADD PUSH1 0x20 PUSH1 0x40 MLOAD DUP1 DUP4 SUB DUP2 DUP7 GAS STATICCALL ISZERO DUP1 ISZERO PUSH2 0x1C08 JUMPI RETURNDATASIZE PUSH1 0x0 DUP1 RETURNDATACOPY RETURNDATASIZE PUSH1 0x0 REVERT JUMPDEST POP POP POP POP PUSH1 0x40 MLOAD RETURNDATASIZE PUSH1 0x1F NOT PUSH1 0x1F DUP3 ADD AND DUP3 ADD DUP1 PUSH1 0x40 MSTORE POP DUP2 ADD SWAP1 PUSH2 0x1C2C SWAP2 SWAP1 PUSH2 0x4281 JUMP JUMPDEST PUSH1 0x40 MLOAD PUSH4 0xB3596F07 PUSH1 0xE0 SHL DUP2 MSTORE PUSH1 0x1 PUSH1 0x1 PUSH1 0xA0 SHL SUB DUP6 DUP2 AND PUSH1 0x4 DUP4 ADD MSTORE SWAP2 SWAP3 POP PUSH1 0x0 SWAP2 DUP9 AND SWAP1 PUSH4 0xB3596F07 SWAP1 PUSH1 0x24 ADD PUSH1 0x20 PUSH1 0x40 MLOAD DUP1 DUP4 SUB DUP2 DUP7 GAS STATICCALL ISZERO DUP1 ISZERO PUSH2 0x1C78 JUMPI RETURNDATASIZE PUSH1 0x0 DUP1 RETURNDATACOPY RETURNDATASIZE PUSH1 0x0 REVERT JUMPDEST POP POP POP POP PUSH1 0x40 MLOAD RETURNDATASIZE PUSH1 0x1F NOT PUSH1 0x1F DUP3 ADD AND DUP3 ADD DUP1 PUSH1 0x40 MSTORE POP DUP2 ADD SWAP1 PUSH2 0x1C9C SWAP2 SWAP1 PUSH2 0x4281 JUMP JUMPDEST SWAP1 POP PUSH1 0x0 DUP3 GT DUP1 ISZERO PUSH2 0x1CAE JUMPI POP PUSH1 0x0 DUP2 GT JUMPDEST PUSH2 0x1CFA JUMPI PUSH1 0x40 MLOAD PUSH3 0x461BCD PUSH1 0xE5 SHL DUP2 MSTORE PUSH1 0x20 PUSH1 0x4 DUP3 ADD MSTORE PUSH1 0x19 PUSH1 0x24 DUP3 ADD MSTORE PUSH32 0x4F504D3A20496E76616C6964204F7261636C6520507269636500000000000000 PUSH1 0x44 DUP3 ADD MSTORE PUSH1 0x64 ADD PUSH2 0x31E JUMP JUMPDEST DUP1 DUP7 PUSH1 0x1 PUSH1 0x1 PUSH1 0xA0 SHL SUB AND PUSH4 0x313CE567 PUSH1 0x40 MLOAD DUP2 PUSH4 0xFFFFFFFF AND PUSH1 0xE0 SHL DUP2 MSTORE PUSH1 0x4 ADD PUSH1 0x20 PUSH1 0x40 MLOAD DUP1 DUP4 SUB DUP2 DUP7 GAS STATICCALL ISZERO DUP1 ISZERO PUSH2 0x1D39 JUMPI RETURNDATASIZE PUSH1 0x0 DUP1 RETURNDATACOPY RETURNDATASIZE PUSH1 0x0 REVERT JUMPDEST POP POP POP POP PUSH1 0x40 MLOAD RETURNDATASIZE PUSH1 0x1F NOT PUSH1 0x1F DUP3 ADD AND DUP3 ADD DUP1 PUSH1 0x40 MSTORE POP DUP2 ADD SWAP1 PUSH2 0x1D5D SWAP2 SWAP1 PUSH2 0x4852 JUMP JUMPDEST PUSH2 0x1D68 SWAP1 PUSH1 0xA PUSH2 0x4830 JUMP JUMPDEST DUP6 PUSH1 0x1 PUSH1 0x1 PUSH1 0xA0 SHL SUB AND PUSH4 0x313CE567 PUSH1 0x40 MLOAD DUP2 PUSH4 0xFFFFFFFF AND PUSH1 0xE0 SHL DUP2 MSTORE PUSH1 0x4 ADD PUSH1 0x20 PUSH1 0x40 MLOAD DUP1 DUP4 SUB DUP2 DUP7 GAS STATICCALL ISZERO DUP1 ISZERO PUSH2 0x1DA6 JUMPI RETURNDATASIZE PUSH1 0x0 DUP1 RETURNDATACOPY RETURNDATASIZE PUSH1 0x0 REVERT JUMPDEST POP POP POP POP PUSH1 0x40 MLOAD RETURNDATASIZE PUSH1 0x1F NOT PUSH1 0x1F DUP3 ADD AND DUP3 ADD DUP1 PUSH1 0x40 MSTORE POP DUP2 ADD SWAP1 PUSH2 0x1DCA SWAP2 SWAP1 PUSH2 0x4852 JUMP JUMPDEST PUSH2 0x1DD5 SWAP1 PUSH1 0xA PUSH2 0x4830 JUMP JUMPDEST PUSH2 0x1DDF DUP6 DUP10 PUSH2 0x4713 JUMP JUMPDEST PUSH2 0x1DE9 SWAP2 SWAP1 PUSH2 0x4713 JUMP JUMPDEST PUSH2 0x1DF3 SWAP2 SWAP1 PUSH2 0x472A JUMP JUMPDEST PUSH2 0x1DFD SWAP2 SWAP1 PUSH2 0x472A JUMP JUMPDEST SWAP3 POP PUSH1 0x0 DUP4 GT PUSH2 0x1E4F JUMPI PUSH1 0x40 MLOAD PUSH3 0x461BCD PUSH1 0xE5 SHL DUP2 MSTORE PUSH1 0x20 PUSH1 0x4 DUP3 ADD MSTORE PUSH1 0x1A PUSH1 0x24 DUP3 ADD MSTORE PUSH32 0x4F504D3A2054617267657420416D6F756E7420546F6F204C6F77000000000000 PUSH1 0x44 DUP3 ADD MSTORE PUSH1 0x64 ADD PUSH2 0x31E JUMP JUMPDEST POP POP SWAP5 SWAP4 POP POP POP POP JUMP JUMPDEST PUSH1 0x40 MLOAD PUSH1 0x1 PUSH1 0x1 PUSH1 0xA0 SHL SUB DUP4 AND PUSH1 0x24 DUP3 ADD MSTORE PUSH1 0x44 DUP2 ADD DUP3 SWAP1 MSTORE PUSH2 0x1573 SWAP1 DUP5 SWAP1 PUSH4 0xA9059CBB PUSH1 0xE0 SHL SWAP1 PUSH1 0x64 ADD JUMPDEST PUSH1 0x40 DUP1 MLOAD PUSH1 0x1F NOT DUP2 DUP5 SUB ADD DUP2 MSTORE SWAP2 SWAP1 MSTORE PUSH1 0x20 DUP2 ADD DUP1 MLOAD PUSH1 0x1 PUSH1 0x1 PUSH1 0xE0 SHL SUB AND PUSH1 0x1 PUSH1 0x1 PUSH1 0xE0 SHL SUB NOT SWAP1 SWAP4 AND SWAP3 SWAP1 SWAP3 OR SWAP1 SWAP2 MSTORE PUSH2 0x2EAB JUMP JUMPDEST PUSH1 0x0 DUP1 DUP4 GT DUP1 ISZERO PUSH2 0x1F5C JUMPI POP PUSH1 0x40 MLOAD PUSH4 0xD06CA61F PUSH1 0xE0 SHL DUP2 MSTORE PUSH1 0x0 SWAP1 PUSH1 0x1 PUSH1 0x1 PUSH1 0xA0 SHL SUB DUP8 AND SWAP1 PUSH4 0xD06CA61F SWAP1 PUSH2 0x1EF9 SWAP1 DUP8 SWAP1 DUP8 SWAP1 PUSH1 0x4 ADD PUSH2 0x4525 JUMP JUMPDEST PUSH1 0x0 PUSH1 0x40 MLOAD DUP1 DUP4 SUB DUP2 PUSH1 0x0 DUP8 GAS CALL ISZERO DUP1 ISZERO PUSH2 0x1F18 JUMPI RETURNDATASIZE PUSH1 0x0 DUP1 RETURNDATACOPY RETURNDATASIZE PUSH1 0x0 REVERT JUMPDEST POP POP POP POP PUSH1 0x40 MLOAD RETURNDATASIZE PUSH1 0x0 DUP3 RETURNDATACOPY PUSH1 0x1F RETURNDATASIZE SWAP1 DUP2 ADD PUSH1 0x1F NOT AND DUP3 ADD PUSH1 0x40 MSTORE PUSH2 0x1F40 SWAP2 SWAP1 DUP2 ADD SWAP1 PUSH2 0x453E JUMP JUMPDEST PUSH1 0x1 DUP2 MLOAD DUP2 LT PUSH2 0x1F52 JUMPI PUSH2 0x1F52 PUSH2 0x42DB JUMP JUMPDEST PUSH1 0x20 MUL PUSH1 0x20 ADD ADD MLOAD GT JUMPDEST ISZERO PUSH2 0x464 JUMPI PUSH2 0x1F86 DUP3 PUSH1 0x0 DUP2 MLOAD DUP2 LT PUSH2 0x1F77 JUMPI PUSH2 0x1F77 PUSH2 0x42DB JUMP JUMPDEST PUSH1 0x20 MUL PUSH1 0x20 ADD ADD MLOAD DUP7 DUP6 PUSH2 0x14E4 JUMP JUMPDEST PUSH1 0x0 DUP6 PUSH1 0x1 PUSH1 0x1 PUSH1 0xA0 SHL SUB AND PUSH4 0x38ED1739 DUP6 PUSH1 0x64 PUSH2 0x1FDA DUP10 DUP9 PUSH1 0x0 DUP2 MLOAD DUP2 LT PUSH2 0x1FB1 JUMPI PUSH2 0x1FB1 PUSH2 0x42DB JUMP JUMPDEST PUSH1 0x20 MUL PUSH1 0x20 ADD ADD MLOAD DUP11 DUP11 PUSH1 0x1 DUP2 MLOAD DUP2 LT PUSH2 0x1FCD JUMPI PUSH2 0x1FCD PUSH2 0x42DB JUMP JUMPDEST PUSH1 0x20 MUL PUSH1 0x20 ADD ADD MLOAD PUSH2 0x1BBD JUMP JUMPDEST PUSH2 0x1FE5 SWAP1 PUSH1 0x63 PUSH2 0x4713 JUMP JUMPDEST PUSH2 0x1FEF SWAP2 SWAP1 PUSH2 0x472A JUMP JUMPDEST DUP7 ADDRESS TIMESTAMP PUSH1 0x40 MLOAD DUP7 PUSH4 0xFFFFFFFF AND PUSH1 0xE0 SHL DUP2 MSTORE PUSH1 0x4 ADD PUSH2 0x2012 SWAP6 SWAP5 SWAP4 SWAP3 SWAP2 SWAP1 PUSH2 0x45C3 JUMP JUMPDEST PUSH1 0x0 PUSH1 0x40 MLOAD DUP1 DUP4 SUB DUP2 PUSH1 0x0 DUP8 GAS CALL ISZERO DUP1 ISZERO PUSH2 0x2031 JUMPI RETURNDATASIZE PUSH1 0x0 DUP1 RETURNDATACOPY RETURNDATASIZE PUSH1 0x0 REVERT JUMPDEST POP POP POP POP PUSH1 0x40 MLOAD RETURNDATASIZE PUSH1 0x0 DUP3 RETURNDATACOPY PUSH1 0x1F RETURNDATASIZE SWAP1 DUP2 ADD PUSH1 0x1F NOT AND DUP3 ADD PUSH1 0x40 MSTORE PUSH2 0x2059 SWAP2 SWAP1 DUP2 ADD SWAP1 PUSH2 0x453E JUMP JUMPDEST SWAP1 POP DUP1 PUSH1 0x1 DUP2 MLOAD DUP2 LT PUSH2 0x206E JUMPI PUSH2 0x206E PUSH2 0x42DB JUMP JUMPDEST PUSH1 0x20 MUL PUSH1 0x20 ADD ADD MLOAD SWAP2 POP POP SWAP5 SWAP4 POP POP POP POP JUMP JUMPDEST PUSH1 0x0 DUP1 PUSH1 0x0 PUSH2 0x208F DUP11 PUSH2 0x121B JUMP JUMPDEST SWAP5 POP SWAP5 POP POP POP SWAP3 POP CALLER PUSH1 0x1 PUSH1 0x1 PUSH1 0xA0 SHL SUB AND DUP4 PUSH1 0x1 PUSH1 0x1 PUSH1 0xA0 SHL SUB AND EQ PUSH2 0x20EE JUMPI PUSH1 0x40 MLOAD PUSH3 0x461BCD PUSH1 0xE5 SHL DUP2 MSTORE PUSH1 0x20 PUSH1 0x4 DUP3 ADD MSTORE PUSH1 0x13 PUSH1 0x24 DUP3 ADD MSTORE PUSH19 0x13D4134E8810D85B1B08155B985B1B1BDDD959 PUSH1 0x6A SHL PUSH1 0x44 DUP3 ADD MSTORE PUSH1 0x64 ADD PUSH2 0x31E JUMP JUMPDEST PUSH1 0x0 JUMPDEST PUSH1 0xFF DUP2 AND DUP10 GT ISZERO PUSH2 0x2189 JUMPI PUSH1 0x0 DUP11 DUP11 DUP4 PUSH1 0xFF AND DUP2 DUP2 LT PUSH2 0x2113 JUMPI PUSH2 0x2113 PUSH2 0x42DB JUMP JUMPDEST SWAP1 POP PUSH1 0x20 MUL ADD PUSH1 0x20 DUP2 ADD SWAP1 PUSH2 0x2128 SWAP2 SWAP1 PUSH2 0x3DC3 JUMP JUMPDEST SWAP1 POP PUSH1 0x0 DUP10 DUP10 DUP5 PUSH1 0xFF AND DUP2 DUP2 LT PUSH2 0x2141 JUMPI PUSH2 0x2141 PUSH2 0x42DB JUMP JUMPDEST SWAP1 POP PUSH1 0x20 MUL ADD CALLDATALOAD SWAP1 POP PUSH2 0x2173 DUP14 DUP4 DUP4 DUP11 DUP8 PUSH1 0xFF AND DUP2 MLOAD DUP2 LT PUSH2 0x2165 JUMPI PUSH2 0x2165 PUSH2 0x42DB JUMP JUMPDEST PUSH1 0x20 MUL PUSH1 0x20 ADD ADD MLOAD DUP13 PUSH2 0x2F7D JUMP JUMPDEST POP POP POP DUP1 DUP1 PUSH2 0x2181 SWAP1 PUSH2 0x486F JUMP JUMPDEST SWAP2 POP POP PUSH2 0x20F1 JUMP JUMPDEST POP PUSH2 0x2195 DUP4 DUP7 DUP5 PUSH2 0x1578 JUMP JUMPDEST PUSH2 0xDA2 DUP4 DUP7 DUP4 PUSH2 0x1578 JUMP JUMPDEST PUSH1 0x0 DUP1 PUSH1 0x0 PUSH2 0x21AE DUP11 PUSH2 0x121B JUMP JUMPDEST SWAP5 POP SWAP5 POP POP POP SWAP3 POP CALLER PUSH1 0x1 PUSH1 0x1 PUSH1 0xA0 SHL SUB AND DUP4 PUSH1 0x1 PUSH1 0x1 PUSH1 0xA0 SHL SUB AND EQ PUSH2 0x220D JUMPI PUSH1 0x40 MLOAD PUSH3 0x461BCD PUSH1 0xE5 SHL DUP2 MSTORE PUSH1 0x20 PUSH1 0x4 DUP3 ADD MSTORE PUSH1 0x13 PUSH1 0x24 DUP3 ADD MSTORE PUSH19 0x13D4134E8810D85B1B08155B985B1B1BDDD959 PUSH1 0x6A SHL PUSH1 0x44 DUP3 ADD MSTORE PUSH1 0x64 ADD PUSH2 0x31E JUMP JUMPDEST PUSH1 0x40 DUP1 MLOAD DUP1 DUP3 ADD SWAP2 DUP3 SWAP1 MSTORE PUSH4 0x70A08231 PUSH1 0xE0 SHL SWAP1 SWAP2 MSTORE ADDRESS PUSH1 0x44 DUP3 ADD MSTORE PUSH1 0x0 SWAP1 DUP1 PUSH1 0x1 PUSH1 0x1 PUSH1 0xA0 SHL SUB DUP6 AND PUSH4 0x70A08231 PUSH1 0x64 DUP4 ADD PUSH1 0x20 PUSH1 0x40 MLOAD DUP1 DUP4 SUB DUP2 DUP7 GAS STATICCALL ISZERO DUP1 ISZERO PUSH2 0x225D JUMPI RETURNDATASIZE PUSH1 0x0 DUP1 RETURNDATACOPY RETURNDATASIZE PUSH1 0x0 REVERT JUMPDEST POP POP POP POP PUSH1 0x40 MLOAD RETURNDATASIZE PUSH1 0x1F NOT PUSH1 0x1F DUP3 ADD AND DUP3 ADD DUP1 PUSH1 0x40 MSTORE POP DUP2 ADD SWAP1 PUSH2 0x2281 SWAP2 SWAP1 PUSH2 0x4281 JUMP JUMPDEST DUP2 MSTORE PUSH1 0x40 MLOAD PUSH4 0x70A08231 PUSH1 0xE0 SHL DUP2 MSTORE ADDRESS PUSH1 0x4 DUP3 ADD MSTORE PUSH1 0x20 SWAP1 SWAP2 ADD SWAP1 PUSH1 0x1 PUSH1 0x1 PUSH1 0xA0 SHL SUB DUP6 AND SWAP1 PUSH4 0x70A08231 SWAP1 PUSH1 0x24 ADD PUSH1 0x20 PUSH1 0x40 MLOAD DUP1 DUP4 SUB DUP2 DUP7 GAS STATICCALL ISZERO DUP1 ISZERO PUSH2 0x22CD JUMPI RETURNDATASIZE PUSH1 0x0 DUP1 RETURNDATACOPY RETURNDATASIZE PUSH1 0x0 REVERT JUMPDEST POP POP POP POP PUSH1 0x40 MLOAD RETURNDATASIZE PUSH1 0x1F NOT PUSH1 0x1F DUP3 ADD AND DUP3 ADD DUP1 PUSH1 0x40 MSTORE POP DUP2 ADD SWAP1 PUSH2 0x22F1 SWAP2 SWAP1 PUSH2 0x4281 JUMP JUMPDEST SWAP1 MSTORE SWAP1 POP PUSH1 0x0 JUMPDEST PUSH1 0xFF DUP2 AND DUP11 GT ISZERO PUSH2 0x254E JUMPI PUSH1 0x0 DUP12 DUP12 DUP4 PUSH1 0xFF AND DUP2 DUP2 LT PUSH2 0x231A JUMPI PUSH2 0x231A PUSH2 0x42DB JUMP JUMPDEST SWAP1 POP PUSH1 0x20 MUL ADD PUSH1 0x20 DUP2 ADD SWAP1 PUSH2 0x232F SWAP2 SWAP1 PUSH2 0x3DC3 JUMP JUMPDEST SWAP1 POP PUSH1 0x0 DUP11 DUP11 DUP5 PUSH1 0xFF AND DUP2 DUP2 LT PUSH2 0x2348 JUMPI PUSH2 0x2348 PUSH2 0x42DB JUMP JUMPDEST SWAP1 POP PUSH1 0x20 MUL ADD CALLDATALOAD SWAP1 POP PUSH2 0x235C DUP3 DUP9 DUP4 PUSH2 0x14E4 JUMP JUMPDEST PUSH1 0x40 MLOAD PUSH3 0xA718A9 PUSH1 0xE0 SHL DUP2 MSTORE PUSH1 0x1 PUSH1 0x1 PUSH1 0xA0 SHL SUB DUP10 DUP2 AND PUSH1 0x4 DUP4 ADD MSTORE DUP4 DUP2 AND PUSH1 0x24 DUP4 ADD MSTORE DUP11 DUP2 AND PUSH1 0x44 DUP4 ADD MSTORE PUSH1 0x64 DUP3 ADD DUP4 SWAP1 MSTORE PUSH1 0x0 PUSH1 0x84 DUP4 ADD MSTORE DUP9 AND SWAP1 PUSH3 0xA718A9 SWAP1 PUSH1 0xA4 ADD PUSH1 0x0 PUSH1 0x40 MLOAD DUP1 DUP4 SUB DUP2 PUSH1 0x0 DUP8 DUP1 EXTCODESIZE ISZERO DUP1 ISZERO PUSH2 0x23BB JUMPI PUSH1 0x0 DUP1 REVERT JUMPDEST POP GAS CALL ISZERO DUP1 ISZERO PUSH2 0x23CF JUMPI RETURNDATASIZE PUSH1 0x0 DUP1 RETURNDATACOPY RETURNDATASIZE PUSH1 0x0 REVERT JUMPDEST POP POP POP POP PUSH1 0x0 PUSH2 0x23E2 DUP16 ADDRESS DUP6 DUP6 DUP14 PUSH2 0x255C JUMP JUMPDEST PUSH1 0x40 MLOAD PUSH4 0x70A08231 PUSH1 0xE0 SHL DUP2 MSTORE ADDRESS PUSH1 0x4 DUP3 ADD MSTORE SWAP1 SWAP2 POP PUSH1 0x0 SWAP1 PUSH1 0x1 PUSH1 0x1 PUSH1 0xA0 SHL SUB DUP10 AND SWAP1 PUSH4 0x70A08231 SWAP1 PUSH1 0x24 ADD PUSH1 0x20 PUSH1 0x40 MLOAD DUP1 DUP4 SUB DUP2 DUP7 GAS STATICCALL ISZERO DUP1 ISZERO PUSH2 0x242C JUMPI RETURNDATASIZE PUSH1 0x0 DUP1 RETURNDATACOPY RETURNDATASIZE PUSH1 0x0 REVERT JUMPDEST POP POP POP POP PUSH1 0x40 MLOAD RETURNDATASIZE PUSH1 0x1F NOT PUSH1 0x1F DUP3 ADD AND DUP3 ADD DUP1 PUSH1 0x40 MSTORE POP DUP2 ADD SWAP1 PUSH2 0x2450 SWAP2 SWAP1 PUSH2 0x4281 JUMP JUMPDEST PUSH1 0x40 MLOAD PUSH4 0x70A08231 PUSH1 0xE0 SHL DUP2 MSTORE ADDRESS PUSH1 0x4 DUP3 ADD MSTORE SWAP1 SWAP2 POP PUSH1 0x0 SWAP1 PUSH1 0x1 PUSH1 0x1 PUSH1 0xA0 SHL SUB DUP10 AND SWAP1 PUSH4 0x70A08231 SWAP1 PUSH1 0x24 ADD PUSH1 0x20 PUSH1 0x40 MLOAD DUP1 DUP4 SUB DUP2 DUP7 GAS STATICCALL ISZERO DUP1 ISZERO PUSH2 0x249A JUMPI RETURNDATASIZE PUSH1 0x0 DUP1 RETURNDATACOPY RETURNDATASIZE PUSH1 0x0 REVERT JUMPDEST POP POP POP POP PUSH1 0x40 MLOAD RETURNDATASIZE PUSH1 0x1F NOT PUSH1 0x1F DUP3 ADD AND DUP3 ADD DUP1 PUSH1 0x40 MSTORE POP DUP2 ADD SWAP1 PUSH2 0x24BE SWAP2 SWAP1 PUSH2 0x4281 JUMP JUMPDEST SWAP1 POP PUSH1 0x1 PUSH1 0x1 PUSH1 0xA0 SHL SUB DUP1 DUP7 AND SWAP1 DUP14 AND PUSH32 0x11473F8E98477C5F8D293225476DF74EF051ED687455EF4C509117EBD0040437 DUP6 DUP11 PUSH1 0x0 PUSH1 0x20 MUL ADD MLOAD PUSH2 0x2502 SWAP1 DUP8 PUSH2 0x46C0 JUMP JUMPDEST PUSH1 0x20 DUP13 ADD MLOAD PUSH2 0x2511 SWAP1 DUP8 PUSH2 0x46C0 JUMP JUMPDEST PUSH1 0x40 DUP1 MLOAD SWAP4 DUP5 MSTORE PUSH1 0x20 DUP5 ADD SWAP3 SWAP1 SWAP3 MSTORE SWAP1 DUP3 ADD MSTORE PUSH1 0x60 ADD PUSH1 0x40 MLOAD DUP1 SWAP2 SUB SWAP1 LOG3 SWAP1 DUP7 MSTORE PUSH1 0x20 DUP7 ADD MSTORE POP DUP3 SWAP2 POP PUSH2 0x2546 SWAP1 POP DUP2 PUSH2 0x486F JUMP JUMPDEST SWAP2 POP POP PUSH2 0x22F8 JUMP JUMPDEST POP POP POP POP POP POP POP POP POP POP POP POP JUMP JUMPDEST PUSH1 0x0 DUP1 PUSH1 0x0 DUP1 PUSH1 0x0 PUSH2 0x256D DUP11 PUSH2 0x121B JUMP JUMPDEST SWAP5 POP SWAP5 POP SWAP5 POP POP SWAP4 POP PUSH2 0x2581 DUP9 DUP4 DUP4 PUSH2 0x3220 JUMP JUMPDEST DUP2 PUSH1 0x1 PUSH1 0x1 PUSH1 0xA0 SHL SUB AND DUP7 PUSH1 0x1 PUSH1 0x1 PUSH1 0xA0 SHL SUB AND EQ DUP1 PUSH2 0x25B2 JUMPI POP DUP1 PUSH1 0x1 PUSH1 0x1 PUSH1 0xA0 SHL SUB AND DUP7 PUSH1 0x1 PUSH1 0x1 PUSH1 0xA0 SHL SUB AND EQ JUMPDEST PUSH2 0x25FE JUMPI PUSH1 0x40 MLOAD PUSH3 0x461BCD PUSH1 0xE5 SHL DUP2 MSTORE PUSH1 0x20 PUSH1 0x4 DUP3 ADD MSTORE PUSH1 0x1D PUSH1 0x24 DUP3 ADD MSTORE PUSH32 0x4F504D3A20496E76616C696420436F6C6C61746572616C204173736574000000 PUSH1 0x44 DUP3 ADD MSTORE PUSH1 0x64 ADD PUSH2 0x31E JUMP JUMPDEST PUSH1 0x0 DUP1 PUSH2 0x260C DUP11 DUP6 DUP6 PUSH2 0x336A JUMP JUMPDEST PUSH2 0x2616 SWAP1 DUP11 PUSH2 0x483F JUMP JUMPDEST SWAP7 POP DUP10 PUSH1 0x1 PUSH1 0x1 PUSH1 0xA0 SHL SUB AND PUSH4 0x99D32FC4 PUSH1 0x40 MLOAD DUP2 PUSH4 0xFFFFFFFF AND PUSH1 0xE0 SHL DUP2 MSTORE PUSH1 0x4 ADD PUSH1 0x0 PUSH1 0x40 MLOAD DUP1 DUP4 SUB DUP2 PUSH1 0x0 DUP8 DUP1 EXTCODESIZE ISZERO DUP1 ISZERO PUSH2 0x2653 JUMPI PUSH1 0x0 DUP1 REVERT JUMPDEST POP GAS CALL ISZERO DUP1 ISZERO PUSH2 0x2667 JUMPI RETURNDATASIZE PUSH1 0x0 DUP1 RETURNDATACOPY RETURNDATASIZE PUSH1 0x0 REVERT JUMPDEST POP POP PUSH1 0x40 MLOAD PUSH4 0x1DA70373 PUSH1 0xE1 SHL DUP2 MSTORE PUSH1 0x4 DUP2 ADD DUP11 SWAP1 MSTORE PUSH1 0x0 SWAP3 POP DUP3 SWAP2 POP PUSH1 0x1 PUSH1 0x1 PUSH1 0xA0 SHL SUB DUP14 AND SWAP1 PUSH4 0x3B4E06E6 SWAP1 PUSH1 0x24 ADD PUSH1 0x40 DUP1 MLOAD DUP1 DUP4 SUB DUP2 DUP7 GAS STATICCALL ISZERO DUP1 ISZERO PUSH2 0x26B4 JUMPI RETURNDATASIZE PUSH1 0x0 DUP1 RETURNDATACOPY RETURNDATASIZE PUSH1 0x0 REVERT JUMPDEST POP POP POP POP PUSH1 0x40 MLOAD RETURNDATASIZE PUSH1 0x1F NOT PUSH1 0x1F DUP3 ADD AND DUP3 ADD DUP1 PUSH1 0x40 MSTORE POP DUP2 ADD SWAP1 PUSH2 0x26D8 SWAP2 SWAP1 PUSH2 0x429A JUMP JUMPDEST SWAP2 POP SWAP2 POP PUSH2 0x26E8 DUP13 DUP11 DUP5 DUP5 PUSH2 0x184B JUMP JUMPDEST PUSH2 0x26F3 DUP7 DUP14 DUP5 PUSH2 0x14E4 JUMP JUMPDEST PUSH2 0x26FE DUP6 DUP14 DUP4 PUSH2 0x14E4 JUMP JUMPDEST PUSH1 0x1 PUSH1 0x1 PUSH1 0xA0 SHL SUB DUP14 AND ADDRESS EQ PUSH2 0x293E JUMPI PUSH1 0x40 MLOAD PUSH4 0x35EA6A75 PUSH1 0xE0 SHL DUP2 MSTORE PUSH1 0x1 PUSH1 0x1 PUSH1 0xA0 SHL SUB DUP8 DUP2 AND PUSH1 0x4 DUP4 ADD MSTORE DUP10 AND SWAP1 PUSH4 0x35EA6A75 SWAP1 PUSH1 0x24 ADD PUSH2 0x180 PUSH1 0x40 MLOAD DUP1 DUP4 SUB DUP2 DUP7 GAS STATICCALL ISZERO DUP1 ISZERO PUSH2 0x2755 JUMPI RETURNDATASIZE PUSH1 0x0 DUP1 RETURNDATACOPY RETURNDATASIZE PUSH1 0x0 REVERT JUMPDEST POP POP POP POP PUSH1 0x40 MLOAD RETURNDATASIZE PUSH1 0x1F NOT PUSH1 0x1F DUP3 ADD AND DUP3 ADD DUP1 PUSH1 0x40 MSTORE POP DUP2 ADD SWAP1 PUSH2 0x2779 SWAP2 SWAP1 PUSH2 0x4194 JUMP JUMPDEST PUSH1 0xE0 ADD MLOAD PUSH1 0x40 MLOAD PUSH4 0x70A08231 PUSH1 0xE0 SHL DUP2 MSTORE PUSH1 0x1 PUSH1 0x1 PUSH1 0xA0 SHL SUB DUP16 DUP2 AND PUSH1 0x4 DUP4 ADD MSTORE SWAP1 SWAP2 AND SWAP1 PUSH4 0x70A08231 SWAP1 PUSH1 0x24 ADD PUSH1 0x20 PUSH1 0x40 MLOAD DUP1 DUP4 SUB DUP2 DUP7 GAS STATICCALL ISZERO DUP1 ISZERO PUSH2 0x27C4 JUMPI RETURNDATASIZE PUSH1 0x0 DUP1 RETURNDATACOPY RETURNDATASIZE PUSH1 0x0 REVERT JUMPDEST POP POP POP POP PUSH1 0x40 MLOAD RETURNDATASIZE PUSH1 0x1F NOT PUSH1 0x1F DUP3 ADD AND DUP3 ADD DUP1 PUSH1 0x40 MSTORE POP DUP2 ADD SWAP1 PUSH2 0x27E8 SWAP2 SWAP1 PUSH2 0x4281 JUMP JUMPDEST PUSH1 0x40 MLOAD PUSH4 0x35EA6A75 PUSH1 0xE0 SHL DUP2 MSTORE PUSH1 0x1 PUSH1 0x1 PUSH1 0xA0 SHL SUB DUP8 DUP2 AND PUSH1 0x4 DUP4 ADD MSTORE SWAP2 SWAP6 POP SWAP1 DUP10 AND SWAP1 PUSH4 0x35EA6A75 SWAP1 PUSH1 0x24 ADD PUSH2 0x180 PUSH1 0x40 MLOAD DUP1 DUP4 SUB DUP2 DUP7 GAS STATICCALL ISZERO DUP1 ISZERO PUSH2 0x2833 JUMPI RETURNDATASIZE PUSH1 0x0 DUP1 RETURNDATACOPY RETURNDATASIZE PUSH1 0x0 REVERT JUMPDEST POP POP POP POP PUSH1 0x40 MLOAD RETURNDATASIZE PUSH1 0x1F NOT PUSH1 0x1F DUP3 ADD AND DUP3 ADD DUP1 PUSH1 0x40 MSTORE POP DUP2 ADD SWAP1 PUSH2 0x2857 SWAP2 SWAP1 PUSH2 0x4194 JUMP JUMPDEST PUSH1 0xE0 ADD MLOAD PUSH1 0x40 MLOAD PUSH4 0x70A08231 PUSH1 0xE0 SHL DUP2 MSTORE PUSH1 0x1 PUSH1 0x1 PUSH1 0xA0 SHL SUB DUP16 DUP2 AND PUSH1 0x4 DUP4 ADD MSTORE SWAP1 SWAP2 AND SWAP1 PUSH4 0x70A08231 SWAP1 PUSH1 0x24 ADD PUSH1 0x20 PUSH1 0x40 MLOAD DUP1 DUP4 SUB DUP2 DUP7 GAS STATICCALL ISZERO DUP1 ISZERO PUSH2 0x28A2 JUMPI RETURNDATASIZE PUSH1 0x0 DUP1 RETURNDATACOPY RETURNDATASIZE PUSH1 0x0 REVERT JUMPDEST POP POP POP POP PUSH1 0x40 MLOAD RETURNDATASIZE PUSH1 0x1F NOT PUSH1 0x1F DUP3 ADD AND DUP3 ADD DUP1 PUSH1 0x40 MSTORE POP DUP2 ADD SWAP1 PUSH2 0x28C6 SWAP2 SWAP1 PUSH2 0x4281 JUMP JUMPDEST SWAP3 POP PUSH2 0x28D4 DUP9 DUP15 DUP9 DUP8 PUSH2 0x137F JUMP JUMPDEST PUSH2 0x28E0 DUP9 DUP15 DUP8 DUP7 PUSH2 0x137F JUMP JUMPDEST PUSH1 0x1 PUSH1 0x1 PUSH1 0xA0 SHL SUB DUP14 AND CALLER EQ PUSH2 0x2939 JUMPI PUSH1 0x0 PUSH2 0x28FE DUP16 DUP5 DUP5 DUP15 PUSH2 0x35F5 JUMP JUMPDEST SWAP1 POP DUP7 PUSH1 0x1 PUSH1 0x1 PUSH1 0xA0 SHL SUB AND DUP12 PUSH1 0x1 PUSH1 0x1 PUSH1 0xA0 SHL SUB AND SUB PUSH2 0x292A JUMPI PUSH2 0x2923 DUP2 DUP7 PUSH2 0x46C0 JUMP JUMPDEST SWAP5 POP PUSH2 0x2937 JUMP JUMPDEST PUSH2 0x2934 DUP2 DUP6 PUSH2 0x46C0 JUMP JUMPDEST SWAP4 POP JUMPDEST POP JUMPDEST PUSH2 0x2A19 JUMP JUMPDEST PUSH1 0x40 MLOAD PUSH4 0x70A08231 PUSH1 0xE0 SHL DUP2 MSTORE PUSH1 0x1 PUSH1 0x1 PUSH1 0xA0 SHL SUB DUP15 DUP2 AND PUSH1 0x4 DUP4 ADD MSTORE DUP8 AND SWAP1 PUSH4 0x70A08231 SWAP1 PUSH1 0x24 ADD PUSH1 0x20 PUSH1 0x40 MLOAD DUP1 DUP4 SUB DUP2 DUP7 GAS STATICCALL ISZERO DUP1 ISZERO PUSH2 0x2984 JUMPI RETURNDATASIZE PUSH1 0x0 DUP1 RETURNDATACOPY RETURNDATASIZE PUSH1 0x0 REVERT JUMPDEST POP POP POP POP PUSH1 0x40 MLOAD RETURNDATASIZE PUSH1 0x1F NOT PUSH1 0x1F DUP3 ADD AND DUP3 ADD DUP1 PUSH1 0x40 MSTORE POP DUP2 ADD SWAP1 PUSH2 0x29A8 SWAP2 SWAP1 PUSH2 0x4281 JUMP JUMPDEST PUSH1 0x40 MLOAD PUSH4 0x70A08231 PUSH1 0xE0 SHL DUP2 MSTORE PUSH1 0x1 PUSH1 0x1 PUSH1 0xA0 SHL SUB DUP16 DUP2 AND PUSH1 0x4 DUP4 ADD MSTORE SWAP2 SWAP6 POP SWAP1 DUP7 AND SWAP1 PUSH4 0x70A08231 SWAP1 PUSH1 0x24 ADD PUSH1 0x20 PUSH1 0x40 MLOAD DUP1 DUP4 SUB DUP2 DUP7 GAS STATICCALL ISZERO DUP1 ISZERO PUSH2 0x29F2 JUMPI RETURNDATASIZE PUSH1 0x0 DUP1 RETURNDATACOPY RETURNDATASIZE PUSH1 0x0 REVERT JUMPDEST POP POP POP POP PUSH1 0x40 MLOAD RETURNDATASIZE PUSH1 0x1F NOT PUSH1 0x1F DUP3 ADD AND DUP3 ADD DUP1 PUSH1 0x40 MSTORE POP DUP2 ADD SWAP1 PUSH2 0x2A16 SWAP2 SWAP1 PUSH2 0x4281 JUMP JUMPDEST SWAP3 POP JUMPDEST PUSH1 0x40 DUP1 MLOAD PUSH1 0x2 DUP1 DUP3 MSTORE PUSH1 0x60 DUP3 ADD DUP4 MSTORE PUSH1 0x0 SWAP3 PUSH1 0x20 DUP4 ADD SWAP1 DUP1 CALLDATASIZE DUP4 CALLDATACOPY ADD SWAP1 POP POP SWAP1 POP DUP3 DUP6 LT ISZERO PUSH2 0x2ABC JUMPI DUP6 DUP2 PUSH1 0x0 DUP2 MLOAD DUP2 LT PUSH2 0x2A56 JUMPI PUSH2 0x2A56 PUSH2 0x42DB JUMP JUMPDEST PUSH1 0x20 MUL PUSH1 0x20 ADD ADD SWAP1 PUSH1 0x1 PUSH1 0x1 PUSH1 0xA0 SHL SUB AND SWAP1 DUP2 PUSH1 0x1 PUSH1 0x1 PUSH1 0xA0 SHL SUB AND DUP2 MSTORE POP POP DUP7 DUP2 PUSH1 0x1 DUP2 MLOAD DUP2 LT PUSH2 0x2A8A JUMPI PUSH2 0x2A8A PUSH2 0x42DB JUMP JUMPDEST PUSH1 0x1 PUSH1 0x1 PUSH1 0xA0 SHL SUB SWAP1 SWAP3 AND PUSH1 0x20 SWAP3 DUP4 MUL SWAP2 SWAP1 SWAP2 ADD SWAP1 SWAP2 ADD MSTORE PUSH2 0x2AB7 DUP9 PUSH2 0x2AB0 DUP8 DUP7 PUSH2 0x46C0 JUMP JUMPDEST DUP7 DUP5 PUSH2 0xF79 JUMP JUMPDEST PUSH2 0x2B39 JUMP JUMPDEST DUP2 DUP5 LT ISZERO PUSH2 0x2B39 JUMPI DUP7 DUP2 PUSH1 0x0 DUP2 MLOAD DUP2 LT PUSH2 0x2AD8 JUMPI PUSH2 0x2AD8 PUSH2 0x42DB JUMP JUMPDEST PUSH1 0x20 MUL PUSH1 0x20 ADD ADD SWAP1 PUSH1 0x1 PUSH1 0x1 PUSH1 0xA0 SHL SUB AND SWAP1 DUP2 PUSH1 0x1 PUSH1 0x1 PUSH1 0xA0 SHL SUB AND DUP2 MSTORE POP POP DUP6 DUP2 PUSH1 0x1 DUP2 MLOAD DUP2 LT PUSH2 0x2B0C JUMPI PUSH2 0x2B0C PUSH2 0x42DB JUMP JUMPDEST PUSH1 0x1 PUSH1 0x1 PUSH1 0xA0 SHL SUB SWAP1 SWAP3 AND PUSH1 0x20 SWAP3 DUP4 MUL SWAP2 SWAP1 SWAP2 ADD SWAP1 SWAP2 ADD MSTORE PUSH2 0x2B39 DUP9 PUSH2 0x2B32 DUP7 DUP6 PUSH2 0x46C0 JUMP JUMPDEST DUP8 DUP5 PUSH2 0xF79 JUMP JUMPDEST PUSH1 0x40 MLOAD PUSH4 0x1C57762B PUSH1 0xE3 SHL DUP2 MSTORE PUSH1 0x4 DUP2 ADD DUP5 SWAP1 MSTORE PUSH1 0x24 DUP2 ADD DUP4 SWAP1 MSTORE PUSH1 0x1 PUSH1 0x1 PUSH1 0xA0 SHL SUB DUP15 AND SWAP1 PUSH4 0xE2BBB158 SWAP1 PUSH1 0x44 ADD PUSH1 0x20 PUSH1 0x40 MLOAD DUP1 DUP4 SUB DUP2 PUSH1 0x0 DUP8 GAS CALL ISZERO DUP1 ISZERO PUSH2 0x2B87 JUMPI RETURNDATASIZE PUSH1 0x0 DUP1 RETURNDATACOPY RETURNDATASIZE PUSH1 0x0 REVERT JUMPDEST POP POP POP POP PUSH1 0x40 MLOAD RETURNDATASIZE PUSH1 0x1F NOT PUSH1 0x1F DUP3 ADD AND DUP3 ADD DUP1 PUSH1 0x40 MSTORE POP DUP2 ADD SWAP1 PUSH2 0x2BAB SWAP2 SWAP1 PUSH2 0x4281 JUMP JUMPDEST SWAP10 POP POP POP POP PUSH2 0x2BBB DUP11 DUP8 DUP10 PUSH2 0x14E4 JUMP JUMPDEST PUSH1 0x1 PUSH1 0x1 PUSH1 0xA0 SHL SUB DUP12 AND ADDRESS EQ PUSH2 0x2C43 JUMPI DUP6 PUSH1 0x1 PUSH1 0x1 PUSH1 0xA0 SHL SUB AND PUSH4 0x573ADE81 DUP12 DUP10 PUSH1 0x2 DUP16 PUSH1 0x40 MLOAD DUP6 PUSH4 0xFFFFFFFF AND PUSH1 0xE0 SHL DUP2 MSTORE PUSH1 0x4 ADD PUSH2 0x2BFE SWAP5 SWAP4 SWAP3 SWAP2 SWAP1 PUSH2 0x467F JUMP JUMPDEST PUSH1 0x20 PUSH1 0x40 MLOAD DUP1 DUP4 SUB DUP2 PUSH1 0x0 DUP8 GAS CALL ISZERO DUP1 ISZERO PUSH2 0x2C1D JUMPI RETURNDATASIZE PUSH1 0x0 DUP1 RETURNDATACOPY RETURNDATASIZE PUSH1 0x0 REVERT JUMPDEST POP POP POP POP PUSH1 0x40 MLOAD RETURNDATASIZE PUSH1 0x1F NOT PUSH1 0x1F DUP3 ADD AND DUP3 ADD DUP1 PUSH1 0x40 MSTORE POP DUP2 ADD SWAP1 PUSH2 0x2C41 SWAP2 SWAP1 PUSH2 0x4281 JUMP JUMPDEST POP JUMPDEST PUSH1 0x40 MLOAD PUSH4 0x70A08231 PUSH1 0xE0 SHL DUP2 MSTORE ADDRESS PUSH1 0x4 DUP3 ADD MSTORE PUSH1 0x0 SWAP1 PUSH1 0x1 PUSH1 0x1 PUSH1 0xA0 SHL SUB DUP7 AND SWAP1 PUSH4 0x70A08231 SWAP1 PUSH1 0x24 ADD PUSH1 0x20 PUSH1 0x40 MLOAD DUP1 DUP4 SUB DUP2 DUP7 GAS STATICCALL ISZERO DUP1 ISZERO PUSH2 0x2C8A JUMPI RETURNDATASIZE PUSH1 0x0 DUP1 RETURNDATACOPY RETURNDATASIZE PUSH1 0x0 REVERT JUMPDEST POP POP POP POP PUSH1 0x40 MLOAD RETURNDATASIZE PUSH1 0x1F NOT PUSH1 0x1F DUP3 ADD AND DUP3 ADD DUP1 PUSH1 0x40 MSTORE POP DUP2 ADD SWAP1 PUSH2 0x2CAE SWAP2 SWAP1 PUSH2 0x4281 JUMP JUMPDEST PUSH1 0x40 MLOAD PUSH4 0x70A08231 PUSH1 0xE0 SHL DUP2 MSTORE ADDRESS PUSH1 0x4 DUP3 ADD MSTORE SWAP1 SWAP2 POP PUSH1 0x0 SWAP1 PUSH1 0x1 PUSH1 0x1 PUSH1 0xA0 SHL SUB DUP7 AND SWAP1 PUSH4 0x70A08231 SWAP1 PUSH1 0x24 ADD PUSH1 0x20 PUSH1 0x40 MLOAD DUP1 DUP4 SUB DUP2 DUP7 GAS STATICCALL ISZERO DUP1 ISZERO PUSH2 0x2CF8 JUMPI RETURNDATASIZE PUSH1 0x0 DUP1 RETURNDATACOPY RETURNDATASIZE PUSH1 0x0 REVERT JUMPDEST POP POP POP POP PUSH1 0x40 MLOAD RETURNDATASIZE PUSH1 0x1F NOT PUSH1 0x1F DUP3 ADD AND DUP3 ADD DUP1 PUSH1 0x40 MSTORE POP DUP2 ADD SWAP1 PUSH2 0x2D1C SWAP2 SWAP1 PUSH2 0x4281 JUMP JUMPDEST SWAP1 POP DUP2 DUP5 GT ISZERO PUSH2 0x2D37 JUMPI PUSH2 0x2D30 DUP3 DUP6 PUSH2 0x46C0 JUMP JUMPDEST SWAP2 POP PUSH2 0x2D3C JUMP JUMPDEST PUSH1 0x0 SWAP2 POP JUMPDEST DUP1 DUP4 GT ISZERO PUSH2 0x2D55 JUMPI PUSH2 0x2D4E DUP2 DUP5 PUSH2 0x46C0 JUMP JUMPDEST SWAP1 POP PUSH2 0x2D59 JUMP JUMPDEST POP PUSH1 0x0 JUMPDEST PUSH1 0x40 DUP1 MLOAD DUP11 DUP2 MSTORE PUSH1 0x20 DUP2 ADD DUP5 SWAP1 MSTORE SWAP1 DUP2 ADD DUP3 SWAP1 MSTORE PUSH1 0x1 PUSH1 0x1 PUSH1 0xA0 SHL SUB DUP1 DUP15 AND SWAP2 SWAP1 DUP16 AND SWAP1 PUSH32 0x13A9B207A6235519F908E828190FA2F938B5E52C7888B90B98B87125CAEBDE6E SWAP1 PUSH1 0x60 ADD PUSH1 0x40 MLOAD DUP1 SWAP2 SUB SWAP1 LOG3 POP POP CALLER PUSH1 0x1 PUSH1 0x1 PUSH1 0xA0 SHL SUB DUP13 AND SUB PUSH2 0x2DEA JUMPI PUSH2 0x2DE8 DUP13 DUP6 PUSH1 0x1 PUSH1 0x1 PUSH1 0xA0 SHL SUB AND DUP11 PUSH1 0x1 PUSH1 0x1 PUSH1 0xA0 SHL SUB AND EQ PUSH2 0x2DDF JUMPI DUP6 PUSH2 0x2DE1 JUMP JUMPDEST DUP5 JUMPDEST PUSH1 0x0 PUSH2 0x6F2 JUMP JUMPDEST POP JUMPDEST POP POP POP POP POP POP SWAP6 SWAP5 POP POP POP POP POP JUMP JUMPDEST PUSH1 0x40 MLOAD PUSH4 0x6EB1769F PUSH1 0xE1 SHL DUP2 MSTORE ADDRESS PUSH1 0x4 DUP3 ADD MSTORE PUSH1 0x1 PUSH1 0x1 PUSH1 0xA0 SHL SUB DUP4 DUP2 AND PUSH1 0x24 DUP4 ADD MSTORE PUSH1 0x0 SWAP2 DUP4 SWAP2 DUP7 AND SWAP1 PUSH4 0xDD62ED3E SWAP1 PUSH1 0x44 ADD PUSH1 0x20 PUSH1 0x40 MLOAD DUP1 DUP4 SUB DUP2 DUP7 GAS STATICCALL ISZERO DUP1 ISZERO PUSH2 0x2E4A JUMPI RETURNDATASIZE PUSH1 0x0 DUP1 RETURNDATACOPY RETURNDATASIZE PUSH1 0x0 REVERT JUMPDEST POP POP POP POP PUSH1 0x40 MLOAD RETURNDATASIZE PUSH1 0x1F NOT PUSH1 0x1F DUP3 ADD AND DUP3 ADD DUP1 PUSH1 0x40 MSTORE POP DUP2 ADD SWAP1 PUSH2 0x2E6E SWAP2 SWAP1 PUSH2 0x4281 JUMP JUMPDEST PUSH2 0x2E78 SWAP2 SWAP1 PUSH2 0x483F JUMP JUMPDEST PUSH1 0x40 MLOAD PUSH1 0x1 PUSH1 0x1 PUSH1 0xA0 SHL SUB DUP6 AND PUSH1 0x24 DUP3 ADD MSTORE PUSH1 0x44 DUP2 ADD DUP3 SWAP1 MSTORE SWAP1 SWAP2 POP PUSH2 0x242 SWAP1 DUP6 SWAP1 PUSH4 0x95EA7B3 PUSH1 0xE0 SHL SWAP1 PUSH1 0x64 ADD PUSH2 0x1E85 JUMP JUMPDEST PUSH1 0x0 PUSH2 0x2F00 DUP3 PUSH1 0x40 MLOAD DUP1 PUSH1 0x40 ADD PUSH1 0x40 MSTORE DUP1 PUSH1 0x20 DUP2 MSTORE PUSH1 0x20 ADD PUSH32 0x5361666545524332303A206C6F772D6C6576656C2063616C6C206661696C6564 DUP2 MSTORE POP DUP6 PUSH1 0x1 PUSH1 0x1 PUSH1 0xA0 SHL SUB AND PUSH2 0x3A2F SWAP1 SWAP3 SWAP2 SWAP1 PUSH4 0xFFFFFFFF AND JUMP JUMPDEST DUP1 MLOAD SWAP1 SWAP2 POP ISZERO PUSH2 0x1573 JUMPI DUP1 DUP1 PUSH1 0x20 ADD SWAP1 MLOAD DUP2 ADD SWAP1 PUSH2 0x2F1E SWAP2 SWAP1 PUSH2 0x488E JUMP JUMPDEST PUSH2 0x1573 JUMPI PUSH1 0x40 MLOAD PUSH3 0x461BCD PUSH1 0xE5 SHL DUP2 MSTORE PUSH1 0x20 PUSH1 0x4 DUP3 ADD MSTORE PUSH1 0x2A PUSH1 0x24 DUP3 ADD MSTORE PUSH32 0x5361666545524332303A204552433230206F7065726174696F6E20646964206E PUSH1 0x44 DUP3 ADD MSTORE PUSH10 0x1BDD081CDD58D8D95959 PUSH1 0xB2 SHL PUSH1 0x64 DUP3 ADD MSTORE PUSH1 0x84 ADD PUSH2 0x31E JUMP JUMPDEST PUSH1 0x0 DUP1 PUSH1 0x0 DUP1 PUSH1 0x0 PUSH2 0x2F8E DUP11 PUSH2 0x121B JUMP JUMPDEST SWAP5 POP SWAP5 POP SWAP5 POP SWAP5 POP POP PUSH2 0x2FA2 DUP10 DUP4 DUP4 PUSH2 0x3220 JUMP JUMPDEST PUSH1 0x40 MLOAD PUSH4 0xA41FE49F PUSH1 0xE0 SHL DUP2 MSTORE PUSH1 0x4 DUP2 ADD DUP10 SWAP1 MSTORE PUSH1 0x0 PUSH1 0x24 DUP3 ADD DUP2 SWAP1 MSTORE PUSH1 0x44 DUP3 ADD DUP2 SWAP1 MSTORE SWAP1 DUP2 SWAP1 PUSH1 0x1 PUSH1 0x1 PUSH1 0xA0 SHL SUB DUP13 AND SWAP1 PUSH4 0xA41FE49F SWAP1 PUSH1 0x64 ADD PUSH1 0x40 DUP1 MLOAD DUP1 DUP4 SUB DUP2 PUSH1 0x0 DUP8 GAS CALL ISZERO DUP1 ISZERO PUSH2 0x2FFB JUMPI RETURNDATASIZE PUSH1 0x0 DUP1 RETURNDATACOPY RETURNDATASIZE PUSH1 0x0 REVERT JUMPDEST POP POP POP POP PUSH1 0x40 MLOAD RETURNDATASIZE PUSH1 0x1F NOT PUSH1 0x1F DUP3 ADD AND DUP3 ADD DUP1 PUSH1 0x40 MSTORE POP DUP2 ADD SWAP1 PUSH2 0x301F SWAP2 SWAP1 PUSH2 0x429A JUMP JUMPDEST SWAP1 SWAP3 POP SWAP1 POP PUSH1 0x1 PUSH1 0x1 PUSH1 0xA0 SHL SUB DUP10 AND ISZERO PUSH2 0x31BD JUMPI DUP4 PUSH1 0x1 PUSH1 0x1 PUSH1 0xA0 SHL SUB AND DUP10 PUSH1 0x1 PUSH1 0x1 PUSH1 0xA0 SHL SUB AND EQ DUP1 PUSH2 0x3064 JUMPI POP DUP3 PUSH1 0x1 PUSH1 0x1 PUSH1 0xA0 SHL SUB AND DUP10 PUSH1 0x1 PUSH1 0x1 PUSH1 0xA0 SHL SUB AND EQ JUMPDEST PUSH2 0x30B0 JUMPI PUSH1 0x40 MLOAD PUSH3 0x461BCD PUSH1 0xE5 SHL DUP2 MSTORE PUSH1 0x20 PUSH1 0x4 DUP3 ADD MSTORE PUSH1 0x17 PUSH1 0x24 DUP3 ADD MSTORE PUSH32 0x4F504D3A20496E76616C6964205377617020546F6B656E000000000000000000 PUSH1 0x44 DUP3 ADD MSTORE PUSH1 0x64 ADD PUSH2 0x31E JUMP JUMPDEST PUSH1 0x40 DUP1 MLOAD PUSH1 0x2 DUP1 DUP3 MSTORE PUSH1 0x60 DUP3 ADD DUP4 MSTORE PUSH1 0x0 SWAP3 PUSH1 0x20 DUP4 ADD SWAP1 DUP1 CALLDATASIZE DUP4 CALLDATACOPY ADD SWAP1 POP POP SWAP1 POP DUP10 DUP2 PUSH1 0x0 DUP2 MLOAD DUP2 LT PUSH2 0x30E5 JUMPI PUSH2 0x30E5 PUSH2 0x42DB JUMP JUMPDEST PUSH1 0x1 PUSH1 0x1 PUSH1 0xA0 SHL SUB SWAP3 DUP4 AND PUSH1 0x20 SWAP2 DUP3 MUL SWAP3 SWAP1 SWAP3 ADD ADD MSTORE DUP11 DUP2 AND SWAP1 DUP7 AND EQ PUSH2 0x310C JUMPI DUP5 PUSH2 0x310E JUMP JUMPDEST DUP4 JUMPDEST DUP2 PUSH1 0x1 DUP2 MLOAD DUP2 LT PUSH2 0x3121 JUMPI PUSH2 0x3121 PUSH2 0x42DB JUMP JUMPDEST PUSH1 0x1 PUSH1 0x1 PUSH1 0xA0 SHL SUB SWAP3 DUP4 AND PUSH1 0x20 SWAP2 DUP3 MUL SWAP3 SWAP1 SWAP3 ADD ADD MSTORE PUSH1 0x0 SWAP1 DUP12 DUP2 AND SWAP1 DUP8 AND EQ PUSH2 0x314B JUMPI DUP3 PUSH2 0x314D JUMP JUMPDEST DUP4 JUMPDEST SWAP1 POP PUSH1 0x0 PUSH2 0x315D DUP9 DUP11 DUP5 DUP7 PUSH2 0x1EBC JUMP JUMPDEST SWAP1 POP DUP7 PUSH1 0x1 PUSH1 0x1 PUSH1 0xA0 SHL SUB AND DUP13 PUSH1 0x1 PUSH1 0x1 PUSH1 0xA0 SHL SUB AND EQ PUSH2 0x3187 JUMPI PUSH2 0x3182 DUP2 DUP7 PUSH2 0x483F JUMP JUMPDEST PUSH2 0x318A JUMP JUMPDEST PUSH1 0x0 JUMPDEST SWAP5 POP DUP6 PUSH1 0x1 PUSH1 0x1 PUSH1 0xA0 SHL SUB AND DUP13 PUSH1 0x1 PUSH1 0x1 PUSH1 0xA0 SHL SUB AND EQ PUSH2 0x31B4 JUMPI PUSH2 0x31AF DUP2 DUP6 PUSH2 0x483F JUMP JUMPDEST PUSH2 0x31B7 JUMP JUMPDEST PUSH1 0x0 JUMPDEST SWAP4 POP POP POP POP JUMPDEST PUSH1 0x40 DUP1 MLOAD DUP12 DUP2 MSTORE PUSH1 0x20 DUP2 ADD DUP5 SWAP1 MSTORE SWAP1 DUP2 ADD DUP3 SWAP1 MSTORE PUSH1 0x1 PUSH1 0x1 PUSH1 0xA0 SHL SUB DUP1 DUP14 AND SWAP2 SWAP1 DUP11 AND SWAP1 PUSH32 0xDC0CC97A08108CDB9E44A974A24BBF23B7D5871BA94674C1F06F3B020565BB23 SWAP1 PUSH1 0x60 ADD PUSH1 0x40 MLOAD DUP1 SWAP2 SUB SWAP1 LOG3 POP PUSH1 0x1 SWAP12 SWAP11 POP POP POP POP POP POP POP POP POP POP POP JUMP JUMPDEST PUSH1 0x0 DUP4 PUSH1 0x1 PUSH1 0x1 PUSH1 0xA0 SHL SUB AND PUSH4 0x443EC74D PUSH1 0x40 MLOAD DUP2 PUSH4 0xFFFFFFFF AND PUSH1 0xE0 SHL DUP2 MSTORE PUSH1 0x4 ADD PUSH1 0x40 DUP1 MLOAD DUP1 DUP4 SUB DUP2 DUP7 GAS STATICCALL ISZERO DUP1 ISZERO PUSH2 0x325F JUMPI RETURNDATASIZE PUSH1 0x0 DUP1 RETURNDATACOPY RETURNDATASIZE PUSH1 0x0 REVERT JUMPDEST POP POP POP POP PUSH1 0x40 MLOAD RETURNDATASIZE PUSH1 0x1F NOT PUSH1 0x1F DUP3 ADD AND DUP3 ADD DUP1 PUSH1 0x40 MSTORE POP DUP2 ADD SWAP1 PUSH2 0x3283 SWAP2 SWAP1 PUSH2 0x46D9 JUMP JUMPDEST POP SWAP1 POP PUSH1 0x0 DUP5 PUSH1 0x1 PUSH1 0x1 PUSH1 0xA0 SHL SUB AND PUSH4 0x5EE04D78 PUSH1 0x40 MLOAD DUP2 PUSH4 0xFFFFFFFF AND PUSH1 0xE0 SHL DUP2 MSTORE PUSH1 0x4 ADD PUSH1 0x40 DUP1 MLOAD DUP1 DUP4 SUB DUP2 DUP7 GAS STATICCALL ISZERO DUP1 ISZERO PUSH2 0x32C5 JUMPI RETURNDATASIZE PUSH1 0x0 DUP1 RETURNDATACOPY RETURNDATASIZE PUSH1 0x0 REVERT JUMPDEST POP POP POP POP PUSH1 0x40 MLOAD RETURNDATASIZE PUSH1 0x1F NOT PUSH1 0x1F DUP3 ADD AND DUP3 ADD DUP1 PUSH1 0x40 MSTORE POP DUP2 ADD SWAP1 PUSH2 0x32E9 SWAP2 SWAP1 PUSH2 0x46D9 JUMP JUMPDEST POP SWAP1 POP DUP2 PUSH1 0x1 PUSH1 0x1 PUSH1 0xA0 SHL SUB AND DUP5 PUSH1 0x1 PUSH1 0x1 PUSH1 0xA0 SHL SUB AND EQ DUP1 ISZERO PUSH2 0x331E JUMPI POP DUP1 PUSH1 0x1 PUSH1 0x1 PUSH1 0xA0 SHL SUB AND DUP4 PUSH1 0x1 PUSH1 0x1 PUSH1 0xA0 SHL SUB AND EQ JUMPDEST PUSH2 0x14DD JUMPI PUSH1 0x40 MLOAD PUSH3 0x461BCD PUSH1 0xE5 SHL DUP2 MSTORE PUSH1 0x20 PUSH1 0x4 DUP3 ADD MSTORE PUSH1 0x17 PUSH1 0x24 DUP3 ADD MSTORE PUSH32 0x4F504D3A20496E76616C69642044656274204173736574000000000000000000 PUSH1 0x44 DUP3 ADD MSTORE PUSH1 0x64 ADD PUSH2 0x31E JUMP JUMPDEST PUSH1 0x0 DUP1 DUP5 PUSH1 0x1 PUSH1 0x1 PUSH1 0xA0 SHL SUB AND PUSH4 0x38013F02 PUSH1 0x40 MLOAD DUP2 PUSH4 0xFFFFFFFF AND PUSH1 0xE0 SHL DUP2 MSTORE PUSH1 0x4 ADD PUSH1 0x20 PUSH1 0x40 MLOAD DUP1 DUP4 SUB DUP2 DUP7 GAS STATICCALL ISZERO DUP1 ISZERO PUSH2 0x33AB JUMPI RETURNDATASIZE PUSH1 0x0 DUP1 RETURNDATACOPY RETURNDATASIZE PUSH1 0x0 REVERT JUMPDEST POP POP POP POP PUSH1 0x40 MLOAD RETURNDATASIZE PUSH1 0x1F NOT PUSH1 0x1F DUP3 ADD AND DUP3 ADD DUP1 PUSH1 0x40 MSTORE POP DUP2 ADD SWAP1 PUSH2 0x33CF SWAP2 SWAP1 PUSH2 0x42BE JUMP JUMPDEST PUSH1 0x40 MLOAD PUSH4 0xB3596F07 PUSH1 0xE0 SHL DUP2 MSTORE PUSH1 0x1 PUSH1 0x1 PUSH1 0xA0 SHL SUB DUP7 DUP2 AND PUSH1 0x4 DUP4 ADD MSTORE SWAP2 SWAP3 POP PUSH1 0x0 SWAP2 PUSH4 0x5F5E100 SWAP2 SWAP1 DUP5 AND SWAP1 PUSH4 0xB3596F07 SWAP1 PUSH1 0x24 ADD PUSH1 0x20 PUSH1 0x40 MLOAD DUP1 DUP4 SUB DUP2 DUP7 GAS STATICCALL ISZERO DUP1 ISZERO PUSH2 0x3422 JUMPI RETURNDATASIZE PUSH1 0x0 DUP1 RETURNDATACOPY RETURNDATASIZE PUSH1 0x0 REVERT JUMPDEST POP POP POP POP PUSH1 0x40 MLOAD RETURNDATASIZE PUSH1 0x1F NOT PUSH1 0x1F DUP3 ADD AND DUP3 ADD DUP1 PUSH1 0x40 MSTORE POP DUP2 ADD SWAP1 PUSH2 0x3446 SWAP2 SWAP1 PUSH2 0x4281 JUMP JUMPDEST DUP7 PUSH1 0x1 PUSH1 0x1 PUSH1 0xA0 SHL SUB AND PUSH4 0x313CE567 PUSH1 0x40 MLOAD DUP2 PUSH4 0xFFFFFFFF AND PUSH1 0xE0 SHL DUP2 MSTORE PUSH1 0x4 ADD PUSH1 0x20 PUSH1 0x40 MLOAD DUP1 DUP4 SUB DUP2 DUP7 GAS STATICCALL ISZERO DUP1 ISZERO PUSH2 0x3484 JUMPI RETURNDATASIZE PUSH1 0x0 DUP1 RETURNDATACOPY RETURNDATASIZE PUSH1 0x0 REVERT JUMPDEST POP POP POP POP PUSH1 0x40 MLOAD RETURNDATASIZE PUSH1 0x1F NOT PUSH1 0x1F DUP3 ADD AND DUP3 ADD DUP1 PUSH1 0x40 MSTORE POP DUP2 ADD SWAP1 PUSH2 0x34A8 SWAP2 SWAP1 PUSH2 0x4852 JUMP JUMPDEST PUSH2 0x34B3 SWAP1 PUSH1 0x14 PUSH2 0x48A9 JUMP JUMPDEST PUSH2 0x34BE SWAP1 PUSH1 0xA PUSH2 0x4830 JUMP JUMPDEST PUSH2 0x34C8 SWAP2 SWAP1 PUSH2 0x4713 JUMP JUMPDEST PUSH2 0x34D2 SWAP2 SWAP1 PUSH2 0x472A JUMP JUMPDEST PUSH1 0x40 MLOAD PUSH4 0xB3596F07 PUSH1 0xE0 SHL DUP2 MSTORE PUSH1 0x1 PUSH1 0x1 PUSH1 0xA0 SHL SUB DUP7 DUP2 AND PUSH1 0x4 DUP4 ADD MSTORE SWAP2 SWAP3 POP PUSH1 0x0 SWAP2 PUSH4 0x5F5E100 SWAP2 SWAP1 DUP6 AND SWAP1 PUSH4 0xB3596F07 SWAP1 PUSH1 0x24 ADD PUSH1 0x20 PUSH1 0x40 MLOAD DUP1 DUP4 SUB DUP2 DUP7 GAS STATICCALL ISZERO DUP1 ISZERO PUSH2 0x3525 JUMPI RETURNDATASIZE PUSH1 0x0 DUP1 RETURNDATACOPY RETURNDATASIZE PUSH1 0x0 REVERT JUMPDEST POP POP POP POP PUSH1 0x40 MLOAD RETURNDATASIZE PUSH1 0x1F NOT PUSH1 0x1F DUP3 ADD AND DUP3 ADD DUP1 PUSH1 0x40 MSTORE POP DUP2 ADD SWAP1 PUSH2 0x3549 SWAP2 SWAP1 PUSH2 0x4281 JUMP JUMPDEST DUP7 PUSH1 0x1 PUSH1 0x1 PUSH1 0xA0 SHL SUB AND PUSH4 0x313CE567 PUSH1 0x40 MLOAD DUP2 PUSH4 0xFFFFFFFF AND PUSH1 0xE0 SHL DUP2 MSTORE PUSH1 0x4 ADD PUSH1 0x20 PUSH1 0x40 MLOAD DUP1 DUP4 SUB DUP2 DUP7 GAS STATICCALL ISZERO DUP1 ISZERO PUSH2 0x3587 JUMPI RETURNDATASIZE PUSH1 0x0 DUP1 RETURNDATACOPY RETURNDATASIZE PUSH1 0x0 REVERT JUMPDEST POP POP POP POP PUSH1 0x40 MLOAD RETURNDATASIZE PUSH1 0x1F NOT PUSH1 0x1F DUP3 ADD AND DUP3 ADD DUP1 PUSH1 0x40 MSTORE POP DUP2 ADD SWAP1 PUSH2 0x35AB SWAP2 SWAP1 PUSH2 0x4852 JUMP JUMPDEST PUSH2 0x35B6 SWAP1 PUSH1 0x14 PUSH2 0x48A9 JUMP JUMPDEST PUSH2 0x35C1 SWAP1 PUSH1 0xA PUSH2 0x4830 JUMP JUMPDEST PUSH2 0x35CB SWAP2 SWAP1 PUSH2 0x4713 JUMP JUMPDEST PUSH2 0x35D5 SWAP2 SWAP1 PUSH2 0x472A JUMP JUMPDEST SWAP1 POP DUP1 DUP3 GT ISZERO PUSH2 0x35E7 JUMPI DUP2 SWAP4 POP PUSH2 0x35EB JUMP JUMPDEST DUP1 SWAP4 POP JUMPDEST POP POP POP SWAP4 SWAP3 POP POP POP JUMP JUMPDEST PUSH1 0x0 DUP1 PUSH1 0x0 DUP1 PUSH2 0x3604 DUP9 PUSH2 0x121B JUMP JUMPDEST SWAP5 POP SWAP5 POP POP SWAP4 POP POP PUSH1 0x0 DUP2 PUSH1 0x1 PUSH1 0x1 PUSH1 0xA0 SHL SUB AND PUSH4 0x313CE567 PUSH1 0x40 MLOAD DUP2 PUSH4 0xFFFFFFFF AND PUSH1 0xE0 SHL DUP2 MSTORE PUSH1 0x4 ADD PUSH1 0x20 PUSH1 0x40 MLOAD DUP1 DUP4 SUB DUP2 DUP7 GAS STATICCALL ISZERO DUP1 ISZERO PUSH2 0x364C JUMPI RETURNDATASIZE PUSH1 0x0 DUP1 RETURNDATACOPY RETURNDATASIZE PUSH1 0x0 REVERT JUMPDEST POP POP POP POP PUSH1 0x40 MLOAD RETURNDATASIZE PUSH1 0x1F NOT PUSH1 0x1F DUP3 ADD AND DUP3 ADD DUP1 PUSH1 0x40 MSTORE POP DUP2 ADD SWAP1 PUSH2 0x3670 SWAP2 SWAP1 PUSH2 0x4852 JUMP JUMPDEST PUSH2 0x367B SWAP1 PUSH1 0xA PUSH2 0x4830 JUMP JUMPDEST PUSH1 0x40 MLOAD PUSH4 0xB3596F07 PUSH1 0xE0 SHL DUP2 MSTORE PUSH1 0x1 PUSH1 0x1 PUSH1 0xA0 SHL SUB DUP5 DUP2 AND PUSH1 0x4 DUP4 ADD MSTORE DUP7 AND SWAP1 PUSH4 0xB3596F07 SWAP1 PUSH1 0x24 ADD PUSH1 0x20 PUSH1 0x40 MLOAD DUP1 DUP4 SUB DUP2 DUP7 GAS STATICCALL ISZERO DUP1 ISZERO PUSH2 0x36C1 JUMPI RETURNDATASIZE PUSH1 0x0 DUP1 RETURNDATACOPY RETURNDATASIZE PUSH1 0x0 REVERT JUMPDEST POP POP POP POP PUSH1 0x40 MLOAD RETURNDATASIZE PUSH1 0x1F NOT PUSH1 0x1F DUP3 ADD AND DUP3 ADD DUP1 PUSH1 0x40 MSTORE POP DUP2 ADD SWAP1 PUSH2 0x36E5 SWAP2 SWAP1 PUSH2 0x4281 JUMP JUMPDEST PUSH2 0x36EF SWAP1 DUP10 PUSH2 0x4713 JUMP JUMPDEST PUSH2 0x36F9 SWAP2 SWAP1 PUSH2 0x472A JUMP JUMPDEST DUP4 PUSH1 0x1 PUSH1 0x1 PUSH1 0xA0 SHL SUB AND PUSH4 0x313CE567 PUSH1 0x40 MLOAD DUP2 PUSH4 0xFFFFFFFF AND PUSH1 0xE0 SHL DUP2 MSTORE PUSH1 0x4 ADD PUSH1 0x20 PUSH1 0x40 MLOAD DUP1 DUP4 SUB DUP2 DUP7 GAS STATICCALL ISZERO DUP1 ISZERO PUSH2 0x3737 JUMPI RETURNDATASIZE PUSH1 0x0 DUP1 RETURNDATACOPY RETURNDATASIZE PUSH1 0x0 REVERT JUMPDEST POP POP POP POP PUSH1 0x40 MLOAD RETURNDATASIZE PUSH1 0x1F NOT PUSH1 0x1F DUP3 ADD AND DUP3 ADD DUP1 PUSH1 0x40 MSTORE POP DUP2 ADD SWAP1 PUSH2 0x375B SWAP2 SWAP1 PUSH2 0x4852 JUMP JUMPDEST PUSH2 0x3766 SWAP1 PUSH1 0xA PUSH2 0x4830 JUMP JUMPDEST PUSH1 0x40 MLOAD PUSH4 0xB3596F07 PUSH1 0xE0 SHL DUP2 MSTORE PUSH1 0x1 PUSH1 0x1 PUSH1 0xA0 SHL SUB DUP7 DUP2 AND PUSH1 0x4 DUP4 ADD MSTORE DUP8 AND SWAP1 PUSH4 0xB3596F07 SWAP1 PUSH1 0x24 ADD PUSH1 0x20 PUSH1 0x40 MLOAD DUP1 DUP4 SUB DUP2 DUP7 GAS STATICCALL ISZERO DUP1 ISZERO PUSH2 0x37AC JUMPI RETURNDATASIZE PUSH1 0x0 DUP1 RETURNDATACOPY RETURNDATASIZE PUSH1 0x0 REVERT JUMPDEST POP POP POP POP PUSH1 0x40 MLOAD RETURNDATASIZE PUSH1 0x1F NOT PUSH1 0x1F DUP3 ADD AND DUP3 ADD DUP1 PUSH1 0x40 MSTORE POP DUP2 ADD SWAP1 PUSH2 0x37D0 SWAP2 SWAP1 PUSH2 0x4281 JUMP JUMPDEST PUSH2 0x37DA SWAP1 DUP12 PUSH2 0x4713 JUMP JUMPDEST PUSH2 0x37E4 SWAP2 SWAP1 PUSH2 0x472A JUMP JUMPDEST PUSH2 0x37EE SWAP2 SWAP1 PUSH2 0x483F JUMP JUMPDEST PUSH1 0x40 MLOAD PUSH4 0xB3596F07 PUSH1 0xE0 SHL DUP2 MSTORE PUSH1 0x1 PUSH1 0x1 PUSH1 0xA0 SHL SUB DUP9 DUP2 AND PUSH1 0x4 DUP4 ADD MSTORE SWAP2 SWAP3 POP SWAP1 DUP6 AND SWAP1 PUSH4 0xB3596F07 SWAP1 PUSH1 0x24 ADD PUSH1 0x20 PUSH1 0x40 MLOAD DUP1 DUP4 SUB DUP2 DUP7 GAS STATICCALL ISZERO DUP1 ISZERO PUSH2 0x3838 JUMPI RETURNDATASIZE PUSH1 0x0 DUP1 RETURNDATACOPY RETURNDATASIZE PUSH1 0x0 REVERT JUMPDEST POP POP POP POP PUSH1 0x40 MLOAD RETURNDATASIZE PUSH1 0x1F NOT PUSH1 0x1F DUP3 ADD AND DUP3 ADD DUP1 PUSH1 0x40 MSTORE POP DUP2 ADD SWAP1 PUSH2 0x385C SWAP2 SWAP1 PUSH2 0x4281 JUMP JUMPDEST PUSH1 0x64 DUP8 PUSH1 0x1 PUSH1 0x1 PUSH1 0xA0 SHL SUB AND PUSH4 0x313CE567 PUSH1 0x40 MLOAD DUP2 PUSH4 0xFFFFFFFF AND PUSH1 0xE0 SHL DUP2 MSTORE PUSH1 0x4 ADD PUSH1 0x20 PUSH1 0x40 MLOAD DUP1 DUP4 SUB DUP2 DUP7 GAS STATICCALL ISZERO DUP1 ISZERO PUSH2 0x389C JUMPI RETURNDATASIZE PUSH1 0x0 DUP1 RETURNDATACOPY RETURNDATASIZE PUSH1 0x0 REVERT JUMPDEST POP POP POP POP PUSH1 0x40 MLOAD RETURNDATASIZE PUSH1 0x1F NOT PUSH1 0x1F DUP3 ADD AND DUP3 ADD DUP1 PUSH1 0x40 MSTORE POP DUP2 ADD SWAP1 PUSH2 0x38C0 SWAP2 SWAP1 PUSH2 0x4852 JUMP JUMPDEST PUSH2 0x38CB SWAP1 PUSH1 0xA PUSH2 0x4830 JUMP JUMPDEST PUSH2 0x38D5 SWAP1 DUP5 PUSH2 0x4713 JUMP JUMPDEST PUSH2 0x38DF SWAP2 SWAP1 PUSH2 0x472A JUMP JUMPDEST PUSH2 0x38E9 SWAP2 SWAP1 PUSH2 0x472A JUMP JUMPDEST PUSH1 0x40 MLOAD PUSH4 0x70A08231 PUSH1 0xE0 SHL DUP2 MSTORE ADDRESS PUSH1 0x4 DUP3 ADD MSTORE SWAP1 SWAP6 POP PUSH1 0x1 PUSH1 0x1 PUSH1 0xA0 SHL SUB DUP8 AND SWAP1 PUSH4 0x70A08231 SWAP1 PUSH1 0x24 ADD PUSH1 0x20 PUSH1 0x40 MLOAD DUP1 DUP4 SUB DUP2 DUP7 GAS STATICCALL ISZERO DUP1 ISZERO PUSH2 0x3930 JUMPI RETURNDATASIZE PUSH1 0x0 DUP1 RETURNDATACOPY RETURNDATASIZE PUSH1 0x0 REVERT JUMPDEST POP POP POP POP PUSH1 0x40 MLOAD RETURNDATASIZE PUSH1 0x1F NOT PUSH1 0x1F DUP3 ADD AND DUP3 ADD DUP1 PUSH1 0x40 MSTORE POP DUP2 ADD SWAP1 PUSH2 0x3954 SWAP2 SWAP1 PUSH2 0x4281 JUMP JUMPDEST DUP6 GT ISZERO PUSH2 0x39A3 JUMPI PUSH1 0x40 MLOAD PUSH3 0x461BCD PUSH1 0xE5 SHL DUP2 MSTORE PUSH1 0x20 PUSH1 0x4 DUP3 ADD MSTORE PUSH1 0x1C PUSH1 0x24 DUP3 ADD MSTORE PUSH32 0x4F504D3A20496E73756666696369656E7420436F6C6C61746572616C00000000 PUSH1 0x44 DUP3 ADD MSTORE PUSH1 0x64 ADD PUSH2 0x31E JUMP JUMPDEST PUSH1 0x2 SLOAD PUSH1 0x40 DUP1 MLOAD PUSH4 0x61D027B3 PUSH1 0xE0 SHL DUP2 MSTORE SWAP1 MLOAD PUSH2 0x3A23 SWAP3 PUSH1 0x1 PUSH1 0x1 PUSH1 0xA0 SHL SUB AND SWAP2 PUSH4 0x61D027B3 SWAP2 PUSH1 0x4 DUP1 DUP4 ADD SWAP3 PUSH1 0x20 SWAP3 SWAP2 SWAP1 DUP3 SWAP1 SUB ADD DUP2 DUP7 GAS STATICCALL ISZERO DUP1 ISZERO PUSH2 0x39EE JUMPI RETURNDATASIZE PUSH1 0x0 DUP1 RETURNDATACOPY RETURNDATASIZE PUSH1 0x0 REVERT JUMPDEST POP POP POP POP PUSH1 0x40 MLOAD RETURNDATASIZE PUSH1 0x1F NOT PUSH1 0x1F DUP3 ADD AND DUP3 ADD DUP1 PUSH1 0x40 MSTORE POP DUP2 ADD SWAP1 PUSH2 0x3A12 SWAP2 SWAP1 PUSH2 0x42BE JUMP JUMPDEST PUSH1 0x1 PUSH1 0x1 PUSH1 0xA0 SHL SUB DUP9 AND SWAP1 DUP8 PUSH2 0x1E59 JUMP JUMPDEST POP POP POP POP SWAP5 SWAP4 POP POP POP POP JUMP JUMPDEST PUSH1 0x60 PUSH2 0x464 DUP5 DUP5 PUSH1 0x0 DUP6 DUP6 PUSH1 0x1 PUSH1 0x1 PUSH1 0xA0 SHL SUB DUP6 AND EXTCODESIZE PUSH2 0x3A91 JUMPI PUSH1 0x40 MLOAD PUSH3 0x461BCD PUSH1 0xE5 SHL DUP2 MSTORE PUSH1 0x20 PUSH1 0x4 DUP3 ADD MSTORE PUSH1 0x1D PUSH1 0x24 DUP3 ADD MSTORE PUSH32 0x416464726573733A2063616C6C20746F206E6F6E2D636F6E7472616374000000 PUSH1 0x44 DUP3 ADD MSTORE PUSH1 0x64 ADD PUSH2 0x31E JUMP JUMPDEST PUSH1 0x0 DUP1 DUP7 PUSH1 0x1 PUSH1 0x1 PUSH1 0xA0 SHL SUB AND DUP6 DUP8 PUSH1 0x40 MLOAD PUSH2 0x3AAD SWAP2 SWAP1 PUSH2 0x48C2 JUMP JUMPDEST PUSH1 0x0 PUSH1 0x40 MLOAD DUP1 DUP4 SUB DUP2 DUP6 DUP8 GAS CALL SWAP3 POP POP POP RETURNDATASIZE DUP1 PUSH1 0x0 DUP2 EQ PUSH2 0x3AEA JUMPI PUSH1 0x40 MLOAD SWAP2 POP PUSH1 0x1F NOT PUSH1 0x3F RETURNDATASIZE ADD AND DUP3 ADD PUSH1 0x40 MSTORE RETURNDATASIZE DUP3 MSTORE RETURNDATASIZE PUSH1 0x0 PUSH1 0x20 DUP5 ADD RETURNDATACOPY PUSH2 0x3AEF JUMP JUMPDEST PUSH1 0x60 SWAP2 POP JUMPDEST POP SWAP2 POP SWAP2 POP PUSH2 0x3AFF DUP3 DUP3 DUP7 PUSH2 0x3B0A JUMP JUMPDEST SWAP8 SWAP7 POP POP POP POP POP POP POP JUMP JUMPDEST PUSH1 0x60 DUP4 ISZERO PUSH2 0x3B19 JUMPI POP DUP2 PUSH2 0x9EB JUMP JUMPDEST DUP3 MLOAD ISZERO PUSH2 0x3B29 JUMPI DUP3 MLOAD DUP1 DUP5 PUSH1 0x20 ADD REVERT JUMPDEST DUP2 PUSH1 0x40 MLOAD PUSH3 0x461BCD PUSH1 0xE5 SHL DUP2 MSTORE PUSH1 0x4 ADD PUSH2 0x31E SWAP2 SWAP1 PUSH2 0x48DE JUMP JUMPDEST PUSH1 0x1 PUSH1 0x1 PUSH1 0xA0 SHL SUB DUP2 AND DUP2 EQ PUSH2 0x6EF JUMPI PUSH1 0x0 DUP1 REVERT JUMPDEST PUSH4 0x4E487B71 PUSH1 0xE0 SHL PUSH1 0x0 MSTORE PUSH1 0x41 PUSH1 0x4 MSTORE PUSH1 0x24 PUSH1 0x0 REVERT JUMPDEST PUSH1 0x40 MLOAD PUSH2 0x180 DUP2 ADD PUSH1 0x1 PUSH1 0x1 PUSH1 0x40 SHL SUB DUP2 GT DUP3 DUP3 LT OR ISZERO PUSH2 0x3B91 JUMPI PUSH2 0x3B91 PUSH2 0x3B58 JUMP JUMPDEST PUSH1 0x40 MSTORE SWAP1 JUMP JUMPDEST PUSH1 0x40 MLOAD PUSH1 0x1F DUP3 ADD PUSH1 0x1F NOT AND DUP2 ADD PUSH1 0x1 PUSH1 0x1 PUSH1 0x40 SHL SUB DUP2 GT DUP3 DUP3 LT OR ISZERO PUSH2 0x3BBF JUMPI PUSH2 0x3BBF PUSH2 0x3B58 JUMP JUMPDEST PUSH1 0x40 MSTORE SWAP2 SWAP1 POP JUMP JUMPDEST PUSH1 0x0 PUSH1 0x1 PUSH1 0x1 PUSH1 0x40 SHL SUB DUP3 GT ISZERO PUSH2 0x3BE0 JUMPI PUSH2 0x3BE0 PUSH2 0x3B58 JUMP JUMPDEST POP PUSH1 0x5 SHL PUSH1 0x20 ADD SWAP1 JUMP JUMPDEST PUSH1 0x0 DUP3 PUSH1 0x1F DUP4 ADD SLT PUSH2 0x3BFB JUMPI PUSH1 0x0 DUP1 REVERT JUMPDEST DUP2 CALLDATALOAD PUSH1 0x20 PUSH2 0x3C10 PUSH2 0x3C0B DUP4 PUSH2 0x3BC7 JUMP JUMPDEST PUSH2 0x3B97 JUMP JUMPDEST DUP3 DUP2 MSTORE PUSH1 0x5 SWAP3 SWAP1 SWAP3 SHL DUP5 ADD DUP2 ADD SWAP2 DUP2 DUP2 ADD SWAP1 DUP7 DUP5 GT ISZERO PUSH2 0x3C2F JUMPI PUSH1 0x0 DUP1 REVERT JUMPDEST DUP3 DUP7 ADD JUMPDEST DUP5 DUP2 LT ISZERO PUSH2 0x3C53 JUMPI DUP1 CALLDATALOAD PUSH2 0x3C46 DUP2 PUSH2 0x3B43 JUMP JUMPDEST DUP4 MSTORE SWAP2 DUP4 ADD SWAP2 DUP4 ADD PUSH2 0x3C33 JUMP JUMPDEST POP SWAP7 SWAP6 POP POP POP POP POP POP JUMP JUMPDEST PUSH1 0x0 DUP1 PUSH1 0x0 DUP1 PUSH1 0x80 DUP6 DUP8 SUB SLT ISZERO PUSH2 0x3C74 JUMPI PUSH1 0x0 DUP1 REVERT JUMPDEST DUP5 CALLDATALOAD PUSH2 0x3C7F DUP2 PUSH2 0x3B43 JUMP JUMPDEST SWAP4 POP PUSH1 0x20 DUP6 ADD CALLDATALOAD SWAP3 POP PUSH1 0x40 DUP6 ADD CALLDATALOAD SWAP2 POP PUSH1 0x60 DUP6 ADD CALLDATALOAD PUSH1 0x1 PUSH1 0x1 PUSH1 0x40 SHL SUB DUP2 GT ISZERO PUSH2 0x3CA8 JUMPI PUSH1 0x0 DUP1 REVERT JUMPDEST PUSH2 0x3CB4 DUP8 DUP3 DUP9 ADD PUSH2 0x3BEA JUMP JUMPDEST SWAP2 POP POP SWAP3 SWAP6 SWAP2 SWAP5 POP SWAP3 POP JUMP JUMPDEST PUSH1 0x0 DUP1 PUSH1 0x0 DUP1 PUSH1 0x80 DUP6 DUP8 SUB SLT ISZERO PUSH2 0x3CD6 JUMPI PUSH1 0x0 DUP1 REVERT JUMPDEST DUP5 CALLDATALOAD SWAP4 POP PUSH1 0x20 DUP6 ADD CALLDATALOAD PUSH2 0x3CE8 DUP2 PUSH2 0x3B43 JUMP JUMPDEST SWAP4 SWAP7 SWAP4 SWAP6 POP POP POP POP PUSH1 0x40 DUP3 ADD CALLDATALOAD SWAP2 PUSH1 0x60 ADD CALLDATALOAD SWAP1 JUMP JUMPDEST PUSH1 0x0 DUP1 PUSH1 0x0 DUP1 PUSH1 0x80 DUP6 DUP8 SUB SLT ISZERO PUSH2 0x3D13 JUMPI PUSH1 0x0 DUP1 REVERT JUMPDEST DUP5 CALLDATALOAD PUSH2 0x3D1E DUP2 PUSH2 0x3B43 JUMP JUMPDEST SWAP7 PUSH1 0x20 DUP7 ADD CALLDATALOAD SWAP7 POP PUSH1 0x40 DUP7 ADD CALLDATALOAD SWAP6 PUSH1 0x60 ADD CALLDATALOAD SWAP5 POP SWAP3 POP POP POP JUMP JUMPDEST PUSH1 0x0 DUP1 PUSH1 0x0 DUP1 PUSH1 0x80 DUP6 DUP8 SUB SLT ISZERO PUSH2 0x3D4E JUMPI PUSH1 0x0 DUP1 REVERT JUMPDEST DUP5 CALLDATALOAD PUSH2 0x3D59 DUP2 PUSH2 0x3B43 JUMP JUMPDEST SWAP4 POP PUSH1 0x20 DUP6 ADD CALLDATALOAD PUSH2 0x3D69 DUP2 PUSH2 0x3B43 JUMP JUMPDEST SWAP3 POP PUSH1 0x40 DUP6 ADD CALLDATALOAD SWAP2 POP PUSH1 0x60 DUP6 ADD CALLDATALOAD PUSH2 0x3D80 DUP2 PUSH2 0x3B43 JUMP JUMPDEST SWAP4 SWAP7 SWAP3 SWAP6 POP SWAP1 SWAP4 POP POP JUMP JUMPDEST PUSH1 0x0 DUP1 PUSH1 0x0 PUSH1 0x60 DUP5 DUP7 SUB SLT ISZERO PUSH2 0x3DA0 JUMPI PUSH1 0x0 DUP1 REVERT JUMPDEST DUP4 CALLDATALOAD SWAP3 POP PUSH1 0x20 DUP5 ADD CALLDATALOAD PUSH2 0x3DB2 DUP2 PUSH2 0x3B43 JUMP JUMPDEST SWAP3 SWAP6 SWAP3 SWAP5 POP POP POP PUSH1 0x40 SWAP2 SWAP1 SWAP2 ADD CALLDATALOAD SWAP1 JUMP JUMPDEST PUSH1 0x0 PUSH1 0x20 DUP3 DUP5 SUB SLT ISZERO PUSH2 0x3DD5 JUMPI PUSH1 0x0 DUP1 REVERT JUMPDEST DUP2 CALLDATALOAD PUSH2 0x9EB DUP2 PUSH2 0x3B43 JUMP JUMPDEST PUSH1 0x0 DUP1 DUP4 PUSH1 0x1F DUP5 ADD SLT PUSH2 0x3DF2 JUMPI PUSH1 0x0 DUP1 REVERT JUMPDEST POP DUP2 CALLDATALOAD PUSH1 0x1 PUSH1 0x1 PUSH1 0x40 SHL SUB DUP2 GT ISZERO PUSH2 0x3E09 JUMPI PUSH1 0x0 DUP1 REVERT JUMPDEST PUSH1 0x20 DUP4 ADD SWAP2 POP DUP4 PUSH1 0x20 DUP3 PUSH1 0x5 SHL DUP6 ADD ADD GT ISZERO PUSH2 0x3E24 JUMPI PUSH1 0x0 DUP1 REVERT JUMPDEST SWAP3 POP SWAP3 SWAP1 POP JUMP JUMPDEST PUSH1 0x0 DUP1 PUSH1 0x0 DUP1 PUSH1 0x0 DUP1 PUSH1 0x0 DUP1 PUSH1 0x0 PUSH1 0xA0 DUP11 DUP13 SUB SLT ISZERO PUSH2 0x3E49 JUMPI PUSH1 0x0 DUP1 REVERT JUMPDEST DUP10 CALLDATALOAD PUSH1 0x1 PUSH1 0x1 PUSH1 0x40 SHL SUB DUP1 DUP3 GT ISZERO PUSH2 0x3E60 JUMPI PUSH1 0x0 DUP1 REVERT JUMPDEST PUSH2 0x3E6C DUP14 DUP4 DUP15 ADD PUSH2 0x3DE0 JUMP JUMPDEST SWAP1 SWAP12 POP SWAP10 POP PUSH1 0x20 DUP13 ADD CALLDATALOAD SWAP2 POP DUP1 DUP3 GT ISZERO PUSH2 0x3E85 JUMPI PUSH1 0x0 DUP1 REVERT JUMPDEST PUSH2 0x3E91 DUP14 DUP4 DUP15 ADD PUSH2 0x3DE0 JUMP JUMPDEST SWAP1 SWAP10 POP SWAP8 POP PUSH1 0x40 DUP13 ADD CALLDATALOAD SWAP2 POP DUP1 DUP3 GT ISZERO PUSH2 0x3EAA JUMPI PUSH1 0x0 DUP1 REVERT JUMPDEST PUSH2 0x3EB6 DUP14 DUP4 DUP15 ADD PUSH2 0x3DE0 JUMP JUMPDEST SWAP1 SWAP8 POP SWAP6 POP PUSH1 0x60 DUP13 ADD CALLDATALOAD SWAP2 POP PUSH2 0x3ECB DUP3 PUSH2 0x3B43 JUMP JUMPDEST SWAP1 SWAP4 POP PUSH1 0x80 DUP12 ADD CALLDATALOAD SWAP1 DUP1 DUP3 GT ISZERO PUSH2 0x3EE1 JUMPI PUSH1 0x0 DUP1 REVERT JUMPDEST DUP2 DUP13 ADD SWAP2 POP DUP13 PUSH1 0x1F DUP4 ADD SLT PUSH2 0x3EF5 JUMPI PUSH1 0x0 DUP1 REVERT JUMPDEST DUP2 CALLDATALOAD DUP2 DUP2 GT ISZERO PUSH2 0x3F04 JUMPI PUSH1 0x0 DUP1 REVERT JUMPDEST DUP14 PUSH1 0x20 DUP3 DUP6 ADD ADD GT ISZERO PUSH2 0x3F16 JUMPI PUSH1 0x0 DUP1 REVERT JUMPDEST PUSH1 0x20 DUP4 ADD SWAP5 POP DUP1 SWAP4 POP POP POP POP SWAP3 SWAP6 SWAP9 POP SWAP3 SWAP6 SWAP9 POP SWAP3 SWAP6 SWAP9 JUMP JUMPDEST PUSH1 0x0 DUP3 PUSH1 0x1F DUP4 ADD SLT PUSH2 0x3F40 JUMPI PUSH1 0x0 DUP1 REVERT JUMPDEST DUP2 CALLDATALOAD PUSH1 0x20 PUSH2 0x3F50 PUSH2 0x3C0B DUP4 PUSH2 0x3BC7 JUMP JUMPDEST DUP3 DUP2 MSTORE PUSH1 0x5 SWAP3 SWAP1 SWAP3 SHL DUP5 ADD DUP2 ADD SWAP2 DUP2 DUP2 ADD SWAP1 DUP7 DUP5 GT ISZERO PUSH2 0x3F6F JUMPI PUSH1 0x0 DUP1 REVERT JUMPDEST DUP3 DUP7 ADD JUMPDEST DUP5 DUP2 LT ISZERO PUSH2 0x3C53 JUMPI DUP1 CALLDATALOAD DUP4 MSTORE SWAP2 DUP4 ADD SWAP2 DUP4 ADD PUSH2 0x3F73 JUMP JUMPDEST PUSH1 0x0 DUP1 PUSH1 0x0 DUP1 PUSH1 0x80 DUP6 DUP8 SUB SLT ISZERO PUSH2 0x3FA0 JUMPI PUSH1 0x0 DUP1 REVERT JUMPDEST DUP5 CALLDATALOAD SWAP4 POP PUSH1 0x20 DUP6 ADD CALLDATALOAD PUSH1 0x1 PUSH1 0x1 PUSH1 0x40 SHL SUB DUP1 DUP3 GT ISZERO PUSH2 0x3FBE JUMPI PUSH1 0x0 DUP1 REVERT JUMPDEST PUSH2 0x3FCA DUP9 DUP4 DUP10 ADD PUSH2 0x3BEA JUMP JUMPDEST SWAP5 POP PUSH1 0x40 DUP8 ADD CALLDATALOAD SWAP2 POP DUP1 DUP3 GT ISZERO PUSH2 0x3FE0 JUMPI PUSH1 0x0 DUP1 REVERT JUMPDEST PUSH2 0x3FEC DUP9 DUP4 DUP10 ADD PUSH2 0x3F2F JUMP JUMPDEST SWAP4 POP PUSH1 0x60 DUP8 ADD CALLDATALOAD SWAP2 POP DUP1 DUP3 GT ISZERO PUSH2 0x4002 JUMPI PUSH1 0x0 DUP1 REVERT JUMPDEST POP PUSH2 0x3CB4 DUP8 DUP3 DUP9 ADD PUSH2 0x3BEA JUMP JUMPDEST PUSH1 0x0 DUP1 PUSH1 0x0 DUP1 PUSH1 0x0 PUSH1 0xA0 DUP7 DUP9 SUB SLT ISZERO PUSH2 0x4027 JUMPI PUSH1 0x0 DUP1 REVERT JUMPDEST DUP6 CALLDATALOAD SWAP5 POP PUSH1 0x20 DUP7 ADD CALLDATALOAD PUSH2 0x4039 DUP2 PUSH2 0x3B43 JUMP JUMPDEST SWAP4 POP PUSH1 0x40 DUP7 ADD CALLDATALOAD PUSH1 0x1 PUSH1 0x1 PUSH1 0x40 SHL SUB DUP1 DUP3 GT ISZERO PUSH2 0x4055 JUMPI PUSH1 0x0 DUP1 REVERT JUMPDEST PUSH2 0x4061 DUP10 DUP4 DUP11 ADD PUSH2 0x3BEA JUMP JUMPDEST SWAP5 POP PUSH1 0x60 DUP9 ADD CALLDATALOAD SWAP2 POP DUP1 DUP3 GT ISZERO PUSH2 0x4077 JUMPI PUSH1 0x0 DUP1 REVERT JUMPDEST POP PUSH2 0x4084 DUP9 DUP3 DUP10 ADD PUSH2 0x3F2F JUMP JUMPDEST SWAP3 POP POP PUSH1 0x80 DUP7 ADD CALLDATALOAD PUSH2 0x4095 DUP2 PUSH2 0x3B43 JUMP JUMPDEST DUP1 SWAP2 POP POP SWAP3 SWAP6 POP SWAP3 SWAP6 SWAP1 SWAP4 POP JUMP JUMPDEST PUSH1 0x0 DUP1 PUSH1 0x0 DUP1 PUSH1 0x0 PUSH1 0xA0 DUP7 DUP9 SUB SLT ISZERO PUSH2 0x40BB JUMPI PUSH1 0x0 DUP1 REVERT JUMPDEST DUP6 CALLDATALOAD SWAP5 POP PUSH1 0x20 DUP7 ADD CALLDATALOAD PUSH2 0x40CD DUP2 PUSH2 0x3B43 JUMP JUMPDEST SWAP4 POP PUSH1 0x40 DUP7 ADD CALLDATALOAD PUSH2 0x40DD DUP2 PUSH2 0x3B43 JUMP JUMPDEST SWAP3 POP PUSH1 0x60 DUP7 ADD CALLDATALOAD SWAP2 POP PUSH1 0x80 DUP7 ADD CALLDATALOAD PUSH2 0x4095 DUP2 PUSH2 0x3B43 JUMP JUMPDEST PUSH1 0x0 PUSH1 0x20 DUP3 DUP5 SUB SLT ISZERO PUSH2 0x4106 JUMPI PUSH1 0x0 DUP1 REVERT JUMPDEST PUSH1 0x40 MLOAD PUSH1 0x20 DUP2 ADD DUP2 DUP2 LT PUSH1 0x1 PUSH1 0x1 PUSH1 0x40 SHL SUB DUP3 GT OR ISZERO PUSH2 0x4128 JUMPI PUSH2 0x4128 PUSH2 0x3B58 JUMP JUMPDEST PUSH1 0x40 MSTORE SWAP2 MLOAD DUP3 MSTORE POP SWAP2 SWAP1 POP JUMP JUMPDEST DUP1 MLOAD PUSH16 0xFFFFFFFFFFFFFFFFFFFFFFFFFFFFFFFF DUP2 AND DUP2 EQ PUSH2 0x4155 JUMPI PUSH1 0x0 DUP1 REVERT JUMPDEST SWAP2 SWAP1 POP JUMP JUMPDEST DUP1 MLOAD PUSH5 0xFFFFFFFFFF DUP2 AND DUP2 EQ PUSH2 0x4155 JUMPI PUSH1 0x0 DUP1 REVERT JUMPDEST DUP1 MLOAD PUSH2 0x4155 DUP2 PUSH2 0x3B43 JUMP JUMPDEST PUSH1 0xFF DUP2 AND DUP2 EQ PUSH2 0x6EF JUMPI PUSH1 0x0 DUP1 REVERT JUMPDEST DUP1 MLOAD PUSH2 0x4155 DUP2 PUSH2 0x417A JUMP JUMPDEST PUSH1 0x0 PUSH2 0x180 DUP3 DUP5 SUB SLT ISZERO PUSH2 0x41A7 JUMPI PUSH1 0x0 DUP1 REVERT JUMPDEST PUSH2 0x41AF PUSH2 0x3B6E JUMP JUMPDEST PUSH2 0x41B9 DUP5 DUP5 PUSH2 0x40F4 JUMP JUMPDEST DUP2 MSTORE PUSH2 0x41C7 PUSH1 0x20 DUP5 ADD PUSH2 0x4135 JUMP JUMPDEST PUSH1 0x20 DUP3 ADD MSTORE PUSH2 0x41D8 PUSH1 0x40 DUP5 ADD PUSH2 0x4135 JUMP JUMPDEST PUSH1 0x40 DUP3 ADD MSTORE PUSH2 0x41E9 PUSH1 0x60 DUP5 ADD PUSH2 0x4135 JUMP JUMPDEST PUSH1 0x60 DUP3 ADD MSTORE PUSH2 0x41FA PUSH1 0x80 DUP5 ADD PUSH2 0x4135 JUMP JUMPDEST PUSH1 0x80 DUP3 ADD MSTORE PUSH2 0x420B PUSH1 0xA0 DUP5 ADD PUSH2 0x4135 JUMP JUMPDEST PUSH1 0xA0 DUP3 ADD MSTORE PUSH2 0x421C PUSH1 0xC0 DUP5 ADD PUSH2 0x415A JUMP JUMPDEST PUSH1 0xC0 DUP3 ADD MSTORE PUSH2 0x422D PUSH1 0xE0 DUP5 ADD PUSH2 0x416F JUMP JUMPDEST PUSH1 0xE0 DUP3 ADD MSTORE PUSH2 0x100 PUSH2 0x4240 DUP2 DUP6 ADD PUSH2 0x416F JUMP JUMPDEST SWAP1 DUP3 ADD MSTORE PUSH2 0x120 PUSH2 0x4252 DUP5 DUP3 ADD PUSH2 0x416F JUMP JUMPDEST SWAP1 DUP3 ADD MSTORE PUSH2 0x140 PUSH2 0x4264 DUP5 DUP3 ADD PUSH2 0x416F JUMP JUMPDEST SWAP1 DUP3 ADD MSTORE PUSH2 0x160 PUSH2 0x4276 DUP5 DUP3 ADD PUSH2 0x4189 JUMP JUMPDEST SWAP1 DUP3 ADD MSTORE SWAP4 SWAP3 POP POP POP JUMP JUMPDEST PUSH1 0x0 PUSH1 0x20 DUP3 DUP5 SUB SLT ISZERO PUSH2 0x4293 JUMPI PUSH1 0x0 DUP1 REVERT JUMPDEST POP MLOAD SWAP2 SWAP1 POP JUMP JUMPDEST PUSH1 0x0 DUP1 PUSH1 0x40 DUP4 DUP6 SUB SLT ISZERO PUSH2 0x42AD JUMPI PUSH1 0x0 DUP1 REVERT JUMPDEST POP POP DUP1 MLOAD PUSH1 0x20 SWAP1 SWAP2 ADD MLOAD SWAP1 SWAP3 SWAP1 SWAP2 POP JUMP JUMPDEST PUSH1 0x0 PUSH1 0x20 DUP3 DUP5 SUB SLT ISZERO PUSH2 0x42D0 JUMPI PUSH1 0x0 DUP1 REVERT JUMPDEST DUP2 MLOAD PUSH2 0x9EB DUP2 PUSH2 0x3B43 JUMP JUMPDEST PUSH4 0x4E487B71 PUSH1 0xE0 SHL PUSH1 0x0 MSTORE PUSH1 0x32 PUSH1 0x4 MSTORE PUSH1 0x24 PUSH1 0x0 REVERT JUMPDEST PUSH1 0x0 PUSH1 0x20 DUP3 DUP5 SUB SLT ISZERO PUSH2 0x4303 JUMPI PUSH1 0x0 DUP1 REVERT JUMPDEST DUP2 CALLDATALOAD PUSH2 0x9EB DUP2 PUSH2 0x417A JUMP JUMPDEST PUSH1 0x0 DUP1 PUSH1 0x0 DUP1 PUSH1 0x80 DUP6 DUP8 SUB SLT ISZERO PUSH2 0x4324 JUMPI PUSH1 0x0 DUP1 REVERT JUMPDEST DUP5 CALLDATALOAD PUSH2 0x432F DUP2 PUSH2 0x417A JUMP JUMPDEST SWAP4 POP PUSH1 0x20 DUP6 ADD CALLDATALOAD SWAP3 POP PUSH1 0x40 DUP6 ADD CALLDATALOAD PUSH2 0x4346 DUP2 PUSH2 0x3B43 JUMP JUMPDEST SWAP2 POP PUSH1 0x60 DUP6 ADD CALLDATALOAD PUSH1 0x1 PUSH1 0x1 PUSH1 0x40 SHL SUB DUP2 GT ISZERO PUSH2 0x3CA8 JUMPI PUSH1 0x0 DUP1 REVERT JUMPDEST PUSH1 0x0 DUP1 PUSH1 0x0 DUP1 PUSH1 0x80 DUP6 DUP8 SUB SLT ISZERO PUSH2 0x4377 JUMPI PUSH1 0x0 DUP1 REVERT JUMPDEST DUP5 CALLDATALOAD PUSH2 0x4382 DUP2 PUSH2 0x417A JUMP JUMPDEST SWAP4 POP PUSH1 0x20 DUP6 ADD CALLDATALOAD SWAP3 POP PUSH1 0x40 DUP6 ADD CALLDATALOAD PUSH2 0x4399 DUP2 PUSH2 0x3B43 JUMP JUMPDEST SWAP2 POP PUSH1 0x60 DUP6 ADD CALLDATALOAD PUSH2 0x3D80 DUP2 PUSH2 0x3B43 JUMP JUMPDEST PUSH1 0x0 DUP2 MLOAD DUP1 DUP5 MSTORE PUSH1 0x20 DUP1 DUP6 ADD SWAP5 POP DUP1 DUP5 ADD PUSH1 0x0 JUMPDEST DUP4 DUP2 LT ISZERO PUSH2 0x43E2 JUMPI DUP2 MLOAD PUSH1 0x1 PUSH1 0x1 PUSH1 0xA0 SHL SUB AND DUP8 MSTORE SWAP6 DUP3 ADD SWAP6 SWAP1 DUP3 ADD SWAP1 PUSH1 0x1 ADD PUSH2 0x43BD JUMP JUMPDEST POP SWAP5 SWAP6 SWAP5 POP POP POP POP POP JUMP JUMPDEST PUSH1 0xFF DUP6 AND DUP2 MSTORE DUP4 PUSH1 0x20 DUP3 ADD MSTORE PUSH1 0x1 DUP1 PUSH1 0xA0 SHL SUB DUP4 AND PUSH1 0x40 DUP3 ADD MSTORE PUSH1 0x80 PUSH1 0x60 DUP3 ADD MSTORE PUSH1 0x0 PUSH2 0x441D PUSH1 0x80 DUP4 ADD DUP5 PUSH2 0x43A9 JUMP JUMPDEST SWAP7 SWAP6 POP POP POP POP POP POP JUMP JUMPDEST PUSH1 0x0 DUP2 MLOAD DUP1 DUP5 MSTORE PUSH1 0x20 DUP1 DUP6 ADD SWAP5 POP DUP1 DUP5 ADD PUSH1 0x0 JUMPDEST DUP4 DUP2 LT ISZERO PUSH2 0x43E2 JUMPI DUP2 MLOAD DUP8 MSTORE SWAP6 DUP3 ADD SWAP6 SWAP1 DUP3 ADD SWAP1 PUSH1 0x1 ADD PUSH2 0x443B JUMP JUMPDEST PUSH1 0x0 JUMPDEST DUP4 DUP2 LT ISZERO PUSH2 0x4472 JUMPI DUP2 DUP2 ADD MLOAD DUP4 DUP3 ADD MSTORE PUSH1 0x20 ADD PUSH2 0x445A JUMP JUMPDEST POP POP PUSH1 0x0 SWAP2 ADD MSTORE JUMP JUMPDEST PUSH1 0x0 DUP2 MLOAD DUP1 DUP5 MSTORE PUSH2 0x4493 DUP2 PUSH1 0x20 DUP7 ADD PUSH1 0x20 DUP7 ADD PUSH2 0x4457 JUMP JUMPDEST PUSH1 0x1F ADD PUSH1 0x1F NOT AND SWAP3 SWAP1 SWAP3 ADD PUSH1 0x20 ADD SWAP3 SWAP2 POP POP JUMP JUMPDEST PUSH1 0x0 PUSH1 0x1 DUP1 PUSH1 0xA0 SHL SUB DUP1 DUP11 AND DUP4 MSTORE PUSH1 0xE0 PUSH1 0x20 DUP5 ADD MSTORE PUSH2 0x44C9 PUSH1 0xE0 DUP5 ADD DUP11 PUSH2 0x43A9 JUMP JUMPDEST DUP4 DUP2 SUB PUSH1 0x40 DUP6 ADD MSTORE PUSH2 0x44DB DUP2 DUP11 PUSH2 0x4427 JUMP JUMPDEST SWAP1 POP DUP4 DUP2 SUB PUSH1 0x60 DUP6 ADD MSTORE PUSH2 0x44EF DUP2 DUP10 PUSH2 0x4427 JUMP JUMPDEST SWAP1 POP DUP2 DUP8 AND PUSH1 0x80 DUP6 ADD MSTORE DUP4 DUP2 SUB PUSH1 0xA0 DUP6 ADD MSTORE PUSH2 0x450B DUP2 DUP8 PUSH2 0x447B JUMP JUMPDEST SWAP3 POP POP POP PUSH2 0xFFFF DUP4 AND PUSH1 0xC0 DUP4 ADD MSTORE SWAP9 SWAP8 POP POP POP POP POP POP POP POP JUMP JUMPDEST DUP3 DUP2 MSTORE PUSH1 0x40 PUSH1 0x20 DUP3 ADD MSTORE PUSH1 0x0 PUSH2 0x464 PUSH1 0x40 DUP4 ADD DUP5 PUSH2 0x43A9 JUMP JUMPDEST PUSH1 0x0 PUSH1 0x20 DUP1 DUP4 DUP6 SUB SLT ISZERO PUSH2 0x4551 JUMPI PUSH1 0x0 DUP1 REVERT JUMPDEST DUP3 MLOAD PUSH1 0x1 PUSH1 0x1 PUSH1 0x40 SHL SUB DUP2 GT ISZERO PUSH2 0x4567 JUMPI PUSH1 0x0 DUP1 REVERT JUMPDEST DUP4 ADD PUSH1 0x1F DUP2 ADD DUP6 SGT PUSH2 0x4578 JUMPI PUSH1 0x0 DUP1 REVERT JUMPDEST DUP1 MLOAD PUSH2 0x4586 PUSH2 0x3C0B DUP3 PUSH2 0x3BC7 JUMP JUMPDEST DUP2 DUP2 MSTORE PUSH1 0x5 SWAP2 SWAP1 SWAP2 SHL DUP3 ADD DUP4 ADD SWAP1 DUP4 DUP2 ADD SWAP1 DUP8 DUP4 GT ISZERO PUSH2 0x45A5 JUMPI PUSH1 0x0 DUP1 REVERT JUMPDEST SWAP3 DUP5 ADD SWAP3 JUMPDEST DUP3 DUP5 LT ISZERO PUSH2 0x3AFF JUMPI DUP4 MLOAD DUP3 MSTORE SWAP3 DUP5 ADD SWAP3 SWAP1 DUP5 ADD SWAP1 PUSH2 0x45AA JUMP JUMPDEST DUP6 DUP2 MSTORE DUP5 PUSH1 0x20 DUP3 ADD MSTORE PUSH1 0xA0 PUSH1 0x40 DUP3 ADD MSTORE PUSH1 0x0 PUSH2 0x45E2 PUSH1 0xA0 DUP4 ADD DUP7 PUSH2 0x43A9 JUMP JUMPDEST PUSH1 0x1 PUSH1 0x1 PUSH1 0xA0 SHL SUB SWAP5 SWAP1 SWAP5 AND PUSH1 0x60 DUP4 ADD MSTORE POP PUSH1 0x80 ADD MSTORE SWAP4 SWAP3 POP POP POP JUMP JUMPDEST DUP1 MLOAD DUP1 ISZERO ISZERO DUP2 EQ PUSH2 0x4155 JUMPI PUSH1 0x0 DUP1 REVERT JUMPDEST PUSH1 0x0 DUP1 PUSH1 0x0 DUP1 PUSH1 0x0 PUSH1 0xA0 DUP7 DUP9 SUB SLT ISZERO PUSH2 0x4627 JUMPI PUSH1 0x0 DUP1 REVERT JUMPDEST DUP6 MLOAD PUSH2 0x4632 DUP2 PUSH2 0x3B43 JUMP JUMPDEST PUSH1 0x20 DUP8 ADD MLOAD SWAP1 SWAP6 POP PUSH2 0x4643 DUP2 PUSH2 0x3B43 JUMP JUMPDEST PUSH1 0x40 DUP8 ADD MLOAD SWAP1 SWAP5 POP PUSH2 0x4654 DUP2 PUSH2 0x3B43 JUMP JUMPDEST PUSH1 0x60 DUP8 ADD MLOAD SWAP1 SWAP4 POP PUSH2 0x4665 DUP2 PUSH2 0x3B43 JUMP JUMPDEST SWAP2 POP PUSH2 0x4673 PUSH1 0x80 DUP8 ADD PUSH2 0x45FF JUMP JUMPDEST SWAP1 POP SWAP3 SWAP6 POP SWAP3 SWAP6 SWAP1 SWAP4 POP JUMP JUMPDEST PUSH1 0x1 PUSH1 0x1 PUSH1 0xA0 SHL SUB SWAP5 DUP6 AND DUP2 MSTORE PUSH1 0x20 DUP2 ADD SWAP4 SWAP1 SWAP4 MSTORE PUSH1 0x40 DUP4 ADD SWAP2 SWAP1 SWAP2 MSTORE SWAP1 SWAP2 AND PUSH1 0x60 DUP3 ADD MSTORE PUSH1 0x80 ADD SWAP1 JUMP JUMPDEST PUSH4 0x4E487B71 PUSH1 0xE0 SHL PUSH1 0x0 MSTORE PUSH1 0x11 PUSH1 0x4 MSTORE PUSH1 0x24 PUSH1 0x0 REVERT JUMPDEST DUP2 DUP2 SUB DUP2 DUP2 GT ISZERO PUSH2 0x46D3 JUMPI PUSH2 0x46D3 PUSH2 0x46AA JUMP JUMPDEST SWAP3 SWAP2 POP POP JUMP JUMPDEST PUSH1 0x0 DUP1 PUSH1 0x40 DUP4 DUP6 SUB SLT ISZERO PUSH2 0x46EC JUMPI PUSH1 0x0 DUP1 REVERT JUMPDEST DUP3 MLOAD PUSH2 0x46F7 DUP2 PUSH2 0x3B43 JUMP JUMPDEST PUSH1 0x20 DUP5 ADD MLOAD SWAP1 SWAP3 POP PUSH2 0x4708 DUP2 PUSH2 0x417A JUMP JUMPDEST DUP1 SWAP2 POP POP SWAP3 POP SWAP3 SWAP1 POP JUMP JUMPDEST DUP1 DUP3 MUL DUP2 ISZERO DUP3 DUP3 DIV DUP5 EQ OR PUSH2 0x46D3 JUMPI PUSH2 0x46D3 PUSH2 0x46AA JUMP JUMPDEST PUSH1 0x0 DUP3 PUSH2 0x4747 JUMPI PUSH4 0x4E487B71 PUSH1 0xE0 SHL PUSH1 0x0 MSTORE PUSH1 0x12 PUSH1 0x4 MSTORE PUSH1 0x24 PUSH1 0x0 REVERT JUMPDEST POP DIV SWAP1 JUMP JUMPDEST PUSH1 0x1 DUP2 DUP2 JUMPDEST DUP1 DUP6 GT ISZERO PUSH2 0x4787 JUMPI DUP2 PUSH1 0x0 NOT DIV DUP3 GT ISZERO PUSH2 0x476D JUMPI PUSH2 0x476D PUSH2 0x46AA JUMP JUMPDEST DUP1 DUP6 AND ISZERO PUSH2 0x477A JUMPI SWAP2 DUP2 MUL SWAP2 JUMPDEST SWAP4 DUP5 SHR SWAP4 SWAP1 DUP1 MUL SWAP1 PUSH2 0x4751 JUMP JUMPDEST POP SWAP3 POP SWAP3 SWAP1 POP JUMP JUMPDEST PUSH1 0x0 DUP3 PUSH2 0x479E JUMPI POP PUSH1 0x1 PUSH2 0x46D3 JUMP JUMPDEST DUP2 PUSH2 0x47AB JUMPI POP PUSH1 0x0 PUSH2 0x46D3 JUMP JUMPDEST DUP2 PUSH1 0x1 DUP2 EQ PUSH2 0x47C1 JUMPI PUSH1 0x2 DUP2 EQ PUSH2 0x47CB JUMPI PUSH2 0x47E7 JUMP JUMPDEST PUSH1 0x1 SWAP2 POP POP PUSH2 0x46D3 JUMP JUMPDEST PUSH1 0xFF DUP5 GT ISZERO PUSH2 0x47DC JUMPI PUSH2 0x47DC PUSH2 0x46AA JUMP JUMPDEST POP POP PUSH1 0x1 DUP3 SHL PUSH2 0x46D3 JUMP JUMPDEST POP PUSH1 0x20 DUP4 LT PUSH2 0x133 DUP4 LT AND PUSH1 0x4E DUP5 LT PUSH1 0xB DUP5 LT AND OR ISZERO PUSH2 0x480A JUMPI POP DUP2 DUP2 EXP PUSH2 0x46D3 JUMP JUMPDEST PUSH2 0x4814 DUP4 DUP4 PUSH2 0x474C JUMP JUMPDEST DUP1 PUSH1 0x0 NOT DIV DUP3 GT ISZERO PUSH2 0x4828 JUMPI PUSH2 0x4828 PUSH2 0x46AA JUMP JUMPDEST MUL SWAP4 SWAP3 POP POP POP JUMP JUMPDEST PUSH1 0x0 PUSH2 0x9EB PUSH1 0xFF DUP5 AND DUP4 PUSH2 0x478F JUMP JUMPDEST DUP1 DUP3 ADD DUP1 DUP3 GT ISZERO PUSH2 0x46D3 JUMPI PUSH2 0x46D3 PUSH2 0x46AA JUMP JUMPDEST PUSH1 0x0 PUSH1 0x20 DUP3 DUP5 SUB SLT ISZERO PUSH2 0x4864 JUMPI PUSH1 0x0 DUP1 REVERT JUMPDEST DUP2 MLOAD PUSH2 0x9EB DUP2 PUSH2 0x417A JUMP JUMPDEST PUSH1 0x0 PUSH1 0xFF DUP3 AND PUSH1 0xFF DUP2 SUB PUSH2 0x4885 JUMPI PUSH2 0x4885 PUSH2 0x46AA JUMP JUMPDEST PUSH1 0x1 ADD SWAP3 SWAP2 POP POP JUMP JUMPDEST PUSH1 0x0 PUSH1 0x20 DUP3 DUP5 SUB SLT ISZERO PUSH2 0x48A0 JUMPI PUSH1 0x0 DUP1 REVERT JUMPDEST PUSH2 0x9EB DUP3 PUSH2 0x45FF JUMP JUMPDEST PUSH1 0xFF DUP3 DUP2 AND DUP3 DUP3 AND SUB SWAP1 DUP2 GT ISZERO PUSH2 0x46D3 JUMPI PUSH2 0x46D3 PUSH2 0x46AA JUMP JUMPDEST PUSH1 0x0 DUP3 MLOAD PUSH2 0x48D4 DUP2 DUP5 PUSH1 0x20 DUP8 ADD PUSH2 0x4457 JUMP JUMPDEST SWAP2 SWAP1 SWAP2 ADD SWAP3 SWAP2 POP POP JUMP JUMPDEST PUSH1 0x20 DUP2 MSTORE PUSH1 0x0 PUSH2 0x9EB PUSH1 0x20 DUP4 ADD DUP5 PUSH2 0x447B JUMP INVALID LOG2 PUSH5 0x6970667358 0x22 SLT KECCAK256 SWAP3 CODECOPY 0xE9 0xA6 LOG0 PUSH1 0xC9 0xDB ADDRESS PUSH31 0xBD9859C23EF610598B826EA7B715E41C7BDF3E7CDC2F64736F6C6343000813 STOP CALLER ",
  "sha1": "f09ca3e177972407df919f234b09806c26f5eb2b",
  "source": "// SPDX-License-Identifier: UNLICENSED\npragma solidity 0.8.19;\n\nimport \"../PositionManager/PositionManager.sol\";\nimport \"../PositionManager/OptionsPositionManager.sol\";\n\n\n/// @notice Extend PositionManager to test interal function inaccessible code branches\ncontract Test_PositionManager is PositionManager {\n\n  /// @param roerouter address of the ROE pools router\n  constructor(address roerouter) PositionManager(roerouter) {}\n  \n  /// @notice test internal function getPoolAddresses\n  function test_getPoolAddresses(uint poolId) \n    external view \n    returns( ILendingPool lp, IPriceOracle oracle, IUniswapV2Router01 router, address token0, address token1) \n  {\n    (lp, oracle, router, token0, token1) = getPoolAddresses(poolId);\n  }\n  \n  /// @notice test internal function checkSetAllowance\n  function test_checkSetAllowance(address token, address spender, uint amount) external {\n    checkSetAllowance(token, spender, amount);\n  }\n\n  function test_cleanup(ILendingPool LP, address user, address asset) external {\n    cleanup(LP, user, asset);\n  }\n    \n}\n\n\n\n/// @notice Extend OptionsPositionManager to test interal function inaccessible code branches\ncontract Test_OptionsPositionManager is OptionsPositionManager {\n\n  /// @param roerouter address of the ROE pools router\n  constructor(address roerouter) OptionsPositionManager(roerouter) {}\n  \n  /// @notice test internal function checkExpectedBalances\n  function test_checkExpectedBalances(address debtAsset, uint debtAmount, uint token0Amount, uint token1Amount) external view {\n    checkExpectedBalances(debtAsset, debtAmount, token0Amount, token1Amount);\n  }\n  \n  /// @notice test internal function swapTokensForExactTokens\n  function test_swapTokensForExactTokens(IUniswapV2Router01 ammRouter, uint recvAmount, uint maxAmount, address[] memory path) external {\n    swapTokensForExactTokens(ammRouter, recvAmount, maxAmount, path);\n  }\n  \n  /// @notice test internal function swapTokensForExactTokens\n  function test_getTargetAmountFromOracle(IPriceOracle oracle, address assetA, uint amountA, address assetB)  external view returns (uint){\n    return getTargetAmountFromOracle(oracle, assetA, amountA, assetB) ;\n  }\n}",
  "sourcePath": "contracts/tests/Test.sol",
  "type": "contract"
}