{
  "abi": [
    {
      "inputs": [
        {
          "internalType": "int24",
          "name": "tick",
          "type": "int24"
        }
      ],
      "name": "getSqrtRatioAtTick",
      "outputs": [
        {
          "internalType": "uint160",
          "name": "sqrtPriceX96",
          "type": "uint160"
        }
      ],
      "stateMutability": "pure",
      "type": "function"
    },
    {
      "inputs": [
        {
          "internalType": "uint160",
          "name": "sqrtPriceX96",
          "type": "uint160"
        }
      ],
      "name": "getTickAtSqrtRatio",
      "outputs": [
        {
          "internalType": "int24",
          "name": "tick",
          "type": "int24"
        }
      ],
      "stateMutability": "pure",
      "type": "function"
    }
  ],
  "bytecode": "6109e061003a600b82828239805160001a60731461002d57634e487b7160e01b600052600060045260246000fd5b30600052607381538281f3fe73000000000000000000000000000000000000000030146080604052600436106100405760003560e01c80634f76c05814610045578063986cfba314610070575b600080fd5b610058610053366004610803565b61009b565b60405160029190910b81526020015b60405180910390f35b61008361007e366004610833565b6103e3565b6040516001600160a01b039091168152602001610067565b60006401000276a36001600160a01b038316108015906100d7575073fffd8963efd1fc6a506488495d951d5263988d266001600160a01b038316105b61010c5760405162461bcd60e51b81526020600482015260016024820152602960f91b60448201526064015b60405180910390fd5b640100000000600160c01b03602083901b166fffffffffffffffffffffffffffffffff811160071b81811c67ffffffffffffffff811160061b90811c63ffffffff811160051b90811c61ffff811160041b90811c60ff8111600390811b91821c600f811160021b90811c918211600190811b92831c979088119617909417909217179091171717608081106101b0576101a6607f8261086c565b83901c91506101c1565b6101bb81607f61086c565b83901b91505b600060406101d0608084610885565b901b9050828302607f1c92508260801c80603f1b8217915083811c935050828302607f1c92508260801c80603e1b8217915083811c935050828302607f1c92508260801c80603d1b8217915083811c935050828302607f1c92508260801c80603c1b8217915083811c935050828302607f1c92508260801c80603b1b8217915083811c935050828302607f1c92508260801c80603a1b8217915083811c935050828302607f1c92508260801c8060391b8217915083811c935050828302607f1c92508260801c8060381b8217915083811c935050828302607f1c92508260801c8060371b8217915083811c935050828302607f1c92508260801c8060361b8217915083811c935050828302607f1c92508260801c8060351b8217915083811c935050828302607f1c92508260801c8060341b8217915083811c935050828302607f1c92508260801c8060331b8217915083811c935050828302607f1c92508260801c8060321b8217915050600081693627a301d71055774c8561035391906108ac565b9050600060806103736f028f6481ab7f045a5af012a19d003aaa84610885565b901d905060006080610395846fdb2df09e81959a81455e260799a0632f6108dc565b901d90508060020b8260020b146103d457886001600160a01b03166103b9826103e3565b6001600160a01b031611156103ce57816103d6565b806103d6565b815b9998505050505050505050565b60008060008360020b126103fa578260020b610407565b8260020b61040790610904565b9050610416620d89e719610920565b60020b81111561044c5760405162461bcd60e51b81526020600482015260016024820152601560fa1b6044820152606401610103565b60008160011660000361046357600160801b610475565b6ffffcb933bd6fad37aa2d162d1a5940015b70ffffffffffffffffffffffffffffffffff16905060028216156104b45760806104af826ffff97272373d413259a46990580e213a610942565b901c90505b60048216156104de5760806104d9826ffff2e50f5f656932ef12357cf3c7fdcc610942565b901c90505b6008821615610508576080610503826fffe5caca7e10e4e61c3624eaa0941cd0610942565b901c90505b601082161561053257608061052d826fffcb9843d60f6159c9db58835c926644610942565b901c90505b602082161561055c576080610557826fff973b41fa98c081472e6896dfb254c0610942565b901c90505b6040821615610586576080610581826fff2ea16466c96a3843ec78b326b52861610942565b901c90505b60808216156105b05760806105ab826ffe5dee046a99a2a811c461f1969c3053610942565b901c90505b6101008216156105db5760806105d6826ffcbe86c7900a88aedcffc83b479aa3a4610942565b901c90505b610200821615610606576080610601826ff987a7253ac413176f2b074cf7815e54610942565b901c90505b61040082161561063157608061062c826ff3392b0822b70005940c7a398e4b70f3610942565b901c90505b61080082161561065c576080610657826fe7159475a2c29b7443b29c7fa6e889d9610942565b901c90505b611000821615610687576080610682826fd097f3bdfd2022b8845ad8f792aa5825610942565b901c90505b6120008216156106b25760806106ad826fa9f746462d870fdf8a65dc1f90e061e5610942565b901c90505b6140008216156106dd5760806106d8826f70d869a156d2a1b890bb3df62baf32f7610942565b901c90505b618000821615610708576080610703826f31be135f97d08fd981231505542fcfa6610942565b901c90505b6201000082161561073457608061072f826f09aa508b5b7a84e1c677de54f3e99bc9610942565b901c90505b6202000082161561075f57608061075a826e5d6af8dedb81196699c329225ee604610942565b901c90505b62040000821615610789576080610784826d2216e584f5fa1ea926041bedfe98610942565b901c90505b620800008216156107b15760806107ac826b048a170391f7dc42444e8fa2610942565b901c90505b60008460020b13156107cc576107c98160001961096f565b90505b6107db64010000000082610983565b156107e75760016107ea565b60005b6107fb9060ff16602083901c610997565b949350505050565b60006020828403121561081557600080fd5b81356001600160a01b038116811461082c57600080fd5b9392505050565b60006020828403121561084557600080fd5b81358060020b811461082c57600080fd5b634e487b7160e01b600052601160045260246000fd5b8181038181111561087f5761087f610856565b92915050565b81810360008312801583831316838312821617156108a5576108a5610856565b5092915050565b80820260008212600160ff1b841416156108c8576108c8610856565b818105831482151761087f5761087f610856565b80820182811260008312801582168215821617156108fc576108fc610856565b505092915050565b6000600160ff1b820161091957610919610856565b5060000390565b60008160020b627fffff19810361093957610939610856565b60000392915050565b808202811582820484141761087f5761087f610856565b634e487b7160e01b600052601260045260246000fd5b60008261097e5761097e610959565b500490565b60008261099257610992610959565b500690565b8082018082111561087f5761087f61085656fea26469706673582212208534d3a6cc32d8d06d5b9bac89edd0c79a0208716cf07dc062393862b9fc643364736f6c63430008150033",
  "bytecodeSha1": "473c7018a7c963bc6cdc7cc449365671786afe66",
  "compiler": {
    "evm_version": "istanbul",
    "optimizer": {
      "enabled": true,
      "runs": 200
    },
    "version": "0.8.21+commit.d9974bed"
  },
  "contractName": "TickMath",
  "language": "Solidity",
  "natspec": {
    "kind": "dev",
    "methods": {
      "getSqrtRatioAtTick(int24)": {
        "details": "Throws if |tick| > max tick",
        "notice": "Calculates sqrt(1.0001^tick) * 2^96",
        "params": {
          "tick": "The input tick for the above formula"
        },
        "returns": {
          "sqrtPriceX96": "A Fixed point Q64.96 number representing the sqrt of the ratio of the two assets (token1/token0) at the given tick"
        }
      },
      "getTickAtSqrtRatio(uint160)": {
        "details": "Throws in case sqrtPriceX96 < MIN_SQRT_RATIO, as MIN_SQRT_RATIO is the lowest value getRatioAtTick may ever return.",
        "notice": "Calculates the greatest tick value such that getRatioAtTick(tick) <= ratio",
        "params": {
          "sqrtPriceX96": "The sqrt ratio for which to compute the tick as a Q64.96"
        },
        "returns": {
          "tick": "The greatest tick for which the ratio is less than or equal to the input ratio"
        }
      }
    },
    "notice": "Computes sqrt price for ticks of size 1.0001, i.e. sqrt(1.0001^tick) as fixed point Q64.96 numbers. Supports prices between 2**-128 and 2**128",
    "stateVariables": {
      "MAX_SQRT_RATIO": {
        "details": "The maximum value that can be returned from #getSqrtRatioAtTick. Equivalent to getSqrtRatioAtTick(MAX_TICK)"
      },
      "MAX_TICK": {
        "details": "The maximum tick that may be passed to #getSqrtRatioAtTick computed from log base 1.0001 of 2**128"
      },
      "MIN_SQRT_RATIO": {
        "details": "The minimum value that can be returned from #getSqrtRatioAtTick. Equivalent to getSqrtRatioAtTick(MIN_TICK)"
      },
      "MIN_TICK": {
        "details": "The minimum tick that may be passed to #getSqrtRatioAtTick computed from log base 1.0001 of 2**-128"
      }
    },
    "title": "Math library for computing sqrt prices from ticks and vice versa",
    "version": 1
  },
  "opcodes": "PUSH20 0x0 ADDRESS EQ PUSH1 0x80 PUSH1 0x40 MSTORE PUSH1 0x4 CALLDATASIZE LT PUSH2 0x40 JUMPI PUSH1 0x0 CALLDATALOAD PUSH1 0xE0 SHR DUP1 PUSH4 0x4F76C058 EQ PUSH2 0x45 JUMPI DUP1 PUSH4 0x986CFBA3 EQ PUSH2 0x70 JUMPI JUMPDEST PUSH1 0x0 DUP1 REVERT JUMPDEST PUSH2 0x58 PUSH2 0x53 CALLDATASIZE PUSH1 0x4 PUSH2 0x803 JUMP JUMPDEST PUSH2 0x9B JUMP JUMPDEST PUSH1 0x40 MLOAD PUSH1 0x2 SWAP2 SWAP1 SWAP2 SIGNEXTEND DUP2 MSTORE PUSH1 0x20 ADD JUMPDEST PUSH1 0x40 MLOAD DUP1 SWAP2 SUB SWAP1 RETURN JUMPDEST PUSH2 0x83 PUSH2 0x7E CALLDATASIZE PUSH1 0x4 PUSH2 0x833 JUMP JUMPDEST PUSH2 0x3E3 JUMP JUMPDEST PUSH1 0x40 MLOAD PUSH1 0x1 PUSH1 0x1 PUSH1 0xA0 SHL SUB SWAP1 SWAP2 AND DUP2 MSTORE PUSH1 0x20 ADD PUSH2 0x67 JUMP JUMPDEST PUSH1 0x0 PUSH5 0x1000276A3 PUSH1 0x1 PUSH1 0x1 PUSH1 0xA0 SHL SUB DUP4 AND LT DUP1 ISZERO SWAP1 PUSH2 0xD7 JUMPI POP PUSH20 0xFFFD8963EFD1FC6A506488495D951D5263988D26 PUSH1 0x1 PUSH1 0x1 PUSH1 0xA0 SHL SUB DUP4 AND LT JUMPDEST PUSH2 0x10C JUMPI PUSH1 0x40 MLOAD PUSH3 0x461BCD PUSH1 0xE5 SHL DUP2 MSTORE PUSH1 0x20 PUSH1 0x4 DUP3 ADD MSTORE PUSH1 0x1 PUSH1 0x24 DUP3 ADD MSTORE PUSH1 0x29 PUSH1 0xF9 SHL PUSH1 0x44 DUP3 ADD MSTORE PUSH1 0x64 ADD JUMPDEST PUSH1 0x40 MLOAD DUP1 SWAP2 SUB SWAP1 REVERT JUMPDEST PUSH5 0x100000000 PUSH1 0x1 PUSH1 0xC0 SHL SUB PUSH1 0x20 DUP4 SWAP1 SHL AND PUSH16 0xFFFFFFFFFFFFFFFFFFFFFFFFFFFFFFFF DUP2 GT PUSH1 0x7 SHL DUP2 DUP2 SHR PUSH8 0xFFFFFFFFFFFFFFFF DUP2 GT PUSH1 0x6 SHL SWAP1 DUP2 SHR PUSH4 0xFFFFFFFF DUP2 GT PUSH1 0x5 SHL SWAP1 DUP2 SHR PUSH2 0xFFFF DUP2 GT PUSH1 0x4 SHL SWAP1 DUP2 SHR PUSH1 0xFF DUP2 GT PUSH1 0x3 SWAP1 DUP2 SHL SWAP2 DUP3 SHR PUSH1 0xF DUP2 GT PUSH1 0x2 SHL SWAP1 DUP2 SHR SWAP2 DUP3 GT PUSH1 0x1 SWAP1 DUP2 SHL SWAP3 DUP4 SHR SWAP8 SWAP1 DUP9 GT SWAP7 OR SWAP1 SWAP5 OR SWAP1 SWAP3 OR OR SWAP1 SWAP2 OR OR OR PUSH1 0x80 DUP2 LT PUSH2 0x1B0 JUMPI PUSH2 0x1A6 PUSH1 0x7F DUP3 PUSH2 0x86C JUMP JUMPDEST DUP4 SWAP1 SHR SWAP2 POP PUSH2 0x1C1 JUMP JUMPDEST PUSH2 0x1BB DUP2 PUSH1 0x7F PUSH2 0x86C JUMP JUMPDEST DUP4 SWAP1 SHL SWAP2 POP JUMPDEST PUSH1 0x0 PUSH1 0x40 PUSH2 0x1D0 PUSH1 0x80 DUP5 PUSH2 0x885 JUMP JUMPDEST SWAP1 SHL SWAP1 POP DUP3 DUP4 MUL PUSH1 0x7F SHR SWAP3 POP DUP3 PUSH1 0x80 SHR DUP1 PUSH1 0x3F SHL DUP3 OR SWAP2 POP DUP4 DUP2 SHR SWAP4 POP POP DUP3 DUP4 MUL PUSH1 0x7F SHR SWAP3 POP DUP3 PUSH1 0x80 SHR DUP1 PUSH1 0x3E SHL DUP3 OR SWAP2 POP DUP4 DUP2 SHR SWAP4 POP POP DUP3 DUP4 MUL PUSH1 0x7F SHR SWAP3 POP DUP3 PUSH1 0x80 SHR DUP1 PUSH1 0x3D SHL DUP3 OR SWAP2 POP DUP4 DUP2 SHR SWAP4 POP POP DUP3 DUP4 MUL PUSH1 0x7F SHR SWAP3 POP DUP3 PUSH1 0x80 SHR DUP1 PUSH1 0x3C SHL DUP3 OR SWAP2 POP DUP4 DUP2 SHR SWAP4 POP POP DUP3 DUP4 MUL PUSH1 0x7F SHR SWAP3 POP DUP3 PUSH1 0x80 SHR DUP1 PUSH1 0x3B SHL DUP3 OR SWAP2 POP DUP4 DUP2 SHR SWAP4 POP POP DUP3 DUP4 MUL PUSH1 0x7F SHR SWAP3 POP DUP3 PUSH1 0x80 SHR DUP1 PUSH1 0x3A SHL DUP3 OR SWAP2 POP DUP4 DUP2 SHR SWAP4 POP POP DUP3 DUP4 MUL PUSH1 0x7F SHR SWAP3 POP DUP3 PUSH1 0x80 SHR DUP1 PUSH1 0x39 SHL DUP3 OR SWAP2 POP DUP4 DUP2 SHR SWAP4 POP POP DUP3 DUP4 MUL PUSH1 0x7F SHR SWAP3 POP DUP3 PUSH1 0x80 SHR DUP1 PUSH1 0x38 SHL DUP3 OR SWAP2 POP DUP4 DUP2 SHR SWAP4 POP POP DUP3 DUP4 MUL PUSH1 0x7F SHR SWAP3 POP DUP3 PUSH1 0x80 SHR DUP1 PUSH1 0x37 SHL DUP3 OR SWAP2 POP DUP4 DUP2 SHR SWAP4 POP POP DUP3 DUP4 MUL PUSH1 0x7F SHR SWAP3 POP DUP3 PUSH1 0x80 SHR DUP1 PUSH1 0x36 SHL DUP3 OR SWAP2 POP DUP4 DUP2 SHR SWAP4 POP POP DUP3 DUP4 MUL PUSH1 0x7F SHR SWAP3 POP DUP3 PUSH1 0x80 SHR DUP1 PUSH1 0x35 SHL DUP3 OR SWAP2 POP DUP4 DUP2 SHR SWAP4 POP POP DUP3 DUP4 MUL PUSH1 0x7F SHR SWAP3 POP DUP3 PUSH1 0x80 SHR DUP1 PUSH1 0x34 SHL DUP3 OR SWAP2 POP DUP4 DUP2 SHR SWAP4 POP POP DUP3 DUP4 MUL PUSH1 0x7F SHR SWAP3 POP DUP3 PUSH1 0x80 SHR DUP1 PUSH1 0x33 SHL DUP3 OR SWAP2 POP DUP4 DUP2 SHR SWAP4 POP POP DUP3 DUP4 MUL PUSH1 0x7F SHR SWAP3 POP DUP3 PUSH1 0x80 SHR DUP1 PUSH1 0x32 SHL DUP3 OR SWAP2 POP POP PUSH1 0x0 DUP2 PUSH10 0x3627A301D71055774C85 PUSH2 0x353 SWAP2 SWAP1 PUSH2 0x8AC JUMP JUMPDEST SWAP1 POP PUSH1 0x0 PUSH1 0x80 PUSH2 0x373 PUSH16 0x28F6481AB7F045A5AF012A19D003AAA DUP5 PUSH2 0x885 JUMP JUMPDEST SWAP1 SAR SWAP1 POP PUSH1 0x0 PUSH1 0x80 PUSH2 0x395 DUP5 PUSH16 0xDB2DF09E81959A81455E260799A0632F PUSH2 0x8DC JUMP JUMPDEST SWAP1 SAR SWAP1 POP DUP1 PUSH1 0x2 SIGNEXTEND DUP3 PUSH1 0x2 SIGNEXTEND EQ PUSH2 0x3D4 JUMPI DUP9 PUSH1 0x1 PUSH1 0x1 PUSH1 0xA0 SHL SUB AND PUSH2 0x3B9 DUP3 PUSH2 0x3E3 JUMP JUMPDEST PUSH1 0x1 PUSH1 0x1 PUSH1 0xA0 SHL SUB AND GT ISZERO PUSH2 0x3CE JUMPI DUP2 PUSH2 0x3D6 JUMP JUMPDEST DUP1 PUSH2 0x3D6 JUMP JUMPDEST DUP2 JUMPDEST SWAP10 SWAP9 POP POP POP POP POP POP POP POP POP JUMP JUMPDEST PUSH1 0x0 DUP1 PUSH1 0x0 DUP4 PUSH1 0x2 SIGNEXTEND SLT PUSH2 0x3FA JUMPI DUP3 PUSH1 0x2 SIGNEXTEND PUSH2 0x407 JUMP JUMPDEST DUP3 PUSH1 0x2 SIGNEXTEND PUSH2 0x407 SWAP1 PUSH2 0x904 JUMP JUMPDEST SWAP1 POP PUSH2 0x416 PUSH3 0xD89E7 NOT PUSH2 0x920 JUMP JUMPDEST PUSH1 0x2 SIGNEXTEND DUP2 GT ISZERO PUSH2 0x44C JUMPI PUSH1 0x40 MLOAD PUSH3 0x461BCD PUSH1 0xE5 SHL DUP2 MSTORE PUSH1 0x20 PUSH1 0x4 DUP3 ADD MSTORE PUSH1 0x1 PUSH1 0x24 DUP3 ADD MSTORE PUSH1 0x15 PUSH1 0xFA SHL PUSH1 0x44 DUP3 ADD MSTORE PUSH1 0x64 ADD PUSH2 0x103 JUMP JUMPDEST PUSH1 0x0 DUP2 PUSH1 0x1 AND PUSH1 0x0 SUB PUSH2 0x463 JUMPI PUSH1 0x1 PUSH1 0x80 SHL PUSH2 0x475 JUMP JUMPDEST PUSH16 0xFFFCB933BD6FAD37AA2D162D1A594001 JUMPDEST PUSH17 0xFFFFFFFFFFFFFFFFFFFFFFFFFFFFFFFFFF AND SWAP1 POP PUSH1 0x2 DUP3 AND ISZERO PUSH2 0x4B4 JUMPI PUSH1 0x80 PUSH2 0x4AF DUP3 PUSH16 0xFFF97272373D413259A46990580E213A PUSH2 0x942 JUMP JUMPDEST SWAP1 SHR SWAP1 POP JUMPDEST PUSH1 0x4 DUP3 AND ISZERO PUSH2 0x4DE JUMPI PUSH1 0x80 PUSH2 0x4D9 DUP3 PUSH16 0xFFF2E50F5F656932EF12357CF3C7FDCC PUSH2 0x942 JUMP JUMPDEST SWAP1 SHR SWAP1 POP JUMPDEST PUSH1 0x8 DUP3 AND ISZERO PUSH2 0x508 JUMPI PUSH1 0x80 PUSH2 0x503 DUP3 PUSH16 0xFFE5CACA7E10E4E61C3624EAA0941CD0 PUSH2 0x942 JUMP JUMPDEST SWAP1 SHR SWAP1 POP JUMPDEST PUSH1 0x10 DUP3 AND ISZERO PUSH2 0x532 JUMPI PUSH1 0x80 PUSH2 0x52D DUP3 PUSH16 0xFFCB9843D60F6159C9DB58835C926644 PUSH2 0x942 JUMP JUMPDEST SWAP1 SHR SWAP1 POP JUMPDEST PUSH1 0x20 DUP3 AND ISZERO PUSH2 0x55C JUMPI PUSH1 0x80 PUSH2 0x557 DUP3 PUSH16 0xFF973B41FA98C081472E6896DFB254C0 PUSH2 0x942 JUMP JUMPDEST SWAP1 SHR SWAP1 POP JUMPDEST PUSH1 0x40 DUP3 AND ISZERO PUSH2 0x586 JUMPI PUSH1 0x80 PUSH2 0x581 DUP3 PUSH16 0xFF2EA16466C96A3843EC78B326B52861 PUSH2 0x942 JUMP JUMPDEST SWAP1 SHR SWAP1 POP JUMPDEST PUSH1 0x80 DUP3 AND ISZERO PUSH2 0x5B0 JUMPI PUSH1 0x80 PUSH2 0x5AB DUP3 PUSH16 0xFE5DEE046A99A2A811C461F1969C3053 PUSH2 0x942 JUMP JUMPDEST SWAP1 SHR SWAP1 POP JUMPDEST PUSH2 0x100 DUP3 AND ISZERO PUSH2 0x5DB JUMPI PUSH1 0x80 PUSH2 0x5D6 DUP3 PUSH16 0xFCBE86C7900A88AEDCFFC83B479AA3A4 PUSH2 0x942 JUMP JUMPDEST SWAP1 SHR SWAP1 POP JUMPDEST PUSH2 0x200 DUP3 AND ISZERO PUSH2 0x606 JUMPI PUSH1 0x80 PUSH2 0x601 DUP3 PUSH16 0xF987A7253AC413176F2B074CF7815E54 PUSH2 0x942 JUMP JUMPDEST SWAP1 SHR SWAP1 POP JUMPDEST PUSH2 0x400 DUP3 AND ISZERO PUSH2 0x631 JUMPI PUSH1 0x80 PUSH2 0x62C DUP3 PUSH16 0xF3392B0822B70005940C7A398E4B70F3 PUSH2 0x942 JUMP JUMPDEST SWAP1 SHR SWAP1 POP JUMPDEST PUSH2 0x800 DUP3 AND ISZERO PUSH2 0x65C JUMPI PUSH1 0x80 PUSH2 0x657 DUP3 PUSH16 0xE7159475A2C29B7443B29C7FA6E889D9 PUSH2 0x942 JUMP JUMPDEST SWAP1 SHR SWAP1 POP JUMPDEST PUSH2 0x1000 DUP3 AND ISZERO PUSH2 0x687 JUMPI PUSH1 0x80 PUSH2 0x682 DUP3 PUSH16 0xD097F3BDFD2022B8845AD8F792AA5825 PUSH2 0x942 JUMP JUMPDEST SWAP1 SHR SWAP1 POP JUMPDEST PUSH2 0x2000 DUP3 AND ISZERO PUSH2 0x6B2 JUMPI PUSH1 0x80 PUSH2 0x6AD DUP3 PUSH16 0xA9F746462D870FDF8A65DC1F90E061E5 PUSH2 0x942 JUMP JUMPDEST SWAP1 SHR SWAP1 POP JUMPDEST PUSH2 0x4000 DUP3 AND ISZERO PUSH2 0x6DD JUMPI PUSH1 0x80 PUSH2 0x6D8 DUP3 PUSH16 0x70D869A156D2A1B890BB3DF62BAF32F7 PUSH2 0x942 JUMP JUMPDEST SWAP1 SHR SWAP1 POP JUMPDEST PUSH2 0x8000 DUP3 AND ISZERO PUSH2 0x708 JUMPI PUSH1 0x80 PUSH2 0x703 DUP3 PUSH16 0x31BE135F97D08FD981231505542FCFA6 PUSH2 0x942 JUMP JUMPDEST SWAP1 SHR SWAP1 POP JUMPDEST PUSH3 0x10000 DUP3 AND ISZERO PUSH2 0x734 JUMPI PUSH1 0x80 PUSH2 0x72F DUP3 PUSH16 0x9AA508B5B7A84E1C677DE54F3E99BC9 PUSH2 0x942 JUMP JUMPDEST SWAP1 SHR SWAP1 POP JUMPDEST PUSH3 0x20000 DUP3 AND ISZERO PUSH2 0x75F JUMPI PUSH1 0x80 PUSH2 0x75A DUP3 PUSH15 0x5D6AF8DEDB81196699C329225EE604 PUSH2 0x942 JUMP JUMPDEST SWAP1 SHR SWAP1 POP JUMPDEST PUSH3 0x40000 DUP3 AND ISZERO PUSH2 0x789 JUMPI PUSH1 0x80 PUSH2 0x784 DUP3 PUSH14 0x2216E584F5FA1EA926041BEDFE98 PUSH2 0x942 JUMP JUMPDEST SWAP1 SHR SWAP1 POP JUMPDEST PUSH3 0x80000 DUP3 AND ISZERO PUSH2 0x7B1 JUMPI PUSH1 0x80 PUSH2 0x7AC DUP3 PUSH12 0x48A170391F7DC42444E8FA2 PUSH2 0x942 JUMP JUMPDEST SWAP1 SHR SWAP1 POP JUMPDEST PUSH1 0x0 DUP5 PUSH1 0x2 SIGNEXTEND SGT ISZERO PUSH2 0x7CC JUMPI PUSH2 0x7C9 DUP2 PUSH1 0x0 NOT PUSH2 0x96F JUMP JUMPDEST SWAP1 POP JUMPDEST PUSH2 0x7DB PUSH5 0x100000000 DUP3 PUSH2 0x983 JUMP JUMPDEST ISZERO PUSH2 0x7E7 JUMPI PUSH1 0x1 PUSH2 0x7EA JUMP JUMPDEST PUSH1 0x0 JUMPDEST PUSH2 0x7FB SWAP1 PUSH1 0xFF AND PUSH1 0x20 DUP4 SWAP1 SHR PUSH2 0x997 JUMP JUMPDEST SWAP5 SWAP4 POP POP POP POP JUMP JUMPDEST PUSH1 0x0 PUSH1 0x20 DUP3 DUP5 SUB SLT ISZERO PUSH2 0x815 JUMPI PUSH1 0x0 DUP1 REVERT JUMPDEST DUP2 CALLDATALOAD PUSH1 0x1 PUSH1 0x1 PUSH1 0xA0 SHL SUB DUP2 AND DUP2 EQ PUSH2 0x82C JUMPI PUSH1 0x0 DUP1 REVERT JUMPDEST SWAP4 SWAP3 POP POP POP JUMP JUMPDEST PUSH1 0x0 PUSH1 0x20 DUP3 DUP5 SUB SLT ISZERO PUSH2 0x845 JUMPI PUSH1 0x0 DUP1 REVERT JUMPDEST DUP2 CALLDATALOAD DUP1 PUSH1 0x2 SIGNEXTEND DUP2 EQ PUSH2 0x82C JUMPI PUSH1 0x0 DUP1 REVERT JUMPDEST PUSH4 0x4E487B71 PUSH1 0xE0 SHL PUSH1 0x0 MSTORE PUSH1 0x11 PUSH1 0x4 MSTORE PUSH1 0x24 PUSH1 0x0 REVERT JUMPDEST DUP2 DUP2 SUB DUP2 DUP2 GT ISZERO PUSH2 0x87F JUMPI PUSH2 0x87F PUSH2 0x856 JUMP JUMPDEST SWAP3 SWAP2 POP POP JUMP JUMPDEST DUP2 DUP2 SUB PUSH1 0x0 DUP4 SLT DUP1 ISZERO DUP4 DUP4 SGT AND DUP4 DUP4 SLT DUP3 AND OR ISZERO PUSH2 0x8A5 JUMPI PUSH2 0x8A5 PUSH2 0x856 JUMP JUMPDEST POP SWAP3 SWAP2 POP POP JUMP JUMPDEST DUP1 DUP3 MUL PUSH1 0x0 DUP3 SLT PUSH1 0x1 PUSH1 0xFF SHL DUP5 EQ AND ISZERO PUSH2 0x8C8 JUMPI PUSH2 0x8C8 PUSH2 0x856 JUMP JUMPDEST DUP2 DUP2 SDIV DUP4 EQ DUP3 ISZERO OR PUSH2 0x87F JUMPI PUSH2 0x87F PUSH2 0x856 JUMP JUMPDEST DUP1 DUP3 ADD DUP3 DUP2 SLT PUSH1 0x0 DUP4 SLT DUP1 ISZERO DUP3 AND DUP3 ISZERO DUP3 AND OR ISZERO PUSH2 0x8FC JUMPI PUSH2 0x8FC PUSH2 0x856 JUMP JUMPDEST POP POP SWAP3 SWAP2 POP POP JUMP JUMPDEST PUSH1 0x0 PUSH1 0x1 PUSH1 0xFF SHL DUP3 ADD PUSH2 0x919 JUMPI PUSH2 0x919 PUSH2 0x856 JUMP JUMPDEST POP PUSH1 0x0 SUB SWAP1 JUMP JUMPDEST PUSH1 0x0 DUP2 PUSH1 0x2 SIGNEXTEND PUSH3 0x7FFFFF NOT DUP2 SUB PUSH2 0x939 JUMPI PUSH2 0x939 PUSH2 0x856 JUMP JUMPDEST PUSH1 0x0 SUB SWAP3 SWAP2 POP POP JUMP JUMPDEST DUP1 DUP3 MUL DUP2 ISZERO DUP3 DUP3 DIV DUP5 EQ OR PUSH2 0x87F JUMPI PUSH2 0x87F PUSH2 0x856 JUMP JUMPDEST PUSH4 0x4E487B71 PUSH1 0xE0 SHL PUSH1 0x0 MSTORE PUSH1 0x12 PUSH1 0x4 MSTORE PUSH1 0x24 PUSH1 0x0 REVERT JUMPDEST PUSH1 0x0 DUP3 PUSH2 0x97E JUMPI PUSH2 0x97E PUSH2 0x959 JUMP JUMPDEST POP DIV SWAP1 JUMP JUMPDEST PUSH1 0x0 DUP3 PUSH2 0x992 JUMPI PUSH2 0x992 PUSH2 0x959 JUMP JUMPDEST POP MOD SWAP1 JUMP JUMPDEST DUP1 DUP3 ADD DUP1 DUP3 GT ISZERO PUSH2 0x87F JUMPI PUSH2 0x87F PUSH2 0x856 JUMP INVALID LOG2 PUSH5 0x6970667358 0x22 SLT KECCAK256 DUP6 CALLVALUE 0xD3 0xA6 0xCC ORIGIN 0xD8 0xD0 PUSH14 0x5B9BAC89EDD0C79A0208716CF07D 0xC0 PUSH3 0x393862 0xB9 0xFC PUSH5 0x3364736F6C PUSH4 0x43000815 STOP CALLER ",
  "sha1": "dace7e6b3c23f4fc1f22757260f334a1d81519c8",
  "source": "// SPDX-License-Identifier: GPL-3.0\npragma solidity ^0.8.4;\n\n/// @title Math library for computing sqrt prices from ticks and vice versa\n/// @notice Computes sqrt price for ticks of size 1.0001, i.e. sqrt(1.0001^tick) as fixed point Q64.96 numbers. Supports\n/// prices between 2**-128 and 2**128\nlibrary TickMath {\n    /// @dev The minimum tick that may be passed to #getSqrtRatioAtTick computed from log base 1.0001 of 2**-128\n    int24 internal constant MIN_TICK = -887272;\n    /// @dev The maximum tick that may be passed to #getSqrtRatioAtTick computed from log base 1.0001 of 2**128\n    int24 internal constant MAX_TICK = -MIN_TICK;\n\n    /// @dev The minimum value that can be returned from #getSqrtRatioAtTick. Equivalent to getSqrtRatioAtTick(MIN_TICK)\n    uint160 internal constant MIN_SQRT_RATIO = 4295128739;\n    /// @dev The maximum value that can be returned from #getSqrtRatioAtTick. Equivalent to getSqrtRatioAtTick(MAX_TICK)\n    uint160 internal constant MAX_SQRT_RATIO =\n        1461446703485210103287273052203988822378723970342;\n\n    /// @notice Calculates sqrt(1.0001^tick) * 2^96\n    /// @dev Throws if |tick| > max tick\n    /// @param tick The input tick for the above formula\n    /// @return sqrtPriceX96 A Fixed point Q64.96 number representing the sqrt of the ratio of the two assets (token1/token0)\n    /// at the given tick\n    function getSqrtRatioAtTick(int24 tick)\n        public\n        pure\n        returns (uint160 sqrtPriceX96)\n    {\n        uint256 absTick =\n            tick < 0 ? uint256(-int256(tick)) : uint256(int256(tick));\n\n        // EDIT: 0.8 compatibility\n        require(absTick <= uint256(int256(MAX_TICK)), \"T\");\n\n        uint256 ratio =\n            absTick & 0x1 != 0\n                ? 0xfffcb933bd6fad37aa2d162d1a594001\n                : 0x100000000000000000000000000000000;\n        if (absTick & 0x2 != 0)\n            ratio = (ratio * 0xfff97272373d413259a46990580e213a) >> 128;\n        if (absTick & 0x4 != 0)\n            ratio = (ratio * 0xfff2e50f5f656932ef12357cf3c7fdcc) >> 128;\n        if (absTick & 0x8 != 0)\n            ratio = (ratio * 0xffe5caca7e10e4e61c3624eaa0941cd0) >> 128;\n        if (absTick & 0x10 != 0)\n            ratio = (ratio * 0xffcb9843d60f6159c9db58835c926644) >> 128;\n        if (absTick & 0x20 != 0)\n            ratio = (ratio * 0xff973b41fa98c081472e6896dfb254c0) >> 128;\n        if (absTick & 0x40 != 0)\n            ratio = (ratio * 0xff2ea16466c96a3843ec78b326b52861) >> 128;\n        if (absTick & 0x80 != 0)\n            ratio = (ratio * 0xfe5dee046a99a2a811c461f1969c3053) >> 128;\n        if (absTick & 0x100 != 0)\n            ratio = (ratio * 0xfcbe86c7900a88aedcffc83b479aa3a4) >> 128;\n        if (absTick & 0x200 != 0)\n            ratio = (ratio * 0xf987a7253ac413176f2b074cf7815e54) >> 128;\n        if (absTick & 0x400 != 0)\n            ratio = (ratio * 0xf3392b0822b70005940c7a398e4b70f3) >> 128;\n        if (absTick & 0x800 != 0)\n            ratio = (ratio * 0xe7159475a2c29b7443b29c7fa6e889d9) >> 128;\n        if (absTick & 0x1000 != 0)\n            ratio = (ratio * 0xd097f3bdfd2022b8845ad8f792aa5825) >> 128;\n        if (absTick & 0x2000 != 0)\n            ratio = (ratio * 0xa9f746462d870fdf8a65dc1f90e061e5) >> 128;\n        if (absTick & 0x4000 != 0)\n            ratio = (ratio * 0x70d869a156d2a1b890bb3df62baf32f7) >> 128;\n        if (absTick & 0x8000 != 0)\n            ratio = (ratio * 0x31be135f97d08fd981231505542fcfa6) >> 128;\n        if (absTick & 0x10000 != 0)\n            ratio = (ratio * 0x9aa508b5b7a84e1c677de54f3e99bc9) >> 128;\n        if (absTick & 0x20000 != 0)\n            ratio = (ratio * 0x5d6af8dedb81196699c329225ee604) >> 128;\n        if (absTick & 0x40000 != 0)\n            ratio = (ratio * 0x2216e584f5fa1ea926041bedfe98) >> 128;\n        if (absTick & 0x80000 != 0)\n            ratio = (ratio * 0x48a170391f7dc42444e8fa2) >> 128;\n\n        if (tick > 0) ratio = type(uint256).max / ratio;\n\n        // this divides by 1<<32 rounding up to go from a Q128.128 to a Q128.96.\n        // we then downcast because we know the result always fits within 160 bits due to our tick input constraint\n        // we round up in the division so getTickAtSqrtRatio of the output price is always consistent\n        sqrtPriceX96 = uint160(\n            (ratio >> 32) + (ratio % (1 << 32) == 0 ? 0 : 1)\n        );\n    }\n\n    /// @notice Calculates the greatest tick value such that getRatioAtTick(tick) <= ratio\n    /// @dev Throws in case sqrtPriceX96 < MIN_SQRT_RATIO, as MIN_SQRT_RATIO is the lowest value getRatioAtTick may\n    /// ever return.\n    /// @param sqrtPriceX96 The sqrt ratio for which to compute the tick as a Q64.96\n    /// @return tick The greatest tick for which the ratio is less than or equal to the input ratio\n    function getTickAtSqrtRatio(uint160 sqrtPriceX96)\n        public\n        pure\n        returns (int24 tick)\n    {\n        // second inequality must be < because the price can never reach the price at the max tick\n        require(\n            sqrtPriceX96 >= MIN_SQRT_RATIO && sqrtPriceX96 < MAX_SQRT_RATIO,\n            \"R\"\n        );\n        uint256 ratio = uint256(sqrtPriceX96) << 32;\n\n        uint256 r = ratio;\n        uint256 msb = 0;\n\n        assembly {\n            let f := shl(7, gt(r, 0xFFFFFFFFFFFFFFFFFFFFFFFFFFFFFFFF))\n            msb := or(msb, f)\n            r := shr(f, r)\n        }\n        assembly {\n            let f := shl(6, gt(r, 0xFFFFFFFFFFFFFFFF))\n            msb := or(msb, f)\n            r := shr(f, r)\n        }\n        assembly {\n            let f := shl(5, gt(r, 0xFFFFFFFF))\n            msb := or(msb, f)\n            r := shr(f, r)\n        }\n        assembly {\n            let f := shl(4, gt(r, 0xFFFF))\n            msb := or(msb, f)\n            r := shr(f, r)\n        }\n        assembly {\n            let f := shl(3, gt(r, 0xFF))\n            msb := or(msb, f)\n            r := shr(f, r)\n        }\n        assembly {\n            let f := shl(2, gt(r, 0xF))\n            msb := or(msb, f)\n            r := shr(f, r)\n        }\n        assembly {\n            let f := shl(1, gt(r, 0x3))\n            msb := or(msb, f)\n            r := shr(f, r)\n        }\n        assembly {\n            let f := gt(r, 0x1)\n            msb := or(msb, f)\n        }\n\n        if (msb >= 128) r = ratio >> (msb - 127);\n        else r = ratio << (127 - msb);\n\n        int256 log_2 = (int256(msb) - 128) << 64;\n\n        assembly {\n            r := shr(127, mul(r, r))\n            let f := shr(128, r)\n            log_2 := or(log_2, shl(63, f))\n            r := shr(f, r)\n        }\n        assembly {\n            r := shr(127, mul(r, r))\n            let f := shr(128, r)\n            log_2 := or(log_2, shl(62, f))\n            r := shr(f, r)\n        }\n        assembly {\n            r := shr(127, mul(r, r))\n            let f := shr(128, r)\n            log_2 := or(log_2, shl(61, f))\n            r := shr(f, r)\n        }\n        assembly {\n            r := shr(127, mul(r, r))\n            let f := shr(128, r)\n            log_2 := or(log_2, shl(60, f))\n            r := shr(f, r)\n        }\n        assembly {\n            r := shr(127, mul(r, r))\n            let f := shr(128, r)\n            log_2 := or(log_2, shl(59, f))\n            r := shr(f, r)\n        }\n        assembly {\n            r := shr(127, mul(r, r))\n            let f := shr(128, r)\n            log_2 := or(log_2, shl(58, f))\n            r := shr(f, r)\n        }\n        assembly {\n            r := shr(127, mul(r, r))\n            let f := shr(128, r)\n            log_2 := or(log_2, shl(57, f))\n            r := shr(f, r)\n        }\n        assembly {\n            r := shr(127, mul(r, r))\n            let f := shr(128, r)\n            log_2 := or(log_2, shl(56, f))\n            r := shr(f, r)\n        }\n        assembly {\n            r := shr(127, mul(r, r))\n            let f := shr(128, r)\n            log_2 := or(log_2, shl(55, f))\n            r := shr(f, r)\n        }\n        assembly {\n            r := shr(127, mul(r, r))\n            let f := shr(128, r)\n            log_2 := or(log_2, shl(54, f))\n            r := shr(f, r)\n        }\n        assembly {\n            r := shr(127, mul(r, r))\n            let f := shr(128, r)\n            log_2 := or(log_2, shl(53, f))\n            r := shr(f, r)\n        }\n        assembly {\n            r := shr(127, mul(r, r))\n            let f := shr(128, r)\n            log_2 := or(log_2, shl(52, f))\n            r := shr(f, r)\n        }\n        assembly {\n            r := shr(127, mul(r, r))\n            let f := shr(128, r)\n            log_2 := or(log_2, shl(51, f))\n            r := shr(f, r)\n        }\n        assembly {\n            r := shr(127, mul(r, r))\n            let f := shr(128, r)\n            log_2 := or(log_2, shl(50, f))\n        }\n\n        int256 log_sqrt10001 = log_2 * 255738958999603826347141; // 128.128 number\n\n        int24 tickLow =\n            int24(\n                (log_sqrt10001 - 3402992956809132418596140100660247210) >> 128\n            );\n        int24 tickHi =\n            int24(\n                (log_sqrt10001 + 291339464771989622907027621153398088495) >> 128\n            );\n\n        tick = tickLow == tickHi\n            ? tickLow\n            : getSqrtRatioAtTick(tickHi) <= sqrtPriceX96\n            ? tickHi\n            : tickLow;\n    }\n}\n\n",
  "sourcePath": "contracts/lib/TickMath.sol",
  "type": "library"
}