{
  "abi": [
    {
      "inputs": [],
      "name": "getDeadline",
      "outputs": [
        {
          "internalType": "uint64",
          "name": "",
          "type": "uint64"
        }
      ],
      "stateMutability": "view",
      "type": "function"
    },
    {
      "inputs": [],
      "name": "isExpired",
      "outputs": [
        {
          "internalType": "bool",
          "name": "",
          "type": "bool"
        }
      ],
      "stateMutability": "view",
      "type": "function"
    },
    {
      "inputs": [],
      "name": "isPending",
      "outputs": [
        {
          "internalType": "bool",
          "name": "",
          "type": "bool"
        }
      ],
      "stateMutability": "view",
      "type": "function"
    },
    {
      "inputs": [],
      "name": "isStarted",
      "outputs": [
        {
          "internalType": "bool",
          "name": "",
          "type": "bool"
        }
      ],
      "stateMutability": "view",
      "type": "function"
    },
    {
      "inputs": [],
      "name": "isUnset",
      "outputs": [
        {
          "internalType": "bool",
          "name": "",
          "type": "bool"
        }
      ],
      "stateMutability": "view",
      "type": "function"
    },
    {
      "inputs": [],
      "name": "reset",
      "outputs": [],
      "stateMutability": "nonpayable",
      "type": "function"
    },
    {
      "inputs": [
        {
          "internalType": "uint64",
          "name": "timestamp",
          "type": "uint64"
        }
      ],
      "name": "setDeadline",
      "outputs": [],
      "stateMutability": "nonpayable",
      "type": "function"
    }
  ],
  "bytecode": "608060405234801561001057600080fd5b50610243806100206000396000f3fe608060405234801561001057600080fd5b506004361061007d5760003560e01c80635f8d96de1161005b5780635f8d96de146100e05780639c30ad7e14610107578063aebc04831461012a578063d826f88f1461015c57600080fd5b80632260fe3a146100825780632f13b60c146100b5578063544736e6146100bd575b600080fd5b604080516020810190915260005467ffffffffffffffff1690819052155b60405190151581526020015b60405180910390f35b6100a0610169565b604080516020810190915260005467ffffffffffffffff169081905215156100a0565b604080516020808201835260005467ffffffffffffffff16918290529151908152016100ac565b604080516020810190915260005467ffffffffffffffff169081905242106100a0565b61015a6101383660046101dc565b6000805467ffffffffffffffff831667ffffffffffffffff1990911617905550565b005b61015a61018e565b905090565b60408051602081019091526000805467ffffffffffffffff16825290610164906101a6565b6101a46000805467ffffffffffffffff19169055565b565b60006101bc825167ffffffffffffffff16151590565b80156101d6575042826000015167ffffffffffffffff1611155b92915050565b6000602082840312156101ee57600080fd5b813567ffffffffffffffff8116811461020657600080fd5b939250505056fea2646970667358221220115dfe5f540a5f210425f972305a0946f66dba2157eb83a112e7cc06a52c5a8964736f6c63430008150033",
  "bytecodeSha1": "dece59c7e1755db183dfef6ec2f434cf590bbfc8",
  "compiler": {
    "evm_version": "istanbul",
    "optimizer": {
      "enabled": true,
      "runs": 200
    },
    "version": "0.8.21+commit.d9974bed"
  },
  "contractName": "TimersTimestampImpl",
  "language": "Solidity",
  "natspec": {
    "kind": "dev",
    "methods": {},
    "version": 1
  },
  "opcodes": "PUSH1 0x80 PUSH1 0x40 MSTORE CALLVALUE DUP1 ISZERO PUSH2 0x10 JUMPI PUSH1 0x0 DUP1 REVERT JUMPDEST POP PUSH1 0x4 CALLDATASIZE LT PUSH2 0x7D JUMPI PUSH1 0x0 CALLDATALOAD PUSH1 0xE0 SHR DUP1 PUSH4 0x5F8D96DE GT PUSH2 0x5B JUMPI DUP1 PUSH4 0x5F8D96DE EQ PUSH2 0xE0 JUMPI DUP1 PUSH4 0x9C30AD7E EQ PUSH2 0x107 JUMPI DUP1 PUSH4 0xAEBC0483 EQ PUSH2 0x12A JUMPI DUP1 PUSH4 0xD826F88F EQ PUSH2 0x15C JUMPI PUSH1 0x0 DUP1 REVERT JUMPDEST DUP1 PUSH4 0x2260FE3A EQ PUSH2 0x82 JUMPI DUP1 PUSH4 0x2F13B60C EQ PUSH2 0xB5 JUMPI DUP1 PUSH4 0x544736E6 EQ PUSH2 0xBD JUMPI JUMPDEST PUSH1 0x0 DUP1 REVERT JUMPDEST PUSH1 0x40 DUP1 MLOAD PUSH1 0x20 DUP2 ADD SWAP1 SWAP2 MSTORE PUSH1 0x0 SLOAD PUSH8 0xFFFFFFFFFFFFFFFF AND SWAP1 DUP2 SWAP1 MSTORE ISZERO JUMPDEST PUSH1 0x40 MLOAD SWAP1 ISZERO ISZERO DUP2 MSTORE PUSH1 0x20 ADD JUMPDEST PUSH1 0x40 MLOAD DUP1 SWAP2 SUB SWAP1 RETURN JUMPDEST PUSH2 0xA0 PUSH2 0x169 JUMP JUMPDEST PUSH1 0x40 DUP1 MLOAD PUSH1 0x20 DUP2 ADD SWAP1 SWAP2 MSTORE PUSH1 0x0 SLOAD PUSH8 0xFFFFFFFFFFFFFFFF AND SWAP1 DUP2 SWAP1 MSTORE ISZERO ISZERO PUSH2 0xA0 JUMP JUMPDEST PUSH1 0x40 DUP1 MLOAD PUSH1 0x20 DUP1 DUP3 ADD DUP4 MSTORE PUSH1 0x0 SLOAD PUSH8 0xFFFFFFFFFFFFFFFF AND SWAP2 DUP3 SWAP1 MSTORE SWAP2 MLOAD SWAP1 DUP2 MSTORE ADD PUSH2 0xAC JUMP JUMPDEST PUSH1 0x40 DUP1 MLOAD PUSH1 0x20 DUP2 ADD SWAP1 SWAP2 MSTORE PUSH1 0x0 SLOAD PUSH8 0xFFFFFFFFFFFFFFFF AND SWAP1 DUP2 SWAP1 MSTORE TIMESTAMP LT PUSH2 0xA0 JUMP JUMPDEST PUSH2 0x15A PUSH2 0x138 CALLDATASIZE PUSH1 0x4 PUSH2 0x1DC JUMP JUMPDEST PUSH1 0x0 DUP1 SLOAD PUSH8 0xFFFFFFFFFFFFFFFF DUP4 AND PUSH8 0xFFFFFFFFFFFFFFFF NOT SWAP1 SWAP2 AND OR SWAP1 SSTORE POP JUMP JUMPDEST STOP JUMPDEST PUSH2 0x15A PUSH2 0x18E JUMP JUMPDEST SWAP1 POP SWAP1 JUMP JUMPDEST PUSH1 0x40 DUP1 MLOAD PUSH1 0x20 DUP2 ADD SWAP1 SWAP2 MSTORE PUSH1 0x0 DUP1 SLOAD PUSH8 0xFFFFFFFFFFFFFFFF AND DUP3 MSTORE SWAP1 PUSH2 0x164 SWAP1 PUSH2 0x1A6 JUMP JUMPDEST PUSH2 0x1A4 PUSH1 0x0 DUP1 SLOAD PUSH8 0xFFFFFFFFFFFFFFFF NOT AND SWAP1 SSTORE JUMP JUMPDEST JUMP JUMPDEST PUSH1 0x0 PUSH2 0x1BC DUP3 MLOAD PUSH8 0xFFFFFFFFFFFFFFFF AND ISZERO ISZERO SWAP1 JUMP JUMPDEST DUP1 ISZERO PUSH2 0x1D6 JUMPI POP TIMESTAMP DUP3 PUSH1 0x0 ADD MLOAD PUSH8 0xFFFFFFFFFFFFFFFF AND GT ISZERO JUMPDEST SWAP3 SWAP2 POP POP JUMP JUMPDEST PUSH1 0x0 PUSH1 0x20 DUP3 DUP5 SUB SLT ISZERO PUSH2 0x1EE JUMPI PUSH1 0x0 DUP1 REVERT JUMPDEST DUP2 CALLDATALOAD PUSH8 0xFFFFFFFFFFFFFFFF DUP2 AND DUP2 EQ PUSH2 0x206 JUMPI PUSH1 0x0 DUP1 REVERT JUMPDEST SWAP4 SWAP3 POP POP POP JUMP INVALID LOG2 PUSH5 0x6970667358 0x22 SLT KECCAK256 GT 0x5D INVALID PUSH0 SLOAD EXP PUSH0 0x21 DIV 0x25 0xF9 PUSH19 0x305A0946F66DBA2157EB83A112E7CC06A52C5A DUP10 PUSH5 0x736F6C6343 STOP ADDMOD ISZERO STOP CALLER ",
  "sha1": "e4611dd88cf1614d3c836bfb524ceb3aa7b2ba22",
  "source": "// SPDX-License-Identifier: MIT\n\npragma solidity ^0.8.0;\n\nimport \"../utils/Timers.sol\";\n\ncontract TimersTimestampImpl {\n    using Timers for Timers.Timestamp;\n\n    Timers.Timestamp private _timer;\n\n    function getDeadline() public view returns (uint64) {\n        return _timer.getDeadline();\n    }\n\n    function setDeadline(uint64 timestamp) public {\n        _timer.setDeadline(timestamp);\n    }\n\n    function reset() public {\n        _timer.reset();\n    }\n\n    function isUnset() public view returns (bool) {\n        return _timer.isUnset();\n    }\n\n    function isStarted() public view returns (bool) {\n        return _timer.isStarted();\n    }\n\n    function isPending() public view returns (bool) {\n        return _timer.isPending();\n    }\n\n    function isExpired() public view returns (bool) {\n        return _timer.isExpired();\n    }\n}\n",
  "sourcePath": "contracts/openzeppelin-solidity/contracts/mocks/TimersTimestampImpl.sol",
  "type": "contract"
}