{
  "abi": [
    {
      "anonymous": false,
      "inputs": [
        {
          "indexed": true,
          "internalType": "address",
          "name": "owner",
          "type": "address"
        },
        {
          "indexed": true,
          "internalType": "address",
          "name": "spender",
          "type": "address"
        },
        {
          "indexed": false,
          "internalType": "uint256",
          "name": "value",
          "type": "uint256"
        }
      ],
      "name": "Approval",
      "type": "event"
    },
    {
      "anonymous": false,
      "inputs": [
        {
          "indexed": false,
          "internalType": "uint256",
          "name": "fee0",
          "type": "uint256"
        },
        {
          "indexed": false,
          "internalType": "uint256",
          "name": "fee1",
          "type": "uint256"
        }
      ],
      "name": "ClaimFees",
      "type": "event"
    },
    {
      "anonymous": false,
      "inputs": [
        {
          "indexed": false,
          "internalType": "address",
          "name": "sender",
          "type": "address"
        },
        {
          "indexed": false,
          "internalType": "uint256",
          "name": "trAmount",
          "type": "uint256"
        }
      ],
      "name": "Deposit",
      "type": "event"
    },
    {
      "anonymous": false,
      "inputs": [
        {
          "indexed": false,
          "internalType": "address",
          "name": "asset0",
          "type": "address"
        },
        {
          "indexed": false,
          "internalType": "address",
          "name": "asset1",
          "type": "address"
        },
        {
          "indexed": false,
          "internalType": "uint128",
          "name": "startX10",
          "type": "uint128"
        },
        {
          "indexed": false,
          "internalType": "uint128",
          "name": "endX10",
          "type": "uint128"
        }
      ],
      "name": "InitTR",
      "type": "event"
    },
    {
      "anonymous": false,
      "inputs": [
        {
          "indexed": true,
          "internalType": "address",
          "name": "from",
          "type": "address"
        },
        {
          "indexed": true,
          "internalType": "address",
          "name": "to",
          "type": "address"
        },
        {
          "indexed": false,
          "internalType": "uint256",
          "name": "value",
          "type": "uint256"
        }
      ],
      "name": "Transfer",
      "type": "event"
    },
    {
      "anonymous": false,
      "inputs": [
        {
          "indexed": false,
          "internalType": "address",
          "name": "sender",
          "type": "address"
        },
        {
          "indexed": false,
          "internalType": "uint256",
          "name": "trAmount",
          "type": "uint256"
        }
      ],
      "name": "Withdraw",
      "type": "event"
    },
    {
      "inputs": [],
      "name": "ORACLE",
      "outputs": [
        {
          "internalType": "contract IAaveOracle",
          "name": "",
          "type": "address"
        }
      ],
      "stateMutability": "view",
      "type": "function"
    },
    {
      "inputs": [],
      "name": "POS_MGR",
      "outputs": [
        {
          "internalType": "contract INonfungiblePositionManager",
          "name": "",
          "type": "address"
        }
      ],
      "stateMutability": "view",
      "type": "function"
    },
    {
      "inputs": [],
      "name": "TOKEN0",
      "outputs": [
        {
          "internalType": "contract ERC20",
          "name": "token",
          "type": "address"
        },
        {
          "internalType": "uint8",
          "name": "decimals",
          "type": "uint8"
        }
      ],
      "stateMutability": "view",
      "type": "function"
    },
    {
      "inputs": [],
      "name": "TOKEN1",
      "outputs": [
        {
          "internalType": "contract ERC20",
          "name": "token",
          "type": "address"
        },
        {
          "internalType": "uint8",
          "name": "decimals",
          "type": "uint8"
        }
      ],
      "stateMutability": "view",
      "type": "function"
    },
    {
      "inputs": [],
      "name": "TREASURY_DEPRECATED",
      "outputs": [
        {
          "internalType": "address",
          "name": "",
          "type": "address"
        }
      ],
      "stateMutability": "view",
      "type": "function"
    },
    {
      "inputs": [],
      "name": "V3_FACTORY",
      "outputs": [
        {
          "internalType": "contract IUniswapV3Factory",
          "name": "",
          "type": "address"
        }
      ],
      "stateMutability": "view",
      "type": "function"
    },
    {
      "inputs": [
        {
          "internalType": "address",
          "name": "owner",
          "type": "address"
        },
        {
          "internalType": "address",
          "name": "spender",
          "type": "address"
        }
      ],
      "name": "allowance",
      "outputs": [
        {
          "internalType": "uint256",
          "name": "",
          "type": "uint256"
        }
      ],
      "stateMutability": "view",
      "type": "function"
    },
    {
      "inputs": [
        {
          "internalType": "address",
          "name": "spender",
          "type": "address"
        },
        {
          "internalType": "uint256",
          "name": "amount",
          "type": "uint256"
        }
      ],
      "name": "approve",
      "outputs": [
        {
          "internalType": "bool",
          "name": "",
          "type": "bool"
        }
      ],
      "stateMutability": "nonpayable",
      "type": "function"
    },
    {
      "inputs": [
        {
          "internalType": "address",
          "name": "account",
          "type": "address"
        }
      ],
      "name": "balanceOf",
      "outputs": [
        {
          "internalType": "uint256",
          "name": "",
          "type": "uint256"
        }
      ],
      "stateMutability": "view",
      "type": "function"
    },
    {
      "inputs": [],
      "name": "claimFee",
      "outputs": [],
      "stateMutability": "nonpayable",
      "type": "function"
    },
    {
      "inputs": [],
      "name": "decimals",
      "outputs": [
        {
          "internalType": "uint8",
          "name": "",
          "type": "uint8"
        }
      ],
      "stateMutability": "view",
      "type": "function"
    },
    {
      "inputs": [
        {
          "internalType": "address",
          "name": "spender",
          "type": "address"
        },
        {
          "internalType": "uint256",
          "name": "subtractedValue",
          "type": "uint256"
        }
      ],
      "name": "decreaseAllowance",
      "outputs": [
        {
          "internalType": "bool",
          "name": "",
          "type": "bool"
        }
      ],
      "stateMutability": "nonpayable",
      "type": "function"
    },
    {
      "inputs": [
        {
          "internalType": "uint256",
          "name": "n0",
          "type": "uint256"
        },
        {
          "internalType": "uint256",
          "name": "n1",
          "type": "uint256"
        }
      ],
      "name": "deposit",
      "outputs": [
        {
          "internalType": "uint256",
          "name": "lpAmt",
          "type": "uint256"
        }
      ],
      "stateMutability": "nonpayable",
      "type": "function"
    },
    {
      "inputs": [],
      "name": "fee0",
      "outputs": [
        {
          "internalType": "uint256",
          "name": "",
          "type": "uint256"
        }
      ],
      "stateMutability": "view",
      "type": "function"
    },
    {
      "inputs": [],
      "name": "fee1",
      "outputs": [
        {
          "internalType": "uint256",
          "name": "",
          "type": "uint256"
        }
      ],
      "stateMutability": "view",
      "type": "function"
    },
    {
      "inputs": [],
      "name": "feeTier",
      "outputs": [
        {
          "internalType": "uint24",
          "name": "",
          "type": "uint24"
        }
      ],
      "stateMutability": "view",
      "type": "function"
    },
    {
      "inputs": [
        {
          "internalType": "uint256",
          "name": "amount",
          "type": "uint256"
        }
      ],
      "name": "getTokenAmounts",
      "outputs": [
        {
          "internalType": "uint256",
          "name": "token0Amount",
          "type": "uint256"
        },
        {
          "internalType": "uint256",
          "name": "token1Amount",
          "type": "uint256"
        }
      ],
      "stateMutability": "view",
      "type": "function"
    },
    {
      "inputs": [
        {
          "internalType": "uint256",
          "name": "amount",
          "type": "uint256"
        }
      ],
      "name": "getTokenAmountsExcludingFees",
      "outputs": [
        {
          "internalType": "uint256",
          "name": "token0Amount",
          "type": "uint256"
        },
        {
          "internalType": "uint256",
          "name": "token1Amount",
          "type": "uint256"
        }
      ],
      "stateMutability": "view",
      "type": "function"
    },
    {
      "inputs": [
        {
          "internalType": "uint256",
          "name": "TOKEN0_PRICE",
          "type": "uint256"
        },
        {
          "internalType": "uint256",
          "name": "TOKEN1_PRICE",
          "type": "uint256"
        }
      ],
      "name": "getValuePerLPAtPrice",
      "outputs": [
        {
          "internalType": "uint256",
          "name": "priceX1e8",
          "type": "uint256"
        }
      ],
      "stateMutability": "view",
      "type": "function"
    },
    {
      "inputs": [
        {
          "internalType": "address",
          "name": "spender",
          "type": "address"
        },
        {
          "internalType": "uint256",
          "name": "addedValue",
          "type": "uint256"
        }
      ],
      "name": "increaseAllowance",
      "outputs": [
        {
          "internalType": "bool",
          "name": "",
          "type": "bool"
        }
      ],
      "stateMutability": "nonpayable",
      "type": "function"
    },
    {
      "inputs": [
        {
          "internalType": "uint256",
          "name": "n0",
          "type": "uint256"
        },
        {
          "internalType": "uint256",
          "name": "n1",
          "type": "uint256"
        }
      ],
      "name": "init",
      "outputs": [],
      "stateMutability": "nonpayable",
      "type": "function"
    },
    {
      "inputs": [
        {
          "internalType": "contract IAaveOracle",
          "name": "_oracle",
          "type": "address"
        },
        {
          "internalType": "contract ERC20",
          "name": "asset0",
          "type": "address"
        },
        {
          "internalType": "contract ERC20",
          "name": "asset1",
          "type": "address"
        },
        {
          "internalType": "uint128",
          "name": "startX10",
          "type": "uint128"
        },
        {
          "internalType": "uint128",
          "name": "endX10",
          "type": "uint128"
        },
        {
          "internalType": "string",
          "name": "startName",
          "type": "string"
        },
        {
          "internalType": "string",
          "name": "endName",
          "type": "string"
        },
        {
          "internalType": "bool",
          "name": "isTicker",
          "type": "bool"
        }
      ],
      "name": "initProxy",
      "outputs": [],
      "stateMutability": "nonpayable",
      "type": "function"
    },
    {
      "inputs": [],
      "name": "latestAnswer",
      "outputs": [
        {
          "internalType": "uint256",
          "name": "priceX1e8",
          "type": "uint256"
        }
      ],
      "stateMutability": "view",
      "type": "function"
    },
    {
      "inputs": [],
      "name": "liquidity",
      "outputs": [
        {
          "internalType": "uint128",
          "name": "",
          "type": "uint128"
        }
      ],
      "stateMutability": "view",
      "type": "function"
    },
    {
      "inputs": [],
      "name": "lowerTick",
      "outputs": [
        {
          "internalType": "int24",
          "name": "",
          "type": "int24"
        }
      ],
      "stateMutability": "view",
      "type": "function"
    },
    {
      "inputs": [],
      "name": "name",
      "outputs": [
        {
          "internalType": "string",
          "name": "",
          "type": "string"
        }
      ],
      "stateMutability": "view",
      "type": "function"
    },
    {
      "inputs": [
        {
          "internalType": "uint256",
          "name": "TOKEN0_PRICE",
          "type": "uint256"
        },
        {
          "internalType": "uint256",
          "name": "TOKEN1_PRICE",
          "type": "uint256"
        }
      ],
      "name": "returnExpectedBalance",
      "outputs": [
        {
          "internalType": "uint256",
          "name": "amt0",
          "type": "uint256"
        },
        {
          "internalType": "uint256",
          "name": "amt1",
          "type": "uint256"
        }
      ],
      "stateMutability": "view",
      "type": "function"
    },
    {
      "inputs": [],
      "name": "status",
      "outputs": [
        {
          "internalType": "enum TokenisableRange.ProxyState",
          "name": "",
          "type": "uint8"
        }
      ],
      "stateMutability": "view",
      "type": "function"
    },
    {
      "inputs": [],
      "name": "symbol",
      "outputs": [
        {
          "internalType": "string",
          "name": "",
          "type": "string"
        }
      ],
      "stateMutability": "view",
      "type": "function"
    },
    {
      "inputs": [],
      "name": "tokenId",
      "outputs": [
        {
          "internalType": "uint256",
          "name": "",
          "type": "uint256"
        }
      ],
      "stateMutability": "view",
      "type": "function"
    },
    {
      "inputs": [],
      "name": "totalSupply",
      "outputs": [
        {
          "internalType": "uint256",
          "name": "",
          "type": "uint256"
        }
      ],
      "stateMutability": "view",
      "type": "function"
    },
    {
      "inputs": [
        {
          "internalType": "address",
          "name": "recipient",
          "type": "address"
        },
        {
          "internalType": "uint256",
          "name": "amount",
          "type": "uint256"
        }
      ],
      "name": "transfer",
      "outputs": [
        {
          "internalType": "bool",
          "name": "",
          "type": "bool"
        }
      ],
      "stateMutability": "nonpayable",
      "type": "function"
    },
    {
      "inputs": [
        {
          "internalType": "address",
          "name": "sender",
          "type": "address"
        },
        {
          "internalType": "address",
          "name": "recipient",
          "type": "address"
        },
        {
          "internalType": "uint256",
          "name": "amount",
          "type": "uint256"
        }
      ],
      "name": "transferFrom",
      "outputs": [
        {
          "internalType": "bool",
          "name": "",
          "type": "bool"
        }
      ],
      "stateMutability": "nonpayable",
      "type": "function"
    },
    {
      "inputs": [],
      "name": "treasury",
      "outputs": [
        {
          "internalType": "address",
          "name": "",
          "type": "address"
        }
      ],
      "stateMutability": "view",
      "type": "function"
    },
    {
      "inputs": [],
      "name": "treasuryFee",
      "outputs": [
        {
          "internalType": "uint256",
          "name": "",
          "type": "uint256"
        }
      ],
      "stateMutability": "view",
      "type": "function"
    },
    {
      "inputs": [],
      "name": "treasuryFee_deprecated",
      "outputs": [
        {
          "internalType": "uint256",
          "name": "",
          "type": "uint256"
        }
      ],
      "stateMutability": "view",
      "type": "function"
    },
    {
      "inputs": [],
      "name": "upperTick",
      "outputs": [
        {
          "internalType": "int24",
          "name": "",
          "type": "int24"
        }
      ],
      "stateMutability": "view",
      "type": "function"
    },
    {
      "inputs": [
        {
          "internalType": "uint256",
          "name": "lp",
          "type": "uint256"
        },
        {
          "internalType": "uint256",
          "name": "amount0Min",
          "type": "uint256"
        },
        {
          "internalType": "uint256",
          "name": "amount1Min",
          "type": "uint256"
        }
      ],
      "name": "withdraw",
      "outputs": [
        {
          "internalType": "uint256",
          "name": "removed0",
          "type": "uint256"
        },
        {
          "internalType": "uint256",
          "name": "removed1",
          "type": "uint256"
        }
      ],
      "stateMutability": "nonpayable",
      "type": "function"
    }
  ],
  "bytecode": "6080604052601180546001600160a01b0319167322cc3f665ba4c898226353b672c5123c5875169217905560146012553480156200003c57600080fd5b5060408051602080820183526000808352835191820190935291825290600362000067838262000129565b50600462000076828262000129565b5050600160055550620001f5565b634e487b7160e01b600052604160045260246000fd5b600181811c90821680620000af57607f821691505b602082108103620000d057634e487b7160e01b600052602260045260246000fd5b50919050565b601f8211156200012457600081815260208120601f850160051c81016020861015620000ff5750805b601f850160051c820191505b8181101562000120578281556001016200010b565b5050505b505050565b81516001600160401b0381111562000145576200014562000084565b6200015d816200015684546200009a565b84620000d6565b602080601f8311600181146200019557600084156200017c5750858301515b600019600386901b1c1916600185901b17855562000120565b600085815260208120601f198616915b82811015620001c657888601518255948401946001909101908401620001a5565b5085821015620001e55787850151600019600388901b60f8161c191681555b5050505050600190811b01905550565b61459a80620002056000396000f3fe608060405234801561001057600080fd5b50600436106102325760003560e01c80637040919411610130578063a5843f08116100b8578063d1f7e92b1161007c578063d1f7e92b1461054e578063d351887714610561578063dd62ed3e14610574578063e2bbb158146105ad578063e3526af4146105c057600080fd5b8063a5843f0814610502578063a9059cbb14610515578063bd865cba14610528578063c60982561461053d578063cc32d1761461054657600080fd5b806395d89b41116100ff57806395d89b41146104bd57806399d32fc4146104c55780639b1344ac146104cf578063a41fe49f146104dc578063a457c2d7146104ef57600080fd5b8063704091941461043057806370a0823114610443578063727dd2281461046c57806372f5d98a1461049357600080fd5b806338013f02116101be578063449247aa11610182578063449247aa146103d2578063470f6e1d146103e557806350d25bcd146103ee5780635ee04d78146103f657806361d027b31461041557600080fd5b806338013f021461033157806339509351146103445780633b4e06e614610357578063443ec74d1461037f57806344919d7b146103bf57600080fd5b806318160ddd1161020557806318160ddd146102c25780631a686502146102ca578063200d2ed2146102f557806323b872dd1461030f578063313ce5671461032257600080fd5b806306fdde031461023757806308bd1a8514610255578063095ea7b31461028857806317d70f7c146102ab575b600080fd5b61023f6105c9565b60405161024c91906138e6565b60405180910390f35b610270731f98431c8ad98523631ae4a59f267346ea31f98481565b6040516001600160a01b03909116815260200161024c565b61029b610296366004613931565b61065b565b604051901515815260200161024c565b6102b460075481565b60405190815260200161024c565b6002546102b4565b6010546102dd906001600160801b031681565b6040516001600160801b03909116815260200161024c565b600f546103029060ff1681565b60405161024c9190613973565b61029b61031d36600461399b565b610672565b6040516012815260200161024c565b600c54610270906001600160a01b031681565b61029b610352366004613931565b610721565b61036a6103653660046139dc565b61075d565b6040805192835260208301919091520161024c565b600a5461039e906001600160a01b03811690600160a01b900460ff1682565b604080516001600160a01b03909316835260ff90911660208301520161024c565b6102b46103cd3660046139f5565b6107c7565b601154610270906001600160a01b031681565b6102b460125481565b6102b461088a565b600b5461039e906001600160a01b03811690600160a01b900460ff1682565b6102707322cc3f665ba4c898226353b672c5123c5875169281565b61036a61043e3660046139f5565b610975565b6102b4610451366004613a17565b6001600160a01b031660009081526020819052604090205490565b600654610480906301000000900460020b81565b60405160029190910b815260200161024c565b6006546104a990600160301b900462ffffff1681565b60405162ffffff909116815260200161024c565b61023f6109ad565b6104cd6109bc565b005b6006546104809060020b81565b61036a6104ea366004613a34565b610fa7565b61029b6104fd366004613931565b611359565b6104cd6105103660046139f5565b6113f2565b61029b610523366004613931565b6117a9565b61027060008051602061454583398151915281565b6102b460095481565b6102b4601481565b61036a61055c3660046139dc565b6117b6565b6104cd61056f366004613b58565b611a29565b6102b4610582366004613c2a565b6001600160a01b03918216600090815260016020908152604080832093909416825291909152205490565b6102b46105bb3660046139f5565b6121cf565b6102b460085481565b6060600d80546105d890613c63565b80601f016020809104026020016040519081016040528092919081815260200182805461060490613c63565b80156106515780601f1061062657610100808354040283529160200191610651565b820191906000526020600020905b81548152906001019060200180831161063457829003601f168201915b5050505050905090565b6000610668338484612b2c565b5060015b92915050565b6001600160a01b0383166000908152600160209081526040808320338452909152812054828110156106fc5760405162461bcd60e51b815260206004820152602860248201527f45524332303a207472616e7366657220616d6f756e74206578636565647320616044820152676c6c6f77616e636560c01b60648201526084015b60405180910390fd5b6107098533858403612b2c565b610714858585612c50565b60019150505b9392505050565b3360008181526001602090815260408083206001600160a01b03871684529091528120549091610668918590610758908690613cad565b612b2c565b600080610769836117b6565b60025491935091508360085461077f9190613cc0565b6107899190613ced565b6107939083613cad565b915061079e60025490565b836009546107ac9190613cc0565b6107b69190613ced565b6107c09082613cad565b9050915091565b60006107d260025490565b6000036107e15750600061066c565b6000806107ee8585610975565b600b54919350915060009061080e90600160a01b900460ff16600a613de5565b6108188684613cc0565b6108229190613ced565b600a805461083b91600160a01b90910460ff1690613de5565b6108458589613cc0565b61084f9190613ced565b6108599190613cad565b905061086460025490565b61087682670de0b6b3a7640000613cc0565b6108809190613ced565b9695505050505050565b600c54600a5460405163b3596f0760e01b81526001600160a01b03918216600482015260009261097092169063b3596f0790602401602060405180830381865afa1580156108dc573d6000803e3d6000fd5b505050506040513d601f19601f820116820180604052508101906109009190613df4565b600c54600b5460405163b3596f0760e01b81526001600160a01b03918216600482015291169063b3596f0790602401602060405180830381865afa15801561094c573d6000803e3d6000fd5b505050506040513d601f19601f820116820180604052508101906103cd9190613df4565b905090565b6000806109828484612e20565b60085491935091506109949083613cad565b9150600954816109a49190613cad565b90509250929050565b6060600e80546105d890613c63565b6040805160808101825260075481523060208201526001600160801b038183018190526060820152905163fc6f786560e01b815260009182916000805160206145458339815191529163fc6f786591610a189190600401613e0d565b60408051808303816000875af1158015610a36573d6000803e3d6000fd5b505050506040513d601f19601f82011682018060405250810190610a5a9190613e50565b91509150816000148015610a6c575080155b15610a75575050565b60006064610a84601485613cc0565b610a8e9190613ced565b905060006064610a9f601485613cc0565b610aa99190613ced565b90508115610adc57600a54610adc906001600160a01b03167322cc3f665ba4c898226353b672c5123c5875169284612fc4565b8015610b0d57600b54610b0d906001600160a01b03167322cc3f665ba4c898226353b672c5123c5875169283612fc4565b8184600854610b1c9190613cad565b610b269190613e74565b6008556009548190610b39908590613cad565b610b439190613e74565b600955600080610b538180612e20565b91509150816008546064610b679190613cc0565b118015610b815750806009546064610b7f9190613cc0565b115b15610f6657600854600a54610bb1916001600160a01b03909116906000805160206145458339815191529061302c565b600954600b54610bdc916001600160a01b03909116906000805160206145458339815191529061302c565b6040805160c0810182526007548152600854602082015260095481830152600060608201819052608082018190524260a0830152915163219f5d1760e01b8152829182916000805160206145458339815191529163219f5d1791610c439190600401613e87565b6060604051808303816000875af1158015610c62573d6000803e3d6000fd5b505050506040513d601f19601f82011682018060405250810190610c869190613ecb565b600c54600a5460405163b3596f0760e01b81526001600160a01b03918216600482015294975092955090935060009291169063b3596f0790602401602060405180830381865afa158015610cde573d6000803e3d6000fd5b505050506040513d601f19601f82011682018060405250810190610d029190613df4565b600c54600b5460405163b3596f0760e01b81526001600160a01b03918216600482015292935060009291169063b3596f0790602401602060405180830381865afa158015610d54573d6000803e3d6000fd5b505050506040513d601f19601f82011682018060405250810190610d789190613df4565b600b54909150600090610d9690600160a01b900460ff16600a613de5565b610da08386613cc0565b610daa9190613ced565b600a8054610dc391600160a01b90910460ff1690613de5565b610dcd8588613cc0565b610dd79190613ced565b610de19190613cad565b600b54909150600090610dff90600160a01b900460ff16600a613de5565b610e09848a613cc0565b610e139190613ced565b600a8054610e2c91600160a01b90910460ff1690613de5565b610e36868c613cc0565b610e409190613ced565b610e4a9190613cad565b6010549091506000906001600160801b0390811690610e6b908a1684613cc0565b610e759190613ced565b90506064610e8482605f613cc0565b610e8e9190613ced565b83118015610eb157506064610ea484605f613cc0565b610eae9190613ced565b81115b610ef65760405162461bcd60e51b815260206004820152601660248201527554523a20436c61696d2046656520536c69707061676560501b60448201526064016106f3565b8660086000828254610f089190613e74565b925050819055508560096000828254610f219190613e74565b9091555050601054610f3d9089906001600160801b0316613f02565b601080546001600160801b0319166001600160801b039290921691909117905550505050505050505b60408051878152602081018790527fcbf6196d7bebcbaaf53f321eecb5b4f39479879f3996f828f10012708a9442d7910160405180910390a1505050505050565b600080600260055403610ffc5760405162461bcd60e51b815260206004820152601f60248201527f5265656e7472616e637947756172643a207265656e7472616e742063616c6c0060448201526064016106f3565b60026005556110096109bc565b600061101460025490565b60105461102b9088906001600160801b0316613cc0565b6110359190613ced565b6040805160a08101825260075481526001600160801b03838116602083019081528284018a8152606084018a815242608086019081529551630624e65f60e11b81529451600486015291519092166024840152905160448301525160648201529051608482015290915060008051602061454583398151915290630c49ccbe9060a40160408051808303816000875af11580156110d6573d6000803e3d6000fd5b505050506040513d601f19601f820116820180604052508101906110fa9190613e50565b60105491945092506111169082906001600160801b0316613e74565b601080546001600160801b0319166001600160801b039283161790556040805160808101825260075481523360208201528583168183015291841660608301525163fc6f786560e01b81526000805160206145458339815191529163fc6f7865916111849190600401613e0d565b60408051808303816000875af11580156111a2573d6000803e3d6000fd5b505050506040513d601f19601f820116820180604052508101906111c69190613e50565b50506008541561126757611208336111dd60025490565b886008546111eb9190613cc0565b6111f59190613ced565b600a546001600160a01b03169190612fc4565b600254866008546112199190613cc0565b6112239190613ced565b61122d9084613cad565b925061123860025490565b866008546112469190613cc0565b6112509190613ced565b600860008282546112619190613e74565b90915550505b60095415611306576112a73361127c60025490565b8860095461128a9190613cc0565b6112949190613ced565b600b546001600160a01b03169190612fc4565b600254866009546112b89190613cc0565b6112c29190613ced565b6112cc9083613cad565b91506112d760025490565b866009546112e59190613cc0565b6112ef9190613ced565b600960008282546113009190613e74565b90915550505b61131033876130de565b60408051338152602081018890527f884edad9ce6fa2440d8a54cc123490eb96d2768479d49ff9c7366125a9424364910160405180910390a15060016005559094909350915050565b3360009081526001602090815260408083206001600160a01b0386168452909152812054828110156113db5760405162461bcd60e51b815260206004820152602560248201527f45524332303a2064656372656173656420616c6c6f77616e63652062656c6f77604482015264207a65726f60d81b60648201526084016106f3565b6113e83385858403612b2c565b5060019392505050565b6001600f5460ff16600281111561140b5761140b61395d565b146114425760405162461bcd60e51b8152602060048201526007602482015266021496e69744c560cc1b60448201526064016106f3565b600f5461010090046001600160a01b031633146114925760405162461bcd60e51b815260206004820152600e60248201526d155b985b1b1bddd9590818d85b1b60921b60448201526064016106f3565b600f805460ff19166002179055600a546114b7906001600160a01b031633308561322c565b600b546114cf906001600160a01b031633308461322c565b600a546114f4906001600160a01b03166000805160206145458339815191528461302c565b600b54611519906001600160a01b03166000805160206145458339815191528361302c565b6040805161016081018252600a546001600160a01b039081168252600b5416602082015260065460008051602061454583398151915292638831645692919082019061157290600160301b900462ffffff166064613f29565b62ffffff168152600654600281810b60208401526301000000909104900b6040820152606081018690526080810185905260a00160646115b387605f613cc0565b6115bd9190613ced565b815260200160646115cf86605f613cc0565b6115d99190613ced565b815230602082015242604091820152516001600160e01b031960e084901b1681526116079190600401613f50565b6080604051808303816000875af1158015611626573d6000803e3d6000fd5b505050506040513d601f19601f8201168201806040525081019061164a9190614014565b5050601080546001600160801b0319166001600160801b0392909216919091179055600755600a546040516370a0823160e01b81523060048201526116e19133916001600160a01b03909116906370a0823190602401602060405180830381865afa1580156116bd573d6000803e3d6000fd5b505050506040513d601f19601f820116820180604052508101906111f59190613df4565b600b546040516370a0823160e01b81523060048201526117539133916001600160a01b03909116906370a0823190602401602060405180830381865afa15801561172f573d6000803e3d6000fd5b505050506040513d601f19601f820116820180604052508101906112949190613df4565b61176533670de0b6b3a7640000613264565b60408051338152670de0b6b3a764000060208201527fe1fffcc4923d04b559f4d29a8bfc6cda04eb5b0d3c460751c2402c5c5cc9109c910160405180910390a15050565b6000610668338484612c50565b600a54600b5460065460009283928392731f98431c8ad98523631ae4a59f267346ea31f98492631698ee82926001600160a01b039182169291169061180890600160301b900462ffffff166064613f29565b6040516001600160e01b031960e086901b1681526001600160a01b03938416600482015292909116602483015262ffffff166044820152606401602060405180830381865afa15801561185f573d6000803e3d6000fd5b505050506040513d601f19601f820116820180604052508101906118839190614052565b90506000816001600160a01b0316633850c7bd6040518163ffffffff1660e01b815260040160e060405180830381865afa1580156118c5573d6000803e3d6000fd5b505050506040513d601f19601f820116820180604052508101906118e991906140a4565b505060065460405163986cfba360e01b815260029190910b6004820152949550611a1d9486945073__TickMath______________________________935063986cfba392506024019050602060405180830381865af4158015611950573d6000803e3d6000fd5b505050506040513d601f19601f820116820180604052508101906119749190614052565b60065460405163986cfba360e01b8152630100000090910460020b600482015273__TickMath______________________________9063986cfba390602401602060405180830381865af41580156119d0573d6000803e3d6000fd5b505050506040513d601f19601f820116820180604052508101906119f49190614052565b600254601054611a0e908b906001600160801b0316613cc0565b611a189190613ced565b613343565b90969095509350505050565b6001600160a01b038816611a705760405162461bcd60e51b815260206004820152600e60248201526d496e76616c6964206f7261636c6560901b60448201526064016106f3565b6000600f5460ff166002811115611a8957611a8961395d565b14611ac35760405162461bcd60e51b815260206004820152600a60248201526921496e697450726f787960b01b60448201526064016106f3565b600f805460016001600160a81b0319909116336101000260ff191617179055600c80546001600160a01b038a81166001600160a01b031992831617909255600a8054928a1692909116821790556040805163313ce56760e01b8152905163313ce567916004808201926020929091908290030181865afa158015611b4b573d6000803e3d6000fd5b505050506040513d601f19601f82011682018060405250810190611b6f9190614130565b600a805460ff92909216600160a01b0260ff60a01b19909216919091179055600b80546001600160a01b0388166001600160a01b031990911681179091556040805163313ce56760e01b8152905163313ce567916004808201926020929091908290030181865afa158015611be8573d6000803e3d6000fd5b505050506040513d601f19601f82011682018060405250810190611c0c9190614130565b600b60000160146101000a81548160ff021916908360ff1602179055506000876001600160a01b03166395d89b416040518163ffffffff1660e01b8152600401600060405180830381865afa158015611c69573d6000803e3d6000fd5b505050506040513d6000823e601f3d908101601f19168201604052611c91919081019061414b565b90506000876001600160a01b03166395d89b416040518163ffffffff1660e01b8152600401600060405180830381865afa158015611cd3573d6000803e3d6000fd5b505050506040513d6000823e601f3d908101601f19168201604052611cfb919081019061414b565b9050600073__TickMath______________________________634f76c058611d92600a60000160149054906101000a900460ff16600a611d3b9190613de5565b611d4e906001600160801b038d16613cc0565b600b54611d6690600160a01b900460ff16600a613de5565b611d7490600160601b613cc0565b611d83906402540be400613cc0565b611d8d9190613ced565b6133e0565b611da090600160301b613cc0565b6040516001600160e01b031960e084901b1681526001600160a01b039091166004820152602401602060405180830381865af4158015611de4573d6000803e3d6000fd5b505050506040513d601f19601f82011682018060405250810190611e0891906141c2565b9050600073__TickMath______________________________634f76c058611e48600a60000160149054906101000a900460ff16600a611d3b9190613de5565b611e5690600160301b613cc0565b6040516001600160e01b031960e084901b1681526001600160a01b039091166004820152602401602060405180830381865af4158015611e9a573d6000803e3d6000fd5b505050506040513d601f19601f82011682018060405250810190611ebe91906141c2565b90508415611ff4576006805468ffffff0000000000001916660500000000000017905560006002611eef83856141dd565b611ef99190614202565b600654909150611f1690600160301b900462ffffff166002613f29565b600654611f2f90600160301b900462ffffff16836141dd565b611f39919061423c565b600654611f5290600160301b900462ffffff16836141dd565b611f5c919061425e565b600654909350600160301b900462ffffff16611f78818561425e565b611f82919061425e565b915083858989604051602001611f9b9493929190614283565b604051602081830303815290604052600d9081611fb89190614361565b5087878587604051602001611fd09493929190614421565b604051602081830303815290604052600e9081611fed9190614361565b505061213f565b6006805468ffffff0000000000001916660500000000000017908190556120299062ffffff600160301b909104166002613f29565b60065461204290600160301b900462ffffff16836141dd565b61204c919061423c565b60065461206590600160301b900462ffffff16836141dd565b61206f919061425e565b60065490915061208c90600160301b900462ffffff166002613f29565b6006546120a590600160301b900462ffffff16846141dd565b6120af919061423c565b6006546120c890600160301b900462ffffff16846141dd565b6120d2919061425e565b9150828488886040516020016120eb94939291906144ac565b604051602081830303815290604052600d90816121089190614361565b508686848660405160200161212094939291906144ce565b604051602081830303815290604052600e908161213d9190614361565b505b6006805462ffffff84811663010000000265ffffffffffff1990921690841617179055604080516001600160a01b038d811682528c1660208201526001600160801b038b81169282019290925290891660608201527feb71465d71f7b18c376ba29f6edb7953dc29c7afb4fcaa4e1335c8827a8dd96e9060800160405180910390a1505050505050505050505050565b60006002600554036122235760405162461bcd60e51b815260206004820152601f60248201527f5265656e7472616e637947756172643a207265656e7472616e742063616c6c0060448201526064016106f3565b6002600555600061223360025490565b1161226c5760405162461bcd60e51b815260206004820152600960248201526815148810db1bdcd95960ba1b60448201526064016106f3565b6122746109bc565b600a546040516323b872dd60e01b8152336004820152306024820152604481018590526001600160a01b03909116906323b872dd906064016020604051808303816000875af11580156122cb573d6000803e3d6000fd5b505050506040513d601f19601f820116820180604052508101906122ef91906144eb565b50600b546040516323b872dd60e01b8152336004820152306024820152604481018490526001600160a01b03909116906323b872dd906064016020604051808303816000875af1158015612347573d6000803e3d6000fd5b505050506040513d601f19601f8201168201806040525081019061236b91906144eb565b5060008060006009546008546123819190613cad565b118015612398575060008511806123985750600854155b80156123ae575060008411806123ae5750600954155b156126d057600a54600b54600654600092731f98431c8ad98523631ae4a59f267346ea31f98492631698ee82926001600160a01b03928316929091169061240290600160301b900462ffffff166064613f29565b6040516001600160e01b031960e086901b1681526001600160a01b03938416600482015292909116602483015262ffffff166044820152606401602060405180830381865afa158015612459573d6000803e3d6000fd5b505050506040513d601f19601f8201168201806040525081019061247d9190614052565b90506000816001600160a01b0316633850c7bd6040518163ffffffff1660e01b815260040160e060405180830381865afa1580156124bf573d6000803e3d6000fd5b505050506040513d601f19601f820116820180604052508101906124e391906140a4565b505060065460405163986cfba360e01b815260029190910b6004820152949550600094859450612604935086925073__TickMath______________________________915063986cfba3906024015b602060405180830381865af415801561254f573d6000803e3d6000fd5b505050506040513d601f19601f820116820180604052508101906125739190614052565b60065460405163986cfba360e01b8152630100000090910460020b600482015273__TickMath______________________________9063986cfba390602401602060405180830381865af41580156125cf573d6000803e3d6000fd5b505050506040513d601f19601f820116820180604052508101906125f39190614052565b6010546001600160801b0316613343565b915091506000600854836126189190613cad565b11156126455760085461262b9083613cad565b600854612638908b613cc0565b6126429190613ced565b95505b6000600954826126559190613cad565b1115612682576009546126689082613cad565b600954612675908a613cc0565b61267f9190613ced565b94505b85600860008282546126949190613cad565b9250508190555084600960008282546126ad9190613cad565b909155506126bd9050868a613e74565b98506126c98589613e74565b9750505050505b600a546126f5906001600160a01b03166000805160206145458339815191528761302c565b600b5461271a906001600160a01b03166000805160206145458339815191528661302c565b60008060006000805160206145458339815191526001600160a01b031663219f5d176040518060c0016040528060075481526020018b81526020018a815260200160648c605f61276a9190613cc0565b6127749190613ced565b815260200160646127868c605f613cc0565b6127909190613ced565b8152602001428152506040518263ffffffff1660e01b81526004016127b59190613e87565b6060604051808303816000875af11580156127d4573d6000803e3d6000fd5b505050506040513d601f19601f820116820180604052508101906127f89190613ecb565b925092509250600085600014801561280e575084155b15612a4357600c54600a5460405163b3596f0760e01b81526001600160a01b039182166004820152600092919091169063b3596f0790602401602060405180830381865afa158015612864573d6000803e3d6000fd5b505050506040513d601f19601f820116820180604052508101906128889190613df4565b600c54600b5460405163b3596f0760e01b81526001600160a01b03918216600482015292935060009291169063b3596f0790602401602060405180830381865afa1580156128da573d6000803e3d6000fd5b505050506040513d601f19601f820116820180604052508101906128fe9190613df4565b90506000821180156129105750600081115b6129535760405162461bcd60e51b8152602060048201526014602482015273496e76616c6964204f7261636c6520507269636560601b60448201526064016106f3565b600b5461296b90600160a01b900460ff16600a613de5565b6129758286613cc0565b61297f9190613ced565b600a805461299891600160a01b90910460ff1690613de5565b6129a28488613cc0565b6129ac9190613ced565b6129b69190613cad565b600b546129ce90600160a01b900460ff16600a613de5565b826009546129dc9190613cc0565b6129e69190613ced565b600a80546129ff91600160a01b90910460ff1690613de5565b84600854612a0d9190613cc0565b612a179190613ced565b612a219190613cad565b612a34906001600160801b038916613cc0565b612a3e9190613ced565b925050505b601054612a5a9082906001600160801b0316613cad565b846001600160801b0316612a6d60025490565b612a779190613cc0565b612a819190613ced565b601054909750612a9b9085906001600160801b0316613f02565b601080546001600160801b0319166001600160801b0392909216919091179055612ac53388613264565b612ad3336111f5858c613e74565b612ae133611294848b613e74565b60408051338152602081018990527fe1fffcc4923d04b559f4d29a8bfc6cda04eb5b0d3c460751c2402c5c5cc9109c910160405180910390a150506001600555509295945050505050565b6001600160a01b038316612b8e5760405162461bcd60e51b8152602060048201526024808201527f45524332303a20617070726f76652066726f6d20746865207a65726f206164646044820152637265737360e01b60648201526084016106f3565b6001600160a01b038216612bef5760405162461bcd60e51b815260206004820152602260248201527f45524332303a20617070726f766520746f20746865207a65726f206164647265604482015261737360f01b60648201526084016106f3565b6001600160a01b0383811660008181526001602090815260408083209487168084529482529182902085905590518481527f8c5be1e5ebec7d5bd14f71427d1e84f3dd0314c0f7b2291e5b200ac8c7c3b925910160405180910390a3505050565b6001600160a01b038316612cb45760405162461bcd60e51b815260206004820152602560248201527f45524332303a207472616e736665722066726f6d20746865207a65726f206164604482015264647265737360d81b60648201526084016106f3565b6001600160a01b038216612d165760405162461bcd60e51b815260206004820152602360248201527f45524332303a207472616e7366657220746f20746865207a65726f206164647260448201526265737360e81b60648201526084016106f3565b6001600160a01b03831660009081526020819052604090205481811015612d8e5760405162461bcd60e51b815260206004820152602660248201527f45524332303a207472616e7366657220616d6f756e7420657863656564732062604482015265616c616e636560d01b60648201526084016106f3565b6001600160a01b03808516600090815260208190526040808220858503905591851681529081208054849290612dc5908490613cad565b92505081905550826001600160a01b0316846001600160a01b03167fddf252ad1be2c89b69c2b068fc378daa952ba7f163c4a11628f55a4df523b3ef84604051612e1191815260200190565b60405180910390a35b50505050565b60008083600003612e9e57600c54600a5460405163b3596f0760e01b81526001600160a01b03918216600482015291169063b3596f0790602401602060405180830381865afa158015612e77573d6000803e3d6000fd5b505050506040513d601f19601f82011682018060405250810190612e9b9190613df4565b93505b82600003612f1957600c54600b5460405163b3596f0760e01b81526001600160a01b03918216600482015291169063b3596f0790602401602060405180830381865afa158015612ef2573d6000803e3d6000fd5b505050506040513d601f19601f82011682018060405250810190612f169190613df4565b92505b612fb9612f7a600a60000160149054906101000a900460ff16600a612f3e9190613de5565b600b548690612f5890600160a01b900460ff16600a613de5565b612f629089613cc0565b612f6c9190613ced565b611d8390600160c01b613cc0565b60065460405163986cfba360e01b815260029190910b600482015273__TickMath______________________________9063986cfba390602401612532565b909590945092505050565b6040516001600160a01b03831660248201526044810182905261302790849063a9059cbb60e01b906064015b60408051601f198184030181529190526020810180516001600160e01b03166001600160e01b031990931692909217909152613439565b505050565b604051636eb1769f60e11b81523060048201526001600160a01b038381166024830152600091839186169063dd62ed3e90604401602060405180830381865afa15801561307d573d6000803e3d6000fd5b505050506040513d601f19601f820116820180604052508101906130a19190613df4565b6130ab9190613cad565b6040516001600160a01b038516602482015260448101829052909150612e1a90859063095ea7b360e01b90606401612ff0565b6001600160a01b03821661313e5760405162461bcd60e51b815260206004820152602160248201527f45524332303a206275726e2066726f6d20746865207a65726f206164647265736044820152607360f81b60648201526084016106f3565b6001600160a01b038216600090815260208190526040902054818110156131b25760405162461bcd60e51b815260206004820152602260248201527f45524332303a206275726e20616d6f756e7420657863656564732062616c616e604482015261636560f01b60648201526084016106f3565b6001600160a01b03831660009081526020819052604081208383039055600280548492906131e1908490613e74565b90915550506040518281526000906001600160a01b038516907fddf252ad1be2c89b69c2b068fc378daa952ba7f163c4a11628f55a4df523b3ef9060200160405180910390a3505050565b6040516001600160a01b0380851660248301528316604482015260648101829052612e1a9085906323b872dd60e01b90608401612ff0565b6001600160a01b0382166132ba5760405162461bcd60e51b815260206004820152601f60248201527f45524332303a206d696e7420746f20746865207a65726f20616464726573730060448201526064016106f3565b80600260008282546132cc9190613cad565b90915550506001600160a01b038216600090815260208190526040812080548392906132f9908490613cad565b90915550506040518181526001600160a01b038316906000907fddf252ad1be2c89b69c2b068fc378daa952ba7f163c4a11628f55a4df523b3ef9060200160405180910390a35050565b600080836001600160a01b0316856001600160a01b03161115613364579293925b846001600160a01b0316866001600160a01b031610156133905761338985858561350b565b91506133d7565b836001600160a01b0316866001600160a01b031610156133c9576133b586858561350b565b91506133c2858785613586565b90506133d7565b6133d4858585613586565b90505b94509492505050565b60008060026133f0846001613cad565b6133fa9190613ced565b90508291505b81811015613433579050806002816134188186613ced565b6134229190613cad565b61342c9190613ced565b9050613400565b50919050565b600061348e826040518060400160405280602081526020017f5361666545524332303a206c6f772d6c6576656c2063616c6c206661696c6564815250856001600160a01b03166135d09092919063ffffffff16565b80519091501561302757808060200190518101906134ac91906144eb565b6130275760405162461bcd60e51b815260206004820152602a60248201527f5361666545524332303a204552433230206f7065726174696f6e20646964206e6044820152691bdd081cdd58d8d9595960b21b60648201526084016106f3565b6000826001600160a01b0316846001600160a01b0316111561352b579192915b6001600160a01b0384166135746fffffffffffffffffffffffffffffffff60601b606085901b1661355c8787614508565b6001600160a01b0316866001600160a01b03166135df565b61357e9190613ced565b949350505050565b6000826001600160a01b0316846001600160a01b031611156135a6579192915b61357e6001600160801b0383166135bd8686614508565b6001600160a01b0316600160601b6135df565b606061357e8484600085613758565b6000808060001985870985870292508281108382030391505080600003613618576000841161360d57600080fd5b50829004905061071a565b80841161362457600080fd5b600084868809808403938111909203919050600061364486196001613cad565b86169586900495938490049360008190030460010190506136658184613cc0565b909317926000613676876003613cc0565b60021890506136858188613cc0565b613690906002613e74565b61369a9082613cc0565b90506136a68188613cc0565b6136b1906002613e74565b6136bb9082613cc0565b90506136c78188613cc0565b6136d2906002613e74565b6136dc9082613cc0565b90506136e88188613cc0565b6136f3906002613e74565b6136fd9082613cc0565b90506137098188613cc0565b613714906002613e74565b61371e9082613cc0565b905061372a8188613cc0565b613735906002613e74565b61373f9082613cc0565b905061374b8186613cc0565b9998505050505050505050565b6060824710156137b95760405162461bcd60e51b815260206004820152602660248201527f416464726573733a20696e73756666696369656e742062616c616e636520666f6044820152651c8818d85b1b60d21b60648201526084016106f3565b6001600160a01b0385163b6138105760405162461bcd60e51b815260206004820152601d60248201527f416464726573733a2063616c6c20746f206e6f6e2d636f6e747261637400000060448201526064016106f3565b600080866001600160a01b0316858760405161382c9190614528565b60006040518083038185875af1925050503d8060008114613869576040519150601f19603f3d011682016040523d82523d6000602084013e61386e565b606091505b509150915061387e828286613889565b979650505050505050565b6060831561389857508161071a565b8251156138a85782518084602001fd5b8160405162461bcd60e51b81526004016106f391906138e6565b60005b838110156138dd5781810151838201526020016138c5565b50506000910152565b60208152600082518060208401526139058160408501602087016138c2565b601f01601f19169190910160400192915050565b6001600160a01b038116811461392e57600080fd5b50565b6000806040838503121561394457600080fd5b823561394f81613919565b946020939093013593505050565b634e487b7160e01b600052602160045260246000fd5b602081016003831061399557634e487b7160e01b600052602160045260246000fd5b91905290565b6000806000606084860312156139b057600080fd5b83356139bb81613919565b925060208401356139cb81613919565b929592945050506040919091013590565b6000602082840312156139ee57600080fd5b5035919050565b60008060408385031215613a0857600080fd5b50508035926020909101359150565b600060208284031215613a2957600080fd5b813561071a81613919565b600080600060608486031215613a4957600080fd5b505081359360208301359350604090920135919050565b6001600160801b038116811461392e57600080fd5b634e487b7160e01b600052604160045260246000fd5b604051601f8201601f1916810167ffffffffffffffff81118282101715613ab457613ab4613a75565b604052919050565b600067ffffffffffffffff821115613ad657613ad6613a75565b50601f01601f191660200190565b600082601f830112613af557600080fd5b8135613b08613b0382613abc565b613a8b565b818152846020838601011115613b1d57600080fd5b816020850160208301376000918101602001919091529392505050565b801515811461392e57600080fd5b8035613b5381613b3a565b919050565b600080600080600080600080610100898b031215613b7557600080fd5b8835613b8081613919565b97506020890135613b9081613919565b96506040890135613ba081613919565b95506060890135613bb081613a60565b94506080890135613bc081613a60565b935060a089013567ffffffffffffffff80821115613bdd57600080fd5b613be98c838d01613ae4565b945060c08b0135915080821115613bff57600080fd5b50613c0c8b828c01613ae4565b925050613c1b60e08a01613b48565b90509295985092959890939650565b60008060408385031215613c3d57600080fd5b8235613c4881613919565b91506020830135613c5881613919565b809150509250929050565b600181811c90821680613c7757607f821691505b60208210810361343357634e487b7160e01b600052602260045260246000fd5b634e487b7160e01b600052601160045260246000fd5b8082018082111561066c5761066c613c97565b808202811582820484141761066c5761066c613c97565b634e487b7160e01b600052601260045260246000fd5b600082613cfc57613cfc613cd7565b500490565b600181815b80851115613d3c578160001904821115613d2257613d22613c97565b80851615613d2f57918102915b93841c9390800290613d06565b509250929050565b600082613d535750600161066c565b81613d605750600061066c565b8160018114613d765760028114613d8057613d9c565b600191505061066c565b60ff841115613d9157613d91613c97565b50506001821b61066c565b5060208310610133831016604e8410600b8410161715613dbf575081810a61066c565b613dc98383613d01565b8060001904821115613ddd57613ddd613c97565b029392505050565b600061071a60ff841683613d44565b600060208284031215613e0657600080fd5b5051919050565b815181526020808301516001600160a01b0316908201526040808301516001600160801b0390811691830191909152606092830151169181019190915260800190565b60008060408385031215613e6357600080fd5b505080516020909101519092909150565b8181038181111561066c5761066c613c97565b600060c082019050825182526020830151602083015260408301516040830152606083015160608301526080830151608083015260a083015160a083015292915050565b600080600060608486031215613ee057600080fd5b8351613eeb81613a60565b602085015160409095015190969495509392505050565b6001600160801b03818116838216019080821115613f2257613f22613c97565b5092915050565b62ffffff818116838216028082169190828114613f4857613f48613c97565b505092915050565b81516001600160a01b0316815261016081016020830151613f7c60208401826001600160a01b03169052565b506040830151613f93604084018262ffffff169052565b506060830151613fa8606084018260020b9052565b506080830151613fbd608084018260020b9052565b5060a083015160a083015260c083015160c083015260e083015160e083015261010080840151818401525061012080840151614003828501826001600160a01b03169052565b505061014092830151919092015290565b6000806000806080858703121561402a57600080fd5b84519350602085015161403c81613a60565b6040860151606090960151949790965092505050565b60006020828403121561406457600080fd5b815161071a81613919565b8051600281900b8114613b5357600080fd5b805161ffff81168114613b5357600080fd5b805160ff81168114613b5357600080fd5b600080600080600080600060e0888a0312156140bf57600080fd5b87516140ca81613919565b96506140d86020890161406f565b95506140e660408901614081565b94506140f460608901614081565b935061410260808901614081565b925061411060a08901614093565b915060c088015161412081613b3a565b8091505092959891949750929550565b60006020828403121561414257600080fd5b61071a82614093565b60006020828403121561415d57600080fd5b815167ffffffffffffffff81111561417457600080fd5b8201601f8101841361418557600080fd5b8051614193613b0382613abc565b8181528560208385010111156141a857600080fd5b6141b98260208301602086016138c2565b95945050505050565b6000602082840312156141d457600080fd5b61071a8261406f565b600281810b9083900b01627fffff8113627fffff198212171561066c5761066c613c97565b60008160020b8360020b8061421957614219613cd7565b627fffff1982146000198214161561423357614233613c97565b90059392505050565b60008260020b8061424f5761424f613cd7565b808360020b0791505092915050565b600282810b9082900b03627fffff198112627fffff8213171561066c5761066c613c97565b6602a34b1b5b2b9160cd1b8152600085516142a5816007850160208a016138c2565b8083019050600160fd1b80600783015286516142c8816008850160208b016138c2565b600892019182015284516142e38160098401602089016138c2565b602d60f81b60099290910191820152835161430581600a8401602088016138c2565b01600a019695505050505050565b601f82111561302757600081815260208120601f850160051c8101602086101561433a5750805b601f850160051c820191505b8181101561435957828155600101614346565b505050505050565b815167ffffffffffffffff81111561437b5761437b613a75565b61438f816143898454613c63565b84614313565b602080601f8311600181146143c457600084156143ac5750858301515b600019600386901b1c1916600185901b178555614359565b600085815260208120601f198616915b828110156143f3578886015182559484019460019091019084016143d4565b50858210156144115787850151600019600388901b60f8161c191681555b5050505050600190811b01905550565b61542d60f01b81526000855161443e816002850160208a016138c2565b605f60f81b600291840191820152855161445f816003840160208a016138c2565b808201915050602d60f81b8060038301528551614483816004850160208a016138c2565b6004920191820152835161449e8160058401602088016138c2565b016005019695505050505050565b6602930b733b2b9160cd1b8152600085516142a5816007850160208a016138c2565b61522d60f01b81526000855161443e816002850160208a016138c2565b6000602082840312156144fd57600080fd5b815161071a81613b3a565b6001600160a01b03828116828216039080821115613f2257613f22613c97565b6000825161453a8184602087016138c2565b919091019291505056fe000000000000000000000000c36442b4a4522e871399cd717abdd847ab11fe88a2646970667358221220afd0984448d19f5484d4a62ca09b51957e4858d8fb22109859465bebd27a6c8b64736f6c63430008150033",
  "bytecodeSha1": "986bc07922f419ad523999cc8d3b36be03734a6d",
  "compiler": {
    "evm_version": "istanbul",
    "optimizer": {
      "enabled": true,
      "runs": 200
    },
    "version": "0.8.21+commit.d9974bed"
  },
  "contractName": "TokenisableRange",
  "deployedBytecode": "608060405234801561001057600080fd5b50600436106102325760003560e01c80637040919411610130578063a5843f08116100b8578063d1f7e92b1161007c578063d1f7e92b1461054e578063d351887714610561578063dd62ed3e14610574578063e2bbb158146105ad578063e3526af4146105c057600080fd5b8063a5843f0814610502578063a9059cbb14610515578063bd865cba14610528578063c60982561461053d578063cc32d1761461054657600080fd5b806395d89b41116100ff57806395d89b41146104bd57806399d32fc4146104c55780639b1344ac146104cf578063a41fe49f146104dc578063a457c2d7146104ef57600080fd5b8063704091941461043057806370a0823114610443578063727dd2281461046c57806372f5d98a1461049357600080fd5b806338013f02116101be578063449247aa11610182578063449247aa146103d2578063470f6e1d146103e557806350d25bcd146103ee5780635ee04d78146103f657806361d027b31461041557600080fd5b806338013f021461033157806339509351146103445780633b4e06e614610357578063443ec74d1461037f57806344919d7b146103bf57600080fd5b806318160ddd1161020557806318160ddd146102c25780631a686502146102ca578063200d2ed2146102f557806323b872dd1461030f578063313ce5671461032257600080fd5b806306fdde031461023757806308bd1a8514610255578063095ea7b31461028857806317d70f7c146102ab575b600080fd5b61023f6105c9565b60405161024c91906138e6565b60405180910390f35b610270731f98431c8ad98523631ae4a59f267346ea31f98481565b6040516001600160a01b03909116815260200161024c565b61029b610296366004613931565b61065b565b604051901515815260200161024c565b6102b460075481565b60405190815260200161024c565b6002546102b4565b6010546102dd906001600160801b031681565b6040516001600160801b03909116815260200161024c565b600f546103029060ff1681565b60405161024c9190613973565b61029b61031d36600461399b565b610672565b6040516012815260200161024c565b600c54610270906001600160a01b031681565b61029b610352366004613931565b610721565b61036a6103653660046139dc565b61075d565b6040805192835260208301919091520161024c565b600a5461039e906001600160a01b03811690600160a01b900460ff1682565b604080516001600160a01b03909316835260ff90911660208301520161024c565b6102b46103cd3660046139f5565b6107c7565b601154610270906001600160a01b031681565b6102b460125481565b6102b461088a565b600b5461039e906001600160a01b03811690600160a01b900460ff1682565b6102707322cc3f665ba4c898226353b672c5123c5875169281565b61036a61043e3660046139f5565b610975565b6102b4610451366004613a17565b6001600160a01b031660009081526020819052604090205490565b600654610480906301000000900460020b81565b60405160029190910b815260200161024c565b6006546104a990600160301b900462ffffff1681565b60405162ffffff909116815260200161024c565b61023f6109ad565b6104cd6109bc565b005b6006546104809060020b81565b61036a6104ea366004613a34565b610fa7565b61029b6104fd366004613931565b611359565b6104cd6105103660046139f5565b6113f2565b61029b610523366004613931565b6117a9565b61027060008051602061454583398151915281565b6102b460095481565b6102b4601481565b61036a61055c3660046139dc565b6117b6565b6104cd61056f366004613b58565b611a29565b6102b4610582366004613c2a565b6001600160a01b03918216600090815260016020908152604080832093909416825291909152205490565b6102b46105bb3660046139f5565b6121cf565b6102b460085481565b6060600d80546105d890613c63565b80601f016020809104026020016040519081016040528092919081815260200182805461060490613c63565b80156106515780601f1061062657610100808354040283529160200191610651565b820191906000526020600020905b81548152906001019060200180831161063457829003601f168201915b5050505050905090565b6000610668338484612b2c565b5060015b92915050565b6001600160a01b0383166000908152600160209081526040808320338452909152812054828110156106fc5760405162461bcd60e51b815260206004820152602860248201527f45524332303a207472616e7366657220616d6f756e74206578636565647320616044820152676c6c6f77616e636560c01b60648201526084015b60405180910390fd5b6107098533858403612b2c565b610714858585612c50565b60019150505b9392505050565b3360008181526001602090815260408083206001600160a01b03871684529091528120549091610668918590610758908690613cad565b612b2c565b600080610769836117b6565b60025491935091508360085461077f9190613cc0565b6107899190613ced565b6107939083613cad565b915061079e60025490565b836009546107ac9190613cc0565b6107b69190613ced565b6107c09082613cad565b9050915091565b60006107d260025490565b6000036107e15750600061066c565b6000806107ee8585610975565b600b54919350915060009061080e90600160a01b900460ff16600a613de5565b6108188684613cc0565b6108229190613ced565b600a805461083b91600160a01b90910460ff1690613de5565b6108458589613cc0565b61084f9190613ced565b6108599190613cad565b905061086460025490565b61087682670de0b6b3a7640000613cc0565b6108809190613ced565b9695505050505050565b600c54600a5460405163b3596f0760e01b81526001600160a01b03918216600482015260009261097092169063b3596f0790602401602060405180830381865afa1580156108dc573d6000803e3d6000fd5b505050506040513d601f19601f820116820180604052508101906109009190613df4565b600c54600b5460405163b3596f0760e01b81526001600160a01b03918216600482015291169063b3596f0790602401602060405180830381865afa15801561094c573d6000803e3d6000fd5b505050506040513d601f19601f820116820180604052508101906103cd9190613df4565b905090565b6000806109828484612e20565b60085491935091506109949083613cad565b9150600954816109a49190613cad565b90509250929050565b6060600e80546105d890613c63565b6040805160808101825260075481523060208201526001600160801b038183018190526060820152905163fc6f786560e01b815260009182916000805160206145458339815191529163fc6f786591610a189190600401613e0d565b60408051808303816000875af1158015610a36573d6000803e3d6000fd5b505050506040513d601f19601f82011682018060405250810190610a5a9190613e50565b91509150816000148015610a6c575080155b15610a75575050565b60006064610a84601485613cc0565b610a8e9190613ced565b905060006064610a9f601485613cc0565b610aa99190613ced565b90508115610adc57600a54610adc906001600160a01b03167322cc3f665ba4c898226353b672c5123c5875169284612fc4565b8015610b0d57600b54610b0d906001600160a01b03167322cc3f665ba4c898226353b672c5123c5875169283612fc4565b8184600854610b1c9190613cad565b610b269190613e74565b6008556009548190610b39908590613cad565b610b439190613e74565b600955600080610b538180612e20565b91509150816008546064610b679190613cc0565b118015610b815750806009546064610b7f9190613cc0565b115b15610f6657600854600a54610bb1916001600160a01b03909116906000805160206145458339815191529061302c565b600954600b54610bdc916001600160a01b03909116906000805160206145458339815191529061302c565b6040805160c0810182526007548152600854602082015260095481830152600060608201819052608082018190524260a0830152915163219f5d1760e01b8152829182916000805160206145458339815191529163219f5d1791610c439190600401613e87565b6060604051808303816000875af1158015610c62573d6000803e3d6000fd5b505050506040513d601f19601f82011682018060405250810190610c869190613ecb565b600c54600a5460405163b3596f0760e01b81526001600160a01b03918216600482015294975092955090935060009291169063b3596f0790602401602060405180830381865afa158015610cde573d6000803e3d6000fd5b505050506040513d601f19601f82011682018060405250810190610d029190613df4565b600c54600b5460405163b3596f0760e01b81526001600160a01b03918216600482015292935060009291169063b3596f0790602401602060405180830381865afa158015610d54573d6000803e3d6000fd5b505050506040513d601f19601f82011682018060405250810190610d789190613df4565b600b54909150600090610d9690600160a01b900460ff16600a613de5565b610da08386613cc0565b610daa9190613ced565b600a8054610dc391600160a01b90910460ff1690613de5565b610dcd8588613cc0565b610dd79190613ced565b610de19190613cad565b600b54909150600090610dff90600160a01b900460ff16600a613de5565b610e09848a613cc0565b610e139190613ced565b600a8054610e2c91600160a01b90910460ff1690613de5565b610e36868c613cc0565b610e409190613ced565b610e4a9190613cad565b6010549091506000906001600160801b0390811690610e6b908a1684613cc0565b610e759190613ced565b90506064610e8482605f613cc0565b610e8e9190613ced565b83118015610eb157506064610ea484605f613cc0565b610eae9190613ced565b81115b610ef65760405162461bcd60e51b815260206004820152601660248201527554523a20436c61696d2046656520536c69707061676560501b60448201526064016106f3565b8660086000828254610f089190613e74565b925050819055508560096000828254610f219190613e74565b9091555050601054610f3d9089906001600160801b0316613f02565b601080546001600160801b0319166001600160801b039290921691909117905550505050505050505b60408051878152602081018790527fcbf6196d7bebcbaaf53f321eecb5b4f39479879f3996f828f10012708a9442d7910160405180910390a1505050505050565b600080600260055403610ffc5760405162461bcd60e51b815260206004820152601f60248201527f5265656e7472616e637947756172643a207265656e7472616e742063616c6c0060448201526064016106f3565b60026005556110096109bc565b600061101460025490565b60105461102b9088906001600160801b0316613cc0565b6110359190613ced565b6040805160a08101825260075481526001600160801b03838116602083019081528284018a8152606084018a815242608086019081529551630624e65f60e11b81529451600486015291519092166024840152905160448301525160648201529051608482015290915060008051602061454583398151915290630c49ccbe9060a40160408051808303816000875af11580156110d6573d6000803e3d6000fd5b505050506040513d601f19601f820116820180604052508101906110fa9190613e50565b60105491945092506111169082906001600160801b0316613e74565b601080546001600160801b0319166001600160801b039283161790556040805160808101825260075481523360208201528583168183015291841660608301525163fc6f786560e01b81526000805160206145458339815191529163fc6f7865916111849190600401613e0d565b60408051808303816000875af11580156111a2573d6000803e3d6000fd5b505050506040513d601f19601f820116820180604052508101906111c69190613e50565b50506008541561126757611208336111dd60025490565b886008546111eb9190613cc0565b6111f59190613ced565b600a546001600160a01b03169190612fc4565b600254866008546112199190613cc0565b6112239190613ced565b61122d9084613cad565b925061123860025490565b866008546112469190613cc0565b6112509190613ced565b600860008282546112619190613e74565b90915550505b60095415611306576112a73361127c60025490565b8860095461128a9190613cc0565b6112949190613ced565b600b546001600160a01b03169190612fc4565b600254866009546112b89190613cc0565b6112c29190613ced565b6112cc9083613cad565b91506112d760025490565b866009546112e59190613cc0565b6112ef9190613ced565b600960008282546113009190613e74565b90915550505b61131033876130de565b60408051338152602081018890527f884edad9ce6fa2440d8a54cc123490eb96d2768479d49ff9c7366125a9424364910160405180910390a15060016005559094909350915050565b3360009081526001602090815260408083206001600160a01b0386168452909152812054828110156113db5760405162461bcd60e51b815260206004820152602560248201527f45524332303a2064656372656173656420616c6c6f77616e63652062656c6f77604482015264207a65726f60d81b60648201526084016106f3565b6113e83385858403612b2c565b5060019392505050565b6001600f5460ff16600281111561140b5761140b61395d565b146114425760405162461bcd60e51b8152602060048201526007602482015266021496e69744c560cc1b60448201526064016106f3565b600f5461010090046001600160a01b031633146114925760405162461bcd60e51b815260206004820152600e60248201526d155b985b1b1bddd9590818d85b1b60921b60448201526064016106f3565b600f805460ff19166002179055600a546114b7906001600160a01b031633308561322c565b600b546114cf906001600160a01b031633308461322c565b600a546114f4906001600160a01b03166000805160206145458339815191528461302c565b600b54611519906001600160a01b03166000805160206145458339815191528361302c565b6040805161016081018252600a546001600160a01b039081168252600b5416602082015260065460008051602061454583398151915292638831645692919082019061157290600160301b900462ffffff166064613f29565b62ffffff168152600654600281810b60208401526301000000909104900b6040820152606081018690526080810185905260a00160646115b387605f613cc0565b6115bd9190613ced565b815260200160646115cf86605f613cc0565b6115d99190613ced565b815230602082015242604091820152516001600160e01b031960e084901b1681526116079190600401613f50565b6080604051808303816000875af1158015611626573d6000803e3d6000fd5b505050506040513d601f19601f8201168201806040525081019061164a9190614014565b5050601080546001600160801b0319166001600160801b0392909216919091179055600755600a546040516370a0823160e01b81523060048201526116e19133916001600160a01b03909116906370a0823190602401602060405180830381865afa1580156116bd573d6000803e3d6000fd5b505050506040513d601f19601f820116820180604052508101906111f59190613df4565b600b546040516370a0823160e01b81523060048201526117539133916001600160a01b03909116906370a0823190602401602060405180830381865afa15801561172f573d6000803e3d6000fd5b505050506040513d601f19601f820116820180604052508101906112949190613df4565b61176533670de0b6b3a7640000613264565b60408051338152670de0b6b3a764000060208201527fe1fffcc4923d04b559f4d29a8bfc6cda04eb5b0d3c460751c2402c5c5cc9109c910160405180910390a15050565b6000610668338484612c50565b600a54600b5460065460009283928392731f98431c8ad98523631ae4a59f267346ea31f98492631698ee82926001600160a01b039182169291169061180890600160301b900462ffffff166064613f29565b6040516001600160e01b031960e086901b1681526001600160a01b03938416600482015292909116602483015262ffffff166044820152606401602060405180830381865afa15801561185f573d6000803e3d6000fd5b505050506040513d601f19601f820116820180604052508101906118839190614052565b90506000816001600160a01b0316633850c7bd6040518163ffffffff1660e01b815260040160e060405180830381865afa1580156118c5573d6000803e3d6000fd5b505050506040513d601f19601f820116820180604052508101906118e991906140a4565b505060065460405163986cfba360e01b815260029190910b6004820152949550611a1d9486945073__$09c5a29259139f1547af36d068cffd1c2f$__935063986cfba392506024019050602060405180830381865af4158015611950573d6000803e3d6000fd5b505050506040513d601f19601f820116820180604052508101906119749190614052565b60065460405163986cfba360e01b8152630100000090910460020b600482015273__$09c5a29259139f1547af36d068cffd1c2f$__9063986cfba390602401602060405180830381865af41580156119d0573d6000803e3d6000fd5b505050506040513d601f19601f820116820180604052508101906119f49190614052565b600254601054611a0e908b906001600160801b0316613cc0565b611a189190613ced565b613343565b90969095509350505050565b6001600160a01b038816611a705760405162461bcd60e51b815260206004820152600e60248201526d496e76616c6964206f7261636c6560901b60448201526064016106f3565b6000600f5460ff166002811115611a8957611a8961395d565b14611ac35760405162461bcd60e51b815260206004820152600a60248201526921496e697450726f787960b01b60448201526064016106f3565b600f805460016001600160a81b0319909116336101000260ff191617179055600c80546001600160a01b038a81166001600160a01b031992831617909255600a8054928a1692909116821790556040805163313ce56760e01b8152905163313ce567916004808201926020929091908290030181865afa158015611b4b573d6000803e3d6000fd5b505050506040513d601f19601f82011682018060405250810190611b6f9190614130565b600a805460ff92909216600160a01b0260ff60a01b19909216919091179055600b80546001600160a01b0388166001600160a01b031990911681179091556040805163313ce56760e01b8152905163313ce567916004808201926020929091908290030181865afa158015611be8573d6000803e3d6000fd5b505050506040513d601f19601f82011682018060405250810190611c0c9190614130565b600b60000160146101000a81548160ff021916908360ff1602179055506000876001600160a01b03166395d89b416040518163ffffffff1660e01b8152600401600060405180830381865afa158015611c69573d6000803e3d6000fd5b505050506040513d6000823e601f3d908101601f19168201604052611c91919081019061414b565b90506000876001600160a01b03166395d89b416040518163ffffffff1660e01b8152600401600060405180830381865afa158015611cd3573d6000803e3d6000fd5b505050506040513d6000823e601f3d908101601f19168201604052611cfb919081019061414b565b9050600073__$09c5a29259139f1547af36d068cffd1c2f$__634f76c058611d92600a60000160149054906101000a900460ff16600a611d3b9190613de5565b611d4e906001600160801b038d16613cc0565b600b54611d6690600160a01b900460ff16600a613de5565b611d7490600160601b613cc0565b611d83906402540be400613cc0565b611d8d9190613ced565b6133e0565b611da090600160301b613cc0565b6040516001600160e01b031960e084901b1681526001600160a01b039091166004820152602401602060405180830381865af4158015611de4573d6000803e3d6000fd5b505050506040513d601f19601f82011682018060405250810190611e0891906141c2565b9050600073__$09c5a29259139f1547af36d068cffd1c2f$__634f76c058611e48600a60000160149054906101000a900460ff16600a611d3b9190613de5565b611e5690600160301b613cc0565b6040516001600160e01b031960e084901b1681526001600160a01b039091166004820152602401602060405180830381865af4158015611e9a573d6000803e3d6000fd5b505050506040513d601f19601f82011682018060405250810190611ebe91906141c2565b90508415611ff4576006805468ffffff0000000000001916660500000000000017905560006002611eef83856141dd565b611ef99190614202565b600654909150611f1690600160301b900462ffffff166002613f29565b600654611f2f90600160301b900462ffffff16836141dd565b611f39919061423c565b600654611f5290600160301b900462ffffff16836141dd565b611f5c919061425e565b600654909350600160301b900462ffffff16611f78818561425e565b611f82919061425e565b915083858989604051602001611f9b9493929190614283565b604051602081830303815290604052600d9081611fb89190614361565b5087878587604051602001611fd09493929190614421565b604051602081830303815290604052600e9081611fed9190614361565b505061213f565b6006805468ffffff0000000000001916660500000000000017908190556120299062ffffff600160301b909104166002613f29565b60065461204290600160301b900462ffffff16836141dd565b61204c919061423c565b60065461206590600160301b900462ffffff16836141dd565b61206f919061425e565b60065490915061208c90600160301b900462ffffff166002613f29565b6006546120a590600160301b900462ffffff16846141dd565b6120af919061423c565b6006546120c890600160301b900462ffffff16846141dd565b6120d2919061425e565b9150828488886040516020016120eb94939291906144ac565b604051602081830303815290604052600d90816121089190614361565b508686848660405160200161212094939291906144ce565b604051602081830303815290604052600e908161213d9190614361565b505b6006805462ffffff84811663010000000265ffffffffffff1990921690841617179055604080516001600160a01b038d811682528c1660208201526001600160801b038b81169282019290925290891660608201527feb71465d71f7b18c376ba29f6edb7953dc29c7afb4fcaa4e1335c8827a8dd96e9060800160405180910390a1505050505050505050505050565b60006002600554036122235760405162461bcd60e51b815260206004820152601f60248201527f5265656e7472616e637947756172643a207265656e7472616e742063616c6c0060448201526064016106f3565b6002600555600061223360025490565b1161226c5760405162461bcd60e51b815260206004820152600960248201526815148810db1bdcd95960ba1b60448201526064016106f3565b6122746109bc565b600a546040516323b872dd60e01b8152336004820152306024820152604481018590526001600160a01b03909116906323b872dd906064016020604051808303816000875af11580156122cb573d6000803e3d6000fd5b505050506040513d601f19601f820116820180604052508101906122ef91906144eb565b50600b546040516323b872dd60e01b8152336004820152306024820152604481018490526001600160a01b03909116906323b872dd906064016020604051808303816000875af1158015612347573d6000803e3d6000fd5b505050506040513d601f19601f8201168201806040525081019061236b91906144eb565b5060008060006009546008546123819190613cad565b118015612398575060008511806123985750600854155b80156123ae575060008411806123ae5750600954155b156126d057600a54600b54600654600092731f98431c8ad98523631ae4a59f267346ea31f98492631698ee82926001600160a01b03928316929091169061240290600160301b900462ffffff166064613f29565b6040516001600160e01b031960e086901b1681526001600160a01b03938416600482015292909116602483015262ffffff166044820152606401602060405180830381865afa158015612459573d6000803e3d6000fd5b505050506040513d601f19601f8201168201806040525081019061247d9190614052565b90506000816001600160a01b0316633850c7bd6040518163ffffffff1660e01b815260040160e060405180830381865afa1580156124bf573d6000803e3d6000fd5b505050506040513d601f19601f820116820180604052508101906124e391906140a4565b505060065460405163986cfba360e01b815260029190910b6004820152949550600094859450612604935086925073__$09c5a29259139f1547af36d068cffd1c2f$__915063986cfba3906024015b602060405180830381865af415801561254f573d6000803e3d6000fd5b505050506040513d601f19601f820116820180604052508101906125739190614052565b60065460405163986cfba360e01b8152630100000090910460020b600482015273__$09c5a29259139f1547af36d068cffd1c2f$__9063986cfba390602401602060405180830381865af41580156125cf573d6000803e3d6000fd5b505050506040513d601f19601f820116820180604052508101906125f39190614052565b6010546001600160801b0316613343565b915091506000600854836126189190613cad565b11156126455760085461262b9083613cad565b600854612638908b613cc0565b6126429190613ced565b95505b6000600954826126559190613cad565b1115612682576009546126689082613cad565b600954612675908a613cc0565b61267f9190613ced565b94505b85600860008282546126949190613cad565b9250508190555084600960008282546126ad9190613cad565b909155506126bd9050868a613e74565b98506126c98589613e74565b9750505050505b600a546126f5906001600160a01b03166000805160206145458339815191528761302c565b600b5461271a906001600160a01b03166000805160206145458339815191528661302c565b60008060006000805160206145458339815191526001600160a01b031663219f5d176040518060c0016040528060075481526020018b81526020018a815260200160648c605f61276a9190613cc0565b6127749190613ced565b815260200160646127868c605f613cc0565b6127909190613ced565b8152602001428152506040518263ffffffff1660e01b81526004016127b59190613e87565b6060604051808303816000875af11580156127d4573d6000803e3d6000fd5b505050506040513d601f19601f820116820180604052508101906127f89190613ecb565b925092509250600085600014801561280e575084155b15612a4357600c54600a5460405163b3596f0760e01b81526001600160a01b039182166004820152600092919091169063b3596f0790602401602060405180830381865afa158015612864573d6000803e3d6000fd5b505050506040513d601f19601f820116820180604052508101906128889190613df4565b600c54600b5460405163b3596f0760e01b81526001600160a01b03918216600482015292935060009291169063b3596f0790602401602060405180830381865afa1580156128da573d6000803e3d6000fd5b505050506040513d601f19601f820116820180604052508101906128fe9190613df4565b90506000821180156129105750600081115b6129535760405162461bcd60e51b8152602060048201526014602482015273496e76616c6964204f7261636c6520507269636560601b60448201526064016106f3565b600b5461296b90600160a01b900460ff16600a613de5565b6129758286613cc0565b61297f9190613ced565b600a805461299891600160a01b90910460ff1690613de5565b6129a28488613cc0565b6129ac9190613ced565b6129b69190613cad565b600b546129ce90600160a01b900460ff16600a613de5565b826009546129dc9190613cc0565b6129e69190613ced565b600a80546129ff91600160a01b90910460ff1690613de5565b84600854612a0d9190613cc0565b612a179190613ced565b612a219190613cad565b612a34906001600160801b038916613cc0565b612a3e9190613ced565b925050505b601054612a5a9082906001600160801b0316613cad565b846001600160801b0316612a6d60025490565b612a779190613cc0565b612a819190613ced565b601054909750612a9b9085906001600160801b0316613f02565b601080546001600160801b0319166001600160801b0392909216919091179055612ac53388613264565b612ad3336111f5858c613e74565b612ae133611294848b613e74565b60408051338152602081018990527fe1fffcc4923d04b559f4d29a8bfc6cda04eb5b0d3c460751c2402c5c5cc9109c910160405180910390a150506001600555509295945050505050565b6001600160a01b038316612b8e5760405162461bcd60e51b8152602060048201526024808201527f45524332303a20617070726f76652066726f6d20746865207a65726f206164646044820152637265737360e01b60648201526084016106f3565b6001600160a01b038216612bef5760405162461bcd60e51b815260206004820152602260248201527f45524332303a20617070726f766520746f20746865207a65726f206164647265604482015261737360f01b60648201526084016106f3565b6001600160a01b0383811660008181526001602090815260408083209487168084529482529182902085905590518481527f8c5be1e5ebec7d5bd14f71427d1e84f3dd0314c0f7b2291e5b200ac8c7c3b925910160405180910390a3505050565b6001600160a01b038316612cb45760405162461bcd60e51b815260206004820152602560248201527f45524332303a207472616e736665722066726f6d20746865207a65726f206164604482015264647265737360d81b60648201526084016106f3565b6001600160a01b038216612d165760405162461bcd60e51b815260206004820152602360248201527f45524332303a207472616e7366657220746f20746865207a65726f206164647260448201526265737360e81b60648201526084016106f3565b6001600160a01b03831660009081526020819052604090205481811015612d8e5760405162461bcd60e51b815260206004820152602660248201527f45524332303a207472616e7366657220616d6f756e7420657863656564732062604482015265616c616e636560d01b60648201526084016106f3565b6001600160a01b03808516600090815260208190526040808220858503905591851681529081208054849290612dc5908490613cad565b92505081905550826001600160a01b0316846001600160a01b03167fddf252ad1be2c89b69c2b068fc378daa952ba7f163c4a11628f55a4df523b3ef84604051612e1191815260200190565b60405180910390a35b50505050565b60008083600003612e9e57600c54600a5460405163b3596f0760e01b81526001600160a01b03918216600482015291169063b3596f0790602401602060405180830381865afa158015612e77573d6000803e3d6000fd5b505050506040513d601f19601f82011682018060405250810190612e9b9190613df4565b93505b82600003612f1957600c54600b5460405163b3596f0760e01b81526001600160a01b03918216600482015291169063b3596f0790602401602060405180830381865afa158015612ef2573d6000803e3d6000fd5b505050506040513d601f19601f82011682018060405250810190612f169190613df4565b92505b612fb9612f7a600a60000160149054906101000a900460ff16600a612f3e9190613de5565b600b548690612f5890600160a01b900460ff16600a613de5565b612f629089613cc0565b612f6c9190613ced565b611d8390600160c01b613cc0565b60065460405163986cfba360e01b815260029190910b600482015273__$09c5a29259139f1547af36d068cffd1c2f$__9063986cfba390602401612532565b909590945092505050565b6040516001600160a01b03831660248201526044810182905261302790849063a9059cbb60e01b906064015b60408051601f198184030181529190526020810180516001600160e01b03166001600160e01b031990931692909217909152613439565b505050565b604051636eb1769f60e11b81523060048201526001600160a01b038381166024830152600091839186169063dd62ed3e90604401602060405180830381865afa15801561307d573d6000803e3d6000fd5b505050506040513d601f19601f820116820180604052508101906130a19190613df4565b6130ab9190613cad565b6040516001600160a01b038516602482015260448101829052909150612e1a90859063095ea7b360e01b90606401612ff0565b6001600160a01b03821661313e5760405162461bcd60e51b815260206004820152602160248201527f45524332303a206275726e2066726f6d20746865207a65726f206164647265736044820152607360f81b60648201526084016106f3565b6001600160a01b038216600090815260208190526040902054818110156131b25760405162461bcd60e51b815260206004820152602260248201527f45524332303a206275726e20616d6f756e7420657863656564732062616c616e604482015261636560f01b60648201526084016106f3565b6001600160a01b03831660009081526020819052604081208383039055600280548492906131e1908490613e74565b90915550506040518281526000906001600160a01b038516907fddf252ad1be2c89b69c2b068fc378daa952ba7f163c4a11628f55a4df523b3ef9060200160405180910390a3505050565b6040516001600160a01b0380851660248301528316604482015260648101829052612e1a9085906323b872dd60e01b90608401612ff0565b6001600160a01b0382166132ba5760405162461bcd60e51b815260206004820152601f60248201527f45524332303a206d696e7420746f20746865207a65726f20616464726573730060448201526064016106f3565b80600260008282546132cc9190613cad565b90915550506001600160a01b038216600090815260208190526040812080548392906132f9908490613cad565b90915550506040518181526001600160a01b038316906000907fddf252ad1be2c89b69c2b068fc378daa952ba7f163c4a11628f55a4df523b3ef9060200160405180910390a35050565b600080836001600160a01b0316856001600160a01b03161115613364579293925b846001600160a01b0316866001600160a01b031610156133905761338985858561350b565b91506133d7565b836001600160a01b0316866001600160a01b031610156133c9576133b586858561350b565b91506133c2858785613586565b90506133d7565b6133d4858585613586565b90505b94509492505050565b60008060026133f0846001613cad565b6133fa9190613ced565b90508291505b81811015613433579050806002816134188186613ced565b6134229190613cad565b61342c9190613ced565b9050613400565b50919050565b600061348e826040518060400160405280602081526020017f5361666545524332303a206c6f772d6c6576656c2063616c6c206661696c6564815250856001600160a01b03166135d09092919063ffffffff16565b80519091501561302757808060200190518101906134ac91906144eb565b6130275760405162461bcd60e51b815260206004820152602a60248201527f5361666545524332303a204552433230206f7065726174696f6e20646964206e6044820152691bdd081cdd58d8d9595960b21b60648201526084016106f3565b6000826001600160a01b0316846001600160a01b0316111561352b579192915b6001600160a01b0384166135746fffffffffffffffffffffffffffffffff60601b606085901b1661355c8787614508565b6001600160a01b0316866001600160a01b03166135df565b61357e9190613ced565b949350505050565b6000826001600160a01b0316846001600160a01b031611156135a6579192915b61357e6001600160801b0383166135bd8686614508565b6001600160a01b0316600160601b6135df565b606061357e8484600085613758565b6000808060001985870985870292508281108382030391505080600003613618576000841161360d57600080fd5b50829004905061071a565b80841161362457600080fd5b600084868809808403938111909203919050600061364486196001613cad565b86169586900495938490049360008190030460010190506136658184613cc0565b909317926000613676876003613cc0565b60021890506136858188613cc0565b613690906002613e74565b61369a9082613cc0565b90506136a68188613cc0565b6136b1906002613e74565b6136bb9082613cc0565b90506136c78188613cc0565b6136d2906002613e74565b6136dc9082613cc0565b90506136e88188613cc0565b6136f3906002613e74565b6136fd9082613cc0565b90506137098188613cc0565b613714906002613e74565b61371e9082613cc0565b905061372a8188613cc0565b613735906002613e74565b61373f9082613cc0565b905061374b8186613cc0565b9998505050505050505050565b6060824710156137b95760405162461bcd60e51b815260206004820152602660248201527f416464726573733a20696e73756666696369656e742062616c616e636520666f6044820152651c8818d85b1b60d21b60648201526084016106f3565b6001600160a01b0385163b6138105760405162461bcd60e51b815260206004820152601d60248201527f416464726573733a2063616c6c20746f206e6f6e2d636f6e747261637400000060448201526064016106f3565b600080866001600160a01b0316858760405161382c9190614528565b60006040518083038185875af1925050503d8060008114613869576040519150601f19603f3d011682016040523d82523d6000602084013e61386e565b606091505b509150915061387e828286613889565b979650505050505050565b6060831561389857508161071a565b8251156138a85782518084602001fd5b8160405162461bcd60e51b81526004016106f391906138e6565b60005b838110156138dd5781810151838201526020016138c5565b50506000910152565b60208152600082518060208401526139058160408501602087016138c2565b601f01601f19169190910160400192915050565b6001600160a01b038116811461392e57600080fd5b50565b6000806040838503121561394457600080fd5b823561394f81613919565b946020939093013593505050565b634e487b7160e01b600052602160045260246000fd5b602081016003831061399557634e487b7160e01b600052602160045260246000fd5b91905290565b6000806000606084860312156139b057600080fd5b83356139bb81613919565b925060208401356139cb81613919565b929592945050506040919091013590565b6000602082840312156139ee57600080fd5b5035919050565b60008060408385031215613a0857600080fd5b50508035926020909101359150565b600060208284031215613a2957600080fd5b813561071a81613919565b600080600060608486031215613a4957600080fd5b505081359360208301359350604090920135919050565b6001600160801b038116811461392e57600080fd5b634e487b7160e01b600052604160045260246000fd5b604051601f8201601f1916810167ffffffffffffffff81118282101715613ab457613ab4613a75565b604052919050565b600067ffffffffffffffff821115613ad657613ad6613a75565b50601f01601f191660200190565b600082601f830112613af557600080fd5b8135613b08613b0382613abc565b613a8b565b818152846020838601011115613b1d57600080fd5b816020850160208301376000918101602001919091529392505050565b801515811461392e57600080fd5b8035613b5381613b3a565b919050565b600080600080600080600080610100898b031215613b7557600080fd5b8835613b8081613919565b97506020890135613b9081613919565b96506040890135613ba081613919565b95506060890135613bb081613a60565b94506080890135613bc081613a60565b935060a089013567ffffffffffffffff80821115613bdd57600080fd5b613be98c838d01613ae4565b945060c08b0135915080821115613bff57600080fd5b50613c0c8b828c01613ae4565b925050613c1b60e08a01613b48565b90509295985092959890939650565b60008060408385031215613c3d57600080fd5b8235613c4881613919565b91506020830135613c5881613919565b809150509250929050565b600181811c90821680613c7757607f821691505b60208210810361343357634e487b7160e01b600052602260045260246000fd5b634e487b7160e01b600052601160045260246000fd5b8082018082111561066c5761066c613c97565b808202811582820484141761066c5761066c613c97565b634e487b7160e01b600052601260045260246000fd5b600082613cfc57613cfc613cd7565b500490565b600181815b80851115613d3c578160001904821115613d2257613d22613c97565b80851615613d2f57918102915b93841c9390800290613d06565b509250929050565b600082613d535750600161066c565b81613d605750600061066c565b8160018114613d765760028114613d8057613d9c565b600191505061066c565b60ff841115613d9157613d91613c97565b50506001821b61066c565b5060208310610133831016604e8410600b8410161715613dbf575081810a61066c565b613dc98383613d01565b8060001904821115613ddd57613ddd613c97565b029392505050565b600061071a60ff841683613d44565b600060208284031215613e0657600080fd5b5051919050565b815181526020808301516001600160a01b0316908201526040808301516001600160801b0390811691830191909152606092830151169181019190915260800190565b60008060408385031215613e6357600080fd5b505080516020909101519092909150565b8181038181111561066c5761066c613c97565b600060c082019050825182526020830151602083015260408301516040830152606083015160608301526080830151608083015260a083015160a083015292915050565b600080600060608486031215613ee057600080fd5b8351613eeb81613a60565b602085015160409095015190969495509392505050565b6001600160801b03818116838216019080821115613f2257613f22613c97565b5092915050565b62ffffff818116838216028082169190828114613f4857613f48613c97565b505092915050565b81516001600160a01b0316815261016081016020830151613f7c60208401826001600160a01b03169052565b506040830151613f93604084018262ffffff169052565b506060830151613fa8606084018260020b9052565b506080830151613fbd608084018260020b9052565b5060a083015160a083015260c083015160c083015260e083015160e083015261010080840151818401525061012080840151614003828501826001600160a01b03169052565b505061014092830151919092015290565b6000806000806080858703121561402a57600080fd5b84519350602085015161403c81613a60565b6040860151606090960151949790965092505050565b60006020828403121561406457600080fd5b815161071a81613919565b8051600281900b8114613b5357600080fd5b805161ffff81168114613b5357600080fd5b805160ff81168114613b5357600080fd5b600080600080600080600060e0888a0312156140bf57600080fd5b87516140ca81613919565b96506140d86020890161406f565b95506140e660408901614081565b94506140f460608901614081565b935061410260808901614081565b925061411060a08901614093565b915060c088015161412081613b3a565b8091505092959891949750929550565b60006020828403121561414257600080fd5b61071a82614093565b60006020828403121561415d57600080fd5b815167ffffffffffffffff81111561417457600080fd5b8201601f8101841361418557600080fd5b8051614193613b0382613abc565b8181528560208385010111156141a857600080fd5b6141b98260208301602086016138c2565b95945050505050565b6000602082840312156141d457600080fd5b61071a8261406f565b600281810b9083900b01627fffff8113627fffff198212171561066c5761066c613c97565b60008160020b8360020b8061421957614219613cd7565b627fffff1982146000198214161561423357614233613c97565b90059392505050565b60008260020b8061424f5761424f613cd7565b808360020b0791505092915050565b600282810b9082900b03627fffff198112627fffff8213171561066c5761066c613c97565b6602a34b1b5b2b9160cd1b8152600085516142a5816007850160208a016138c2565b8083019050600160fd1b80600783015286516142c8816008850160208b016138c2565b600892019182015284516142e38160098401602089016138c2565b602d60f81b60099290910191820152835161430581600a8401602088016138c2565b01600a019695505050505050565b601f82111561302757600081815260208120601f850160051c8101602086101561433a5750805b601f850160051c820191505b8181101561435957828155600101614346565b505050505050565b815167ffffffffffffffff81111561437b5761437b613a75565b61438f816143898454613c63565b84614313565b602080601f8311600181146143c457600084156143ac5750858301515b600019600386901b1c1916600185901b178555614359565b600085815260208120601f198616915b828110156143f3578886015182559484019460019091019084016143d4565b50858210156144115787850151600019600388901b60f8161c191681555b5050505050600190811b01905550565b61542d60f01b81526000855161443e816002850160208a016138c2565b605f60f81b600291840191820152855161445f816003840160208a016138c2565b808201915050602d60f81b8060038301528551614483816004850160208a016138c2565b6004920191820152835161449e8160058401602088016138c2565b016005019695505050505050565b6602930b733b2b9160cd1b8152600085516142a5816007850160208a016138c2565b61522d60f01b81526000855161443e816002850160208a016138c2565b6000602082840312156144fd57600080fd5b815161071a81613b3a565b6001600160a01b03828116828216039080821115613f2257613f22613c97565b6000825161453a8184602087016138c2565b919091019291505056fe000000000000000000000000c36442b4a4522e871399cd717abdd847ab11fe88a2646970667358221220afd0984448d19f5484d4a62ca09b51957e4858d8fb22109859465bebd27a6c8b64736f6c63430008150033",
  "language": "Solidity",
  "natspec": {
    "kind": "dev",
    "methods": {
      "allowance(address,address)": {
        "details": "See {IERC20-allowance}."
      },
      "approve(address,uint256)": {
        "details": "See {IERC20-approve}. Requirements: - `spender` cannot be the zero address."
      },
      "balanceOf(address)": {
        "details": "See {IERC20-balanceOf}."
      },
      "claimFee()": {
        "notice": "Claim the accumulated Uniswap V3 trading fees"
      },
      "decimals()": {
        "details": "Returns the number of decimals used to get its user representation. For example, if `decimals` equals `2`, a balance of `505` tokens should be displayed to a user as `5.05` (`505 / 10 ** 2`). Tokens usually opt for a value of 18, imitating the relationship between Ether and Wei. This is the value {ERC20} uses, unless this function is overridden; NOTE: This information is only used for _display_ purposes: it in no way affects any of the arithmetic of the contract, including {IERC20-balanceOf} and {IERC20-transfer}."
      },
      "decreaseAllowance(address,uint256)": {
        "details": "Atomically decreases the allowance granted to `spender` by the caller. This is an alternative to {approve} that can be used as a mitigation for problems described in {IERC20-approve}. Emits an {Approval} event indicating the updated allowance. Requirements: - `spender` cannot be the zero address. - `spender` must have allowance for the caller of at least `subtractedValue`."
      },
      "deposit(uint256,uint256)": {
        "notice": "Deposit assets into the range",
        "params": {
          "n0": "Amount of quote asset",
          "n1": "Amount of base asset"
        },
        "returns": {
          "lpAmt": "Amount of LP tokens created"
        }
      },
      "getTokenAmounts(uint256)": {
        "notice": "Return the underlying tokens amounts for a given TR balance",
        "params": {
          "amount": "Amount of tokens we want the underlying amounts for"
        }
      },
      "getTokenAmountsExcludingFees(uint256)": {
        "notice": "Return the underlying tokens amounts for a given TR balance excluding the fees",
        "params": {
          "amount": "Amount of tokens we want the underlying amounts for"
        }
      },
      "getValuePerLPAtPrice(uint256,uint256)": {
        "notice": "Return the price of LP tokens based on the underlying assets price",
        "params": {
          "TOKEN0_PRICE": "Base token price",
          "TOKEN1_PRICE": "Quote token price"
        }
      },
      "increaseAllowance(address,uint256)": {
        "details": "Atomically increases the allowance granted to `spender` by the caller. This is an alternative to {approve} that can be used as a mitigation for problems described in {IERC20-approve}. Emits an {Approval} event indicating the updated allowance. Requirements: - `spender` cannot be the zero address."
      },
      "init(uint256,uint256)": {
        "notice": "Initialize a TokenizableRange by adding assets in the underlying Uniswap V3 positionThe token amounts must be 95% correct or this will fail the Uniswap slippage check",
        "params": {
          "n0": "Amount of quote token added",
          "n1": "Amount of base token added"
        }
      },
      "initProxy(address,address,address,uint128,uint128,string,string,bool)": {
        "notice": "Store range parameters",
        "params": {
          "_oracle": "Address of the IAaveOracle interface of the ROE lending pool",
          "asset0": "Quote token address",
          "asset1": "Base token address",
          "endName": "Name of the range higher bound",
          "endX10": "Range high price scaled by 1e10",
          "isTicker": "Range is single tick liquidity around upperTick/startX10/startName",
          "startName": "Name of the range lower bound",
          "startX10": "Range lower price scaled by 1e10"
        }
      },
      "latestAnswer()": {
        "notice": "Return the price of the LP token"
      },
      "lowerTick()": {
        "notice": "VARIABLES"
      },
      "name()": {
        "details": "Override name, symbol and decimals from ERC20 inheritance",
        "notice": "Get the name of this contract token"
      },
      "returnExpectedBalance(uint256,uint256)": {
        "notice": "Calculate the balance of underlying assets based on the assets price, excluding fees"
      },
      "symbol()": {
        "notice": "Get the symbol of this contract token"
      },
      "totalSupply()": {
        "details": "See {IERC20-totalSupply}."
      },
      "transfer(address,uint256)": {
        "details": "See {IERC20-transfer}. Requirements: - `recipient` cannot be the zero address. - the caller must have a balance of at least `amount`."
      },
      "transferFrom(address,address,uint256)": {
        "details": "See {IERC20-transferFrom}. Emits an {Approval} event indicating the updated allowance. This is not required by the EIP. See the note at the beginning of {ERC20}. Requirements: - `sender` and `recipient` cannot be the zero address. - `sender` must have a balance of at least `amount`. - the caller must have allowance for ``sender``'s tokens of at least `amount`."
      },
      "withdraw(uint256,uint256,uint256)": {
        "notice": "Withdraw assets from a range",
        "params": {
          "amount0Min": "Minimum amount of quote token withdrawn",
          "amount1Min": "Minimum amount of base token withdrawn",
          "lp": "Amount of tokens withdrawn"
        }
      }
    },
    "notice": "Tokenize a Uniswap V3 NFT position",
    "version": 1
  },
  "opcodes": "PUSH1 0x80 PUSH1 0x40 MSTORE CALLVALUE DUP1 ISZERO PUSH2 0x10 JUMPI PUSH1 0x0 DUP1 REVERT JUMPDEST POP PUSH1 0x4 CALLDATASIZE LT PUSH2 0x232 JUMPI PUSH1 0x0 CALLDATALOAD PUSH1 0xE0 SHR DUP1 PUSH4 0x70409194 GT PUSH2 0x130 JUMPI DUP1 PUSH4 0xA5843F08 GT PUSH2 0xB8 JUMPI DUP1 PUSH4 0xD1F7E92B GT PUSH2 0x7C JUMPI DUP1 PUSH4 0xD1F7E92B EQ PUSH2 0x54E JUMPI DUP1 PUSH4 0xD3518877 EQ PUSH2 0x561 JUMPI DUP1 PUSH4 0xDD62ED3E EQ PUSH2 0x574 JUMPI DUP1 PUSH4 0xE2BBB158 EQ PUSH2 0x5AD JUMPI DUP1 PUSH4 0xE3526AF4 EQ PUSH2 0x5C0 JUMPI PUSH1 0x0 DUP1 REVERT JUMPDEST DUP1 PUSH4 0xA5843F08 EQ PUSH2 0x502 JUMPI DUP1 PUSH4 0xA9059CBB EQ PUSH2 0x515 JUMPI DUP1 PUSH4 0xBD865CBA EQ PUSH2 0x528 JUMPI DUP1 PUSH4 0xC6098256 EQ PUSH2 0x53D JUMPI DUP1 PUSH4 0xCC32D176 EQ PUSH2 0x546 JUMPI PUSH1 0x0 DUP1 REVERT JUMPDEST DUP1 PUSH4 0x95D89B41 GT PUSH2 0xFF JUMPI DUP1 PUSH4 0x95D89B41 EQ PUSH2 0x4BD JUMPI DUP1 PUSH4 0x99D32FC4 EQ PUSH2 0x4C5 JUMPI DUP1 PUSH4 0x9B1344AC EQ PUSH2 0x4CF JUMPI DUP1 PUSH4 0xA41FE49F EQ PUSH2 0x4DC JUMPI DUP1 PUSH4 0xA457C2D7 EQ PUSH2 0x4EF JUMPI PUSH1 0x0 DUP1 REVERT JUMPDEST DUP1 PUSH4 0x70409194 EQ PUSH2 0x430 JUMPI DUP1 PUSH4 0x70A08231 EQ PUSH2 0x443 JUMPI DUP1 PUSH4 0x727DD228 EQ PUSH2 0x46C JUMPI DUP1 PUSH4 0x72F5D98A EQ PUSH2 0x493 JUMPI PUSH1 0x0 DUP1 REVERT JUMPDEST DUP1 PUSH4 0x38013F02 GT PUSH2 0x1BE JUMPI DUP1 PUSH4 0x449247AA GT PUSH2 0x182 JUMPI DUP1 PUSH4 0x449247AA EQ PUSH2 0x3D2 JUMPI DUP1 PUSH4 0x470F6E1D EQ PUSH2 0x3E5 JUMPI DUP1 PUSH4 0x50D25BCD EQ PUSH2 0x3EE JUMPI DUP1 PUSH4 0x5EE04D78 EQ PUSH2 0x3F6 JUMPI DUP1 PUSH4 0x61D027B3 EQ PUSH2 0x415 JUMPI PUSH1 0x0 DUP1 REVERT JUMPDEST DUP1 PUSH4 0x38013F02 EQ PUSH2 0x331 JUMPI DUP1 PUSH4 0x39509351 EQ PUSH2 0x344 JUMPI DUP1 PUSH4 0x3B4E06E6 EQ PUSH2 0x357 JUMPI DUP1 PUSH4 0x443EC74D EQ PUSH2 0x37F JUMPI DUP1 PUSH4 0x44919D7B EQ PUSH2 0x3BF JUMPI PUSH1 0x0 DUP1 REVERT JUMPDEST DUP1 PUSH4 0x18160DDD GT PUSH2 0x205 JUMPI DUP1 PUSH4 0x18160DDD EQ PUSH2 0x2C2 JUMPI DUP1 PUSH4 0x1A686502 EQ PUSH2 0x2CA JUMPI DUP1 PUSH4 0x200D2ED2 EQ PUSH2 0x2F5 JUMPI DUP1 PUSH4 0x23B872DD EQ PUSH2 0x30F JUMPI DUP1 PUSH4 0x313CE567 EQ PUSH2 0x322 JUMPI PUSH1 0x0 DUP1 REVERT JUMPDEST DUP1 PUSH4 0x6FDDE03 EQ PUSH2 0x237 JUMPI DUP1 PUSH4 0x8BD1A85 EQ PUSH2 0x255 JUMPI DUP1 PUSH4 0x95EA7B3 EQ PUSH2 0x288 JUMPI DUP1 PUSH4 0x17D70F7C EQ PUSH2 0x2AB JUMPI JUMPDEST PUSH1 0x0 DUP1 REVERT JUMPDEST PUSH2 0x23F PUSH2 0x5C9 JUMP JUMPDEST PUSH1 0x40 MLOAD PUSH2 0x24C SWAP2 SWAP1 PUSH2 0x38E6 JUMP JUMPDEST PUSH1 0x40 MLOAD DUP1 SWAP2 SUB SWAP1 RETURN JUMPDEST PUSH2 0x270 PUSH20 0x1F98431C8AD98523631AE4A59F267346EA31F984 DUP2 JUMP JUMPDEST PUSH1 0x40 MLOAD PUSH1 0x1 PUSH1 0x1 PUSH1 0xA0 SHL SUB SWAP1 SWAP2 AND DUP2 MSTORE PUSH1 0x20 ADD PUSH2 0x24C JUMP JUMPDEST PUSH2 0x29B PUSH2 0x296 CALLDATASIZE PUSH1 0x4 PUSH2 0x3931 JUMP JUMPDEST PUSH2 0x65B JUMP JUMPDEST PUSH1 0x40 MLOAD SWAP1 ISZERO ISZERO DUP2 MSTORE PUSH1 0x20 ADD PUSH2 0x24C JUMP JUMPDEST PUSH2 0x2B4 PUSH1 0x7 SLOAD DUP2 JUMP JUMPDEST PUSH1 0x40 MLOAD SWAP1 DUP2 MSTORE PUSH1 0x20 ADD PUSH2 0x24C JUMP JUMPDEST PUSH1 0x2 SLOAD PUSH2 0x2B4 JUMP JUMPDEST PUSH1 0x10 SLOAD PUSH2 0x2DD SWAP1 PUSH1 0x1 PUSH1 0x1 PUSH1 0x80 SHL SUB AND DUP2 JUMP JUMPDEST PUSH1 0x40 MLOAD PUSH1 0x1 PUSH1 0x1 PUSH1 0x80 SHL SUB SWAP1 SWAP2 AND DUP2 MSTORE PUSH1 0x20 ADD PUSH2 0x24C JUMP JUMPDEST PUSH1 0xF SLOAD PUSH2 0x302 SWAP1 PUSH1 0xFF AND DUP2 JUMP JUMPDEST PUSH1 0x40 MLOAD PUSH2 0x24C SWAP2 SWAP1 PUSH2 0x3973 JUMP JUMPDEST PUSH2 0x29B PUSH2 0x31D CALLDATASIZE PUSH1 0x4 PUSH2 0x399B JUMP JUMPDEST PUSH2 0x672 JUMP JUMPDEST PUSH1 0x40 MLOAD PUSH1 0x12 DUP2 MSTORE PUSH1 0x20 ADD PUSH2 0x24C JUMP JUMPDEST PUSH1 0xC SLOAD PUSH2 0x270 SWAP1 PUSH1 0x1 PUSH1 0x1 PUSH1 0xA0 SHL SUB AND DUP2 JUMP JUMPDEST PUSH2 0x29B PUSH2 0x352 CALLDATASIZE PUSH1 0x4 PUSH2 0x3931 JUMP JUMPDEST PUSH2 0x721 JUMP JUMPDEST PUSH2 0x36A PUSH2 0x365 CALLDATASIZE PUSH1 0x4 PUSH2 0x39DC JUMP JUMPDEST PUSH2 0x75D JUMP JUMPDEST PUSH1 0x40 DUP1 MLOAD SWAP3 DUP4 MSTORE PUSH1 0x20 DUP4 ADD SWAP2 SWAP1 SWAP2 MSTORE ADD PUSH2 0x24C JUMP JUMPDEST PUSH1 0xA SLOAD PUSH2 0x39E SWAP1 PUSH1 0x1 PUSH1 0x1 PUSH1 0xA0 SHL SUB DUP2 AND SWAP1 PUSH1 0x1 PUSH1 0xA0 SHL SWAP1 DIV PUSH1 0xFF AND DUP3 JUMP JUMPDEST PUSH1 0x40 DUP1 MLOAD PUSH1 0x1 PUSH1 0x1 PUSH1 0xA0 SHL SUB SWAP1 SWAP4 AND DUP4 MSTORE PUSH1 0xFF SWAP1 SWAP2 AND PUSH1 0x20 DUP4 ADD MSTORE ADD PUSH2 0x24C JUMP JUMPDEST PUSH2 0x2B4 PUSH2 0x3CD CALLDATASIZE PUSH1 0x4 PUSH2 0x39F5 JUMP JUMPDEST PUSH2 0x7C7 JUMP JUMPDEST PUSH1 0x11 SLOAD PUSH2 0x270 SWAP1 PUSH1 0x1 PUSH1 0x1 PUSH1 0xA0 SHL SUB AND DUP2 JUMP JUMPDEST PUSH2 0x2B4 PUSH1 0x12 SLOAD DUP2 JUMP JUMPDEST PUSH2 0x2B4 PUSH2 0x88A JUMP JUMPDEST PUSH1 0xB SLOAD PUSH2 0x39E SWAP1 PUSH1 0x1 PUSH1 0x1 PUSH1 0xA0 SHL SUB DUP2 AND SWAP1 PUSH1 0x1 PUSH1 0xA0 SHL SWAP1 DIV PUSH1 0xFF AND DUP3 JUMP JUMPDEST PUSH2 0x270 PUSH20 0x22CC3F665BA4C898226353B672C5123C58751692 DUP2 JUMP JUMPDEST PUSH2 0x36A PUSH2 0x43E CALLDATASIZE PUSH1 0x4 PUSH2 0x39F5 JUMP JUMPDEST PUSH2 0x975 JUMP JUMPDEST PUSH2 0x2B4 PUSH2 0x451 CALLDATASIZE PUSH1 0x4 PUSH2 0x3A17 JUMP JUMPDEST PUSH1 0x1 PUSH1 0x1 PUSH1 0xA0 SHL SUB AND PUSH1 0x0 SWAP1 DUP2 MSTORE PUSH1 0x20 DUP2 SWAP1 MSTORE PUSH1 0x40 SWAP1 KECCAK256 SLOAD SWAP1 JUMP JUMPDEST PUSH1 0x6 SLOAD PUSH2 0x480 SWAP1 PUSH4 0x1000000 SWAP1 DIV PUSH1 0x2 SIGNEXTEND DUP2 JUMP JUMPDEST PUSH1 0x40 MLOAD PUSH1 0x2 SWAP2 SWAP1 SWAP2 SIGNEXTEND DUP2 MSTORE PUSH1 0x20 ADD PUSH2 0x24C JUMP JUMPDEST PUSH1 0x6 SLOAD PUSH2 0x4A9 SWAP1 PUSH1 0x1 PUSH1 0x30 SHL SWAP1 DIV PUSH3 0xFFFFFF AND DUP2 JUMP JUMPDEST PUSH1 0x40 MLOAD PUSH3 0xFFFFFF SWAP1 SWAP2 AND DUP2 MSTORE PUSH1 0x20 ADD PUSH2 0x24C JUMP JUMPDEST PUSH2 0x23F PUSH2 0x9AD JUMP JUMPDEST PUSH2 0x4CD PUSH2 0x9BC JUMP JUMPDEST STOP JUMPDEST PUSH1 0x6 SLOAD PUSH2 0x480 SWAP1 PUSH1 0x2 SIGNEXTEND DUP2 JUMP JUMPDEST PUSH2 0x36A PUSH2 0x4EA CALLDATASIZE PUSH1 0x4 PUSH2 0x3A34 JUMP JUMPDEST PUSH2 0xFA7 JUMP JUMPDEST PUSH2 0x29B PUSH2 0x4FD CALLDATASIZE PUSH1 0x4 PUSH2 0x3931 JUMP JUMPDEST PUSH2 0x1359 JUMP JUMPDEST PUSH2 0x4CD PUSH2 0x510 CALLDATASIZE PUSH1 0x4 PUSH2 0x39F5 JUMP JUMPDEST PUSH2 0x13F2 JUMP JUMPDEST PUSH2 0x29B PUSH2 0x523 CALLDATASIZE PUSH1 0x4 PUSH2 0x3931 JUMP JUMPDEST PUSH2 0x17A9 JUMP JUMPDEST PUSH2 0x270 PUSH1 0x0 DUP1 MLOAD PUSH1 0x20 PUSH2 0x4545 DUP4 CODECOPY DUP2 MLOAD SWAP2 MSTORE DUP2 JUMP JUMPDEST PUSH2 0x2B4 PUSH1 0x9 SLOAD DUP2 JUMP JUMPDEST PUSH2 0x2B4 PUSH1 0x14 DUP2 JUMP JUMPDEST PUSH2 0x36A PUSH2 0x55C CALLDATASIZE PUSH1 0x4 PUSH2 0x39DC JUMP JUMPDEST PUSH2 0x17B6 JUMP JUMPDEST PUSH2 0x4CD PUSH2 0x56F CALLDATASIZE PUSH1 0x4 PUSH2 0x3B58 JUMP JUMPDEST PUSH2 0x1A29 JUMP JUMPDEST PUSH2 0x2B4 PUSH2 0x582 CALLDATASIZE PUSH1 0x4 PUSH2 0x3C2A JUMP JUMPDEST PUSH1 0x1 PUSH1 0x1 PUSH1 0xA0 SHL SUB SWAP2 DUP3 AND PUSH1 0x0 SWAP1 DUP2 MSTORE PUSH1 0x1 PUSH1 0x20 SWAP1 DUP2 MSTORE PUSH1 0x40 DUP1 DUP4 KECCAK256 SWAP4 SWAP1 SWAP5 AND DUP3 MSTORE SWAP2 SWAP1 SWAP2 MSTORE KECCAK256 SLOAD SWAP1 JUMP JUMPDEST PUSH2 0x2B4 PUSH2 0x5BB CALLDATASIZE PUSH1 0x4 PUSH2 0x39F5 JUMP JUMPDEST PUSH2 0x21CF JUMP JUMPDEST PUSH2 0x2B4 PUSH1 0x8 SLOAD DUP2 JUMP JUMPDEST PUSH1 0x60 PUSH1 0xD DUP1 SLOAD PUSH2 0x5D8 SWAP1 PUSH2 0x3C63 JUMP JUMPDEST DUP1 PUSH1 0x1F ADD PUSH1 0x20 DUP1 SWAP2 DIV MUL PUSH1 0x20 ADD PUSH1 0x40 MLOAD SWAP1 DUP2 ADD PUSH1 0x40 MSTORE DUP1 SWAP3 SWAP2 SWAP1 DUP2 DUP2 MSTORE PUSH1 0x20 ADD DUP3 DUP1 SLOAD PUSH2 0x604 SWAP1 PUSH2 0x3C63 JUMP JUMPDEST DUP1 ISZERO PUSH2 0x651 JUMPI DUP1 PUSH1 0x1F LT PUSH2 0x626 JUMPI PUSH2 0x100 DUP1 DUP4 SLOAD DIV MUL DUP4 MSTORE SWAP2 PUSH1 0x20 ADD SWAP2 PUSH2 0x651 JUMP JUMPDEST DUP3 ADD SWAP2 SWAP1 PUSH1 0x0 MSTORE PUSH1 0x20 PUSH1 0x0 KECCAK256 SWAP1 JUMPDEST DUP2 SLOAD DUP2 MSTORE SWAP1 PUSH1 0x1 ADD SWAP1 PUSH1 0x20 ADD DUP1 DUP4 GT PUSH2 0x634 JUMPI DUP3 SWAP1 SUB PUSH1 0x1F AND DUP3 ADD SWAP2 JUMPDEST POP POP POP POP POP SWAP1 POP SWAP1 JUMP JUMPDEST PUSH1 0x0 PUSH2 0x668 CALLER DUP5 DUP5 PUSH2 0x2B2C JUMP JUMPDEST POP PUSH1 0x1 JUMPDEST SWAP3 SWAP2 POP POP JUMP JUMPDEST PUSH1 0x1 PUSH1 0x1 PUSH1 0xA0 SHL SUB DUP4 AND PUSH1 0x0 SWAP1 DUP2 MSTORE PUSH1 0x1 PUSH1 0x20 SWAP1 DUP2 MSTORE PUSH1 0x40 DUP1 DUP4 KECCAK256 CALLER DUP5 MSTORE SWAP1 SWAP2 MSTORE DUP2 KECCAK256 SLOAD DUP3 DUP2 LT ISZERO PUSH2 0x6FC JUMPI PUSH1 0x40 MLOAD PUSH3 0x461BCD PUSH1 0xE5 SHL DUP2 MSTORE PUSH1 0x20 PUSH1 0x4 DUP3 ADD MSTORE PUSH1 0x28 PUSH1 0x24 DUP3 ADD MSTORE PUSH32 0x45524332303A207472616E7366657220616D6F756E7420657863656564732061 PUSH1 0x44 DUP3 ADD MSTORE PUSH8 0x6C6C6F77616E6365 PUSH1 0xC0 SHL PUSH1 0x64 DUP3 ADD MSTORE PUSH1 0x84 ADD JUMPDEST PUSH1 0x40 MLOAD DUP1 SWAP2 SUB SWAP1 REVERT JUMPDEST PUSH2 0x709 DUP6 CALLER DUP6 DUP5 SUB PUSH2 0x2B2C JUMP JUMPDEST PUSH2 0x714 DUP6 DUP6 DUP6 PUSH2 0x2C50 JUMP JUMPDEST PUSH1 0x1 SWAP2 POP POP JUMPDEST SWAP4 SWAP3 POP POP POP JUMP JUMPDEST CALLER PUSH1 0x0 DUP2 DUP2 MSTORE PUSH1 0x1 PUSH1 0x20 SWAP1 DUP2 MSTORE PUSH1 0x40 DUP1 DUP4 KECCAK256 PUSH1 0x1 PUSH1 0x1 PUSH1 0xA0 SHL SUB DUP8 AND DUP5 MSTORE SWAP1 SWAP2 MSTORE DUP2 KECCAK256 SLOAD SWAP1 SWAP2 PUSH2 0x668 SWAP2 DUP6 SWAP1 PUSH2 0x758 SWAP1 DUP7 SWAP1 PUSH2 0x3CAD JUMP JUMPDEST PUSH2 0x2B2C JUMP JUMPDEST PUSH1 0x0 DUP1 PUSH2 0x769 DUP4 PUSH2 0x17B6 JUMP JUMPDEST PUSH1 0x2 SLOAD SWAP2 SWAP4 POP SWAP2 POP DUP4 PUSH1 0x8 SLOAD PUSH2 0x77F SWAP2 SWAP1 PUSH2 0x3CC0 JUMP JUMPDEST PUSH2 0x789 SWAP2 SWAP1 PUSH2 0x3CED JUMP JUMPDEST PUSH2 0x793 SWAP1 DUP4 PUSH2 0x3CAD JUMP JUMPDEST SWAP2 POP PUSH2 0x79E PUSH1 0x2 SLOAD SWAP1 JUMP JUMPDEST DUP4 PUSH1 0x9 SLOAD PUSH2 0x7AC SWAP2 SWAP1 PUSH2 0x3CC0 JUMP JUMPDEST PUSH2 0x7B6 SWAP2 SWAP1 PUSH2 0x3CED JUMP JUMPDEST PUSH2 0x7C0 SWAP1 DUP3 PUSH2 0x3CAD JUMP JUMPDEST SWAP1 POP SWAP2 POP SWAP2 JUMP JUMPDEST PUSH1 0x0 PUSH2 0x7D2 PUSH1 0x2 SLOAD SWAP1 JUMP JUMPDEST PUSH1 0x0 SUB PUSH2 0x7E1 JUMPI POP PUSH1 0x0 PUSH2 0x66C JUMP JUMPDEST PUSH1 0x0 DUP1 PUSH2 0x7EE DUP6 DUP6 PUSH2 0x975 JUMP JUMPDEST PUSH1 0xB SLOAD SWAP2 SWAP4 POP SWAP2 POP PUSH1 0x0 SWAP1 PUSH2 0x80E SWAP1 PUSH1 0x1 PUSH1 0xA0 SHL SWAP1 DIV PUSH1 0xFF AND PUSH1 0xA PUSH2 0x3DE5 JUMP JUMPDEST PUSH2 0x818 DUP7 DUP5 PUSH2 0x3CC0 JUMP JUMPDEST PUSH2 0x822 SWAP2 SWAP1 PUSH2 0x3CED JUMP JUMPDEST PUSH1 0xA DUP1 SLOAD PUSH2 0x83B SWAP2 PUSH1 0x1 PUSH1 0xA0 SHL SWAP1 SWAP2 DIV PUSH1 0xFF AND SWAP1 PUSH2 0x3DE5 JUMP JUMPDEST PUSH2 0x845 DUP6 DUP10 PUSH2 0x3CC0 JUMP JUMPDEST PUSH2 0x84F SWAP2 SWAP1 PUSH2 0x3CED JUMP JUMPDEST PUSH2 0x859 SWAP2 SWAP1 PUSH2 0x3CAD JUMP JUMPDEST SWAP1 POP PUSH2 0x864 PUSH1 0x2 SLOAD SWAP1 JUMP JUMPDEST PUSH2 0x876 DUP3 PUSH8 0xDE0B6B3A7640000 PUSH2 0x3CC0 JUMP JUMPDEST PUSH2 0x880 SWAP2 SWAP1 PUSH2 0x3CED JUMP JUMPDEST SWAP7 SWAP6 POP POP POP POP POP POP JUMP JUMPDEST PUSH1 0xC SLOAD PUSH1 0xA SLOAD PUSH1 0x40 MLOAD PUSH4 0xB3596F07 PUSH1 0xE0 SHL DUP2 MSTORE PUSH1 0x1 PUSH1 0x1 PUSH1 0xA0 SHL SUB SWAP2 DUP3 AND PUSH1 0x4 DUP3 ADD MSTORE PUSH1 0x0 SWAP3 PUSH2 0x970 SWAP3 AND SWAP1 PUSH4 0xB3596F07 SWAP1 PUSH1 0x24 ADD PUSH1 0x20 PUSH1 0x40 MLOAD DUP1 DUP4 SUB DUP2 DUP7 GAS STATICCALL ISZERO DUP1 ISZERO PUSH2 0x8DC JUMPI RETURNDATASIZE PUSH1 0x0 DUP1 RETURNDATACOPY RETURNDATASIZE PUSH1 0x0 REVERT JUMPDEST POP POP POP POP PUSH1 0x40 MLOAD RETURNDATASIZE PUSH1 0x1F NOT PUSH1 0x1F DUP3 ADD AND DUP3 ADD DUP1 PUSH1 0x40 MSTORE POP DUP2 ADD SWAP1 PUSH2 0x900 SWAP2 SWAP1 PUSH2 0x3DF4 JUMP JUMPDEST PUSH1 0xC SLOAD PUSH1 0xB SLOAD PUSH1 0x40 MLOAD PUSH4 0xB3596F07 PUSH1 0xE0 SHL DUP2 MSTORE PUSH1 0x1 PUSH1 0x1 PUSH1 0xA0 SHL SUB SWAP2 DUP3 AND PUSH1 0x4 DUP3 ADD MSTORE SWAP2 AND SWAP1 PUSH4 0xB3596F07 SWAP1 PUSH1 0x24 ADD PUSH1 0x20 PUSH1 0x40 MLOAD DUP1 DUP4 SUB DUP2 DUP7 GAS STATICCALL ISZERO DUP1 ISZERO PUSH2 0x94C JUMPI RETURNDATASIZE PUSH1 0x0 DUP1 RETURNDATACOPY RETURNDATASIZE PUSH1 0x0 REVERT JUMPDEST POP POP POP POP PUSH1 0x40 MLOAD RETURNDATASIZE PUSH1 0x1F NOT PUSH1 0x1F DUP3 ADD AND DUP3 ADD DUP1 PUSH1 0x40 MSTORE POP DUP2 ADD SWAP1 PUSH2 0x3CD SWAP2 SWAP1 PUSH2 0x3DF4 JUMP JUMPDEST SWAP1 POP SWAP1 JUMP JUMPDEST PUSH1 0x0 DUP1 PUSH2 0x982 DUP5 DUP5 PUSH2 0x2E20 JUMP JUMPDEST PUSH1 0x8 SLOAD SWAP2 SWAP4 POP SWAP2 POP PUSH2 0x994 SWAP1 DUP4 PUSH2 0x3CAD JUMP JUMPDEST SWAP2 POP PUSH1 0x9 SLOAD DUP2 PUSH2 0x9A4 SWAP2 SWAP1 PUSH2 0x3CAD JUMP JUMPDEST SWAP1 POP SWAP3 POP SWAP3 SWAP1 POP JUMP JUMPDEST PUSH1 0x60 PUSH1 0xE DUP1 SLOAD PUSH2 0x5D8 SWAP1 PUSH2 0x3C63 JUMP JUMPDEST PUSH1 0x40 DUP1 MLOAD PUSH1 0x80 DUP2 ADD DUP3 MSTORE PUSH1 0x7 SLOAD DUP2 MSTORE ADDRESS PUSH1 0x20 DUP3 ADD MSTORE PUSH1 0x1 PUSH1 0x1 PUSH1 0x80 SHL SUB DUP2 DUP4 ADD DUP2 SWAP1 MSTORE PUSH1 0x60 DUP3 ADD MSTORE SWAP1 MLOAD PUSH4 0xFC6F7865 PUSH1 0xE0 SHL DUP2 MSTORE PUSH1 0x0 SWAP2 DUP3 SWAP2 PUSH1 0x0 DUP1 MLOAD PUSH1 0x20 PUSH2 0x4545 DUP4 CODECOPY DUP2 MLOAD SWAP2 MSTORE SWAP2 PUSH4 0xFC6F7865 SWAP2 PUSH2 0xA18 SWAP2 SWAP1 PUSH1 0x4 ADD PUSH2 0x3E0D JUMP JUMPDEST PUSH1 0x40 DUP1 MLOAD DUP1 DUP4 SUB DUP2 PUSH1 0x0 DUP8 GAS CALL ISZERO DUP1 ISZERO PUSH2 0xA36 JUMPI RETURNDATASIZE PUSH1 0x0 DUP1 RETURNDATACOPY RETURNDATASIZE PUSH1 0x0 REVERT JUMPDEST POP POP POP POP PUSH1 0x40 MLOAD RETURNDATASIZE PUSH1 0x1F NOT PUSH1 0x1F DUP3 ADD AND DUP3 ADD DUP1 PUSH1 0x40 MSTORE POP DUP2 ADD SWAP1 PUSH2 0xA5A SWAP2 SWAP1 PUSH2 0x3E50 JUMP JUMPDEST SWAP2 POP SWAP2 POP DUP2 PUSH1 0x0 EQ DUP1 ISZERO PUSH2 0xA6C JUMPI POP DUP1 ISZERO JUMPDEST ISZERO PUSH2 0xA75 JUMPI POP POP JUMP JUMPDEST PUSH1 0x0 PUSH1 0x64 PUSH2 0xA84 PUSH1 0x14 DUP6 PUSH2 0x3CC0 JUMP JUMPDEST PUSH2 0xA8E SWAP2 SWAP1 PUSH2 0x3CED JUMP JUMPDEST SWAP1 POP PUSH1 0x0 PUSH1 0x64 PUSH2 0xA9F PUSH1 0x14 DUP6 PUSH2 0x3CC0 JUMP JUMPDEST PUSH2 0xAA9 SWAP2 SWAP1 PUSH2 0x3CED JUMP JUMPDEST SWAP1 POP DUP2 ISZERO PUSH2 0xADC JUMPI PUSH1 0xA SLOAD PUSH2 0xADC SWAP1 PUSH1 0x1 PUSH1 0x1 PUSH1 0xA0 SHL SUB AND PUSH20 0x22CC3F665BA4C898226353B672C5123C58751692 DUP5 PUSH2 0x2FC4 JUMP JUMPDEST DUP1 ISZERO PUSH2 0xB0D JUMPI PUSH1 0xB SLOAD PUSH2 0xB0D SWAP1 PUSH1 0x1 PUSH1 0x1 PUSH1 0xA0 SHL SUB AND PUSH20 0x22CC3F665BA4C898226353B672C5123C58751692 DUP4 PUSH2 0x2FC4 JUMP JUMPDEST DUP2 DUP5 PUSH1 0x8 SLOAD PUSH2 0xB1C SWAP2 SWAP1 PUSH2 0x3CAD JUMP JUMPDEST PUSH2 0xB26 SWAP2 SWAP1 PUSH2 0x3E74 JUMP JUMPDEST PUSH1 0x8 SSTORE PUSH1 0x9 SLOAD DUP2 SWAP1 PUSH2 0xB39 SWAP1 DUP6 SWAP1 PUSH2 0x3CAD JUMP JUMPDEST PUSH2 0xB43 SWAP2 SWAP1 PUSH2 0x3E74 JUMP JUMPDEST PUSH1 0x9 SSTORE PUSH1 0x0 DUP1 PUSH2 0xB53 DUP2 DUP1 PUSH2 0x2E20 JUMP JUMPDEST SWAP2 POP SWAP2 POP DUP2 PUSH1 0x8 SLOAD PUSH1 0x64 PUSH2 0xB67 SWAP2 SWAP1 PUSH2 0x3CC0 JUMP JUMPDEST GT DUP1 ISZERO PUSH2 0xB81 JUMPI POP DUP1 PUSH1 0x9 SLOAD PUSH1 0x64 PUSH2 0xB7F SWAP2 SWAP1 PUSH2 0x3CC0 JUMP JUMPDEST GT JUMPDEST ISZERO PUSH2 0xF66 JUMPI PUSH1 0x8 SLOAD PUSH1 0xA SLOAD PUSH2 0xBB1 SWAP2 PUSH1 0x1 PUSH1 0x1 PUSH1 0xA0 SHL SUB SWAP1 SWAP2 AND SWAP1 PUSH1 0x0 DUP1 MLOAD PUSH1 0x20 PUSH2 0x4545 DUP4 CODECOPY DUP2 MLOAD SWAP2 MSTORE SWAP1 PUSH2 0x302C JUMP JUMPDEST PUSH1 0x9 SLOAD PUSH1 0xB SLOAD PUSH2 0xBDC SWAP2 PUSH1 0x1 PUSH1 0x1 PUSH1 0xA0 SHL SUB SWAP1 SWAP2 AND SWAP1 PUSH1 0x0 DUP1 MLOAD PUSH1 0x20 PUSH2 0x4545 DUP4 CODECOPY DUP2 MLOAD SWAP2 MSTORE SWAP1 PUSH2 0x302C JUMP JUMPDEST PUSH1 0x40 DUP1 MLOAD PUSH1 0xC0 DUP2 ADD DUP3 MSTORE PUSH1 0x7 SLOAD DUP2 MSTORE PUSH1 0x8 SLOAD PUSH1 0x20 DUP3 ADD MSTORE PUSH1 0x9 SLOAD DUP2 DUP4 ADD MSTORE PUSH1 0x0 PUSH1 0x60 DUP3 ADD DUP2 SWAP1 MSTORE PUSH1 0x80 DUP3 ADD DUP2 SWAP1 MSTORE TIMESTAMP PUSH1 0xA0 DUP4 ADD MSTORE SWAP2 MLOAD PUSH4 0x219F5D17 PUSH1 0xE0 SHL DUP2 MSTORE DUP3 SWAP2 DUP3 SWAP2 PUSH1 0x0 DUP1 MLOAD PUSH1 0x20 PUSH2 0x4545 DUP4 CODECOPY DUP2 MLOAD SWAP2 MSTORE SWAP2 PUSH4 0x219F5D17 SWAP2 PUSH2 0xC43 SWAP2 SWAP1 PUSH1 0x4 ADD PUSH2 0x3E87 JUMP JUMPDEST PUSH1 0x60 PUSH1 0x40 MLOAD DUP1 DUP4 SUB DUP2 PUSH1 0x0 DUP8 GAS CALL ISZERO DUP1 ISZERO PUSH2 0xC62 JUMPI RETURNDATASIZE PUSH1 0x0 DUP1 RETURNDATACOPY RETURNDATASIZE PUSH1 0x0 REVERT JUMPDEST POP POP POP POP PUSH1 0x40 MLOAD RETURNDATASIZE PUSH1 0x1F NOT PUSH1 0x1F DUP3 ADD AND DUP3 ADD DUP1 PUSH1 0x40 MSTORE POP DUP2 ADD SWAP1 PUSH2 0xC86 SWAP2 SWAP1 PUSH2 0x3ECB JUMP JUMPDEST PUSH1 0xC SLOAD PUSH1 0xA SLOAD PUSH1 0x40 MLOAD PUSH4 0xB3596F07 PUSH1 0xE0 SHL DUP2 MSTORE PUSH1 0x1 PUSH1 0x1 PUSH1 0xA0 SHL SUB SWAP2 DUP3 AND PUSH1 0x4 DUP3 ADD MSTORE SWAP5 SWAP8 POP SWAP3 SWAP6 POP SWAP1 SWAP4 POP PUSH1 0x0 SWAP3 SWAP2 AND SWAP1 PUSH4 0xB3596F07 SWAP1 PUSH1 0x24 ADD PUSH1 0x20 PUSH1 0x40 MLOAD DUP1 DUP4 SUB DUP2 DUP7 GAS STATICCALL ISZERO DUP1 ISZERO PUSH2 0xCDE JUMPI RETURNDATASIZE PUSH1 0x0 DUP1 RETURNDATACOPY RETURNDATASIZE PUSH1 0x0 REVERT JUMPDEST POP POP POP POP PUSH1 0x40 MLOAD RETURNDATASIZE PUSH1 0x1F NOT PUSH1 0x1F DUP3 ADD AND DUP3 ADD DUP1 PUSH1 0x40 MSTORE POP DUP2 ADD SWAP1 PUSH2 0xD02 SWAP2 SWAP1 PUSH2 0x3DF4 JUMP JUMPDEST PUSH1 0xC SLOAD PUSH1 0xB SLOAD PUSH1 0x40 MLOAD PUSH4 0xB3596F07 PUSH1 0xE0 SHL DUP2 MSTORE PUSH1 0x1 PUSH1 0x1 PUSH1 0xA0 SHL SUB SWAP2 DUP3 AND PUSH1 0x4 DUP3 ADD MSTORE SWAP3 SWAP4 POP PUSH1 0x0 SWAP3 SWAP2 AND SWAP1 PUSH4 0xB3596F07 SWAP1 PUSH1 0x24 ADD PUSH1 0x20 PUSH1 0x40 MLOAD DUP1 DUP4 SUB DUP2 DUP7 GAS STATICCALL ISZERO DUP1 ISZERO PUSH2 0xD54 JUMPI RETURNDATASIZE PUSH1 0x0 DUP1 RETURNDATACOPY RETURNDATASIZE PUSH1 0x0 REVERT JUMPDEST POP POP POP POP PUSH1 0x40 MLOAD RETURNDATASIZE PUSH1 0x1F NOT PUSH1 0x1F DUP3 ADD AND DUP3 ADD DUP1 PUSH1 0x40 MSTORE POP DUP2 ADD SWAP1 PUSH2 0xD78 SWAP2 SWAP1 PUSH2 0x3DF4 JUMP JUMPDEST PUSH1 0xB SLOAD SWAP1 SWAP2 POP PUSH1 0x0 SWAP1 PUSH2 0xD96 SWAP1 PUSH1 0x1 PUSH1 0xA0 SHL SWAP1 DIV PUSH1 0xFF AND PUSH1 0xA PUSH2 0x3DE5 JUMP JUMPDEST PUSH2 0xDA0 DUP4 DUP7 PUSH2 0x3CC0 JUMP JUMPDEST PUSH2 0xDAA SWAP2 SWAP1 PUSH2 0x3CED JUMP JUMPDEST PUSH1 0xA DUP1 SLOAD PUSH2 0xDC3 SWAP2 PUSH1 0x1 PUSH1 0xA0 SHL SWAP1 SWAP2 DIV PUSH1 0xFF AND SWAP1 PUSH2 0x3DE5 JUMP JUMPDEST PUSH2 0xDCD DUP6 DUP9 PUSH2 0x3CC0 JUMP JUMPDEST PUSH2 0xDD7 SWAP2 SWAP1 PUSH2 0x3CED JUMP JUMPDEST PUSH2 0xDE1 SWAP2 SWAP1 PUSH2 0x3CAD JUMP JUMPDEST PUSH1 0xB SLOAD SWAP1 SWAP2 POP PUSH1 0x0 SWAP1 PUSH2 0xDFF SWAP1 PUSH1 0x1 PUSH1 0xA0 SHL SWAP1 DIV PUSH1 0xFF AND PUSH1 0xA PUSH2 0x3DE5 JUMP JUMPDEST PUSH2 0xE09 DUP5 DUP11 PUSH2 0x3CC0 JUMP JUMPDEST PUSH2 0xE13 SWAP2 SWAP1 PUSH2 0x3CED JUMP JUMPDEST PUSH1 0xA DUP1 SLOAD PUSH2 0xE2C SWAP2 PUSH1 0x1 PUSH1 0xA0 SHL SWAP1 SWAP2 DIV PUSH1 0xFF AND SWAP1 PUSH2 0x3DE5 JUMP JUMPDEST PUSH2 0xE36 DUP7 DUP13 PUSH2 0x3CC0 JUMP JUMPDEST PUSH2 0xE40 SWAP2 SWAP1 PUSH2 0x3CED JUMP JUMPDEST PUSH2 0xE4A SWAP2 SWAP1 PUSH2 0x3CAD JUMP JUMPDEST PUSH1 0x10 SLOAD SWAP1 SWAP2 POP PUSH1 0x0 SWAP1 PUSH1 0x1 PUSH1 0x1 PUSH1 0x80 SHL SUB SWAP1 DUP2 AND SWAP1 PUSH2 0xE6B SWAP1 DUP11 AND DUP5 PUSH2 0x3CC0 JUMP JUMPDEST PUSH2 0xE75 SWAP2 SWAP1 PUSH2 0x3CED JUMP JUMPDEST SWAP1 POP PUSH1 0x64 PUSH2 0xE84 DUP3 PUSH1 0x5F PUSH2 0x3CC0 JUMP JUMPDEST PUSH2 0xE8E SWAP2 SWAP1 PUSH2 0x3CED JUMP JUMPDEST DUP4 GT DUP1 ISZERO PUSH2 0xEB1 JUMPI POP PUSH1 0x64 PUSH2 0xEA4 DUP5 PUSH1 0x5F PUSH2 0x3CC0 JUMP JUMPDEST PUSH2 0xEAE SWAP2 SWAP1 PUSH2 0x3CED JUMP JUMPDEST DUP2 GT JUMPDEST PUSH2 0xEF6 JUMPI PUSH1 0x40 MLOAD PUSH3 0x461BCD PUSH1 0xE5 SHL DUP2 MSTORE PUSH1 0x20 PUSH1 0x4 DUP3 ADD MSTORE PUSH1 0x16 PUSH1 0x24 DUP3 ADD MSTORE PUSH22 0x54523A20436C61696D2046656520536C697070616765 PUSH1 0x50 SHL PUSH1 0x44 DUP3 ADD MSTORE PUSH1 0x64 ADD PUSH2 0x6F3 JUMP JUMPDEST DUP7 PUSH1 0x8 PUSH1 0x0 DUP3 DUP3 SLOAD PUSH2 0xF08 SWAP2 SWAP1 PUSH2 0x3E74 JUMP JUMPDEST SWAP3 POP POP DUP2 SWAP1 SSTORE POP DUP6 PUSH1 0x9 PUSH1 0x0 DUP3 DUP3 SLOAD PUSH2 0xF21 SWAP2 SWAP1 PUSH2 0x3E74 JUMP JUMPDEST SWAP1 SWAP2 SSTORE POP POP PUSH1 0x10 SLOAD PUSH2 0xF3D SWAP1 DUP10 SWAP1 PUSH1 0x1 PUSH1 0x1 PUSH1 0x80 SHL SUB AND PUSH2 0x3F02 JUMP JUMPDEST PUSH1 0x10 DUP1 SLOAD PUSH1 0x1 PUSH1 0x1 PUSH1 0x80 SHL SUB NOT AND PUSH1 0x1 PUSH1 0x1 PUSH1 0x80 SHL SUB SWAP3 SWAP1 SWAP3 AND SWAP2 SWAP1 SWAP2 OR SWAP1 SSTORE POP POP POP POP POP POP POP POP JUMPDEST PUSH1 0x40 DUP1 MLOAD DUP8 DUP2 MSTORE PUSH1 0x20 DUP2 ADD DUP8 SWAP1 MSTORE PUSH32 0xCBF6196D7BEBCBAAF53F321EECB5B4F39479879F3996F828F10012708A9442D7 SWAP2 ADD PUSH1 0x40 MLOAD DUP1 SWAP2 SUB SWAP1 LOG1 POP POP POP POP POP POP JUMP JUMPDEST PUSH1 0x0 DUP1 PUSH1 0x2 PUSH1 0x5 SLOAD SUB PUSH2 0xFFC JUMPI PUSH1 0x40 MLOAD PUSH3 0x461BCD PUSH1 0xE5 SHL DUP2 MSTORE PUSH1 0x20 PUSH1 0x4 DUP3 ADD MSTORE PUSH1 0x1F PUSH1 0x24 DUP3 ADD MSTORE PUSH32 0x5265656E7472616E637947756172643A207265656E7472616E742063616C6C00 PUSH1 0x44 DUP3 ADD MSTORE PUSH1 0x64 ADD PUSH2 0x6F3 JUMP JUMPDEST PUSH1 0x2 PUSH1 0x5 SSTORE PUSH2 0x1009 PUSH2 0x9BC JUMP JUMPDEST PUSH1 0x0 PUSH2 0x1014 PUSH1 0x2 SLOAD SWAP1 JUMP JUMPDEST PUSH1 0x10 SLOAD PUSH2 0x102B SWAP1 DUP9 SWAP1 PUSH1 0x1 PUSH1 0x1 PUSH1 0x80 SHL SUB AND PUSH2 0x3CC0 JUMP JUMPDEST PUSH2 0x1035 SWAP2 SWAP1 PUSH2 0x3CED JUMP JUMPDEST PUSH1 0x40 DUP1 MLOAD PUSH1 0xA0 DUP2 ADD DUP3 MSTORE PUSH1 0x7 SLOAD DUP2 MSTORE PUSH1 0x1 PUSH1 0x1 PUSH1 0x80 SHL SUB DUP4 DUP2 AND PUSH1 0x20 DUP4 ADD SWAP1 DUP2 MSTORE DUP3 DUP5 ADD DUP11 DUP2 MSTORE PUSH1 0x60 DUP5 ADD DUP11 DUP2 MSTORE TIMESTAMP PUSH1 0x80 DUP7 ADD SWAP1 DUP2 MSTORE SWAP6 MLOAD PUSH4 0x624E65F PUSH1 0xE1 SHL DUP2 MSTORE SWAP5 MLOAD PUSH1 0x4 DUP7 ADD MSTORE SWAP2 MLOAD SWAP1 SWAP3 AND PUSH1 0x24 DUP5 ADD MSTORE SWAP1 MLOAD PUSH1 0x44 DUP4 ADD MSTORE MLOAD PUSH1 0x64 DUP3 ADD MSTORE SWAP1 MLOAD PUSH1 0x84 DUP3 ADD MSTORE SWAP1 SWAP2 POP PUSH1 0x0 DUP1 MLOAD PUSH1 0x20 PUSH2 0x4545 DUP4 CODECOPY DUP2 MLOAD SWAP2 MSTORE SWAP1 PUSH4 0xC49CCBE SWAP1 PUSH1 0xA4 ADD PUSH1 0x40 DUP1 MLOAD DUP1 DUP4 SUB DUP2 PUSH1 0x0 DUP8 GAS CALL ISZERO DUP1 ISZERO PUSH2 0x10D6 JUMPI RETURNDATASIZE PUSH1 0x0 DUP1 RETURNDATACOPY RETURNDATASIZE PUSH1 0x0 REVERT JUMPDEST POP POP POP POP PUSH1 0x40 MLOAD RETURNDATASIZE PUSH1 0x1F NOT PUSH1 0x1F DUP3 ADD AND DUP3 ADD DUP1 PUSH1 0x40 MSTORE POP DUP2 ADD SWAP1 PUSH2 0x10FA SWAP2 SWAP1 PUSH2 0x3E50 JUMP JUMPDEST PUSH1 0x10 SLOAD SWAP2 SWAP5 POP SWAP3 POP PUSH2 0x1116 SWAP1 DUP3 SWAP1 PUSH1 0x1 PUSH1 0x1 PUSH1 0x80 SHL SUB AND PUSH2 0x3E74 JUMP JUMPDEST PUSH1 0x10 DUP1 SLOAD PUSH1 0x1 PUSH1 0x1 PUSH1 0x80 SHL SUB NOT AND PUSH1 0x1 PUSH1 0x1 PUSH1 0x80 SHL SUB SWAP3 DUP4 AND OR SWAP1 SSTORE PUSH1 0x40 DUP1 MLOAD PUSH1 0x80 DUP2 ADD DUP3 MSTORE PUSH1 0x7 SLOAD DUP2 MSTORE CALLER PUSH1 0x20 DUP3 ADD MSTORE DUP6 DUP4 AND DUP2 DUP4 ADD MSTORE SWAP2 DUP5 AND PUSH1 0x60 DUP4 ADD MSTORE MLOAD PUSH4 0xFC6F7865 PUSH1 0xE0 SHL DUP2 MSTORE PUSH1 0x0 DUP1 MLOAD PUSH1 0x20 PUSH2 0x4545 DUP4 CODECOPY DUP2 MLOAD SWAP2 MSTORE SWAP2 PUSH4 0xFC6F7865 SWAP2 PUSH2 0x1184 SWAP2 SWAP1 PUSH1 0x4 ADD PUSH2 0x3E0D JUMP JUMPDEST PUSH1 0x40 DUP1 MLOAD DUP1 DUP4 SUB DUP2 PUSH1 0x0 DUP8 GAS CALL ISZERO DUP1 ISZERO PUSH2 0x11A2 JUMPI RETURNDATASIZE PUSH1 0x0 DUP1 RETURNDATACOPY RETURNDATASIZE PUSH1 0x0 REVERT JUMPDEST POP POP POP POP PUSH1 0x40 MLOAD RETURNDATASIZE PUSH1 0x1F NOT PUSH1 0x1F DUP3 ADD AND DUP3 ADD DUP1 PUSH1 0x40 MSTORE POP DUP2 ADD SWAP1 PUSH2 0x11C6 SWAP2 SWAP1 PUSH2 0x3E50 JUMP JUMPDEST POP POP PUSH1 0x8 SLOAD ISZERO PUSH2 0x1267 JUMPI PUSH2 0x1208 CALLER PUSH2 0x11DD PUSH1 0x2 SLOAD SWAP1 JUMP JUMPDEST DUP9 PUSH1 0x8 SLOAD PUSH2 0x11EB SWAP2 SWAP1 PUSH2 0x3CC0 JUMP JUMPDEST PUSH2 0x11F5 SWAP2 SWAP1 PUSH2 0x3CED JUMP JUMPDEST PUSH1 0xA SLOAD PUSH1 0x1 PUSH1 0x1 PUSH1 0xA0 SHL SUB AND SWAP2 SWAP1 PUSH2 0x2FC4 JUMP JUMPDEST PUSH1 0x2 SLOAD DUP7 PUSH1 0x8 SLOAD PUSH2 0x1219 SWAP2 SWAP1 PUSH2 0x3CC0 JUMP JUMPDEST PUSH2 0x1223 SWAP2 SWAP1 PUSH2 0x3CED JUMP JUMPDEST PUSH2 0x122D SWAP1 DUP5 PUSH2 0x3CAD JUMP JUMPDEST SWAP3 POP PUSH2 0x1238 PUSH1 0x2 SLOAD SWAP1 JUMP JUMPDEST DUP7 PUSH1 0x8 SLOAD PUSH2 0x1246 SWAP2 SWAP1 PUSH2 0x3CC0 JUMP JUMPDEST PUSH2 0x1250 SWAP2 SWAP1 PUSH2 0x3CED JUMP JUMPDEST PUSH1 0x8 PUSH1 0x0 DUP3 DUP3 SLOAD PUSH2 0x1261 SWAP2 SWAP1 PUSH2 0x3E74 JUMP JUMPDEST SWAP1 SWAP2 SSTORE POP POP JUMPDEST PUSH1 0x9 SLOAD ISZERO PUSH2 0x1306 JUMPI PUSH2 0x12A7 CALLER PUSH2 0x127C PUSH1 0x2 SLOAD SWAP1 JUMP JUMPDEST DUP9 PUSH1 0x9 SLOAD PUSH2 0x128A SWAP2 SWAP1 PUSH2 0x3CC0 JUMP JUMPDEST PUSH2 0x1294 SWAP2 SWAP1 PUSH2 0x3CED JUMP JUMPDEST PUSH1 0xB SLOAD PUSH1 0x1 PUSH1 0x1 PUSH1 0xA0 SHL SUB AND SWAP2 SWAP1 PUSH2 0x2FC4 JUMP JUMPDEST PUSH1 0x2 SLOAD DUP7 PUSH1 0x9 SLOAD PUSH2 0x12B8 SWAP2 SWAP1 PUSH2 0x3CC0 JUMP JUMPDEST PUSH2 0x12C2 SWAP2 SWAP1 PUSH2 0x3CED JUMP JUMPDEST PUSH2 0x12CC SWAP1 DUP4 PUSH2 0x3CAD JUMP JUMPDEST SWAP2 POP PUSH2 0x12D7 PUSH1 0x2 SLOAD SWAP1 JUMP JUMPDEST DUP7 PUSH1 0x9 SLOAD PUSH2 0x12E5 SWAP2 SWAP1 PUSH2 0x3CC0 JUMP JUMPDEST PUSH2 0x12EF SWAP2 SWAP1 PUSH2 0x3CED JUMP JUMPDEST PUSH1 0x9 PUSH1 0x0 DUP3 DUP3 SLOAD PUSH2 0x1300 SWAP2 SWAP1 PUSH2 0x3E74 JUMP JUMPDEST SWAP1 SWAP2 SSTORE POP POP JUMPDEST PUSH2 0x1310 CALLER DUP8 PUSH2 0x30DE JUMP JUMPDEST PUSH1 0x40 DUP1 MLOAD CALLER DUP2 MSTORE PUSH1 0x20 DUP2 ADD DUP9 SWAP1 MSTORE PUSH32 0x884EDAD9CE6FA2440D8A54CC123490EB96D2768479D49FF9C7366125A9424364 SWAP2 ADD PUSH1 0x40 MLOAD DUP1 SWAP2 SUB SWAP1 LOG1 POP PUSH1 0x1 PUSH1 0x5 SSTORE SWAP1 SWAP5 SWAP1 SWAP4 POP SWAP2 POP POP JUMP JUMPDEST CALLER PUSH1 0x0 SWAP1 DUP2 MSTORE PUSH1 0x1 PUSH1 0x20 SWAP1 DUP2 MSTORE PUSH1 0x40 DUP1 DUP4 KECCAK256 PUSH1 0x1 PUSH1 0x1 PUSH1 0xA0 SHL SUB DUP7 AND DUP5 MSTORE SWAP1 SWAP2 MSTORE DUP2 KECCAK256 SLOAD DUP3 DUP2 LT ISZERO PUSH2 0x13DB JUMPI PUSH1 0x40 MLOAD PUSH3 0x461BCD PUSH1 0xE5 SHL DUP2 MSTORE PUSH1 0x20 PUSH1 0x4 DUP3 ADD MSTORE PUSH1 0x25 PUSH1 0x24 DUP3 ADD MSTORE PUSH32 0x45524332303A2064656372656173656420616C6C6F77616E63652062656C6F77 PUSH1 0x44 DUP3 ADD MSTORE PUSH5 0x207A65726F PUSH1 0xD8 SHL PUSH1 0x64 DUP3 ADD MSTORE PUSH1 0x84 ADD PUSH2 0x6F3 JUMP JUMPDEST PUSH2 0x13E8 CALLER DUP6 DUP6 DUP5 SUB PUSH2 0x2B2C JUMP JUMPDEST POP PUSH1 0x1 SWAP4 SWAP3 POP POP POP JUMP JUMPDEST PUSH1 0x1 PUSH1 0xF SLOAD PUSH1 0xFF AND PUSH1 0x2 DUP2 GT ISZERO PUSH2 0x140B JUMPI PUSH2 0x140B PUSH2 0x395D JUMP JUMPDEST EQ PUSH2 0x1442 JUMPI PUSH1 0x40 MLOAD PUSH3 0x461BCD PUSH1 0xE5 SHL DUP2 MSTORE PUSH1 0x20 PUSH1 0x4 DUP3 ADD MSTORE PUSH1 0x7 PUSH1 0x24 DUP3 ADD MSTORE PUSH7 0x21496E69744C5 PUSH1 0xCC SHL PUSH1 0x44 DUP3 ADD MSTORE PUSH1 0x64 ADD PUSH2 0x6F3 JUMP JUMPDEST PUSH1 0xF SLOAD PUSH2 0x100 SWAP1 DIV PUSH1 0x1 PUSH1 0x1 PUSH1 0xA0 SHL SUB AND CALLER EQ PUSH2 0x1492 JUMPI PUSH1 0x40 MLOAD PUSH3 0x461BCD PUSH1 0xE5 SHL DUP2 MSTORE PUSH1 0x20 PUSH1 0x4 DUP3 ADD MSTORE PUSH1 0xE PUSH1 0x24 DUP3 ADD MSTORE PUSH14 0x155B985B1B1BDDD9590818D85B1B PUSH1 0x92 SHL PUSH1 0x44 DUP3 ADD MSTORE PUSH1 0x64 ADD PUSH2 0x6F3 JUMP JUMPDEST PUSH1 0xF DUP1 SLOAD PUSH1 0xFF NOT AND PUSH1 0x2 OR SWAP1 SSTORE PUSH1 0xA SLOAD PUSH2 0x14B7 SWAP1 PUSH1 0x1 PUSH1 0x1 PUSH1 0xA0 SHL SUB AND CALLER ADDRESS DUP6 PUSH2 0x322C JUMP JUMPDEST PUSH1 0xB SLOAD PUSH2 0x14CF SWAP1 PUSH1 0x1 PUSH1 0x1 PUSH1 0xA0 SHL SUB AND CALLER ADDRESS DUP5 PUSH2 0x322C JUMP JUMPDEST PUSH1 0xA SLOAD PUSH2 0x14F4 SWAP1 PUSH1 0x1 PUSH1 0x1 PUSH1 0xA0 SHL SUB AND PUSH1 0x0 DUP1 MLOAD PUSH1 0x20 PUSH2 0x4545 DUP4 CODECOPY DUP2 MLOAD SWAP2 MSTORE DUP5 PUSH2 0x302C JUMP JUMPDEST PUSH1 0xB SLOAD PUSH2 0x1519 SWAP1 PUSH1 0x1 PUSH1 0x1 PUSH1 0xA0 SHL SUB AND PUSH1 0x0 DUP1 MLOAD PUSH1 0x20 PUSH2 0x4545 DUP4 CODECOPY DUP2 MLOAD SWAP2 MSTORE DUP4 PUSH2 0x302C JUMP JUMPDEST PUSH1 0x40 DUP1 MLOAD PUSH2 0x160 DUP2 ADD DUP3 MSTORE PUSH1 0xA SLOAD PUSH1 0x1 PUSH1 0x1 PUSH1 0xA0 SHL SUB SWAP1 DUP2 AND DUP3 MSTORE PUSH1 0xB SLOAD AND PUSH1 0x20 DUP3 ADD MSTORE PUSH1 0x6 SLOAD PUSH1 0x0 DUP1 MLOAD PUSH1 0x20 PUSH2 0x4545 DUP4 CODECOPY DUP2 MLOAD SWAP2 MSTORE SWAP3 PUSH4 0x88316456 SWAP3 SWAP2 SWAP1 DUP3 ADD SWAP1 PUSH2 0x1572 SWAP1 PUSH1 0x1 PUSH1 0x30 SHL SWAP1 DIV PUSH3 0xFFFFFF AND PUSH1 0x64 PUSH2 0x3F29 JUMP JUMPDEST PUSH3 0xFFFFFF AND DUP2 MSTORE PUSH1 0x6 SLOAD PUSH1 0x2 DUP2 DUP2 SIGNEXTEND PUSH1 0x20 DUP5 ADD MSTORE PUSH4 0x1000000 SWAP1 SWAP2 DIV SWAP1 SIGNEXTEND PUSH1 0x40 DUP3 ADD MSTORE PUSH1 0x60 DUP2 ADD DUP7 SWAP1 MSTORE PUSH1 0x80 DUP2 ADD DUP6 SWAP1 MSTORE PUSH1 0xA0 ADD PUSH1 0x64 PUSH2 0x15B3 DUP8 PUSH1 0x5F PUSH2 0x3CC0 JUMP JUMPDEST PUSH2 0x15BD SWAP2 SWAP1 PUSH2 0x3CED JUMP JUMPDEST DUP2 MSTORE PUSH1 0x20 ADD PUSH1 0x64 PUSH2 0x15CF DUP7 PUSH1 0x5F PUSH2 0x3CC0 JUMP JUMPDEST PUSH2 0x15D9 SWAP2 SWAP1 PUSH2 0x3CED JUMP JUMPDEST DUP2 MSTORE ADDRESS PUSH1 0x20 DUP3 ADD MSTORE TIMESTAMP PUSH1 0x40 SWAP2 DUP3 ADD MSTORE MLOAD PUSH1 0x1 PUSH1 0x1 PUSH1 0xE0 SHL SUB NOT PUSH1 0xE0 DUP5 SWAP1 SHL AND DUP2 MSTORE PUSH2 0x1607 SWAP2 SWAP1 PUSH1 0x4 ADD PUSH2 0x3F50 JUMP JUMPDEST PUSH1 0x80 PUSH1 0x40 MLOAD DUP1 DUP4 SUB DUP2 PUSH1 0x0 DUP8 GAS CALL ISZERO DUP1 ISZERO PUSH2 0x1626 JUMPI RETURNDATASIZE PUSH1 0x0 DUP1 RETURNDATACOPY RETURNDATASIZE PUSH1 0x0 REVERT JUMPDEST POP POP POP POP PUSH1 0x40 MLOAD RETURNDATASIZE PUSH1 0x1F NOT PUSH1 0x1F DUP3 ADD AND DUP3 ADD DUP1 PUSH1 0x40 MSTORE POP DUP2 ADD SWAP1 PUSH2 0x164A SWAP2 SWAP1 PUSH2 0x4014 JUMP JUMPDEST POP POP PUSH1 0x10 DUP1 SLOAD PUSH1 0x1 PUSH1 0x1 PUSH1 0x80 SHL SUB NOT AND PUSH1 0x1 PUSH1 0x1 PUSH1 0x80 SHL SUB SWAP3 SWAP1 SWAP3 AND SWAP2 SWAP1 SWAP2 OR SWAP1 SSTORE PUSH1 0x7 SSTORE PUSH1 0xA SLOAD PUSH1 0x40 MLOAD PUSH4 0x70A08231 PUSH1 0xE0 SHL DUP2 MSTORE ADDRESS PUSH1 0x4 DUP3 ADD MSTORE PUSH2 0x16E1 SWAP2 CALLER SWAP2 PUSH1 0x1 PUSH1 0x1 PUSH1 0xA0 SHL SUB SWAP1 SWAP2 AND SWAP1 PUSH4 0x70A08231 SWAP1 PUSH1 0x24 ADD PUSH1 0x20 PUSH1 0x40 MLOAD DUP1 DUP4 SUB DUP2 DUP7 GAS STATICCALL ISZERO DUP1 ISZERO PUSH2 0x16BD JUMPI RETURNDATASIZE PUSH1 0x0 DUP1 RETURNDATACOPY RETURNDATASIZE PUSH1 0x0 REVERT JUMPDEST POP POP POP POP PUSH1 0x40 MLOAD RETURNDATASIZE PUSH1 0x1F NOT PUSH1 0x1F DUP3 ADD AND DUP3 ADD DUP1 PUSH1 0x40 MSTORE POP DUP2 ADD SWAP1 PUSH2 0x11F5 SWAP2 SWAP1 PUSH2 0x3DF4 JUMP JUMPDEST PUSH1 0xB SLOAD PUSH1 0x40 MLOAD PUSH4 0x70A08231 PUSH1 0xE0 SHL DUP2 MSTORE ADDRESS PUSH1 0x4 DUP3 ADD MSTORE PUSH2 0x1753 SWAP2 CALLER SWAP2 PUSH1 0x1 PUSH1 0x1 PUSH1 0xA0 SHL SUB SWAP1 SWAP2 AND SWAP1 PUSH4 0x70A08231 SWAP1 PUSH1 0x24 ADD PUSH1 0x20 PUSH1 0x40 MLOAD DUP1 DUP4 SUB DUP2 DUP7 GAS STATICCALL ISZERO DUP1 ISZERO PUSH2 0x172F JUMPI RETURNDATASIZE PUSH1 0x0 DUP1 RETURNDATACOPY RETURNDATASIZE PUSH1 0x0 REVERT JUMPDEST POP POP POP POP PUSH1 0x40 MLOAD RETURNDATASIZE PUSH1 0x1F NOT PUSH1 0x1F DUP3 ADD AND DUP3 ADD DUP1 PUSH1 0x40 MSTORE POP DUP2 ADD SWAP1 PUSH2 0x1294 SWAP2 SWAP1 PUSH2 0x3DF4 JUMP JUMPDEST PUSH2 0x1765 CALLER PUSH8 0xDE0B6B3A7640000 PUSH2 0x3264 JUMP JUMPDEST PUSH1 0x40 DUP1 MLOAD CALLER DUP2 MSTORE PUSH8 0xDE0B6B3A7640000 PUSH1 0x20 DUP3 ADD MSTORE PUSH32 0xE1FFFCC4923D04B559F4D29A8BFC6CDA04EB5B0D3C460751C2402C5C5CC9109C SWAP2 ADD PUSH1 0x40 MLOAD DUP1 SWAP2 SUB SWAP1 LOG1 POP POP JUMP JUMPDEST PUSH1 0x0 PUSH2 0x668 CALLER DUP5 DUP5 PUSH2 0x2C50 JUMP JUMPDEST PUSH1 0xA SLOAD PUSH1 0xB SLOAD PUSH1 0x6 SLOAD PUSH1 0x0 SWAP3 DUP4 SWAP3 DUP4 SWAP3 PUSH20 0x1F98431C8AD98523631AE4A59F267346EA31F984 SWAP3 PUSH4 0x1698EE82 SWAP3 PUSH1 0x1 PUSH1 0x1 PUSH1 0xA0 SHL SUB SWAP2 DUP3 AND SWAP3 SWAP2 AND SWAP1 PUSH2 0x1808 SWAP1 PUSH1 0x1 PUSH1 0x30 SHL SWAP1 DIV PUSH3 0xFFFFFF AND PUSH1 0x64 PUSH2 0x3F29 JUMP JUMPDEST PUSH1 0x40 MLOAD PUSH1 0x1 PUSH1 0x1 PUSH1 0xE0 SHL SUB NOT PUSH1 0xE0 DUP7 SWAP1 SHL AND DUP2 MSTORE PUSH1 0x1 PUSH1 0x1 PUSH1 0xA0 SHL SUB SWAP4 DUP5 AND PUSH1 0x4 DUP3 ADD MSTORE SWAP3 SWAP1 SWAP2 AND PUSH1 0x24 DUP4 ADD MSTORE PUSH3 0xFFFFFF AND PUSH1 0x44 DUP3 ADD MSTORE PUSH1 0x64 ADD PUSH1 0x20 PUSH1 0x40 MLOAD DUP1 DUP4 SUB DUP2 DUP7 GAS STATICCALL ISZERO DUP1 ISZERO PUSH2 0x185F JUMPI RETURNDATASIZE PUSH1 0x0 DUP1 RETURNDATACOPY RETURNDATASIZE PUSH1 0x0 REVERT JUMPDEST POP POP POP POP PUSH1 0x40 MLOAD RETURNDATASIZE PUSH1 0x1F NOT PUSH1 0x1F DUP3 ADD AND DUP3 ADD DUP1 PUSH1 0x40 MSTORE POP DUP2 ADD SWAP1 PUSH2 0x1883 SWAP2 SWAP1 PUSH2 0x4052 JUMP JUMPDEST SWAP1 POP PUSH1 0x0 DUP2 PUSH1 0x1 PUSH1 0x1 PUSH1 0xA0 SHL SUB AND PUSH4 0x3850C7BD PUSH1 0x40 MLOAD DUP2 PUSH4 0xFFFFFFFF AND PUSH1 0xE0 SHL DUP2 MSTORE PUSH1 0x4 ADD PUSH1 0xE0 PUSH1 0x40 MLOAD DUP1 DUP4 SUB DUP2 DUP7 GAS STATICCALL ISZERO DUP1 ISZERO PUSH2 0x18C5 JUMPI RETURNDATASIZE PUSH1 0x0 DUP1 RETURNDATACOPY RETURNDATASIZE PUSH1 0x0 REVERT JUMPDEST POP POP POP POP PUSH1 0x40 MLOAD RETURNDATASIZE PUSH1 0x1F NOT PUSH1 0x1F DUP3 ADD AND DUP3 ADD DUP1 PUSH1 0x40 MSTORE POP DUP2 ADD SWAP1 PUSH2 0x18E9 SWAP2 SWAP1 PUSH2 0x40A4 JUMP JUMPDEST POP POP PUSH1 0x6 SLOAD PUSH1 0x40 MLOAD PUSH4 0x986CFBA3 PUSH1 0xE0 SHL DUP2 MSTORE PUSH1 0x2 SWAP2 SWAP1 SWAP2 SIGNEXTEND PUSH1 0x4 DUP3 ADD MSTORE SWAP5 SWAP6 POP PUSH2 0x1A1D SWAP5 DUP7 SWAP5 POP PUSH20 0x0 SWAP4 POP PUSH4 0x986CFBA3 SWAP3 POP PUSH1 0x24 ADD SWAP1 POP PUSH1 0x20 PUSH1 0x40 MLOAD DUP1 DUP4 SUB DUP2 DUP7 GAS DELEGATECALL ISZERO DUP1 ISZERO PUSH2 0x1950 JUMPI RETURNDATASIZE PUSH1 0x0 DUP1 RETURNDATACOPY RETURNDATASIZE PUSH1 0x0 REVERT JUMPDEST POP POP POP POP PUSH1 0x40 MLOAD RETURNDATASIZE PUSH1 0x1F NOT PUSH1 0x1F DUP3 ADD AND DUP3 ADD DUP1 PUSH1 0x40 MSTORE POP DUP2 ADD SWAP1 PUSH2 0x1974 SWAP2 SWAP1 PUSH2 0x4052 JUMP JUMPDEST PUSH1 0x6 SLOAD PUSH1 0x40 MLOAD PUSH4 0x986CFBA3 PUSH1 0xE0 SHL DUP2 MSTORE PUSH4 0x1000000 SWAP1 SWAP2 DIV PUSH1 0x2 SIGNEXTEND PUSH1 0x4 DUP3 ADD MSTORE PUSH20 0x0 SWAP1 PUSH4 0x986CFBA3 SWAP1 PUSH1 0x24 ADD PUSH1 0x20 PUSH1 0x40 MLOAD DUP1 DUP4 SUB DUP2 DUP7 GAS DELEGATECALL ISZERO DUP1 ISZERO PUSH2 0x19D0 JUMPI RETURNDATASIZE PUSH1 0x0 DUP1 RETURNDATACOPY RETURNDATASIZE PUSH1 0x0 REVERT JUMPDEST POP POP POP POP PUSH1 0x40 MLOAD RETURNDATASIZE PUSH1 0x1F NOT PUSH1 0x1F DUP3 ADD AND DUP3 ADD DUP1 PUSH1 0x40 MSTORE POP DUP2 ADD SWAP1 PUSH2 0x19F4 SWAP2 SWAP1 PUSH2 0x4052 JUMP JUMPDEST PUSH1 0x2 SLOAD PUSH1 0x10 SLOAD PUSH2 0x1A0E SWAP1 DUP12 SWAP1 PUSH1 0x1 PUSH1 0x1 PUSH1 0x80 SHL SUB AND PUSH2 0x3CC0 JUMP JUMPDEST PUSH2 0x1A18 SWAP2 SWAP1 PUSH2 0x3CED JUMP JUMPDEST PUSH2 0x3343 JUMP JUMPDEST SWAP1 SWAP7 SWAP1 SWAP6 POP SWAP4 POP POP POP POP JUMP JUMPDEST PUSH1 0x1 PUSH1 0x1 PUSH1 0xA0 SHL SUB DUP9 AND PUSH2 0x1A70 JUMPI PUSH1 0x40 MLOAD PUSH3 0x461BCD PUSH1 0xE5 SHL DUP2 MSTORE PUSH1 0x20 PUSH1 0x4 DUP3 ADD MSTORE PUSH1 0xE PUSH1 0x24 DUP3 ADD MSTORE PUSH14 0x496E76616C6964206F7261636C65 PUSH1 0x90 SHL PUSH1 0x44 DUP3 ADD MSTORE PUSH1 0x64 ADD PUSH2 0x6F3 JUMP JUMPDEST PUSH1 0x0 PUSH1 0xF SLOAD PUSH1 0xFF AND PUSH1 0x2 DUP2 GT ISZERO PUSH2 0x1A89 JUMPI PUSH2 0x1A89 PUSH2 0x395D JUMP JUMPDEST EQ PUSH2 0x1AC3 JUMPI PUSH1 0x40 MLOAD PUSH3 0x461BCD PUSH1 0xE5 SHL DUP2 MSTORE PUSH1 0x20 PUSH1 0x4 DUP3 ADD MSTORE PUSH1 0xA PUSH1 0x24 DUP3 ADD MSTORE PUSH10 0x21496E697450726F7879 PUSH1 0xB0 SHL PUSH1 0x44 DUP3 ADD MSTORE PUSH1 0x64 ADD PUSH2 0x6F3 JUMP JUMPDEST PUSH1 0xF DUP1 SLOAD PUSH1 0x1 PUSH1 0x1 PUSH1 0x1 PUSH1 0xA8 SHL SUB NOT SWAP1 SWAP2 AND CALLER PUSH2 0x100 MUL PUSH1 0xFF NOT AND OR OR SWAP1 SSTORE PUSH1 0xC DUP1 SLOAD PUSH1 0x1 PUSH1 0x1 PUSH1 0xA0 SHL SUB DUP11 DUP2 AND PUSH1 0x1 PUSH1 0x1 PUSH1 0xA0 SHL SUB NOT SWAP3 DUP4 AND OR SWAP1 SWAP3 SSTORE PUSH1 0xA DUP1 SLOAD SWAP3 DUP11 AND SWAP3 SWAP1 SWAP2 AND DUP3 OR SWAP1 SSTORE PUSH1 0x40 DUP1 MLOAD PUSH4 0x313CE567 PUSH1 0xE0 SHL DUP2 MSTORE SWAP1 MLOAD PUSH4 0x313CE567 SWAP2 PUSH1 0x4 DUP1 DUP3 ADD SWAP3 PUSH1 0x20 SWAP3 SWAP1 SWAP2 SWAP1 DUP3 SWAP1 SUB ADD DUP2 DUP7 GAS STATICCALL ISZERO DUP1 ISZERO PUSH2 0x1B4B JUMPI RETURNDATASIZE PUSH1 0x0 DUP1 RETURNDATACOPY RETURNDATASIZE PUSH1 0x0 REVERT JUMPDEST POP POP POP POP PUSH1 0x40 MLOAD RETURNDATASIZE PUSH1 0x1F NOT PUSH1 0x1F DUP3 ADD AND DUP3 ADD DUP1 PUSH1 0x40 MSTORE POP DUP2 ADD SWAP1 PUSH2 0x1B6F SWAP2 SWAP1 PUSH2 0x4130 JUMP JUMPDEST PUSH1 0xA DUP1 SLOAD PUSH1 0xFF SWAP3 SWAP1 SWAP3 AND PUSH1 0x1 PUSH1 0xA0 SHL MUL PUSH1 0xFF PUSH1 0xA0 SHL NOT SWAP1 SWAP3 AND SWAP2 SWAP1 SWAP2 OR SWAP1 SSTORE PUSH1 0xB DUP1 SLOAD PUSH1 0x1 PUSH1 0x1 PUSH1 0xA0 SHL SUB DUP9 AND PUSH1 0x1 PUSH1 0x1 PUSH1 0xA0 SHL SUB NOT SWAP1 SWAP2 AND DUP2 OR SWAP1 SWAP2 SSTORE PUSH1 0x40 DUP1 MLOAD PUSH4 0x313CE567 PUSH1 0xE0 SHL DUP2 MSTORE SWAP1 MLOAD PUSH4 0x313CE567 SWAP2 PUSH1 0x4 DUP1 DUP3 ADD SWAP3 PUSH1 0x20 SWAP3 SWAP1 SWAP2 SWAP1 DUP3 SWAP1 SUB ADD DUP2 DUP7 GAS STATICCALL ISZERO DUP1 ISZERO PUSH2 0x1BE8 JUMPI RETURNDATASIZE PUSH1 0x0 DUP1 RETURNDATACOPY RETURNDATASIZE PUSH1 0x0 REVERT JUMPDEST POP POP POP POP PUSH1 0x40 MLOAD RETURNDATASIZE PUSH1 0x1F NOT PUSH1 0x1F DUP3 ADD AND DUP3 ADD DUP1 PUSH1 0x40 MSTORE POP DUP2 ADD SWAP1 PUSH2 0x1C0C SWAP2 SWAP1 PUSH2 0x4130 JUMP JUMPDEST PUSH1 0xB PUSH1 0x0 ADD PUSH1 0x14 PUSH2 0x100 EXP DUP2 SLOAD DUP2 PUSH1 0xFF MUL NOT AND SWAP1 DUP4 PUSH1 0xFF AND MUL OR SWAP1 SSTORE POP PUSH1 0x0 DUP8 PUSH1 0x1 PUSH1 0x1 PUSH1 0xA0 SHL SUB AND PUSH4 0x95D89B41 PUSH1 0x40 MLOAD DUP2 PUSH4 0xFFFFFFFF AND PUSH1 0xE0 SHL DUP2 MSTORE PUSH1 0x4 ADD PUSH1 0x0 PUSH1 0x40 MLOAD DUP1 DUP4 SUB DUP2 DUP7 GAS STATICCALL ISZERO DUP1 ISZERO PUSH2 0x1C69 JUMPI RETURNDATASIZE PUSH1 0x0 DUP1 RETURNDATACOPY RETURNDATASIZE PUSH1 0x0 REVERT JUMPDEST POP POP POP POP PUSH1 0x40 MLOAD RETURNDATASIZE PUSH1 0x0 DUP3 RETURNDATACOPY PUSH1 0x1F RETURNDATASIZE SWAP1 DUP2 ADD PUSH1 0x1F NOT AND DUP3 ADD PUSH1 0x40 MSTORE PUSH2 0x1C91 SWAP2 SWAP1 DUP2 ADD SWAP1 PUSH2 0x414B JUMP JUMPDEST SWAP1 POP PUSH1 0x0 DUP8 PUSH1 0x1 PUSH1 0x1 PUSH1 0xA0 SHL SUB AND PUSH4 0x95D89B41 PUSH1 0x40 MLOAD DUP2 PUSH4 0xFFFFFFFF AND PUSH1 0xE0 SHL DUP2 MSTORE PUSH1 0x4 ADD PUSH1 0x0 PUSH1 0x40 MLOAD DUP1 DUP4 SUB DUP2 DUP7 GAS STATICCALL ISZERO DUP1 ISZERO PUSH2 0x1CD3 JUMPI RETURNDATASIZE PUSH1 0x0 DUP1 RETURNDATACOPY RETURNDATASIZE PUSH1 0x0 REVERT JUMPDEST POP POP POP POP PUSH1 0x40 MLOAD RETURNDATASIZE PUSH1 0x0 DUP3 RETURNDATACOPY PUSH1 0x1F RETURNDATASIZE SWAP1 DUP2 ADD PUSH1 0x1F NOT AND DUP3 ADD PUSH1 0x40 MSTORE PUSH2 0x1CFB SWAP2 SWAP1 DUP2 ADD SWAP1 PUSH2 0x414B JUMP JUMPDEST SWAP1 POP PUSH1 0x0 PUSH20 0x0 PUSH4 0x4F76C058 PUSH2 0x1D92 PUSH1 0xA PUSH1 0x0 ADD PUSH1 0x14 SWAP1 SLOAD SWAP1 PUSH2 0x100 EXP SWAP1 DIV PUSH1 0xFF AND PUSH1 0xA PUSH2 0x1D3B SWAP2 SWAP1 PUSH2 0x3DE5 JUMP JUMPDEST PUSH2 0x1D4E SWAP1 PUSH1 0x1 PUSH1 0x1 PUSH1 0x80 SHL SUB DUP14 AND PUSH2 0x3CC0 JUMP JUMPDEST PUSH1 0xB SLOAD PUSH2 0x1D66 SWAP1 PUSH1 0x1 PUSH1 0xA0 SHL SWAP1 DIV PUSH1 0xFF AND PUSH1 0xA PUSH2 0x3DE5 JUMP JUMPDEST PUSH2 0x1D74 SWAP1 PUSH1 0x1 PUSH1 0x60 SHL PUSH2 0x3CC0 JUMP JUMPDEST PUSH2 0x1D83 SWAP1 PUSH5 0x2540BE400 PUSH2 0x3CC0 JUMP JUMPDEST PUSH2 0x1D8D SWAP2 SWAP1 PUSH2 0x3CED JUMP JUMPDEST PUSH2 0x33E0 JUMP JUMPDEST PUSH2 0x1DA0 SWAP1 PUSH1 0x1 PUSH1 0x30 SHL PUSH2 0x3CC0 JUMP JUMPDEST PUSH1 0x40 MLOAD PUSH1 0x1 PUSH1 0x1 PUSH1 0xE0 SHL SUB NOT PUSH1 0xE0 DUP5 SWAP1 SHL AND DUP2 MSTORE PUSH1 0x1 PUSH1 0x1 PUSH1 0xA0 SHL SUB SWAP1 SWAP2 AND PUSH1 0x4 DUP3 ADD MSTORE PUSH1 0x24 ADD PUSH1 0x20 PUSH1 0x40 MLOAD DUP1 DUP4 SUB DUP2 DUP7 GAS DELEGATECALL ISZERO DUP1 ISZERO PUSH2 0x1DE4 JUMPI RETURNDATASIZE PUSH1 0x0 DUP1 RETURNDATACOPY RETURNDATASIZE PUSH1 0x0 REVERT JUMPDEST POP POP POP POP PUSH1 0x40 MLOAD RETURNDATASIZE PUSH1 0x1F NOT PUSH1 0x1F DUP3 ADD AND DUP3 ADD DUP1 PUSH1 0x40 MSTORE POP DUP2 ADD SWAP1 PUSH2 0x1E08 SWAP2 SWAP1 PUSH2 0x41C2 JUMP JUMPDEST SWAP1 POP PUSH1 0x0 PUSH20 0x0 PUSH4 0x4F76C058 PUSH2 0x1E48 PUSH1 0xA PUSH1 0x0 ADD PUSH1 0x14 SWAP1 SLOAD SWAP1 PUSH2 0x100 EXP SWAP1 DIV PUSH1 0xFF AND PUSH1 0xA PUSH2 0x1D3B SWAP2 SWAP1 PUSH2 0x3DE5 JUMP JUMPDEST PUSH2 0x1E56 SWAP1 PUSH1 0x1 PUSH1 0x30 SHL PUSH2 0x3CC0 JUMP JUMPDEST PUSH1 0x40 MLOAD PUSH1 0x1 PUSH1 0x1 PUSH1 0xE0 SHL SUB NOT PUSH1 0xE0 DUP5 SWAP1 SHL AND DUP2 MSTORE PUSH1 0x1 PUSH1 0x1 PUSH1 0xA0 SHL SUB SWAP1 SWAP2 AND PUSH1 0x4 DUP3 ADD MSTORE PUSH1 0x24 ADD PUSH1 0x20 PUSH1 0x40 MLOAD DUP1 DUP4 SUB DUP2 DUP7 GAS DELEGATECALL ISZERO DUP1 ISZERO PUSH2 0x1E9A JUMPI RETURNDATASIZE PUSH1 0x0 DUP1 RETURNDATACOPY RETURNDATASIZE PUSH1 0x0 REVERT JUMPDEST POP POP POP POP PUSH1 0x40 MLOAD RETURNDATASIZE PUSH1 0x1F NOT PUSH1 0x1F DUP3 ADD AND DUP3 ADD DUP1 PUSH1 0x40 MSTORE POP DUP2 ADD SWAP1 PUSH2 0x1EBE SWAP2 SWAP1 PUSH2 0x41C2 JUMP JUMPDEST SWAP1 POP DUP5 ISZERO PUSH2 0x1FF4 JUMPI PUSH1 0x6 DUP1 SLOAD PUSH9 0xFFFFFF000000000000 NOT AND PUSH7 0x5000000000000 OR SWAP1 SSTORE PUSH1 0x0 PUSH1 0x2 PUSH2 0x1EEF DUP4 DUP6 PUSH2 0x41DD JUMP JUMPDEST PUSH2 0x1EF9 SWAP2 SWAP1 PUSH2 0x4202 JUMP JUMPDEST PUSH1 0x6 SLOAD SWAP1 SWAP2 POP PUSH2 0x1F16 SWAP1 PUSH1 0x1 PUSH1 0x30 SHL SWAP1 DIV PUSH3 0xFFFFFF AND PUSH1 0x2 PUSH2 0x3F29 JUMP JUMPDEST PUSH1 0x6 SLOAD PUSH2 0x1F2F SWAP1 PUSH1 0x1 PUSH1 0x30 SHL SWAP1 DIV PUSH3 0xFFFFFF AND DUP4 PUSH2 0x41DD JUMP JUMPDEST PUSH2 0x1F39 SWAP2 SWAP1 PUSH2 0x423C JUMP JUMPDEST PUSH1 0x6 SLOAD PUSH2 0x1F52 SWAP1 PUSH1 0x1 PUSH1 0x30 SHL SWAP1 DIV PUSH3 0xFFFFFF AND DUP4 PUSH2 0x41DD JUMP JUMPDEST PUSH2 0x1F5C SWAP2 SWAP1 PUSH2 0x425E JUMP JUMPDEST PUSH1 0x6 SLOAD SWAP1 SWAP4 POP PUSH1 0x1 PUSH1 0x30 SHL SWAP1 DIV PUSH3 0xFFFFFF AND PUSH2 0x1F78 DUP2 DUP6 PUSH2 0x425E JUMP JUMPDEST PUSH2 0x1F82 SWAP2 SWAP1 PUSH2 0x425E JUMP JUMPDEST SWAP2 POP DUP4 DUP6 DUP10 DUP10 PUSH1 0x40 MLOAD PUSH1 0x20 ADD PUSH2 0x1F9B SWAP5 SWAP4 SWAP3 SWAP2 SWAP1 PUSH2 0x4283 JUMP JUMPDEST PUSH1 0x40 MLOAD PUSH1 0x20 DUP2 DUP4 SUB SUB DUP2 MSTORE SWAP1 PUSH1 0x40 MSTORE PUSH1 0xD SWAP1 DUP2 PUSH2 0x1FB8 SWAP2 SWAP1 PUSH2 0x4361 JUMP JUMPDEST POP DUP8 DUP8 DUP6 DUP8 PUSH1 0x40 MLOAD PUSH1 0x20 ADD PUSH2 0x1FD0 SWAP5 SWAP4 SWAP3 SWAP2 SWAP1 PUSH2 0x4421 JUMP JUMPDEST PUSH1 0x40 MLOAD PUSH1 0x20 DUP2 DUP4 SUB SUB DUP2 MSTORE SWAP1 PUSH1 0x40 MSTORE PUSH1 0xE SWAP1 DUP2 PUSH2 0x1FED SWAP2 SWAP1 PUSH2 0x4361 JUMP JUMPDEST POP POP PUSH2 0x213F JUMP JUMPDEST PUSH1 0x6 DUP1 SLOAD PUSH9 0xFFFFFF000000000000 NOT AND PUSH7 0x5000000000000 OR SWAP1 DUP2 SWAP1 SSTORE PUSH2 0x2029 SWAP1 PUSH3 0xFFFFFF PUSH1 0x1 PUSH1 0x30 SHL SWAP1 SWAP2 DIV AND PUSH1 0x2 PUSH2 0x3F29 JUMP JUMPDEST PUSH1 0x6 SLOAD PUSH2 0x2042 SWAP1 PUSH1 0x1 PUSH1 0x30 SHL SWAP1 DIV PUSH3 0xFFFFFF AND DUP4 PUSH2 0x41DD JUMP JUMPDEST PUSH2 0x204C SWAP2 SWAP1 PUSH2 0x423C JUMP JUMPDEST PUSH1 0x6 SLOAD PUSH2 0x2065 SWAP1 PUSH1 0x1 PUSH1 0x30 SHL SWAP1 DIV PUSH3 0xFFFFFF AND DUP4 PUSH2 0x41DD JUMP JUMPDEST PUSH2 0x206F SWAP2 SWAP1 PUSH2 0x425E JUMP JUMPDEST PUSH1 0x6 SLOAD SWAP1 SWAP2 POP PUSH2 0x208C SWAP1 PUSH1 0x1 PUSH1 0x30 SHL SWAP1 DIV PUSH3 0xFFFFFF AND PUSH1 0x2 PUSH2 0x3F29 JUMP JUMPDEST PUSH1 0x6 SLOAD PUSH2 0x20A5 SWAP1 PUSH1 0x1 PUSH1 0x30 SHL SWAP1 DIV PUSH3 0xFFFFFF AND DUP5 PUSH2 0x41DD JUMP JUMPDEST PUSH2 0x20AF SWAP2 SWAP1 PUSH2 0x423C JUMP JUMPDEST PUSH1 0x6 SLOAD PUSH2 0x20C8 SWAP1 PUSH1 0x1 PUSH1 0x30 SHL SWAP1 DIV PUSH3 0xFFFFFF AND DUP5 PUSH2 0x41DD JUMP JUMPDEST PUSH2 0x20D2 SWAP2 SWAP1 PUSH2 0x425E JUMP JUMPDEST SWAP2 POP DUP3 DUP5 DUP9 DUP9 PUSH1 0x40 MLOAD PUSH1 0x20 ADD PUSH2 0x20EB SWAP5 SWAP4 SWAP3 SWAP2 SWAP1 PUSH2 0x44AC JUMP JUMPDEST PUSH1 0x40 MLOAD PUSH1 0x20 DUP2 DUP4 SUB SUB DUP2 MSTORE SWAP1 PUSH1 0x40 MSTORE PUSH1 0xD SWAP1 DUP2 PUSH2 0x2108 SWAP2 SWAP1 PUSH2 0x4361 JUMP JUMPDEST POP DUP7 DUP7 DUP5 DUP7 PUSH1 0x40 MLOAD PUSH1 0x20 ADD PUSH2 0x2120 SWAP5 SWAP4 SWAP3 SWAP2 SWAP1 PUSH2 0x44CE JUMP JUMPDEST PUSH1 0x40 MLOAD PUSH1 0x20 DUP2 DUP4 SUB SUB DUP2 MSTORE SWAP1 PUSH1 0x40 MSTORE PUSH1 0xE SWAP1 DUP2 PUSH2 0x213D SWAP2 SWAP1 PUSH2 0x4361 JUMP JUMPDEST POP JUMPDEST PUSH1 0x6 DUP1 SLOAD PUSH3 0xFFFFFF DUP5 DUP2 AND PUSH4 0x1000000 MUL PUSH6 0xFFFFFFFFFFFF NOT SWAP1 SWAP3 AND SWAP1 DUP5 AND OR OR SWAP1 SSTORE PUSH1 0x40 DUP1 MLOAD PUSH1 0x1 PUSH1 0x1 PUSH1 0xA0 SHL SUB DUP14 DUP2 AND DUP3 MSTORE DUP13 AND PUSH1 0x20 DUP3 ADD MSTORE PUSH1 0x1 PUSH1 0x1 PUSH1 0x80 SHL SUB DUP12 DUP2 AND SWAP3 DUP3 ADD SWAP3 SWAP1 SWAP3 MSTORE SWAP1 DUP10 AND PUSH1 0x60 DUP3 ADD MSTORE PUSH32 0xEB71465D71F7B18C376BA29F6EDB7953DC29C7AFB4FCAA4E1335C8827A8DD96E SWAP1 PUSH1 0x80 ADD PUSH1 0x40 MLOAD DUP1 SWAP2 SUB SWAP1 LOG1 POP POP POP POP POP POP POP POP POP POP POP POP JUMP JUMPDEST PUSH1 0x0 PUSH1 0x2 PUSH1 0x5 SLOAD SUB PUSH2 0x2223 JUMPI PUSH1 0x40 MLOAD PUSH3 0x461BCD PUSH1 0xE5 SHL DUP2 MSTORE PUSH1 0x20 PUSH1 0x4 DUP3 ADD MSTORE PUSH1 0x1F PUSH1 0x24 DUP3 ADD MSTORE PUSH32 0x5265656E7472616E637947756172643A207265656E7472616E742063616C6C00 PUSH1 0x44 DUP3 ADD MSTORE PUSH1 0x64 ADD PUSH2 0x6F3 JUMP JUMPDEST PUSH1 0x2 PUSH1 0x5 SSTORE PUSH1 0x0 PUSH2 0x2233 PUSH1 0x2 SLOAD SWAP1 JUMP JUMPDEST GT PUSH2 0x226C JUMPI PUSH1 0x40 MLOAD PUSH3 0x461BCD PUSH1 0xE5 SHL DUP2 MSTORE PUSH1 0x20 PUSH1 0x4 DUP3 ADD MSTORE PUSH1 0x9 PUSH1 0x24 DUP3 ADD MSTORE PUSH9 0x15148810DB1BDCD959 PUSH1 0xBA SHL PUSH1 0x44 DUP3 ADD MSTORE PUSH1 0x64 ADD PUSH2 0x6F3 JUMP JUMPDEST PUSH2 0x2274 PUSH2 0x9BC JUMP JUMPDEST PUSH1 0xA SLOAD PUSH1 0x40 MLOAD PUSH4 0x23B872DD PUSH1 0xE0 SHL DUP2 MSTORE CALLER PUSH1 0x4 DUP3 ADD MSTORE ADDRESS PUSH1 0x24 DUP3 ADD MSTORE PUSH1 0x44 DUP2 ADD DUP6 SWAP1 MSTORE PUSH1 0x1 PUSH1 0x1 PUSH1 0xA0 SHL SUB SWAP1 SWAP2 AND SWAP1 PUSH4 0x23B872DD SWAP1 PUSH1 0x64 ADD PUSH1 0x20 PUSH1 0x40 MLOAD DUP1 DUP4 SUB DUP2 PUSH1 0x0 DUP8 GAS CALL ISZERO DUP1 ISZERO PUSH2 0x22CB JUMPI RETURNDATASIZE PUSH1 0x0 DUP1 RETURNDATACOPY RETURNDATASIZE PUSH1 0x0 REVERT JUMPDEST POP POP POP POP PUSH1 0x40 MLOAD RETURNDATASIZE PUSH1 0x1F NOT PUSH1 0x1F DUP3 ADD AND DUP3 ADD DUP1 PUSH1 0x40 MSTORE POP DUP2 ADD SWAP1 PUSH2 0x22EF SWAP2 SWAP1 PUSH2 0x44EB JUMP JUMPDEST POP PUSH1 0xB SLOAD PUSH1 0x40 MLOAD PUSH4 0x23B872DD PUSH1 0xE0 SHL DUP2 MSTORE CALLER PUSH1 0x4 DUP3 ADD MSTORE ADDRESS PUSH1 0x24 DUP3 ADD MSTORE PUSH1 0x44 DUP2 ADD DUP5 SWAP1 MSTORE PUSH1 0x1 PUSH1 0x1 PUSH1 0xA0 SHL SUB SWAP1 SWAP2 AND SWAP1 PUSH4 0x23B872DD SWAP1 PUSH1 0x64 ADD PUSH1 0x20 PUSH1 0x40 MLOAD DUP1 DUP4 SUB DUP2 PUSH1 0x0 DUP8 GAS CALL ISZERO DUP1 ISZERO PUSH2 0x2347 JUMPI RETURNDATASIZE PUSH1 0x0 DUP1 RETURNDATACOPY RETURNDATASIZE PUSH1 0x0 REVERT JUMPDEST POP POP POP POP PUSH1 0x40 MLOAD RETURNDATASIZE PUSH1 0x1F NOT PUSH1 0x1F DUP3 ADD AND DUP3 ADD DUP1 PUSH1 0x40 MSTORE POP DUP2 ADD SWAP1 PUSH2 0x236B SWAP2 SWAP1 PUSH2 0x44EB JUMP JUMPDEST POP PUSH1 0x0 DUP1 PUSH1 0x0 PUSH1 0x9 SLOAD PUSH1 0x8 SLOAD PUSH2 0x2381 SWAP2 SWAP1 PUSH2 0x3CAD JUMP JUMPDEST GT DUP1 ISZERO PUSH2 0x2398 JUMPI POP PUSH1 0x0 DUP6 GT DUP1 PUSH2 0x2398 JUMPI POP PUSH1 0x8 SLOAD ISZERO JUMPDEST DUP1 ISZERO PUSH2 0x23AE JUMPI POP PUSH1 0x0 DUP5 GT DUP1 PUSH2 0x23AE JUMPI POP PUSH1 0x9 SLOAD ISZERO JUMPDEST ISZERO PUSH2 0x26D0 JUMPI PUSH1 0xA SLOAD PUSH1 0xB SLOAD PUSH1 0x6 SLOAD PUSH1 0x0 SWAP3 PUSH20 0x1F98431C8AD98523631AE4A59F267346EA31F984 SWAP3 PUSH4 0x1698EE82 SWAP3 PUSH1 0x1 PUSH1 0x1 PUSH1 0xA0 SHL SUB SWAP3 DUP4 AND SWAP3 SWAP1 SWAP2 AND SWAP1 PUSH2 0x2402 SWAP1 PUSH1 0x1 PUSH1 0x30 SHL SWAP1 DIV PUSH3 0xFFFFFF AND PUSH1 0x64 PUSH2 0x3F29 JUMP JUMPDEST PUSH1 0x40 MLOAD PUSH1 0x1 PUSH1 0x1 PUSH1 0xE0 SHL SUB NOT PUSH1 0xE0 DUP7 SWAP1 SHL AND DUP2 MSTORE PUSH1 0x1 PUSH1 0x1 PUSH1 0xA0 SHL SUB SWAP4 DUP5 AND PUSH1 0x4 DUP3 ADD MSTORE SWAP3 SWAP1 SWAP2 AND PUSH1 0x24 DUP4 ADD MSTORE PUSH3 0xFFFFFF AND PUSH1 0x44 DUP3 ADD MSTORE PUSH1 0x64 ADD PUSH1 0x20 PUSH1 0x40 MLOAD DUP1 DUP4 SUB DUP2 DUP7 GAS STATICCALL ISZERO DUP1 ISZERO PUSH2 0x2459 JUMPI RETURNDATASIZE PUSH1 0x0 DUP1 RETURNDATACOPY RETURNDATASIZE PUSH1 0x0 REVERT JUMPDEST POP POP POP POP PUSH1 0x40 MLOAD RETURNDATASIZE PUSH1 0x1F NOT PUSH1 0x1F DUP3 ADD AND DUP3 ADD DUP1 PUSH1 0x40 MSTORE POP DUP2 ADD SWAP1 PUSH2 0x247D SWAP2 SWAP1 PUSH2 0x4052 JUMP JUMPDEST SWAP1 POP PUSH1 0x0 DUP2 PUSH1 0x1 PUSH1 0x1 PUSH1 0xA0 SHL SUB AND PUSH4 0x3850C7BD PUSH1 0x40 MLOAD DUP2 PUSH4 0xFFFFFFFF AND PUSH1 0xE0 SHL DUP2 MSTORE PUSH1 0x4 ADD PUSH1 0xE0 PUSH1 0x40 MLOAD DUP1 DUP4 SUB DUP2 DUP7 GAS STATICCALL ISZERO DUP1 ISZERO PUSH2 0x24BF JUMPI RETURNDATASIZE PUSH1 0x0 DUP1 RETURNDATACOPY RETURNDATASIZE PUSH1 0x0 REVERT JUMPDEST POP POP POP POP PUSH1 0x40 MLOAD RETURNDATASIZE PUSH1 0x1F NOT PUSH1 0x1F DUP3 ADD AND DUP3 ADD DUP1 PUSH1 0x40 MSTORE POP DUP2 ADD SWAP1 PUSH2 0x24E3 SWAP2 SWAP1 PUSH2 0x40A4 JUMP JUMPDEST POP POP PUSH1 0x6 SLOAD PUSH1 0x40 MLOAD PUSH4 0x986CFBA3 PUSH1 0xE0 SHL DUP2 MSTORE PUSH1 0x2 SWAP2 SWAP1 SWAP2 SIGNEXTEND PUSH1 0x4 DUP3 ADD MSTORE SWAP5 SWAP6 POP PUSH1 0x0 SWAP5 DUP6 SWAP5 POP PUSH2 0x2604 SWAP4 POP DUP7 SWAP3 POP PUSH20 0x0 SWAP2 POP PUSH4 0x986CFBA3 SWAP1 PUSH1 0x24 ADD JUMPDEST PUSH1 0x20 PUSH1 0x40 MLOAD DUP1 DUP4 SUB DUP2 DUP7 GAS DELEGATECALL ISZERO DUP1 ISZERO PUSH2 0x254F JUMPI RETURNDATASIZE PUSH1 0x0 DUP1 RETURNDATACOPY RETURNDATASIZE PUSH1 0x0 REVERT JUMPDEST POP POP POP POP PUSH1 0x40 MLOAD RETURNDATASIZE PUSH1 0x1F NOT PUSH1 0x1F DUP3 ADD AND DUP3 ADD DUP1 PUSH1 0x40 MSTORE POP DUP2 ADD SWAP1 PUSH2 0x2573 SWAP2 SWAP1 PUSH2 0x4052 JUMP JUMPDEST PUSH1 0x6 SLOAD PUSH1 0x40 MLOAD PUSH4 0x986CFBA3 PUSH1 0xE0 SHL DUP2 MSTORE PUSH4 0x1000000 SWAP1 SWAP2 DIV PUSH1 0x2 SIGNEXTEND PUSH1 0x4 DUP3 ADD MSTORE PUSH20 0x0 SWAP1 PUSH4 0x986CFBA3 SWAP1 PUSH1 0x24 ADD PUSH1 0x20 PUSH1 0x40 MLOAD DUP1 DUP4 SUB DUP2 DUP7 GAS DELEGATECALL ISZERO DUP1 ISZERO PUSH2 0x25CF JUMPI RETURNDATASIZE PUSH1 0x0 DUP1 RETURNDATACOPY RETURNDATASIZE PUSH1 0x0 REVERT JUMPDEST POP POP POP POP PUSH1 0x40 MLOAD RETURNDATASIZE PUSH1 0x1F NOT PUSH1 0x1F DUP3 ADD AND DUP3 ADD DUP1 PUSH1 0x40 MSTORE POP DUP2 ADD SWAP1 PUSH2 0x25F3 SWAP2 SWAP1 PUSH2 0x4052 JUMP JUMPDEST PUSH1 0x10 SLOAD PUSH1 0x1 PUSH1 0x1 PUSH1 0x80 SHL SUB AND PUSH2 0x3343 JUMP JUMPDEST SWAP2 POP SWAP2 POP PUSH1 0x0 PUSH1 0x8 SLOAD DUP4 PUSH2 0x2618 SWAP2 SWAP1 PUSH2 0x3CAD JUMP JUMPDEST GT ISZERO PUSH2 0x2645 JUMPI PUSH1 0x8 SLOAD PUSH2 0x262B SWAP1 DUP4 PUSH2 0x3CAD JUMP JUMPDEST PUSH1 0x8 SLOAD PUSH2 0x2638 SWAP1 DUP12 PUSH2 0x3CC0 JUMP JUMPDEST PUSH2 0x2642 SWAP2 SWAP1 PUSH2 0x3CED JUMP JUMPDEST SWAP6 POP JUMPDEST PUSH1 0x0 PUSH1 0x9 SLOAD DUP3 PUSH2 0x2655 SWAP2 SWAP1 PUSH2 0x3CAD JUMP JUMPDEST GT ISZERO PUSH2 0x2682 JUMPI PUSH1 0x9 SLOAD PUSH2 0x2668 SWAP1 DUP3 PUSH2 0x3CAD JUMP JUMPDEST PUSH1 0x9 SLOAD PUSH2 0x2675 SWAP1 DUP11 PUSH2 0x3CC0 JUMP JUMPDEST PUSH2 0x267F SWAP2 SWAP1 PUSH2 0x3CED JUMP JUMPDEST SWAP5 POP JUMPDEST DUP6 PUSH1 0x8 PUSH1 0x0 DUP3 DUP3 SLOAD PUSH2 0x2694 SWAP2 SWAP1 PUSH2 0x3CAD JUMP JUMPDEST SWAP3 POP POP DUP2 SWAP1 SSTORE POP DUP5 PUSH1 0x9 PUSH1 0x0 DUP3 DUP3 SLOAD PUSH2 0x26AD SWAP2 SWAP1 PUSH2 0x3CAD JUMP JUMPDEST SWAP1 SWAP2 SSTORE POP PUSH2 0x26BD SWAP1 POP DUP7 DUP11 PUSH2 0x3E74 JUMP JUMPDEST SWAP9 POP PUSH2 0x26C9 DUP6 DUP10 PUSH2 0x3E74 JUMP JUMPDEST SWAP8 POP POP POP POP POP JUMPDEST PUSH1 0xA SLOAD PUSH2 0x26F5 SWAP1 PUSH1 0x1 PUSH1 0x1 PUSH1 0xA0 SHL SUB AND PUSH1 0x0 DUP1 MLOAD PUSH1 0x20 PUSH2 0x4545 DUP4 CODECOPY DUP2 MLOAD SWAP2 MSTORE DUP8 PUSH2 0x302C JUMP JUMPDEST PUSH1 0xB SLOAD PUSH2 0x271A SWAP1 PUSH1 0x1 PUSH1 0x1 PUSH1 0xA0 SHL SUB AND PUSH1 0x0 DUP1 MLOAD PUSH1 0x20 PUSH2 0x4545 DUP4 CODECOPY DUP2 MLOAD SWAP2 MSTORE DUP7 PUSH2 0x302C JUMP JUMPDEST PUSH1 0x0 DUP1 PUSH1 0x0 PUSH1 0x0 DUP1 MLOAD PUSH1 0x20 PUSH2 0x4545 DUP4 CODECOPY DUP2 MLOAD SWAP2 MSTORE PUSH1 0x1 PUSH1 0x1 PUSH1 0xA0 SHL SUB AND PUSH4 0x219F5D17 PUSH1 0x40 MLOAD DUP1 PUSH1 0xC0 ADD PUSH1 0x40 MSTORE DUP1 PUSH1 0x7 SLOAD DUP2 MSTORE PUSH1 0x20 ADD DUP12 DUP2 MSTORE PUSH1 0x20 ADD DUP11 DUP2 MSTORE PUSH1 0x20 ADD PUSH1 0x64 DUP13 PUSH1 0x5F PUSH2 0x276A SWAP2 SWAP1 PUSH2 0x3CC0 JUMP JUMPDEST PUSH2 0x2774 SWAP2 SWAP1 PUSH2 0x3CED JUMP JUMPDEST DUP2 MSTORE PUSH1 0x20 ADD PUSH1 0x64 PUSH2 0x2786 DUP13 PUSH1 0x5F PUSH2 0x3CC0 JUMP JUMPDEST PUSH2 0x2790 SWAP2 SWAP1 PUSH2 0x3CED JUMP JUMPDEST DUP2 MSTORE PUSH1 0x20 ADD TIMESTAMP DUP2 MSTORE POP PUSH1 0x40 MLOAD DUP3 PUSH4 0xFFFFFFFF AND PUSH1 0xE0 SHL DUP2 MSTORE PUSH1 0x4 ADD PUSH2 0x27B5 SWAP2 SWAP1 PUSH2 0x3E87 JUMP JUMPDEST PUSH1 0x60 PUSH1 0x40 MLOAD DUP1 DUP4 SUB DUP2 PUSH1 0x0 DUP8 GAS CALL ISZERO DUP1 ISZERO PUSH2 0x27D4 JUMPI RETURNDATASIZE PUSH1 0x0 DUP1 RETURNDATACOPY RETURNDATASIZE PUSH1 0x0 REVERT JUMPDEST POP POP POP POP PUSH1 0x40 MLOAD RETURNDATASIZE PUSH1 0x1F NOT PUSH1 0x1F DUP3 ADD AND DUP3 ADD DUP1 PUSH1 0x40 MSTORE POP DUP2 ADD SWAP1 PUSH2 0x27F8 SWAP2 SWAP1 PUSH2 0x3ECB JUMP JUMPDEST SWAP3 POP SWAP3 POP SWAP3 POP PUSH1 0x0 DUP6 PUSH1 0x0 EQ DUP1 ISZERO PUSH2 0x280E JUMPI POP DUP5 ISZERO JUMPDEST ISZERO PUSH2 0x2A43 JUMPI PUSH1 0xC SLOAD PUSH1 0xA SLOAD PUSH1 0x40 MLOAD PUSH4 0xB3596F07 PUSH1 0xE0 SHL DUP2 MSTORE PUSH1 0x1 PUSH1 0x1 PUSH1 0xA0 SHL SUB SWAP2 DUP3 AND PUSH1 0x4 DUP3 ADD MSTORE PUSH1 0x0 SWAP3 SWAP2 SWAP1 SWAP2 AND SWAP1 PUSH4 0xB3596F07 SWAP1 PUSH1 0x24 ADD PUSH1 0x20 PUSH1 0x40 MLOAD DUP1 DUP4 SUB DUP2 DUP7 GAS STATICCALL ISZERO DUP1 ISZERO PUSH2 0x2864 JUMPI RETURNDATASIZE PUSH1 0x0 DUP1 RETURNDATACOPY RETURNDATASIZE PUSH1 0x0 REVERT JUMPDEST POP POP POP POP PUSH1 0x40 MLOAD RETURNDATASIZE PUSH1 0x1F NOT PUSH1 0x1F DUP3 ADD AND DUP3 ADD DUP1 PUSH1 0x40 MSTORE POP DUP2 ADD SWAP1 PUSH2 0x2888 SWAP2 SWAP1 PUSH2 0x3DF4 JUMP JUMPDEST PUSH1 0xC SLOAD PUSH1 0xB SLOAD PUSH1 0x40 MLOAD PUSH4 0xB3596F07 PUSH1 0xE0 SHL DUP2 MSTORE PUSH1 0x1 PUSH1 0x1 PUSH1 0xA0 SHL SUB SWAP2 DUP3 AND PUSH1 0x4 DUP3 ADD MSTORE SWAP3 SWAP4 POP PUSH1 0x0 SWAP3 SWAP2 AND SWAP1 PUSH4 0xB3596F07 SWAP1 PUSH1 0x24 ADD PUSH1 0x20 PUSH1 0x40 MLOAD DUP1 DUP4 SUB DUP2 DUP7 GAS STATICCALL ISZERO DUP1 ISZERO PUSH2 0x28DA JUMPI RETURNDATASIZE PUSH1 0x0 DUP1 RETURNDATACOPY RETURNDATASIZE PUSH1 0x0 REVERT JUMPDEST POP POP POP POP PUSH1 0x40 MLOAD RETURNDATASIZE PUSH1 0x1F NOT PUSH1 0x1F DUP3 ADD AND DUP3 ADD DUP1 PUSH1 0x40 MSTORE POP DUP2 ADD SWAP1 PUSH2 0x28FE SWAP2 SWAP1 PUSH2 0x3DF4 JUMP JUMPDEST SWAP1 POP PUSH1 0x0 DUP3 GT DUP1 ISZERO PUSH2 0x2910 JUMPI POP PUSH1 0x0 DUP2 GT JUMPDEST PUSH2 0x2953 JUMPI PUSH1 0x40 MLOAD PUSH3 0x461BCD PUSH1 0xE5 SHL DUP2 MSTORE PUSH1 0x20 PUSH1 0x4 DUP3 ADD MSTORE PUSH1 0x14 PUSH1 0x24 DUP3 ADD MSTORE PUSH20 0x496E76616C6964204F7261636C65205072696365 PUSH1 0x60 SHL PUSH1 0x44 DUP3 ADD MSTORE PUSH1 0x64 ADD PUSH2 0x6F3 JUMP JUMPDEST PUSH1 0xB SLOAD PUSH2 0x296B SWAP1 PUSH1 0x1 PUSH1 0xA0 SHL SWAP1 DIV PUSH1 0xFF AND PUSH1 0xA PUSH2 0x3DE5 JUMP JUMPDEST PUSH2 0x2975 DUP3 DUP7 PUSH2 0x3CC0 JUMP JUMPDEST PUSH2 0x297F SWAP2 SWAP1 PUSH2 0x3CED JUMP JUMPDEST PUSH1 0xA DUP1 SLOAD PUSH2 0x2998 SWAP2 PUSH1 0x1 PUSH1 0xA0 SHL SWAP1 SWAP2 DIV PUSH1 0xFF AND SWAP1 PUSH2 0x3DE5 JUMP JUMPDEST PUSH2 0x29A2 DUP5 DUP9 PUSH2 0x3CC0 JUMP JUMPDEST PUSH2 0x29AC SWAP2 SWAP1 PUSH2 0x3CED JUMP JUMPDEST PUSH2 0x29B6 SWAP2 SWAP1 PUSH2 0x3CAD JUMP JUMPDEST PUSH1 0xB SLOAD PUSH2 0x29CE SWAP1 PUSH1 0x1 PUSH1 0xA0 SHL SWAP1 DIV PUSH1 0xFF AND PUSH1 0xA PUSH2 0x3DE5 JUMP JUMPDEST DUP3 PUSH1 0x9 SLOAD PUSH2 0x29DC SWAP2 SWAP1 PUSH2 0x3CC0 JUMP JUMPDEST PUSH2 0x29E6 SWAP2 SWAP1 PUSH2 0x3CED JUMP JUMPDEST PUSH1 0xA DUP1 SLOAD PUSH2 0x29FF SWAP2 PUSH1 0x1 PUSH1 0xA0 SHL SWAP1 SWAP2 DIV PUSH1 0xFF AND SWAP1 PUSH2 0x3DE5 JUMP JUMPDEST DUP5 PUSH1 0x8 SLOAD PUSH2 0x2A0D SWAP2 SWAP1 PUSH2 0x3CC0 JUMP JUMPDEST PUSH2 0x2A17 SWAP2 SWAP1 PUSH2 0x3CED JUMP JUMPDEST PUSH2 0x2A21 SWAP2 SWAP1 PUSH2 0x3CAD JUMP JUMPDEST PUSH2 0x2A34 SWAP1 PUSH1 0x1 PUSH1 0x1 PUSH1 0x80 SHL SUB DUP10 AND PUSH2 0x3CC0 JUMP JUMPDEST PUSH2 0x2A3E SWAP2 SWAP1 PUSH2 0x3CED JUMP JUMPDEST SWAP3 POP POP POP JUMPDEST PUSH1 0x10 SLOAD PUSH2 0x2A5A SWAP1 DUP3 SWAP1 PUSH1 0x1 PUSH1 0x1 PUSH1 0x80 SHL SUB AND PUSH2 0x3CAD JUMP JUMPDEST DUP5 PUSH1 0x1 PUSH1 0x1 PUSH1 0x80 SHL SUB AND PUSH2 0x2A6D PUSH1 0x2 SLOAD SWAP1 JUMP JUMPDEST PUSH2 0x2A77 SWAP2 SWAP1 PUSH2 0x3CC0 JUMP JUMPDEST PUSH2 0x2A81 SWAP2 SWAP1 PUSH2 0x3CED JUMP JUMPDEST PUSH1 0x10 SLOAD SWAP1 SWAP8 POP PUSH2 0x2A9B SWAP1 DUP6 SWAP1 PUSH1 0x1 PUSH1 0x1 PUSH1 0x80 SHL SUB AND PUSH2 0x3F02 JUMP JUMPDEST PUSH1 0x10 DUP1 SLOAD PUSH1 0x1 PUSH1 0x1 PUSH1 0x80 SHL SUB NOT AND PUSH1 0x1 PUSH1 0x1 PUSH1 0x80 SHL SUB SWAP3 SWAP1 SWAP3 AND SWAP2 SWAP1 SWAP2 OR SWAP1 SSTORE PUSH2 0x2AC5 CALLER DUP9 PUSH2 0x3264 JUMP JUMPDEST PUSH2 0x2AD3 CALLER PUSH2 0x11F5 DUP6 DUP13 PUSH2 0x3E74 JUMP JUMPDEST PUSH2 0x2AE1 CALLER PUSH2 0x1294 DUP5 DUP12 PUSH2 0x3E74 JUMP JUMPDEST PUSH1 0x40 DUP1 MLOAD CALLER DUP2 MSTORE PUSH1 0x20 DUP2 ADD DUP10 SWAP1 MSTORE PUSH32 0xE1FFFCC4923D04B559F4D29A8BFC6CDA04EB5B0D3C460751C2402C5C5CC9109C SWAP2 ADD PUSH1 0x40 MLOAD DUP1 SWAP2 SUB SWAP1 LOG1 POP POP PUSH1 0x1 PUSH1 0x5 SSTORE POP SWAP3 SWAP6 SWAP5 POP POP POP POP POP JUMP JUMPDEST PUSH1 0x1 PUSH1 0x1 PUSH1 0xA0 SHL SUB DUP4 AND PUSH2 0x2B8E JUMPI PUSH1 0x40 MLOAD PUSH3 0x461BCD PUSH1 0xE5 SHL DUP2 MSTORE PUSH1 0x20 PUSH1 0x4 DUP3 ADD MSTORE PUSH1 0x24 DUP1 DUP3 ADD MSTORE PUSH32 0x45524332303A20617070726F76652066726F6D20746865207A65726F20616464 PUSH1 0x44 DUP3 ADD MSTORE PUSH4 0x72657373 PUSH1 0xE0 SHL PUSH1 0x64 DUP3 ADD MSTORE PUSH1 0x84 ADD PUSH2 0x6F3 JUMP JUMPDEST PUSH1 0x1 PUSH1 0x1 PUSH1 0xA0 SHL SUB DUP3 AND PUSH2 0x2BEF JUMPI PUSH1 0x40 MLOAD PUSH3 0x461BCD PUSH1 0xE5 SHL DUP2 MSTORE PUSH1 0x20 PUSH1 0x4 DUP3 ADD MSTORE PUSH1 0x22 PUSH1 0x24 DUP3 ADD MSTORE PUSH32 0x45524332303A20617070726F766520746F20746865207A65726F206164647265 PUSH1 0x44 DUP3 ADD MSTORE PUSH2 0x7373 PUSH1 0xF0 SHL PUSH1 0x64 DUP3 ADD MSTORE PUSH1 0x84 ADD PUSH2 0x6F3 JUMP JUMPDEST PUSH1 0x1 PUSH1 0x1 PUSH1 0xA0 SHL SUB DUP4 DUP2 AND PUSH1 0x0 DUP2 DUP2 MSTORE PUSH1 0x1 PUSH1 0x20 SWAP1 DUP2 MSTORE PUSH1 0x40 DUP1 DUP4 KECCAK256 SWAP5 DUP8 AND DUP1 DUP5 MSTORE SWAP5 DUP3 MSTORE SWAP2 DUP3 SWAP1 KECCAK256 DUP6 SWAP1 SSTORE SWAP1 MLOAD DUP5 DUP2 MSTORE PUSH32 0x8C5BE1E5EBEC7D5BD14F71427D1E84F3DD0314C0F7B2291E5B200AC8C7C3B925 SWAP2 ADD PUSH1 0x40 MLOAD DUP1 SWAP2 SUB SWAP1 LOG3 POP POP POP JUMP JUMPDEST PUSH1 0x1 PUSH1 0x1 PUSH1 0xA0 SHL SUB DUP4 AND PUSH2 0x2CB4 JUMPI PUSH1 0x40 MLOAD PUSH3 0x461BCD PUSH1 0xE5 SHL DUP2 MSTORE PUSH1 0x20 PUSH1 0x4 DUP3 ADD MSTORE PUSH1 0x25 PUSH1 0x24 DUP3 ADD MSTORE PUSH32 0x45524332303A207472616E736665722066726F6D20746865207A65726F206164 PUSH1 0x44 DUP3 ADD MSTORE PUSH5 0x6472657373 PUSH1 0xD8 SHL PUSH1 0x64 DUP3 ADD MSTORE PUSH1 0x84 ADD PUSH2 0x6F3 JUMP JUMPDEST PUSH1 0x1 PUSH1 0x1 PUSH1 0xA0 SHL SUB DUP3 AND PUSH2 0x2D16 JUMPI PUSH1 0x40 MLOAD PUSH3 0x461BCD PUSH1 0xE5 SHL DUP2 MSTORE PUSH1 0x20 PUSH1 0x4 DUP3 ADD MSTORE PUSH1 0x23 PUSH1 0x24 DUP3 ADD MSTORE PUSH32 0x45524332303A207472616E7366657220746F20746865207A65726F2061646472 PUSH1 0x44 DUP3 ADD MSTORE PUSH3 0x657373 PUSH1 0xE8 SHL PUSH1 0x64 DUP3 ADD MSTORE PUSH1 0x84 ADD PUSH2 0x6F3 JUMP JUMPDEST PUSH1 0x1 PUSH1 0x1 PUSH1 0xA0 SHL SUB DUP4 AND PUSH1 0x0 SWAP1 DUP2 MSTORE PUSH1 0x20 DUP2 SWAP1 MSTORE PUSH1 0x40 SWAP1 KECCAK256 SLOAD DUP2 DUP2 LT ISZERO PUSH2 0x2D8E JUMPI PUSH1 0x40 MLOAD PUSH3 0x461BCD PUSH1 0xE5 SHL DUP2 MSTORE PUSH1 0x20 PUSH1 0x4 DUP3 ADD MSTORE PUSH1 0x26 PUSH1 0x24 DUP3 ADD MSTORE PUSH32 0x45524332303A207472616E7366657220616D6F756E7420657863656564732062 PUSH1 0x44 DUP3 ADD MSTORE PUSH6 0x616C616E6365 PUSH1 0xD0 SHL PUSH1 0x64 DUP3 ADD MSTORE PUSH1 0x84 ADD PUSH2 0x6F3 JUMP JUMPDEST PUSH1 0x1 PUSH1 0x1 PUSH1 0xA0 SHL SUB DUP1 DUP6 AND PUSH1 0x0 SWAP1 DUP2 MSTORE PUSH1 0x20 DUP2 SWAP1 MSTORE PUSH1 0x40 DUP1 DUP3 KECCAK256 DUP6 DUP6 SUB SWAP1 SSTORE SWAP2 DUP6 AND DUP2 MSTORE SWAP1 DUP2 KECCAK256 DUP1 SLOAD DUP5 SWAP3 SWAP1 PUSH2 0x2DC5 SWAP1 DUP5 SWAP1 PUSH2 0x3CAD JUMP JUMPDEST SWAP3 POP POP DUP2 SWAP1 SSTORE POP DUP3 PUSH1 0x1 PUSH1 0x1 PUSH1 0xA0 SHL SUB AND DUP5 PUSH1 0x1 PUSH1 0x1 PUSH1 0xA0 SHL SUB AND PUSH32 0xDDF252AD1BE2C89B69C2B068FC378DAA952BA7F163C4A11628F55A4DF523B3EF DUP5 PUSH1 0x40 MLOAD PUSH2 0x2E11 SWAP2 DUP2 MSTORE PUSH1 0x20 ADD SWAP1 JUMP JUMPDEST PUSH1 0x40 MLOAD DUP1 SWAP2 SUB SWAP1 LOG3 JUMPDEST POP POP POP POP JUMP JUMPDEST PUSH1 0x0 DUP1 DUP4 PUSH1 0x0 SUB PUSH2 0x2E9E JUMPI PUSH1 0xC SLOAD PUSH1 0xA SLOAD PUSH1 0x40 MLOAD PUSH4 0xB3596F07 PUSH1 0xE0 SHL DUP2 MSTORE PUSH1 0x1 PUSH1 0x1 PUSH1 0xA0 SHL SUB SWAP2 DUP3 AND PUSH1 0x4 DUP3 ADD MSTORE SWAP2 AND SWAP1 PUSH4 0xB3596F07 SWAP1 PUSH1 0x24 ADD PUSH1 0x20 PUSH1 0x40 MLOAD DUP1 DUP4 SUB DUP2 DUP7 GAS STATICCALL ISZERO DUP1 ISZERO PUSH2 0x2E77 JUMPI RETURNDATASIZE PUSH1 0x0 DUP1 RETURNDATACOPY RETURNDATASIZE PUSH1 0x0 REVERT JUMPDEST POP POP POP POP PUSH1 0x40 MLOAD RETURNDATASIZE PUSH1 0x1F NOT PUSH1 0x1F DUP3 ADD AND DUP3 ADD DUP1 PUSH1 0x40 MSTORE POP DUP2 ADD SWAP1 PUSH2 0x2E9B SWAP2 SWAP1 PUSH2 0x3DF4 JUMP JUMPDEST SWAP4 POP JUMPDEST DUP3 PUSH1 0x0 SUB PUSH2 0x2F19 JUMPI PUSH1 0xC SLOAD PUSH1 0xB SLOAD PUSH1 0x40 MLOAD PUSH4 0xB3596F07 PUSH1 0xE0 SHL DUP2 MSTORE PUSH1 0x1 PUSH1 0x1 PUSH1 0xA0 SHL SUB SWAP2 DUP3 AND PUSH1 0x4 DUP3 ADD MSTORE SWAP2 AND SWAP1 PUSH4 0xB3596F07 SWAP1 PUSH1 0x24 ADD PUSH1 0x20 PUSH1 0x40 MLOAD DUP1 DUP4 SUB DUP2 DUP7 GAS STATICCALL ISZERO DUP1 ISZERO PUSH2 0x2EF2 JUMPI RETURNDATASIZE PUSH1 0x0 DUP1 RETURNDATACOPY RETURNDATASIZE PUSH1 0x0 REVERT JUMPDEST POP POP POP POP PUSH1 0x40 MLOAD RETURNDATASIZE PUSH1 0x1F NOT PUSH1 0x1F DUP3 ADD AND DUP3 ADD DUP1 PUSH1 0x40 MSTORE POP DUP2 ADD SWAP1 PUSH2 0x2F16 SWAP2 SWAP1 PUSH2 0x3DF4 JUMP JUMPDEST SWAP3 POP JUMPDEST PUSH2 0x2FB9 PUSH2 0x2F7A PUSH1 0xA PUSH1 0x0 ADD PUSH1 0x14 SWAP1 SLOAD SWAP1 PUSH2 0x100 EXP SWAP1 DIV PUSH1 0xFF AND PUSH1 0xA PUSH2 0x2F3E SWAP2 SWAP1 PUSH2 0x3DE5 JUMP JUMPDEST PUSH1 0xB SLOAD DUP7 SWAP1 PUSH2 0x2F58 SWAP1 PUSH1 0x1 PUSH1 0xA0 SHL SWAP1 DIV PUSH1 0xFF AND PUSH1 0xA PUSH2 0x3DE5 JUMP JUMPDEST PUSH2 0x2F62 SWAP1 DUP10 PUSH2 0x3CC0 JUMP JUMPDEST PUSH2 0x2F6C SWAP2 SWAP1 PUSH2 0x3CED JUMP JUMPDEST PUSH2 0x1D83 SWAP1 PUSH1 0x1 PUSH1 0xC0 SHL PUSH2 0x3CC0 JUMP JUMPDEST PUSH1 0x6 SLOAD PUSH1 0x40 MLOAD PUSH4 0x986CFBA3 PUSH1 0xE0 SHL DUP2 MSTORE PUSH1 0x2 SWAP2 SWAP1 SWAP2 SIGNEXTEND PUSH1 0x4 DUP3 ADD MSTORE PUSH20 0x0 SWAP1 PUSH4 0x986CFBA3 SWAP1 PUSH1 0x24 ADD PUSH2 0x2532 JUMP JUMPDEST SWAP1 SWAP6 SWAP1 SWAP5 POP SWAP3 POP POP POP JUMP JUMPDEST PUSH1 0x40 MLOAD PUSH1 0x1 PUSH1 0x1 PUSH1 0xA0 SHL SUB DUP4 AND PUSH1 0x24 DUP3 ADD MSTORE PUSH1 0x44 DUP2 ADD DUP3 SWAP1 MSTORE PUSH2 0x3027 SWAP1 DUP5 SWAP1 PUSH4 0xA9059CBB PUSH1 0xE0 SHL SWAP1 PUSH1 0x64 ADD JUMPDEST PUSH1 0x40 DUP1 MLOAD PUSH1 0x1F NOT DUP2 DUP5 SUB ADD DUP2 MSTORE SWAP2 SWAP1 MSTORE PUSH1 0x20 DUP2 ADD DUP1 MLOAD PUSH1 0x1 PUSH1 0x1 PUSH1 0xE0 SHL SUB AND PUSH1 0x1 PUSH1 0x1 PUSH1 0xE0 SHL SUB NOT SWAP1 SWAP4 AND SWAP3 SWAP1 SWAP3 OR SWAP1 SWAP2 MSTORE PUSH2 0x3439 JUMP JUMPDEST POP POP POP JUMP JUMPDEST PUSH1 0x40 MLOAD PUSH4 0x6EB1769F PUSH1 0xE1 SHL DUP2 MSTORE ADDRESS PUSH1 0x4 DUP3 ADD MSTORE PUSH1 0x1 PUSH1 0x1 PUSH1 0xA0 SHL SUB DUP4 DUP2 AND PUSH1 0x24 DUP4 ADD MSTORE PUSH1 0x0 SWAP2 DUP4 SWAP2 DUP7 AND SWAP1 PUSH4 0xDD62ED3E SWAP1 PUSH1 0x44 ADD PUSH1 0x20 PUSH1 0x40 MLOAD DUP1 DUP4 SUB DUP2 DUP7 GAS STATICCALL ISZERO DUP1 ISZERO PUSH2 0x307D JUMPI RETURNDATASIZE PUSH1 0x0 DUP1 RETURNDATACOPY RETURNDATASIZE PUSH1 0x0 REVERT JUMPDEST POP POP POP POP PUSH1 0x40 MLOAD RETURNDATASIZE PUSH1 0x1F NOT PUSH1 0x1F DUP3 ADD AND DUP3 ADD DUP1 PUSH1 0x40 MSTORE POP DUP2 ADD SWAP1 PUSH2 0x30A1 SWAP2 SWAP1 PUSH2 0x3DF4 JUMP JUMPDEST PUSH2 0x30AB SWAP2 SWAP1 PUSH2 0x3CAD JUMP JUMPDEST PUSH1 0x40 MLOAD PUSH1 0x1 PUSH1 0x1 PUSH1 0xA0 SHL SUB DUP6 AND PUSH1 0x24 DUP3 ADD MSTORE PUSH1 0x44 DUP2 ADD DUP3 SWAP1 MSTORE SWAP1 SWAP2 POP PUSH2 0x2E1A SWAP1 DUP6 SWAP1 PUSH4 0x95EA7B3 PUSH1 0xE0 SHL SWAP1 PUSH1 0x64 ADD PUSH2 0x2FF0 JUMP JUMPDEST PUSH1 0x1 PUSH1 0x1 PUSH1 0xA0 SHL SUB DUP3 AND PUSH2 0x313E JUMPI PUSH1 0x40 MLOAD PUSH3 0x461BCD PUSH1 0xE5 SHL DUP2 MSTORE PUSH1 0x20 PUSH1 0x4 DUP3 ADD MSTORE PUSH1 0x21 PUSH1 0x24 DUP3 ADD MSTORE PUSH32 0x45524332303A206275726E2066726F6D20746865207A65726F20616464726573 PUSH1 0x44 DUP3 ADD MSTORE PUSH1 0x73 PUSH1 0xF8 SHL PUSH1 0x64 DUP3 ADD MSTORE PUSH1 0x84 ADD PUSH2 0x6F3 JUMP JUMPDEST PUSH1 0x1 PUSH1 0x1 PUSH1 0xA0 SHL SUB DUP3 AND PUSH1 0x0 SWAP1 DUP2 MSTORE PUSH1 0x20 DUP2 SWAP1 MSTORE PUSH1 0x40 SWAP1 KECCAK256 SLOAD DUP2 DUP2 LT ISZERO PUSH2 0x31B2 JUMPI PUSH1 0x40 MLOAD PUSH3 0x461BCD PUSH1 0xE5 SHL DUP2 MSTORE PUSH1 0x20 PUSH1 0x4 DUP3 ADD MSTORE PUSH1 0x22 PUSH1 0x24 DUP3 ADD MSTORE PUSH32 0x45524332303A206275726E20616D6F756E7420657863656564732062616C616E PUSH1 0x44 DUP3 ADD MSTORE PUSH2 0x6365 PUSH1 0xF0 SHL PUSH1 0x64 DUP3 ADD MSTORE PUSH1 0x84 ADD PUSH2 0x6F3 JUMP JUMPDEST PUSH1 0x1 PUSH1 0x1 PUSH1 0xA0 SHL SUB DUP4 AND PUSH1 0x0 SWAP1 DUP2 MSTORE PUSH1 0x20 DUP2 SWAP1 MSTORE PUSH1 0x40 DUP2 KECCAK256 DUP4 DUP4 SUB SWAP1 SSTORE PUSH1 0x2 DUP1 SLOAD DUP5 SWAP3 SWAP1 PUSH2 0x31E1 SWAP1 DUP5 SWAP1 PUSH2 0x3E74 JUMP JUMPDEST SWAP1 SWAP2 SSTORE POP POP PUSH1 0x40 MLOAD DUP3 DUP2 MSTORE PUSH1 0x0 SWAP1 PUSH1 0x1 PUSH1 0x1 PUSH1 0xA0 SHL SUB DUP6 AND SWAP1 PUSH32 0xDDF252AD1BE2C89B69C2B068FC378DAA952BA7F163C4A11628F55A4DF523B3EF SWAP1 PUSH1 0x20 ADD PUSH1 0x40 MLOAD DUP1 SWAP2 SUB SWAP1 LOG3 POP POP POP JUMP JUMPDEST PUSH1 0x40 MLOAD PUSH1 0x1 PUSH1 0x1 PUSH1 0xA0 SHL SUB DUP1 DUP6 AND PUSH1 0x24 DUP4 ADD MSTORE DUP4 AND PUSH1 0x44 DUP3 ADD MSTORE PUSH1 0x64 DUP2 ADD DUP3 SWAP1 MSTORE PUSH2 0x2E1A SWAP1 DUP6 SWAP1 PUSH4 0x23B872DD PUSH1 0xE0 SHL SWAP1 PUSH1 0x84 ADD PUSH2 0x2FF0 JUMP JUMPDEST PUSH1 0x1 PUSH1 0x1 PUSH1 0xA0 SHL SUB DUP3 AND PUSH2 0x32BA JUMPI PUSH1 0x40 MLOAD PUSH3 0x461BCD PUSH1 0xE5 SHL DUP2 MSTORE PUSH1 0x20 PUSH1 0x4 DUP3 ADD MSTORE PUSH1 0x1F PUSH1 0x24 DUP3 ADD MSTORE PUSH32 0x45524332303A206D696E7420746F20746865207A65726F206164647265737300 PUSH1 0x44 DUP3 ADD MSTORE PUSH1 0x64 ADD PUSH2 0x6F3 JUMP JUMPDEST DUP1 PUSH1 0x2 PUSH1 0x0 DUP3 DUP3 SLOAD PUSH2 0x32CC SWAP2 SWAP1 PUSH2 0x3CAD JUMP JUMPDEST SWAP1 SWAP2 SSTORE POP POP PUSH1 0x1 PUSH1 0x1 PUSH1 0xA0 SHL SUB DUP3 AND PUSH1 0x0 SWAP1 DUP2 MSTORE PUSH1 0x20 DUP2 SWAP1 MSTORE PUSH1 0x40 DUP2 KECCAK256 DUP1 SLOAD DUP4 SWAP3 SWAP1 PUSH2 0x32F9 SWAP1 DUP5 SWAP1 PUSH2 0x3CAD JUMP JUMPDEST SWAP1 SWAP2 SSTORE POP POP PUSH1 0x40 MLOAD DUP2 DUP2 MSTORE PUSH1 0x1 PUSH1 0x1 PUSH1 0xA0 SHL SUB DUP4 AND SWAP1 PUSH1 0x0 SWAP1 PUSH32 0xDDF252AD1BE2C89B69C2B068FC378DAA952BA7F163C4A11628F55A4DF523B3EF SWAP1 PUSH1 0x20 ADD PUSH1 0x40 MLOAD DUP1 SWAP2 SUB SWAP1 LOG3 POP POP JUMP JUMPDEST PUSH1 0x0 DUP1 DUP4 PUSH1 0x1 PUSH1 0x1 PUSH1 0xA0 SHL SUB AND DUP6 PUSH1 0x1 PUSH1 0x1 PUSH1 0xA0 SHL SUB AND GT ISZERO PUSH2 0x3364 JUMPI SWAP3 SWAP4 SWAP3 JUMPDEST DUP5 PUSH1 0x1 PUSH1 0x1 PUSH1 0xA0 SHL SUB AND DUP7 PUSH1 0x1 PUSH1 0x1 PUSH1 0xA0 SHL SUB AND LT ISZERO PUSH2 0x3390 JUMPI PUSH2 0x3389 DUP6 DUP6 DUP6 PUSH2 0x350B JUMP JUMPDEST SWAP2 POP PUSH2 0x33D7 JUMP JUMPDEST DUP4 PUSH1 0x1 PUSH1 0x1 PUSH1 0xA0 SHL SUB AND DUP7 PUSH1 0x1 PUSH1 0x1 PUSH1 0xA0 SHL SUB AND LT ISZERO PUSH2 0x33C9 JUMPI PUSH2 0x33B5 DUP7 DUP6 DUP6 PUSH2 0x350B JUMP JUMPDEST SWAP2 POP PUSH2 0x33C2 DUP6 DUP8 DUP6 PUSH2 0x3586 JUMP JUMPDEST SWAP1 POP PUSH2 0x33D7 JUMP JUMPDEST PUSH2 0x33D4 DUP6 DUP6 DUP6 PUSH2 0x3586 JUMP JUMPDEST SWAP1 POP JUMPDEST SWAP5 POP SWAP5 SWAP3 POP POP POP JUMP JUMPDEST PUSH1 0x0 DUP1 PUSH1 0x2 PUSH2 0x33F0 DUP5 PUSH1 0x1 PUSH2 0x3CAD JUMP JUMPDEST PUSH2 0x33FA SWAP2 SWAP1 PUSH2 0x3CED JUMP JUMPDEST SWAP1 POP DUP3 SWAP2 POP JUMPDEST DUP2 DUP2 LT ISZERO PUSH2 0x3433 JUMPI SWAP1 POP DUP1 PUSH1 0x2 DUP2 PUSH2 0x3418 DUP2 DUP7 PUSH2 0x3CED JUMP JUMPDEST PUSH2 0x3422 SWAP2 SWAP1 PUSH2 0x3CAD JUMP JUMPDEST PUSH2 0x342C SWAP2 SWAP1 PUSH2 0x3CED JUMP JUMPDEST SWAP1 POP PUSH2 0x3400 JUMP JUMPDEST POP SWAP2 SWAP1 POP JUMP JUMPDEST PUSH1 0x0 PUSH2 0x348E DUP3 PUSH1 0x40 MLOAD DUP1 PUSH1 0x40 ADD PUSH1 0x40 MSTORE DUP1 PUSH1 0x20 DUP2 MSTORE PUSH1 0x20 ADD PUSH32 0x5361666545524332303A206C6F772D6C6576656C2063616C6C206661696C6564 DUP2 MSTORE POP DUP6 PUSH1 0x1 PUSH1 0x1 PUSH1 0xA0 SHL SUB AND PUSH2 0x35D0 SWAP1 SWAP3 SWAP2 SWAP1 PUSH4 0xFFFFFFFF AND JUMP JUMPDEST DUP1 MLOAD SWAP1 SWAP2 POP ISZERO PUSH2 0x3027 JUMPI DUP1 DUP1 PUSH1 0x20 ADD SWAP1 MLOAD DUP2 ADD SWAP1 PUSH2 0x34AC SWAP2 SWAP1 PUSH2 0x44EB JUMP JUMPDEST PUSH2 0x3027 JUMPI PUSH1 0x40 MLOAD PUSH3 0x461BCD PUSH1 0xE5 SHL DUP2 MSTORE PUSH1 0x20 PUSH1 0x4 DUP3 ADD MSTORE PUSH1 0x2A PUSH1 0x24 DUP3 ADD MSTORE PUSH32 0x5361666545524332303A204552433230206F7065726174696F6E20646964206E PUSH1 0x44 DUP3 ADD MSTORE PUSH10 0x1BDD081CDD58D8D95959 PUSH1 0xB2 SHL PUSH1 0x64 DUP3 ADD MSTORE PUSH1 0x84 ADD PUSH2 0x6F3 JUMP JUMPDEST PUSH1 0x0 DUP3 PUSH1 0x1 PUSH1 0x1 PUSH1 0xA0 SHL SUB AND DUP5 PUSH1 0x1 PUSH1 0x1 PUSH1 0xA0 SHL SUB AND GT ISZERO PUSH2 0x352B JUMPI SWAP2 SWAP3 SWAP2 JUMPDEST PUSH1 0x1 PUSH1 0x1 PUSH1 0xA0 SHL SUB DUP5 AND PUSH2 0x3574 PUSH16 0xFFFFFFFFFFFFFFFFFFFFFFFFFFFFFFFF PUSH1 0x60 SHL PUSH1 0x60 DUP6 SWAP1 SHL AND PUSH2 0x355C DUP8 DUP8 PUSH2 0x4508 JUMP JUMPDEST PUSH1 0x1 PUSH1 0x1 PUSH1 0xA0 SHL SUB AND DUP7 PUSH1 0x1 PUSH1 0x1 PUSH1 0xA0 SHL SUB AND PUSH2 0x35DF JUMP JUMPDEST PUSH2 0x357E SWAP2 SWAP1 PUSH2 0x3CED JUMP JUMPDEST SWAP5 SWAP4 POP POP POP POP JUMP JUMPDEST PUSH1 0x0 DUP3 PUSH1 0x1 PUSH1 0x1 PUSH1 0xA0 SHL SUB AND DUP5 PUSH1 0x1 PUSH1 0x1 PUSH1 0xA0 SHL SUB AND GT ISZERO PUSH2 0x35A6 JUMPI SWAP2 SWAP3 SWAP2 JUMPDEST PUSH2 0x357E PUSH1 0x1 PUSH1 0x1 PUSH1 0x80 SHL SUB DUP4 AND PUSH2 0x35BD DUP7 DUP7 PUSH2 0x4508 JUMP JUMPDEST PUSH1 0x1 PUSH1 0x1 PUSH1 0xA0 SHL SUB AND PUSH1 0x1 PUSH1 0x60 SHL PUSH2 0x35DF JUMP JUMPDEST PUSH1 0x60 PUSH2 0x357E DUP5 DUP5 PUSH1 0x0 DUP6 PUSH2 0x3758 JUMP JUMPDEST PUSH1 0x0 DUP1 DUP1 PUSH1 0x0 NOT DUP6 DUP8 MULMOD DUP6 DUP8 MUL SWAP3 POP DUP3 DUP2 LT DUP4 DUP3 SUB SUB SWAP2 POP POP DUP1 PUSH1 0x0 SUB PUSH2 0x3618 JUMPI PUSH1 0x0 DUP5 GT PUSH2 0x360D JUMPI PUSH1 0x0 DUP1 REVERT JUMPDEST POP DUP3 SWAP1 DIV SWAP1 POP PUSH2 0x71A JUMP JUMPDEST DUP1 DUP5 GT PUSH2 0x3624 JUMPI PUSH1 0x0 DUP1 REVERT JUMPDEST PUSH1 0x0 DUP5 DUP7 DUP9 MULMOD DUP1 DUP5 SUB SWAP4 DUP2 GT SWAP1 SWAP3 SUB SWAP2 SWAP1 POP PUSH1 0x0 PUSH2 0x3644 DUP7 NOT PUSH1 0x1 PUSH2 0x3CAD JUMP JUMPDEST DUP7 AND SWAP6 DUP7 SWAP1 DIV SWAP6 SWAP4 DUP5 SWAP1 DIV SWAP4 PUSH1 0x0 DUP2 SWAP1 SUB DIV PUSH1 0x1 ADD SWAP1 POP PUSH2 0x3665 DUP2 DUP5 PUSH2 0x3CC0 JUMP JUMPDEST SWAP1 SWAP4 OR SWAP3 PUSH1 0x0 PUSH2 0x3676 DUP8 PUSH1 0x3 PUSH2 0x3CC0 JUMP JUMPDEST PUSH1 0x2 XOR SWAP1 POP PUSH2 0x3685 DUP2 DUP9 PUSH2 0x3CC0 JUMP JUMPDEST PUSH2 0x3690 SWAP1 PUSH1 0x2 PUSH2 0x3E74 JUMP JUMPDEST PUSH2 0x369A SWAP1 DUP3 PUSH2 0x3CC0 JUMP JUMPDEST SWAP1 POP PUSH2 0x36A6 DUP2 DUP9 PUSH2 0x3CC0 JUMP JUMPDEST PUSH2 0x36B1 SWAP1 PUSH1 0x2 PUSH2 0x3E74 JUMP JUMPDEST PUSH2 0x36BB SWAP1 DUP3 PUSH2 0x3CC0 JUMP JUMPDEST SWAP1 POP PUSH2 0x36C7 DUP2 DUP9 PUSH2 0x3CC0 JUMP JUMPDEST PUSH2 0x36D2 SWAP1 PUSH1 0x2 PUSH2 0x3E74 JUMP JUMPDEST PUSH2 0x36DC SWAP1 DUP3 PUSH2 0x3CC0 JUMP JUMPDEST SWAP1 POP PUSH2 0x36E8 DUP2 DUP9 PUSH2 0x3CC0 JUMP JUMPDEST PUSH2 0x36F3 SWAP1 PUSH1 0x2 PUSH2 0x3E74 JUMP JUMPDEST PUSH2 0x36FD SWAP1 DUP3 PUSH2 0x3CC0 JUMP JUMPDEST SWAP1 POP PUSH2 0x3709 DUP2 DUP9 PUSH2 0x3CC0 JUMP JUMPDEST PUSH2 0x3714 SWAP1 PUSH1 0x2 PUSH2 0x3E74 JUMP JUMPDEST PUSH2 0x371E SWAP1 DUP3 PUSH2 0x3CC0 JUMP JUMPDEST SWAP1 POP PUSH2 0x372A DUP2 DUP9 PUSH2 0x3CC0 JUMP JUMPDEST PUSH2 0x3735 SWAP1 PUSH1 0x2 PUSH2 0x3E74 JUMP JUMPDEST PUSH2 0x373F SWAP1 DUP3 PUSH2 0x3CC0 JUMP JUMPDEST SWAP1 POP PUSH2 0x374B DUP2 DUP7 PUSH2 0x3CC0 JUMP JUMPDEST SWAP10 SWAP9 POP POP POP POP POP POP POP POP POP JUMP JUMPDEST PUSH1 0x60 DUP3 SELFBALANCE LT ISZERO PUSH2 0x37B9 JUMPI PUSH1 0x40 MLOAD PUSH3 0x461BCD PUSH1 0xE5 SHL DUP2 MSTORE PUSH1 0x20 PUSH1 0x4 DUP3 ADD MSTORE PUSH1 0x26 PUSH1 0x24 DUP3 ADD MSTORE PUSH32 0x416464726573733A20696E73756666696369656E742062616C616E636520666F PUSH1 0x44 DUP3 ADD MSTORE PUSH6 0x1C8818D85B1B PUSH1 0xD2 SHL PUSH1 0x64 DUP3 ADD MSTORE PUSH1 0x84 ADD PUSH2 0x6F3 JUMP JUMPDEST PUSH1 0x1 PUSH1 0x1 PUSH1 0xA0 SHL SUB DUP6 AND EXTCODESIZE PUSH2 0x3810 JUMPI PUSH1 0x40 MLOAD PUSH3 0x461BCD PUSH1 0xE5 SHL DUP2 MSTORE PUSH1 0x20 PUSH1 0x4 DUP3 ADD MSTORE PUSH1 0x1D PUSH1 0x24 DUP3 ADD MSTORE PUSH32 0x416464726573733A2063616C6C20746F206E6F6E2D636F6E7472616374000000 PUSH1 0x44 DUP3 ADD MSTORE PUSH1 0x64 ADD PUSH2 0x6F3 JUMP JUMPDEST PUSH1 0x0 DUP1 DUP7 PUSH1 0x1 PUSH1 0x1 PUSH1 0xA0 SHL SUB AND DUP6 DUP8 PUSH1 0x40 MLOAD PUSH2 0x382C SWAP2 SWAP1 PUSH2 0x4528 JUMP JUMPDEST PUSH1 0x0 PUSH1 0x40 MLOAD DUP1 DUP4 SUB DUP2 DUP6 DUP8 GAS CALL SWAP3 POP POP POP RETURNDATASIZE DUP1 PUSH1 0x0 DUP2 EQ PUSH2 0x3869 JUMPI PUSH1 0x40 MLOAD SWAP2 POP PUSH1 0x1F NOT PUSH1 0x3F RETURNDATASIZE ADD AND DUP3 ADD PUSH1 0x40 MSTORE RETURNDATASIZE DUP3 MSTORE RETURNDATASIZE PUSH1 0x0 PUSH1 0x20 DUP5 ADD RETURNDATACOPY PUSH2 0x386E JUMP JUMPDEST PUSH1 0x60 SWAP2 POP JUMPDEST POP SWAP2 POP SWAP2 POP PUSH2 0x387E DUP3 DUP3 DUP7 PUSH2 0x3889 JUMP JUMPDEST SWAP8 SWAP7 POP POP POP POP POP POP POP JUMP JUMPDEST PUSH1 0x60 DUP4 ISZERO PUSH2 0x3898 JUMPI POP DUP2 PUSH2 0x71A JUMP JUMPDEST DUP3 MLOAD ISZERO PUSH2 0x38A8 JUMPI DUP3 MLOAD DUP1 DUP5 PUSH1 0x20 ADD REVERT JUMPDEST DUP2 PUSH1 0x40 MLOAD PUSH3 0x461BCD PUSH1 0xE5 SHL DUP2 MSTORE PUSH1 0x4 ADD PUSH2 0x6F3 SWAP2 SWAP1 PUSH2 0x38E6 JUMP JUMPDEST PUSH1 0x0 JUMPDEST DUP4 DUP2 LT ISZERO PUSH2 0x38DD JUMPI DUP2 DUP2 ADD MLOAD DUP4 DUP3 ADD MSTORE PUSH1 0x20 ADD PUSH2 0x38C5 JUMP JUMPDEST POP POP PUSH1 0x0 SWAP2 ADD MSTORE JUMP JUMPDEST PUSH1 0x20 DUP2 MSTORE PUSH1 0x0 DUP3 MLOAD DUP1 PUSH1 0x20 DUP5 ADD MSTORE PUSH2 0x3905 DUP2 PUSH1 0x40 DUP6 ADD PUSH1 0x20 DUP8 ADD PUSH2 0x38C2 JUMP JUMPDEST PUSH1 0x1F ADD PUSH1 0x1F NOT AND SWAP2 SWAP1 SWAP2 ADD PUSH1 0x40 ADD SWAP3 SWAP2 POP POP JUMP JUMPDEST PUSH1 0x1 PUSH1 0x1 PUSH1 0xA0 SHL SUB DUP2 AND DUP2 EQ PUSH2 0x392E JUMPI PUSH1 0x0 DUP1 REVERT JUMPDEST POP JUMP JUMPDEST PUSH1 0x0 DUP1 PUSH1 0x40 DUP4 DUP6 SUB SLT ISZERO PUSH2 0x3944 JUMPI PUSH1 0x0 DUP1 REVERT JUMPDEST DUP3 CALLDATALOAD PUSH2 0x394F DUP2 PUSH2 0x3919 JUMP JUMPDEST SWAP5 PUSH1 0x20 SWAP4 SWAP1 SWAP4 ADD CALLDATALOAD SWAP4 POP POP POP JUMP JUMPDEST PUSH4 0x4E487B71 PUSH1 0xE0 SHL PUSH1 0x0 MSTORE PUSH1 0x21 PUSH1 0x4 MSTORE PUSH1 0x24 PUSH1 0x0 REVERT JUMPDEST PUSH1 0x20 DUP2 ADD PUSH1 0x3 DUP4 LT PUSH2 0x3995 JUMPI PUSH4 0x4E487B71 PUSH1 0xE0 SHL PUSH1 0x0 MSTORE PUSH1 0x21 PUSH1 0x4 MSTORE PUSH1 0x24 PUSH1 0x0 REVERT JUMPDEST SWAP2 SWAP1 MSTORE SWAP1 JUMP JUMPDEST PUSH1 0x0 DUP1 PUSH1 0x0 PUSH1 0x60 DUP5 DUP7 SUB SLT ISZERO PUSH2 0x39B0 JUMPI PUSH1 0x0 DUP1 REVERT JUMPDEST DUP4 CALLDATALOAD PUSH2 0x39BB DUP2 PUSH2 0x3919 JUMP JUMPDEST SWAP3 POP PUSH1 0x20 DUP5 ADD CALLDATALOAD PUSH2 0x39CB DUP2 PUSH2 0x3919 JUMP JUMPDEST SWAP3 SWAP6 SWAP3 SWAP5 POP POP POP PUSH1 0x40 SWAP2 SWAP1 SWAP2 ADD CALLDATALOAD SWAP1 JUMP JUMPDEST PUSH1 0x0 PUSH1 0x20 DUP3 DUP5 SUB SLT ISZERO PUSH2 0x39EE JUMPI PUSH1 0x0 DUP1 REVERT JUMPDEST POP CALLDATALOAD SWAP2 SWAP1 POP JUMP JUMPDEST PUSH1 0x0 DUP1 PUSH1 0x40 DUP4 DUP6 SUB SLT ISZERO PUSH2 0x3A08 JUMPI PUSH1 0x0 DUP1 REVERT JUMPDEST POP POP DUP1 CALLDATALOAD SWAP3 PUSH1 0x20 SWAP1 SWAP2 ADD CALLDATALOAD SWAP2 POP JUMP JUMPDEST PUSH1 0x0 PUSH1 0x20 DUP3 DUP5 SUB SLT ISZERO PUSH2 0x3A29 JUMPI PUSH1 0x0 DUP1 REVERT JUMPDEST DUP2 CALLDATALOAD PUSH2 0x71A DUP2 PUSH2 0x3919 JUMP JUMPDEST PUSH1 0x0 DUP1 PUSH1 0x0 PUSH1 0x60 DUP5 DUP7 SUB SLT ISZERO PUSH2 0x3A49 JUMPI PUSH1 0x0 DUP1 REVERT JUMPDEST POP POP DUP2 CALLDATALOAD SWAP4 PUSH1 0x20 DUP4 ADD CALLDATALOAD SWAP4 POP PUSH1 0x40 SWAP1 SWAP3 ADD CALLDATALOAD SWAP2 SWAP1 POP JUMP JUMPDEST PUSH1 0x1 PUSH1 0x1 PUSH1 0x80 SHL SUB DUP2 AND DUP2 EQ PUSH2 0x392E JUMPI PUSH1 0x0 DUP1 REVERT JUMPDEST PUSH4 0x4E487B71 PUSH1 0xE0 SHL PUSH1 0x0 MSTORE PUSH1 0x41 PUSH1 0x4 MSTORE PUSH1 0x24 PUSH1 0x0 REVERT JUMPDEST PUSH1 0x40 MLOAD PUSH1 0x1F DUP3 ADD PUSH1 0x1F NOT AND DUP2 ADD PUSH8 0xFFFFFFFFFFFFFFFF DUP2 GT DUP3 DUP3 LT OR ISZERO PUSH2 0x3AB4 JUMPI PUSH2 0x3AB4 PUSH2 0x3A75 JUMP JUMPDEST PUSH1 0x40 MSTORE SWAP2 SWAP1 POP JUMP JUMPDEST PUSH1 0x0 PUSH8 0xFFFFFFFFFFFFFFFF DUP3 GT ISZERO PUSH2 0x3AD6 JUMPI PUSH2 0x3AD6 PUSH2 0x3A75 JUMP JUMPDEST POP PUSH1 0x1F ADD PUSH1 0x1F NOT AND PUSH1 0x20 ADD SWAP1 JUMP JUMPDEST PUSH1 0x0 DUP3 PUSH1 0x1F DUP4 ADD SLT PUSH2 0x3AF5 JUMPI PUSH1 0x0 DUP1 REVERT JUMPDEST DUP2 CALLDATALOAD PUSH2 0x3B08 PUSH2 0x3B03 DUP3 PUSH2 0x3ABC JUMP JUMPDEST PUSH2 0x3A8B JUMP JUMPDEST DUP2 DUP2 MSTORE DUP5 PUSH1 0x20 DUP4 DUP7 ADD ADD GT ISZERO PUSH2 0x3B1D JUMPI PUSH1 0x0 DUP1 REVERT JUMPDEST DUP2 PUSH1 0x20 DUP6 ADD PUSH1 0x20 DUP4 ADD CALLDATACOPY PUSH1 0x0 SWAP2 DUP2 ADD PUSH1 0x20 ADD SWAP2 SWAP1 SWAP2 MSTORE SWAP4 SWAP3 POP POP POP JUMP JUMPDEST DUP1 ISZERO ISZERO DUP2 EQ PUSH2 0x392E JUMPI PUSH1 0x0 DUP1 REVERT JUMPDEST DUP1 CALLDATALOAD PUSH2 0x3B53 DUP2 PUSH2 0x3B3A JUMP JUMPDEST SWAP2 SWAP1 POP JUMP JUMPDEST PUSH1 0x0 DUP1 PUSH1 0x0 DUP1 PUSH1 0x0 DUP1 PUSH1 0x0 DUP1 PUSH2 0x100 DUP10 DUP12 SUB SLT ISZERO PUSH2 0x3B75 JUMPI PUSH1 0x0 DUP1 REVERT JUMPDEST DUP9 CALLDATALOAD PUSH2 0x3B80 DUP2 PUSH2 0x3919 JUMP JUMPDEST SWAP8 POP PUSH1 0x20 DUP10 ADD CALLDATALOAD PUSH2 0x3B90 DUP2 PUSH2 0x3919 JUMP JUMPDEST SWAP7 POP PUSH1 0x40 DUP10 ADD CALLDATALOAD PUSH2 0x3BA0 DUP2 PUSH2 0x3919 JUMP JUMPDEST SWAP6 POP PUSH1 0x60 DUP10 ADD CALLDATALOAD PUSH2 0x3BB0 DUP2 PUSH2 0x3A60 JUMP JUMPDEST SWAP5 POP PUSH1 0x80 DUP10 ADD CALLDATALOAD PUSH2 0x3BC0 DUP2 PUSH2 0x3A60 JUMP JUMPDEST SWAP4 POP PUSH1 0xA0 DUP10 ADD CALLDATALOAD PUSH8 0xFFFFFFFFFFFFFFFF DUP1 DUP3 GT ISZERO PUSH2 0x3BDD JUMPI PUSH1 0x0 DUP1 REVERT JUMPDEST PUSH2 0x3BE9 DUP13 DUP4 DUP14 ADD PUSH2 0x3AE4 JUMP JUMPDEST SWAP5 POP PUSH1 0xC0 DUP12 ADD CALLDATALOAD SWAP2 POP DUP1 DUP3 GT ISZERO PUSH2 0x3BFF JUMPI PUSH1 0x0 DUP1 REVERT JUMPDEST POP PUSH2 0x3C0C DUP12 DUP3 DUP13 ADD PUSH2 0x3AE4 JUMP JUMPDEST SWAP3 POP POP PUSH2 0x3C1B PUSH1 0xE0 DUP11 ADD PUSH2 0x3B48 JUMP JUMPDEST SWAP1 POP SWAP3 SWAP6 SWAP9 POP SWAP3 SWAP6 SWAP9 SWAP1 SWAP4 SWAP7 POP JUMP JUMPDEST PUSH1 0x0 DUP1 PUSH1 0x40 DUP4 DUP6 SUB SLT ISZERO PUSH2 0x3C3D JUMPI PUSH1 0x0 DUP1 REVERT JUMPDEST DUP3 CALLDATALOAD PUSH2 0x3C48 DUP2 PUSH2 0x3919 JUMP JUMPDEST SWAP2 POP PUSH1 0x20 DUP4 ADD CALLDATALOAD PUSH2 0x3C58 DUP2 PUSH2 0x3919 JUMP JUMPDEST DUP1 SWAP2 POP POP SWAP3 POP SWAP3 SWAP1 POP JUMP JUMPDEST PUSH1 0x1 DUP2 DUP2 SHR SWAP1 DUP3 AND DUP1 PUSH2 0x3C77 JUMPI PUSH1 0x7F DUP3 AND SWAP2 POP JUMPDEST PUSH1 0x20 DUP3 LT DUP2 SUB PUSH2 0x3433 JUMPI PUSH4 0x4E487B71 PUSH1 0xE0 SHL PUSH1 0x0 MSTORE PUSH1 0x22 PUSH1 0x4 MSTORE PUSH1 0x24 PUSH1 0x0 REVERT JUMPDEST PUSH4 0x4E487B71 PUSH1 0xE0 SHL PUSH1 0x0 MSTORE PUSH1 0x11 PUSH1 0x4 MSTORE PUSH1 0x24 PUSH1 0x0 REVERT JUMPDEST DUP1 DUP3 ADD DUP1 DUP3 GT ISZERO PUSH2 0x66C JUMPI PUSH2 0x66C PUSH2 0x3C97 JUMP JUMPDEST DUP1 DUP3 MUL DUP2 ISZERO DUP3 DUP3 DIV DUP5 EQ OR PUSH2 0x66C JUMPI PUSH2 0x66C PUSH2 0x3C97 JUMP JUMPDEST PUSH4 0x4E487B71 PUSH1 0xE0 SHL PUSH1 0x0 MSTORE PUSH1 0x12 PUSH1 0x4 MSTORE PUSH1 0x24 PUSH1 0x0 REVERT JUMPDEST PUSH1 0x0 DUP3 PUSH2 0x3CFC JUMPI PUSH2 0x3CFC PUSH2 0x3CD7 JUMP JUMPDEST POP DIV SWAP1 JUMP JUMPDEST PUSH1 0x1 DUP2 DUP2 JUMPDEST DUP1 DUP6 GT ISZERO PUSH2 0x3D3C JUMPI DUP2 PUSH1 0x0 NOT DIV DUP3 GT ISZERO PUSH2 0x3D22 JUMPI PUSH2 0x3D22 PUSH2 0x3C97 JUMP JUMPDEST DUP1 DUP6 AND ISZERO PUSH2 0x3D2F JUMPI SWAP2 DUP2 MUL SWAP2 JUMPDEST SWAP4 DUP5 SHR SWAP4 SWAP1 DUP1 MUL SWAP1 PUSH2 0x3D06 JUMP JUMPDEST POP SWAP3 POP SWAP3 SWAP1 POP JUMP JUMPDEST PUSH1 0x0 DUP3 PUSH2 0x3D53 JUMPI POP PUSH1 0x1 PUSH2 0x66C JUMP JUMPDEST DUP2 PUSH2 0x3D60 JUMPI POP PUSH1 0x0 PUSH2 0x66C JUMP JUMPDEST DUP2 PUSH1 0x1 DUP2 EQ PUSH2 0x3D76 JUMPI PUSH1 0x2 DUP2 EQ PUSH2 0x3D80 JUMPI PUSH2 0x3D9C JUMP JUMPDEST PUSH1 0x1 SWAP2 POP POP PUSH2 0x66C JUMP JUMPDEST PUSH1 0xFF DUP5 GT ISZERO PUSH2 0x3D91 JUMPI PUSH2 0x3D91 PUSH2 0x3C97 JUMP JUMPDEST POP POP PUSH1 0x1 DUP3 SHL PUSH2 0x66C JUMP JUMPDEST POP PUSH1 0x20 DUP4 LT PUSH2 0x133 DUP4 LT AND PUSH1 0x4E DUP5 LT PUSH1 0xB DUP5 LT AND OR ISZERO PUSH2 0x3DBF JUMPI POP DUP2 DUP2 EXP PUSH2 0x66C JUMP JUMPDEST PUSH2 0x3DC9 DUP4 DUP4 PUSH2 0x3D01 JUMP JUMPDEST DUP1 PUSH1 0x0 NOT DIV DUP3 GT ISZERO PUSH2 0x3DDD JUMPI PUSH2 0x3DDD PUSH2 0x3C97 JUMP JUMPDEST MUL SWAP4 SWAP3 POP POP POP JUMP JUMPDEST PUSH1 0x0 PUSH2 0x71A PUSH1 0xFF DUP5 AND DUP4 PUSH2 0x3D44 JUMP JUMPDEST PUSH1 0x0 PUSH1 0x20 DUP3 DUP5 SUB SLT ISZERO PUSH2 0x3E06 JUMPI PUSH1 0x0 DUP1 REVERT JUMPDEST POP MLOAD SWAP2 SWAP1 POP JUMP JUMPDEST DUP2 MLOAD DUP2 MSTORE PUSH1 0x20 DUP1 DUP4 ADD MLOAD PUSH1 0x1 PUSH1 0x1 PUSH1 0xA0 SHL SUB AND SWAP1 DUP3 ADD MSTORE PUSH1 0x40 DUP1 DUP4 ADD MLOAD PUSH1 0x1 PUSH1 0x1 PUSH1 0x80 SHL SUB SWAP1 DUP2 AND SWAP2 DUP4 ADD SWAP2 SWAP1 SWAP2 MSTORE PUSH1 0x60 SWAP3 DUP4 ADD MLOAD AND SWAP2 DUP2 ADD SWAP2 SWAP1 SWAP2 MSTORE PUSH1 0x80 ADD SWAP1 JUMP JUMPDEST PUSH1 0x0 DUP1 PUSH1 0x40 DUP4 DUP6 SUB SLT ISZERO PUSH2 0x3E63 JUMPI PUSH1 0x0 DUP1 REVERT JUMPDEST POP POP DUP1 MLOAD PUSH1 0x20 SWAP1 SWAP2 ADD MLOAD SWAP1 SWAP3 SWAP1 SWAP2 POP JUMP JUMPDEST DUP2 DUP2 SUB DUP2 DUP2 GT ISZERO PUSH2 0x66C JUMPI PUSH2 0x66C PUSH2 0x3C97 JUMP JUMPDEST PUSH1 0x0 PUSH1 0xC0 DUP3 ADD SWAP1 POP DUP3 MLOAD DUP3 MSTORE PUSH1 0x20 DUP4 ADD MLOAD PUSH1 0x20 DUP4 ADD MSTORE PUSH1 0x40 DUP4 ADD MLOAD PUSH1 0x40 DUP4 ADD MSTORE PUSH1 0x60 DUP4 ADD MLOAD PUSH1 0x60 DUP4 ADD MSTORE PUSH1 0x80 DUP4 ADD MLOAD PUSH1 0x80 DUP4 ADD MSTORE PUSH1 0xA0 DUP4 ADD MLOAD PUSH1 0xA0 DUP4 ADD MSTORE SWAP3 SWAP2 POP POP JUMP JUMPDEST PUSH1 0x0 DUP1 PUSH1 0x0 PUSH1 0x60 DUP5 DUP7 SUB SLT ISZERO PUSH2 0x3EE0 JUMPI PUSH1 0x0 DUP1 REVERT JUMPDEST DUP4 MLOAD PUSH2 0x3EEB DUP2 PUSH2 0x3A60 JUMP JUMPDEST PUSH1 0x20 DUP6 ADD MLOAD PUSH1 0x40 SWAP1 SWAP6 ADD MLOAD SWAP1 SWAP7 SWAP5 SWAP6 POP SWAP4 SWAP3 POP POP POP JUMP JUMPDEST PUSH1 0x1 PUSH1 0x1 PUSH1 0x80 SHL SUB DUP2 DUP2 AND DUP4 DUP3 AND ADD SWAP1 DUP1 DUP3 GT ISZERO PUSH2 0x3F22 JUMPI PUSH2 0x3F22 PUSH2 0x3C97 JUMP JUMPDEST POP SWAP3 SWAP2 POP POP JUMP JUMPDEST PUSH3 0xFFFFFF DUP2 DUP2 AND DUP4 DUP3 AND MUL DUP1 DUP3 AND SWAP2 SWAP1 DUP3 DUP2 EQ PUSH2 0x3F48 JUMPI PUSH2 0x3F48 PUSH2 0x3C97 JUMP JUMPDEST POP POP SWAP3 SWAP2 POP POP JUMP JUMPDEST DUP2 MLOAD PUSH1 0x1 PUSH1 0x1 PUSH1 0xA0 SHL SUB AND DUP2 MSTORE PUSH2 0x160 DUP2 ADD PUSH1 0x20 DUP4 ADD MLOAD PUSH2 0x3F7C PUSH1 0x20 DUP5 ADD DUP3 PUSH1 0x1 PUSH1 0x1 PUSH1 0xA0 SHL SUB AND SWAP1 MSTORE JUMP JUMPDEST POP PUSH1 0x40 DUP4 ADD MLOAD PUSH2 0x3F93 PUSH1 0x40 DUP5 ADD DUP3 PUSH3 0xFFFFFF AND SWAP1 MSTORE JUMP JUMPDEST POP PUSH1 0x60 DUP4 ADD MLOAD PUSH2 0x3FA8 PUSH1 0x60 DUP5 ADD DUP3 PUSH1 0x2 SIGNEXTEND SWAP1 MSTORE JUMP JUMPDEST POP PUSH1 0x80 DUP4 ADD MLOAD PUSH2 0x3FBD PUSH1 0x80 DUP5 ADD DUP3 PUSH1 0x2 SIGNEXTEND SWAP1 MSTORE JUMP JUMPDEST POP PUSH1 0xA0 DUP4 ADD MLOAD PUSH1 0xA0 DUP4 ADD MSTORE PUSH1 0xC0 DUP4 ADD MLOAD PUSH1 0xC0 DUP4 ADD MSTORE PUSH1 0xE0 DUP4 ADD MLOAD PUSH1 0xE0 DUP4 ADD MSTORE PUSH2 0x100 DUP1 DUP5 ADD MLOAD DUP2 DUP5 ADD MSTORE POP PUSH2 0x120 DUP1 DUP5 ADD MLOAD PUSH2 0x4003 DUP3 DUP6 ADD DUP3 PUSH1 0x1 PUSH1 0x1 PUSH1 0xA0 SHL SUB AND SWAP1 MSTORE JUMP JUMPDEST POP POP PUSH2 0x140 SWAP3 DUP4 ADD MLOAD SWAP2 SWAP1 SWAP3 ADD MSTORE SWAP1 JUMP JUMPDEST PUSH1 0x0 DUP1 PUSH1 0x0 DUP1 PUSH1 0x80 DUP6 DUP8 SUB SLT ISZERO PUSH2 0x402A JUMPI PUSH1 0x0 DUP1 REVERT JUMPDEST DUP5 MLOAD SWAP4 POP PUSH1 0x20 DUP6 ADD MLOAD PUSH2 0x403C DUP2 PUSH2 0x3A60 JUMP JUMPDEST PUSH1 0x40 DUP7 ADD MLOAD PUSH1 0x60 SWAP1 SWAP7 ADD MLOAD SWAP5 SWAP8 SWAP1 SWAP7 POP SWAP3 POP POP POP JUMP JUMPDEST PUSH1 0x0 PUSH1 0x20 DUP3 DUP5 SUB SLT ISZERO PUSH2 0x4064 JUMPI PUSH1 0x0 DUP1 REVERT JUMPDEST DUP2 MLOAD PUSH2 0x71A DUP2 PUSH2 0x3919 JUMP JUMPDEST DUP1 MLOAD PUSH1 0x2 DUP2 SWAP1 SIGNEXTEND DUP2 EQ PUSH2 0x3B53 JUMPI PUSH1 0x0 DUP1 REVERT JUMPDEST DUP1 MLOAD PUSH2 0xFFFF DUP2 AND DUP2 EQ PUSH2 0x3B53 JUMPI PUSH1 0x0 DUP1 REVERT JUMPDEST DUP1 MLOAD PUSH1 0xFF DUP2 AND DUP2 EQ PUSH2 0x3B53 JUMPI PUSH1 0x0 DUP1 REVERT JUMPDEST PUSH1 0x0 DUP1 PUSH1 0x0 DUP1 PUSH1 0x0 DUP1 PUSH1 0x0 PUSH1 0xE0 DUP9 DUP11 SUB SLT ISZERO PUSH2 0x40BF JUMPI PUSH1 0x0 DUP1 REVERT JUMPDEST DUP8 MLOAD PUSH2 0x40CA DUP2 PUSH2 0x3919 JUMP JUMPDEST SWAP7 POP PUSH2 0x40D8 PUSH1 0x20 DUP10 ADD PUSH2 0x406F JUMP JUMPDEST SWAP6 POP PUSH2 0x40E6 PUSH1 0x40 DUP10 ADD PUSH2 0x4081 JUMP JUMPDEST SWAP5 POP PUSH2 0x40F4 PUSH1 0x60 DUP10 ADD PUSH2 0x4081 JUMP JUMPDEST SWAP4 POP PUSH2 0x4102 PUSH1 0x80 DUP10 ADD PUSH2 0x4081 JUMP JUMPDEST SWAP3 POP PUSH2 0x4110 PUSH1 0xA0 DUP10 ADD PUSH2 0x4093 JUMP JUMPDEST SWAP2 POP PUSH1 0xC0 DUP9 ADD MLOAD PUSH2 0x4120 DUP2 PUSH2 0x3B3A JUMP JUMPDEST DUP1 SWAP2 POP POP SWAP3 SWAP6 SWAP9 SWAP2 SWAP5 SWAP8 POP SWAP3 SWAP6 POP JUMP JUMPDEST PUSH1 0x0 PUSH1 0x20 DUP3 DUP5 SUB SLT ISZERO PUSH2 0x4142 JUMPI PUSH1 0x0 DUP1 REVERT JUMPDEST PUSH2 0x71A DUP3 PUSH2 0x4093 JUMP JUMPDEST PUSH1 0x0 PUSH1 0x20 DUP3 DUP5 SUB SLT ISZERO PUSH2 0x415D JUMPI PUSH1 0x0 DUP1 REVERT JUMPDEST DUP2 MLOAD PUSH8 0xFFFFFFFFFFFFFFFF DUP2 GT ISZERO PUSH2 0x4174 JUMPI PUSH1 0x0 DUP1 REVERT JUMPDEST DUP3 ADD PUSH1 0x1F DUP2 ADD DUP5 SGT PUSH2 0x4185 JUMPI PUSH1 0x0 DUP1 REVERT JUMPDEST DUP1 MLOAD PUSH2 0x4193 PUSH2 0x3B03 DUP3 PUSH2 0x3ABC JUMP JUMPDEST DUP2 DUP2 MSTORE DUP6 PUSH1 0x20 DUP4 DUP6 ADD ADD GT ISZERO PUSH2 0x41A8 JUMPI PUSH1 0x0 DUP1 REVERT JUMPDEST PUSH2 0x41B9 DUP3 PUSH1 0x20 DUP4 ADD PUSH1 0x20 DUP7 ADD PUSH2 0x38C2 JUMP JUMPDEST SWAP6 SWAP5 POP POP POP POP POP JUMP JUMPDEST PUSH1 0x0 PUSH1 0x20 DUP3 DUP5 SUB SLT ISZERO PUSH2 0x41D4 JUMPI PUSH1 0x0 DUP1 REVERT JUMPDEST PUSH2 0x71A DUP3 PUSH2 0x406F JUMP JUMPDEST PUSH1 0x2 DUP2 DUP2 SIGNEXTEND SWAP1 DUP4 SWAP1 SIGNEXTEND ADD PUSH3 0x7FFFFF DUP2 SGT PUSH3 0x7FFFFF NOT DUP3 SLT OR ISZERO PUSH2 0x66C JUMPI PUSH2 0x66C PUSH2 0x3C97 JUMP JUMPDEST PUSH1 0x0 DUP2 PUSH1 0x2 SIGNEXTEND DUP4 PUSH1 0x2 SIGNEXTEND DUP1 PUSH2 0x4219 JUMPI PUSH2 0x4219 PUSH2 0x3CD7 JUMP JUMPDEST PUSH3 0x7FFFFF NOT DUP3 EQ PUSH1 0x0 NOT DUP3 EQ AND ISZERO PUSH2 0x4233 JUMPI PUSH2 0x4233 PUSH2 0x3C97 JUMP JUMPDEST SWAP1 SDIV SWAP4 SWAP3 POP POP POP JUMP JUMPDEST PUSH1 0x0 DUP3 PUSH1 0x2 SIGNEXTEND DUP1 PUSH2 0x424F JUMPI PUSH2 0x424F PUSH2 0x3CD7 JUMP JUMPDEST DUP1 DUP4 PUSH1 0x2 SIGNEXTEND SMOD SWAP2 POP POP SWAP3 SWAP2 POP POP JUMP JUMPDEST PUSH1 0x2 DUP3 DUP2 SIGNEXTEND SWAP1 DUP3 SWAP1 SIGNEXTEND SUB PUSH3 0x7FFFFF NOT DUP2 SLT PUSH3 0x7FFFFF DUP3 SGT OR ISZERO PUSH2 0x66C JUMPI PUSH2 0x66C PUSH2 0x3C97 JUMP JUMPDEST PUSH7 0x2A34B1B5B2B91 PUSH1 0xCD SHL DUP2 MSTORE PUSH1 0x0 DUP6 MLOAD PUSH2 0x42A5 DUP2 PUSH1 0x7 DUP6 ADD PUSH1 0x20 DUP11 ADD PUSH2 0x38C2 JUMP JUMPDEST DUP1 DUP4 ADD SWAP1 POP PUSH1 0x1 PUSH1 0xFD SHL DUP1 PUSH1 0x7 DUP4 ADD MSTORE DUP7 MLOAD PUSH2 0x42C8 DUP2 PUSH1 0x8 DUP6 ADD PUSH1 0x20 DUP12 ADD PUSH2 0x38C2 JUMP JUMPDEST PUSH1 0x8 SWAP3 ADD SWAP2 DUP3 ADD MSTORE DUP5 MLOAD PUSH2 0x42E3 DUP2 PUSH1 0x9 DUP5 ADD PUSH1 0x20 DUP10 ADD PUSH2 0x38C2 JUMP JUMPDEST PUSH1 0x2D PUSH1 0xF8 SHL PUSH1 0x9 SWAP3 SWAP1 SWAP2 ADD SWAP2 DUP3 ADD MSTORE DUP4 MLOAD PUSH2 0x4305 DUP2 PUSH1 0xA DUP5 ADD PUSH1 0x20 DUP9 ADD PUSH2 0x38C2 JUMP JUMPDEST ADD PUSH1 0xA ADD SWAP7 SWAP6 POP POP POP POP POP POP JUMP JUMPDEST PUSH1 0x1F DUP3 GT ISZERO PUSH2 0x3027 JUMPI PUSH1 0x0 DUP2 DUP2 MSTORE PUSH1 0x20 DUP2 KECCAK256 PUSH1 0x1F DUP6 ADD PUSH1 0x5 SHR DUP2 ADD PUSH1 0x20 DUP7 LT ISZERO PUSH2 0x433A JUMPI POP DUP1 JUMPDEST PUSH1 0x1F DUP6 ADD PUSH1 0x5 SHR DUP3 ADD SWAP2 POP JUMPDEST DUP2 DUP2 LT ISZERO PUSH2 0x4359 JUMPI DUP3 DUP2 SSTORE PUSH1 0x1 ADD PUSH2 0x4346 JUMP JUMPDEST POP POP POP POP POP POP JUMP JUMPDEST DUP2 MLOAD PUSH8 0xFFFFFFFFFFFFFFFF DUP2 GT ISZERO PUSH2 0x437B JUMPI PUSH2 0x437B PUSH2 0x3A75 JUMP JUMPDEST PUSH2 0x438F DUP2 PUSH2 0x4389 DUP5 SLOAD PUSH2 0x3C63 JUMP JUMPDEST DUP5 PUSH2 0x4313 JUMP JUMPDEST PUSH1 0x20 DUP1 PUSH1 0x1F DUP4 GT PUSH1 0x1 DUP2 EQ PUSH2 0x43C4 JUMPI PUSH1 0x0 DUP5 ISZERO PUSH2 0x43AC JUMPI POP DUP6 DUP4 ADD MLOAD JUMPDEST PUSH1 0x0 NOT PUSH1 0x3 DUP7 SWAP1 SHL SHR NOT AND PUSH1 0x1 DUP6 SWAP1 SHL OR DUP6 SSTORE PUSH2 0x4359 JUMP JUMPDEST PUSH1 0x0 DUP6 DUP2 MSTORE PUSH1 0x20 DUP2 KECCAK256 PUSH1 0x1F NOT DUP7 AND SWAP2 JUMPDEST DUP3 DUP2 LT ISZERO PUSH2 0x43F3 JUMPI DUP9 DUP7 ADD MLOAD DUP3 SSTORE SWAP5 DUP5 ADD SWAP5 PUSH1 0x1 SWAP1 SWAP2 ADD SWAP1 DUP5 ADD PUSH2 0x43D4 JUMP JUMPDEST POP DUP6 DUP3 LT ISZERO PUSH2 0x4411 JUMPI DUP8 DUP6 ADD MLOAD PUSH1 0x0 NOT PUSH1 0x3 DUP9 SWAP1 SHL PUSH1 0xF8 AND SHR NOT AND DUP2 SSTORE JUMPDEST POP POP POP POP POP PUSH1 0x1 SWAP1 DUP2 SHL ADD SWAP1 SSTORE POP JUMP JUMPDEST PUSH2 0x542D PUSH1 0xF0 SHL DUP2 MSTORE PUSH1 0x0 DUP6 MLOAD PUSH2 0x443E DUP2 PUSH1 0x2 DUP6 ADD PUSH1 0x20 DUP11 ADD PUSH2 0x38C2 JUMP JUMPDEST PUSH1 0x5F PUSH1 0xF8 SHL PUSH1 0x2 SWAP2 DUP5 ADD SWAP2 DUP3 ADD MSTORE DUP6 MLOAD PUSH2 0x445F DUP2 PUSH1 0x3 DUP5 ADD PUSH1 0x20 DUP11 ADD PUSH2 0x38C2 JUMP JUMPDEST DUP1 DUP3 ADD SWAP2 POP POP PUSH1 0x2D PUSH1 0xF8 SHL DUP1 PUSH1 0x3 DUP4 ADD MSTORE DUP6 MLOAD PUSH2 0x4483 DUP2 PUSH1 0x4 DUP6 ADD PUSH1 0x20 DUP11 ADD PUSH2 0x38C2 JUMP JUMPDEST PUSH1 0x4 SWAP3 ADD SWAP2 DUP3 ADD MSTORE DUP4 MLOAD PUSH2 0x449E DUP2 PUSH1 0x5 DUP5 ADD PUSH1 0x20 DUP9 ADD PUSH2 0x38C2 JUMP JUMPDEST ADD PUSH1 0x5 ADD SWAP7 SWAP6 POP POP POP POP POP POP JUMP JUMPDEST PUSH7 0x2930B733B2B91 PUSH1 0xCD SHL DUP2 MSTORE PUSH1 0x0 DUP6 MLOAD PUSH2 0x42A5 DUP2 PUSH1 0x7 DUP6 ADD PUSH1 0x20 DUP11 ADD PUSH2 0x38C2 JUMP JUMPDEST PUSH2 0x522D PUSH1 0xF0 SHL DUP2 MSTORE PUSH1 0x0 DUP6 MLOAD PUSH2 0x443E DUP2 PUSH1 0x2 DUP6 ADD PUSH1 0x20 DUP11 ADD PUSH2 0x38C2 JUMP JUMPDEST PUSH1 0x0 PUSH1 0x20 DUP3 DUP5 SUB SLT ISZERO PUSH2 0x44FD JUMPI PUSH1 0x0 DUP1 REVERT JUMPDEST DUP2 MLOAD PUSH2 0x71A DUP2 PUSH2 0x3B3A JUMP JUMPDEST PUSH1 0x1 PUSH1 0x1 PUSH1 0xA0 SHL SUB DUP3 DUP2 AND DUP3 DUP3 AND SUB SWAP1 DUP1 DUP3 GT ISZERO PUSH2 0x3F22 JUMPI PUSH2 0x3F22 PUSH2 0x3C97 JUMP JUMPDEST PUSH1 0x0 DUP3 MLOAD PUSH2 0x453A DUP2 DUP5 PUSH1 0x20 DUP8 ADD PUSH2 0x38C2 JUMP JUMPDEST SWAP2 SWAP1 SWAP2 ADD SWAP3 SWAP2 POP POP JUMP INVALID STOP STOP STOP STOP STOP STOP STOP STOP STOP STOP STOP STOP 0xC3 PUSH5 0x42B4A4522E DUP8 SGT SWAP10 0xCD PUSH18 0x7ABDD847AB11FE88A2646970667358221220 0xAF 0xD0 SWAP9 DIFFICULTY BASEFEE 0xD1 SWAP16 SLOAD DUP5 0xD4 0xA6 0x2C LOG0 SWAP12 MLOAD SWAP6 PUSH31 0x4858D8FB22109859465BEBD27A6C8B64736F6C634300081500330000000000 ",
  "sha1": "3b25ceb244d6a81c52dfcd483af1c6e77880d360",
  "source": "// SPDX-License-Identifier: UNLICENSED\npragma solidity 0.8;\n\nimport \"../interfaces/INonfungiblePositionManager.sol\";\nimport \"../interfaces/IUniswapV3Factory.sol\";\nimport \"../interfaces/IUniswapV3Pool.sol\";\nimport \"./openzeppelin-solidity/contracts/token/ERC20/ERC20.sol\";\nimport \"./openzeppelin-solidity/contracts/token/ERC20/utils/SafeERC20.sol\";\nimport \"./openzeppelin-solidity/contracts/utils/Strings.sol\";\nimport \"./openzeppelin-solidity/contracts/security/ReentrancyGuard.sol\";\nimport \"./lib/LiquidityAmounts.sol\";\nimport \"./lib/TickMath.sol\";\nimport \"../interfaces/IAaveOracle.sol\";\nimport \"../interfaces/IAaveOracle.sol\";\n\n/// @notice Tokenize a Uniswap V3 NFT position\ncontract TokenisableRange is ERC20(\"\", \"\"), ReentrancyGuard {\n    using SafeERC20 for ERC20;\n    /// EVENTS\n    event InitTR(\n        address asset0,\n        address asset1,\n        uint128 startX10,\n        uint128 endX10\n    );\n    event Deposit(address sender, uint trAmount);\n    event Withdraw(address sender, uint trAmount);\n    event ClaimFees(uint fee0, uint fee1);\n\n    /// VARIABLES\n\n    int24 public lowerTick;\n    int24 public upperTick;\n    uint24 public feeTier;\n\n    uint256 public tokenId;\n    uint256 public fee0;\n    uint256 public fee1;\n\n    struct ASSET {\n        ERC20 token;\n        uint8 decimals;\n    }\n\n    ASSET public TOKEN0;\n    ASSET public TOKEN1;\n    IAaveOracle public ORACLE;\n\n    string _name;\n    string _symbol;\n\n    enum ProxyState {\n        INIT_PROXY,\n        INIT_LP,\n        READY\n    }\n    ProxyState public status;\n    address private creator;\n\n    uint128 public liquidity;\n    // @notice deprecated, keep to avoid beacon storage slot overwriting errors\n    address public TREASURY_DEPRECATED =\n        0x22Cc3f665ba4C898226353B672c5123c58751692;\n    uint public treasuryFee_deprecated = 20;\n\n    // These are constant across chains - https://docs.uniswap.org/protocol/reference/deployments\n    INonfungiblePositionManager public constant POS_MGR =\n        INonfungiblePositionManager(0xC36442b4a4522E871399CD717aBDD847Ab11FE88);\n    IUniswapV3Factory public constant V3_FACTORY =\n        IUniswapV3Factory(0x1F98431c8aD98523631AE4a59f267346ea31F984);\n    address public constant treasury =\n        0x22Cc3f665ba4C898226353B672c5123c58751692;\n    uint public constant treasuryFee = 20;\n\n    /// @notice Babylonian method for sqrt\n    /// @param x sqrt parameter\n    /// @return y Square root\n    function sqrt(uint x) internal pure returns (uint y) {\n        uint z = (x + 1) / 2;\n        y = x;\n        while (z < y) {\n            y = z;\n            z = (x / z + z) / 2;\n        }\n    }\n\n    /// @notice Store range parameters\n    /// @param _oracle Address of the IAaveOracle interface of the ROE lending pool\n    /// @param asset0 Quote token address\n    /// @param asset1 Base token address\n    /// @param startX10 Range lower price scaled by 1e10\n    /// @param endX10 Range high price scaled by 1e10\n    /// @param startName Name of the range lower bound\n    /// @param endName Name of the range higher bound\n    /// @param isTicker Range is single tick liquidity around upperTick/startX10/startName\n    function initProxy(\n        IAaveOracle _oracle,\n        ERC20 asset0,\n        ERC20 asset1,\n        uint128 startX10,\n        uint128 endX10,\n        string memory startName,\n        string memory endName,\n        bool isTicker\n    ) external {\n        require(address(_oracle) != address(0x0), \"Invalid oracle\");\n        require(status == ProxyState.INIT_PROXY, \"!InitProxy\");\n        creator = msg.sender;\n        status = ProxyState.INIT_LP;\n        ORACLE = _oracle;\n\n        TOKEN0.token = asset0;\n        TOKEN0.decimals = asset0.decimals();\n        TOKEN1.token = asset1;\n        TOKEN1.decimals = asset1.decimals();\n        string memory quoteSymbol = asset0.symbol();\n        string memory baseSymbol = asset1.symbol();\n\n        int24 _upperTick = TickMath.getTickAtSqrtRatio(\n            uint160(\n                2 ** 48 *\n                    sqrt(\n                        ((2 ** 96 * (10 ** TOKEN1.decimals)) * 1e10) /\n                            (uint256(startX10) * 10 ** TOKEN0.decimals)\n                    )\n            )\n        );\n        int24 _lowerTick = TickMath.getTickAtSqrtRatio(\n            uint160(\n                2 ** 48 *\n                    sqrt(\n                        ((2 ** 96 * (10 ** TOKEN1.decimals)) * 1e10) /\n                            (uint256(endX10) * 10 ** TOKEN0.decimals)\n                    )\n            )\n        );\n\n        if (isTicker) {\n            feeTier = 5;\n            int24 midleTick;\n            midleTick = (_upperTick + _lowerTick) / 2;\n            _upperTick =\n                (midleTick + int24(feeTier)) -\n                ((midleTick + int24(feeTier)) % int24(feeTier * 2));\n            _lowerTick = _upperTick - int24(feeTier) - int24(feeTier);\n            _name = string(\n                abi.encodePacked(\n                    \"Ticker \",\n                    baseSymbol,\n                    \" \",\n                    quoteSymbol,\n                    \" \",\n                    startName,\n                    \"-\",\n                    endName\n                )\n            );\n            _symbol = string(\n                abi.encodePacked(\n                    \"T-\",\n                    startName,\n                    \"_\",\n                    endName,\n                    \"-\",\n                    baseSymbol,\n                    \"-\",\n                    quoteSymbol\n                )\n            );\n        } else {\n            feeTier = 5;\n            _lowerTick =\n                (_lowerTick + int24(feeTier)) -\n                ((_lowerTick + int24(feeTier)) % int24(feeTier * 2));\n            _upperTick =\n                (_upperTick + int24(feeTier)) -\n                ((_upperTick + int24(feeTier)) % int24(feeTier * 2));\n            _name = string(\n                abi.encodePacked(\n                    \"Ranger \",\n                    baseSymbol,\n                    \" \",\n                    quoteSymbol,\n                    \" \",\n                    startName,\n                    \"-\",\n                    endName\n                )\n            );\n            _symbol = string(\n                abi.encodePacked(\n                    \"R-\",\n                    startName,\n                    \"_\",\n                    endName,\n                    \"-\",\n                    baseSymbol,\n                    \"-\",\n                    quoteSymbol\n                )\n            );\n        }\n        lowerTick = _lowerTick;\n        upperTick = _upperTick;\n        emit InitTR(address(asset0), address(asset1), startX10, endX10);\n    }\n\n    /// @notice Get the name of this contract token\n    /// @dev Override name, symbol and decimals from ERC20 inheritance\n    function name() public view virtual override returns (string memory) {\n        return _name;\n    }\n\n    /// @notice Get the symbol of this contract token\n    function symbol() public view virtual override returns (string memory) {\n        return _symbol;\n    }\n\n    /// @notice Initialize a TokenizableRange by adding assets in the underlying Uniswap V3 position\n    /// @param n0 Amount of quote token added\n    /// @param n1 Amount of base token added\n    /// @notice The token amounts must be 95% correct or this will fail the Uniswap slippage check\n    function init(uint n0, uint n1) external {\n        require(status == ProxyState.INIT_LP, \"!InitLP\");\n        require(msg.sender == creator, \"Unallowed call\");\n        status = ProxyState.READY;\n        TOKEN0.token.safeTransferFrom(msg.sender, address(this), n0);\n        TOKEN1.token.safeTransferFrom(msg.sender, address(this), n1);\n        TOKEN0.token.safeIncreaseAllowance(address(POS_MGR), n0);\n        TOKEN1.token.safeIncreaseAllowance(address(POS_MGR), n1);\n        (tokenId, liquidity, , ) = POS_MGR.mint(\n            INonfungiblePositionManager.MintParams({\n                token0: address(TOKEN0.token),\n                token1: address(TOKEN1.token),\n                fee: feeTier * 100,\n                tickLower: lowerTick,\n                tickUpper: upperTick,\n                amount0Desired: n0,\n                amount1Desired: n1,\n                amount0Min: (n0 * 95) / 100,\n                amount1Min: (n1 * 95) / 100,\n                recipient: address(this),\n                deadline: block.timestamp\n            })\n        );\n\n        // Transfer remaining assets back to user\n        TOKEN0.token.safeTransfer(\n            msg.sender,\n            TOKEN0.token.balanceOf(address(this))\n        );\n        TOKEN1.token.safeTransfer(\n            msg.sender,\n            TOKEN1.token.balanceOf(address(this))\n        );\n        _mint(msg.sender, 1e18);\n        emit Deposit(msg.sender, 1e18);\n    }\n\n    /// @notice Claim the accumulated Uniswap V3 trading fees\n    function claimFee() public {\n        (uint256 newFee0, uint256 newFee1) = POS_MGR.collect(\n            INonfungiblePositionManager.CollectParams({\n                tokenId: tokenId,\n                recipient: address(this),\n                amount0Max: type(uint128).max,\n                amount1Max: type(uint128).max\n            })\n        );\n        // If there's no new fees generated, skip compounding logic;\n        if ((newFee0 == 0) && (newFee1 == 0)) return;\n        uint tf0 = (newFee0 * treasuryFee) / 100;\n        uint tf1 = (newFee1 * treasuryFee) / 100;\n        if (tf0 > 0) TOKEN0.token.safeTransfer(treasury, tf0);\n        if (tf1 > 0) TOKEN1.token.safeTransfer(treasury, tf1);\n\n        fee0 = fee0 + newFee0 - tf0;\n        fee1 = fee1 + newFee1 - tf1;\n\n        // Calculate expected balance,\n        (uint256 bal0, uint256 bal1) = returnExpectedBalanceWithoutFees(0, 0);\n\n        // If accumulated more than 1% worth of fees, compound by adding fees to Uniswap position\n        if ((fee0 * 100 > bal0) && (fee1 * 100 > bal1)) {\n            TOKEN0.token.safeIncreaseAllowance(address(POS_MGR), fee0);\n            TOKEN1.token.safeIncreaseAllowance(address(POS_MGR), fee1);\n            (uint128 newLiquidity, uint256 added0, uint256 added1) = POS_MGR\n                .increaseLiquidity(\n                    INonfungiblePositionManager.IncreaseLiquidityParams({\n                        tokenId: tokenId,\n                        amount0Desired: fee0,\n                        amount1Desired: fee1,\n                        amount0Min: 0,\n                        amount1Min: 0,\n                        deadline: block.timestamp\n                    })\n                );\n            // check slippage: validate against value since token amounts can move widely\n            uint token0Price = ORACLE.getAssetPrice(address(TOKEN0.token));\n            uint token1Price = ORACLE.getAssetPrice(address(TOKEN1.token));\n            uint addedValue = (added0 * token0Price) /\n                10 ** TOKEN0.decimals +\n                (added1 * token1Price) /\n                10 ** TOKEN1.decimals;\n            uint totalValue = (bal0 * token0Price) /\n                10 ** TOKEN0.decimals +\n                (bal1 * token1Price) /\n                10 ** TOKEN1.decimals;\n            uint liquidityValue = (totalValue * newLiquidity) / liquidity;\n            require(\n                addedValue > (liquidityValue * 95) / 100 &&\n                    liquidityValue > (addedValue * 95) / 100,\n                \"TR: Claim Fee Slippage\"\n            );\n            fee0 -= added0;\n            fee1 -= added1;\n            liquidity = liquidity + newLiquidity;\n        }\n        emit ClaimFees(newFee0, newFee1);\n    }\n\n    /// @notice Deposit assets into the range\n    /// @param n0 Amount of quote asset\n    /// @param n1 Amount of base asset\n    /// @return lpAmt Amount of LP tokens created\n    function deposit(\n        uint256 n0,\n        uint256 n1\n    ) external nonReentrant returns (uint256 lpAmt) {\n        // Once all assets were withdrawn after initialisation, this is considered closed\n        // Prevents TR oracle values from being too manipulatable by emptying the range and redepositing\n        require(totalSupply() > 0, \"TR Closed\");\n\n        claimFee();\n        TOKEN0.token.transferFrom(msg.sender, address(this), n0);\n        TOKEN1.token.transferFrom(msg.sender, address(this), n1);\n\n        uint newFee0;\n        uint newFee1;\n        // Calculate proportion of deposit that goes to pending fee pool, useful to deposit exact amount of liquidity and fully repay a position\n        // Cannot repay only one side, if fees are both 0, or if one side is missing, skip adding fees here\n        // if ( fee0+fee1 == 0 || (n0 == 0 && fee0 > 0) || (n1 == 0 && fee1 > 0) ) skip\n        // DeMorgan: !( (n0 == 0 && fee0 > 0) || (n1 == 0 && fee1 > 0) ) = !(n0 == 0 && fee0 > 0) && !(n0 == 0 && fee1 > 0)\n        if (fee0 + fee1 > 0 && (n0 > 0 || fee0 == 0) && (n1 > 0 || fee1 == 0)) {\n            address pool = V3_FACTORY.getPool(\n                address(TOKEN0.token),\n                address(TOKEN1.token),\n                feeTier * 100\n            );\n            (uint160 sqrtPriceX96, , , , , , ) = IUniswapV3Pool(pool).slot0();\n            (uint256 token0Amount, uint256 token1Amount) = LiquidityAmounts\n                .getAmountsForLiquidity(\n                    sqrtPriceX96,\n                    TickMath.getSqrtRatioAtTick(lowerTick),\n                    TickMath.getSqrtRatioAtTick(upperTick),\n                    liquidity\n                );\n            if (token0Amount + fee0 > 0)\n                newFee0 = (n0 * fee0) / (token0Amount + fee0);\n            if (token1Amount + fee1 > 0)\n                newFee1 = (n1 * fee1) / (token1Amount + fee1);\n            fee0 += newFee0;\n            fee1 += newFee1;\n            n0 -= newFee0;\n            n1 -= newFee1;\n        }\n\n        TOKEN0.token.safeIncreaseAllowance(address(POS_MGR), n0);\n        TOKEN1.token.safeIncreaseAllowance(address(POS_MGR), n1);\n\n        // New liquidity is indeed the amount of liquidity added, not the total, despite being unclear in Uniswap doc\n        (uint128 newLiquidity, uint256 added0, uint256 added1) = POS_MGR\n            .increaseLiquidity(\n                INonfungiblePositionManager.IncreaseLiquidityParams({\n                    tokenId: tokenId,\n                    amount0Desired: n0,\n                    amount1Desired: n1,\n                    amount0Min: (n0 * 95) / 100,\n                    amount1Min: (n1 * 95) / 100,\n                    deadline: block.timestamp\n                })\n            );\n\n        uint256 feeLiquidity;\n\n        // Stack too deep, so localising some variables for feeLiquidity calculations\n        // If we already clawed back fees earlier, do nothing, else we need to adjust returned liquidity\n        if (newFee0 == 0 && newFee1 == 0) {\n            uint256 TOKEN0_PRICE = ORACLE.getAssetPrice(address(TOKEN0.token));\n            uint256 TOKEN1_PRICE = ORACLE.getAssetPrice(address(TOKEN1.token));\n            require(\n                TOKEN0_PRICE > 0 && TOKEN1_PRICE > 0,\n                \"Invalid Oracle Price\"\n            );\n            // Calculate the equivalent liquidity amount of the non-yet compounded fees\n            // Assume linearity for liquidity in same tick range; calculate feeLiquidity equivalent and consider it part of base liquidity\n            feeLiquidity =\n                (newLiquidity *\n                    (((fee0 * TOKEN0_PRICE) / 10 ** TOKEN0.decimals) +\n                        ((fee1 * TOKEN1_PRICE) / 10 ** TOKEN1.decimals))) /\n                (((added0 * TOKEN0_PRICE) / 10 ** TOKEN0.decimals) +\n                    ((added1 * TOKEN1_PRICE) / 10 ** TOKEN1.decimals));\n        }\n\n        lpAmt = (totalSupply() * newLiquidity) / (liquidity + feeLiquidity);\n        liquidity = liquidity + newLiquidity;\n\n        _mint(msg.sender, lpAmt);\n        TOKEN0.token.safeTransfer(msg.sender, n0 - added0);\n        TOKEN1.token.safeTransfer(msg.sender, n1 - added1);\n        emit Deposit(msg.sender, lpAmt);\n    }\n\n    /// @notice Withdraw assets from a range\n    /// @param lp Amount of tokens withdrawn\n    /// @param amount0Min Minimum amount of quote token withdrawn\n    /// @param amount1Min Minimum amount of base token withdrawn\n    function withdraw(\n        uint256 lp,\n        uint256 amount0Min,\n        uint256 amount1Min\n    ) external nonReentrant returns (uint256 removed0, uint256 removed1) {\n        claimFee();\n        uint removedLiquidity = (uint(liquidity) * lp) / totalSupply();\n        (removed0, removed1) = POS_MGR.decreaseLiquidity(\n            INonfungiblePositionManager.DecreaseLiquidityParams({\n                tokenId: tokenId,\n                liquidity: uint128(removedLiquidity),\n                amount0Min: amount0Min,\n                amount1Min: amount1Min,\n                deadline: block.timestamp\n            })\n        );\n        liquidity = uint128(uint256(liquidity) - removedLiquidity);\n\n        POS_MGR.collect(\n            INonfungiblePositionManager.CollectParams({\n                tokenId: tokenId,\n                recipient: msg.sender,\n                amount0Max: uint128(removed0),\n                amount1Max: uint128(removed1)\n            })\n        );\n        // Handle uncompounded fees\n        if (fee0 > 0) {\n            TOKEN0.token.safeTransfer(msg.sender, (fee0 * lp) / totalSupply());\n            removed0 += (fee0 * lp) / totalSupply();\n            fee0 -= (fee0 * lp) / totalSupply();\n        }\n        if (fee1 > 0) {\n            TOKEN1.token.safeTransfer(msg.sender, (fee1 * lp) / totalSupply());\n            removed1 += (fee1 * lp) / totalSupply();\n            fee1 -= (fee1 * lp) / totalSupply();\n        }\n        _burn(msg.sender, lp);\n        emit Withdraw(msg.sender, lp);\n    }\n\n    /// @notice Calculate the balance of underlying assets based on the assets price\n    /// @param TOKEN0_PRICE Base token price\n    /// @param TOKEN1_PRICE Quote token price\n    function returnExpectedBalanceWithoutFees(\n        uint TOKEN0_PRICE,\n        uint TOKEN1_PRICE\n    ) internal view returns (uint256 amt0, uint256 amt1) {\n        // if 0 get price from oracle\n        if (TOKEN0_PRICE == 0)\n            TOKEN0_PRICE = ORACLE.getAssetPrice(address(TOKEN0.token));\n        if (TOKEN1_PRICE == 0)\n            TOKEN1_PRICE = ORACLE.getAssetPrice(address(TOKEN1.token));\n\n        (amt0, amt1) = LiquidityAmounts.getAmountsForLiquidity(\n            uint160(\n                sqrt(\n                    (2 ** 192 *\n                        ((TOKEN0_PRICE * 10 ** TOKEN1.decimals) /\n                            TOKEN1_PRICE)) / (10 ** TOKEN0.decimals)\n                )\n            ),\n            TickMath.getSqrtRatioAtTick(lowerTick),\n            TickMath.getSqrtRatioAtTick(upperTick),\n            liquidity\n        );\n    }\n\n    /// @notice Calculate the balance of underlying assets based on the assets price, excluding fees\n    function returnExpectedBalance(\n        uint TOKEN0_PRICE,\n        uint TOKEN1_PRICE\n    ) public view returns (uint256 amt0, uint256 amt1) {\n        (amt0, amt1) = returnExpectedBalanceWithoutFees(\n            TOKEN0_PRICE,\n            TOKEN1_PRICE\n        );\n        amt0 += fee0;\n        amt1 += fee1;\n    }\n\n    /// @notice Return the price of LP tokens based on the underlying assets price\n    /// @param TOKEN0_PRICE Base token price\n    /// @param TOKEN1_PRICE Quote token price\n    function getValuePerLPAtPrice(\n        uint TOKEN0_PRICE,\n        uint TOKEN1_PRICE\n    ) public view returns (uint256 priceX1e8) {\n        if (totalSupply() == 0) return 0;\n        (uint256 amt0, uint256 amt1) = returnExpectedBalance(\n            TOKEN0_PRICE,\n            TOKEN1_PRICE\n        );\n        uint totalValue = (TOKEN0_PRICE * amt0) /\n            (10 ** TOKEN0.decimals) +\n            (amt1 * TOKEN1_PRICE) /\n            (10 ** TOKEN1.decimals);\n        return (totalValue * 1e18) / totalSupply();\n    }\n\n    /// @notice Return the price of the LP token\n    function latestAnswer() public view returns (uint256 priceX1e8) {\n        return\n            getValuePerLPAtPrice(\n                ORACLE.getAssetPrice(address(TOKEN0.token)),\n                ORACLE.getAssetPrice(address(TOKEN1.token))\n            );\n    }\n\n    /// @notice Return the underlying tokens amounts for a given TR balance excluding the fees\n    /// @param amount Amount of tokens we want the underlying amounts for\n    function getTokenAmountsExcludingFees(\n        uint amount\n    ) public view returns (uint token0Amount, uint token1Amount) {\n        address pool = V3_FACTORY.getPool(\n            address(TOKEN0.token),\n            address(TOKEN1.token),\n            feeTier * 100\n        );\n        (uint160 sqrtPriceX96, , , , , , ) = IUniswapV3Pool(pool).slot0();\n        (token0Amount, token1Amount) = LiquidityAmounts.getAmountsForLiquidity(\n            sqrtPriceX96,\n            TickMath.getSqrtRatioAtTick(lowerTick),\n            TickMath.getSqrtRatioAtTick(upperTick),\n            uint128((uint(liquidity) * amount) / totalSupply())\n        );\n    }\n\n    /// @notice Return the underlying tokens amounts for a given TR balance\n    /// @param amount Amount of tokens we want the underlying amounts for\n    function getTokenAmounts(\n        uint amount\n    ) external view returns (uint token0Amount, uint token1Amount) {\n        (token0Amount, token1Amount) = getTokenAmountsExcludingFees(amount);\n        token0Amount += (fee0 * amount) / totalSupply();\n        token1Amount += (fee1 * amount) / totalSupply();\n    }\n}\n",
  "sourcePath": "contracts/TokenisableRange.sol",
  "type": "contract"
}