{
  "abi": [
    {
      "anonymous": false,
      "inputs": [
        {
          "indexed": false,
          "internalType": "address",
          "name": "previousAdmin",
          "type": "address"
        },
        {
          "indexed": false,
          "internalType": "address",
          "name": "newAdmin",
          "type": "address"
        }
      ],
      "name": "AdminChanged",
      "type": "event"
    },
    {
      "anonymous": false,
      "inputs": [
        {
          "indexed": true,
          "internalType": "address",
          "name": "beacon",
          "type": "address"
        }
      ],
      "name": "BeaconUpgraded",
      "type": "event"
    },
    {
      "anonymous": false,
      "inputs": [
        {
          "indexed": true,
          "internalType": "address",
          "name": "implementation",
          "type": "address"
        }
      ],
      "name": "Upgraded",
      "type": "event"
    },
    {
      "inputs": [],
      "name": "current",
      "outputs": [
        {
          "internalType": "uint256",
          "name": "",
          "type": "uint256"
        }
      ],
      "stateMutability": "view",
      "type": "function"
    },
    {
      "inputs": [],
      "name": "decrement",
      "outputs": [],
      "stateMutability": "nonpayable",
      "type": "function"
    },
    {
      "inputs": [],
      "name": "increment",
      "outputs": [],
      "stateMutability": "nonpayable",
      "type": "function"
    },
    {
      "inputs": [],
      "name": "reset",
      "outputs": [],
      "stateMutability": "nonpayable",
      "type": "function"
    },
    {
      "inputs": [
        {
          "internalType": "address",
          "name": "newImplementation",
          "type": "address"
        }
      ],
      "name": "upgradeTo",
      "outputs": [],
      "stateMutability": "nonpayable",
      "type": "function"
    },
    {
      "inputs": [
        {
          "internalType": "address",
          "name": "newImplementation",
          "type": "address"
        },
        {
          "internalType": "bytes",
          "name": "data",
          "type": "bytes"
        }
      ],
      "name": "upgradeToAndCall",
      "outputs": [],
      "stateMutability": "payable",
      "type": "function"
    }
  ],
  "bytecode": "60a06040523060805234801561001457600080fd5b506080516105d861002d600039600050506105d86000f3fe6080604052600436106100555760003560e01c80632baeceb71461005a5780633659cfe6146100715780634f1ef286146100915780639fa6a6e3146100a4578063d09de08a146100c6578063d826f88f146100db575b600080fd5b34801561006657600080fd5b5061006f6100f0565b005b34801561007d57600080fd5b5061006f61008c366004610415565b6100fc565b61006f61009f366004610446565b61011a565b3480156100b057600080fd5b5060005460405190815260200160405180910390f35b3480156100d257600080fd5b5061006f61012a565b3480156100e757600080fd5b5061006f610138565b6100fa6000610141565b565b6101178160405180602001604052806000815250600061019d565b50565b6101268282600061019d565b5050565b6100fa600080546001019055565b6100fa60008055565b8054806101955760405162461bcd60e51b815260206004820152601b60248201527f436f756e7465723a2064656372656d656e74206f766572666c6f77000000000060448201526064015b60405180910390fd5b600019019055565b6101a6836101c9565b6000825111806101b35750805b156101c4576101c28383610209565b505b505050565b6101d281610235565b6040516001600160a01b038216907fbc7cd75a20ee27fd9adebab32041f755214dbc6bffa90cc0225b39da2e5c2d3b90600090a250565b606061022e838360405180606001604052806027815260200161057c602791396102e3565b9392505050565b6001600160a01b0381163b6102a25760405162461bcd60e51b815260206004820152602d60248201527f455243313936373a206e657720696d706c656d656e746174696f6e206973206e60448201526c1bdd08184818dbdb9d1c9858dd609a1b606482015260840161018c565b7f360894a13ba1a3210667c828492db98dca3e2076cc3735a920a3ca505d382bbc80546001600160a01b0319166001600160a01b0392909216919091179055565b60606001600160a01b0384163b61034b5760405162461bcd60e51b815260206004820152602660248201527f416464726573733a2064656c65676174652063616c6c20746f206e6f6e2d636f6044820152651b9d1c9858dd60d21b606482015260840161018c565b600080856001600160a01b031685604051610366919061052c565b600060405180830381855af49150503d80600081146103a1576040519150601f19603f3d011682016040523d82523d6000602084013e6103a6565b606091505b50915091506103b68282866103c0565b9695505050505050565b606083156103cf57508161022e565b8251156103df5782518084602001fd5b8160405162461bcd60e51b815260040161018c9190610548565b80356001600160a01b038116811461041057600080fd5b919050565b60006020828403121561042757600080fd5b61022e826103f9565b634e487b7160e01b600052604160045260246000fd5b6000806040838503121561045957600080fd5b610462836103f9565b9150602083013567ffffffffffffffff8082111561047f57600080fd5b818501915085601f83011261049357600080fd5b8135818111156104a5576104a5610430565b604051601f8201601f19908116603f011681019083821181831017156104cd576104cd610430565b816040528281528860208487010111156104e657600080fd5b8260208601602083013760006020848301015280955050505050509250929050565b60005b8381101561052357818101518382015260200161050b565b50506000910152565b6000825161053e818460208701610508565b9190910192915050565b6020815260008251806020840152610567816040850160208701610508565b601f01601f1916919091016040019291505056fe416464726573733a206c6f772d6c6576656c2064656c65676174652063616c6c206661696c6564a264697066735822122091c17b1a6c9b7f7eca5ffee2e927baf2b725254115fa6b0bb7b36b814b88166a64736f6c63430008150033",
  "bytecodeSha1": "3c5289bb073c7770c8fd71ec8ceed2ccc3c22e13",
  "compiler": {
    "evm_version": "istanbul",
    "optimizer": {
      "enabled": true,
      "runs": 200
    },
    "version": "0.8.21+commit.d9974bed"
  },
  "contractName": "UUPSUpgradeableUnsafeMock",
  "language": "Solidity",
  "natspec": {
    "kind": "dev",
    "methods": {
      "upgradeTo(address)": {
        "details": "Upgrade the implementation of the proxy to `newImplementation`. Calls {_authorizeUpgrade}. Emits an {Upgraded} event."
      },
      "upgradeToAndCall(address,bytes)": {
        "details": "Upgrade the implementation of the proxy to `newImplementation`, and subsequently execute the function call encoded in `data`. Calls {_authorizeUpgrade}. Emits an {Upgraded} event."
      }
    },
    "version": 1
  },
  "opcodes": "PUSH1 0x80 PUSH1 0x40 MSTORE PUSH1 0x4 CALLDATASIZE LT PUSH2 0x55 JUMPI PUSH1 0x0 CALLDATALOAD PUSH1 0xE0 SHR DUP1 PUSH4 0x2BAECEB7 EQ PUSH2 0x5A JUMPI DUP1 PUSH4 0x3659CFE6 EQ PUSH2 0x71 JUMPI DUP1 PUSH4 0x4F1EF286 EQ PUSH2 0x91 JUMPI DUP1 PUSH4 0x9FA6A6E3 EQ PUSH2 0xA4 JUMPI DUP1 PUSH4 0xD09DE08A EQ PUSH2 0xC6 JUMPI DUP1 PUSH4 0xD826F88F EQ PUSH2 0xDB JUMPI JUMPDEST PUSH1 0x0 DUP1 REVERT JUMPDEST CALLVALUE DUP1 ISZERO PUSH2 0x66 JUMPI PUSH1 0x0 DUP1 REVERT JUMPDEST POP PUSH2 0x6F PUSH2 0xF0 JUMP JUMPDEST STOP JUMPDEST CALLVALUE DUP1 ISZERO PUSH2 0x7D JUMPI PUSH1 0x0 DUP1 REVERT JUMPDEST POP PUSH2 0x6F PUSH2 0x8C CALLDATASIZE PUSH1 0x4 PUSH2 0x415 JUMP JUMPDEST PUSH2 0xFC JUMP JUMPDEST PUSH2 0x6F PUSH2 0x9F CALLDATASIZE PUSH1 0x4 PUSH2 0x446 JUMP JUMPDEST PUSH2 0x11A JUMP JUMPDEST CALLVALUE DUP1 ISZERO PUSH2 0xB0 JUMPI PUSH1 0x0 DUP1 REVERT JUMPDEST POP PUSH1 0x0 SLOAD PUSH1 0x40 MLOAD SWAP1 DUP2 MSTORE PUSH1 0x20 ADD PUSH1 0x40 MLOAD DUP1 SWAP2 SUB SWAP1 RETURN JUMPDEST CALLVALUE DUP1 ISZERO PUSH2 0xD2 JUMPI PUSH1 0x0 DUP1 REVERT JUMPDEST POP PUSH2 0x6F PUSH2 0x12A JUMP JUMPDEST CALLVALUE DUP1 ISZERO PUSH2 0xE7 JUMPI PUSH1 0x0 DUP1 REVERT JUMPDEST POP PUSH2 0x6F PUSH2 0x138 JUMP JUMPDEST PUSH2 0xFA PUSH1 0x0 PUSH2 0x141 JUMP JUMPDEST JUMP JUMPDEST PUSH2 0x117 DUP2 PUSH1 0x40 MLOAD DUP1 PUSH1 0x20 ADD PUSH1 0x40 MSTORE DUP1 PUSH1 0x0 DUP2 MSTORE POP PUSH1 0x0 PUSH2 0x19D JUMP JUMPDEST POP JUMP JUMPDEST PUSH2 0x126 DUP3 DUP3 PUSH1 0x0 PUSH2 0x19D JUMP JUMPDEST POP POP JUMP JUMPDEST PUSH2 0xFA PUSH1 0x0 DUP1 SLOAD PUSH1 0x1 ADD SWAP1 SSTORE JUMP JUMPDEST PUSH2 0xFA PUSH1 0x0 DUP1 SSTORE JUMP JUMPDEST DUP1 SLOAD DUP1 PUSH2 0x195 JUMPI PUSH1 0x40 MLOAD PUSH3 0x461BCD PUSH1 0xE5 SHL DUP2 MSTORE PUSH1 0x20 PUSH1 0x4 DUP3 ADD MSTORE PUSH1 0x1B PUSH1 0x24 DUP3 ADD MSTORE PUSH32 0x436F756E7465723A2064656372656D656E74206F766572666C6F770000000000 PUSH1 0x44 DUP3 ADD MSTORE PUSH1 0x64 ADD JUMPDEST PUSH1 0x40 MLOAD DUP1 SWAP2 SUB SWAP1 REVERT JUMPDEST PUSH1 0x0 NOT ADD SWAP1 SSTORE JUMP JUMPDEST PUSH2 0x1A6 DUP4 PUSH2 0x1C9 JUMP JUMPDEST PUSH1 0x0 DUP3 MLOAD GT DUP1 PUSH2 0x1B3 JUMPI POP DUP1 JUMPDEST ISZERO PUSH2 0x1C4 JUMPI PUSH2 0x1C2 DUP4 DUP4 PUSH2 0x209 JUMP JUMPDEST POP JUMPDEST POP POP POP JUMP JUMPDEST PUSH2 0x1D2 DUP2 PUSH2 0x235 JUMP JUMPDEST PUSH1 0x40 MLOAD PUSH1 0x1 PUSH1 0x1 PUSH1 0xA0 SHL SUB DUP3 AND SWAP1 PUSH32 0xBC7CD75A20EE27FD9ADEBAB32041F755214DBC6BFFA90CC0225B39DA2E5C2D3B SWAP1 PUSH1 0x0 SWAP1 LOG2 POP JUMP JUMPDEST PUSH1 0x60 PUSH2 0x22E DUP4 DUP4 PUSH1 0x40 MLOAD DUP1 PUSH1 0x60 ADD PUSH1 0x40 MSTORE DUP1 PUSH1 0x27 DUP2 MSTORE PUSH1 0x20 ADD PUSH2 0x57C PUSH1 0x27 SWAP2 CODECOPY PUSH2 0x2E3 JUMP JUMPDEST SWAP4 SWAP3 POP POP POP JUMP JUMPDEST PUSH1 0x1 PUSH1 0x1 PUSH1 0xA0 SHL SUB DUP2 AND EXTCODESIZE PUSH2 0x2A2 JUMPI PUSH1 0x40 MLOAD PUSH3 0x461BCD PUSH1 0xE5 SHL DUP2 MSTORE PUSH1 0x20 PUSH1 0x4 DUP3 ADD MSTORE PUSH1 0x2D PUSH1 0x24 DUP3 ADD MSTORE PUSH32 0x455243313936373A206E657720696D706C656D656E746174696F6E206973206E PUSH1 0x44 DUP3 ADD MSTORE PUSH13 0x1BDD08184818DBDB9D1C9858DD PUSH1 0x9A SHL PUSH1 0x64 DUP3 ADD MSTORE PUSH1 0x84 ADD PUSH2 0x18C JUMP JUMPDEST PUSH32 0x360894A13BA1A3210667C828492DB98DCA3E2076CC3735A920A3CA505D382BBC DUP1 SLOAD PUSH1 0x1 PUSH1 0x1 PUSH1 0xA0 SHL SUB NOT AND PUSH1 0x1 PUSH1 0x1 PUSH1 0xA0 SHL SUB SWAP3 SWAP1 SWAP3 AND SWAP2 SWAP1 SWAP2 OR SWAP1 SSTORE JUMP JUMPDEST PUSH1 0x60 PUSH1 0x1 PUSH1 0x1 PUSH1 0xA0 SHL SUB DUP5 AND EXTCODESIZE PUSH2 0x34B JUMPI PUSH1 0x40 MLOAD PUSH3 0x461BCD PUSH1 0xE5 SHL DUP2 MSTORE PUSH1 0x20 PUSH1 0x4 DUP3 ADD MSTORE PUSH1 0x26 PUSH1 0x24 DUP3 ADD MSTORE PUSH32 0x416464726573733A2064656C65676174652063616C6C20746F206E6F6E2D636F PUSH1 0x44 DUP3 ADD MSTORE PUSH6 0x1B9D1C9858DD PUSH1 0xD2 SHL PUSH1 0x64 DUP3 ADD MSTORE PUSH1 0x84 ADD PUSH2 0x18C JUMP JUMPDEST PUSH1 0x0 DUP1 DUP6 PUSH1 0x1 PUSH1 0x1 PUSH1 0xA0 SHL SUB AND DUP6 PUSH1 0x40 MLOAD PUSH2 0x366 SWAP2 SWAP1 PUSH2 0x52C JUMP JUMPDEST PUSH1 0x0 PUSH1 0x40 MLOAD DUP1 DUP4 SUB DUP2 DUP6 GAS DELEGATECALL SWAP2 POP POP RETURNDATASIZE DUP1 PUSH1 0x0 DUP2 EQ PUSH2 0x3A1 JUMPI PUSH1 0x40 MLOAD SWAP2 POP PUSH1 0x1F NOT PUSH1 0x3F RETURNDATASIZE ADD AND DUP3 ADD PUSH1 0x40 MSTORE RETURNDATASIZE DUP3 MSTORE RETURNDATASIZE PUSH1 0x0 PUSH1 0x20 DUP5 ADD RETURNDATACOPY PUSH2 0x3A6 JUMP JUMPDEST PUSH1 0x60 SWAP2 POP JUMPDEST POP SWAP2 POP SWAP2 POP PUSH2 0x3B6 DUP3 DUP3 DUP7 PUSH2 0x3C0 JUMP JUMPDEST SWAP7 SWAP6 POP POP POP POP POP POP JUMP JUMPDEST PUSH1 0x60 DUP4 ISZERO PUSH2 0x3CF JUMPI POP DUP2 PUSH2 0x22E JUMP JUMPDEST DUP3 MLOAD ISZERO PUSH2 0x3DF JUMPI DUP3 MLOAD DUP1 DUP5 PUSH1 0x20 ADD REVERT JUMPDEST DUP2 PUSH1 0x40 MLOAD PUSH3 0x461BCD PUSH1 0xE5 SHL DUP2 MSTORE PUSH1 0x4 ADD PUSH2 0x18C SWAP2 SWAP1 PUSH2 0x548 JUMP JUMPDEST DUP1 CALLDATALOAD PUSH1 0x1 PUSH1 0x1 PUSH1 0xA0 SHL SUB DUP2 AND DUP2 EQ PUSH2 0x410 JUMPI PUSH1 0x0 DUP1 REVERT JUMPDEST SWAP2 SWAP1 POP JUMP JUMPDEST PUSH1 0x0 PUSH1 0x20 DUP3 DUP5 SUB SLT ISZERO PUSH2 0x427 JUMPI PUSH1 0x0 DUP1 REVERT JUMPDEST PUSH2 0x22E DUP3 PUSH2 0x3F9 JUMP JUMPDEST PUSH4 0x4E487B71 PUSH1 0xE0 SHL PUSH1 0x0 MSTORE PUSH1 0x41 PUSH1 0x4 MSTORE PUSH1 0x24 PUSH1 0x0 REVERT JUMPDEST PUSH1 0x0 DUP1 PUSH1 0x40 DUP4 DUP6 SUB SLT ISZERO PUSH2 0x459 JUMPI PUSH1 0x0 DUP1 REVERT JUMPDEST PUSH2 0x462 DUP4 PUSH2 0x3F9 JUMP JUMPDEST SWAP2 POP PUSH1 0x20 DUP4 ADD CALLDATALOAD PUSH8 0xFFFFFFFFFFFFFFFF DUP1 DUP3 GT ISZERO PUSH2 0x47F JUMPI PUSH1 0x0 DUP1 REVERT JUMPDEST DUP2 DUP6 ADD SWAP2 POP DUP6 PUSH1 0x1F DUP4 ADD SLT PUSH2 0x493 JUMPI PUSH1 0x0 DUP1 REVERT JUMPDEST DUP2 CALLDATALOAD DUP2 DUP2 GT ISZERO PUSH2 0x4A5 JUMPI PUSH2 0x4A5 PUSH2 0x430 JUMP JUMPDEST PUSH1 0x40 MLOAD PUSH1 0x1F DUP3 ADD PUSH1 0x1F NOT SWAP1 DUP2 AND PUSH1 0x3F ADD AND DUP2 ADD SWAP1 DUP4 DUP3 GT DUP2 DUP4 LT OR ISZERO PUSH2 0x4CD JUMPI PUSH2 0x4CD PUSH2 0x430 JUMP JUMPDEST DUP2 PUSH1 0x40 MSTORE DUP3 DUP2 MSTORE DUP9 PUSH1 0x20 DUP5 DUP8 ADD ADD GT ISZERO PUSH2 0x4E6 JUMPI PUSH1 0x0 DUP1 REVERT JUMPDEST DUP3 PUSH1 0x20 DUP7 ADD PUSH1 0x20 DUP4 ADD CALLDATACOPY PUSH1 0x0 PUSH1 0x20 DUP5 DUP4 ADD ADD MSTORE DUP1 SWAP6 POP POP POP POP POP POP SWAP3 POP SWAP3 SWAP1 POP JUMP JUMPDEST PUSH1 0x0 JUMPDEST DUP4 DUP2 LT ISZERO PUSH2 0x523 JUMPI DUP2 DUP2 ADD MLOAD DUP4 DUP3 ADD MSTORE PUSH1 0x20 ADD PUSH2 0x50B JUMP JUMPDEST POP POP PUSH1 0x0 SWAP2 ADD MSTORE JUMP JUMPDEST PUSH1 0x0 DUP3 MLOAD PUSH2 0x53E DUP2 DUP5 PUSH1 0x20 DUP8 ADD PUSH2 0x508 JUMP JUMPDEST SWAP2 SWAP1 SWAP2 ADD SWAP3 SWAP2 POP POP JUMP JUMPDEST PUSH1 0x20 DUP2 MSTORE PUSH1 0x0 DUP3 MLOAD DUP1 PUSH1 0x20 DUP5 ADD MSTORE PUSH2 0x567 DUP2 PUSH1 0x40 DUP6 ADD PUSH1 0x20 DUP8 ADD PUSH2 0x508 JUMP JUMPDEST PUSH1 0x1F ADD PUSH1 0x1F NOT AND SWAP2 SWAP1 SWAP2 ADD PUSH1 0x40 ADD SWAP3 SWAP2 POP POP JUMP INVALID COINBASE PUSH5 0x6472657373 GASPRICE KECCAK256 PUSH13 0x6F772D6C6576656C2064656C65 PUSH8 0x6174652063616C6C KECCAK256 PUSH7 0x61696C6564A264 PUSH10 0x7066735822122091C17B BYTE PUSH13 0x9B7F7ECA5FFEE2E927BAF2B725 0x25 COINBASE ISZERO STATICCALL PUSH12 0xBB7B36B814B88166A64736F PUSH13 0x63430008150033000000000000 ",
  "sha1": "c8a10b888a9c5a23274c596fd65f2208cf3de150",
  "source": "// SPDX-License-Identifier: MIT\n\npragma solidity ^0.8.0;\n\nimport \"../CountersImpl.sol\";\nimport \"../../proxy/utils/UUPSUpgradeable.sol\";\n\ncontract UUPSUpgradeableMock is CountersImpl, UUPSUpgradeable {\n    // Not having any checks in this function is dangerous! Do not do this outside tests!\n    function _authorizeUpgrade(address) internal virtual override {}\n}\n\ncontract UUPSUpgradeableUnsafeMock is UUPSUpgradeableMock {\n    function upgradeTo(address newImplementation) external virtual override {\n        ERC1967Upgrade._upgradeToAndCall(newImplementation, bytes(\"\"), false);\n    }\n\n    function upgradeToAndCall(address newImplementation, bytes memory data) external payable virtual override {\n        ERC1967Upgrade._upgradeToAndCall(newImplementation, data, false);\n    }\n}\n\ncontract UUPSUpgradeableBrokenMock is UUPSUpgradeableMock {\n    function upgradeTo(address) external virtual override {\n        // pass\n    }\n\n    function upgradeToAndCall(address, bytes memory) external payable virtual override {\n        // pass\n    }\n}\n",
  "sourcePath": "contracts/openzeppelin-solidity/contracts/mocks/UUPS/TestInProd.sol",
  "type": "contract"
}